{"contracts/EventContract.sol":{"EventContract":{"abi":[{"anonymous":false,"inputs":[{"indexed":true,"internalType":"uint256","name":"eventId","type":"uint256"}],"name":"EventCancelled","type":"event"},{"anonymous":false,"inputs":[{"indexed":true,"internalType":"uint256","name":"eventId","type":"uint256"},{"indexed":true,"internalType":"address","name":"organizer","type":"address"},{"indexed":false,"internalType":"string","name":"title","type":"string"}],"name":"EventCreated","type":"event"},{"anonymous":false,"inputs":[{"indexed":true,"internalType":"uint256","name":"eventId","type":"uint256"},{"indexed":false,"internalType":"string","name":"title","type":"string"}],"name":"EventUpdated","type":"event"},{"anonymous":false,"inputs":[{"indexed":true,"internalType":"address","name":"previousOwner","type":"address"},{"indexed":true,"internalType":"address","name":"newOwner","type":"address"}],"name":"OwnershipTransferred","type":"event"},{"anonymous":false,"inputs":[{"indexed":true,"internalType":"address","name":"oldProcessor","type":"address"},{"indexed":true,"internalType":"address","name":"newProcessor","type":"address"}],"name":"PaymentProcessorUpdated","type":"event"},{"anonymous":false,"inputs":[{"indexed":true,"internalType":"uint256","name":"eventId","type":"uint256"},{"indexed":true,"internalType":"address","name":"user","type":"address"}],"name":"UserRegistered","type":"event"},{"anonymous":false,"inputs":[{"indexed":true,"internalType":"uint256","name":"eventId","type":"uint256"},{"indexed":true,"internalType":"address","name":"user","type":"address"}],"name":"UserUnregistered","type":"event"},{"inputs":[{"internalType":"uint256","name":"_eventId","type":"uint256"}],"name":"cancelEvent","outputs":[],"stateMutability":"nonpayable","type":"function"},{"inputs":[{"internalType":"string","name":"_title","type":"string"},{"internalType":"string","name":"_description","type":"string"},{"internalType":"uint256","name":"_startDate","type":"uint256"},{"internalType":"uint256","name":"_endDate","type":"uint256"},{"internalType":"uint256","name":"_ticketPrice","type":"uint256"},{"internalType":"uint256","name":"_capacity","type":"uint256"},{"internalType":"string","name":"_location","type":"string"},{"internalType":"string[]","name":"_categories","type":"string[]"}],"name":"createEvent","outputs":[{"internalType":"uint256","name":"","type":"uint256"}],"stateMutability":"nonpayable","type":"function"},{"inputs":[],"name":"eventCount","outputs":[{"internalType":"uint256","name":"","type":"uint256"}],"stateMutability":"view","type":"function"},{"inputs":[{"internalType":"uint256","name":"","type":"uint256"},{"internalType":"address","name":"","type":"address"}],"name":"eventRegistrations","outputs":[{"internalType":"bool","name":"","type":"bool"}],"stateMutability":"view","type":"function"},{"inputs":[{"internalType":"uint256","name":"","type":"uint256"}],"name":"events","outputs":[{"internalType":"uint256","name":"id","type":"uint256"},{"internalType":"string","name":"title","type":"string"},{"internalType":"string","name":"description","type":"string"},{"internalType":"uint256","name":"startDate","type":"uint256"},{"internalType":"uint256","name":"endDate","type":"uint256"},{"internalType":"uint256","name":"ticketPrice","type":"uint256"},{"internalType":"uint256","name":"capacity","type":"uint256"},{"internalType":"uint256","name":"registeredCount","type":"uint256"},{"internalType":"address","name":"organizer","type":"address"},{"internalType":"bool","name":"isActive","type":"bool"},{"internalType":"string","name":"location","type":"string"}],"stateMutability":"view","type":"function"},{"inputs":[],"name":"getActiveEvents","outputs":[{"internalType":"uint256[]","name":"","type":"uint256[]"}],"stateMutability":"view","type":"function"},{"inputs":[],"name":"getContractBalance","outputs":[{"internalType":"uint256","name":"","type":"uint256"}],"stateMutability":"view","type":"function"},{"inputs":[{"internalType":"uint256","name":"_eventId","type":"uint256"}],"name":"getEvent","outputs":[{"internalType":"uint256","name":"id","type":"uint256"},{"internalType":"string","name":"title","type":"string"},{"internalType":"string","name":"description","type":"string"},{"internalType":"uint256","name":"startDate","type":"uint256"},{"internalType":"uint256","name":"endDate","type":"uint256"},{"internalType":"uint256","name":"ticketPrice","type":"uint256"},{"internalType":"uint256","name":"capacity","type":"uint256"},{"internalType":"uint256","name":"registeredCount","type":"uint256"},{"internalType":"address","name":"organizer","type":"address"},{"internalType":"bool","name":"isActive","type":"bool"},{"internalType":"string","name":"location","type":"string"},{"internalType":"string[]","name":"categories","type":"string[]"}],"stateMutability":"view","type":"function"},{"inputs":[{"internalType":"address","name":"_organizer","type":"address"}],"name":"getEventsByOrganizer","outputs":[{"internalType":"uint256[]","name":"","type":"uint256[]"}],"stateMutability":"view","type":"function"},{"inputs":[{"internalType":"uint256","name":"_eventId","type":"uint256"},{"internalType":"address","name":"_user","type":"address"}],"name":"isUserRegistered","outputs":[{"internalType":"bool","name":"","type":"bool"}],"stateMutability":"view","type":"function"},{"inputs":[],"name":"owner","outputs":[{"internalType":"address","name":"","type":"address"}],"stateMutability":"view","type":"function"},{"inputs":[],"name":"paymentProcessor","outputs":[{"internalType":"address","name":"","type":"address"}],"stateMutability":"view","type":"function"},{"inputs":[],"name":"platformFee","outputs":[{"internalType":"uint256","name":"","type":"uint256"}],"stateMutability":"view","type":"function"},{"inputs":[{"internalType":"uint256","name":"_eventId","type":"uint256"}],"name":"registerForEvent","outputs":[],"stateMutability":"payable","type":"function"},{"inputs":[],"name":"renounceOwnership","outputs":[],"stateMutability":"nonpayable","type":"function"},{"inputs":[{"internalType":"address","name":"_paymentProcessor","type":"address"}],"name":"setPaymentProcessor","outputs":[],"stateMutability":"nonpayable","type":"function"},{"inputs":[{"internalType":"address","name":"newOwner","type":"address"}],"name":"transferOwnership","outputs":[],"stateMutability":"nonpayable","type":"function"},{"inputs":[{"internalType":"uint256","name":"_eventId","type":"uint256"}],"name":"unregisterFromEvent","outputs":[],"stateMutability":"nonpayable","type":"function"},{"inputs":[{"internalType":"uint256","name":"_eventId","type":"uint256"},{"internalType":"string","name":"_title","type":"string"},{"internalType":"string","name":"_description","type":"string"},{"internalType":"uint256","name":"_startDate","type":"uint256"},{"internalType":"uint256","name":"_endDate","type":"uint256"},{"internalType":"uint256","name":"_ticketPrice","type":"uint256"},{"internalType":"uint256","name":"_capacity","type":"uint256"},{"internalType":"string","name":"_location","type":"string"},{"internalType":"string[]","name":"_categories","type":"string[]"}],"name":"updateEvent","outputs":[],"stateMutability":"nonpayable","type":"function"},{"inputs":[{"internalType":"uint256","name":"_newFee","type":"uint256"}],"name":"updatePlatformFee","outputs":[],"stateMutability":"nonpayable","type":"function"},{"inputs":[],"name":"withdrawPlatformFees","outputs":[],"stateMutability":"nonpayable","type":"function"}],"evm":{"bytecode":{"linkReferences":{},"object":"608080604052346100635760008054336001600160a01b0319821681178355916001600160a01b03909116907f8be0079c531659141344cd1fd0a4f28419497f9722a3daafe3b4186f6b6457e09080a360018055600580556122a290816100698239f35b600080fdfe6080604052600436101561001257600080fd5b60003560e01c8063088b0d7514611ccc5780630b79143014611bec57806326232a2e14611bce5780633612280f14611b255780633e2c70141461156d5780633f69babd14611a32578063406db843146116c25780634df6dab9146115ba57806357f697991461156d5780636d1884e0146113285780636f9fb98a1461130c578063715018a6146112b357806371be2e4a146112955780638da5cb5b1461126c5780639f6271c31461119c578063aa0b59881461112e578063c2c02965146109bc578063d0b7830b1461093c578063f1c6bdf814610913578063f2fde38b1461084a5763f49290061461010357600080fd5b3461084557610120366003190112610845576024356001600160401b03811161084557610134903690600401611f6f565b6044356001600160401b03811161084557610153903690600401611f6f565b9060e4356001600160401b03811161084557610173903690600401611f6f565b91610104356001600160401b03811161084557610194903690600401611fcd565b60043560005260026020526101af604060002054151561216c565b60043560005260026020526101d560018060a01b036008604060002001541633146121af565b600435600052600260205260ff60086040600020015460a01c16156108005761020142606435116120a5565b610210606435608435116120f0565b600435600052600260205260076040600020015460c4351061079c57600435600052600260205260406000209183516001600160401b0381116105005761025a6001850154611dbc565b601f8111610767575b50806020601f82116001146106fa576000916106ef575b508160011b916000199060031b1c19161760018401555b8051906001600160401b0382116105005781906102b16002860154611dbc565b601f81116106ba575b50602090601f83116001146106485760009261063d575b50508160011b916000199060031b1c19161760028301555b6064356003830155608435600483015560a435600583015560c435600683015583516001600160401b038111610500576103266009840154611dbc565b601f8111610608575b506020601f821160011461059957819293949560009261058e575b50508160011b916000199060031b1c19161760098301555b805190600160401b821161050057600a83015482600a850155808310610516575b506020600a910192016000526020600020916000905b8282106103e057847f0c21d47f606573d65eedb6ee084e32d784cfcd5ce32240b22f19de37d6b4096960405160208152806103db600435946020830190611ed9565b0390a2005b80518051906001600160401b038211610500576103fd8654611dbc565b601f81116104c3575b50602090601f8311600114610453579282600194936020938695600092610448575b5050600019600383901b1c191690841b1787555b01940191019092610399565b015190503880610428565b908660005260206000209160005b601f19851681106104ab575083602093600196938796938794601f19811610610492575b505050811b01875561043c565b015160001960f88460031b161c19169055388080610485565b91926020600181928685015181550194019201610461565b6104f090876000526020600020601f850160051c810191602086106104f6575b601f0160051c0190612155565b38610406565b90915081906104e3565b634e487b7160e01b600052604160045260246000fd5b600a84016000526020600020908382015b8183018110610537575050610383565b8061054460019254611dbc565b80610551575b5001610527565b601f811183146105675750600081555b3861054a565b600090828252610585601f60208420920160051c8201858301612155565b81835555610561565b01519050388061034a565b6009840160005260206000209060005b601f19841681106105f0575060019394959683601f198116106105d7575b505050811b016009830155610362565b015160001960f88460031b161c191690553880806105c7565b9091602060018192858b0151815501930191016105a9565b61063790600985016000526020600020601f840160051c810191602085106104f657601f0160051c0190612155565b3861032f565b0151905038806102d1565b9250600285016000526020600020906000935b601f198416851061069f576001945083601f19811610610686575b505050811b0160028301556102e9565b015160001960f88460031b161c19169055388080610676565b8181015183556020948501946001909301929091019061065b565b6106e990600287016000526020600020601f850160051c810191602086106104f657601f0160051c0190612155565b386102ba565b90508501513861027a565b91506001850160005260206000206000925b601f198316841061074f576001935082601f19811610610736575b5050811b016001840155610291565b87015160001960f88460031b161c191690553880610727565b8781015182556020938401936001909201910161070c565b61079690600186016000526020600020601f840160051c810191602085106104f657601f0160051c0190612155565b38610263565b60405162461bcd60e51b815260206004820152603660248201527f4e65772063617061636974792063616e6e6f74206265206c657373207468616e6044820152752063757272656e7420726567697374726174696f6e7360501b6064820152608490fd5b60405162461bcd60e51b815260206004820152601d60248201527f43616e6e6f74207570646174652063616e63656c6c6564206576656e740000006044820152606490fd5b600080fd5b3461084557602036600319011261084557610863611d90565b61086b61204d565b6001600160a01b039081169081156108bf57600054826bffffffffffffffffffffffff60a01b821617600055167f8be0079c531659141344cd1fd0a4f28419497f9722a3daafe3b4186f6b6457e0600080a3005b60405162461bcd60e51b815260206004820152602660248201527f4f776e61626c653a206e6577206f776e657220697320746865207a65726f206160448201526564647265737360d01b6064820152608490fd5b34610845576000366003190112610845576006546040516001600160a01b039091168152602090f35b346108455760003660031901126108455761095561204d565b4780156109815760008080809360018060a01b0382541682f11561097557005b6040513d6000823e3d90fd5b60405162461bcd60e51b81526020600482015260136024820152724e6f206665657320746f20776974686472617760681b6044820152606490fd5b3461084557610100366003190112610845576004356001600160401b038111610845576109ed903690600401611f6f565b6024356001600160401b03811161084557610a0c903690600401611f6f565b9060c4356001600160401b03811161084557610a2c903690600401611f6f565b9060e4356001600160401b03811161084557610a4c903690600401611fcd565b8151156110f157610a6042604435116120a5565b610a6f604435606435116120f0565b60a435156110ac57610a82600454612146565b928360045560405194610a9486611df6565b84865283602087015260408601526044356060860152606435608086015260843560a086015260a43560c0860152600060e08601523361010086015260016101208601526101408501526101608401528160005260026020526040600020928051845560208101518051906001600160401b038211610500578190610b1c6001880154611dbc565b601f8111611077575b50602090601f831160011461100557600092610ffa575b50508160011b916000199060031b1c19161760018501555b60408101518051906001600160401b038211610500578190610b796002880154611dbc565b601f8111610fc5575b50602090601f8311600114610f5357600092610f48575b50508160011b916000199060031b1c19161760028501555b606081015160038501556080810151600485015560a0810151600585015560c0810151600685015560e081015160078501556008840160018060a01b036101008301511681549060ff60a01b610120850151151560a01b16916affffffffffffffffffffff60a81b16171790556101408101518051906001600160401b03821161050057610c426009870154611dbc565b601f8111610f13575b50602090601f8311600114610e9f5761016093929160009183610e94575b50508160011b916000199060031b1c19161760098601555b0151805190600160401b821161050057600a85015482600a870155808310610e1c575b506020600a910194016000526020600020936000905b828210610d075760208585817ffc695dea2478fb938a11068aeedddd7046a5fe655f136e30a325d353fe187a4560405185815280610cfc339588830190611ed9565b0390a3604051908152f35b80518051906001600160401b03821161050057610d248854611dbc565b601f8111610dea575b50602090601f8311600114610d7a579282600194936020938695600092610d6f575b5050600019600383901b1c191690841b1789555b01960191019094610cba565b015190508b80610d4f565b908860005260206000209160005b601f1985168110610dd2575083602093600196938796938794601f19811610610db9575b505050811b018955610d63565b015160001960f88460031b161c191690558b8080610dac565b91926020600181928685015181550194019201610d88565b610e1690896000526020600020601f850160051c810191602086106104f657601f0160051c0190612155565b88610d2d565b600a86016000526020600020908382015b8183018110610e3d575050610ca4565b80610e4a60019254611dbc565b80610e57575b5001610e2d565b601f81118314610e6d5750600081555b89610e50565b600090828252610e8b601f60208420920160051c8201858301612155565b81835555610e67565b015190508780610c69565b906009870160005260206000209160005b601f1985168110610efb57509183916001936101609695601f19811610610ee2575b505050811b016009860155610c81565b015160001960f88460031b161c19169055878080610ed2565b91926020600181928685015181550194019201610eb0565b610f4290600988016000526020600020601f850160051c810191602086106104f657601f0160051c0190612155565b86610c4b565b015190508680610b99565b9250600287016000526020600020906000935b601f1984168510610faa576001945083601f19811610610f91575b505050811b016002850155610bb1565b015160001960f88460031b161c19169055868080610f81565b81810151835560209485019460019093019290910190610f66565b610ff490600289016000526020600020601f850160051c810191602086106104f657601f0160051c0190612155565b87610b82565b015190508680610b3c565b9250600187016000526020600020906000935b601f198416851061105c576001945083601f19811610611043575b505050811b016001850155610b54565b015160001960f88460031b161c19169055868080611033565b81810151835560209485019460019093019290910190611018565b6110a690600189016000526020600020601f850160051c810191602086106104f657601f0160051c0190612155565b87610b25565b60405162461bcd60e51b815260206004820152601f60248201527f4361706163697479206d7573742062652067726561746572207468616e2030006044820152606490fd5b60405162461bcd60e51b81526020600482015260156024820152745469746c652063616e6e6f7420626520656d70747960581b6044820152606490fd5b346108455760203660031901126108455760043561114a61204d565b6014811161115757600555005b60405162461bcd60e51b815260206004820152601e60248201527f506c6174666f726d206665652063616e6e6f74206578636565642032302500006044820152606490fd5b3461084557602080600319360112610845576111b6611d90565b6004546111c281612210565b926000926001600160a01b039081169160015b848111156112295786866111e881612210565b9160005b82811061120557604051806112018682611f19565b0390f35b806112136112249284612242565b5161121e8287612242565b52612146565b6111ec565b806000526002825283836008604060002001541614611251575b61124c90612146565b6111d5565b94611264818761121e61124c948b612242565b959050611243565b34610845576000366003190112610845576000546040516001600160a01b039091168152602090f35b34610845576000366003190112610845576020600454604051908152f35b34610845576000366003190112610845576112cc61204d565b600080546001600160a01b0319811682556001600160a01b03167f8be0079c531659141344cd1fd0a4f28419497f9722a3daafe3b4186f6b6457e08280a3005b3461084557600036600319011261084557602047604051908152f35b3461084557602036600319011261084557600435806000526002602052611355604060002054151561216c565b600052600260205260406000206040519061136f82611df6565b8054825261137f60018201611e33565b602083015261139060028201611e33565b60408301526003810154606083015260048101546080830152600581015460a0830152600681015460c0830152600781015460e083015260ff600882015460018060a01b03811661010085015260a01c1615156101208301526113f560098201611e33565b610140830152600a81015461140981611fb6565b906114176040519283611e12565b80825260208201600a81940160005260206000206000915b8383106115505786858781610160840152825191602084015193604081015190606081015190608081015160a082015160c083015160e084015191600160a01b6001900361010086015116936101208601511515956101400151976040519c8d9c8d528c6101806020819201528d016114a791611ed9565b8c810360408e01526114b891611ed9565b9660608c015260808b015260a08a015260c089015260e08801526101008701526101208601528481036101408601526114f091611ed9565b908382036101608501525180825260208201918160051b810160200193926000915b83831061151f5786860387f35b91939550919360208061153e600193601f198682030187528951611ed9565b97019301930190928695949293611512565b60016020819261155f85611e33565b81520192019201919061142f565b3461084557604036600319011261084557611586611da6565b600435600052600360205260406000209060018060a01b0316600052602052602060ff604060002054166040519015158152f35b3461084557602080600319360112610845576004359081600052600281526115e8604060002054151561216c565b8160005260038152604060002033600052815260ff604060002054161561167e576000828152600282526040808220600384528183203384529093529020805460ff19169055600701805480156116685760001901905533907fd7e5581f5accf2708572ba158aa9df7b822d6855be3657319e94b445a58f7703600080a3005b634e487b7160e01b600052601160045260246000fd5b6064906040519062461bcd60e51b82526004820152601d60248201527f4e6f74207265676973746572656420666f722074686973206576656e740000006044820152fd5b602080600319360112610845576004359081600052600281526116eb604060002054151561216c565b816000526002815260ff60086040600020015460a01c16156119f8576002600154146119b45760026001558160005260028152604060002060038252604060002033600052825260ff60406000205416611965576007810180546006830154111561192057600582015434106118e4576006546001600160a01b03919082161561189f57846000526003845260406000203360005284526040600020600160ff1982541617905561179c8154612146565b905560088160065416920154166040519183830191633279c41160e01b835285602485015233604485015260648401523460848401526084835260c08301918383106001600160401b03841117610500576000938493604052519134905af13d1561189a573d61180b81611f54565b906118196040519283611e12565b81526000833d92013e5b15611856575033907fb442efe467d2ef30e62927a3cae0afcbc799a8a0944d8a143332e4e5e51cee5d600080a360018055005b6064906040519062461bcd60e51b82526004820152601960248201527f5061796d656e742070726f63657373696e67206661696c6564000000000000006044820152fd5b611823565b60405162461bcd60e51b815260048101859052601860248201527f5061796d656e7450726f636573736f72206e6f742073657400000000000000006044820152606490fd5b60405162461bcd60e51b8152600481018490526014602482015273125b9cdd59999a58da595b9d081c185e5b595b9d60621b6044820152606490fd5b60405162461bcd60e51b815260048101849052601960248201527f4576656e742069732061742066756c6c206361706163697479000000000000006044820152606490fd5b60405162461bcd60e51b815260048101839052602160248201527f416c7265616479207265676973746572656420666f722074686973206576656e6044820152601d60fa1b6064820152608490fd5b6064906040519062461bcd60e51b82526004820152601f60248201527f5265656e7472616e637947756172643a207265656e7472616e742063616c6c006044820152fd5b6064906040519062461bcd60e51b8252600482015260136024820152724576656e74206973206e6f742061637469766560681b6044820152fd5b346108455760208060031936011261084557600435908160005260028152611a60604060002054151561216c565b8160005260028152611a8360018060a01b036008604060002001541633146121af565b816000526002815260ff60086040600020015460a01c1615611ae1576000828152600290915260408120600801805460ff60a01b191690557fdc3cb569b066460f4a22dffa05317bdcce5d3826382ed49a21f13e5fa2063d399080a2005b6064906040519062461bcd60e51b82526004820152601a60248201527f4576656e7420697320616c72656164792063616e63656c6c65640000000000006044820152fd5b3461084557600036600319011261084557600454611b4281612210565b9060009060015b81811115611b88575050611b5c81612210565b9160005b828110611b7557604051806112018682611f19565b80611213611b839284612242565b611b60565b80600052600260205260ff60086040600020015460a01c16611bb3575b611bae90612146565b611b49565b91611bc6818461121e611bae9488612242565b929050611ba5565b34610845576000366003190112610845576020600554604051908152f35b3461084557602036600319011261084557600435600052600260205260406000208054611201611c1e60018401611e33565b92611c2b60028201611e33565b60ff60038301549260048101546005820154600683015490600784015492611c89611c5d600960088801549701611e33565b97611c7b6040519d8e9d8e528d610160908160208201520190611ed9565b8c810360408e015290611ed9565b9760608b015260808a015260a089015260c088015260e087015260018060a01b03811661010087015260a01c161515610120850152838203610140850152611ed9565b3461084557602036600319011261084557611ce5611d90565b611ced61204d565b6001600160a01b03908116908115611d4157600654826bffffffffffffffffffffffff60a01b821617600655167f136038487aabf3739b91acb5eb89bf0da13241b5f155cc8edcce2b5119e7b901600080a3005b60405162461bcd60e51b815260206004820152602160248201527f496e76616c6964207061796d656e742070726f636573736f72206164647265736044820152607360f81b6064820152608490fd5b600435906001600160a01b038216820361084557565b602435906001600160a01b038216820361084557565b90600182811c92168015611dec575b6020831014611dd657565b634e487b7160e01b600052602260045260246000fd5b91607f1691611dcb565b61018081019081106001600160401b0382111761050057604052565b90601f801991011681019081106001600160401b0382111761050057604052565b9060405191826000825492611e4784611dbc565b908184526001948581169081600014611eb65750600114611e73575b5050611e7192500383611e12565b565b9093915060005260209081600020936000915b818310611e9e575050611e7193508201013880611e63565b85548884018501529485019487945091830191611e86565b915050611e7194506020925060ff191682840152151560051b8201013880611e63565b919082519283825260005b848110611f05575050826000602080949584010152601f8019910116010190565b602081830181015184830182015201611ee4565b6020908160408183019282815285518094520193019160005b828110611f40575050505090565b835185529381019392810192600101611f32565b6001600160401b03811161050057601f01601f191660200190565b81601f8201121561084557803590611f8682611f54565b92611f946040519485611e12565b8284526020838301011161084557816000926020809301838601378301015290565b6001600160401b0381116105005760051b60200190565b9080601f8301121561084557813590611fe582611fb6565b92611ff36040519485611e12565b828452602092838086019160051b8301019280841161084557848301915b8483106120215750505050505090565b82356001600160401b03811161084557869161204284848094890101611f6f565b815201920191612011565b6000546001600160a01b0316330361206157565b606460405162461bcd60e51b815260206004820152602060248201527f4f776e61626c653a2063616c6c6572206973206e6f7420746865206f776e65726044820152fd5b156120ac57565b606460405162461bcd60e51b815260206004820152602060248201527f53746172742064617465206d75737420626520696e20746865206675747572656044820152fd5b156120f757565b60405162461bcd60e51b815260206004820152602160248201527f456e642064617465206d757374206265206166746572207374617274206461746044820152606560f81b6064820152608490fd5b60001981146116685760010190565b818110612160575050565b60008155600101612155565b1561217357565b60405162461bcd60e51b8152602060048201526014602482015273115d995b9d08191bd95cc81b9bdd08195e1a5cdd60621b6044820152606490fd5b156121b657565b60405162461bcd60e51b815260206004820152602c60248201527f4f6e6c79206576656e74206f7267616e697a65722063616e20706572666f726d60448201526b103a3434b99030b1ba34b7b760a11b6064820152608490fd5b9061221a82611fb6565b6122276040519182611e12565b8281528092612238601f1991611fb6565b0190602036910137565b80518210156122565760209160051b010190565b634e487b7160e01b600052603260045260246000fdfea26469706673582212205e886044b6298e1ab083620dde9c9fda556b9ee63f0b85b2e82c34c5322cd5d964736f6c63430008130033","opcodes":"PUSH1 0x80 DUP1 PUSH1 0x40 MSTORE CALLVALUE PUSH2 0x63 JUMPI PUSH1 0x0 DUP1 SLOAD CALLER PUSH1 0x1 PUSH1 0x1 PUSH1 0xA0 SHL SUB NOT DUP3 AND DUP2 OR DUP4 SSTORE SWAP2 PUSH1 0x1 PUSH1 0x1 PUSH1 0xA0 SHL SUB SWAP1 SWAP2 AND SWAP1 PUSH32 0x8BE0079C531659141344CD1FD0A4F28419497F9722A3DAAFE3B4186F6B6457E0 SWAP1 DUP1 LOG3 PUSH1 0x1 DUP1 SSTORE PUSH1 0x5 DUP1 SSTORE PUSH2 0x22A2 SWAP1 DUP2 PUSH2 0x69 DUP3 CODECOPY RETURN JUMPDEST PUSH1 0x0 DUP1 REVERT INVALID PUSH1 0x80 PUSH1 0x40 MSTORE PUSH1 0x4 CALLDATASIZE LT ISZERO PUSH2 0x12 JUMPI PUSH1 0x0 DUP1 REVERT JUMPDEST PUSH1 0x0 CALLDATALOAD PUSH1 0xE0 SHR DUP1 PUSH4 0x88B0D75 EQ PUSH2 0x1CCC JUMPI DUP1 PUSH4 0xB791430 EQ PUSH2 0x1BEC JUMPI DUP1 PUSH4 0x26232A2E EQ PUSH2 0x1BCE JUMPI DUP1 PUSH4 0x3612280F EQ PUSH2 0x1B25 JUMPI DUP1 PUSH4 0x3E2C7014 EQ PUSH2 0x156D JUMPI DUP1 PUSH4 0x3F69BABD EQ PUSH2 0x1A32 JUMPI DUP1 PUSH4 0x406DB843 EQ PUSH2 0x16C2 JUMPI DUP1 PUSH4 0x4DF6DAB9 EQ PUSH2 0x15BA JUMPI DUP1 PUSH4 0x57F69799 EQ PUSH2 0x156D JUMPI DUP1 PUSH4 0x6D1884E0 EQ PUSH2 0x1328 JUMPI DUP1 PUSH4 0x6F9FB98A EQ PUSH2 0x130C JUMPI DUP1 PUSH4 0x715018A6 EQ PUSH2 0x12B3 JUMPI DUP1 PUSH4 0x71BE2E4A EQ PUSH2 0x1295 JUMPI DUP1 PUSH4 0x8DA5CB5B EQ PUSH2 0x126C JUMPI DUP1 PUSH4 0x9F6271C3 EQ PUSH2 0x119C JUMPI DUP1 PUSH4 0xAA0B5988 EQ PUSH2 0x112E JUMPI DUP1 PUSH4 0xC2C02965 EQ PUSH2 0x9BC JUMPI DUP1 PUSH4 0xD0B7830B EQ PUSH2 0x93C JUMPI DUP1 PUSH4 0xF1C6BDF8 EQ PUSH2 0x913 JUMPI DUP1 PUSH4 0xF2FDE38B EQ PUSH2 0x84A JUMPI PUSH4 0xF4929006 EQ PUSH2 0x103 JUMPI PUSH1 0x0 DUP1 REVERT JUMPDEST CALLVALUE PUSH2 0x845 JUMPI PUSH2 0x120 CALLDATASIZE PUSH1 0x3 NOT ADD SLT PUSH2 0x845 JUMPI PUSH1 0x24 CALLDATALOAD PUSH1 0x1 PUSH1 0x1 PUSH1 0x40 SHL SUB DUP2 GT PUSH2 0x845 JUMPI PUSH2 0x134 SWAP1 CALLDATASIZE SWAP1 PUSH1 0x4 ADD PUSH2 0x1F6F JUMP JUMPDEST PUSH1 0x44 CALLDATALOAD PUSH1 0x1 PUSH1 0x1 PUSH1 0x40 SHL SUB DUP2 GT PUSH2 0x845 JUMPI PUSH2 0x153 SWAP1 CALLDATASIZE SWAP1 PUSH1 0x4 ADD PUSH2 0x1F6F JUMP JUMPDEST SWAP1 PUSH1 0xE4 CALLDATALOAD PUSH1 0x1 PUSH1 0x1 PUSH1 0x40 SHL SUB DUP2 GT PUSH2 0x845 JUMPI PUSH2 0x173 SWAP1 CALLDATASIZE SWAP1 PUSH1 0x4 ADD PUSH2 0x1F6F JUMP JUMPDEST SWAP2 PUSH2 0x104 CALLDATALOAD PUSH1 0x1 PUSH1 0x1 PUSH1 0x40 SHL SUB DUP2 GT PUSH2 0x845 JUMPI PUSH2 0x194 SWAP1 CALLDATASIZE SWAP1 PUSH1 0x4 ADD PUSH2 0x1FCD JUMP JUMPDEST PUSH1 0x4 CALLDATALOAD PUSH1 0x0 MSTORE PUSH1 0x2 PUSH1 0x20 MSTORE PUSH2 0x1AF PUSH1 0x40 PUSH1 0x0 KECCAK256 SLOAD ISZERO ISZERO PUSH2 0x216C JUMP JUMPDEST PUSH1 0x4 CALLDATALOAD PUSH1 0x0 MSTORE PUSH1 0x2 PUSH1 0x20 MSTORE PUSH2 0x1D5 PUSH1 0x1 DUP1 PUSH1 0xA0 SHL SUB PUSH1 0x8 PUSH1 0x40 PUSH1 0x0 KECCAK256 ADD SLOAD AND CALLER EQ PUSH2 0x21AF JUMP JUMPDEST PUSH1 0x4 CALLDATALOAD PUSH1 0x0 MSTORE PUSH1 0x2 PUSH1 0x20 MSTORE PUSH1 0xFF PUSH1 0x8 PUSH1 0x40 PUSH1 0x0 KECCAK256 ADD SLOAD PUSH1 0xA0 SHR AND ISZERO PUSH2 0x800 JUMPI PUSH2 0x201 TIMESTAMP PUSH1 0x64 CALLDATALOAD GT PUSH2 0x20A5 JUMP JUMPDEST PUSH2 0x210 PUSH1 0x64 CALLDATALOAD PUSH1 0x84 CALLDATALOAD GT PUSH2 0x20F0 JUMP JUMPDEST PUSH1 0x4 CALLDATALOAD PUSH1 0x0 MSTORE PUSH1 0x2 PUSH1 0x20 MSTORE PUSH1 0x7 PUSH1 0x40 PUSH1 0x0 KECCAK256 ADD SLOAD PUSH1 0xC4 CALLDATALOAD LT PUSH2 0x79C JUMPI PUSH1 0x4 CALLDATALOAD PUSH1 0x0 MSTORE PUSH1 0x2 PUSH1 0x20 MSTORE PUSH1 0x40 PUSH1 0x0 KECCAK256 SWAP2 DUP4 MLOAD PUSH1 0x1 PUSH1 0x1 PUSH1 0x40 SHL SUB DUP2 GT PUSH2 0x500 JUMPI PUSH2 0x25A PUSH1 0x1 DUP6 ADD SLOAD PUSH2 0x1DBC JUMP JUMPDEST PUSH1 0x1F DUP2 GT PUSH2 0x767 JUMPI JUMPDEST POP DUP1 PUSH1 0x20 PUSH1 0x1F DUP3 GT PUSH1 0x1 EQ PUSH2 0x6FA JUMPI PUSH1 0x0 SWAP2 PUSH2 0x6EF JUMPI JUMPDEST POP DUP2 PUSH1 0x1 SHL SWAP2 PUSH1 0x0 NOT SWAP1 PUSH1 0x3 SHL SHR NOT AND OR PUSH1 0x1 DUP5 ADD SSTORE JUMPDEST DUP1 MLOAD SWAP1 PUSH1 0x1 PUSH1 0x1 PUSH1 0x40 SHL SUB DUP3 GT PUSH2 0x500 JUMPI DUP2 SWAP1 PUSH2 0x2B1 PUSH1 0x2 DUP7 ADD SLOAD PUSH2 0x1DBC JUMP JUMPDEST PUSH1 0x1F DUP2 GT PUSH2 0x6BA JUMPI JUMPDEST POP PUSH1 0x20 SWAP1 PUSH1 0x1F DUP4 GT PUSH1 0x1 EQ PUSH2 0x648 JUMPI PUSH1 0x0 SWAP3 PUSH2 0x63D JUMPI JUMPDEST POP POP DUP2 PUSH1 0x1 SHL SWAP2 PUSH1 0x0 NOT SWAP1 PUSH1 0x3 SHL SHR NOT AND OR PUSH1 0x2 DUP4 ADD SSTORE JUMPDEST PUSH1 0x64 CALLDATALOAD PUSH1 0x3 DUP4 ADD SSTORE PUSH1 0x84 CALLDATALOAD PUSH1 0x4 DUP4 ADD SSTORE PUSH1 0xA4 CALLDATALOAD PUSH1 0x5 DUP4 ADD SSTORE PUSH1 0xC4 CALLDATALOAD PUSH1 0x6 DUP4 ADD SSTORE DUP4 MLOAD PUSH1 0x1 PUSH1 0x1 PUSH1 0x40 SHL SUB DUP2 GT PUSH2 0x500 JUMPI PUSH2 0x326 PUSH1 0x9 DUP5 ADD SLOAD PUSH2 0x1DBC JUMP JUMPDEST PUSH1 0x1F DUP2 GT PUSH2 0x608 JUMPI JUMPDEST POP PUSH1 0x20 PUSH1 0x1F DUP3 GT PUSH1 0x1 EQ PUSH2 0x599 JUMPI DUP2 SWAP3 SWAP4 SWAP5 SWAP6 PUSH1 0x0 SWAP3 PUSH2 0x58E JUMPI JUMPDEST POP POP DUP2 PUSH1 0x1 SHL SWAP2 PUSH1 0x0 NOT SWAP1 PUSH1 0x3 SHL SHR NOT AND OR PUSH1 0x9 DUP4 ADD SSTORE JUMPDEST DUP1 MLOAD SWAP1 PUSH1 0x1 PUSH1 0x40 SHL DUP3 GT PUSH2 0x500 JUMPI PUSH1 0xA DUP4 ADD SLOAD DUP3 PUSH1 0xA DUP6 ADD SSTORE DUP1 DUP4 LT PUSH2 0x516 JUMPI JUMPDEST POP PUSH1 0x20 PUSH1 0xA SWAP2 ADD SWAP3 ADD PUSH1 0x0 MSTORE PUSH1 0x20 PUSH1 0x0 KECCAK256 SWAP2 PUSH1 0x0 SWAP1 JUMPDEST DUP3 DUP3 LT PUSH2 0x3E0 JUMPI DUP5 PUSH32 0xC21D47F606573D65EEDB6EE084E32D784CFCD5CE32240B22F19DE37D6B40969 PUSH1 0x40 MLOAD PUSH1 0x20 DUP2 MSTORE DUP1 PUSH2 0x3DB PUSH1 0x4 CALLDATALOAD SWAP5 PUSH1 0x20 DUP4 ADD SWAP1 PUSH2 0x1ED9 JUMP JUMPDEST SUB SWAP1 LOG2 STOP JUMPDEST DUP1 MLOAD DUP1 MLOAD SWAP1 PUSH1 0x1 PUSH1 0x1 PUSH1 0x40 SHL SUB DUP3 GT PUSH2 0x500 JUMPI PUSH2 0x3FD DUP7 SLOAD PUSH2 0x1DBC JUMP JUMPDEST PUSH1 0x1F DUP2 GT PUSH2 0x4C3 JUMPI JUMPDEST POP PUSH1 0x20 SWAP1 PUSH1 0x1F DUP4 GT PUSH1 0x1 EQ PUSH2 0x453 JUMPI SWAP3 DUP3 PUSH1 0x1 SWAP5 SWAP4 PUSH1 0x20 SWAP4 DUP7 SWAP6 PUSH1 0x0 SWAP3 PUSH2 0x448 JUMPI JUMPDEST POP POP PUSH1 0x0 NOT PUSH1 0x3 DUP4 SWAP1 SHL SHR NOT AND SWAP1 DUP5 SHL OR DUP8 SSTORE JUMPDEST ADD SWAP5 ADD SWAP2 ADD SWAP1 SWAP3 PUSH2 0x399 JUMP JUMPDEST ADD MLOAD SWAP1 POP CODESIZE DUP1 PUSH2 0x428 JUMP JUMPDEST SWAP1 DUP7 PUSH1 0x0 MSTORE PUSH1 0x20 PUSH1 0x0 KECCAK256 SWAP2 PUSH1 0x0 JUMPDEST PUSH1 0x1F NOT DUP6 AND DUP2 LT PUSH2 0x4AB JUMPI POP DUP4 PUSH1 0x20 SWAP4 PUSH1 0x1 SWAP7 SWAP4 DUP8 SWAP7 SWAP4 DUP8 SWAP5 PUSH1 0x1F NOT DUP2 AND LT PUSH2 0x492 JUMPI JUMPDEST POP POP POP DUP2 SHL ADD DUP8 SSTORE PUSH2 0x43C JUMP JUMPDEST ADD MLOAD PUSH1 0x0 NOT PUSH1 0xF8 DUP5 PUSH1 0x3 SHL AND SHR NOT AND SWAP1 SSTORE CODESIZE DUP1 DUP1 PUSH2 0x485 JUMP JUMPDEST SWAP2 SWAP3 PUSH1 0x20 PUSH1 0x1 DUP2 SWAP3 DUP7 DUP6 ADD MLOAD DUP2 SSTORE ADD SWAP5 ADD SWAP3 ADD PUSH2 0x461 JUMP JUMPDEST PUSH2 0x4F0 SWAP1 DUP8 PUSH1 0x0 MSTORE PUSH1 0x20 PUSH1 0x0 KECCAK256 PUSH1 0x1F DUP6 ADD PUSH1 0x5 SHR DUP2 ADD SWAP2 PUSH1 0x20 DUP7 LT PUSH2 0x4F6 JUMPI JUMPDEST PUSH1 0x1F ADD PUSH1 0x5 SHR ADD SWAP1 PUSH2 0x2155 JUMP JUMPDEST CODESIZE PUSH2 0x406 JUMP JUMPDEST SWAP1 SWAP2 POP DUP2 SWAP1 PUSH2 0x4E3 JUMP JUMPDEST PUSH4 0x4E487B71 PUSH1 0xE0 SHL PUSH1 0x0 MSTORE PUSH1 0x41 PUSH1 0x4 MSTORE PUSH1 0x24 PUSH1 0x0 REVERT JUMPDEST PUSH1 0xA DUP5 ADD PUSH1 0x0 MSTORE PUSH1 0x20 PUSH1 0x0 KECCAK256 SWAP1 DUP4 DUP3 ADD JUMPDEST DUP2 DUP4 ADD DUP2 LT PUSH2 0x537 JUMPI POP POP PUSH2 0x383 JUMP JUMPDEST DUP1 PUSH2 0x544 PUSH1 0x1 SWAP3 SLOAD PUSH2 0x1DBC JUMP JUMPDEST DUP1 PUSH2 0x551 JUMPI JUMPDEST POP ADD PUSH2 0x527 JUMP JUMPDEST PUSH1 0x1F DUP2 GT DUP4 EQ PUSH2 0x567 JUMPI POP PUSH1 0x0 DUP2 SSTORE JUMPDEST CODESIZE PUSH2 0x54A JUMP JUMPDEST PUSH1 0x0 SWAP1 DUP3 DUP3 MSTORE PUSH2 0x585 PUSH1 0x1F PUSH1 0x20 DUP5 KECCAK256 SWAP3 ADD PUSH1 0x5 SHR DUP3 ADD DUP6 DUP4 ADD PUSH2 0x2155 JUMP JUMPDEST DUP2 DUP4 SSTORE SSTORE PUSH2 0x561 JUMP JUMPDEST ADD MLOAD SWAP1 POP CODESIZE DUP1 PUSH2 0x34A JUMP JUMPDEST PUSH1 0x9 DUP5 ADD PUSH1 0x0 MSTORE PUSH1 0x20 PUSH1 0x0 KECCAK256 SWAP1 PUSH1 0x0 JUMPDEST PUSH1 0x1F NOT DUP5 AND DUP2 LT PUSH2 0x5F0 JUMPI POP PUSH1 0x1 SWAP4 SWAP5 SWAP6 SWAP7 DUP4 PUSH1 0x1F NOT DUP2 AND LT PUSH2 0x5D7 JUMPI JUMPDEST POP POP POP DUP2 SHL ADD PUSH1 0x9 DUP4 ADD SSTORE PUSH2 0x362 JUMP JUMPDEST ADD MLOAD PUSH1 0x0 NOT PUSH1 0xF8 DUP5 PUSH1 0x3 SHL AND SHR NOT AND SWAP1 SSTORE CODESIZE DUP1 DUP1 PUSH2 0x5C7 JUMP JUMPDEST SWAP1 SWAP2 PUSH1 0x20 PUSH1 0x1 DUP2 SWAP3 DUP6 DUP12 ADD MLOAD DUP2 SSTORE ADD SWAP4 ADD SWAP2 ADD PUSH2 0x5A9 JUMP JUMPDEST PUSH2 0x637 SWAP1 PUSH1 0x9 DUP6 ADD PUSH1 0x0 MSTORE PUSH1 0x20 PUSH1 0x0 KECCAK256 PUSH1 0x1F DUP5 ADD PUSH1 0x5 SHR DUP2 ADD SWAP2 PUSH1 0x20 DUP6 LT PUSH2 0x4F6 JUMPI PUSH1 0x1F ADD PUSH1 0x5 SHR ADD SWAP1 PUSH2 0x2155 JUMP JUMPDEST CODESIZE PUSH2 0x32F JUMP JUMPDEST ADD MLOAD SWAP1 POP CODESIZE DUP1 PUSH2 0x2D1 JUMP JUMPDEST SWAP3 POP PUSH1 0x2 DUP6 ADD PUSH1 0x0 MSTORE PUSH1 0x20 PUSH1 0x0 KECCAK256 SWAP1 PUSH1 0x0 SWAP4 JUMPDEST PUSH1 0x1F NOT DUP5 AND DUP6 LT PUSH2 0x69F JUMPI PUSH1 0x1 SWAP5 POP DUP4 PUSH1 0x1F NOT DUP2 AND LT PUSH2 0x686 JUMPI JUMPDEST POP POP POP DUP2 SHL ADD PUSH1 0x2 DUP4 ADD SSTORE PUSH2 0x2E9 JUMP JUMPDEST ADD MLOAD PUSH1 0x0 NOT PUSH1 0xF8 DUP5 PUSH1 0x3 SHL AND SHR NOT AND SWAP1 SSTORE CODESIZE DUP1 DUP1 PUSH2 0x676 JUMP JUMPDEST DUP2 DUP2 ADD MLOAD DUP4 SSTORE PUSH1 0x20 SWAP5 DUP6 ADD SWAP5 PUSH1 0x1 SWAP1 SWAP4 ADD SWAP3 SWAP1 SWAP2 ADD SWAP1 PUSH2 0x65B JUMP JUMPDEST PUSH2 0x6E9 SWAP1 PUSH1 0x2 DUP8 ADD PUSH1 0x0 MSTORE PUSH1 0x20 PUSH1 0x0 KECCAK256 PUSH1 0x1F DUP6 ADD PUSH1 0x5 SHR DUP2 ADD SWAP2 PUSH1 0x20 DUP7 LT PUSH2 0x4F6 JUMPI PUSH1 0x1F ADD PUSH1 0x5 SHR ADD SWAP1 PUSH2 0x2155 JUMP JUMPDEST CODESIZE PUSH2 0x2BA JUMP JUMPDEST SWAP1 POP DUP6 ADD MLOAD CODESIZE PUSH2 0x27A JUMP JUMPDEST SWAP2 POP PUSH1 0x1 DUP6 ADD PUSH1 0x0 MSTORE PUSH1 0x20 PUSH1 0x0 KECCAK256 PUSH1 0x0 SWAP3 JUMPDEST PUSH1 0x1F NOT DUP4 AND DUP5 LT PUSH2 0x74F JUMPI PUSH1 0x1 SWAP4 POP DUP3 PUSH1 0x1F NOT DUP2 AND LT PUSH2 0x736 JUMPI JUMPDEST POP POP DUP2 SHL ADD PUSH1 0x1 DUP5 ADD SSTORE PUSH2 0x291 JUMP JUMPDEST DUP8 ADD MLOAD PUSH1 0x0 NOT PUSH1 0xF8 DUP5 PUSH1 0x3 SHL AND SHR NOT AND SWAP1 SSTORE CODESIZE DUP1 PUSH2 0x727 JUMP JUMPDEST DUP8 DUP2 ADD MLOAD DUP3 SSTORE PUSH1 0x20 SWAP4 DUP5 ADD SWAP4 PUSH1 0x1 SWAP1 SWAP3 ADD SWAP2 ADD PUSH2 0x70C JUMP JUMPDEST PUSH2 0x796 SWAP1 PUSH1 0x1 DUP7 ADD PUSH1 0x0 MSTORE PUSH1 0x20 PUSH1 0x0 KECCAK256 PUSH1 0x1F DUP5 ADD PUSH1 0x5 SHR DUP2 ADD SWAP2 PUSH1 0x20 DUP6 LT PUSH2 0x4F6 JUMPI PUSH1 0x1F ADD PUSH1 0x5 SHR ADD SWAP1 PUSH2 0x2155 JUMP JUMPDEST CODESIZE PUSH2 0x263 JUMP JUMPDEST PUSH1 0x40 MLOAD PUSH3 0x461BCD PUSH1 0xE5 SHL DUP2 MSTORE PUSH1 0x20 PUSH1 0x4 DUP3 ADD MSTORE PUSH1 0x36 PUSH1 0x24 DUP3 ADD MSTORE PUSH32 0x4E65772063617061636974792063616E6E6F74206265206C657373207468616E PUSH1 0x44 DUP3 ADD MSTORE PUSH22 0x2063757272656E7420726567697374726174696F6E73 PUSH1 0x50 SHL PUSH1 0x64 DUP3 ADD MSTORE PUSH1 0x84 SWAP1 REVERT JUMPDEST PUSH1 0x40 MLOAD PUSH3 0x461BCD PUSH1 0xE5 SHL DUP2 MSTORE PUSH1 0x20 PUSH1 0x4 DUP3 ADD MSTORE PUSH1 0x1D PUSH1 0x24 DUP3 ADD MSTORE PUSH32 0x43616E6E6F74207570646174652063616E63656C6C6564206576656E74000000 PUSH1 0x44 DUP3 ADD MSTORE PUSH1 0x64 SWAP1 REVERT JUMPDEST PUSH1 0x0 DUP1 REVERT JUMPDEST CALLVALUE PUSH2 0x845 JUMPI PUSH1 0x20 CALLDATASIZE PUSH1 0x3 NOT ADD SLT PUSH2 0x845 JUMPI PUSH2 0x863 PUSH2 0x1D90 JUMP JUMPDEST PUSH2 0x86B PUSH2 0x204D JUMP JUMPDEST PUSH1 0x1 PUSH1 0x1 PUSH1 0xA0 SHL SUB SWAP1 DUP2 AND SWAP1 DUP2 ISZERO PUSH2 0x8BF JUMPI PUSH1 0x0 SLOAD DUP3 PUSH12 0xFFFFFFFFFFFFFFFFFFFFFFFF PUSH1 0xA0 SHL DUP3 AND OR PUSH1 0x0 SSTORE AND PUSH32 0x8BE0079C531659141344CD1FD0A4F28419497F9722A3DAAFE3B4186F6B6457E0 PUSH1 0x0 DUP1 LOG3 STOP JUMPDEST PUSH1 0x40 MLOAD PUSH3 0x461BCD PUSH1 0xE5 SHL DUP2 MSTORE PUSH1 0x20 PUSH1 0x4 DUP3 ADD MSTORE PUSH1 0x26 PUSH1 0x24 DUP3 ADD MSTORE PUSH32 0x4F776E61626C653A206E6577206F776E657220697320746865207A65726F2061 PUSH1 0x44 DUP3 ADD MSTORE PUSH6 0x646472657373 PUSH1 0xD0 SHL PUSH1 0x64 DUP3 ADD MSTORE PUSH1 0x84 SWAP1 REVERT JUMPDEST CALLVALUE PUSH2 0x845 JUMPI PUSH1 0x0 CALLDATASIZE PUSH1 0x3 NOT ADD SLT PUSH2 0x845 JUMPI PUSH1 0x6 SLOAD PUSH1 0x40 MLOAD PUSH1 0x1 PUSH1 0x1 PUSH1 0xA0 SHL SUB SWAP1 SWAP2 AND DUP2 MSTORE PUSH1 0x20 SWAP1 RETURN JUMPDEST CALLVALUE PUSH2 0x845 JUMPI PUSH1 0x0 CALLDATASIZE PUSH1 0x3 NOT ADD SLT PUSH2 0x845 JUMPI PUSH2 0x955 PUSH2 0x204D JUMP JUMPDEST SELFBALANCE DUP1 ISZERO PUSH2 0x981 JUMPI PUSH1 0x0 DUP1 DUP1 DUP1 SWAP4 PUSH1 0x1 DUP1 PUSH1 0xA0 SHL SUB DUP3 SLOAD AND DUP3 CALL ISZERO PUSH2 0x975 JUMPI STOP JUMPDEST PUSH1 0x40 MLOAD RETURNDATASIZE PUSH1 0x0 DUP3 RETURNDATACOPY RETURNDATASIZE SWAP1 REVERT JUMPDEST PUSH1 0x40 MLOAD PUSH3 0x461BCD PUSH1 0xE5 SHL DUP2 MSTORE PUSH1 0x20 PUSH1 0x4 DUP3 ADD MSTORE PUSH1 0x13 PUSH1 0x24 DUP3 ADD MSTORE PUSH19 0x4E6F206665657320746F207769746864726177 PUSH1 0x68 SHL PUSH1 0x44 DUP3 ADD MSTORE PUSH1 0x64 SWAP1 REVERT JUMPDEST CALLVALUE PUSH2 0x845 JUMPI PUSH2 0x100 CALLDATASIZE PUSH1 0x3 NOT ADD SLT PUSH2 0x845 JUMPI PUSH1 0x4 CALLDATALOAD PUSH1 0x1 PUSH1 0x1 PUSH1 0x40 SHL SUB DUP2 GT PUSH2 0x845 JUMPI PUSH2 0x9ED SWAP1 CALLDATASIZE SWAP1 PUSH1 0x4 ADD PUSH2 0x1F6F JUMP JUMPDEST PUSH1 0x24 CALLDATALOAD PUSH1 0x1 PUSH1 0x1 PUSH1 0x40 SHL SUB DUP2 GT PUSH2 0x845 JUMPI PUSH2 0xA0C SWAP1 CALLDATASIZE SWAP1 PUSH1 0x4 ADD PUSH2 0x1F6F JUMP JUMPDEST SWAP1 PUSH1 0xC4 CALLDATALOAD PUSH1 0x1 PUSH1 0x1 PUSH1 0x40 SHL SUB DUP2 GT PUSH2 0x845 JUMPI PUSH2 0xA2C SWAP1 CALLDATASIZE SWAP1 PUSH1 0x4 ADD PUSH2 0x1F6F JUMP JUMPDEST SWAP1 PUSH1 0xE4 CALLDATALOAD PUSH1 0x1 PUSH1 0x1 PUSH1 0x40 SHL SUB DUP2 GT PUSH2 0x845 JUMPI PUSH2 0xA4C SWAP1 CALLDATASIZE SWAP1 PUSH1 0x4 ADD PUSH2 0x1FCD JUMP JUMPDEST DUP2 MLOAD ISZERO PUSH2 0x10F1 JUMPI PUSH2 0xA60 TIMESTAMP PUSH1 0x44 CALLDATALOAD GT PUSH2 0x20A5 JUMP JUMPDEST PUSH2 0xA6F PUSH1 0x44 CALLDATALOAD PUSH1 0x64 CALLDATALOAD GT PUSH2 0x20F0 JUMP JUMPDEST PUSH1 0xA4 CALLDATALOAD ISZERO PUSH2 0x10AC JUMPI PUSH2 0xA82 PUSH1 0x4 SLOAD PUSH2 0x2146 JUMP JUMPDEST SWAP3 DUP4 PUSH1 0x4 SSTORE PUSH1 0x40 MLOAD SWAP5 PUSH2 0xA94 DUP7 PUSH2 0x1DF6 JUMP JUMPDEST DUP5 DUP7 MSTORE DUP4 PUSH1 0x20 DUP8 ADD MSTORE PUSH1 0x40 DUP7 ADD MSTORE PUSH1 0x44 CALLDATALOAD PUSH1 0x60 DUP7 ADD MSTORE PUSH1 0x64 CALLDATALOAD PUSH1 0x80 DUP7 ADD MSTORE PUSH1 0x84 CALLDATALOAD PUSH1 0xA0 DUP7 ADD MSTORE PUSH1 0xA4 CALLDATALOAD PUSH1 0xC0 DUP7 ADD MSTORE PUSH1 0x0 PUSH1 0xE0 DUP7 ADD MSTORE CALLER PUSH2 0x100 DUP7 ADD MSTORE PUSH1 0x1 PUSH2 0x120 DUP7 ADD MSTORE PUSH2 0x140 DUP6 ADD MSTORE PUSH2 0x160 DUP5 ADD MSTORE DUP2 PUSH1 0x0 MSTORE PUSH1 0x2 PUSH1 0x20 MSTORE PUSH1 0x40 PUSH1 0x0 KECCAK256 SWAP3 DUP1 MLOAD DUP5 SSTORE PUSH1 0x20 DUP2 ADD MLOAD DUP1 MLOAD SWAP1 PUSH1 0x1 PUSH1 0x1 PUSH1 0x40 SHL SUB DUP3 GT PUSH2 0x500 JUMPI DUP2 SWAP1 PUSH2 0xB1C PUSH1 0x1 DUP9 ADD SLOAD PUSH2 0x1DBC JUMP JUMPDEST PUSH1 0x1F DUP2 GT PUSH2 0x1077 JUMPI JUMPDEST POP PUSH1 0x20 SWAP1 PUSH1 0x1F DUP4 GT PUSH1 0x1 EQ PUSH2 0x1005 JUMPI PUSH1 0x0 SWAP3 PUSH2 0xFFA JUMPI JUMPDEST POP POP DUP2 PUSH1 0x1 SHL SWAP2 PUSH1 0x0 NOT SWAP1 PUSH1 0x3 SHL SHR NOT AND OR PUSH1 0x1 DUP6 ADD SSTORE JUMPDEST PUSH1 0x40 DUP2 ADD MLOAD DUP1 MLOAD SWAP1 PUSH1 0x1 PUSH1 0x1 PUSH1 0x40 SHL SUB DUP3 GT PUSH2 0x500 JUMPI DUP2 SWAP1 PUSH2 0xB79 PUSH1 0x2 DUP9 ADD SLOAD PUSH2 0x1DBC JUMP JUMPDEST PUSH1 0x1F DUP2 GT PUSH2 0xFC5 JUMPI JUMPDEST POP PUSH1 0x20 SWAP1 PUSH1 0x1F DUP4 GT PUSH1 0x1 EQ PUSH2 0xF53 JUMPI PUSH1 0x0 SWAP3 PUSH2 0xF48 JUMPI JUMPDEST POP POP DUP2 PUSH1 0x1 SHL SWAP2 PUSH1 0x0 NOT SWAP1 PUSH1 0x3 SHL SHR NOT AND OR PUSH1 0x2 DUP6 ADD SSTORE JUMPDEST PUSH1 0x60 DUP2 ADD MLOAD PUSH1 0x3 DUP6 ADD SSTORE PUSH1 0x80 DUP2 ADD MLOAD PUSH1 0x4 DUP6 ADD SSTORE PUSH1 0xA0 DUP2 ADD MLOAD PUSH1 0x5 DUP6 ADD SSTORE PUSH1 0xC0 DUP2 ADD MLOAD PUSH1 0x6 DUP6 ADD SSTORE PUSH1 0xE0 DUP2 ADD MLOAD PUSH1 0x7 DUP6 ADD SSTORE PUSH1 0x8 DUP5 ADD PUSH1 0x1 DUP1 PUSH1 0xA0 SHL SUB PUSH2 0x100 DUP4 ADD MLOAD AND DUP2 SLOAD SWAP1 PUSH1 0xFF PUSH1 0xA0 SHL PUSH2 0x120 DUP6 ADD MLOAD ISZERO ISZERO PUSH1 0xA0 SHL AND SWAP2 PUSH11 0xFFFFFFFFFFFFFFFFFFFFFF PUSH1 0xA8 SHL AND OR OR SWAP1 SSTORE PUSH2 0x140 DUP2 ADD MLOAD DUP1 MLOAD SWAP1 PUSH1 0x1 PUSH1 0x1 PUSH1 0x40 SHL SUB DUP3 GT PUSH2 0x500 JUMPI PUSH2 0xC42 PUSH1 0x9 DUP8 ADD SLOAD PUSH2 0x1DBC JUMP JUMPDEST PUSH1 0x1F DUP2 GT PUSH2 0xF13 JUMPI JUMPDEST POP PUSH1 0x20 SWAP1 PUSH1 0x1F DUP4 GT PUSH1 0x1 EQ PUSH2 0xE9F JUMPI PUSH2 0x160 SWAP4 SWAP3 SWAP2 PUSH1 0x0 SWAP2 DUP4 PUSH2 0xE94 JUMPI JUMPDEST POP POP DUP2 PUSH1 0x1 SHL SWAP2 PUSH1 0x0 NOT SWAP1 PUSH1 0x3 SHL SHR NOT AND OR PUSH1 0x9 DUP7 ADD SSTORE JUMPDEST ADD MLOAD DUP1 MLOAD SWAP1 PUSH1 0x1 PUSH1 0x40 SHL DUP3 GT PUSH2 0x500 JUMPI PUSH1 0xA DUP6 ADD SLOAD DUP3 PUSH1 0xA DUP8 ADD SSTORE DUP1 DUP4 LT PUSH2 0xE1C JUMPI JUMPDEST POP PUSH1 0x20 PUSH1 0xA SWAP2 ADD SWAP5 ADD PUSH1 0x0 MSTORE PUSH1 0x20 PUSH1 0x0 KECCAK256 SWAP4 PUSH1 0x0 SWAP1 JUMPDEST DUP3 DUP3 LT PUSH2 0xD07 JUMPI PUSH1 0x20 DUP6 DUP6 DUP2 PUSH32 0xFC695DEA2478FB938A11068AEEDDDD7046A5FE655F136E30A325D353FE187A45 PUSH1 0x40 MLOAD DUP6 DUP2 MSTORE DUP1 PUSH2 0xCFC CALLER SWAP6 DUP9 DUP4 ADD SWAP1 PUSH2 0x1ED9 JUMP JUMPDEST SUB SWAP1 LOG3 PUSH1 0x40 MLOAD SWAP1 DUP2 MSTORE RETURN JUMPDEST DUP1 MLOAD DUP1 MLOAD SWAP1 PUSH1 0x1 PUSH1 0x1 PUSH1 0x40 SHL SUB DUP3 GT PUSH2 0x500 JUMPI PUSH2 0xD24 DUP9 SLOAD PUSH2 0x1DBC JUMP JUMPDEST PUSH1 0x1F DUP2 GT PUSH2 0xDEA JUMPI JUMPDEST POP PUSH1 0x20 SWAP1 PUSH1 0x1F DUP4 GT PUSH1 0x1 EQ PUSH2 0xD7A JUMPI SWAP3 DUP3 PUSH1 0x1 SWAP5 SWAP4 PUSH1 0x20 SWAP4 DUP7 SWAP6 PUSH1 0x0 SWAP3 PUSH2 0xD6F JUMPI JUMPDEST POP POP PUSH1 0x0 NOT PUSH1 0x3 DUP4 SWAP1 SHL SHR NOT AND SWAP1 DUP5 SHL OR DUP10 SSTORE JUMPDEST ADD SWAP7 ADD SWAP2 ADD SWAP1 SWAP5 PUSH2 0xCBA JUMP JUMPDEST ADD MLOAD SWAP1 POP DUP12 DUP1 PUSH2 0xD4F JUMP JUMPDEST SWAP1 DUP9 PUSH1 0x0 MSTORE PUSH1 0x20 PUSH1 0x0 KECCAK256 SWAP2 PUSH1 0x0 JUMPDEST PUSH1 0x1F NOT DUP6 AND DUP2 LT PUSH2 0xDD2 JUMPI POP DUP4 PUSH1 0x20 SWAP4 PUSH1 0x1 SWAP7 SWAP4 DUP8 SWAP7 SWAP4 DUP8 SWAP5 PUSH1 0x1F NOT DUP2 AND LT PUSH2 0xDB9 JUMPI JUMPDEST POP POP POP DUP2 SHL ADD DUP10 SSTORE PUSH2 0xD63 JUMP JUMPDEST ADD MLOAD PUSH1 0x0 NOT PUSH1 0xF8 DUP5 PUSH1 0x3 SHL AND SHR NOT AND SWAP1 SSTORE DUP12 DUP1 DUP1 PUSH2 0xDAC JUMP JUMPDEST SWAP2 SWAP3 PUSH1 0x20 PUSH1 0x1 DUP2 SWAP3 DUP7 DUP6 ADD MLOAD DUP2 SSTORE ADD SWAP5 ADD SWAP3 ADD PUSH2 0xD88 JUMP JUMPDEST PUSH2 0xE16 SWAP1 DUP10 PUSH1 0x0 MSTORE PUSH1 0x20 PUSH1 0x0 KECCAK256 PUSH1 0x1F DUP6 ADD PUSH1 0x5 SHR DUP2 ADD SWAP2 PUSH1 0x20 DUP7 LT PUSH2 0x4F6 JUMPI PUSH1 0x1F ADD PUSH1 0x5 SHR ADD SWAP1 PUSH2 0x2155 JUMP JUMPDEST DUP9 PUSH2 0xD2D JUMP JUMPDEST PUSH1 0xA DUP7 ADD PUSH1 0x0 MSTORE PUSH1 0x20 PUSH1 0x0 KECCAK256 SWAP1 DUP4 DUP3 ADD JUMPDEST DUP2 DUP4 ADD DUP2 LT PUSH2 0xE3D JUMPI POP POP PUSH2 0xCA4 JUMP JUMPDEST DUP1 PUSH2 0xE4A PUSH1 0x1 SWAP3 SLOAD PUSH2 0x1DBC JUMP JUMPDEST DUP1 PUSH2 0xE57 JUMPI JUMPDEST POP ADD PUSH2 0xE2D JUMP JUMPDEST PUSH1 0x1F DUP2 GT DUP4 EQ PUSH2 0xE6D JUMPI POP PUSH1 0x0 DUP2 SSTORE JUMPDEST DUP10 PUSH2 0xE50 JUMP JUMPDEST PUSH1 0x0 SWAP1 DUP3 DUP3 MSTORE PUSH2 0xE8B PUSH1 0x1F PUSH1 0x20 DUP5 KECCAK256 SWAP3 ADD PUSH1 0x5 SHR DUP3 ADD DUP6 DUP4 ADD PUSH2 0x2155 JUMP JUMPDEST DUP2 DUP4 SSTORE SSTORE PUSH2 0xE67 JUMP JUMPDEST ADD MLOAD SWAP1 POP DUP8 DUP1 PUSH2 0xC69 JUMP JUMPDEST SWAP1 PUSH1 0x9 DUP8 ADD PUSH1 0x0 MSTORE PUSH1 0x20 PUSH1 0x0 KECCAK256 SWAP2 PUSH1 0x0 JUMPDEST PUSH1 0x1F NOT DUP6 AND DUP2 LT PUSH2 0xEFB JUMPI POP SWAP2 DUP4 SWAP2 PUSH1 0x1 SWAP4 PUSH2 0x160 SWAP7 SWAP6 PUSH1 0x1F NOT DUP2 AND LT PUSH2 0xEE2 JUMPI JUMPDEST POP POP POP DUP2 SHL ADD PUSH1 0x9 DUP7 ADD SSTORE PUSH2 0xC81 JUMP JUMPDEST ADD MLOAD PUSH1 0x0 NOT PUSH1 0xF8 DUP5 PUSH1 0x3 SHL AND SHR NOT AND SWAP1 SSTORE DUP8 DUP1 DUP1 PUSH2 0xED2 JUMP JUMPDEST SWAP2 SWAP3 PUSH1 0x20 PUSH1 0x1 DUP2 SWAP3 DUP7 DUP6 ADD MLOAD DUP2 SSTORE ADD SWAP5 ADD SWAP3 ADD PUSH2 0xEB0 JUMP JUMPDEST PUSH2 0xF42 SWAP1 PUSH1 0x9 DUP9 ADD PUSH1 0x0 MSTORE PUSH1 0x20 PUSH1 0x0 KECCAK256 PUSH1 0x1F DUP6 ADD PUSH1 0x5 SHR DUP2 ADD SWAP2 PUSH1 0x20 DUP7 LT PUSH2 0x4F6 JUMPI PUSH1 0x1F ADD PUSH1 0x5 SHR ADD SWAP1 PUSH2 0x2155 JUMP JUMPDEST DUP7 PUSH2 0xC4B JUMP JUMPDEST ADD MLOAD SWAP1 POP DUP7 DUP1 PUSH2 0xB99 JUMP JUMPDEST SWAP3 POP PUSH1 0x2 DUP8 ADD PUSH1 0x0 MSTORE PUSH1 0x20 PUSH1 0x0 KECCAK256 SWAP1 PUSH1 0x0 SWAP4 JUMPDEST PUSH1 0x1F NOT DUP5 AND DUP6 LT PUSH2 0xFAA JUMPI PUSH1 0x1 SWAP5 POP DUP4 PUSH1 0x1F NOT DUP2 AND LT PUSH2 0xF91 JUMPI JUMPDEST POP POP POP DUP2 SHL ADD PUSH1 0x2 DUP6 ADD SSTORE PUSH2 0xBB1 JUMP JUMPDEST ADD MLOAD PUSH1 0x0 NOT PUSH1 0xF8 DUP5 PUSH1 0x3 SHL AND SHR NOT AND SWAP1 SSTORE DUP7 DUP1 DUP1 PUSH2 0xF81 JUMP JUMPDEST DUP2 DUP2 ADD MLOAD DUP4 SSTORE PUSH1 0x20 SWAP5 DUP6 ADD SWAP5 PUSH1 0x1 SWAP1 SWAP4 ADD SWAP3 SWAP1 SWAP2 ADD SWAP1 PUSH2 0xF66 JUMP JUMPDEST PUSH2 0xFF4 SWAP1 PUSH1 0x2 DUP10 ADD PUSH1 0x0 MSTORE PUSH1 0x20 PUSH1 0x0 KECCAK256 PUSH1 0x1F DUP6 ADD PUSH1 0x5 SHR DUP2 ADD SWAP2 PUSH1 0x20 DUP7 LT PUSH2 0x4F6 JUMPI PUSH1 0x1F ADD PUSH1 0x5 SHR ADD SWAP1 PUSH2 0x2155 JUMP JUMPDEST DUP8 PUSH2 0xB82 JUMP JUMPDEST ADD MLOAD SWAP1 POP DUP7 DUP1 PUSH2 0xB3C JUMP JUMPDEST SWAP3 POP PUSH1 0x1 DUP8 ADD PUSH1 0x0 MSTORE PUSH1 0x20 PUSH1 0x0 KECCAK256 SWAP1 PUSH1 0x0 SWAP4 JUMPDEST PUSH1 0x1F NOT DUP5 AND DUP6 LT PUSH2 0x105C JUMPI PUSH1 0x1 SWAP5 POP DUP4 PUSH1 0x1F NOT DUP2 AND LT PUSH2 0x1043 JUMPI JUMPDEST POP POP POP DUP2 SHL ADD PUSH1 0x1 DUP6 ADD SSTORE PUSH2 0xB54 JUMP JUMPDEST ADD MLOAD PUSH1 0x0 NOT PUSH1 0xF8 DUP5 PUSH1 0x3 SHL AND SHR NOT AND SWAP1 SSTORE DUP7 DUP1 DUP1 PUSH2 0x1033 JUMP JUMPDEST DUP2 DUP2 ADD MLOAD DUP4 SSTORE PUSH1 0x20 SWAP5 DUP6 ADD SWAP5 PUSH1 0x1 SWAP1 SWAP4 ADD SWAP3 SWAP1 SWAP2 ADD SWAP1 PUSH2 0x1018 JUMP JUMPDEST PUSH2 0x10A6 SWAP1 PUSH1 0x1 DUP10 ADD PUSH1 0x0 MSTORE PUSH1 0x20 PUSH1 0x0 KECCAK256 PUSH1 0x1F DUP6 ADD PUSH1 0x5 SHR DUP2 ADD SWAP2 PUSH1 0x20 DUP7 LT PUSH2 0x4F6 JUMPI PUSH1 0x1F ADD PUSH1 0x5 SHR ADD SWAP1 PUSH2 0x2155 JUMP JUMPDEST DUP8 PUSH2 0xB25 JUMP JUMPDEST PUSH1 0x40 MLOAD PUSH3 0x461BCD PUSH1 0xE5 SHL DUP2 MSTORE PUSH1 0x20 PUSH1 0x4 DUP3 ADD MSTORE PUSH1 0x1F PUSH1 0x24 DUP3 ADD MSTORE PUSH32 0x4361706163697479206D7573742062652067726561746572207468616E203000 PUSH1 0x44 DUP3 ADD MSTORE PUSH1 0x64 SWAP1 REVERT JUMPDEST PUSH1 0x40 MLOAD PUSH3 0x461BCD PUSH1 0xE5 SHL DUP2 MSTORE PUSH1 0x20 PUSH1 0x4 DUP3 ADD MSTORE PUSH1 0x15 PUSH1 0x24 DUP3 ADD MSTORE PUSH21 0x5469746C652063616E6E6F7420626520656D707479 PUSH1 0x58 SHL PUSH1 0x44 DUP3 ADD MSTORE PUSH1 0x64 SWAP1 REVERT JUMPDEST CALLVALUE PUSH2 0x845 JUMPI PUSH1 0x20 CALLDATASIZE PUSH1 0x3 NOT ADD SLT PUSH2 0x845 JUMPI PUSH1 0x4 CALLDATALOAD PUSH2 0x114A PUSH2 0x204D JUMP JUMPDEST PUSH1 0x14 DUP2 GT PUSH2 0x1157 JUMPI PUSH1 0x5 SSTORE STOP JUMPDEST PUSH1 0x40 MLOAD PUSH3 0x461BCD PUSH1 0xE5 SHL DUP2 MSTORE PUSH1 0x20 PUSH1 0x4 DUP3 ADD MSTORE PUSH1 0x1E PUSH1 0x24 DUP3 ADD MSTORE PUSH32 0x506C6174666F726D206665652063616E6E6F7420657863656564203230250000 PUSH1 0x44 DUP3 ADD MSTORE PUSH1 0x64 SWAP1 REVERT JUMPDEST CALLVALUE PUSH2 0x845 JUMPI PUSH1 0x20 DUP1 PUSH1 0x3 NOT CALLDATASIZE ADD SLT PUSH2 0x845 JUMPI PUSH2 0x11B6 PUSH2 0x1D90 JUMP JUMPDEST PUSH1 0x4 SLOAD PUSH2 0x11C2 DUP2 PUSH2 0x2210 JUMP JUMPDEST SWAP3 PUSH1 0x0 SWAP3 PUSH1 0x1 PUSH1 0x1 PUSH1 0xA0 SHL SUB SWAP1 DUP2 AND SWAP2 PUSH1 0x1 JUMPDEST DUP5 DUP2 GT ISZERO PUSH2 0x1229 JUMPI DUP7 DUP7 PUSH2 0x11E8 DUP2 PUSH2 0x2210 JUMP JUMPDEST SWAP2 PUSH1 0x0 JUMPDEST DUP3 DUP2 LT PUSH2 0x1205 JUMPI PUSH1 0x40 MLOAD DUP1 PUSH2 0x1201 DUP7 DUP3 PUSH2 0x1F19 JUMP JUMPDEST SUB SWAP1 RETURN JUMPDEST DUP1 PUSH2 0x1213 PUSH2 0x1224 SWAP3 DUP5 PUSH2 0x2242 JUMP JUMPDEST MLOAD PUSH2 0x121E DUP3 DUP8 PUSH2 0x2242 JUMP JUMPDEST MSTORE PUSH2 0x2146 JUMP JUMPDEST PUSH2 0x11EC JUMP JUMPDEST DUP1 PUSH1 0x0 MSTORE PUSH1 0x2 DUP3 MSTORE DUP4 DUP4 PUSH1 0x8 PUSH1 0x40 PUSH1 0x0 KECCAK256 ADD SLOAD AND EQ PUSH2 0x1251 JUMPI JUMPDEST PUSH2 0x124C SWAP1 PUSH2 0x2146 JUMP JUMPDEST PUSH2 0x11D5 JUMP JUMPDEST SWAP5 PUSH2 0x1264 DUP2 DUP8 PUSH2 0x121E PUSH2 0x124C SWAP5 DUP12 PUSH2 0x2242 JUMP JUMPDEST SWAP6 SWAP1 POP PUSH2 0x1243 JUMP JUMPDEST CALLVALUE PUSH2 0x845 JUMPI PUSH1 0x0 CALLDATASIZE PUSH1 0x3 NOT ADD SLT PUSH2 0x845 JUMPI PUSH1 0x0 SLOAD PUSH1 0x40 MLOAD PUSH1 0x1 PUSH1 0x1 PUSH1 0xA0 SHL SUB SWAP1 SWAP2 AND DUP2 MSTORE PUSH1 0x20 SWAP1 RETURN JUMPDEST CALLVALUE PUSH2 0x845 JUMPI PUSH1 0x0 CALLDATASIZE PUSH1 0x3 NOT ADD SLT PUSH2 0x845 JUMPI PUSH1 0x20 PUSH1 0x4 SLOAD PUSH1 0x40 MLOAD SWAP1 DUP2 MSTORE RETURN JUMPDEST CALLVALUE PUSH2 0x845 JUMPI PUSH1 0x0 CALLDATASIZE PUSH1 0x3 NOT ADD SLT PUSH2 0x845 JUMPI PUSH2 0x12CC PUSH2 0x204D JUMP JUMPDEST PUSH1 0x0 DUP1 SLOAD PUSH1 0x1 PUSH1 0x1 PUSH1 0xA0 SHL SUB NOT DUP2 AND DUP3 SSTORE PUSH1 0x1 PUSH1 0x1 PUSH1 0xA0 SHL SUB AND PUSH32 0x8BE0079C531659141344CD1FD0A4F28419497F9722A3DAAFE3B4186F6B6457E0 DUP3 DUP1 LOG3 STOP JUMPDEST CALLVALUE PUSH2 0x845 JUMPI PUSH1 0x0 CALLDATASIZE PUSH1 0x3 NOT ADD SLT PUSH2 0x845 JUMPI PUSH1 0x20 SELFBALANCE PUSH1 0x40 MLOAD SWAP1 DUP2 MSTORE RETURN JUMPDEST CALLVALUE PUSH2 0x845 JUMPI PUSH1 0x20 CALLDATASIZE PUSH1 0x3 NOT ADD SLT PUSH2 0x845 JUMPI PUSH1 0x4 CALLDATALOAD DUP1 PUSH1 0x0 MSTORE PUSH1 0x2 PUSH1 0x20 MSTORE PUSH2 0x1355 PUSH1 0x40 PUSH1 0x0 KECCAK256 SLOAD ISZERO ISZERO PUSH2 0x216C JUMP JUMPDEST PUSH1 0x0 MSTORE PUSH1 0x2 PUSH1 0x20 MSTORE PUSH1 0x40 PUSH1 0x0 KECCAK256 PUSH1 0x40 MLOAD SWAP1 PUSH2 0x136F DUP3 PUSH2 0x1DF6 JUMP JUMPDEST DUP1 SLOAD DUP3 MSTORE PUSH2 0x137F PUSH1 0x1 DUP3 ADD PUSH2 0x1E33 JUMP JUMPDEST PUSH1 0x20 DUP4 ADD MSTORE PUSH2 0x1390 PUSH1 0x2 DUP3 ADD PUSH2 0x1E33 JUMP JUMPDEST PUSH1 0x40 DUP4 ADD MSTORE PUSH1 0x3 DUP2 ADD SLOAD PUSH1 0x60 DUP4 ADD MSTORE PUSH1 0x4 DUP2 ADD SLOAD PUSH1 0x80 DUP4 ADD MSTORE PUSH1 0x5 DUP2 ADD SLOAD PUSH1 0xA0 DUP4 ADD MSTORE PUSH1 0x6 DUP2 ADD SLOAD PUSH1 0xC0 DUP4 ADD MSTORE PUSH1 0x7 DUP2 ADD SLOAD PUSH1 0xE0 DUP4 ADD MSTORE PUSH1 0xFF PUSH1 0x8 DUP3 ADD SLOAD PUSH1 0x1 DUP1 PUSH1 0xA0 SHL SUB DUP2 AND PUSH2 0x100 DUP6 ADD MSTORE PUSH1 0xA0 SHR AND ISZERO ISZERO PUSH2 0x120 DUP4 ADD MSTORE PUSH2 0x13F5 PUSH1 0x9 DUP3 ADD PUSH2 0x1E33 JUMP JUMPDEST PUSH2 0x140 DUP4 ADD MSTORE PUSH1 0xA DUP2 ADD SLOAD PUSH2 0x1409 DUP2 PUSH2 0x1FB6 JUMP JUMPDEST SWAP1 PUSH2 0x1417 PUSH1 0x40 MLOAD SWAP3 DUP4 PUSH2 0x1E12 JUMP JUMPDEST DUP1 DUP3 MSTORE PUSH1 0x20 DUP3 ADD PUSH1 0xA DUP2 SWAP5 ADD PUSH1 0x0 MSTORE PUSH1 0x20 PUSH1 0x0 KECCAK256 PUSH1 0x0 SWAP2 JUMPDEST DUP4 DUP4 LT PUSH2 0x1550 JUMPI DUP7 DUP6 DUP8 DUP2 PUSH2 0x160 DUP5 ADD MSTORE DUP3 MLOAD SWAP2 PUSH1 0x20 DUP5 ADD MLOAD SWAP4 PUSH1 0x40 DUP2 ADD MLOAD SWAP1 PUSH1 0x60 DUP2 ADD MLOAD SWAP1 PUSH1 0x80 DUP2 ADD MLOAD PUSH1 0xA0 DUP3 ADD MLOAD PUSH1 0xC0 DUP4 ADD MLOAD PUSH1 0xE0 DUP5 ADD MLOAD SWAP2 PUSH1 0x1 PUSH1 0xA0 SHL PUSH1 0x1 SWAP1 SUB PUSH2 0x100 DUP7 ADD MLOAD AND SWAP4 PUSH2 0x120 DUP7 ADD MLOAD ISZERO ISZERO SWAP6 PUSH2 0x140 ADD MLOAD SWAP8 PUSH1 0x40 MLOAD SWAP13 DUP14 SWAP13 DUP14 MSTORE DUP13 PUSH2 0x180 PUSH1 0x20 DUP2 SWAP3 ADD MSTORE DUP14 ADD PUSH2 0x14A7 SWAP2 PUSH2 0x1ED9 JUMP JUMPDEST DUP13 DUP2 SUB PUSH1 0x40 DUP15 ADD MSTORE PUSH2 0x14B8 SWAP2 PUSH2 0x1ED9 JUMP JUMPDEST SWAP7 PUSH1 0x60 DUP13 ADD MSTORE PUSH1 0x80 DUP12 ADD MSTORE PUSH1 0xA0 DUP11 ADD MSTORE PUSH1 0xC0 DUP10 ADD MSTORE PUSH1 0xE0 DUP9 ADD MSTORE PUSH2 0x100 DUP8 ADD MSTORE PUSH2 0x120 DUP7 ADD MSTORE DUP5 DUP2 SUB PUSH2 0x140 DUP7 ADD MSTORE PUSH2 0x14F0 SWAP2 PUSH2 0x1ED9 JUMP JUMPDEST SWAP1 DUP4 DUP3 SUB PUSH2 0x160 DUP6 ADD MSTORE MLOAD DUP1 DUP3 MSTORE PUSH1 0x20 DUP3 ADD SWAP2 DUP2 PUSH1 0x5 SHL DUP2 ADD PUSH1 0x20 ADD SWAP4 SWAP3 PUSH1 0x0 SWAP2 JUMPDEST DUP4 DUP4 LT PUSH2 0x151F JUMPI DUP7 DUP7 SUB DUP8 RETURN JUMPDEST SWAP2 SWAP4 SWAP6 POP SWAP2 SWAP4 PUSH1 0x20 DUP1 PUSH2 0x153E PUSH1 0x1 SWAP4 PUSH1 0x1F NOT DUP7 DUP3 SUB ADD DUP8 MSTORE DUP10 MLOAD PUSH2 0x1ED9 JUMP JUMPDEST SWAP8 ADD SWAP4 ADD SWAP4 ADD SWAP1 SWAP3 DUP7 SWAP6 SWAP5 SWAP3 SWAP4 PUSH2 0x1512 JUMP JUMPDEST PUSH1 0x1 PUSH1 0x20 DUP2 SWAP3 PUSH2 0x155F DUP6 PUSH2 0x1E33 JUMP JUMPDEST DUP2 MSTORE ADD SWAP3 ADD SWAP3 ADD SWAP2 SWAP1 PUSH2 0x142F JUMP JUMPDEST CALLVALUE PUSH2 0x845 JUMPI PUSH1 0x40 CALLDATASIZE PUSH1 0x3 NOT ADD SLT PUSH2 0x845 JUMPI PUSH2 0x1586 PUSH2 0x1DA6 JUMP JUMPDEST PUSH1 0x4 CALLDATALOAD PUSH1 0x0 MSTORE PUSH1 0x3 PUSH1 0x20 MSTORE PUSH1 0x40 PUSH1 0x0 KECCAK256 SWAP1 PUSH1 0x1 DUP1 PUSH1 0xA0 SHL SUB AND PUSH1 0x0 MSTORE PUSH1 0x20 MSTORE PUSH1 0x20 PUSH1 0xFF PUSH1 0x40 PUSH1 0x0 KECCAK256 SLOAD AND PUSH1 0x40 MLOAD SWAP1 ISZERO ISZERO DUP2 MSTORE RETURN JUMPDEST CALLVALUE PUSH2 0x845 JUMPI PUSH1 0x20 DUP1 PUSH1 0x3 NOT CALLDATASIZE ADD SLT PUSH2 0x845 JUMPI PUSH1 0x4 CALLDATALOAD SWAP1 DUP2 PUSH1 0x0 MSTORE PUSH1 0x2 DUP2 MSTORE PUSH2 0x15E8 PUSH1 0x40 PUSH1 0x0 KECCAK256 SLOAD ISZERO ISZERO PUSH2 0x216C JUMP JUMPDEST DUP2 PUSH1 0x0 MSTORE PUSH1 0x3 DUP2 MSTORE PUSH1 0x40 PUSH1 0x0 KECCAK256 CALLER PUSH1 0x0 MSTORE DUP2 MSTORE PUSH1 0xFF PUSH1 0x40 PUSH1 0x0 KECCAK256 SLOAD AND ISZERO PUSH2 0x167E JUMPI PUSH1 0x0 DUP3 DUP2 MSTORE PUSH1 0x2 DUP3 MSTORE PUSH1 0x40 DUP1 DUP3 KECCAK256 PUSH1 0x3 DUP5 MSTORE DUP2 DUP4 KECCAK256 CALLER DUP5 MSTORE SWAP1 SWAP4 MSTORE SWAP1 KECCAK256 DUP1 SLOAD PUSH1 0xFF NOT AND SWAP1 SSTORE PUSH1 0x7 ADD DUP1 SLOAD DUP1 ISZERO PUSH2 0x1668 JUMPI PUSH1 0x0 NOT ADD SWAP1 SSTORE CALLER SWAP1 PUSH32 0xD7E5581F5ACCF2708572BA158AA9DF7B822D6855BE3657319E94B445A58F7703 PUSH1 0x0 DUP1 LOG3 STOP JUMPDEST PUSH4 0x4E487B71 PUSH1 0xE0 SHL PUSH1 0x0 MSTORE PUSH1 0x11 PUSH1 0x4 MSTORE PUSH1 0x24 PUSH1 0x0 REVERT JUMPDEST PUSH1 0x64 SWAP1 PUSH1 0x40 MLOAD SWAP1 PUSH3 0x461BCD PUSH1 0xE5 SHL DUP3 MSTORE PUSH1 0x4 DUP3 ADD MSTORE PUSH1 0x1D PUSH1 0x24 DUP3 ADD MSTORE PUSH32 0x4E6F74207265676973746572656420666F722074686973206576656E74000000 PUSH1 0x44 DUP3 ADD MSTORE REVERT JUMPDEST PUSH1 0x20 DUP1 PUSH1 0x3 NOT CALLDATASIZE ADD SLT PUSH2 0x845 JUMPI PUSH1 0x4 CALLDATALOAD SWAP1 DUP2 PUSH1 0x0 MSTORE PUSH1 0x2 DUP2 MSTORE PUSH2 0x16EB PUSH1 0x40 PUSH1 0x0 KECCAK256 SLOAD ISZERO ISZERO PUSH2 0x216C JUMP JUMPDEST DUP2 PUSH1 0x0 MSTORE PUSH1 0x2 DUP2 MSTORE PUSH1 0xFF PUSH1 0x8 PUSH1 0x40 PUSH1 0x0 KECCAK256 ADD SLOAD PUSH1 0xA0 SHR AND ISZERO PUSH2 0x19F8 JUMPI PUSH1 0x2 PUSH1 0x1 SLOAD EQ PUSH2 0x19B4 JUMPI PUSH1 0x2 PUSH1 0x1 SSTORE DUP2 PUSH1 0x0 MSTORE PUSH1 0x2 DUP2 MSTORE PUSH1 0x40 PUSH1 0x0 KECCAK256 PUSH1 0x3 DUP3 MSTORE PUSH1 0x40 PUSH1 0x0 KECCAK256 CALLER PUSH1 0x0 MSTORE DUP3 MSTORE PUSH1 0xFF PUSH1 0x40 PUSH1 0x0 KECCAK256 SLOAD AND PUSH2 0x1965 JUMPI PUSH1 0x7 DUP2 ADD DUP1 SLOAD PUSH1 0x6 DUP4 ADD SLOAD GT ISZERO PUSH2 0x1920 JUMPI PUSH1 0x5 DUP3 ADD SLOAD CALLVALUE LT PUSH2 0x18E4 JUMPI PUSH1 0x6 SLOAD PUSH1 0x1 PUSH1 0x1 PUSH1 0xA0 SHL SUB SWAP2 SWAP1 DUP3 AND ISZERO PUSH2 0x189F JUMPI DUP5 PUSH1 0x0 MSTORE PUSH1 0x3 DUP5 MSTORE PUSH1 0x40 PUSH1 0x0 KECCAK256 CALLER PUSH1 0x0 MSTORE DUP5 MSTORE PUSH1 0x40 PUSH1 0x0 KECCAK256 PUSH1 0x1 PUSH1 0xFF NOT DUP3 SLOAD AND OR SWAP1 SSTORE PUSH2 0x179C DUP2 SLOAD PUSH2 0x2146 JUMP JUMPDEST SWAP1 SSTORE PUSH1 0x8 DUP2 PUSH1 0x6 SLOAD AND SWAP3 ADD SLOAD AND PUSH1 0x40 MLOAD SWAP2 DUP4 DUP4 ADD SWAP2 PUSH4 0x3279C411 PUSH1 0xE0 SHL DUP4 MSTORE DUP6 PUSH1 0x24 DUP6 ADD MSTORE CALLER PUSH1 0x44 DUP6 ADD MSTORE PUSH1 0x64 DUP5 ADD MSTORE CALLVALUE PUSH1 0x84 DUP5 ADD MSTORE PUSH1 0x84 DUP4 MSTORE PUSH1 0xC0 DUP4 ADD SWAP2 DUP4 DUP4 LT PUSH1 0x1 PUSH1 0x1 PUSH1 0x40 SHL SUB DUP5 GT OR PUSH2 0x500 JUMPI PUSH1 0x0 SWAP4 DUP5 SWAP4 PUSH1 0x40 MSTORE MLOAD SWAP2 CALLVALUE SWAP1 GAS CALL RETURNDATASIZE ISZERO PUSH2 0x189A JUMPI RETURNDATASIZE PUSH2 0x180B DUP2 PUSH2 0x1F54 JUMP JUMPDEST SWAP1 PUSH2 0x1819 PUSH1 0x40 MLOAD SWAP3 DUP4 PUSH2 0x1E12 JUMP JUMPDEST DUP2 MSTORE PUSH1 0x0 DUP4 RETURNDATASIZE SWAP3 ADD RETURNDATACOPY JUMPDEST ISZERO PUSH2 0x1856 JUMPI POP CALLER SWAP1 PUSH32 0xB442EFE467D2EF30E62927A3CAE0AFCBC799A8A0944D8A143332E4E5E51CEE5D PUSH1 0x0 DUP1 LOG3 PUSH1 0x1 DUP1 SSTORE STOP JUMPDEST PUSH1 0x64 SWAP1 PUSH1 0x40 MLOAD SWAP1 PUSH3 0x461BCD PUSH1 0xE5 SHL DUP3 MSTORE PUSH1 0x4 DUP3 ADD MSTORE PUSH1 0x19 PUSH1 0x24 DUP3 ADD MSTORE PUSH32 0x5061796D656E742070726F63657373696E67206661696C656400000000000000 PUSH1 0x44 DUP3 ADD MSTORE REVERT JUMPDEST PUSH2 0x1823 JUMP JUMPDEST PUSH1 0x40 MLOAD PUSH3 0x461BCD PUSH1 0xE5 SHL DUP2 MSTORE PUSH1 0x4 DUP2 ADD DUP6 SWAP1 MSTORE PUSH1 0x18 PUSH1 0x24 DUP3 ADD MSTORE PUSH32 0x5061796D656E7450726F636573736F72206E6F74207365740000000000000000 PUSH1 0x44 DUP3 ADD MSTORE PUSH1 0x64 SWAP1 REVERT JUMPDEST PUSH1 0x40 MLOAD PUSH3 0x461BCD PUSH1 0xE5 SHL DUP2 MSTORE PUSH1 0x4 DUP2 ADD DUP5 SWAP1 MSTORE PUSH1 0x14 PUSH1 0x24 DUP3 ADD MSTORE PUSH20 0x125B9CDD59999A58DA595B9D081C185E5B595B9D PUSH1 0x62 SHL PUSH1 0x44 DUP3 ADD MSTORE PUSH1 0x64 SWAP1 REVERT JUMPDEST PUSH1 0x40 MLOAD PUSH3 0x461BCD PUSH1 0xE5 SHL DUP2 MSTORE PUSH1 0x4 DUP2 ADD DUP5 SWAP1 MSTORE PUSH1 0x19 PUSH1 0x24 DUP3 ADD MSTORE PUSH32 0x4576656E742069732061742066756C6C20636170616369747900000000000000 PUSH1 0x44 DUP3 ADD MSTORE PUSH1 0x64 SWAP1 REVERT JUMPDEST PUSH1 0x40 MLOAD PUSH3 0x461BCD PUSH1 0xE5 SHL DUP2 MSTORE PUSH1 0x4 DUP2 ADD DUP4 SWAP1 MSTORE PUSH1 0x21 PUSH1 0x24 DUP3 ADD MSTORE PUSH32 0x416C7265616479207265676973746572656420666F722074686973206576656E PUSH1 0x44 DUP3 ADD MSTORE PUSH1 0x1D PUSH1 0xFA SHL PUSH1 0x64 DUP3 ADD MSTORE PUSH1 0x84 SWAP1 REVERT JUMPDEST PUSH1 0x64 SWAP1 PUSH1 0x40 MLOAD SWAP1 PUSH3 0x461BCD PUSH1 0xE5 SHL DUP3 MSTORE PUSH1 0x4 DUP3 ADD MSTORE PUSH1 0x1F PUSH1 0x24 DUP3 ADD MSTORE PUSH32 0x5265656E7472616E637947756172643A207265656E7472616E742063616C6C00 PUSH1 0x44 DUP3 ADD MSTORE REVERT JUMPDEST PUSH1 0x64 SWAP1 PUSH1 0x40 MLOAD SWAP1 PUSH3 0x461BCD PUSH1 0xE5 SHL DUP3 MSTORE PUSH1 0x4 DUP3 ADD MSTORE PUSH1 0x13 PUSH1 0x24 DUP3 ADD MSTORE PUSH19 0x4576656E74206973206E6F7420616374697665 PUSH1 0x68 SHL PUSH1 0x44 DUP3 ADD MSTORE REVERT JUMPDEST CALLVALUE PUSH2 0x845 JUMPI PUSH1 0x20 DUP1 PUSH1 0x3 NOT CALLDATASIZE ADD SLT PUSH2 0x845 JUMPI PUSH1 0x4 CALLDATALOAD SWAP1 DUP2 PUSH1 0x0 MSTORE PUSH1 0x2 DUP2 MSTORE PUSH2 0x1A60 PUSH1 0x40 PUSH1 0x0 KECCAK256 SLOAD ISZERO ISZERO PUSH2 0x216C JUMP JUMPDEST DUP2 PUSH1 0x0 MSTORE PUSH1 0x2 DUP2 MSTORE PUSH2 0x1A83 PUSH1 0x1 DUP1 PUSH1 0xA0 SHL SUB PUSH1 0x8 PUSH1 0x40 PUSH1 0x0 KECCAK256 ADD SLOAD AND CALLER EQ PUSH2 0x21AF JUMP JUMPDEST DUP2 PUSH1 0x0 MSTORE PUSH1 0x2 DUP2 MSTORE PUSH1 0xFF PUSH1 0x8 PUSH1 0x40 PUSH1 0x0 KECCAK256 ADD SLOAD PUSH1 0xA0 SHR AND ISZERO PUSH2 0x1AE1 JUMPI PUSH1 0x0 DUP3 DUP2 MSTORE PUSH1 0x2 SWAP1 SWAP2 MSTORE PUSH1 0x40 DUP2 KECCAK256 PUSH1 0x8 ADD DUP1 SLOAD PUSH1 0xFF PUSH1 0xA0 SHL NOT AND SWAP1 SSTORE PUSH32 0xDC3CB569B066460F4A22DFFA05317BDCCE5D3826382ED49A21F13E5FA2063D39 SWAP1 DUP1 LOG2 STOP JUMPDEST PUSH1 0x64 SWAP1 PUSH1 0x40 MLOAD SWAP1 PUSH3 0x461BCD PUSH1 0xE5 SHL DUP3 MSTORE PUSH1 0x4 DUP3 ADD MSTORE PUSH1 0x1A PUSH1 0x24 DUP3 ADD MSTORE PUSH32 0x4576656E7420697320616C72656164792063616E63656C6C6564000000000000 PUSH1 0x44 DUP3 ADD MSTORE REVERT JUMPDEST CALLVALUE PUSH2 0x845 JUMPI PUSH1 0x0 CALLDATASIZE PUSH1 0x3 NOT ADD SLT PUSH2 0x845 JUMPI PUSH1 0x4 SLOAD PUSH2 0x1B42 DUP2 PUSH2 0x2210 JUMP JUMPDEST SWAP1 PUSH1 0x0 SWAP1 PUSH1 0x1 JUMPDEST DUP2 DUP2 GT ISZERO PUSH2 0x1B88 JUMPI POP POP PUSH2 0x1B5C DUP2 PUSH2 0x2210 JUMP JUMPDEST SWAP2 PUSH1 0x0 JUMPDEST DUP3 DUP2 LT PUSH2 0x1B75 JUMPI PUSH1 0x40 MLOAD DUP1 PUSH2 0x1201 DUP7 DUP3 PUSH2 0x1F19 JUMP JUMPDEST DUP1 PUSH2 0x1213 PUSH2 0x1B83 SWAP3 DUP5 PUSH2 0x2242 JUMP JUMPDEST PUSH2 0x1B60 JUMP JUMPDEST DUP1 PUSH1 0x0 MSTORE PUSH1 0x2 PUSH1 0x20 MSTORE PUSH1 0xFF PUSH1 0x8 PUSH1 0x40 PUSH1 0x0 KECCAK256 ADD SLOAD PUSH1 0xA0 SHR AND PUSH2 0x1BB3 JUMPI JUMPDEST PUSH2 0x1BAE SWAP1 PUSH2 0x2146 JUMP JUMPDEST PUSH2 0x1B49 JUMP JUMPDEST SWAP2 PUSH2 0x1BC6 DUP2 DUP5 PUSH2 0x121E PUSH2 0x1BAE SWAP5 DUP9 PUSH2 0x2242 JUMP JUMPDEST SWAP3 SWAP1 POP PUSH2 0x1BA5 JUMP JUMPDEST CALLVALUE PUSH2 0x845 JUMPI PUSH1 0x0 CALLDATASIZE PUSH1 0x3 NOT ADD SLT PUSH2 0x845 JUMPI PUSH1 0x20 PUSH1 0x5 SLOAD PUSH1 0x40 MLOAD SWAP1 DUP2 MSTORE RETURN JUMPDEST CALLVALUE PUSH2 0x845 JUMPI PUSH1 0x20 CALLDATASIZE PUSH1 0x3 NOT ADD SLT PUSH2 0x845 JUMPI PUSH1 0x4 CALLDATALOAD PUSH1 0x0 MSTORE PUSH1 0x2 PUSH1 0x20 MSTORE PUSH1 0x40 PUSH1 0x0 KECCAK256 DUP1 SLOAD PUSH2 0x1201 PUSH2 0x1C1E PUSH1 0x1 DUP5 ADD PUSH2 0x1E33 JUMP JUMPDEST SWAP3 PUSH2 0x1C2B PUSH1 0x2 DUP3 ADD PUSH2 0x1E33 JUMP JUMPDEST PUSH1 0xFF PUSH1 0x3 DUP4 ADD SLOAD SWAP3 PUSH1 0x4 DUP2 ADD SLOAD PUSH1 0x5 DUP3 ADD SLOAD PUSH1 0x6 DUP4 ADD SLOAD SWAP1 PUSH1 0x7 DUP5 ADD SLOAD SWAP3 PUSH2 0x1C89 PUSH2 0x1C5D PUSH1 0x9 PUSH1 0x8 DUP9 ADD SLOAD SWAP8 ADD PUSH2 0x1E33 JUMP JUMPDEST SWAP8 PUSH2 0x1C7B PUSH1 0x40 MLOAD SWAP14 DUP15 SWAP14 DUP15 MSTORE DUP14 PUSH2 0x160 SWAP1 DUP2 PUSH1 0x20 DUP3 ADD MSTORE ADD SWAP1 PUSH2 0x1ED9 JUMP JUMPDEST DUP13 DUP2 SUB PUSH1 0x40 DUP15 ADD MSTORE SWAP1 PUSH2 0x1ED9 JUMP JUMPDEST SWAP8 PUSH1 0x60 DUP12 ADD MSTORE PUSH1 0x80 DUP11 ADD MSTORE PUSH1 0xA0 DUP10 ADD MSTORE PUSH1 0xC0 DUP9 ADD MSTORE PUSH1 0xE0 DUP8 ADD MSTORE PUSH1 0x1 DUP1 PUSH1 0xA0 SHL SUB DUP2 AND PUSH2 0x100 DUP8 ADD MSTORE PUSH1 0xA0 SHR AND ISZERO ISZERO PUSH2 0x120 DUP6 ADD MSTORE DUP4 DUP3 SUB PUSH2 0x140 DUP6 ADD MSTORE PUSH2 0x1ED9 JUMP JUMPDEST CALLVALUE PUSH2 0x845 JUMPI PUSH1 0x20 CALLDATASIZE PUSH1 0x3 NOT ADD SLT PUSH2 0x845 JUMPI PUSH2 0x1CE5 PUSH2 0x1D90 JUMP JUMPDEST PUSH2 0x1CED PUSH2 0x204D JUMP JUMPDEST PUSH1 0x1 PUSH1 0x1 PUSH1 0xA0 SHL SUB SWAP1 DUP2 AND SWAP1 DUP2 ISZERO PUSH2 0x1D41 JUMPI PUSH1 0x6 SLOAD DUP3 PUSH12 0xFFFFFFFFFFFFFFFFFFFFFFFF PUSH1 0xA0 SHL DUP3 AND OR PUSH1 0x6 SSTORE AND PUSH32 0x136038487AABF3739B91ACB5EB89BF0DA13241B5F155CC8EDCCE2B5119E7B901 PUSH1 0x0 DUP1 LOG3 STOP JUMPDEST PUSH1 0x40 MLOAD PUSH3 0x461BCD PUSH1 0xE5 SHL DUP2 MSTORE PUSH1 0x20 PUSH1 0x4 DUP3 ADD MSTORE PUSH1 0x21 PUSH1 0x24 DUP3 ADD MSTORE PUSH32 0x496E76616C6964207061796D656E742070726F636573736F7220616464726573 PUSH1 0x44 DUP3 ADD MSTORE PUSH1 0x73 PUSH1 0xF8 SHL PUSH1 0x64 DUP3 ADD MSTORE PUSH1 0x84 SWAP1 REVERT JUMPDEST PUSH1 0x4 CALLDATALOAD SWAP1 PUSH1 0x1 PUSH1 0x1 PUSH1 0xA0 SHL SUB DUP3 AND DUP3 SUB PUSH2 0x845 JUMPI JUMP JUMPDEST PUSH1 0x24 CALLDATALOAD SWAP1 PUSH1 0x1 PUSH1 0x1 PUSH1 0xA0 SHL SUB DUP3 AND DUP3 SUB PUSH2 0x845 JUMPI JUMP JUMPDEST SWAP1 PUSH1 0x1 DUP3 DUP2 SHR SWAP3 AND DUP1 ISZERO PUSH2 0x1DEC JUMPI JUMPDEST PUSH1 0x20 DUP4 LT EQ PUSH2 0x1DD6 JUMPI JUMP JUMPDEST PUSH4 0x4E487B71 PUSH1 0xE0 SHL PUSH1 0x0 MSTORE PUSH1 0x22 PUSH1 0x4 MSTORE PUSH1 0x24 PUSH1 0x0 REVERT JUMPDEST SWAP2 PUSH1 0x7F AND SWAP2 PUSH2 0x1DCB JUMP JUMPDEST PUSH2 0x180 DUP2 ADD SWAP1 DUP2 LT PUSH1 0x1 PUSH1 0x1 PUSH1 0x40 SHL SUB DUP3 GT OR PUSH2 0x500 JUMPI PUSH1 0x40 MSTORE JUMP JUMPDEST SWAP1 PUSH1 0x1F DUP1 NOT SWAP2 ADD AND DUP2 ADD SWAP1 DUP2 LT PUSH1 0x1 PUSH1 0x1 PUSH1 0x40 SHL SUB DUP3 GT OR PUSH2 0x500 JUMPI PUSH1 0x40 MSTORE JUMP JUMPDEST SWAP1 PUSH1 0x40 MLOAD SWAP2 DUP3 PUSH1 0x0 DUP3 SLOAD SWAP3 PUSH2 0x1E47 DUP5 PUSH2 0x1DBC JUMP JUMPDEST SWAP1 DUP2 DUP5 MSTORE PUSH1 0x1 SWAP5 DUP6 DUP2 AND SWAP1 DUP2 PUSH1 0x0 EQ PUSH2 0x1EB6 JUMPI POP PUSH1 0x1 EQ PUSH2 0x1E73 JUMPI JUMPDEST POP POP PUSH2 0x1E71 SWAP3 POP SUB DUP4 PUSH2 0x1E12 JUMP JUMPDEST JUMP JUMPDEST SWAP1 SWAP4 SWAP2 POP PUSH1 0x0 MSTORE PUSH1 0x20 SWAP1 DUP2 PUSH1 0x0 KECCAK256 SWAP4 PUSH1 0x0 SWAP2 JUMPDEST DUP2 DUP4 LT PUSH2 0x1E9E JUMPI POP POP PUSH2 0x1E71 SWAP4 POP DUP3 ADD ADD CODESIZE DUP1 PUSH2 0x1E63 JUMP JUMPDEST DUP6 SLOAD DUP9 DUP5 ADD DUP6 ADD MSTORE SWAP5 DUP6 ADD SWAP5 DUP8 SWAP5 POP SWAP2 DUP4 ADD SWAP2 PUSH2 0x1E86 JUMP JUMPDEST SWAP2 POP POP PUSH2 0x1E71 SWAP5 POP PUSH1 0x20 SWAP3 POP PUSH1 0xFF NOT AND DUP3 DUP5 ADD MSTORE ISZERO ISZERO PUSH1 0x5 SHL DUP3 ADD ADD CODESIZE DUP1 PUSH2 0x1E63 JUMP JUMPDEST SWAP2 SWAP1 DUP3 MLOAD SWAP3 DUP4 DUP3 MSTORE PUSH1 0x0 JUMPDEST DUP5 DUP2 LT PUSH2 0x1F05 JUMPI POP POP DUP3 PUSH1 0x0 PUSH1 0x20 DUP1 SWAP5 SWAP6 DUP5 ADD ADD MSTORE PUSH1 0x1F DUP1 NOT SWAP2 ADD AND ADD ADD SWAP1 JUMP JUMPDEST PUSH1 0x20 DUP2 DUP4 ADD DUP2 ADD MLOAD DUP5 DUP4 ADD DUP3 ADD MSTORE ADD PUSH2 0x1EE4 JUMP JUMPDEST PUSH1 0x20 SWAP1 DUP2 PUSH1 0x40 DUP2 DUP4 ADD SWAP3 DUP3 DUP2 MSTORE DUP6 MLOAD DUP1 SWAP5 MSTORE ADD SWAP4 ADD SWAP2 PUSH1 0x0 JUMPDEST DUP3 DUP2 LT PUSH2 0x1F40 JUMPI POP POP POP POP SWAP1 JUMP JUMPDEST DUP4 MLOAD DUP6 MSTORE SWAP4 DUP2 ADD SWAP4 SWAP3 DUP2 ADD SWAP3 PUSH1 0x1 ADD PUSH2 0x1F32 JUMP JUMPDEST PUSH1 0x1 PUSH1 0x1 PUSH1 0x40 SHL SUB DUP2 GT PUSH2 0x500 JUMPI PUSH1 0x1F ADD PUSH1 0x1F NOT AND PUSH1 0x20 ADD SWAP1 JUMP JUMPDEST DUP2 PUSH1 0x1F DUP3 ADD SLT ISZERO PUSH2 0x845 JUMPI DUP1 CALLDATALOAD SWAP1 PUSH2 0x1F86 DUP3 PUSH2 0x1F54 JUMP JUMPDEST SWAP3 PUSH2 0x1F94 PUSH1 0x40 MLOAD SWAP5 DUP6 PUSH2 0x1E12 JUMP JUMPDEST DUP3 DUP5 MSTORE PUSH1 0x20 DUP4 DUP4 ADD ADD GT PUSH2 0x845 JUMPI DUP2 PUSH1 0x0 SWAP3 PUSH1 0x20 DUP1 SWAP4 ADD DUP4 DUP7 ADD CALLDATACOPY DUP4 ADD ADD MSTORE SWAP1 JUMP JUMPDEST PUSH1 0x1 PUSH1 0x1 PUSH1 0x40 SHL SUB DUP2 GT PUSH2 0x500 JUMPI PUSH1 0x5 SHL PUSH1 0x20 ADD SWAP1 JUMP JUMPDEST SWAP1 DUP1 PUSH1 0x1F DUP4 ADD SLT ISZERO PUSH2 0x845 JUMPI DUP2 CALLDATALOAD SWAP1 PUSH2 0x1FE5 DUP3 PUSH2 0x1FB6 JUMP JUMPDEST SWAP3 PUSH2 0x1FF3 PUSH1 0x40 MLOAD SWAP5 DUP6 PUSH2 0x1E12 JUMP JUMPDEST DUP3 DUP5 MSTORE PUSH1 0x20 SWAP3 DUP4 DUP1 DUP7 ADD SWAP2 PUSH1 0x5 SHL DUP4 ADD ADD SWAP3 DUP1 DUP5 GT PUSH2 0x845 JUMPI DUP5 DUP4 ADD SWAP2 JUMPDEST DUP5 DUP4 LT PUSH2 0x2021 JUMPI POP POP POP POP POP POP SWAP1 JUMP JUMPDEST DUP3 CALLDATALOAD PUSH1 0x1 PUSH1 0x1 PUSH1 0x40 SHL SUB DUP2 GT PUSH2 0x845 JUMPI DUP7 SWAP2 PUSH2 0x2042 DUP5 DUP5 DUP1 SWAP5 DUP10 ADD ADD PUSH2 0x1F6F JUMP JUMPDEST DUP2 MSTORE ADD SWAP3 ADD SWAP2 PUSH2 0x2011 JUMP JUMPDEST PUSH1 0x0 SLOAD PUSH1 0x1 PUSH1 0x1 PUSH1 0xA0 SHL SUB AND CALLER SUB PUSH2 0x2061 JUMPI JUMP JUMPDEST PUSH1 0x64 PUSH1 0x40 MLOAD PUSH3 0x461BCD PUSH1 0xE5 SHL DUP2 MSTORE PUSH1 0x20 PUSH1 0x4 DUP3 ADD MSTORE PUSH1 0x20 PUSH1 0x24 DUP3 ADD MSTORE PUSH32 0x4F776E61626C653A2063616C6C6572206973206E6F7420746865206F776E6572 PUSH1 0x44 DUP3 ADD MSTORE REVERT JUMPDEST ISZERO PUSH2 0x20AC JUMPI JUMP JUMPDEST PUSH1 0x64 PUSH1 0x40 MLOAD PUSH3 0x461BCD PUSH1 0xE5 SHL DUP2 MSTORE PUSH1 0x20 PUSH1 0x4 DUP3 ADD MSTORE PUSH1 0x20 PUSH1 0x24 DUP3 ADD MSTORE PUSH32 0x53746172742064617465206D75737420626520696E2074686520667574757265 PUSH1 0x44 DUP3 ADD MSTORE REVERT JUMPDEST ISZERO PUSH2 0x20F7 JUMPI JUMP JUMPDEST PUSH1 0x40 MLOAD PUSH3 0x461BCD PUSH1 0xE5 SHL DUP2 MSTORE PUSH1 0x20 PUSH1 0x4 DUP3 ADD MSTORE PUSH1 0x21 PUSH1 0x24 DUP3 ADD MSTORE PUSH32 0x456E642064617465206D75737420626520616674657220737461727420646174 PUSH1 0x44 DUP3 ADD MSTORE PUSH1 0x65 PUSH1 0xF8 SHL PUSH1 0x64 DUP3 ADD MSTORE PUSH1 0x84 SWAP1 REVERT JUMPDEST PUSH1 0x0 NOT DUP2 EQ PUSH2 0x1668 JUMPI PUSH1 0x1 ADD SWAP1 JUMP JUMPDEST DUP2 DUP2 LT PUSH2 0x2160 JUMPI POP POP JUMP JUMPDEST PUSH1 0x0 DUP2 SSTORE PUSH1 0x1 ADD PUSH2 0x2155 JUMP JUMPDEST ISZERO PUSH2 0x2173 JUMPI JUMP JUMPDEST PUSH1 0x40 MLOAD PUSH3 0x461BCD PUSH1 0xE5 SHL DUP2 MSTORE PUSH1 0x20 PUSH1 0x4 DUP3 ADD MSTORE PUSH1 0x14 PUSH1 0x24 DUP3 ADD MSTORE PUSH20 0x115D995B9D08191BD95CC81B9BDD08195E1A5CDD PUSH1 0x62 SHL PUSH1 0x44 DUP3 ADD MSTORE PUSH1 0x64 SWAP1 REVERT JUMPDEST ISZERO PUSH2 0x21B6 JUMPI JUMP JUMPDEST PUSH1 0x40 MLOAD PUSH3 0x461BCD PUSH1 0xE5 SHL DUP2 MSTORE PUSH1 0x20 PUSH1 0x4 DUP3 ADD MSTORE PUSH1 0x2C PUSH1 0x24 DUP3 ADD MSTORE PUSH32 0x4F6E6C79206576656E74206F7267616E697A65722063616E20706572666F726D PUSH1 0x44 DUP3 ADD MSTORE PUSH12 0x103A3434B99030B1BA34B7B7 PUSH1 0xA1 SHL PUSH1 0x64 DUP3 ADD MSTORE PUSH1 0x84 SWAP1 REVERT JUMPDEST SWAP1 PUSH2 0x221A DUP3 PUSH2 0x1FB6 JUMP JUMPDEST PUSH2 0x2227 PUSH1 0x40 MLOAD SWAP2 DUP3 PUSH2 0x1E12 JUMP JUMPDEST DUP3 DUP2 MSTORE DUP1 SWAP3 PUSH2 0x2238 PUSH1 0x1F NOT SWAP2 PUSH2 0x1FB6 JUMP JUMPDEST ADD SWAP1 PUSH1 0x20 CALLDATASIZE SWAP2 ADD CALLDATACOPY JUMP JUMPDEST DUP1 MLOAD DUP3 LT ISZERO PUSH2 0x2256 JUMPI PUSH1 0x20 SWAP2 PUSH1 0x5 SHL ADD ADD SWAP1 JUMP JUMPDEST PUSH4 0x4E487B71 PUSH1 0xE0 SHL PUSH1 0x0 MSTORE PUSH1 0x32 PUSH1 0x4 MSTORE PUSH1 0x24 PUSH1 0x0 REVERT INVALID LOG2 PUSH5 0x6970667358 0x22 SLT KECCAK256 0x5E DUP9 PUSH1 0x44 0xB6 0x29 DUP15 BYTE 0xB0 DUP4 PUSH3 0xDDE9C SWAP16 0xDA SSTORE PUSH12 0x9EE63F0B85B2E82C34C5322C 0xD5 0xD9 PUSH5 0x736F6C6343 STOP ADDMOD SGT STOP CALLER "},"methodIdentifiers":{"cancelEvent(uint256)":"3f69babd","createEvent(string,string,uint256,uint256,uint256,uint256,string,string[])":"c2c02965","eventCount()":"71be2e4a","eventRegistrations(uint256,address)":"3e2c7014","events(uint256)":"0b791430","getActiveEvents()":"3612280f","getContractBalance()":"6f9fb98a","getEvent(uint256)":"6d1884e0","getEventsByOrganizer(address)":"9f6271c3","isUserRegistered(uint256,address)":"57f69799","owner()":"8da5cb5b","paymentProcessor()":"f1c6bdf8","platformFee()":"26232a2e","registerForEvent(uint256)":"406db843","renounceOwnership()":"715018a6","setPaymentProcessor(address)":"088b0d75","transferOwnership(address)":"f2fde38b","unregisterFromEvent(uint256)":"4df6dab9","updateEvent(uint256,string,string,uint256,uint256,uint256,uint256,string,string[])":"f4929006","updatePlatformFee(uint256)":"aa0b5988","withdrawPlatformFees()":"d0b7830b"}},"storageLayout":{"storage":[{"astId":7,"contract":"contracts/EventContract.sol:EventContract","label":"_owner","offset":0,"slot":"0","type":"t_address"},{"astId":259,"contract":"contracts/EventContract.sol:EventContract","label":"_status","offset":0,"slot":"1","type":"t_uint256"},{"astId":3267,"contract":"contracts/EventContract.sol:EventContract","label":"events","offset":0,"slot":"2","type":"t_mapping(t_uint256,t_struct(Event)3262_storage)"},{"astId":3273,"contract":"contracts/EventContract.sol:EventContract","label":"eventRegistrations","offset":0,"slot":"3","type":"t_mapping(t_uint256,t_mapping(t_address,t_bool))"},{"astId":3275,"contract":"contracts/EventContract.sol:EventContract","label":"eventCount","offset":0,"slot":"4","type":"t_uint256"},{"astId":3278,"contract":"contracts/EventContract.sol:EventContract","label":"platformFee","offset":0,"slot":"5","type":"t_uint256"},{"astId":3280,"contract":"contracts/EventContract.sol:EventContract","label":"paymentProcessor","offset":0,"slot":"6","type":"t_address"}],"types":{"t_address":{"encoding":"inplace","label":"address","numberOfBytes":"20"},"t_array(t_string_storage)dyn_storage":{"base":"t_string_storage","encoding":"dynamic_array","label":"string[]","numberOfBytes":"32"},"t_bool":{"encoding":"inplace","label":"bool","numberOfBytes":"1"},"t_mapping(t_address,t_bool)":{"encoding":"mapping","key":"t_address","label":"mapping(address => bool)","numberOfBytes":"32","value":"t_bool"},"t_mapping(t_uint256,t_mapping(t_address,t_bool))":{"encoding":"mapping","key":"t_uint256","label":"mapping(uint256 => mapping(address => bool))","numberOfBytes":"32","value":"t_mapping(t_address,t_bool)"},"t_mapping(t_uint256,t_struct(Event)3262_storage)":{"encoding":"mapping","key":"t_uint256","label":"mapping(uint256 => struct EventContract.Event)","numberOfBytes":"32","value":"t_struct(Event)3262_storage"},"t_string_storage":{"encoding":"bytes","label":"string","numberOfBytes":"32"},"t_struct(Event)3262_storage":{"encoding":"inplace","label":"struct EventContract.Event","members":[{"astId":3238,"contract":"contracts/EventContract.sol:EventContract","label":"id","offset":0,"slot":"0","type":"t_uint256"},{"astId":3240,"contract":"contracts/EventContract.sol:EventContract","label":"title","offset":0,"slot":"1","type":"t_string_storage"},{"astId":3242,"contract":"contracts/EventContract.sol:EventContract","label":"description","offset":0,"slot":"2","type":"t_string_storage"},{"astId":3244,"contract":"contracts/EventContract.sol:EventContract","label":"startDate","offset":0,"slot":"3","type":"t_uint256"},{"astId":3246,"contract":"contracts/EventContract.sol:EventContract","label":"endDate","offset":0,"slot":"4","type":"t_uint256"},{"astId":3248,"contract":"contracts/EventContract.sol:EventContract","label":"ticketPrice","offset":0,"slot":"5","type":"t_uint256"},{"astId":3250,"contract":"contracts/EventContract.sol:EventContract","label":"capacity","offset":0,"slot":"6","type":"t_uint256"},{"astId":3252,"contract":"contracts/EventContract.sol:EventContract","label":"registeredCount","offset":0,"slot":"7","type":"t_uint256"},{"astId":3254,"contract":"contracts/EventContract.sol:EventContract","label":"organizer","offset":0,"slot":"8","type":"t_address"},{"astId":3256,"contract":"contracts/EventContract.sol:EventContract","label":"isActive","offset":20,"slot":"8","type":"t_bool"},{"astId":3258,"contract":"contracts/EventContract.sol:EventContract","label":"location","offset":0,"slot":"9","type":"t_string_storage"},{"astId":3261,"contract":"contracts/EventContract.sol:EventContract","label":"categories","offset":0,"slot":"10","type":"t_array(t_string_storage)dyn_storage"}],"numberOfBytes":"352"},"t_uint256":{"encoding":"inplace","label":"uint256","numberOfBytes":"32"}}}}}}