{"contracts/PaymentProcessor.sol":{"PaymentProcessor":{"abi":[{"inputs":[{"internalType":"address","name":"_eventContract","type":"address"},{"internalType":"address","name":"_ticketContract","type":"address"}],"stateMutability":"nonpayable","type":"constructor"},{"anonymous":false,"inputs":[{"indexed":true,"internalType":"address","name":"to","type":"address"},{"indexed":false,"internalType":"uint256","name":"amount","type":"uint256"},{"indexed":false,"internalType":"uint256","name":"timestamp","type":"uint256"}],"name":"EmergencyWithdrawal","type":"event"},{"anonymous":false,"inputs":[{"indexed":true,"internalType":"address","name":"previousOwner","type":"address"},{"indexed":true,"internalType":"address","name":"newOwner","type":"address"}],"name":"OwnershipTransferred","type":"event"},{"anonymous":false,"inputs":[{"indexed":false,"internalType":"address","name":"account","type":"address"}],"name":"Paused","type":"event"},{"anonymous":false,"inputs":[{"indexed":true,"internalType":"uint256","name":"paymentId","type":"uint256"},{"indexed":true,"internalType":"uint256","name":"eventId","type":"uint256"},{"indexed":true,"internalType":"address","name":"payer","type":"address"},{"indexed":false,"internalType":"uint256","name":"amount","type":"uint256"},{"indexed":false,"internalType":"uint256","name":"platformFee","type":"uint256"},{"indexed":false,"internalType":"uint256","name":"organizerShare","type":"uint256"}],"name":"PaymentProcessed","type":"event"},{"anonymous":false,"inputs":[{"indexed":false,"internalType":"uint256","name":"oldFee","type":"uint256"},{"indexed":false,"internalType":"uint256","name":"newFee","type":"uint256"},{"indexed":false,"internalType":"uint256","name":"timestamp","type":"uint256"}],"name":"PlatformFeeUpdated","type":"event"},{"anonymous":false,"inputs":[{"indexed":false,"internalType":"address","name":"account","type":"address"}],"name":"Unpaused","type":"event"},{"anonymous":false,"inputs":[{"indexed":true,"internalType":"address","name":"organizer","type":"address"},{"indexed":false,"internalType":"uint256","name":"amount","type":"uint256"},{"indexed":false,"internalType":"uint256","name":"timestamp","type":"uint256"}],"name":"WithdrawalMade","type":"event"},{"stateMutability":"payable","type":"fallback"},{"inputs":[],"name":"MAX_PLATFORM_FEE","outputs":[{"internalType":"uint256","name":"","type":"uint256"}],"stateMutability":"view","type":"function"},{"inputs":[],"name":"emergencyPause","outputs":[],"stateMutability":"nonpayable","type":"function"},{"inputs":[],"name":"emergencyUnpause","outputs":[],"stateMutability":"nonpayable","type":"function"},{"inputs":[],"name":"eventContract","outputs":[{"internalType":"address","name":"","type":"address"}],"stateMutability":"view","type":"function"},{"inputs":[{"internalType":"uint256","name":"","type":"uint256"},{"internalType":"uint256","name":"","type":"uint256"}],"name":"eventPayments","outputs":[{"internalType":"uint256","name":"","type":"uint256"}],"stateMutability":"view","type":"function"},{"inputs":[],"name":"getContractStats","outputs":[{"internalType":"uint256","name":"totalPayments","type":"uint256"},{"internalType":"uint256","name":"totalVolume","type":"uint256"},{"internalType":"uint256","name":"totalPlatformFees","type":"uint256"},{"internalType":"uint256","name":"contractBalance","type":"uint256"}],"stateMutability":"view","type":"function"},{"inputs":[{"internalType":"uint256","name":"eventId","type":"uint256"}],"name":"getEventPayments","outputs":[{"internalType":"uint256[]","name":"","type":"uint256[]"}],"stateMutability":"view","type":"function"},{"inputs":[{"internalType":"address","name":"organizer","type":"address"}],"name":"getOrganizerBalance","outputs":[{"internalType":"uint256","name":"totalEarned","type":"uint256"},{"internalType":"uint256","name":"availableBalance","type":"uint256"},{"internalType":"uint256","name":"withdrawnAmount","type":"uint256"},{"internalType":"uint256","name":"lastWithdrawal","type":"uint256"}],"stateMutability":"view","type":"function"},{"inputs":[{"internalType":"uint256","name":"paymentId","type":"uint256"}],"name":"getPaymentRecord","outputs":[{"internalType":"uint256","name":"eventId","type":"uint256"},{"internalType":"address","name":"payer","type":"address"},{"internalType":"address","name":"organizer","type":"address"},{"internalType":"uint256","name":"amount","type":"uint256"},{"internalType":"uint256","name":"platformFee","type":"uint256"},{"internalType":"uint256","name":"organizerShare","type":"uint256"},{"internalType":"uint256","name":"timestamp","type":"uint256"},{"internalType":"bool","name":"processed","type":"bool"}],"stateMutability":"view","type":"function"},{"inputs":[{"internalType":"address","name":"organizer","type":"address"},{"internalType":"uint256","name":"limit","type":"uint256"}],"name":"getPaymentsByOrganizer","outputs":[{"internalType":"uint256[]","name":"","type":"uint256[]"}],"stateMutability":"view","type":"function"},{"inputs":[{"internalType":"address","name":"payer","type":"address"},{"internalType":"uint256","name":"limit","type":"uint256"}],"name":"getPaymentsByPayer","outputs":[{"internalType":"uint256[]","name":"","type":"uint256[]"}],"stateMutability":"view","type":"function"},{"inputs":[{"internalType":"address","name":"","type":"address"}],"name":"organizerBalances","outputs":[{"internalType":"uint256","name":"totalEarned","type":"uint256"},{"internalType":"uint256","name":"availableBalance","type":"uint256"},{"internalType":"uint256","name":"withdrawnAmount","type":"uint256"},{"internalType":"uint256","name":"lastWithdrawal","type":"uint256"}],"stateMutability":"view","type":"function"},{"inputs":[],"name":"owner","outputs":[{"internalType":"address","name":"","type":"address"}],"stateMutability":"view","type":"function"},{"inputs":[],"name":"paused","outputs":[{"internalType":"bool","name":"","type":"bool"}],"stateMutability":"view","type":"function"},{"inputs":[],"name":"paymentCount","outputs":[{"internalType":"uint256","name":"","type":"uint256"}],"stateMutability":"view","type":"function"},{"inputs":[{"internalType":"uint256","name":"","type":"uint256"}],"name":"paymentRecords","outputs":[{"internalType":"uint256","name":"eventId","type":"uint256"},{"internalType":"address","name":"payer","type":"address"},{"internalType":"address","name":"organizer","type":"address"},{"internalType":"uint256","name":"amount","type":"uint256"},{"internalType":"uint256","name":"platformFee","type":"uint256"},{"internalType":"uint256","name":"organizerShare","type":"uint256"},{"internalType":"uint256","name":"timestamp","type":"uint256"},{"internalType":"bool","name":"processed","type":"bool"}],"stateMutability":"view","type":"function"},{"inputs":[],"name":"platformFeePercentage","outputs":[{"internalType":"uint256","name":"","type":"uint256"}],"stateMutability":"view","type":"function"},{"inputs":[{"internalType":"uint256","name":"eventId","type":"uint256"},{"internalType":"address","name":"payer","type":"address"},{"internalType":"address","name":"organizer","type":"address"},{"internalType":"uint256","name":"amount","type":"uint256"}],"name":"processPayment","outputs":[],"stateMutability":"payable","type":"function"},{"inputs":[],"name":"renounceOwnership","outputs":[],"stateMutability":"nonpayable","type":"function"},{"inputs":[{"internalType":"uint256","name":"eventId","type":"uint256"},{"internalType":"address","name":"payer","type":"address"},{"internalType":"address","name":"organizer","type":"address"},{"internalType":"uint256","name":"amount","type":"uint256"}],"name":"testProcessPayment","outputs":[],"stateMutability":"payable","type":"function"},{"inputs":[],"name":"ticketContract","outputs":[{"internalType":"address","name":"","type":"address"}],"stateMutability":"view","type":"function"},{"inputs":[{"internalType":"address","name":"newOwner","type":"address"}],"name":"transferOwnership","outputs":[],"stateMutability":"nonpayable","type":"function"},{"inputs":[{"internalType":"address","name":"_eventContract","type":"address"},{"internalType":"address","name":"_ticketContract","type":"address"}],"name":"updateContractAddresses","outputs":[],"stateMutability":"nonpayable","type":"function"},{"inputs":[{"internalType":"uint256","name":"newFeePercentage","type":"uint256"}],"name":"updatePlatformFee","outputs":[],"stateMutability":"nonpayable","type":"function"},{"inputs":[{"internalType":"uint256","name":"amount","type":"uint256"}],"name":"withdrawOrganizerFunds","outputs":[],"stateMutability":"nonpayable","type":"function"},{"inputs":[],"name":"withdrawPlatformFees","outputs":[],"stateMutability":"nonpayable","type":"function"},{"stateMutability":"payable","type":"receive"}],"evm":{"bytecode":{"linkReferences":{},"object":"60803461017057601f6200176038819003918201601f19168301916001600160401b0383118484101761017557808492604094855283398101031261017057610053602061004c8361018b565b920161018b565b60008054336001600160a01b0319808316821784556040519590946001600160a01b03949093859391908416907f8be0079c531659141344cd1fd0a4f28419497f9722a3daafe3b4186f6b6457e09080a36001805560ff196002541660025560056007551693841561012e5750169182156100e95781600854161760085560095416176009556040516115c09081620001a08239f35b60405162461bcd60e51b815260206004820152601f60248201527f496e76616c6964207469636b657420636f6e74726163742061646472657373006044820152606490fd5b62461bcd60e51b815260206004820152601e60248201527f496e76616c6964206576656e7420636f6e7472616374206164647265737300006044820152606490fd5b600080fd5b634e487b7160e01b600052604160045260246000fd5b51906001600160a01b03821682036101705756fe6080604081815260048036101561001e575b505050361561001c57005b005b600092833560e01c9081630937e68a14610f51575080630b2bad5f14610e68578063127369ea14610e445780631ff6dc5b14610d4b5780633279c41114610c8f5780633998a68114610c735780634a4e3bd514610bde57806350f417b514610a4357806351858e27146109e85780635691fe631461095757806358a86e1d1461092e5780635c975abb1461090a5780636143653214610867578063715018a61461080d578063798929e4146107c75780638da5cb5b1461079f5780639113e89b146106af578063aa0b5988146105fa578063b038057814610594578063c1d446be14610464578063cb5847d0146103f2578063cdd78cfc146103d3578063d0b7830b146102c8578063dfe6b5d614610237578063e274fd241461020a5763f2fde38b0361001157346102065760203660031901126102065761015e610f6d565b9061016761102a565b6001600160a01b039182169283156101b457505082546001600160a01b0319811683178455167f8be0079c531659141344cd1fd0a4f28419497f9722a3daafe3b4186f6b6457e08380a380f35b906020608492519162461bcd60e51b8352820152602660248201527f4f776e61626c653a206e6577206f776e657220697320746865207a65726f206160448201526564647265737360d01b6064820152fd5b8280fd5b50503461023357816003193601126102335760085490516001600160a01b039091168152602090f35b5080fd5b509190346102335781600319360112610233578192919280600190600654945b8583111561028657505091519283526020830193909352506040810191909152476060820152608090f35b0390f35b9091926102bb6102c19185855260036102aa60209a828c52828a89200154906111a1565b9987875252838786200154906111a1565b9361113d565b9190610257565b5090346102065782600319360112610206576102e261102a565b6102ea611496565b479182156103915760018060a01b03908480808087868254165af161030d6114ec565b501561034e5750907f56da9a5ae0bcf6e7c3fdd78a10550e7d0458de1c39bfb7f6e96a3e92dd344a6891845416928151908152426020820152a26001805580f35b606490602084519162461bcd60e51b8352820152601e60248201527f506c6174666f726d20666565207769746864726177616c206661696c656400006044820152fd5b6020606492519162461bcd60e51b8352820152601c60248201527f4e6f20706c6174666f726d206665657320746f207769746864726177000000006044820152fd5b5050346102335781600319360112610233576020906007549051908152f35b509034610206576020918260031936011261046057358352600582528083209281518093808654928381520195835280832092905b82821061044957610282868661043f828b038361117f565b5191829182610f88565b835487529586019560019384019390910190610427565b8380fd5b50913461059157602036600319011261059157823580151580610585575b1561054d57828260e092610282945260036020522083516104a28161114c565b81549485825260018060a01b039687600185015416978860208501526002850154168083850152600385015491826060860152850154928360808601526005860154948560a082015260ff60076006890154988960c08501520154161515978891015251988998899693909897949160e0969361010089019a895260018060a01b0380921660208a01521660408801526060870152608086015260a085015260c08401521515910152565b825162461bcd60e51b81526020818601526012602482015271125b9d985b1a59081c185e5b595b9d08125160721b6044820152606490fd5b50600654811115610482565b80fd5b503461020657602036600319011261020657909182916001600160a01b036105ba610f6d565b1682526020522090610282825491600184015493600360028201549101549151948594859094939260609260808301968352602083015260408201520152565b50346102065760203660031901126102065780359061061761102a565b6014821161066157506007805490829055915191825260208201524260408201527f50f8ab96ec41b29e295dbc21aa964857bd7ba51c554c209db631610ce392d45690606090a180f35b608490602084519162461bcd60e51b8352820152602260248201527f506c6174666f726d206665652063616e6e6f7420657863656564206d6178696d604482015261756d60f01b6064820152fd5b8284346105915781600319360112610591576106c9610f6d565b60065492906024356106da85611544565b9484926001600160a01b039081169260019283805b61073d575b50505050505061070381611544565b925b818110610719578251806102828682610f88565b806107276107389287611576565b516107328287611576565b5261113d565b610705565b8181111580610796575b1561079157808952600360205289868560028b8d2001541614610775575b5061076f9061113d565b846106ef565b878261073261076f949a61078894611576565b96905089610765565b6106f4565b50828710610747565b505034610233578160031936011261023357905490516001600160a01b039091168152602090f35b50913461059157816003193601126105915760243592358152600560205281812090815484101561059157506020926107ff91610ffc565b91905490519160031b1c8152f35b833461059157806003193601126105915761082661102a565b80546001600160a01b03198116825581906001600160a01b03167f8be0079c531659141344cd1fd0a4f28419497f9722a3daafe3b4186f6b6457e08280a380f35b5034610206576020366003190112610206576001600160a01b03610889610f6d565b1683528060205281832090825193608085019185831067ffffffffffffffff8411176108f75750508252805480845260018201546020808601829052600284015486860181905260039094015460609687018190529451928352820152604081019190915291820152608090f35b634e487b7160e01b825260419052602490fd5b50503461023357816003193601126102335760209060ff6002541690519015158152f35b50503461023357816003193601126102335760095490516001600160a01b039091168152602090f35b5091346105915760203660031901126105915782358152600360208181529183902080546001820154600283015493830154968301546005840154600685015460079095015497519384526001600160a01b0392831696840196909652931660408201526060810195909552608085019190915260a084019190915260c083015260ff16151560e082015261010090f35b50503461023357816003193601126102335760207f62e78cea01bee320cd4e420270b5ea74000d11b0c9f74754ebdbfc544b05a25891610a2661102a565b610a2e611452565b600160ff19600254161760025551338152a180f35b5090346102065760208060031936011261046057823592610a62611496565b610a6a611452565b338552808252836001848720015410610b9d57662386f26fc100008410610b4e57338552808252600183862001610aa285825461111a565b9055338552808252600283862001610abb8582546111a1565b905533855280825242600384872001558480808087335af1610adb6114ec565b5015610b195750907f2d4d49c3e017b8235c908cbaa83a2431a08f3b950712696ece2088964fd399f091815193845242908401523392a26001805580f35b915162461bcd60e51b815291820152601160248201527015da5d1a191c985dd85b0819985a5b1959607a1b6044820152606490fd5b915162461bcd60e51b815291820152602560248201527f4d696e696d756d207769746864726177616c20616d6f756e7420697320302e30604482015264062408aa8960db1b6064820152608490fd5b915162461bcd60e51b815291820152601e60248201527f496e73756666696369656e7420617661696c61626c652062616c616e636500006044820152606490fd5b5034610206578260031936011261020657610bf761102a565b6002549060ff821615610c39575060ff1916600255513381527f5db9ee0a495bf2e6ff9c91a7834c1ba4fdd244a5e8aa4e537bd38aeae4b073aa90602090a180f35b606490602084519162461bcd60e51b8352820152601460248201527314185d5cd8589b194e881b9bdd081c185d5cd95960621b6044820152fd5b5050346102335781600319360112610233576020905160148152f35b508290610c9b36610fc3565b6008549094919391906001600160a01b03163303610cf65750610cef949550610cc5841515611082565b610cda68056bc75e2d631000008511156110ce565b610ce2611452565b610cea611496565b6111ae565b6001805580f35b608490602088519162461bcd60e51b8352820152602960248201527f4f6e6c79204576656e74436f6e74726163742063616e2063616c6c207468697360448201526810333ab731ba34b7b760b91b6064820152fd5b509034610206578060031936011261020657610d65610f6d565b6001600160a01b03602435818116949290859003610e4057610d8561102a565b16918215610dfd578315610dba5750506bffffffffffffffffffffffff60a01b90816008541617600855600954161760095580f35b906020606492519162461bcd60e51b8352820152601f60248201527f496e76616c6964207469636b657420636f6e74726163742061646472657373006044820152fd5b906020606492519162461bcd60e51b8352820152601e60248201527f496e76616c6964206576656e7420636f6e7472616374206164647265737300006044820152fd5b8580fd5b83610cef610e5136610fc3565b92610e5d92919261102a565b610cc5841515611082565b828434610591578160031936011261059157610e82610f6d565b6006549290602435610e9385611544565b9484926001600160a01b039081169260019283805b610ee5575b505050505050610ebc81611544565b925b818110610ed2578251806102828682610f88565b80610727610ee09287611576565b610ebe565b8181111580610f48575b15610f43578089526003602052898685878b8d2001541614610f21575b5090610f1985939261113d565b909192610ea8565b610f378883610732899796959b610f1995611576565b97919293505089610f0c565b610ead565b50828710610eef565b8490346102335781600319360112610233576020906006548152f35b600435906001600160a01b0382168203610f8357565b600080fd5b6020908160408183019282815285518094520193019160005b828110610faf575050505090565b835185529381019392810192600101610fa1565b6080906003190112610f8357600435906001600160a01b03906024358281168103610f8357916044359081168103610f83579060643590565b80548210156110145760005260206000200190600090565b634e487b7160e01b600052603260045260246000fd5b6000546001600160a01b0316330361103e57565b606460405162461bcd60e51b815260206004820152602060248201527f4f776e61626c653a2063616c6c6572206973206e6f7420746865206f776e65726044820152fd5b1561108957565b60405162461bcd60e51b815260206004820152601d60248201527f416d6f756e74206d7573742062652067726561746572207468616e20300000006044820152606490fd5b156110d557565b60405162461bcd60e51b815260206004820152601c60248201527f416d6f756e742063616e6e6f74206578636565642031303020455448000000006044820152606490fd5b9190820391821161112757565b634e487b7160e01b600052601160045260246000fd5b60001981146111275760010190565b610100810190811067ffffffffffffffff82111761116957604052565b634e487b7160e01b600052604160045260246000fd5b90601f8019910116810190811067ffffffffffffffff82111761116957604052565b9190820180921161112757565b91929081340361140d576001600160a01b039081169384156113d057811691821561138b576007548082029082820414821517156111275760649004916111f5838361111a565b9061120160065461113d565b809581600655604092600784516112178161114c565b8a8152602081018c8152868201858152606083018a815260808401908c825260a08501928b845260c086019442865260e087019860018a5260009b8c5260036020528c8c20975188558060018901925116916bffffffffffffffffffffffff60a01b92838254161790556002880192511690825416179055516003850155516004840155516005830155516006820155019051151560ff8019835416911617905580825260046020528282206112ce8582546111a1565b9055815260046020526001828220016112e88482546111a1565b9055868152600560205281812080549168010000000000000000831015611377575091611342826113729460017f768c2afece4bba0e29315be57972444b2ec1ccf51a6e8f0617536baaddb4ff4499989795018155610ffc565b81549060031b9089821b91600019901b191617905551938493846040919493926060820195825260208201520152565b0390a4565b634e487b7160e01b81526041600452602490fd5b60405162461bcd60e51b815260206004820152601960248201527f496e76616c6964206f7267616e697a65722061646472657373000000000000006044820152606490fd5b60405162461bcd60e51b8152602060048201526015602482015274496e76616c6964207061796572206164647265737360581b6044820152606490fd5b60405162461bcd60e51b815260206004820152601860248201527f496e636f7272656374207061796d656e7420616d6f756e7400000000000000006044820152606490fd5b60ff6002541661145e57565b60405162461bcd60e51b815260206004820152601060248201526f14185d5cd8589b194e881c185d5cd95960821b6044820152606490fd5b6002600154146114a7576002600155565b60405162461bcd60e51b815260206004820152601f60248201527f5265656e7472616e637947756172643a207265656e7472616e742063616c6c006044820152606490fd5b3d15611527573d9067ffffffffffffffff8211611169576040519161151b601f8201601f19166020018461117f565b82523d6000602084013e565b606090565b67ffffffffffffffff81116111695760051b60200190565b9061154e8261152c565b61155b604051918261117f565b828152809261156c601f199161152c565b0190602036910137565b80518210156110145760209160051b01019056fea2646970667358221220e3a2c0a3cf0ce34629f0dc06664a9ffab76ad1c5e4a64130a7b2da3ce13aaa0764736f6c63430008130033","opcodes":"PUSH1 0x80 CALLVALUE PUSH2 0x170 JUMPI PUSH1 0x1F PUSH3 0x1760 CODESIZE DUP2 SWAP1 SUB SWAP2 DUP3 ADD PUSH1 0x1F NOT AND DUP4 ADD SWAP2 PUSH1 0x1 PUSH1 0x1 PUSH1 0x40 SHL SUB DUP4 GT DUP5 DUP5 LT OR PUSH2 0x175 JUMPI DUP1 DUP5 SWAP3 PUSH1 0x40 SWAP5 DUP6 MSTORE DUP4 CODECOPY DUP2 ADD SUB SLT PUSH2 0x170 JUMPI PUSH2 0x53 PUSH1 0x20 PUSH2 0x4C DUP4 PUSH2 0x18B JUMP JUMPDEST SWAP3 ADD PUSH2 0x18B JUMP JUMPDEST PUSH1 0x0 DUP1 SLOAD CALLER PUSH1 0x1 PUSH1 0x1 PUSH1 0xA0 SHL SUB NOT DUP1 DUP4 AND DUP3 OR DUP5 SSTORE PUSH1 0x40 MLOAD SWAP6 SWAP1 SWAP5 PUSH1 0x1 PUSH1 0x1 PUSH1 0xA0 SHL SUB SWAP5 SWAP1 SWAP4 DUP6 SWAP4 SWAP2 SWAP1 DUP5 AND SWAP1 PUSH32 0x8BE0079C531659141344CD1FD0A4F28419497F9722A3DAAFE3B4186F6B6457E0 SWAP1 DUP1 LOG3 PUSH1 0x1 DUP1 SSTORE PUSH1 0xFF NOT PUSH1 0x2 SLOAD AND PUSH1 0x2 SSTORE PUSH1 0x5 PUSH1 0x7 SSTORE AND SWAP4 DUP5 ISZERO PUSH2 0x12E JUMPI POP AND SWAP2 DUP3 ISZERO PUSH2 0xE9 JUMPI DUP2 PUSH1 0x8 SLOAD AND OR PUSH1 0x8 SSTORE PUSH1 0x9 SLOAD AND OR PUSH1 0x9 SSTORE PUSH1 0x40 MLOAD PUSH2 0x15C0 SWAP1 DUP2 PUSH3 0x1A0 DUP3 CODECOPY RETURN JUMPDEST PUSH1 0x40 MLOAD PUSH3 0x461BCD PUSH1 0xE5 SHL DUP2 MSTORE PUSH1 0x20 PUSH1 0x4 DUP3 ADD MSTORE PUSH1 0x1F PUSH1 0x24 DUP3 ADD MSTORE PUSH32 0x496E76616C6964207469636B657420636F6E7472616374206164647265737300 PUSH1 0x44 DUP3 ADD MSTORE PUSH1 0x64 SWAP1 REVERT JUMPDEST PUSH3 0x461BCD PUSH1 0xE5 SHL DUP2 MSTORE PUSH1 0x20 PUSH1 0x4 DUP3 ADD MSTORE PUSH1 0x1E PUSH1 0x24 DUP3 ADD MSTORE PUSH32 0x496E76616C6964206576656E7420636F6E747261637420616464726573730000 PUSH1 0x44 DUP3 ADD MSTORE PUSH1 0x64 SWAP1 REVERT JUMPDEST PUSH1 0x0 DUP1 REVERT JUMPDEST PUSH4 0x4E487B71 PUSH1 0xE0 SHL PUSH1 0x0 MSTORE PUSH1 0x41 PUSH1 0x4 MSTORE PUSH1 0x24 PUSH1 0x0 REVERT JUMPDEST MLOAD SWAP1 PUSH1 0x1 PUSH1 0x1 PUSH1 0xA0 SHL SUB DUP3 AND DUP3 SUB PUSH2 0x170 JUMPI JUMP INVALID PUSH1 0x80 PUSH1 0x40 DUP2 DUP2 MSTORE PUSH1 0x4 DUP1 CALLDATASIZE LT ISZERO PUSH2 0x1E JUMPI JUMPDEST POP POP POP CALLDATASIZE ISZERO PUSH2 0x1C JUMPI STOP JUMPDEST STOP JUMPDEST PUSH1 0x0 SWAP3 DUP4 CALLDATALOAD PUSH1 0xE0 SHR SWAP1 DUP2 PUSH4 0x937E68A EQ PUSH2 0xF51 JUMPI POP DUP1 PUSH4 0xB2BAD5F EQ PUSH2 0xE68 JUMPI DUP1 PUSH4 0x127369EA EQ PUSH2 0xE44 JUMPI DUP1 PUSH4 0x1FF6DC5B EQ PUSH2 0xD4B JUMPI DUP1 PUSH4 0x3279C411 EQ PUSH2 0xC8F JUMPI DUP1 PUSH4 0x3998A681 EQ PUSH2 0xC73 JUMPI DUP1 PUSH4 0x4A4E3BD5 EQ PUSH2 0xBDE JUMPI DUP1 PUSH4 0x50F417B5 EQ PUSH2 0xA43 JUMPI DUP1 PUSH4 0x51858E27 EQ PUSH2 0x9E8 JUMPI DUP1 PUSH4 0x5691FE63 EQ PUSH2 0x957 JUMPI DUP1 PUSH4 0x58A86E1D EQ PUSH2 0x92E JUMPI DUP1 PUSH4 0x5C975ABB EQ PUSH2 0x90A JUMPI DUP1 PUSH4 0x61436532 EQ PUSH2 0x867 JUMPI DUP1 PUSH4 0x715018A6 EQ PUSH2 0x80D JUMPI DUP1 PUSH4 0x798929E4 EQ PUSH2 0x7C7 JUMPI DUP1 PUSH4 0x8DA5CB5B EQ PUSH2 0x79F JUMPI DUP1 PUSH4 0x9113E89B EQ PUSH2 0x6AF JUMPI DUP1 PUSH4 0xAA0B5988 EQ PUSH2 0x5FA JUMPI DUP1 PUSH4 0xB0380578 EQ PUSH2 0x594 JUMPI DUP1 PUSH4 0xC1D446BE EQ PUSH2 0x464 JUMPI DUP1 PUSH4 0xCB5847D0 EQ PUSH2 0x3F2 JUMPI DUP1 PUSH4 0xCDD78CFC EQ PUSH2 0x3D3 JUMPI DUP1 PUSH4 0xD0B7830B EQ PUSH2 0x2C8 JUMPI DUP1 PUSH4 0xDFE6B5D6 EQ PUSH2 0x237 JUMPI DUP1 PUSH4 0xE274FD24 EQ PUSH2 0x20A JUMPI PUSH4 0xF2FDE38B SUB PUSH2 0x11 JUMPI CALLVALUE PUSH2 0x206 JUMPI PUSH1 0x20 CALLDATASIZE PUSH1 0x3 NOT ADD SLT PUSH2 0x206 JUMPI PUSH2 0x15E PUSH2 0xF6D JUMP JUMPDEST SWAP1 PUSH2 0x167 PUSH2 0x102A JUMP JUMPDEST PUSH1 0x1 PUSH1 0x1 PUSH1 0xA0 SHL SUB SWAP2 DUP3 AND SWAP3 DUP4 ISZERO PUSH2 0x1B4 JUMPI POP POP DUP3 SLOAD PUSH1 0x1 PUSH1 0x1 PUSH1 0xA0 SHL SUB NOT DUP2 AND DUP4 OR DUP5 SSTORE AND PUSH32 0x8BE0079C531659141344CD1FD0A4F28419497F9722A3DAAFE3B4186F6B6457E0 DUP4 DUP1 LOG3 DUP1 RETURN JUMPDEST SWAP1 PUSH1 0x20 PUSH1 0x84 SWAP3 MLOAD SWAP2 PUSH3 0x461BCD PUSH1 0xE5 SHL DUP4 MSTORE DUP3 ADD MSTORE PUSH1 0x26 PUSH1 0x24 DUP3 ADD MSTORE PUSH32 0x4F776E61626C653A206E6577206F776E657220697320746865207A65726F2061 PUSH1 0x44 DUP3 ADD MSTORE PUSH6 0x646472657373 PUSH1 0xD0 SHL PUSH1 0x64 DUP3 ADD MSTORE REVERT JUMPDEST DUP3 DUP1 REVERT JUMPDEST POP POP CALLVALUE PUSH2 0x233 JUMPI DUP2 PUSH1 0x3 NOT CALLDATASIZE ADD SLT PUSH2 0x233 JUMPI PUSH1 0x8 SLOAD SWAP1 MLOAD PUSH1 0x1 PUSH1 0x1 PUSH1 0xA0 SHL SUB SWAP1 SWAP2 AND DUP2 MSTORE PUSH1 0x20 SWAP1 RETURN JUMPDEST POP DUP1 REVERT JUMPDEST POP SWAP2 SWAP1 CALLVALUE PUSH2 0x233 JUMPI DUP2 PUSH1 0x3 NOT CALLDATASIZE ADD SLT PUSH2 0x233 JUMPI DUP2 SWAP3 SWAP2 SWAP3 DUP1 PUSH1 0x1 SWAP1 PUSH1 0x6 SLOAD SWAP5 JUMPDEST DUP6 DUP4 GT ISZERO PUSH2 0x286 JUMPI POP POP SWAP2 MLOAD SWAP3 DUP4 MSTORE PUSH1 0x20 DUP4 ADD SWAP4 SWAP1 SWAP4 MSTORE POP PUSH1 0x40 DUP2 ADD SWAP2 SWAP1 SWAP2 MSTORE SELFBALANCE PUSH1 0x60 DUP3 ADD MSTORE PUSH1 0x80 SWAP1 RETURN JUMPDEST SUB SWAP1 RETURN JUMPDEST SWAP1 SWAP2 SWAP3 PUSH2 0x2BB PUSH2 0x2C1 SWAP2 DUP6 DUP6 MSTORE PUSH1 0x3 PUSH2 0x2AA PUSH1 0x20 SWAP11 DUP3 DUP13 MSTORE DUP3 DUP11 DUP10 KECCAK256 ADD SLOAD SWAP1 PUSH2 0x11A1 JUMP JUMPDEST SWAP10 DUP8 DUP8 MSTORE MSTORE DUP4 DUP8 DUP7 KECCAK256 ADD SLOAD SWAP1 PUSH2 0x11A1 JUMP JUMPDEST SWAP4 PUSH2 0x113D JUMP JUMPDEST SWAP2 SWAP1 PUSH2 0x257 JUMP JUMPDEST POP SWAP1 CALLVALUE PUSH2 0x206 JUMPI DUP3 PUSH1 0x3 NOT CALLDATASIZE ADD SLT PUSH2 0x206 JUMPI PUSH2 0x2E2 PUSH2 0x102A JUMP JUMPDEST PUSH2 0x2EA PUSH2 0x1496 JUMP JUMPDEST SELFBALANCE SWAP2 DUP3 ISZERO PUSH2 0x391 JUMPI PUSH1 0x1 DUP1 PUSH1 0xA0 SHL SUB SWAP1 DUP5 DUP1 DUP1 DUP1 DUP8 DUP7 DUP3 SLOAD AND GAS CALL PUSH2 0x30D PUSH2 0x14EC JUMP JUMPDEST POP ISZERO PUSH2 0x34E JUMPI POP SWAP1 PUSH32 0x56DA9A5AE0BCF6E7C3FDD78A10550E7D0458DE1C39BFB7F6E96A3E92DD344A68 SWAP2 DUP5 SLOAD AND SWAP3 DUP2 MLOAD SWAP1 DUP2 MSTORE TIMESTAMP PUSH1 0x20 DUP3 ADD MSTORE LOG2 PUSH1 0x1 DUP1 SSTORE DUP1 RETURN JUMPDEST PUSH1 0x64 SWAP1 PUSH1 0x20 DUP5 MLOAD SWAP2 PUSH3 0x461BCD PUSH1 0xE5 SHL DUP4 MSTORE DUP3 ADD MSTORE PUSH1 0x1E PUSH1 0x24 DUP3 ADD MSTORE PUSH32 0x506C6174666F726D20666565207769746864726177616C206661696C65640000 PUSH1 0x44 DUP3 ADD MSTORE REVERT JUMPDEST PUSH1 0x20 PUSH1 0x64 SWAP3 MLOAD SWAP2 PUSH3 0x461BCD PUSH1 0xE5 SHL DUP4 MSTORE DUP3 ADD MSTORE PUSH1 0x1C PUSH1 0x24 DUP3 ADD MSTORE PUSH32 0x4E6F20706C6174666F726D206665657320746F20776974686472617700000000 PUSH1 0x44 DUP3 ADD MSTORE REVERT JUMPDEST POP POP CALLVALUE PUSH2 0x233 JUMPI DUP2 PUSH1 0x3 NOT CALLDATASIZE ADD SLT PUSH2 0x233 JUMPI PUSH1 0x20 SWAP1 PUSH1 0x7 SLOAD SWAP1 MLOAD SWAP1 DUP2 MSTORE RETURN JUMPDEST POP SWAP1 CALLVALUE PUSH2 0x206 JUMPI PUSH1 0x20 SWAP2 DUP3 PUSH1 0x3 NOT CALLDATASIZE ADD SLT PUSH2 0x460 JUMPI CALLDATALOAD DUP4 MSTORE PUSH1 0x5 DUP3 MSTORE DUP1 DUP4 KECCAK256 SWAP3 DUP2 MLOAD DUP1 SWAP4 DUP1 DUP7 SLOAD SWAP3 DUP4 DUP2 MSTORE ADD SWAP6 DUP4 MSTORE DUP1 DUP4 KECCAK256 SWAP3 SWAP1 JUMPDEST DUP3 DUP3 LT PUSH2 0x449 JUMPI PUSH2 0x282 DUP7 DUP7 PUSH2 0x43F DUP3 DUP12 SUB DUP4 PUSH2 0x117F JUMP JUMPDEST MLOAD SWAP2 DUP3 SWAP2 DUP3 PUSH2 0xF88 JUMP JUMPDEST DUP4 SLOAD DUP8 MSTORE SWAP6 DUP7 ADD SWAP6 PUSH1 0x1 SWAP4 DUP5 ADD SWAP4 SWAP1 SWAP2 ADD SWAP1 PUSH2 0x427 JUMP JUMPDEST DUP4 DUP1 REVERT JUMPDEST POP SWAP2 CALLVALUE PUSH2 0x591 JUMPI PUSH1 0x20 CALLDATASIZE PUSH1 0x3 NOT ADD SLT PUSH2 0x591 JUMPI DUP3 CALLDATALOAD DUP1 ISZERO ISZERO DUP1 PUSH2 0x585 JUMPI JUMPDEST ISZERO PUSH2 0x54D JUMPI DUP3 DUP3 PUSH1 0xE0 SWAP3 PUSH2 0x282 SWAP5 MSTORE PUSH1 0x3 PUSH1 0x20 MSTORE KECCAK256 DUP4 MLOAD PUSH2 0x4A2 DUP2 PUSH2 0x114C JUMP JUMPDEST DUP2 SLOAD SWAP5 DUP6 DUP3 MSTORE PUSH1 0x1 DUP1 PUSH1 0xA0 SHL SUB SWAP7 DUP8 PUSH1 0x1 DUP6 ADD SLOAD AND SWAP8 DUP9 PUSH1 0x20 DUP6 ADD MSTORE PUSH1 0x2 DUP6 ADD SLOAD AND DUP1 DUP4 DUP6 ADD MSTORE PUSH1 0x3 DUP6 ADD SLOAD SWAP2 DUP3 PUSH1 0x60 DUP7 ADD MSTORE DUP6 ADD SLOAD SWAP3 DUP4 PUSH1 0x80 DUP7 ADD MSTORE PUSH1 0x5 DUP7 ADD SLOAD SWAP5 DUP6 PUSH1 0xA0 DUP3 ADD MSTORE PUSH1 0xFF PUSH1 0x7 PUSH1 0x6 DUP10 ADD SLOAD SWAP9 DUP10 PUSH1 0xC0 DUP6 ADD MSTORE ADD SLOAD AND ISZERO ISZERO SWAP8 DUP9 SWAP2 ADD MSTORE MLOAD SWAP9 DUP10 SWAP9 DUP10 SWAP7 SWAP4 SWAP1 SWAP9 SWAP8 SWAP5 SWAP2 PUSH1 0xE0 SWAP7 SWAP4 PUSH2 0x100 DUP10 ADD SWAP11 DUP10 MSTORE PUSH1 0x1 DUP1 PUSH1 0xA0 SHL SUB DUP1 SWAP3 AND PUSH1 0x20 DUP11 ADD MSTORE AND PUSH1 0x40 DUP9 ADD MSTORE PUSH1 0x60 DUP8 ADD MSTORE PUSH1 0x80 DUP7 ADD MSTORE PUSH1 0xA0 DUP6 ADD MSTORE PUSH1 0xC0 DUP5 ADD MSTORE ISZERO ISZERO SWAP2 ADD MSTORE JUMP JUMPDEST DUP3 MLOAD PUSH3 0x461BCD PUSH1 0xE5 SHL DUP2 MSTORE PUSH1 0x20 DUP2 DUP7 ADD MSTORE PUSH1 0x12 PUSH1 0x24 DUP3 ADD MSTORE PUSH18 0x125B9D985B1A59081C185E5B595B9D081251 PUSH1 0x72 SHL PUSH1 0x44 DUP3 ADD MSTORE PUSH1 0x64 SWAP1 REVERT JUMPDEST POP PUSH1 0x6 SLOAD DUP2 GT ISZERO PUSH2 0x482 JUMP JUMPDEST DUP1 REVERT JUMPDEST POP CALLVALUE PUSH2 0x206 JUMPI PUSH1 0x20 CALLDATASIZE PUSH1 0x3 NOT ADD SLT PUSH2 0x206 JUMPI SWAP1 SWAP2 DUP3 SWAP2 PUSH1 0x1 PUSH1 0x1 PUSH1 0xA0 SHL SUB PUSH2 0x5BA PUSH2 0xF6D JUMP JUMPDEST AND DUP3 MSTORE PUSH1 0x20 MSTORE KECCAK256 SWAP1 PUSH2 0x282 DUP3 SLOAD SWAP2 PUSH1 0x1 DUP5 ADD SLOAD SWAP4 PUSH1 0x3 PUSH1 0x2 DUP3 ADD SLOAD SWAP2 ADD SLOAD SWAP2 MLOAD SWAP5 DUP6 SWAP5 DUP6 SWAP1 SWAP5 SWAP4 SWAP3 PUSH1 0x60 SWAP3 PUSH1 0x80 DUP4 ADD SWAP7 DUP4 MSTORE PUSH1 0x20 DUP4 ADD MSTORE PUSH1 0x40 DUP3 ADD MSTORE ADD MSTORE JUMP JUMPDEST POP CALLVALUE PUSH2 0x206 JUMPI PUSH1 0x20 CALLDATASIZE PUSH1 0x3 NOT ADD SLT PUSH2 0x206 JUMPI DUP1 CALLDATALOAD SWAP1 PUSH2 0x617 PUSH2 0x102A JUMP JUMPDEST PUSH1 0x14 DUP3 GT PUSH2 0x661 JUMPI POP PUSH1 0x7 DUP1 SLOAD SWAP1 DUP3 SWAP1 SSTORE SWAP2 MLOAD SWAP2 DUP3 MSTORE PUSH1 0x20 DUP3 ADD MSTORE TIMESTAMP PUSH1 0x40 DUP3 ADD MSTORE PUSH32 0x50F8AB96EC41B29E295DBC21AA964857BD7BA51C554C209DB631610CE392D456 SWAP1 PUSH1 0x60 SWAP1 LOG1 DUP1 RETURN JUMPDEST PUSH1 0x84 SWAP1 PUSH1 0x20 DUP5 MLOAD SWAP2 PUSH3 0x461BCD PUSH1 0xE5 SHL DUP4 MSTORE DUP3 ADD MSTORE PUSH1 0x22 PUSH1 0x24 DUP3 ADD MSTORE PUSH32 0x506C6174666F726D206665652063616E6E6F7420657863656564206D6178696D PUSH1 0x44 DUP3 ADD MSTORE PUSH2 0x756D PUSH1 0xF0 SHL PUSH1 0x64 DUP3 ADD MSTORE REVERT JUMPDEST DUP3 DUP5 CALLVALUE PUSH2 0x591 JUMPI DUP2 PUSH1 0x3 NOT CALLDATASIZE ADD SLT PUSH2 0x591 JUMPI PUSH2 0x6C9 PUSH2 0xF6D JUMP JUMPDEST PUSH1 0x6 SLOAD SWAP3 SWAP1 PUSH1 0x24 CALLDATALOAD PUSH2 0x6DA DUP6 PUSH2 0x1544 JUMP JUMPDEST SWAP5 DUP5 SWAP3 PUSH1 0x1 PUSH1 0x1 PUSH1 0xA0 SHL SUB SWAP1 DUP2 AND SWAP3 PUSH1 0x1 SWAP3 DUP4 DUP1 JUMPDEST PUSH2 0x73D JUMPI JUMPDEST POP POP POP POP POP POP PUSH2 0x703 DUP2 PUSH2 0x1544 JUMP JUMPDEST SWAP3 JUMPDEST DUP2 DUP2 LT PUSH2 0x719 JUMPI DUP3 MLOAD DUP1 PUSH2 0x282 DUP7 DUP3 PUSH2 0xF88 JUMP JUMPDEST DUP1 PUSH2 0x727 PUSH2 0x738 SWAP3 DUP8 PUSH2 0x1576 JUMP JUMPDEST MLOAD PUSH2 0x732 DUP3 DUP8 PUSH2 0x1576 JUMP JUMPDEST MSTORE PUSH2 0x113D JUMP JUMPDEST PUSH2 0x705 JUMP JUMPDEST DUP2 DUP2 GT ISZERO DUP1 PUSH2 0x796 JUMPI JUMPDEST ISZERO PUSH2 0x791 JUMPI DUP1 DUP10 MSTORE PUSH1 0x3 PUSH1 0x20 MSTORE DUP10 DUP7 DUP6 PUSH1 0x2 DUP12 DUP14 KECCAK256 ADD SLOAD AND EQ PUSH2 0x775 JUMPI JUMPDEST POP PUSH2 0x76F SWAP1 PUSH2 0x113D JUMP JUMPDEST DUP5 PUSH2 0x6EF JUMP JUMPDEST DUP8 DUP3 PUSH2 0x732 PUSH2 0x76F SWAP5 SWAP11 PUSH2 0x788 SWAP5 PUSH2 0x1576 JUMP JUMPDEST SWAP7 SWAP1 POP DUP10 PUSH2 0x765 JUMP JUMPDEST PUSH2 0x6F4 JUMP JUMPDEST POP DUP3 DUP8 LT PUSH2 0x747 JUMP JUMPDEST POP POP CALLVALUE PUSH2 0x233 JUMPI DUP2 PUSH1 0x3 NOT CALLDATASIZE ADD SLT PUSH2 0x233 JUMPI SWAP1 SLOAD SWAP1 MLOAD PUSH1 0x1 PUSH1 0x1 PUSH1 0xA0 SHL SUB SWAP1 SWAP2 AND DUP2 MSTORE PUSH1 0x20 SWAP1 RETURN JUMPDEST POP SWAP2 CALLVALUE PUSH2 0x591 JUMPI DUP2 PUSH1 0x3 NOT CALLDATASIZE ADD SLT PUSH2 0x591 JUMPI PUSH1 0x24 CALLDATALOAD SWAP3 CALLDATALOAD DUP2 MSTORE PUSH1 0x5 PUSH1 0x20 MSTORE DUP2 DUP2 KECCAK256 SWAP1 DUP2 SLOAD DUP5 LT ISZERO PUSH2 0x591 JUMPI POP PUSH1 0x20 SWAP3 PUSH2 0x7FF SWAP2 PUSH2 0xFFC JUMP JUMPDEST SWAP2 SWAP1 SLOAD SWAP1 MLOAD SWAP2 PUSH1 0x3 SHL SHR DUP2 MSTORE RETURN JUMPDEST DUP4 CALLVALUE PUSH2 0x591 JUMPI DUP1 PUSH1 0x3 NOT CALLDATASIZE ADD SLT PUSH2 0x591 JUMPI PUSH2 0x826 PUSH2 0x102A JUMP JUMPDEST DUP1 SLOAD PUSH1 0x1 PUSH1 0x1 PUSH1 0xA0 SHL SUB NOT DUP2 AND DUP3 SSTORE DUP2 SWAP1 PUSH1 0x1 PUSH1 0x1 PUSH1 0xA0 SHL SUB AND PUSH32 0x8BE0079C531659141344CD1FD0A4F28419497F9722A3DAAFE3B4186F6B6457E0 DUP3 DUP1 LOG3 DUP1 RETURN JUMPDEST POP CALLVALUE PUSH2 0x206 JUMPI PUSH1 0x20 CALLDATASIZE PUSH1 0x3 NOT ADD SLT PUSH2 0x206 JUMPI PUSH1 0x1 PUSH1 0x1 PUSH1 0xA0 SHL SUB PUSH2 0x889 PUSH2 0xF6D JUMP JUMPDEST AND DUP4 MSTORE DUP1 PUSH1 0x20 MSTORE DUP2 DUP4 KECCAK256 SWAP1 DUP3 MLOAD SWAP4 PUSH1 0x80 DUP6 ADD SWAP2 DUP6 DUP4 LT PUSH8 0xFFFFFFFFFFFFFFFF DUP5 GT OR PUSH2 0x8F7 JUMPI POP POP DUP3 MSTORE DUP1 SLOAD DUP1 DUP5 MSTORE PUSH1 0x1 DUP3 ADD SLOAD PUSH1 0x20 DUP1 DUP7 ADD DUP3 SWAP1 MSTORE PUSH1 0x2 DUP5 ADD SLOAD DUP7 DUP7 ADD DUP2 SWAP1 MSTORE PUSH1 0x3 SWAP1 SWAP5 ADD SLOAD PUSH1 0x60 SWAP7 DUP8 ADD DUP2 SWAP1 MSTORE SWAP5 MLOAD SWAP3 DUP4 MSTORE DUP3 ADD MSTORE PUSH1 0x40 DUP2 ADD SWAP2 SWAP1 SWAP2 MSTORE SWAP2 DUP3 ADD MSTORE PUSH1 0x80 SWAP1 RETURN JUMPDEST PUSH4 0x4E487B71 PUSH1 0xE0 SHL DUP3 MSTORE PUSH1 0x41 SWAP1 MSTORE PUSH1 0x24 SWAP1 REVERT JUMPDEST POP POP CALLVALUE PUSH2 0x233 JUMPI DUP2 PUSH1 0x3 NOT CALLDATASIZE ADD SLT PUSH2 0x233 JUMPI PUSH1 0x20 SWAP1 PUSH1 0xFF PUSH1 0x2 SLOAD AND SWAP1 MLOAD SWAP1 ISZERO ISZERO DUP2 MSTORE RETURN JUMPDEST POP POP CALLVALUE PUSH2 0x233 JUMPI DUP2 PUSH1 0x3 NOT CALLDATASIZE ADD SLT PUSH2 0x233 JUMPI PUSH1 0x9 SLOAD SWAP1 MLOAD PUSH1 0x1 PUSH1 0x1 PUSH1 0xA0 SHL SUB SWAP1 SWAP2 AND DUP2 MSTORE PUSH1 0x20 SWAP1 RETURN JUMPDEST POP SWAP2 CALLVALUE PUSH2 0x591 JUMPI PUSH1 0x20 CALLDATASIZE PUSH1 0x3 NOT ADD SLT PUSH2 0x591 JUMPI DUP3 CALLDATALOAD DUP2 MSTORE PUSH1 0x3 PUSH1 0x20 DUP2 DUP2 MSTORE SWAP2 DUP4 SWAP1 KECCAK256 DUP1 SLOAD PUSH1 0x1 DUP3 ADD SLOAD PUSH1 0x2 DUP4 ADD SLOAD SWAP4 DUP4 ADD SLOAD SWAP7 DUP4 ADD SLOAD PUSH1 0x5 DUP5 ADD SLOAD PUSH1 0x6 DUP6 ADD SLOAD PUSH1 0x7 SWAP1 SWAP6 ADD SLOAD SWAP8 MLOAD SWAP4 DUP5 MSTORE PUSH1 0x1 PUSH1 0x1 PUSH1 0xA0 SHL SUB SWAP3 DUP4 AND SWAP7 DUP5 ADD SWAP7 SWAP1 SWAP7 MSTORE SWAP4 AND PUSH1 0x40 DUP3 ADD MSTORE PUSH1 0x60 DUP2 ADD SWAP6 SWAP1 SWAP6 MSTORE PUSH1 0x80 DUP6 ADD SWAP2 SWAP1 SWAP2 MSTORE PUSH1 0xA0 DUP5 ADD SWAP2 SWAP1 SWAP2 MSTORE PUSH1 0xC0 DUP4 ADD MSTORE PUSH1 0xFF AND ISZERO ISZERO PUSH1 0xE0 DUP3 ADD MSTORE PUSH2 0x100 SWAP1 RETURN JUMPDEST POP POP CALLVALUE PUSH2 0x233 JUMPI DUP2 PUSH1 0x3 NOT CALLDATASIZE ADD SLT PUSH2 0x233 JUMPI PUSH1 0x20 PUSH32 0x62E78CEA01BEE320CD4E420270B5EA74000D11B0C9F74754EBDBFC544B05A258 SWAP2 PUSH2 0xA26 PUSH2 0x102A JUMP JUMPDEST PUSH2 0xA2E PUSH2 0x1452 JUMP JUMPDEST PUSH1 0x1 PUSH1 0xFF NOT PUSH1 0x2 SLOAD AND OR PUSH1 0x2 SSTORE MLOAD CALLER DUP2 MSTORE LOG1 DUP1 RETURN JUMPDEST POP SWAP1 CALLVALUE PUSH2 0x206 JUMPI PUSH1 0x20 DUP1 PUSH1 0x3 NOT CALLDATASIZE ADD SLT PUSH2 0x460 JUMPI DUP3 CALLDATALOAD SWAP3 PUSH2 0xA62 PUSH2 0x1496 JUMP JUMPDEST PUSH2 0xA6A PUSH2 0x1452 JUMP JUMPDEST CALLER DUP6 MSTORE DUP1 DUP3 MSTORE DUP4 PUSH1 0x1 DUP5 DUP8 KECCAK256 ADD SLOAD LT PUSH2 0xB9D JUMPI PUSH7 0x2386F26FC10000 DUP5 LT PUSH2 0xB4E JUMPI CALLER DUP6 MSTORE DUP1 DUP3 MSTORE PUSH1 0x1 DUP4 DUP7 KECCAK256 ADD PUSH2 0xAA2 DUP6 DUP3 SLOAD PUSH2 0x111A JUMP JUMPDEST SWAP1 SSTORE CALLER DUP6 MSTORE DUP1 DUP3 MSTORE PUSH1 0x2 DUP4 DUP7 KECCAK256 ADD PUSH2 0xABB DUP6 DUP3 SLOAD PUSH2 0x11A1 JUMP JUMPDEST SWAP1 SSTORE CALLER DUP6 MSTORE DUP1 DUP3 MSTORE TIMESTAMP PUSH1 0x3 DUP5 DUP8 KECCAK256 ADD SSTORE DUP5 DUP1 DUP1 DUP1 DUP8 CALLER GAS CALL PUSH2 0xADB PUSH2 0x14EC JUMP JUMPDEST POP ISZERO PUSH2 0xB19 JUMPI POP SWAP1 PUSH32 0x2D4D49C3E017B8235C908CBAA83A2431A08F3B950712696ECE2088964FD399F0 SWAP2 DUP2 MLOAD SWAP4 DUP5 MSTORE TIMESTAMP SWAP1 DUP5 ADD MSTORE CALLER SWAP3 LOG2 PUSH1 0x1 DUP1 SSTORE DUP1 RETURN JUMPDEST SWAP2 MLOAD PUSH3 0x461BCD PUSH1 0xE5 SHL DUP2 MSTORE SWAP2 DUP3 ADD MSTORE PUSH1 0x11 PUSH1 0x24 DUP3 ADD MSTORE PUSH17 0x15DA5D1A191C985DD85B0819985A5B1959 PUSH1 0x7A SHL PUSH1 0x44 DUP3 ADD MSTORE PUSH1 0x64 SWAP1 REVERT JUMPDEST SWAP2 MLOAD PUSH3 0x461BCD PUSH1 0xE5 SHL DUP2 MSTORE SWAP2 DUP3 ADD MSTORE PUSH1 0x25 PUSH1 0x24 DUP3 ADD MSTORE PUSH32 0x4D696E696D756D207769746864726177616C20616D6F756E7420697320302E30 PUSH1 0x44 DUP3 ADD MSTORE PUSH5 0x62408AA89 PUSH1 0xDB SHL PUSH1 0x64 DUP3 ADD MSTORE PUSH1 0x84 SWAP1 REVERT JUMPDEST SWAP2 MLOAD PUSH3 0x461BCD PUSH1 0xE5 SHL DUP2 MSTORE SWAP2 DUP3 ADD MSTORE PUSH1 0x1E PUSH1 0x24 DUP3 ADD MSTORE PUSH32 0x496E73756666696369656E7420617661696C61626C652062616C616E63650000 PUSH1 0x44 DUP3 ADD MSTORE PUSH1 0x64 SWAP1 REVERT JUMPDEST POP CALLVALUE PUSH2 0x206 JUMPI DUP3 PUSH1 0x3 NOT CALLDATASIZE ADD SLT PUSH2 0x206 JUMPI PUSH2 0xBF7 PUSH2 0x102A JUMP JUMPDEST PUSH1 0x2 SLOAD SWAP1 PUSH1 0xFF DUP3 AND ISZERO PUSH2 0xC39 JUMPI POP PUSH1 0xFF NOT AND PUSH1 0x2 SSTORE MLOAD CALLER DUP2 MSTORE PUSH32 0x5DB9EE0A495BF2E6FF9C91A7834C1BA4FDD244A5E8AA4E537BD38AEAE4B073AA SWAP1 PUSH1 0x20 SWAP1 LOG1 DUP1 RETURN JUMPDEST PUSH1 0x64 SWAP1 PUSH1 0x20 DUP5 MLOAD SWAP2 PUSH3 0x461BCD PUSH1 0xE5 SHL DUP4 MSTORE DUP3 ADD MSTORE PUSH1 0x14 PUSH1 0x24 DUP3 ADD MSTORE PUSH20 0x14185D5CD8589B194E881B9BDD081C185D5CD959 PUSH1 0x62 SHL PUSH1 0x44 DUP3 ADD MSTORE REVERT JUMPDEST POP POP CALLVALUE PUSH2 0x233 JUMPI DUP2 PUSH1 0x3 NOT CALLDATASIZE ADD SLT PUSH2 0x233 JUMPI PUSH1 0x20 SWAP1 MLOAD PUSH1 0x14 DUP2 MSTORE RETURN JUMPDEST POP DUP3 SWAP1 PUSH2 0xC9B CALLDATASIZE PUSH2 0xFC3 JUMP JUMPDEST PUSH1 0x8 SLOAD SWAP1 SWAP5 SWAP2 SWAP4 SWAP2 SWAP1 PUSH1 0x1 PUSH1 0x1 PUSH1 0xA0 SHL SUB AND CALLER SUB PUSH2 0xCF6 JUMPI POP PUSH2 0xCEF SWAP5 SWAP6 POP PUSH2 0xCC5 DUP5 ISZERO ISZERO PUSH2 0x1082 JUMP JUMPDEST PUSH2 0xCDA PUSH9 0x56BC75E2D63100000 DUP6 GT ISZERO PUSH2 0x10CE JUMP JUMPDEST PUSH2 0xCE2 PUSH2 0x1452 JUMP JUMPDEST PUSH2 0xCEA PUSH2 0x1496 JUMP JUMPDEST PUSH2 0x11AE JUMP JUMPDEST PUSH1 0x1 DUP1 SSTORE DUP1 RETURN JUMPDEST PUSH1 0x84 SWAP1 PUSH1 0x20 DUP9 MLOAD SWAP2 PUSH3 0x461BCD PUSH1 0xE5 SHL DUP4 MSTORE DUP3 ADD MSTORE PUSH1 0x29 PUSH1 0x24 DUP3 ADD MSTORE PUSH32 0x4F6E6C79204576656E74436F6E74726163742063616E2063616C6C2074686973 PUSH1 0x44 DUP3 ADD MSTORE PUSH9 0x10333AB731BA34B7B7 PUSH1 0xB9 SHL PUSH1 0x64 DUP3 ADD MSTORE REVERT JUMPDEST POP SWAP1 CALLVALUE PUSH2 0x206 JUMPI DUP1 PUSH1 0x3 NOT CALLDATASIZE ADD SLT PUSH2 0x206 JUMPI PUSH2 0xD65 PUSH2 0xF6D JUMP JUMPDEST PUSH1 0x1 PUSH1 0x1 PUSH1 0xA0 SHL SUB PUSH1 0x24 CALLDATALOAD DUP2 DUP2 AND SWAP5 SWAP3 SWAP1 DUP6 SWAP1 SUB PUSH2 0xE40 JUMPI PUSH2 0xD85 PUSH2 0x102A JUMP JUMPDEST AND SWAP2 DUP3 ISZERO PUSH2 0xDFD JUMPI DUP4 ISZERO PUSH2 0xDBA JUMPI POP POP PUSH12 0xFFFFFFFFFFFFFFFFFFFFFFFF PUSH1 0xA0 SHL SWAP1 DUP2 PUSH1 0x8 SLOAD AND OR PUSH1 0x8 SSTORE PUSH1 0x9 SLOAD AND OR PUSH1 0x9 SSTORE DUP1 RETURN JUMPDEST SWAP1 PUSH1 0x20 PUSH1 0x64 SWAP3 MLOAD SWAP2 PUSH3 0x461BCD PUSH1 0xE5 SHL DUP4 MSTORE DUP3 ADD MSTORE PUSH1 0x1F PUSH1 0x24 DUP3 ADD MSTORE PUSH32 0x496E76616C6964207469636B657420636F6E7472616374206164647265737300 PUSH1 0x44 DUP3 ADD MSTORE REVERT JUMPDEST SWAP1 PUSH1 0x20 PUSH1 0x64 SWAP3 MLOAD SWAP2 PUSH3 0x461BCD PUSH1 0xE5 SHL DUP4 MSTORE DUP3 ADD MSTORE PUSH1 0x1E PUSH1 0x24 DUP3 ADD MSTORE PUSH32 0x496E76616C6964206576656E7420636F6E747261637420616464726573730000 PUSH1 0x44 DUP3 ADD MSTORE REVERT JUMPDEST DUP6 DUP1 REVERT JUMPDEST DUP4 PUSH2 0xCEF PUSH2 0xE51 CALLDATASIZE PUSH2 0xFC3 JUMP JUMPDEST SWAP3 PUSH2 0xE5D SWAP3 SWAP2 SWAP3 PUSH2 0x102A JUMP JUMPDEST PUSH2 0xCC5 DUP5 ISZERO ISZERO PUSH2 0x1082 JUMP JUMPDEST DUP3 DUP5 CALLVALUE PUSH2 0x591 JUMPI DUP2 PUSH1 0x3 NOT CALLDATASIZE ADD SLT PUSH2 0x591 JUMPI PUSH2 0xE82 PUSH2 0xF6D JUMP JUMPDEST PUSH1 0x6 SLOAD SWAP3 SWAP1 PUSH1 0x24 CALLDATALOAD PUSH2 0xE93 DUP6 PUSH2 0x1544 JUMP JUMPDEST SWAP5 DUP5 SWAP3 PUSH1 0x1 PUSH1 0x1 PUSH1 0xA0 SHL SUB SWAP1 DUP2 AND SWAP3 PUSH1 0x1 SWAP3 DUP4 DUP1 JUMPDEST PUSH2 0xEE5 JUMPI JUMPDEST POP POP POP POP POP POP PUSH2 0xEBC DUP2 PUSH2 0x1544 JUMP JUMPDEST SWAP3 JUMPDEST DUP2 DUP2 LT PUSH2 0xED2 JUMPI DUP3 MLOAD DUP1 PUSH2 0x282 DUP7 DUP3 PUSH2 0xF88 JUMP JUMPDEST DUP1 PUSH2 0x727 PUSH2 0xEE0 SWAP3 DUP8 PUSH2 0x1576 JUMP JUMPDEST PUSH2 0xEBE JUMP JUMPDEST DUP2 DUP2 GT ISZERO DUP1 PUSH2 0xF48 JUMPI JUMPDEST ISZERO PUSH2 0xF43 JUMPI DUP1 DUP10 MSTORE PUSH1 0x3 PUSH1 0x20 MSTORE DUP10 DUP7 DUP6 DUP8 DUP12 DUP14 KECCAK256 ADD SLOAD AND EQ PUSH2 0xF21 JUMPI JUMPDEST POP SWAP1 PUSH2 0xF19 DUP6 SWAP4 SWAP3 PUSH2 0x113D JUMP JUMPDEST SWAP1 SWAP2 SWAP3 PUSH2 0xEA8 JUMP JUMPDEST PUSH2 0xF37 DUP9 DUP4 PUSH2 0x732 DUP10 SWAP8 SWAP7 SWAP6 SWAP12 PUSH2 0xF19 SWAP6 PUSH2 0x1576 JUMP JUMPDEST SWAP8 SWAP2 SWAP3 SWAP4 POP POP DUP10 PUSH2 0xF0C JUMP JUMPDEST PUSH2 0xEAD JUMP JUMPDEST POP DUP3 DUP8 LT PUSH2 0xEEF JUMP JUMPDEST DUP5 SWAP1 CALLVALUE PUSH2 0x233 JUMPI DUP2 PUSH1 0x3 NOT CALLDATASIZE ADD SLT PUSH2 0x233 JUMPI PUSH1 0x20 SWAP1 PUSH1 0x6 SLOAD DUP2 MSTORE RETURN JUMPDEST PUSH1 0x4 CALLDATALOAD SWAP1 PUSH1 0x1 PUSH1 0x1 PUSH1 0xA0 SHL SUB DUP3 AND DUP3 SUB PUSH2 0xF83 JUMPI JUMP JUMPDEST PUSH1 0x0 DUP1 REVERT JUMPDEST PUSH1 0x20 SWAP1 DUP2 PUSH1 0x40 DUP2 DUP4 ADD SWAP3 DUP3 DUP2 MSTORE DUP6 MLOAD DUP1 SWAP5 MSTORE ADD SWAP4 ADD SWAP2 PUSH1 0x0 JUMPDEST DUP3 DUP2 LT PUSH2 0xFAF JUMPI POP POP POP POP SWAP1 JUMP JUMPDEST DUP4 MLOAD DUP6 MSTORE SWAP4 DUP2 ADD SWAP4 SWAP3 DUP2 ADD SWAP3 PUSH1 0x1 ADD PUSH2 0xFA1 JUMP JUMPDEST PUSH1 0x80 SWAP1 PUSH1 0x3 NOT ADD SLT PUSH2 0xF83 JUMPI PUSH1 0x4 CALLDATALOAD SWAP1 PUSH1 0x1 PUSH1 0x1 PUSH1 0xA0 SHL SUB SWAP1 PUSH1 0x24 CALLDATALOAD DUP3 DUP2 AND DUP2 SUB PUSH2 0xF83 JUMPI SWAP2 PUSH1 0x44 CALLDATALOAD SWAP1 DUP2 AND DUP2 SUB PUSH2 0xF83 JUMPI SWAP1 PUSH1 0x64 CALLDATALOAD SWAP1 JUMP JUMPDEST DUP1 SLOAD DUP3 LT ISZERO PUSH2 0x1014 JUMPI PUSH1 0x0 MSTORE PUSH1 0x20 PUSH1 0x0 KECCAK256 ADD SWAP1 PUSH1 0x0 SWAP1 JUMP JUMPDEST PUSH4 0x4E487B71 PUSH1 0xE0 SHL PUSH1 0x0 MSTORE PUSH1 0x32 PUSH1 0x4 MSTORE PUSH1 0x24 PUSH1 0x0 REVERT JUMPDEST PUSH1 0x0 SLOAD PUSH1 0x1 PUSH1 0x1 PUSH1 0xA0 SHL SUB AND CALLER SUB PUSH2 0x103E JUMPI JUMP JUMPDEST PUSH1 0x64 PUSH1 0x40 MLOAD PUSH3 0x461BCD PUSH1 0xE5 SHL DUP2 MSTORE PUSH1 0x20 PUSH1 0x4 DUP3 ADD MSTORE PUSH1 0x20 PUSH1 0x24 DUP3 ADD MSTORE PUSH32 0x4F776E61626C653A2063616C6C6572206973206E6F7420746865206F776E6572 PUSH1 0x44 DUP3 ADD MSTORE REVERT JUMPDEST ISZERO PUSH2 0x1089 JUMPI JUMP JUMPDEST PUSH1 0x40 MLOAD PUSH3 0x461BCD PUSH1 0xE5 SHL DUP2 MSTORE PUSH1 0x20 PUSH1 0x4 DUP3 ADD MSTORE PUSH1 0x1D PUSH1 0x24 DUP3 ADD MSTORE PUSH32 0x416D6F756E74206D7573742062652067726561746572207468616E2030000000 PUSH1 0x44 DUP3 ADD MSTORE PUSH1 0x64 SWAP1 REVERT JUMPDEST ISZERO PUSH2 0x10D5 JUMPI JUMP JUMPDEST PUSH1 0x40 MLOAD PUSH3 0x461BCD PUSH1 0xE5 SHL DUP2 MSTORE PUSH1 0x20 PUSH1 0x4 DUP3 ADD MSTORE PUSH1 0x1C PUSH1 0x24 DUP3 ADD MSTORE PUSH32 0x416D6F756E742063616E6E6F7420657863656564203130302045544800000000 PUSH1 0x44 DUP3 ADD MSTORE PUSH1 0x64 SWAP1 REVERT JUMPDEST SWAP2 SWAP1 DUP3 SUB SWAP2 DUP3 GT PUSH2 0x1127 JUMPI JUMP JUMPDEST PUSH4 0x4E487B71 PUSH1 0xE0 SHL PUSH1 0x0 MSTORE PUSH1 0x11 PUSH1 0x4 MSTORE PUSH1 0x24 PUSH1 0x0 REVERT JUMPDEST PUSH1 0x0 NOT DUP2 EQ PUSH2 0x1127 JUMPI PUSH1 0x1 ADD SWAP1 JUMP JUMPDEST PUSH2 0x100 DUP2 ADD SWAP1 DUP2 LT PUSH8 0xFFFFFFFFFFFFFFFF DUP3 GT OR PUSH2 0x1169 JUMPI PUSH1 0x40 MSTORE JUMP JUMPDEST PUSH4 0x4E487B71 PUSH1 0xE0 SHL PUSH1 0x0 MSTORE PUSH1 0x41 PUSH1 0x4 MSTORE PUSH1 0x24 PUSH1 0x0 REVERT JUMPDEST SWAP1 PUSH1 0x1F DUP1 NOT SWAP2 ADD AND DUP2 ADD SWAP1 DUP2 LT PUSH8 0xFFFFFFFFFFFFFFFF DUP3 GT OR PUSH2 0x1169 JUMPI PUSH1 0x40 MSTORE JUMP JUMPDEST SWAP2 SWAP1 DUP3 ADD DUP1 SWAP3 GT PUSH2 0x1127 JUMPI JUMP JUMPDEST SWAP2 SWAP3 SWAP1 DUP2 CALLVALUE SUB PUSH2 0x140D JUMPI PUSH1 0x1 PUSH1 0x1 PUSH1 0xA0 SHL SUB SWAP1 DUP2 AND SWAP4 DUP5 ISZERO PUSH2 0x13D0 JUMPI DUP2 AND SWAP2 DUP3 ISZERO PUSH2 0x138B JUMPI PUSH1 0x7 SLOAD DUP1 DUP3 MUL SWAP1 DUP3 DUP3 DIV EQ DUP3 ISZERO OR ISZERO PUSH2 0x1127 JUMPI PUSH1 0x64 SWAP1 DIV SWAP2 PUSH2 0x11F5 DUP4 DUP4 PUSH2 0x111A JUMP JUMPDEST SWAP1 PUSH2 0x1201 PUSH1 0x6 SLOAD PUSH2 0x113D JUMP JUMPDEST DUP1 SWAP6 DUP2 PUSH1 0x6 SSTORE PUSH1 0x40 SWAP3 PUSH1 0x7 DUP5 MLOAD PUSH2 0x1217 DUP2 PUSH2 0x114C JUMP JUMPDEST DUP11 DUP2 MSTORE PUSH1 0x20 DUP2 ADD DUP13 DUP2 MSTORE DUP7 DUP3 ADD DUP6 DUP2 MSTORE PUSH1 0x60 DUP4 ADD DUP11 DUP2 MSTORE PUSH1 0x80 DUP5 ADD SWAP1 DUP13 DUP3 MSTORE PUSH1 0xA0 DUP6 ADD SWAP3 DUP12 DUP5 MSTORE PUSH1 0xC0 DUP7 ADD SWAP5 TIMESTAMP DUP7 MSTORE PUSH1 0xE0 DUP8 ADD SWAP9 PUSH1 0x1 DUP11 MSTORE PUSH1 0x0 SWAP12 DUP13 MSTORE PUSH1 0x3 PUSH1 0x20 MSTORE DUP13 DUP13 KECCAK256 SWAP8 MLOAD DUP9 SSTORE DUP1 PUSH1 0x1 DUP10 ADD SWAP3 MLOAD AND SWAP2 PUSH12 0xFFFFFFFFFFFFFFFFFFFFFFFF PUSH1 0xA0 SHL SWAP3 DUP4 DUP3 SLOAD AND OR SWAP1 SSTORE PUSH1 0x2 DUP9 ADD SWAP3 MLOAD AND SWAP1 DUP3 SLOAD AND OR SWAP1 SSTORE MLOAD PUSH1 0x3 DUP6 ADD SSTORE MLOAD PUSH1 0x4 DUP5 ADD SSTORE MLOAD PUSH1 0x5 DUP4 ADD SSTORE MLOAD PUSH1 0x6 DUP3 ADD SSTORE ADD SWAP1 MLOAD ISZERO ISZERO PUSH1 0xFF DUP1 NOT DUP4 SLOAD AND SWAP2 AND OR SWAP1 SSTORE DUP1 DUP3 MSTORE PUSH1 0x4 PUSH1 0x20 MSTORE DUP3 DUP3 KECCAK256 PUSH2 0x12CE DUP6 DUP3 SLOAD PUSH2 0x11A1 JUMP JUMPDEST SWAP1 SSTORE DUP2 MSTORE PUSH1 0x4 PUSH1 0x20 MSTORE PUSH1 0x1 DUP3 DUP3 KECCAK256 ADD PUSH2 0x12E8 DUP5 DUP3 SLOAD PUSH2 0x11A1 JUMP JUMPDEST SWAP1 SSTORE DUP7 DUP2 MSTORE PUSH1 0x5 PUSH1 0x20 MSTORE DUP2 DUP2 KECCAK256 DUP1 SLOAD SWAP2 PUSH9 0x10000000000000000 DUP4 LT ISZERO PUSH2 0x1377 JUMPI POP SWAP2 PUSH2 0x1342 DUP3 PUSH2 0x1372 SWAP5 PUSH1 0x1 PUSH32 0x768C2AFECE4BBA0E29315BE57972444B2EC1CCF51A6E8F0617536BAADDB4FF44 SWAP10 SWAP9 SWAP8 SWAP6 ADD DUP2 SSTORE PUSH2 0xFFC JUMP JUMPDEST DUP2 SLOAD SWAP1 PUSH1 0x3 SHL SWAP1 DUP10 DUP3 SHL SWAP2 PUSH1 0x0 NOT SWAP1 SHL NOT AND OR SWAP1 SSTORE MLOAD SWAP4 DUP5 SWAP4 DUP5 PUSH1 0x40 SWAP2 SWAP5 SWAP4 SWAP3 PUSH1 0x60 DUP3 ADD SWAP6 DUP3 MSTORE PUSH1 0x20 DUP3 ADD MSTORE ADD MSTORE JUMP JUMPDEST SUB SWAP1 LOG4 JUMP JUMPDEST PUSH4 0x4E487B71 PUSH1 0xE0 SHL DUP2 MSTORE PUSH1 0x41 PUSH1 0x4 MSTORE PUSH1 0x24 SWAP1 REVERT JUMPDEST PUSH1 0x40 MLOAD PUSH3 0x461BCD PUSH1 0xE5 SHL DUP2 MSTORE PUSH1 0x20 PUSH1 0x4 DUP3 ADD MSTORE PUSH1 0x19 PUSH1 0x24 DUP3 ADD MSTORE PUSH32 0x496E76616C6964206F7267616E697A6572206164647265737300000000000000 PUSH1 0x44 DUP3 ADD MSTORE PUSH1 0x64 SWAP1 REVERT JUMPDEST PUSH1 0x40 MLOAD PUSH3 0x461BCD PUSH1 0xE5 SHL DUP2 MSTORE PUSH1 0x20 PUSH1 0x4 DUP3 ADD MSTORE PUSH1 0x15 PUSH1 0x24 DUP3 ADD MSTORE PUSH21 0x496E76616C69642070617965722061646472657373 PUSH1 0x58 SHL PUSH1 0x44 DUP3 ADD MSTORE PUSH1 0x64 SWAP1 REVERT JUMPDEST PUSH1 0x40 MLOAD PUSH3 0x461BCD PUSH1 0xE5 SHL DUP2 MSTORE PUSH1 0x20 PUSH1 0x4 DUP3 ADD MSTORE PUSH1 0x18 PUSH1 0x24 DUP3 ADD MSTORE PUSH32 0x496E636F7272656374207061796D656E7420616D6F756E740000000000000000 PUSH1 0x44 DUP3 ADD MSTORE PUSH1 0x64 SWAP1 REVERT JUMPDEST PUSH1 0xFF PUSH1 0x2 SLOAD AND PUSH2 0x145E JUMPI JUMP JUMPDEST PUSH1 0x40 MLOAD PUSH3 0x461BCD PUSH1 0xE5 SHL DUP2 MSTORE PUSH1 0x20 PUSH1 0x4 DUP3 ADD MSTORE PUSH1 0x10 PUSH1 0x24 DUP3 ADD MSTORE PUSH16 0x14185D5CD8589B194E881C185D5CD959 PUSH1 0x82 SHL PUSH1 0x44 DUP3 ADD MSTORE PUSH1 0x64 SWAP1 REVERT JUMPDEST PUSH1 0x2 PUSH1 0x1 SLOAD EQ PUSH2 0x14A7 JUMPI PUSH1 0x2 PUSH1 0x1 SSTORE JUMP JUMPDEST PUSH1 0x40 MLOAD PUSH3 0x461BCD PUSH1 0xE5 SHL DUP2 MSTORE PUSH1 0x20 PUSH1 0x4 DUP3 ADD MSTORE PUSH1 0x1F PUSH1 0x24 DUP3 ADD MSTORE PUSH32 0x5265656E7472616E637947756172643A207265656E7472616E742063616C6C00 PUSH1 0x44 DUP3 ADD MSTORE PUSH1 0x64 SWAP1 REVERT JUMPDEST RETURNDATASIZE ISZERO PUSH2 0x1527 JUMPI RETURNDATASIZE SWAP1 PUSH8 0xFFFFFFFFFFFFFFFF DUP3 GT PUSH2 0x1169 JUMPI PUSH1 0x40 MLOAD SWAP2 PUSH2 0x151B PUSH1 0x1F DUP3 ADD PUSH1 0x1F NOT AND PUSH1 0x20 ADD DUP5 PUSH2 0x117F JUMP JUMPDEST DUP3 MSTORE RETURNDATASIZE PUSH1 0x0 PUSH1 0x20 DUP5 ADD RETURNDATACOPY JUMP JUMPDEST PUSH1 0x60 SWAP1 JUMP JUMPDEST PUSH8 0xFFFFFFFFFFFFFFFF DUP2 GT PUSH2 0x1169 JUMPI PUSH1 0x5 SHL PUSH1 0x20 ADD SWAP1 JUMP JUMPDEST SWAP1 PUSH2 0x154E DUP3 PUSH2 0x152C JUMP JUMPDEST PUSH2 0x155B PUSH1 0x40 MLOAD SWAP2 DUP3 PUSH2 0x117F JUMP JUMPDEST DUP3 DUP2 MSTORE DUP1 SWAP3 PUSH2 0x156C PUSH1 0x1F NOT SWAP2 PUSH2 0x152C JUMP JUMPDEST ADD SWAP1 PUSH1 0x20 CALLDATASIZE SWAP2 ADD CALLDATACOPY JUMP JUMPDEST DUP1 MLOAD DUP3 LT ISZERO PUSH2 0x1014 JUMPI PUSH1 0x20 SWAP2 PUSH1 0x5 SHL ADD ADD SWAP1 JUMP INVALID LOG2 PUSH5 0x6970667358 0x22 SLT KECCAK256 0xE3 LOG2 0xC0 LOG3 0xCF 0xC 0xE3 CHAINID 0x29 CREATE 0xDC MOD PUSH7 0x4A9FFAB76AD1C5 0xE4 0xA6 COINBASE ADDRESS 0xA7 0xB2 0xDA EXTCODECOPY 0xE1 GASPRICE 0xAA SMOD PUSH5 0x736F6C6343 STOP ADDMOD SGT STOP CALLER "},"methodIdentifiers":{"MAX_PLATFORM_FEE()":"3998a681","emergencyPause()":"51858e27","emergencyUnpause()":"4a4e3bd5","eventContract()":"e274fd24","eventPayments(uint256,uint256)":"798929e4","getContractStats()":"dfe6b5d6","getEventPayments(uint256)":"cb5847d0","getOrganizerBalance(address)":"61436532","getPaymentRecord(uint256)":"c1d446be","getPaymentsByOrganizer(address,uint256)":"9113e89b","getPaymentsByPayer(address,uint256)":"0b2bad5f","organizerBalances(address)":"b0380578","owner()":"8da5cb5b","paused()":"5c975abb","paymentCount()":"0937e68a","paymentRecords(uint256)":"5691fe63","platformFeePercentage()":"cdd78cfc","processPayment(uint256,address,address,uint256)":"3279c411","renounceOwnership()":"715018a6","testProcessPayment(uint256,address,address,uint256)":"127369ea","ticketContract()":"58a86e1d","transferOwnership(address)":"f2fde38b","updateContractAddresses(address,address)":"1ff6dc5b","updatePlatformFee(uint256)":"aa0b5988","withdrawOrganizerFunds(uint256)":"50f417b5","withdrawPlatformFees()":"d0b7830b"}},"storageLayout":{"storage":[{"astId":7,"contract":"contracts/PaymentProcessor.sol:PaymentProcessor","label":"_owner","offset":0,"slot":"0","type":"t_address"},{"astId":259,"contract":"contracts/PaymentProcessor.sol:PaymentProcessor","label":"_status","offset":0,"slot":"1","type":"t_uint256"},{"astId":158,"contract":"contracts/PaymentProcessor.sol:PaymentProcessor","label":"_paused","offset":0,"slot":"2","type":"t_bool"},{"astId":4159,"contract":"contracts/PaymentProcessor.sol:PaymentProcessor","label":"paymentRecords","offset":0,"slot":"3","type":"t_mapping(t_uint256,t_struct(PaymentRecord)4145_storage)"},{"astId":4164,"contract":"contracts/PaymentProcessor.sol:PaymentProcessor","label":"organizerBalances","offset":0,"slot":"4","type":"t_mapping(t_address,t_struct(OrganizerBalance)4154_storage)"},{"astId":4169,"contract":"contracts/PaymentProcessor.sol:PaymentProcessor","label":"eventPayments","offset":0,"slot":"5","type":"t_mapping(t_uint256,t_array(t_uint256)dyn_storage)"},{"astId":4171,"contract":"contracts/PaymentProcessor.sol:PaymentProcessor","label":"paymentCount","offset":0,"slot":"6","type":"t_uint256"},{"astId":4174,"contract":"contracts/PaymentProcessor.sol:PaymentProcessor","label":"platformFeePercentage","offset":0,"slot":"7","type":"t_uint256"},{"astId":4179,"contract":"contracts/PaymentProcessor.sol:PaymentProcessor","label":"eventContract","offset":0,"slot":"8","type":"t_address"},{"astId":4181,"contract":"contracts/PaymentProcessor.sol:PaymentProcessor","label":"ticketContract","offset":0,"slot":"9","type":"t_address"}],"types":{"t_address":{"encoding":"inplace","label":"address","numberOfBytes":"20"},"t_array(t_uint256)dyn_storage":{"base":"t_uint256","encoding":"dynamic_array","label":"uint256[]","numberOfBytes":"32"},"t_bool":{"encoding":"inplace","label":"bool","numberOfBytes":"1"},"t_mapping(t_address,t_struct(OrganizerBalance)4154_storage)":{"encoding":"mapping","key":"t_address","label":"mapping(address => struct PaymentProcessor.OrganizerBalance)","numberOfBytes":"32","value":"t_struct(OrganizerBalance)4154_storage"},"t_mapping(t_uint256,t_array(t_uint256)dyn_storage)":{"encoding":"mapping","key":"t_uint256","label":"mapping(uint256 => uint256[])","numberOfBytes":"32","value":"t_array(t_uint256)dyn_storage"},"t_mapping(t_uint256,t_struct(PaymentRecord)4145_storage)":{"encoding":"mapping","key":"t_uint256","label":"mapping(uint256 => struct PaymentProcessor.PaymentRecord)","numberOfBytes":"32","value":"t_struct(PaymentRecord)4145_storage"},"t_struct(OrganizerBalance)4154_storage":{"encoding":"inplace","label":"struct PaymentProcessor.OrganizerBalance","members":[{"astId":4147,"contract":"contracts/PaymentProcessor.sol:PaymentProcessor","label":"totalEarned","offset":0,"slot":"0","type":"t_uint256"},{"astId":4149,"contract":"contracts/PaymentProcessor.sol:PaymentProcessor","label":"availableBalance","offset":0,"slot":"1","type":"t_uint256"},{"astId":4151,"contract":"contracts/PaymentProcessor.sol:PaymentProcessor","label":"withdrawnAmount","offset":0,"slot":"2","type":"t_uint256"},{"astId":4153,"contract":"contracts/PaymentProcessor.sol:PaymentProcessor","label":"lastWithdrawal","offset":0,"slot":"3","type":"t_uint256"}],"numberOfBytes":"128"},"t_struct(PaymentRecord)4145_storage":{"encoding":"inplace","label":"struct PaymentProcessor.PaymentRecord","members":[{"astId":4130,"contract":"contracts/PaymentProcessor.sol:PaymentProcessor","label":"eventId","offset":0,"slot":"0","type":"t_uint256"},{"astId":4132,"contract":"contracts/PaymentProcessor.sol:PaymentProcessor","label":"payer","offset":0,"slot":"1","type":"t_address"},{"astId":4134,"contract":"contracts/PaymentProcessor.sol:PaymentProcessor","label":"organizer","offset":0,"slot":"2","type":"t_address"},{"astId":4136,"contract":"contracts/PaymentProcessor.sol:PaymentProcessor","label":"amount","offset":0,"slot":"3","type":"t_uint256"},{"astId":4138,"contract":"contracts/PaymentProcessor.sol:PaymentProcessor","label":"platformFee","offset":0,"slot":"4","type":"t_uint256"},{"astId":4140,"contract":"contracts/PaymentProcessor.sol:PaymentProcessor","label":"organizerShare","offset":0,"slot":"5","type":"t_uint256"},{"astId":4142,"contract":"contracts/PaymentProcessor.sol:PaymentProcessor","label":"timestamp","offset":0,"slot":"6","type":"t_uint256"},{"astId":4144,"contract":"contracts/PaymentProcessor.sol:PaymentProcessor","label":"processed","offset":0,"slot":"7","type":"t_bool"}],"numberOfBytes":"256"},"t_uint256":{"encoding":"inplace","label":"uint256","numberOfBytes":"32"}}}}}}