{"contracts/TicketNFT.sol":{"TicketNFT":{"abi":[{"inputs":[],"stateMutability":"nonpayable","type":"constructor"},{"anonymous":false,"inputs":[{"indexed":true,"internalType":"address","name":"owner","type":"address"},{"indexed":true,"internalType":"address","name":"approved","type":"address"},{"indexed":true,"internalType":"uint256","name":"tokenId","type":"uint256"}],"name":"Approval","type":"event"},{"anonymous":false,"inputs":[{"indexed":true,"internalType":"address","name":"owner","type":"address"},{"indexed":true,"internalType":"address","name":"operator","type":"address"},{"indexed":false,"internalType":"bool","name":"approved","type":"bool"}],"name":"ApprovalForAll","type":"event"},{"anonymous":false,"inputs":[{"indexed":false,"internalType":"uint256","name":"_fromTokenId","type":"uint256"},{"indexed":false,"internalType":"uint256","name":"_toTokenId","type":"uint256"}],"name":"BatchMetadataUpdate","type":"event"},{"anonymous":false,"inputs":[{"indexed":true,"internalType":"address","name":"oldContract","type":"address"},{"indexed":true,"internalType":"address","name":"newContract","type":"address"}],"name":"EventContractUpdated","type":"event"},{"anonymous":false,"inputs":[{"indexed":false,"internalType":"uint256","name":"_tokenId","type":"uint256"}],"name":"MetadataUpdate","type":"event"},{"anonymous":false,"inputs":[{"indexed":true,"internalType":"address","name":"previousOwner","type":"address"},{"indexed":true,"internalType":"address","name":"newOwner","type":"address"}],"name":"OwnershipTransferred","type":"event"},{"anonymous":false,"inputs":[{"indexed":true,"internalType":"address","name":"oldProcessor","type":"address"},{"indexed":true,"internalType":"address","name":"newProcessor","type":"address"}],"name":"PaymentProcessorUpdated","type":"event"},{"anonymous":false,"inputs":[{"indexed":true,"internalType":"uint256","name":"tokenId","type":"uint256"}],"name":"TicketCancelled","type":"event"},{"anonymous":false,"inputs":[{"indexed":true,"internalType":"uint256","name":"tokenId","type":"uint256"},{"indexed":true,"internalType":"uint256","name":"eventId","type":"uint256"},{"indexed":true,"internalType":"address","name":"purchaser","type":"address"}],"name":"TicketMinted","type":"event"},{"anonymous":false,"inputs":[{"indexed":true,"internalType":"uint256","name":"tokenId","type":"uint256"},{"indexed":true,"internalType":"address","name":"from","type":"address"},{"indexed":true,"internalType":"address","name":"to","type":"address"}],"name":"TicketTransferred","type":"event"},{"anonymous":false,"inputs":[{"indexed":true,"internalType":"uint256","name":"tokenId","type":"uint256"},{"indexed":true,"internalType":"address","name":"user","type":"address"}],"name":"TicketUsed","type":"event"},{"anonymous":false,"inputs":[{"indexed":true,"internalType":"address","name":"from","type":"address"},{"indexed":true,"internalType":"address","name":"to","type":"address"},{"indexed":true,"internalType":"uint256","name":"tokenId","type":"uint256"}],"name":"Transfer","type":"event"},{"inputs":[{"internalType":"address","name":"to","type":"address"},{"internalType":"uint256","name":"tokenId","type":"uint256"}],"name":"approve","outputs":[],"stateMutability":"nonpayable","type":"function"},{"inputs":[{"internalType":"address","name":"owner","type":"address"}],"name":"balanceOf","outputs":[{"internalType":"uint256","name":"","type":"uint256"}],"stateMutability":"view","type":"function"},{"inputs":[{"internalType":"uint256","name":"tokenId","type":"uint256"}],"name":"cancelTicket","outputs":[],"stateMutability":"nonpayable","type":"function"},{"inputs":[],"name":"emergencyPause","outputs":[],"stateMutability":"nonpayable","type":"function"},{"inputs":[],"name":"eventContract","outputs":[{"internalType":"address","name":"","type":"address"}],"stateMutability":"view","type":"function"},{"inputs":[{"internalType":"uint256","name":"","type":"uint256"},{"internalType":"uint256","name":"","type":"uint256"}],"name":"eventTickets","outputs":[{"internalType":"uint256","name":"","type":"uint256"}],"stateMutability":"view","type":"function"},{"inputs":[{"internalType":"uint256","name":"tokenId","type":"uint256"}],"name":"exists","outputs":[{"internalType":"bool","name":"","type":"bool"}],"stateMutability":"view","type":"function"},{"inputs":[{"internalType":"uint256","name":"tokenId","type":"uint256"}],"name":"getApproved","outputs":[{"internalType":"address","name":"","type":"address"}],"stateMutability":"view","type":"function"},{"inputs":[],"name":"getContractStats","outputs":[{"internalType":"uint256","name":"totalTickets","type":"uint256"},{"internalType":"uint256","name":"activeTickets","type":"uint256"},{"internalType":"uint256","name":"totalUsedTickets","type":"uint256"}],"stateMutability":"view","type":"function"},{"inputs":[{"internalType":"uint256","name":"eventId","type":"uint256"}],"name":"getEventTickets","outputs":[{"internalType":"uint256[]","name":"","type":"uint256[]"}],"stateMutability":"view","type":"function"},{"inputs":[{"internalType":"uint256","name":"tokenId","type":"uint256"}],"name":"getTicketMetadata","outputs":[{"internalType":"uint256","name":"eventId","type":"uint256"},{"internalType":"address","name":"eventContractAddr","type":"address"},{"internalType":"address","name":"purchaser","type":"address"},{"internalType":"uint256","name":"purchaseDate","type":"uint256"},{"internalType":"bool","name":"isUsed","type":"bool"},{"internalType":"bool","name":"isActive","type":"bool"},{"internalType":"string","name":"seatInfo","type":"string"},{"internalType":"string","name":"ticketType","type":"string"}],"stateMutability":"view","type":"function"},{"inputs":[{"internalType":"address","name":"owner","type":"address"}],"name":"getTicketsByOwner","outputs":[{"internalType":"uint256[]","name":"","type":"uint256[]"}],"stateMutability":"view","type":"function"},{"inputs":[{"internalType":"address","name":"owner","type":"address"},{"internalType":"address","name":"operator","type":"address"}],"name":"isApprovedForAll","outputs":[{"internalType":"bool","name":"","type":"bool"}],"stateMutability":"view","type":"function"},{"inputs":[{"internalType":"address[]","name":"recipients","type":"address[]"},{"internalType":"uint256","name":"eventId","type":"uint256"},{"internalType":"address","name":"eventContractAddr","type":"address"},{"internalType":"string[]","name":"seatInfos","type":"string[]"},{"internalType":"string","name":"ticketType","type":"string"},{"internalType":"string","name":"baseMetadataURI","type":"string"}],"name":"mintBatchTickets","outputs":[{"internalType":"uint256[]","name":"","type":"uint256[]"}],"stateMutability":"nonpayable","type":"function"},{"inputs":[{"internalType":"address","name":"to","type":"address"},{"internalType":"uint256","name":"eventId","type":"uint256"},{"internalType":"address","name":"eventContractAddr","type":"address"},{"internalType":"string","name":"seatInfo","type":"string"},{"internalType":"string","name":"ticketType","type":"string"},{"internalType":"string","name":"metadataURI","type":"string"}],"name":"mintTicket","outputs":[{"internalType":"uint256","name":"","type":"uint256"}],"stateMutability":"nonpayable","type":"function"},{"inputs":[],"name":"name","outputs":[{"internalType":"string","name":"","type":"string"}],"stateMutability":"view","type":"function"},{"inputs":[],"name":"owner","outputs":[{"internalType":"address","name":"","type":"address"}],"stateMutability":"view","type":"function"},{"inputs":[{"internalType":"uint256","name":"tokenId","type":"uint256"}],"name":"ownerOf","outputs":[{"internalType":"address","name":"","type":"address"}],"stateMutability":"view","type":"function"},{"inputs":[],"name":"paymentProcessor","outputs":[{"internalType":"address","name":"","type":"address"}],"stateMutability":"view","type":"function"},{"inputs":[],"name":"renounceOwnership","outputs":[],"stateMutability":"nonpayable","type":"function"},{"inputs":[{"internalType":"address","name":"from","type":"address"},{"internalType":"address","name":"to","type":"address"},{"internalType":"uint256","name":"tokenId","type":"uint256"}],"name":"safeTransferFrom","outputs":[],"stateMutability":"nonpayable","type":"function"},{"inputs":[{"internalType":"address","name":"from","type":"address"},{"internalType":"address","name":"to","type":"address"},{"internalType":"uint256","name":"tokenId","type":"uint256"},{"internalType":"bytes","name":"data","type":"bytes"}],"name":"safeTransferFrom","outputs":[],"stateMutability":"nonpayable","type":"function"},{"inputs":[{"internalType":"address","name":"operator","type":"address"},{"internalType":"bool","name":"approved","type":"bool"}],"name":"setApprovalForAll","outputs":[],"stateMutability":"nonpayable","type":"function"},{"inputs":[{"internalType":"bytes4","name":"interfaceId","type":"bytes4"}],"name":"supportsInterface","outputs":[{"internalType":"bool","name":"","type":"bool"}],"stateMutability":"view","type":"function"},{"inputs":[],"name":"symbol","outputs":[{"internalType":"string","name":"","type":"string"}],"stateMutability":"view","type":"function"},{"inputs":[{"internalType":"uint256","name":"","type":"uint256"}],"name":"ticketMetadata","outputs":[{"internalType":"uint256","name":"eventId","type":"uint256"},{"internalType":"address","name":"eventContract","type":"address"},{"internalType":"address","name":"purchaser","type":"address"},{"internalType":"uint256","name":"purchaseDate","type":"uint256"},{"internalType":"bool","name":"isUsed","type":"bool"},{"internalType":"bool","name":"isActive","type":"bool"},{"internalType":"string","name":"seatInfo","type":"string"},{"internalType":"string","name":"ticketType","type":"string"}],"stateMutability":"view","type":"function"},{"inputs":[{"internalType":"uint256","name":"tokenId","type":"uint256"}],"name":"tokenURI","outputs":[{"internalType":"string","name":"","type":"string"}],"stateMutability":"view","type":"function"},{"inputs":[],"name":"totalSupply","outputs":[{"internalType":"uint256","name":"","type":"uint256"}],"stateMutability":"view","type":"function"},{"inputs":[{"internalType":"address","name":"from","type":"address"},{"internalType":"address","name":"to","type":"address"},{"internalType":"uint256","name":"tokenId","type":"uint256"}],"name":"transferFrom","outputs":[],"stateMutability":"nonpayable","type":"function"},{"inputs":[{"internalType":"address","name":"newOwner","type":"address"}],"name":"transferOwnership","outputs":[],"stateMutability":"nonpayable","type":"function"},{"inputs":[{"internalType":"uint256","name":"tokenId","type":"uint256"}],"name":"useTicket","outputs":[],"stateMutability":"nonpayable","type":"function"},{"inputs":[{"internalType":"uint256","name":"","type":"uint256"}],"name":"usedTickets","outputs":[{"internalType":"bool","name":"","type":"bool"}],"stateMutability":"view","type":"function"},{"inputs":[{"internalType":"uint256","name":"tokenId","type":"uint256"},{"internalType":"uint256","name":"eventId","type":"uint256"}],"name":"verifyTicket","outputs":[{"internalType":"bool","name":"","type":"bool"}],"stateMutability":"view","type":"function"}],"evm":{"bytecode":{"linkReferences":{},"object":"6080346200035f576001600160401b03906040908082018381118282101762000349578252600b81526020916a115d995b9d151a58dad95d60aa1b8383015280519381850185811082821117620003495782526004855263115512d560e21b84860152825181811162000349576000948554916001958684811c941680156200033e575b838510146200032a578190601f94858111620002d7575b5083908583116001146200027357899262000267575b5050600019600383901b1c191690861b1786555b8651928311620002535784548581811c9116801562000248575b828210146200023457828111620001ec575b50809183116001146200018357508495829394959262000177575b5050600019600383901b1c191690831b1782555b60078054336001600160a01b03198216811790925591519390916001600160a01b0316907f8be0079c531659141344cd1fd0a4f28419497f9722a3daafe3b4186f6b6457e09080a3600855612dbe9081620003658239f35b0151905038806200010b565b90601f198316968587528287209287905b898210620001d45750508386979896959610620001ba575b505050811b0182556200011f565b015160001960f88460031b161c19169055388080620001ac565b80888596829496860151815501950193019062000194565b8587528187208380860160051c8201928487106200022a575b0160051c019086905b8281106200021e575050620000f0565b8881550186906200020e565b9250819262000205565b634e487b7160e01b87526022600452602487fd5b90607f1690620000de565b634e487b7160e01b86526041600452602486fd5b015190503880620000b0565b898052848a208994509190601f1984168b5b87828210620002c05750508411620002a6575b505050811b018655620000c4565b015160001960f88460031b161c1916905538808062000298565b8385015186558c9790950194938401930162000285565b9091508880528389208580850160051c82019286861062000320575b918a91869594930160051c01915b828110620003115750506200009a565b8b81558594508a910162000301565b92508192620002f3565b634e487b7160e01b88526022600452602488fd5b93607f169362000083565b634e487b7160e01b600052604160045260246000fd5b600080fdfe608080604052600436101561001357600080fd5b60003560e01c90816301ffc9a714611dd05750806303446b1814611db757806306fdde0314611d14578063081812fc14611cf6578063095ea7b314611b7c57806318160ddd14611b5e57806323b872dd14611ac957806326606448146119ce57806342842e0e146118af5780634f558e791461187357806351858e27146118585780635a7b914c146110c15780636352211e1461109157806367aa23e214610fb657806370a0823114610f8b578063715018a614610f2e57806371efdc2114610efd578063779cea7714610ebe5780637f677bd0146109f35780638da5cb5b146109ca57806395d89b41146108eb578063a22cb46514610810578063b88d4fde146106f7578063ba0ae43c14610604578063c87b56dd14610592578063ca261ce11461051c578063dfe6b5d614610456578063e274fd241461042d578063e985e9c5146103d7578063ea05fc511461035a578063ee355b1f1461027c578063f1c6bdf8146102535763f2fde38b1461018a57600080fd5b3461024e57602036600319011261024e576101a3611eb3565b6101ab6121ae565b6001600160a01b039081169081156101fa57600754826001600160601b0360a01b821617600755167f8be0079c531659141344cd1fd0a4f28419497f9722a3daafe3b4186f6b6457e0600080a3005b60405162461bcd60e51b815260206004820152602660248201527f4f776e61626c653a206e6577206f776e657220697320746865207a65726f206160448201526564647265737360d01b6064820152608490fd5b600080fd5b3461024e57600036600319011261024e57600e546040516001600160a01b039091168152602090f35b3461024e57602036600319011261024e576004356102986121ae565b6000818152600260205260409020546102bb906001600160a01b03161515612a81565b80600052600a60205260ff600460406000200154166103155780600052600a602052600460406000200161ff001981541690557f90a5808be5f77b4a2e0aa0389f433983252aabf738204c5c421fc59e5ecdaeea600080a2005b60405162461bcd60e51b815260206004820152601960248201527f43616e6e6f742063616e63656c2075736564207469636b6574000000000000006044820152606490fd5b3461024e57602036600319011261024e57600435600052600a602052604060002080546103d360018060a01b03918260018501541692600285015416936003810154916004820154906103bb60066103b460058601612108565b9401612108565b9360405197889760ff808660081c1695169389612072565b0390f35b3461024e57604036600319011261024e576103f0611eb3565b6103f8611edf565b9060018060a01b03809116600052600560205260406000209116600052602052602060ff604060002054166040519015158152f35b3461024e57600036600319011261024e57600d546040516001600160a01b039091168152602090f35b3461024e57600036600319011261024e576009546000908160015b8281111561049057509160609260405192835260208301526040820152f35b6000818152600260205260409020546001600160a01b03166104bb575b6104b690612907565b610471565b9283600052600a60205260046040600020015460ff908181166000146104f25750506104e96104b691612907565b935b90506104ad565b60089592951c16610507575b6104b6906104eb565b906105146104b691612907565b9190506104fe565b3461024e5760208060031936011261024e57600435600052600b8152604060002090604051908181845491828152019360005281600020916000905b82821061057b576103d38561056f81890382611f61565b60405191829182612009565b835486529485019460019384019390910190610558565b3461024e57602036600319011261024e576004356000818152600260205260409020546105c9906001600160a01b0316151561227d565b60005260066020526103d36105e16040600020612108565b60006040516105ef81611f46565b52604051918291602083526020830190611e8e565b3461024e57602036600319011261024e5760043560008181526002602052604090205461063b906001600160a01b03161515612a81565b600052600a602052604060002060405161065481611f2a565b815481526103d360018060a01b039182600185015416926020820193845280600286015416946040830195865260038101549160608401928352600482015490608085019060ff83161515825260ff60a087019360081c1615158352806106d060066106c260058801612108565b9660c08a0197885201612108565b968760e0820152519851169851169351905115159151151592519360405198899889612072565b3461024e57608036600319011261024e57610710611eb3565b610718611edf565b6044356064356001600160401b03811161024e573660238201121561024e576107e46107516107e9923690602481600401359101611fb4565b83600052600a60205261076f60ff600460406000200154161561292a565b83600052600a60205261078f60ff60046040600020015460081c1661296c565b6001600160a01b03948490866107a4836122c9565b16966107b4818a16988914612ac5565b8116976107c2891515612b01565b6107d46107cf8433612baf565b612b4d565b6107df838383612c77565b61265c565b6124cc565b7fd15524263ae66f75c1e604c47db6085085110f23ef7322b355179ac5e3b0783a600080a4005b3461024e57604036600319011261024e57610829611eb3565b602435908115159081830361024e576001600160a01b0316913383146108a6576108789033600052600560205260406000208460005260205260406000209060ff801983541691151516179055565b6040519081527f17307eab39ab6107e8899845ad3d59bd9653f200f220920489ca2b5937696c3160203392a3005b60405162461bcd60e51b815260206004820152601960248201527f4552433732313a20617070726f766520746f2063616c6c6572000000000000006044820152606490fd5b3461024e57600036600319011261024e576040516000600180549061090f826120ce565b808552918181169081156109a3575060011461094a575b6103d38461093681860382611f61565b604051918291602083526020830190611e8e565b600081815292507fb10e2d527612073b26eecdfd717e6a320cf44b4afac2b0732d9fcbe2b7fa0cf65b82841061098b57505050810160200161093682610926565b80546020858701810191909152909301928101610973565b60ff191660208087019190915292151560051b850190920192506109369150839050610926565b3461024e57600036600319011261024e576007546040516001600160a01b039091168152602090f35b3461024e5760c036600319011261024e57610a0c611eb3565b610a14611ec9565b906064356001600160401b03811161024e57610a34903690600401611feb565b6084356001600160401b03811161024e57610a53903690600401611feb565b60a4356001600160401b03811161024e57610a72903690600401611feb565b91610a7b6121ae565b600d546001600160a01b03168015610e81576001600160a01b03861603610e3c57610aba6001600954019384600955610ab48587612364565b846126e7565b60405194610ac786611f2a565b602435865260018060a01b0316602086015260018060a01b038416604086015242606086015260006080860152600160a086015260c085015260e084015280600052600a6020526040600020835181556001810160018060a01b03602086015116906001600160601b0360a01b9182825416179055600282019060018060a01b036040870151169082541617905560608401516003820155610b9d60048201610b8260808701511515829060ff801983541691151516179055565b60a0860151815461ff00191690151560081b61ff0016179055565b60c08401518051906001600160401b038211610d6157610bc060058401546120ce565b601f8111610df5575b50602090601f8311600114610d8257918060e09492600694600092610d77575b50508160011b916000199060031b1c19161760058201555b019301519283516001600160401b038111610d6157610c2082546120ce565b601f8111610d19575b50806020958690601f8311600114610cb557600092610caa575b50508160011b916000199060031b1c19161790555b602435600052600b8352610c7081604060002061232a565b604051916001600160a01b0316602435827f085ec0eff4bf526b0dd054adffcd8bd8da42126a1133ce302042973f32029fb0600080a48152f35b015190508680610c43565b60008581528881209350601f198516905b818110610d025750908460019594939210610ce9575b505050811b019055610c58565b015160001960f88460031b161c19169055868080610cdc565b929389600181928786015181550195019301610cc6565b826000526020600020601f830160051c81019160208410610d57575b601f0160051c01905b818110610d4b5750610c29565b60008155600101610d3e565b9091508190610d35565b634e487b7160e01b600052604160045260246000fd5b015190508880610be9565b90601f198316916005850160005260206000209260005b818110610ddd575092600192859260069660e0989610610dc4575b505050811b016005820155610c01565b015160001960f88460031b161c19169055888080610db4565b92936020600181928786015181550195019301610d99565b600584016000526020600020601f840160051c810160208510610e35575b601f830160051c82018110610e29575050610bc9565b60008155600101610e13565b5080610e13565b60405162461bcd60e51b815260206004820152601e60248201527f496e76616c6964206576656e7420636f6e7472616374206164647265737300006044820152606490fd5b60405162461bcd60e51b8152602060048201526015602482015274115d995b9d10dbdb9d1c9858dd081b9bdd081cd95d605a1b6044820152606490fd5b3461024e57610ecc36611e55565b90600052600b6020526040600020805482101561024e57602091610eef91612044565b90546040519160031b1c8152f35b3461024e57602036600319011261024e57600435600052600c602052602060ff604060002054166040519015158152f35b3461024e57600036600319011261024e57610f476121ae565b600780546001600160a01b031981169091556000906001600160a01b03167f8be0079c531659141344cd1fd0a4f28419497f9722a3daafe3b4186f6b6457e08280a3005b3461024e57602036600319011261024e576020610fae610fa9611eb3565b612206565b604051908152f35b3461024e57602036600319011261024e57610fcf611eb3565b610fd881612206565b610fe1816128d5565b906009549060009060019283805b611002575b604051806103d38882612009565b8181111580611088575b15611083576000818152600260205260409020546001600160a01b0316151580611066575b611045575b61103f90612907565b84610fef565b9261105e818561105861103f948a612916565b52612907565b939050611036565b50611070816122c9565b6001600160a01b03888116911614611031565b610ff4565b5082841061100c565b3461024e57602036600319011261024e5760206110af6004356122c9565b6040516001600160a01b039091168152f35b3461024e5760c036600319011261024e576004356001600160401b03811161024e573660238201121561024e5780600401356110fc81611f82565b9161110a6040519384611f61565b8183526024602084019260051b8201019036821161024e57602401915b8183106118385783611137611ec9565b90606435906001600160401b03821161024e573660238301121561024e57816004013561116381611f82565b926111716040519485611f61565b8184526024602085019260051b8201019036821161024e5760248101925b82841061180957505050506084356001600160401b03811161024e576111b9903690600401611feb565b60a4356001600160401b03811161024e576111d8903690600401611feb565b916111e16121ae565b80518451036117b2576111f481516128d5565b916000945b82518610156117a457600994600186540180965560018701871161178e57600060018801807a184f03e93ff9f4daa797ed6e38ed64bf6a1f0100000000000000008082101561177c575b50600a906d04ee2d6d415b85acef81000000008082101561176f575b50662386f26fc1000080821015611762575b506305f5e10080821015611755575b5061271080821015611748575b50606481101561173a575b1015611730575b600a60216112af60018501611f99565b936112bd6040519586611f61565b60018101808652601f19906112d190611f99565b013660208701378401015b60001901916f181899199a1a9b1b9c1cb0b131b232b360811b8282061a83530490811561130b57600a906112dc565b505061138690979297969196611363602160405180938b6113358151809260208087019101611e6b565b8201602f60f81b60208201526113548251809360208785019101611e6b565b01036001810184520182611f61565b611380836001600160a01b03611379878a612916565b5116612364565b826126e7565b6001600160a01b036113988386612916565b51166113a48389612916565b51604051906113b282611f2a565b602435825261147e602083019360018060a01b038d16855260408401908152606084019042825260808501916000835260a08601916001835260c087019586528a60e088015288600052600a60205260406000209787518955600189019060018060a01b03905116906001600160601b0360a01b9182825416179055600289019160018060a01b03905116908254161790555160038701556114676004870192511515839060ff801983541691151516179055565b51815461ff00191690151560081b61ff0016179055565b518051906001600160401b038211610d615761149d60058501546120ce565b601f81116116e9575b50602090601f83116001146116765760e09392916000918361166b575b50508160011b916000199060031b1c19161760058401555b01518051906001600160401b038211610d61576114fb60068401546120ce565b601f8111611624575b50602090601f83116001146115ae57918060069261159d979695946000926115a3575b50508160011b916000199060031b1c1916179101555b602435600052600b60205261155681604060002061232a565b6001600160a01b036115688387612916565b5116602435827f085ec0eff4bf526b0dd054adffcd8bd8da42126a1133ce302042973f32029fb0600080a46110588287612916565b946111f9565b015190508d80611527565b906006840160005260206000209160005b601f198516811061160c57509260069260019261159d9897969583601f198116106115f3575b505050811b0191015561153d565b015160001960f88460031b161c191690558d80806115e5565b919260206001819286850151815501940192016115bf565b600684016000526020600020601f840160051c810160208510611664575b601f830160051c82018110611658575050611504565b60008155600101611642565b5080611642565b015190508d806114c3565b906005850160005260206000209160005b601f19851681106116d1575091839160019360e09695601f198116106116b8575b505050811b0160058401556114db565b015160001960f88460031b161c191690558d80806116a8565b91926020600181928685015181550194019201611687565b600585016000526020600020601f840160051c810160208510611729575b601f830160051c8201811061171d5750506114a6565b60008155600101611707565b5080611707565b906001019061129f565b606460029104930192611298565b600491049301928c61128d565b600891049301928c611280565b601091049301928c611271565b602091049301928c61125f565b6040935060018b01049050600a611243565b634e487b7160e01b600052601160045260246000fd5b604051806103d38682612009565b60405162461bcd60e51b815260206004820152602960248201527f526563697069656e747320616e64207365617420696e666f73206c656e677468604482015268040dad2e6dac2e8c6d60bb1b6064820152608490fd5b83356001600160401b03811161024e5760209161182d839260243691870101611feb565b81520193019261118f565b82356001600160a01b038116810361024e57815260209283019201611127565b3461024e57600036600319011261024e576118716121ae565b005b3461024e57602036600319011261024e576004356000908152600260209081526040909120546001600160a01b031615155b6040519015158152f35b3461024e576118bd36611ef5565b80600052600a6020526118db60ff600460406000200154161561292a565b80600052600a6020526118fb60ff60046040600020015460081c1661296c565b61199f6107e46001600160a01b038381611914826122c9565b1695611924838916978814612ac5565b828116976107c289151561193781612b01565b61199a6040519661194788611f46565b6000885286600052600a60205261196960ff600460406000200154161561292a565b86600052600a60205261198960ff60046040600020015460081c1661296c565b611992876122c9565b168b14612ac5565b612b01565b7fd15524263ae66f75c1e604c47db6085085110f23ef7322b355179ac5e3b0783a83838383600080a4600080a4005b3461024e5760208060031936011261024e57600435906119ed826122c9565b336001600160a01b0390911603611a925781600052600a8152611a1b60ff600460406000200154161561292a565b81600052600a8152611a3a60ff60046040600020015460081c1661296c565b81600052600a8152600c60046040600020019160ff199260018482541617905552600160406000209182541617905533907f07c2221c844690cb15e32907258d38446cd4a17bc9b84e2069cd955615d547fd600080a3005b6064906040519062461bcd60e51b82526004820152601060248201526f2737ba103a34b1b5b2ba1037bbb732b960811b6044820152fd5b3461024e57611ad736611ef5565b80600052600a602052611af560ff600460406000200154161561292a565b80600052600a602052611b1560ff60046040600020015460081c1661296c565b6001600160a01b03916107e990829084611b2e836122c9565b1694611b3e818816968714612ac5565b811695611b4c871515612b01565b611b596107cf8433612baf565b612c77565b3461024e57600036600319011261024e576020600954604051908152f35b3461024e57604036600319011261024e57611b95611eb3565b602435906001600160a01b038080611bac856122c9565b16921691808314611ca757803314908115611c82575b5015611c1757600083815260046020526040902080546001600160a01b03191683179055611bef836122c9565b167f8c5be1e5ebec7d5bd14f71427d1e84f3dd0314c0f7b2291e5b200ac8c7c3b925600080a4005b60405162461bcd60e51b815260206004820152603d60248201527f4552433732313a20617070726f76652063616c6c6572206973206e6f7420746f60448201527f6b656e206f776e6572206f7220617070726f76656420666f7220616c6c0000006064820152608490fd5b9050600052600560205260406000203360005260205260ff6040600020541684611bc2565b60405162461bcd60e51b815260206004820152602160248201527f4552433732313a20617070726f76616c20746f2063757272656e74206f776e656044820152603960f91b6064820152608490fd5b3461024e57602036600319011261024e5760206110af6004356122ec565b3461024e57600036600319011261024e5760405160008054611d35816120ce565b808452906001908181169081156109a35750600114611d5e576103d38461093681860382611f61565b600080805292507f290decd9548b62a8d60345a988386fc84ba6bc95484008f6362f93160ef3e5635b828410611d9f57505050810160200161093682610926565b80546020858701810191909152909301928101611d87565b3461024e5760206118a5611dca36611e55565b906129af565b3461024e57602036600319011261024e576004359063ffffffff60e01b821680920361024e57602091632483248360e11b8114908115611e12575b5015158152f35b6380ac58cd60e01b811491508115611e44575b8115611e33575b5083611e0b565b6301ffc9a760e01b14905083611e2c565b635b5e139f60e01b81149150611e25565b604090600319011261024e576004359060243590565b60005b838110611e7e5750506000910152565b8181015183820152602001611e6e565b90602091611ea781518092818552858086019101611e6b565b601f01601f1916010190565b600435906001600160a01b038216820361024e57565b604435906001600160a01b038216820361024e57565b602435906001600160a01b038216820361024e57565b606090600319011261024e576001600160a01b0390600435828116810361024e5791602435908116810361024e579060443590565b61010081019081106001600160401b03821117610d6157604052565b602081019081106001600160401b03821117610d6157604052565b90601f801991011681019081106001600160401b03821117610d6157604052565b6001600160401b038111610d615760051b60200190565b6001600160401b038111610d6157601f01601f191660200190565b929192611fc082611f99565b91611fce6040519384611f61565b82948184528183011161024e578281602093846000960137010152565b9080601f8301121561024e5781602061200693359101611fb4565b90565b6020908160408183019282815285518094520193019160005b828110612030575050505090565b835185529381019392810192600101612022565b805482101561205c5760005260206000200190600090565b634e487b7160e01b600052603260045260246000fd5b9081526001600160a01b039182166020820152911660408201526060810191909152901515608082015290151560a082015261010060c082018190526120069391926120c091840190611e8e565b9160e0818403910152611e8e565b90600182811c921680156120fe575b60208310146120e857565b634e487b7160e01b600052602260045260246000fd5b91607f16916120dd565b906040519182600082549261211c846120ce565b90818452600194858116908160001461218b5750600114612148575b505061214692500383611f61565b565b9093915060005260209081600020936000915b81831061217357505061214693508201013880612138565b8554888401850152948501948794509183019161215b565b91505061214694506020925060ff191682840152151560051b8201013880612138565b6007546001600160a01b031633036121c257565b606460405162461bcd60e51b815260206004820152602060248201527f4f776e61626c653a2063616c6c6572206973206e6f7420746865206f776e65726044820152fd5b6001600160a01b0316801561222657600052600360205260406000205490565b60405162461bcd60e51b815260206004820152602960248201527f4552433732313a2061646472657373207a65726f206973206e6f7420612076616044820152683634b21037bbb732b960b91b6064820152608490fd5b1561228457565b60405162461bcd60e51b815260206004820152601860248201527f4552433732313a20696e76616c696420746f6b656e20494400000000000000006044820152606490fd5b6000908152600260205260409020546001600160a01b031661200681151561227d565b60008181526002602052604090205461230f906001600160a01b0316151561227d565b6000908152600460205260409020546001600160a01b031690565b805468010000000000000000811015610d615761234c91600182018155612044565b819291549060031b91821b91600019901b1916179055565b60405161237081611f46565b6000808252926001600160a01b03831692831561243557816107e494612146966123b86123b284600052600260205260018060a01b0360406000205416151590565b156124f0565b6000838152600260205260409020546123db906001600160a01b031615156123b2565b81815260036020526040812060018154019055828152600260205260408120826001600160601b0360a01b8254161790557fddf252ad1be2c89b69c2b068fc378daa952ba7f163c4a11628f55a4df523b3ef8180a461253c565b606460405162461bcd60e51b815260206004820152602060248201527f4552433732313a206d696e7420746f20746865207a65726f20616464726573736044820152fd5b60809060208152603260208201527f4552433732313a207472616e7366657220746f206e6f6e20455243373231526560408201527131b2b4bb32b91034b6b83632b6b2b73a32b960711b60608201520190565b156124d357565b60405162461bcd60e51b8152806124ec60048201612479565b0390fd5b156124f757565b60405162461bcd60e51b815260206004820152601c60248201527f4552433732313a20746f6b656e20616c7265616479206d696e746564000000006044820152606490fd5b9192600092909190803b156126525761258a946040518092630a85bd0160e11b9485835233600484015287602484015260448301526080606483015281878160209a8b966084830190611e8e565b03926001600160a01b03165af184918161260e575b506125fd575050503d6000146125f5573d6125b981611f99565b906125c76040519283611f61565b81528091833d92013e5b805191826125f25760405162461bcd60e51b8152806124ec60048201612479565b01fd5b5060606125d1565b6001600160e01b0319161492509050565b9091508581813d831161264b575b6126268183611f61565b8101031261264757516001600160e01b03198116810361264757903861259f565b8480fd5b503d61261c565b5050915050600190565b9293600093909291803b156126dc579484916126b69660405180948193630a85bd0160e11b9788845233600485015260018060a01b0380921660248501526044840152608060648401528260209b8c976084830190611e8e565b0393165af184918161260e57506125fd575050503d6000146125f5573d6125b981611f99565b505050915050600190565b6000818152600260205260409020549192916001600160a01b031615612879576000908082526020916006835260408120908551906001600160401b0382116128655761273483546120ce565b601f8111612822575b508490601f831160011461279e57907ff8e1a15aba9398e019f0b49df1a4fde98ee17ae345cb5f6b5e2c27f5033e8ce7969783612793575b50508160011b916000199060031b1c19161790555b604051908152a1565b015190503880612775565b9196601f198816848452868420935b81811061280b57509160019391897ff8e1a15aba9398e019f0b49df1a4fde98ee17ae345cb5f6b5e2c27f5033e8ce7999a94106127f2575b505050811b01905561278a565b015160001960f88460031b161c191690553880806127e5565b9293876001819287860151815501950193016127ad565b838252858220601f840160051c81019187851061285b575b601f0160051c01905b818110612850575061273d565b828155600101612843565b909150819061283a565b634e487b7160e01b81526041600452602490fd5b60405162461bcd60e51b815260206004820152602e60248201527f45524337323155524953746f726167653a2055524920736574206f66206e6f6e60448201526d32bc34b9ba32b73a103a37b5b2b760911b6064820152608490fd5b906128df82611f82565b6128ec6040519182611f61565b82815280926128fd601f1991611f82565b0190602036910137565b600019811461178e5760010190565b805182101561205c5760209160051b010190565b1561293157565b60405162461bcd60e51b8152602060048201526013602482015272151a58dad95d08185b1c9958591e481d5cd959606a1b6044820152606490fd5b1561297357565b60405162461bcd60e51b81526020600482015260146024820152735469636b6574206973206e6f742061637469766560601b6044820152606490fd5b6000818152600260205260409020546001600160a01b031615612a7a57600052600a6020526040600020604051916129e683611f2a565b8154835260018060a01b03806001840154166020850152600283015416604084015260038201546060840152600482015492612a506006608083019460ff87161515865260ff60a085019760081c1615158752612a4560058201612108565b60c085015201612108565b60e082015251149182612a6f575b5081612a68575090565b9050511590565b511515915038612a5e565b5050600090565b15612a8857565b60405162461bcd60e51b8152602060048201526015602482015274151a58dad95d08191bd95cc81b9bdd08195e1a5cdd605a1b6044820152606490fd5b15612acc57565b60405162461bcd60e51b815260206004820152600d60248201526c2737ba103a34329037bbb732b960991b6044820152606490fd5b15612b0857565b60405162461bcd60e51b815260206004820152601f60248201527f43616e6e6f74207472616e7366657220746f207a65726f2061646472657373006044820152606490fd5b15612b5457565b60405162461bcd60e51b815260206004820152602d60248201527f4552433732313a2063616c6c6572206973206e6f7420746f6b656e206f776e6560448201526c1c881bdc88185c1c1c9bdd9959609a1b6064820152608490fd5b906001600160a01b038080612bc3846122c9565b16931691838314938415612bf6575b508315612be0575b50505090565b612bec919293506122ec565b1614388080612bda565b909350600052600560205260406000208260005260205260ff604060002054169238612bd2565b15612c2457565b60405162461bcd60e51b815260206004820152602560248201527f4552433732313a207472616e736665722066726f6d20696e636f72726563742060448201526437bbb732b960d91b6064820152608490fd5b90612c9f91612c85846122c9565b6001600160a01b0393918416928492909183168414612c1d565b16918215612d375781612cbc91612cb5866122c9565b1614612c1d565b7fddf252ad1be2c89b69c2b068fc378daa952ba7f163c4a11628f55a4df523b3ef60008481526004602052604081206001600160601b0360a01b9081815416905583825260036020526040822060001981540190558482526040822060018154019055858252600260205284604083209182541617905580a4565b60405162461bcd60e51b8152602060048201526024808201527f4552433732313a207472616e7366657220746f20746865207a65726f206164646044820152637265737360e01b6064820152608490fdfea2646970667358221220376c0131d5544346dc8b0d2bcc43bd4781ac02f98ad3a4e7f69cbad51bed4b7764736f6c63430008130033","opcodes":"PUSH1 0x80 CALLVALUE PUSH3 0x35F JUMPI PUSH1 0x1 PUSH1 0x1 PUSH1 0x40 SHL SUB SWAP1 PUSH1 0x40 SWAP1 DUP1 DUP3 ADD DUP4 DUP2 GT DUP3 DUP3 LT OR PUSH3 0x349 JUMPI DUP3 MSTORE PUSH1 0xB DUP2 MSTORE PUSH1 0x20 SWAP2 PUSH11 0x115D995B9D151A58DAD95D PUSH1 0xAA SHL DUP4 DUP4 ADD MSTORE DUP1 MLOAD SWAP4 DUP2 DUP6 ADD DUP6 DUP2 LT DUP3 DUP3 GT OR PUSH3 0x349 JUMPI DUP3 MSTORE PUSH1 0x4 DUP6 MSTORE PUSH4 0x115512D5 PUSH1 0xE2 SHL DUP5 DUP7 ADD MSTORE DUP3 MLOAD DUP2 DUP2 GT PUSH3 0x349 JUMPI PUSH1 0x0 SWAP5 DUP6 SLOAD SWAP2 PUSH1 0x1 SWAP6 DUP7 DUP5 DUP2 SHR SWAP5 AND DUP1 ISZERO PUSH3 0x33E JUMPI JUMPDEST DUP4 DUP6 LT EQ PUSH3 0x32A JUMPI DUP2 SWAP1 PUSH1 0x1F SWAP5 DUP6 DUP2 GT PUSH3 0x2D7 JUMPI JUMPDEST POP DUP4 SWAP1 DUP6 DUP4 GT PUSH1 0x1 EQ PUSH3 0x273 JUMPI DUP10 SWAP3 PUSH3 0x267 JUMPI JUMPDEST POP POP PUSH1 0x0 NOT PUSH1 0x3 DUP4 SWAP1 SHL SHR NOT AND SWAP1 DUP7 SHL OR DUP7 SSTORE JUMPDEST DUP7 MLOAD SWAP3 DUP4 GT PUSH3 0x253 JUMPI DUP5 SLOAD DUP6 DUP2 DUP2 SHR SWAP2 AND DUP1 ISZERO PUSH3 0x248 JUMPI JUMPDEST DUP3 DUP3 LT EQ PUSH3 0x234 JUMPI DUP3 DUP2 GT PUSH3 0x1EC JUMPI JUMPDEST POP DUP1 SWAP2 DUP4 GT PUSH1 0x1 EQ PUSH3 0x183 JUMPI POP DUP5 SWAP6 DUP3 SWAP4 SWAP5 SWAP6 SWAP3 PUSH3 0x177 JUMPI JUMPDEST POP POP PUSH1 0x0 NOT PUSH1 0x3 DUP4 SWAP1 SHL SHR NOT AND SWAP1 DUP4 SHL OR DUP3 SSTORE JUMPDEST PUSH1 0x7 DUP1 SLOAD CALLER PUSH1 0x1 PUSH1 0x1 PUSH1 0xA0 SHL SUB NOT DUP3 AND DUP2 OR SWAP1 SWAP3 SSTORE SWAP2 MLOAD SWAP4 SWAP1 SWAP2 PUSH1 0x1 PUSH1 0x1 PUSH1 0xA0 SHL SUB AND SWAP1 PUSH32 0x8BE0079C531659141344CD1FD0A4F28419497F9722A3DAAFE3B4186F6B6457E0 SWAP1 DUP1 LOG3 PUSH1 0x8 SSTORE PUSH2 0x2DBE SWAP1 DUP2 PUSH3 0x365 DUP3 CODECOPY RETURN JUMPDEST ADD MLOAD SWAP1 POP CODESIZE DUP1 PUSH3 0x10B JUMP JUMPDEST SWAP1 PUSH1 0x1F NOT DUP4 AND SWAP7 DUP6 DUP8 MSTORE DUP3 DUP8 KECCAK256 SWAP3 DUP8 SWAP1 JUMPDEST DUP10 DUP3 LT PUSH3 0x1D4 JUMPI POP POP DUP4 DUP7 SWAP8 SWAP9 SWAP7 SWAP6 SWAP7 LT PUSH3 0x1BA JUMPI JUMPDEST POP POP POP DUP2 SHL ADD DUP3 SSTORE PUSH3 0x11F JUMP JUMPDEST ADD MLOAD PUSH1 0x0 NOT PUSH1 0xF8 DUP5 PUSH1 0x3 SHL AND SHR NOT AND SWAP1 SSTORE CODESIZE DUP1 DUP1 PUSH3 0x1AC JUMP JUMPDEST DUP1 DUP9 DUP6 SWAP7 DUP3 SWAP5 SWAP7 DUP7 ADD MLOAD DUP2 SSTORE ADD SWAP6 ADD SWAP4 ADD SWAP1 PUSH3 0x194 JUMP JUMPDEST DUP6 DUP8 MSTORE DUP2 DUP8 KECCAK256 DUP4 DUP1 DUP7 ADD PUSH1 0x5 SHR DUP3 ADD SWAP3 DUP5 DUP8 LT PUSH3 0x22A JUMPI JUMPDEST ADD PUSH1 0x5 SHR ADD SWAP1 DUP7 SWAP1 JUMPDEST DUP3 DUP2 LT PUSH3 0x21E JUMPI POP POP PUSH3 0xF0 JUMP JUMPDEST DUP9 DUP2 SSTORE ADD DUP7 SWAP1 PUSH3 0x20E JUMP JUMPDEST SWAP3 POP DUP2 SWAP3 PUSH3 0x205 JUMP JUMPDEST PUSH4 0x4E487B71 PUSH1 0xE0 SHL DUP8 MSTORE PUSH1 0x22 PUSH1 0x4 MSTORE PUSH1 0x24 DUP8 REVERT JUMPDEST SWAP1 PUSH1 0x7F AND SWAP1 PUSH3 0xDE JUMP JUMPDEST PUSH4 0x4E487B71 PUSH1 0xE0 SHL DUP7 MSTORE PUSH1 0x41 PUSH1 0x4 MSTORE PUSH1 0x24 DUP7 REVERT JUMPDEST ADD MLOAD SWAP1 POP CODESIZE DUP1 PUSH3 0xB0 JUMP JUMPDEST DUP10 DUP1 MSTORE DUP5 DUP11 KECCAK256 DUP10 SWAP5 POP SWAP2 SWAP1 PUSH1 0x1F NOT DUP5 AND DUP12 JUMPDEST DUP8 DUP3 DUP3 LT PUSH3 0x2C0 JUMPI POP POP DUP5 GT PUSH3 0x2A6 JUMPI JUMPDEST POP POP POP DUP2 SHL ADD DUP7 SSTORE PUSH3 0xC4 JUMP JUMPDEST ADD MLOAD PUSH1 0x0 NOT PUSH1 0xF8 DUP5 PUSH1 0x3 SHL AND SHR NOT AND SWAP1 SSTORE CODESIZE DUP1 DUP1 PUSH3 0x298 JUMP JUMPDEST DUP4 DUP6 ADD MLOAD DUP7 SSTORE DUP13 SWAP8 SWAP1 SWAP6 ADD SWAP5 SWAP4 DUP5 ADD SWAP4 ADD PUSH3 0x285 JUMP JUMPDEST SWAP1 SWAP2 POP DUP9 DUP1 MSTORE DUP4 DUP10 KECCAK256 DUP6 DUP1 DUP6 ADD PUSH1 0x5 SHR DUP3 ADD SWAP3 DUP7 DUP7 LT PUSH3 0x320 JUMPI JUMPDEST SWAP2 DUP11 SWAP2 DUP7 SWAP6 SWAP5 SWAP4 ADD PUSH1 0x5 SHR ADD SWAP2 JUMPDEST DUP3 DUP2 LT PUSH3 0x311 JUMPI POP POP PUSH3 0x9A JUMP JUMPDEST DUP12 DUP2 SSTORE DUP6 SWAP5 POP DUP11 SWAP2 ADD PUSH3 0x301 JUMP JUMPDEST SWAP3 POP DUP2 SWAP3 PUSH3 0x2F3 JUMP JUMPDEST PUSH4 0x4E487B71 PUSH1 0xE0 SHL DUP9 MSTORE PUSH1 0x22 PUSH1 0x4 MSTORE PUSH1 0x24 DUP9 REVERT JUMPDEST SWAP4 PUSH1 0x7F AND SWAP4 PUSH3 0x83 JUMP JUMPDEST PUSH4 0x4E487B71 PUSH1 0xE0 SHL PUSH1 0x0 MSTORE PUSH1 0x41 PUSH1 0x4 MSTORE PUSH1 0x24 PUSH1 0x0 REVERT JUMPDEST PUSH1 0x0 DUP1 REVERT INVALID PUSH1 0x80 DUP1 PUSH1 0x40 MSTORE PUSH1 0x4 CALLDATASIZE LT ISZERO PUSH2 0x13 JUMPI PUSH1 0x0 DUP1 REVERT JUMPDEST PUSH1 0x0 CALLDATALOAD PUSH1 0xE0 SHR SWAP1 DUP2 PUSH4 0x1FFC9A7 EQ PUSH2 0x1DD0 JUMPI POP DUP1 PUSH4 0x3446B18 EQ PUSH2 0x1DB7 JUMPI DUP1 PUSH4 0x6FDDE03 EQ PUSH2 0x1D14 JUMPI DUP1 PUSH4 0x81812FC EQ PUSH2 0x1CF6 JUMPI DUP1 PUSH4 0x95EA7B3 EQ PUSH2 0x1B7C JUMPI DUP1 PUSH4 0x18160DDD EQ PUSH2 0x1B5E JUMPI DUP1 PUSH4 0x23B872DD EQ PUSH2 0x1AC9 JUMPI DUP1 PUSH4 0x26606448 EQ PUSH2 0x19CE JUMPI DUP1 PUSH4 0x42842E0E EQ PUSH2 0x18AF JUMPI DUP1 PUSH4 0x4F558E79 EQ PUSH2 0x1873 JUMPI DUP1 PUSH4 0x51858E27 EQ PUSH2 0x1858 JUMPI DUP1 PUSH4 0x5A7B914C EQ PUSH2 0x10C1 JUMPI DUP1 PUSH4 0x6352211E EQ PUSH2 0x1091 JUMPI DUP1 PUSH4 0x67AA23E2 EQ PUSH2 0xFB6 JUMPI DUP1 PUSH4 0x70A08231 EQ PUSH2 0xF8B JUMPI DUP1 PUSH4 0x715018A6 EQ PUSH2 0xF2E JUMPI DUP1 PUSH4 0x71EFDC21 EQ PUSH2 0xEFD JUMPI DUP1 PUSH4 0x779CEA77 EQ PUSH2 0xEBE JUMPI DUP1 PUSH4 0x7F677BD0 EQ PUSH2 0x9F3 JUMPI DUP1 PUSH4 0x8DA5CB5B EQ PUSH2 0x9CA JUMPI DUP1 PUSH4 0x95D89B41 EQ PUSH2 0x8EB JUMPI DUP1 PUSH4 0xA22CB465 EQ PUSH2 0x810 JUMPI DUP1 PUSH4 0xB88D4FDE EQ PUSH2 0x6F7 JUMPI DUP1 PUSH4 0xBA0AE43C EQ PUSH2 0x604 JUMPI DUP1 PUSH4 0xC87B56DD EQ PUSH2 0x592 JUMPI DUP1 PUSH4 0xCA261CE1 EQ PUSH2 0x51C JUMPI DUP1 PUSH4 0xDFE6B5D6 EQ PUSH2 0x456 JUMPI DUP1 PUSH4 0xE274FD24 EQ PUSH2 0x42D JUMPI DUP1 PUSH4 0xE985E9C5 EQ PUSH2 0x3D7 JUMPI DUP1 PUSH4 0xEA05FC51 EQ PUSH2 0x35A JUMPI DUP1 PUSH4 0xEE355B1F EQ PUSH2 0x27C JUMPI DUP1 PUSH4 0xF1C6BDF8 EQ PUSH2 0x253 JUMPI PUSH4 0xF2FDE38B EQ PUSH2 0x18A JUMPI PUSH1 0x0 DUP1 REVERT JUMPDEST CALLVALUE PUSH2 0x24E JUMPI PUSH1 0x20 CALLDATASIZE PUSH1 0x3 NOT ADD SLT PUSH2 0x24E JUMPI PUSH2 0x1A3 PUSH2 0x1EB3 JUMP JUMPDEST PUSH2 0x1AB PUSH2 0x21AE JUMP JUMPDEST PUSH1 0x1 PUSH1 0x1 PUSH1 0xA0 SHL SUB SWAP1 DUP2 AND SWAP1 DUP2 ISZERO PUSH2 0x1FA JUMPI PUSH1 0x7 SLOAD DUP3 PUSH1 0x1 PUSH1 0x1 PUSH1 0x60 SHL SUB PUSH1 0xA0 SHL DUP3 AND OR PUSH1 0x7 SSTORE AND PUSH32 0x8BE0079C531659141344CD1FD0A4F28419497F9722A3DAAFE3B4186F6B6457E0 PUSH1 0x0 DUP1 LOG3 STOP JUMPDEST PUSH1 0x40 MLOAD PUSH3 0x461BCD PUSH1 0xE5 SHL DUP2 MSTORE PUSH1 0x20 PUSH1 0x4 DUP3 ADD MSTORE PUSH1 0x26 PUSH1 0x24 DUP3 ADD MSTORE PUSH32 0x4F776E61626C653A206E6577206F776E657220697320746865207A65726F2061 PUSH1 0x44 DUP3 ADD MSTORE PUSH6 0x646472657373 PUSH1 0xD0 SHL PUSH1 0x64 DUP3 ADD MSTORE PUSH1 0x84 SWAP1 REVERT JUMPDEST PUSH1 0x0 DUP1 REVERT JUMPDEST CALLVALUE PUSH2 0x24E JUMPI PUSH1 0x0 CALLDATASIZE PUSH1 0x3 NOT ADD SLT PUSH2 0x24E JUMPI PUSH1 0xE SLOAD PUSH1 0x40 MLOAD PUSH1 0x1 PUSH1 0x1 PUSH1 0xA0 SHL SUB SWAP1 SWAP2 AND DUP2 MSTORE PUSH1 0x20 SWAP1 RETURN JUMPDEST CALLVALUE PUSH2 0x24E JUMPI PUSH1 0x20 CALLDATASIZE PUSH1 0x3 NOT ADD SLT PUSH2 0x24E JUMPI PUSH1 0x4 CALLDATALOAD PUSH2 0x298 PUSH2 0x21AE JUMP JUMPDEST PUSH1 0x0 DUP2 DUP2 MSTORE PUSH1 0x2 PUSH1 0x20 MSTORE PUSH1 0x40 SWAP1 KECCAK256 SLOAD PUSH2 0x2BB SWAP1 PUSH1 0x1 PUSH1 0x1 PUSH1 0xA0 SHL SUB AND ISZERO ISZERO PUSH2 0x2A81 JUMP JUMPDEST DUP1 PUSH1 0x0 MSTORE PUSH1 0xA PUSH1 0x20 MSTORE PUSH1 0xFF PUSH1 0x4 PUSH1 0x40 PUSH1 0x0 KECCAK256 ADD SLOAD AND PUSH2 0x315 JUMPI DUP1 PUSH1 0x0 MSTORE PUSH1 0xA PUSH1 0x20 MSTORE PUSH1 0x4 PUSH1 0x40 PUSH1 0x0 KECCAK256 ADD PUSH2 0xFF00 NOT DUP2 SLOAD AND SWAP1 SSTORE PUSH32 0x90A5808BE5F77B4A2E0AA0389F433983252AABF738204C5C421FC59E5ECDAEEA PUSH1 0x0 DUP1 LOG2 STOP JUMPDEST PUSH1 0x40 MLOAD PUSH3 0x461BCD PUSH1 0xE5 SHL DUP2 MSTORE PUSH1 0x20 PUSH1 0x4 DUP3 ADD MSTORE PUSH1 0x19 PUSH1 0x24 DUP3 ADD MSTORE PUSH32 0x43616E6E6F742063616E63656C2075736564207469636B657400000000000000 PUSH1 0x44 DUP3 ADD MSTORE PUSH1 0x64 SWAP1 REVERT JUMPDEST CALLVALUE PUSH2 0x24E JUMPI PUSH1 0x20 CALLDATASIZE PUSH1 0x3 NOT ADD SLT PUSH2 0x24E JUMPI PUSH1 0x4 CALLDATALOAD PUSH1 0x0 MSTORE PUSH1 0xA PUSH1 0x20 MSTORE PUSH1 0x40 PUSH1 0x0 KECCAK256 DUP1 SLOAD PUSH2 0x3D3 PUSH1 0x1 DUP1 PUSH1 0xA0 SHL SUB SWAP2 DUP3 PUSH1 0x1 DUP6 ADD SLOAD AND SWAP3 PUSH1 0x2 DUP6 ADD SLOAD AND SWAP4 PUSH1 0x3 DUP2 ADD SLOAD SWAP2 PUSH1 0x4 DUP3 ADD SLOAD SWAP1 PUSH2 0x3BB PUSH1 0x6 PUSH2 0x3B4 PUSH1 0x5 DUP7 ADD PUSH2 0x2108 JUMP JUMPDEST SWAP5 ADD PUSH2 0x2108 JUMP JUMPDEST SWAP4 PUSH1 0x40 MLOAD SWAP8 DUP9 SWAP8 PUSH1 0xFF DUP1 DUP7 PUSH1 0x8 SHR AND SWAP6 AND SWAP4 DUP10 PUSH2 0x2072 JUMP JUMPDEST SUB SWAP1 RETURN JUMPDEST CALLVALUE PUSH2 0x24E JUMPI PUSH1 0x40 CALLDATASIZE PUSH1 0x3 NOT ADD SLT PUSH2 0x24E JUMPI PUSH2 0x3F0 PUSH2 0x1EB3 JUMP JUMPDEST PUSH2 0x3F8 PUSH2 0x1EDF JUMP JUMPDEST SWAP1 PUSH1 0x1 DUP1 PUSH1 0xA0 SHL SUB DUP1 SWAP2 AND PUSH1 0x0 MSTORE PUSH1 0x5 PUSH1 0x20 MSTORE PUSH1 0x40 PUSH1 0x0 KECCAK256 SWAP2 AND PUSH1 0x0 MSTORE PUSH1 0x20 MSTORE PUSH1 0x20 PUSH1 0xFF PUSH1 0x40 PUSH1 0x0 KECCAK256 SLOAD AND PUSH1 0x40 MLOAD SWAP1 ISZERO ISZERO DUP2 MSTORE RETURN JUMPDEST CALLVALUE PUSH2 0x24E JUMPI PUSH1 0x0 CALLDATASIZE PUSH1 0x3 NOT ADD SLT PUSH2 0x24E JUMPI PUSH1 0xD SLOAD PUSH1 0x40 MLOAD PUSH1 0x1 PUSH1 0x1 PUSH1 0xA0 SHL SUB SWAP1 SWAP2 AND DUP2 MSTORE PUSH1 0x20 SWAP1 RETURN JUMPDEST CALLVALUE PUSH2 0x24E JUMPI PUSH1 0x0 CALLDATASIZE PUSH1 0x3 NOT ADD SLT PUSH2 0x24E JUMPI PUSH1 0x9 SLOAD PUSH1 0x0 SWAP1 DUP2 PUSH1 0x1 JUMPDEST DUP3 DUP2 GT ISZERO PUSH2 0x490 JUMPI POP SWAP2 PUSH1 0x60 SWAP3 PUSH1 0x40 MLOAD SWAP3 DUP4 MSTORE PUSH1 0x20 DUP4 ADD MSTORE PUSH1 0x40 DUP3 ADD MSTORE RETURN JUMPDEST PUSH1 0x0 DUP2 DUP2 MSTORE PUSH1 0x2 PUSH1 0x20 MSTORE PUSH1 0x40 SWAP1 KECCAK256 SLOAD PUSH1 0x1 PUSH1 0x1 PUSH1 0xA0 SHL SUB AND PUSH2 0x4BB JUMPI JUMPDEST PUSH2 0x4B6 SWAP1 PUSH2 0x2907 JUMP JUMPDEST PUSH2 0x471 JUMP JUMPDEST SWAP3 DUP4 PUSH1 0x0 MSTORE PUSH1 0xA PUSH1 0x20 MSTORE PUSH1 0x4 PUSH1 0x40 PUSH1 0x0 KECCAK256 ADD SLOAD PUSH1 0xFF SWAP1 DUP2 DUP2 AND PUSH1 0x0 EQ PUSH2 0x4F2 JUMPI POP POP PUSH2 0x4E9 PUSH2 0x4B6 SWAP2 PUSH2 0x2907 JUMP JUMPDEST SWAP4 JUMPDEST SWAP1 POP PUSH2 0x4AD JUMP JUMPDEST PUSH1 0x8 SWAP6 SWAP3 SWAP6 SHR AND PUSH2 0x507 JUMPI JUMPDEST PUSH2 0x4B6 SWAP1 PUSH2 0x4EB JUMP JUMPDEST SWAP1 PUSH2 0x514 PUSH2 0x4B6 SWAP2 PUSH2 0x2907 JUMP JUMPDEST SWAP2 SWAP1 POP PUSH2 0x4FE JUMP JUMPDEST CALLVALUE PUSH2 0x24E JUMPI PUSH1 0x20 DUP1 PUSH1 0x3 NOT CALLDATASIZE ADD SLT PUSH2 0x24E JUMPI PUSH1 0x4 CALLDATALOAD PUSH1 0x0 MSTORE PUSH1 0xB DUP2 MSTORE PUSH1 0x40 PUSH1 0x0 KECCAK256 SWAP1 PUSH1 0x40 MLOAD SWAP1 DUP2 DUP2 DUP5 SLOAD SWAP2 DUP3 DUP2 MSTORE ADD SWAP4 PUSH1 0x0 MSTORE DUP2 PUSH1 0x0 KECCAK256 SWAP2 PUSH1 0x0 SWAP1 JUMPDEST DUP3 DUP3 LT PUSH2 0x57B JUMPI PUSH2 0x3D3 DUP6 PUSH2 0x56F DUP2 DUP10 SUB DUP3 PUSH2 0x1F61 JUMP JUMPDEST PUSH1 0x40 MLOAD SWAP2 DUP3 SWAP2 DUP3 PUSH2 0x2009 JUMP JUMPDEST DUP4 SLOAD DUP7 MSTORE SWAP5 DUP6 ADD SWAP5 PUSH1 0x1 SWAP4 DUP5 ADD SWAP4 SWAP1 SWAP2 ADD SWAP1 PUSH2 0x558 JUMP JUMPDEST CALLVALUE PUSH2 0x24E JUMPI PUSH1 0x20 CALLDATASIZE PUSH1 0x3 NOT ADD SLT PUSH2 0x24E JUMPI PUSH1 0x4 CALLDATALOAD PUSH1 0x0 DUP2 DUP2 MSTORE PUSH1 0x2 PUSH1 0x20 MSTORE PUSH1 0x40 SWAP1 KECCAK256 SLOAD PUSH2 0x5C9 SWAP1 PUSH1 0x1 PUSH1 0x1 PUSH1 0xA0 SHL SUB AND ISZERO ISZERO PUSH2 0x227D JUMP JUMPDEST PUSH1 0x0 MSTORE PUSH1 0x6 PUSH1 0x20 MSTORE PUSH2 0x3D3 PUSH2 0x5E1 PUSH1 0x40 PUSH1 0x0 KECCAK256 PUSH2 0x2108 JUMP JUMPDEST PUSH1 0x0 PUSH1 0x40 MLOAD PUSH2 0x5EF DUP2 PUSH2 0x1F46 JUMP JUMPDEST MSTORE PUSH1 0x40 MLOAD SWAP2 DUP3 SWAP2 PUSH1 0x20 DUP4 MSTORE PUSH1 0x20 DUP4 ADD SWAP1 PUSH2 0x1E8E JUMP JUMPDEST CALLVALUE PUSH2 0x24E JUMPI PUSH1 0x20 CALLDATASIZE PUSH1 0x3 NOT ADD SLT PUSH2 0x24E JUMPI PUSH1 0x4 CALLDATALOAD PUSH1 0x0 DUP2 DUP2 MSTORE PUSH1 0x2 PUSH1 0x20 MSTORE PUSH1 0x40 SWAP1 KECCAK256 SLOAD PUSH2 0x63B SWAP1 PUSH1 0x1 PUSH1 0x1 PUSH1 0xA0 SHL SUB AND ISZERO ISZERO PUSH2 0x2A81 JUMP JUMPDEST PUSH1 0x0 MSTORE PUSH1 0xA PUSH1 0x20 MSTORE PUSH1 0x40 PUSH1 0x0 KECCAK256 PUSH1 0x40 MLOAD PUSH2 0x654 DUP2 PUSH2 0x1F2A JUMP JUMPDEST DUP2 SLOAD DUP2 MSTORE PUSH2 0x3D3 PUSH1 0x1 DUP1 PUSH1 0xA0 SHL SUB SWAP2 DUP3 PUSH1 0x1 DUP6 ADD SLOAD AND SWAP3 PUSH1 0x20 DUP3 ADD SWAP4 DUP5 MSTORE DUP1 PUSH1 0x2 DUP7 ADD SLOAD AND SWAP5 PUSH1 0x40 DUP4 ADD SWAP6 DUP7 MSTORE PUSH1 0x3 DUP2 ADD SLOAD SWAP2 PUSH1 0x60 DUP5 ADD SWAP3 DUP4 MSTORE PUSH1 0x4 DUP3 ADD SLOAD SWAP1 PUSH1 0x80 DUP6 ADD SWAP1 PUSH1 0xFF DUP4 AND ISZERO ISZERO DUP3 MSTORE PUSH1 0xFF PUSH1 0xA0 DUP8 ADD SWAP4 PUSH1 0x8 SHR AND ISZERO ISZERO DUP4 MSTORE DUP1 PUSH2 0x6D0 PUSH1 0x6 PUSH2 0x6C2 PUSH1 0x5 DUP9 ADD PUSH2 0x2108 JUMP JUMPDEST SWAP7 PUSH1 0xC0 DUP11 ADD SWAP8 DUP9 MSTORE ADD PUSH2 0x2108 JUMP JUMPDEST SWAP7 DUP8 PUSH1 0xE0 DUP3 ADD MSTORE MLOAD SWAP9 MLOAD AND SWAP9 MLOAD AND SWAP4 MLOAD SWAP1 MLOAD ISZERO ISZERO SWAP2 MLOAD ISZERO ISZERO SWAP3 MLOAD SWAP4 PUSH1 0x40 MLOAD SWAP9 DUP10 SWAP9 DUP10 PUSH2 0x2072 JUMP JUMPDEST CALLVALUE PUSH2 0x24E JUMPI PUSH1 0x80 CALLDATASIZE PUSH1 0x3 NOT ADD SLT PUSH2 0x24E JUMPI PUSH2 0x710 PUSH2 0x1EB3 JUMP JUMPDEST PUSH2 0x718 PUSH2 0x1EDF JUMP JUMPDEST PUSH1 0x44 CALLDATALOAD PUSH1 0x64 CALLDATALOAD PUSH1 0x1 PUSH1 0x1 PUSH1 0x40 SHL SUB DUP2 GT PUSH2 0x24E JUMPI CALLDATASIZE PUSH1 0x23 DUP3 ADD SLT ISZERO PUSH2 0x24E JUMPI PUSH2 0x7E4 PUSH2 0x751 PUSH2 0x7E9 SWAP3 CALLDATASIZE SWAP1 PUSH1 0x24 DUP2 PUSH1 0x4 ADD CALLDATALOAD SWAP2 ADD PUSH2 0x1FB4 JUMP JUMPDEST DUP4 PUSH1 0x0 MSTORE PUSH1 0xA PUSH1 0x20 MSTORE PUSH2 0x76F PUSH1 0xFF PUSH1 0x4 PUSH1 0x40 PUSH1 0x0 KECCAK256 ADD SLOAD AND ISZERO PUSH2 0x292A JUMP JUMPDEST DUP4 PUSH1 0x0 MSTORE PUSH1 0xA PUSH1 0x20 MSTORE PUSH2 0x78F PUSH1 0xFF PUSH1 0x4 PUSH1 0x40 PUSH1 0x0 KECCAK256 ADD SLOAD PUSH1 0x8 SHR AND PUSH2 0x296C JUMP JUMPDEST PUSH1 0x1 PUSH1 0x1 PUSH1 0xA0 SHL SUB SWAP5 DUP5 SWAP1 DUP7 PUSH2 0x7A4 DUP4 PUSH2 0x22C9 JUMP JUMPDEST AND SWAP7 PUSH2 0x7B4 DUP2 DUP11 AND SWAP9 DUP10 EQ PUSH2 0x2AC5 JUMP JUMPDEST DUP2 AND SWAP8 PUSH2 0x7C2 DUP10 ISZERO ISZERO PUSH2 0x2B01 JUMP JUMPDEST PUSH2 0x7D4 PUSH2 0x7CF DUP5 CALLER PUSH2 0x2BAF JUMP JUMPDEST PUSH2 0x2B4D JUMP JUMPDEST PUSH2 0x7DF DUP4 DUP4 DUP4 PUSH2 0x2C77 JUMP JUMPDEST PUSH2 0x265C JUMP JUMPDEST PUSH2 0x24CC JUMP JUMPDEST PUSH32 0xD15524263AE66F75C1E604C47DB6085085110F23EF7322B355179AC5E3B0783A PUSH1 0x0 DUP1 LOG4 STOP JUMPDEST CALLVALUE PUSH2 0x24E JUMPI PUSH1 0x40 CALLDATASIZE PUSH1 0x3 NOT ADD SLT PUSH2 0x24E JUMPI PUSH2 0x829 PUSH2 0x1EB3 JUMP JUMPDEST PUSH1 0x24 CALLDATALOAD SWAP1 DUP2 ISZERO ISZERO SWAP1 DUP2 DUP4 SUB PUSH2 0x24E JUMPI PUSH1 0x1 PUSH1 0x1 PUSH1 0xA0 SHL SUB AND SWAP2 CALLER DUP4 EQ PUSH2 0x8A6 JUMPI PUSH2 0x878 SWAP1 CALLER PUSH1 0x0 MSTORE PUSH1 0x5 PUSH1 0x20 MSTORE PUSH1 0x40 PUSH1 0x0 KECCAK256 DUP5 PUSH1 0x0 MSTORE PUSH1 0x20 MSTORE PUSH1 0x40 PUSH1 0x0 KECCAK256 SWAP1 PUSH1 0xFF DUP1 NOT DUP4 SLOAD AND SWAP2 ISZERO ISZERO AND OR SWAP1 SSTORE JUMP JUMPDEST PUSH1 0x40 MLOAD SWAP1 DUP2 MSTORE PUSH32 0x17307EAB39AB6107E8899845AD3D59BD9653F200F220920489CA2B5937696C31 PUSH1 0x20 CALLER SWAP3 LOG3 STOP JUMPDEST PUSH1 0x40 MLOAD PUSH3 0x461BCD PUSH1 0xE5 SHL DUP2 MSTORE PUSH1 0x20 PUSH1 0x4 DUP3 ADD MSTORE PUSH1 0x19 PUSH1 0x24 DUP3 ADD MSTORE PUSH32 0x4552433732313A20617070726F766520746F2063616C6C657200000000000000 PUSH1 0x44 DUP3 ADD MSTORE PUSH1 0x64 SWAP1 REVERT JUMPDEST CALLVALUE PUSH2 0x24E JUMPI PUSH1 0x0 CALLDATASIZE PUSH1 0x3 NOT ADD SLT PUSH2 0x24E JUMPI PUSH1 0x40 MLOAD PUSH1 0x0 PUSH1 0x1 DUP1 SLOAD SWAP1 PUSH2 0x90F DUP3 PUSH2 0x20CE JUMP JUMPDEST DUP1 DUP6 MSTORE SWAP2 DUP2 DUP2 AND SWAP1 DUP2 ISZERO PUSH2 0x9A3 JUMPI POP PUSH1 0x1 EQ PUSH2 0x94A JUMPI JUMPDEST PUSH2 0x3D3 DUP5 PUSH2 0x936 DUP2 DUP7 SUB DUP3 PUSH2 0x1F61 JUMP JUMPDEST PUSH1 0x40 MLOAD SWAP2 DUP3 SWAP2 PUSH1 0x20 DUP4 MSTORE PUSH1 0x20 DUP4 ADD SWAP1 PUSH2 0x1E8E JUMP JUMPDEST PUSH1 0x0 DUP2 DUP2 MSTORE SWAP3 POP PUSH32 0xB10E2D527612073B26EECDFD717E6A320CF44B4AFAC2B0732D9FCBE2B7FA0CF6 JUMPDEST DUP3 DUP5 LT PUSH2 0x98B JUMPI POP POP POP DUP2 ADD PUSH1 0x20 ADD PUSH2 0x936 DUP3 PUSH2 0x926 JUMP JUMPDEST DUP1 SLOAD PUSH1 0x20 DUP6 DUP8 ADD DUP2 ADD SWAP2 SWAP1 SWAP2 MSTORE SWAP1 SWAP4 ADD SWAP3 DUP2 ADD PUSH2 0x973 JUMP JUMPDEST PUSH1 0xFF NOT AND PUSH1 0x20 DUP1 DUP8 ADD SWAP2 SWAP1 SWAP2 MSTORE SWAP3 ISZERO ISZERO PUSH1 0x5 SHL DUP6 ADD SWAP1 SWAP3 ADD SWAP3 POP PUSH2 0x936 SWAP2 POP DUP4 SWAP1 POP PUSH2 0x926 JUMP JUMPDEST CALLVALUE PUSH2 0x24E JUMPI PUSH1 0x0 CALLDATASIZE PUSH1 0x3 NOT ADD SLT PUSH2 0x24E JUMPI PUSH1 0x7 SLOAD PUSH1 0x40 MLOAD PUSH1 0x1 PUSH1 0x1 PUSH1 0xA0 SHL SUB SWAP1 SWAP2 AND DUP2 MSTORE PUSH1 0x20 SWAP1 RETURN JUMPDEST CALLVALUE PUSH2 0x24E JUMPI PUSH1 0xC0 CALLDATASIZE PUSH1 0x3 NOT ADD SLT PUSH2 0x24E JUMPI PUSH2 0xA0C PUSH2 0x1EB3 JUMP JUMPDEST PUSH2 0xA14 PUSH2 0x1EC9 JUMP JUMPDEST SWAP1 PUSH1 0x64 CALLDATALOAD PUSH1 0x1 PUSH1 0x1 PUSH1 0x40 SHL SUB DUP2 GT PUSH2 0x24E JUMPI PUSH2 0xA34 SWAP1 CALLDATASIZE SWAP1 PUSH1 0x4 ADD PUSH2 0x1FEB JUMP JUMPDEST PUSH1 0x84 CALLDATALOAD PUSH1 0x1 PUSH1 0x1 PUSH1 0x40 SHL SUB DUP2 GT PUSH2 0x24E JUMPI PUSH2 0xA53 SWAP1 CALLDATASIZE SWAP1 PUSH1 0x4 ADD PUSH2 0x1FEB JUMP JUMPDEST PUSH1 0xA4 CALLDATALOAD PUSH1 0x1 PUSH1 0x1 PUSH1 0x40 SHL SUB DUP2 GT PUSH2 0x24E JUMPI PUSH2 0xA72 SWAP1 CALLDATASIZE SWAP1 PUSH1 0x4 ADD PUSH2 0x1FEB JUMP JUMPDEST SWAP2 PUSH2 0xA7B PUSH2 0x21AE JUMP JUMPDEST PUSH1 0xD SLOAD PUSH1 0x1 PUSH1 0x1 PUSH1 0xA0 SHL SUB AND DUP1 ISZERO PUSH2 0xE81 JUMPI PUSH1 0x1 PUSH1 0x1 PUSH1 0xA0 SHL SUB DUP7 AND SUB PUSH2 0xE3C JUMPI PUSH2 0xABA PUSH1 0x1 PUSH1 0x9 SLOAD ADD SWAP4 DUP5 PUSH1 0x9 SSTORE PUSH2 0xAB4 DUP6 DUP8 PUSH2 0x2364 JUMP JUMPDEST DUP5 PUSH2 0x26E7 JUMP JUMPDEST PUSH1 0x40 MLOAD SWAP5 PUSH2 0xAC7 DUP7 PUSH2 0x1F2A JUMP JUMPDEST PUSH1 0x24 CALLDATALOAD DUP7 MSTORE PUSH1 0x1 DUP1 PUSH1 0xA0 SHL SUB AND PUSH1 0x20 DUP7 ADD MSTORE PUSH1 0x1 DUP1 PUSH1 0xA0 SHL SUB DUP5 AND PUSH1 0x40 DUP7 ADD MSTORE TIMESTAMP PUSH1 0x60 DUP7 ADD MSTORE PUSH1 0x0 PUSH1 0x80 DUP7 ADD MSTORE PUSH1 0x1 PUSH1 0xA0 DUP7 ADD MSTORE PUSH1 0xC0 DUP6 ADD MSTORE PUSH1 0xE0 DUP5 ADD MSTORE DUP1 PUSH1 0x0 MSTORE PUSH1 0xA PUSH1 0x20 MSTORE PUSH1 0x40 PUSH1 0x0 KECCAK256 DUP4 MLOAD DUP2 SSTORE PUSH1 0x1 DUP2 ADD PUSH1 0x1 DUP1 PUSH1 0xA0 SHL SUB PUSH1 0x20 DUP7 ADD MLOAD AND SWAP1 PUSH1 0x1 PUSH1 0x1 PUSH1 0x60 SHL SUB PUSH1 0xA0 SHL SWAP2 DUP3 DUP3 SLOAD AND OR SWAP1 SSTORE PUSH1 0x2 DUP3 ADD SWAP1 PUSH1 0x1 DUP1 PUSH1 0xA0 SHL SUB PUSH1 0x40 DUP8 ADD MLOAD AND SWAP1 DUP3 SLOAD AND OR SWAP1 SSTORE PUSH1 0x60 DUP5 ADD MLOAD PUSH1 0x3 DUP3 ADD SSTORE PUSH2 0xB9D PUSH1 0x4 DUP3 ADD PUSH2 0xB82 PUSH1 0x80 DUP8 ADD MLOAD ISZERO ISZERO DUP3 SWAP1 PUSH1 0xFF DUP1 NOT DUP4 SLOAD AND SWAP2 ISZERO ISZERO AND OR SWAP1 SSTORE JUMP JUMPDEST PUSH1 0xA0 DUP7 ADD MLOAD DUP2 SLOAD PUSH2 0xFF00 NOT AND SWAP1 ISZERO ISZERO PUSH1 0x8 SHL PUSH2 0xFF00 AND OR SWAP1 SSTORE JUMP JUMPDEST PUSH1 0xC0 DUP5 ADD MLOAD DUP1 MLOAD SWAP1 PUSH1 0x1 PUSH1 0x1 PUSH1 0x40 SHL SUB DUP3 GT PUSH2 0xD61 JUMPI PUSH2 0xBC0 PUSH1 0x5 DUP5 ADD SLOAD PUSH2 0x20CE JUMP JUMPDEST PUSH1 0x1F DUP2 GT PUSH2 0xDF5 JUMPI JUMPDEST POP PUSH1 0x20 SWAP1 PUSH1 0x1F DUP4 GT PUSH1 0x1 EQ PUSH2 0xD82 JUMPI SWAP2 DUP1 PUSH1 0xE0 SWAP5 SWAP3 PUSH1 0x6 SWAP5 PUSH1 0x0 SWAP3 PUSH2 0xD77 JUMPI JUMPDEST POP POP DUP2 PUSH1 0x1 SHL SWAP2 PUSH1 0x0 NOT SWAP1 PUSH1 0x3 SHL SHR NOT AND OR PUSH1 0x5 DUP3 ADD SSTORE JUMPDEST ADD SWAP4 ADD MLOAD SWAP3 DUP4 MLOAD PUSH1 0x1 PUSH1 0x1 PUSH1 0x40 SHL SUB DUP2 GT PUSH2 0xD61 JUMPI PUSH2 0xC20 DUP3 SLOAD PUSH2 0x20CE JUMP JUMPDEST PUSH1 0x1F DUP2 GT PUSH2 0xD19 JUMPI JUMPDEST POP DUP1 PUSH1 0x20 SWAP6 DUP7 SWAP1 PUSH1 0x1F DUP4 GT PUSH1 0x1 EQ PUSH2 0xCB5 JUMPI PUSH1 0x0 SWAP3 PUSH2 0xCAA JUMPI JUMPDEST POP POP DUP2 PUSH1 0x1 SHL SWAP2 PUSH1 0x0 NOT SWAP1 PUSH1 0x3 SHL SHR NOT AND OR SWAP1 SSTORE JUMPDEST PUSH1 0x24 CALLDATALOAD PUSH1 0x0 MSTORE PUSH1 0xB DUP4 MSTORE PUSH2 0xC70 DUP2 PUSH1 0x40 PUSH1 0x0 KECCAK256 PUSH2 0x232A JUMP JUMPDEST PUSH1 0x40 MLOAD SWAP2 PUSH1 0x1 PUSH1 0x1 PUSH1 0xA0 SHL SUB AND PUSH1 0x24 CALLDATALOAD DUP3 PUSH32 0x85EC0EFF4BF526B0DD054ADFFCD8BD8DA42126A1133CE302042973F32029FB0 PUSH1 0x0 DUP1 LOG4 DUP2 MSTORE RETURN JUMPDEST ADD MLOAD SWAP1 POP DUP7 DUP1 PUSH2 0xC43 JUMP JUMPDEST PUSH1 0x0 DUP6 DUP2 MSTORE DUP9 DUP2 KECCAK256 SWAP4 POP PUSH1 0x1F NOT DUP6 AND SWAP1 JUMPDEST DUP2 DUP2 LT PUSH2 0xD02 JUMPI POP SWAP1 DUP5 PUSH1 0x1 SWAP6 SWAP5 SWAP4 SWAP3 LT PUSH2 0xCE9 JUMPI JUMPDEST POP POP POP DUP2 SHL ADD SWAP1 SSTORE PUSH2 0xC58 JUMP JUMPDEST ADD MLOAD PUSH1 0x0 NOT PUSH1 0xF8 DUP5 PUSH1 0x3 SHL AND SHR NOT AND SWAP1 SSTORE DUP7 DUP1 DUP1 PUSH2 0xCDC JUMP JUMPDEST SWAP3 SWAP4 DUP10 PUSH1 0x1 DUP2 SWAP3 DUP8 DUP7 ADD MLOAD DUP2 SSTORE ADD SWAP6 ADD SWAP4 ADD PUSH2 0xCC6 JUMP JUMPDEST DUP3 PUSH1 0x0 MSTORE PUSH1 0x20 PUSH1 0x0 KECCAK256 PUSH1 0x1F DUP4 ADD PUSH1 0x5 SHR DUP2 ADD SWAP2 PUSH1 0x20 DUP5 LT PUSH2 0xD57 JUMPI JUMPDEST PUSH1 0x1F ADD PUSH1 0x5 SHR ADD SWAP1 JUMPDEST DUP2 DUP2 LT PUSH2 0xD4B JUMPI POP PUSH2 0xC29 JUMP JUMPDEST PUSH1 0x0 DUP2 SSTORE PUSH1 0x1 ADD PUSH2 0xD3E JUMP JUMPDEST SWAP1 SWAP2 POP DUP2 SWAP1 PUSH2 0xD35 JUMP JUMPDEST PUSH4 0x4E487B71 PUSH1 0xE0 SHL PUSH1 0x0 MSTORE PUSH1 0x41 PUSH1 0x4 MSTORE PUSH1 0x24 PUSH1 0x0 REVERT JUMPDEST ADD MLOAD SWAP1 POP DUP9 DUP1 PUSH2 0xBE9 JUMP JUMPDEST SWAP1 PUSH1 0x1F NOT DUP4 AND SWAP2 PUSH1 0x5 DUP6 ADD PUSH1 0x0 MSTORE PUSH1 0x20 PUSH1 0x0 KECCAK256 SWAP3 PUSH1 0x0 JUMPDEST DUP2 DUP2 LT PUSH2 0xDDD JUMPI POP SWAP3 PUSH1 0x1 SWAP3 DUP6 SWAP3 PUSH1 0x6 SWAP7 PUSH1 0xE0 SWAP9 SWAP7 LT PUSH2 0xDC4 JUMPI JUMPDEST POP POP POP DUP2 SHL ADD PUSH1 0x5 DUP3 ADD SSTORE PUSH2 0xC01 JUMP JUMPDEST ADD MLOAD PUSH1 0x0 NOT PUSH1 0xF8 DUP5 PUSH1 0x3 SHL AND SHR NOT AND SWAP1 SSTORE DUP9 DUP1 DUP1 PUSH2 0xDB4 JUMP JUMPDEST SWAP3 SWAP4 PUSH1 0x20 PUSH1 0x1 DUP2 SWAP3 DUP8 DUP7 ADD MLOAD DUP2 SSTORE ADD SWAP6 ADD SWAP4 ADD PUSH2 0xD99 JUMP JUMPDEST PUSH1 0x5 DUP5 ADD PUSH1 0x0 MSTORE PUSH1 0x20 PUSH1 0x0 KECCAK256 PUSH1 0x1F DUP5 ADD PUSH1 0x5 SHR DUP2 ADD PUSH1 0x20 DUP6 LT PUSH2 0xE35 JUMPI JUMPDEST PUSH1 0x1F DUP4 ADD PUSH1 0x5 SHR DUP3 ADD DUP2 LT PUSH2 0xE29 JUMPI POP POP PUSH2 0xBC9 JUMP JUMPDEST PUSH1 0x0 DUP2 SSTORE PUSH1 0x1 ADD PUSH2 0xE13 JUMP JUMPDEST POP DUP1 PUSH2 0xE13 JUMP JUMPDEST PUSH1 0x40 MLOAD PUSH3 0x461BCD PUSH1 0xE5 SHL DUP2 MSTORE PUSH1 0x20 PUSH1 0x4 DUP3 ADD MSTORE PUSH1 0x1E PUSH1 0x24 DUP3 ADD MSTORE PUSH32 0x496E76616C6964206576656E7420636F6E747261637420616464726573730000 PUSH1 0x44 DUP3 ADD MSTORE PUSH1 0x64 SWAP1 REVERT JUMPDEST PUSH1 0x40 MLOAD PUSH3 0x461BCD PUSH1 0xE5 SHL DUP2 MSTORE PUSH1 0x20 PUSH1 0x4 DUP3 ADD MSTORE PUSH1 0x15 PUSH1 0x24 DUP3 ADD MSTORE PUSH21 0x115D995B9D10DBDB9D1C9858DD081B9BDD081CD95D PUSH1 0x5A SHL PUSH1 0x44 DUP3 ADD MSTORE PUSH1 0x64 SWAP1 REVERT JUMPDEST CALLVALUE PUSH2 0x24E JUMPI PUSH2 0xECC CALLDATASIZE PUSH2 0x1E55 JUMP JUMPDEST SWAP1 PUSH1 0x0 MSTORE PUSH1 0xB PUSH1 0x20 MSTORE PUSH1 0x40 PUSH1 0x0 KECCAK256 DUP1 SLOAD DUP3 LT ISZERO PUSH2 0x24E JUMPI PUSH1 0x20 SWAP2 PUSH2 0xEEF SWAP2 PUSH2 0x2044 JUMP JUMPDEST SWAP1 SLOAD PUSH1 0x40 MLOAD SWAP2 PUSH1 0x3 SHL SHR DUP2 MSTORE RETURN JUMPDEST CALLVALUE PUSH2 0x24E JUMPI PUSH1 0x20 CALLDATASIZE PUSH1 0x3 NOT ADD SLT PUSH2 0x24E JUMPI PUSH1 0x4 CALLDATALOAD PUSH1 0x0 MSTORE PUSH1 0xC PUSH1 0x20 MSTORE PUSH1 0x20 PUSH1 0xFF PUSH1 0x40 PUSH1 0x0 KECCAK256 SLOAD AND PUSH1 0x40 MLOAD SWAP1 ISZERO ISZERO DUP2 MSTORE RETURN JUMPDEST CALLVALUE PUSH2 0x24E JUMPI PUSH1 0x0 CALLDATASIZE PUSH1 0x3 NOT ADD SLT PUSH2 0x24E JUMPI PUSH2 0xF47 PUSH2 0x21AE JUMP JUMPDEST PUSH1 0x7 DUP1 SLOAD PUSH1 0x1 PUSH1 0x1 PUSH1 0xA0 SHL SUB NOT DUP2 AND SWAP1 SWAP2 SSTORE PUSH1 0x0 SWAP1 PUSH1 0x1 PUSH1 0x1 PUSH1 0xA0 SHL SUB AND PUSH32 0x8BE0079C531659141344CD1FD0A4F28419497F9722A3DAAFE3B4186F6B6457E0 DUP3 DUP1 LOG3 STOP JUMPDEST CALLVALUE PUSH2 0x24E JUMPI PUSH1 0x20 CALLDATASIZE PUSH1 0x3 NOT ADD SLT PUSH2 0x24E JUMPI PUSH1 0x20 PUSH2 0xFAE PUSH2 0xFA9 PUSH2 0x1EB3 JUMP JUMPDEST PUSH2 0x2206 JUMP JUMPDEST PUSH1 0x40 MLOAD SWAP1 DUP2 MSTORE RETURN JUMPDEST CALLVALUE PUSH2 0x24E JUMPI PUSH1 0x20 CALLDATASIZE PUSH1 0x3 NOT ADD SLT PUSH2 0x24E JUMPI PUSH2 0xFCF PUSH2 0x1EB3 JUMP JUMPDEST PUSH2 0xFD8 DUP2 PUSH2 0x2206 JUMP JUMPDEST PUSH2 0xFE1 DUP2 PUSH2 0x28D5 JUMP JUMPDEST SWAP1 PUSH1 0x9 SLOAD SWAP1 PUSH1 0x0 SWAP1 PUSH1 0x1 SWAP3 DUP4 DUP1 JUMPDEST PUSH2 0x1002 JUMPI JUMPDEST PUSH1 0x40 MLOAD DUP1 PUSH2 0x3D3 DUP9 DUP3 PUSH2 0x2009 JUMP JUMPDEST DUP2 DUP2 GT ISZERO DUP1 PUSH2 0x1088 JUMPI JUMPDEST ISZERO PUSH2 0x1083 JUMPI PUSH1 0x0 DUP2 DUP2 MSTORE PUSH1 0x2 PUSH1 0x20 MSTORE PUSH1 0x40 SWAP1 KECCAK256 SLOAD PUSH1 0x1 PUSH1 0x1 PUSH1 0xA0 SHL SUB AND ISZERO ISZERO DUP1 PUSH2 0x1066 JUMPI JUMPDEST PUSH2 0x1045 JUMPI JUMPDEST PUSH2 0x103F SWAP1 PUSH2 0x2907 JUMP JUMPDEST DUP5 PUSH2 0xFEF JUMP JUMPDEST SWAP3 PUSH2 0x105E DUP2 DUP6 PUSH2 0x1058 PUSH2 0x103F SWAP5 DUP11 PUSH2 0x2916 JUMP JUMPDEST MSTORE PUSH2 0x2907 JUMP JUMPDEST SWAP4 SWAP1 POP PUSH2 0x1036 JUMP JUMPDEST POP PUSH2 0x1070 DUP2 PUSH2 0x22C9 JUMP JUMPDEST PUSH1 0x1 PUSH1 0x1 PUSH1 0xA0 SHL SUB DUP9 DUP2 AND SWAP2 AND EQ PUSH2 0x1031 JUMP JUMPDEST PUSH2 0xFF4 JUMP JUMPDEST POP DUP3 DUP5 LT PUSH2 0x100C JUMP JUMPDEST CALLVALUE PUSH2 0x24E JUMPI PUSH1 0x20 CALLDATASIZE PUSH1 0x3 NOT ADD SLT PUSH2 0x24E JUMPI PUSH1 0x20 PUSH2 0x10AF PUSH1 0x4 CALLDATALOAD PUSH2 0x22C9 JUMP JUMPDEST PUSH1 0x40 MLOAD PUSH1 0x1 PUSH1 0x1 PUSH1 0xA0 SHL SUB SWAP1 SWAP2 AND DUP2 MSTORE RETURN JUMPDEST CALLVALUE PUSH2 0x24E JUMPI PUSH1 0xC0 CALLDATASIZE PUSH1 0x3 NOT ADD SLT PUSH2 0x24E JUMPI PUSH1 0x4 CALLDATALOAD PUSH1 0x1 PUSH1 0x1 PUSH1 0x40 SHL SUB DUP2 GT PUSH2 0x24E JUMPI CALLDATASIZE PUSH1 0x23 DUP3 ADD SLT ISZERO PUSH2 0x24E JUMPI DUP1 PUSH1 0x4 ADD CALLDATALOAD PUSH2 0x10FC DUP2 PUSH2 0x1F82 JUMP JUMPDEST SWAP2 PUSH2 0x110A PUSH1 0x40 MLOAD SWAP4 DUP5 PUSH2 0x1F61 JUMP JUMPDEST DUP2 DUP4 MSTORE PUSH1 0x24 PUSH1 0x20 DUP5 ADD SWAP3 PUSH1 0x5 SHL DUP3 ADD ADD SWAP1 CALLDATASIZE DUP3 GT PUSH2 0x24E JUMPI PUSH1 0x24 ADD SWAP2 JUMPDEST DUP2 DUP4 LT PUSH2 0x1838 JUMPI DUP4 PUSH2 0x1137 PUSH2 0x1EC9 JUMP JUMPDEST SWAP1 PUSH1 0x64 CALLDATALOAD SWAP1 PUSH1 0x1 PUSH1 0x1 PUSH1 0x40 SHL SUB DUP3 GT PUSH2 0x24E JUMPI CALLDATASIZE PUSH1 0x23 DUP4 ADD SLT ISZERO PUSH2 0x24E JUMPI DUP2 PUSH1 0x4 ADD CALLDATALOAD PUSH2 0x1163 DUP2 PUSH2 0x1F82 JUMP JUMPDEST SWAP3 PUSH2 0x1171 PUSH1 0x40 MLOAD SWAP5 DUP6 PUSH2 0x1F61 JUMP JUMPDEST DUP2 DUP5 MSTORE PUSH1 0x24 PUSH1 0x20 DUP6 ADD SWAP3 PUSH1 0x5 SHL DUP3 ADD ADD SWAP1 CALLDATASIZE DUP3 GT PUSH2 0x24E JUMPI PUSH1 0x24 DUP2 ADD SWAP3 JUMPDEST DUP3 DUP5 LT PUSH2 0x1809 JUMPI POP POP POP POP PUSH1 0x84 CALLDATALOAD PUSH1 0x1 PUSH1 0x1 PUSH1 0x40 SHL SUB DUP2 GT PUSH2 0x24E JUMPI PUSH2 0x11B9 SWAP1 CALLDATASIZE SWAP1 PUSH1 0x4 ADD PUSH2 0x1FEB JUMP JUMPDEST PUSH1 0xA4 CALLDATALOAD PUSH1 0x1 PUSH1 0x1 PUSH1 0x40 SHL SUB DUP2 GT PUSH2 0x24E JUMPI PUSH2 0x11D8 SWAP1 CALLDATASIZE SWAP1 PUSH1 0x4 ADD PUSH2 0x1FEB JUMP JUMPDEST SWAP2 PUSH2 0x11E1 PUSH2 0x21AE JUMP JUMPDEST DUP1 MLOAD DUP5 MLOAD SUB PUSH2 0x17B2 JUMPI PUSH2 0x11F4 DUP2 MLOAD PUSH2 0x28D5 JUMP JUMPDEST SWAP2 PUSH1 0x0 SWAP5 JUMPDEST DUP3 MLOAD DUP7 LT ISZERO PUSH2 0x17A4 JUMPI PUSH1 0x9 SWAP5 PUSH1 0x1 DUP7 SLOAD ADD DUP1 SWAP7 SSTORE PUSH1 0x1 DUP8 ADD DUP8 GT PUSH2 0x178E JUMPI PUSH1 0x0 PUSH1 0x1 DUP9 ADD DUP1 PUSH27 0x184F03E93FF9F4DAA797ED6E38ED64BF6A1F010000000000000000 DUP1 DUP3 LT ISZERO PUSH2 0x177C JUMPI JUMPDEST POP PUSH1 0xA SWAP1 PUSH14 0x4EE2D6D415B85ACEF8100000000 DUP1 DUP3 LT ISZERO PUSH2 0x176F JUMPI JUMPDEST POP PUSH7 0x2386F26FC10000 DUP1 DUP3 LT ISZERO PUSH2 0x1762 JUMPI JUMPDEST POP PUSH4 0x5F5E100 DUP1 DUP3 LT ISZERO PUSH2 0x1755 JUMPI JUMPDEST POP PUSH2 0x2710 DUP1 DUP3 LT ISZERO PUSH2 0x1748 JUMPI JUMPDEST POP PUSH1 0x64 DUP2 LT ISZERO PUSH2 0x173A JUMPI JUMPDEST LT ISZERO PUSH2 0x1730 JUMPI JUMPDEST PUSH1 0xA PUSH1 0x21 PUSH2 0x12AF PUSH1 0x1 DUP6 ADD PUSH2 0x1F99 JUMP JUMPDEST SWAP4 PUSH2 0x12BD PUSH1 0x40 MLOAD SWAP6 DUP7 PUSH2 0x1F61 JUMP JUMPDEST PUSH1 0x1 DUP2 ADD DUP1 DUP7 MSTORE PUSH1 0x1F NOT SWAP1 PUSH2 0x12D1 SWAP1 PUSH2 0x1F99 JUMP JUMPDEST ADD CALLDATASIZE PUSH1 0x20 DUP8 ADD CALLDATACOPY DUP5 ADD ADD JUMPDEST PUSH1 0x0 NOT ADD SWAP2 PUSH16 0x181899199A1A9B1B9C1CB0B131B232B3 PUSH1 0x81 SHL DUP3 DUP3 MOD BYTE DUP4 MSTORE8 DIV SWAP1 DUP2 ISZERO PUSH2 0x130B JUMPI PUSH1 0xA SWAP1 PUSH2 0x12DC JUMP JUMPDEST POP POP PUSH2 0x1386 SWAP1 SWAP8 SWAP3 SWAP8 SWAP7 SWAP2 SWAP7 PUSH2 0x1363 PUSH1 0x21 PUSH1 0x40 MLOAD DUP1 SWAP4 DUP12 PUSH2 0x1335 DUP2 MLOAD DUP1 SWAP3 PUSH1 0x20 DUP1 DUP8 ADD SWAP2 ADD PUSH2 0x1E6B JUMP JUMPDEST DUP3 ADD PUSH1 0x2F PUSH1 0xF8 SHL PUSH1 0x20 DUP3 ADD MSTORE PUSH2 0x1354 DUP3 MLOAD DUP1 SWAP4 PUSH1 0x20 DUP8 DUP6 ADD SWAP2 ADD PUSH2 0x1E6B JUMP JUMPDEST ADD SUB PUSH1 0x1 DUP2 ADD DUP5 MSTORE ADD DUP3 PUSH2 0x1F61 JUMP JUMPDEST PUSH2 0x1380 DUP4 PUSH1 0x1 PUSH1 0x1 PUSH1 0xA0 SHL SUB PUSH2 0x1379 DUP8 DUP11 PUSH2 0x2916 JUMP JUMPDEST MLOAD AND PUSH2 0x2364 JUMP JUMPDEST DUP3 PUSH2 0x26E7 JUMP JUMPDEST PUSH1 0x1 PUSH1 0x1 PUSH1 0xA0 SHL SUB PUSH2 0x1398 DUP4 DUP7 PUSH2 0x2916 JUMP JUMPDEST MLOAD AND PUSH2 0x13A4 DUP4 DUP10 PUSH2 0x2916 JUMP JUMPDEST MLOAD PUSH1 0x40 MLOAD SWAP1 PUSH2 0x13B2 DUP3 PUSH2 0x1F2A JUMP JUMPDEST PUSH1 0x24 CALLDATALOAD DUP3 MSTORE PUSH2 0x147E PUSH1 0x20 DUP4 ADD SWAP4 PUSH1 0x1 DUP1 PUSH1 0xA0 SHL SUB DUP14 AND DUP6 MSTORE PUSH1 0x40 DUP5 ADD SWAP1 DUP2 MSTORE PUSH1 0x60 DUP5 ADD SWAP1 TIMESTAMP DUP3 MSTORE PUSH1 0x80 DUP6 ADD SWAP2 PUSH1 0x0 DUP4 MSTORE PUSH1 0xA0 DUP7 ADD SWAP2 PUSH1 0x1 DUP4 MSTORE PUSH1 0xC0 DUP8 ADD SWAP6 DUP7 MSTORE DUP11 PUSH1 0xE0 DUP9 ADD MSTORE DUP9 PUSH1 0x0 MSTORE PUSH1 0xA PUSH1 0x20 MSTORE PUSH1 0x40 PUSH1 0x0 KECCAK256 SWAP8 DUP8 MLOAD DUP10 SSTORE PUSH1 0x1 DUP10 ADD SWAP1 PUSH1 0x1 DUP1 PUSH1 0xA0 SHL SUB SWAP1 MLOAD AND SWAP1 PUSH1 0x1 PUSH1 0x1 PUSH1 0x60 SHL SUB PUSH1 0xA0 SHL SWAP2 DUP3 DUP3 SLOAD AND OR SWAP1 SSTORE PUSH1 0x2 DUP10 ADD SWAP2 PUSH1 0x1 DUP1 PUSH1 0xA0 SHL SUB SWAP1 MLOAD AND SWAP1 DUP3 SLOAD AND OR SWAP1 SSTORE MLOAD PUSH1 0x3 DUP8 ADD SSTORE PUSH2 0x1467 PUSH1 0x4 DUP8 ADD SWAP3 MLOAD ISZERO ISZERO DUP4 SWAP1 PUSH1 0xFF DUP1 NOT DUP4 SLOAD AND SWAP2 ISZERO ISZERO AND OR SWAP1 SSTORE JUMP JUMPDEST MLOAD DUP2 SLOAD PUSH2 0xFF00 NOT AND SWAP1 ISZERO ISZERO PUSH1 0x8 SHL PUSH2 0xFF00 AND OR SWAP1 SSTORE JUMP JUMPDEST MLOAD DUP1 MLOAD SWAP1 PUSH1 0x1 PUSH1 0x1 PUSH1 0x40 SHL SUB DUP3 GT PUSH2 0xD61 JUMPI PUSH2 0x149D PUSH1 0x5 DUP6 ADD SLOAD PUSH2 0x20CE JUMP JUMPDEST PUSH1 0x1F DUP2 GT PUSH2 0x16E9 JUMPI JUMPDEST POP PUSH1 0x20 SWAP1 PUSH1 0x1F DUP4 GT PUSH1 0x1 EQ PUSH2 0x1676 JUMPI PUSH1 0xE0 SWAP4 SWAP3 SWAP2 PUSH1 0x0 SWAP2 DUP4 PUSH2 0x166B JUMPI JUMPDEST POP POP DUP2 PUSH1 0x1 SHL SWAP2 PUSH1 0x0 NOT SWAP1 PUSH1 0x3 SHL SHR NOT AND OR PUSH1 0x5 DUP5 ADD SSTORE JUMPDEST ADD MLOAD DUP1 MLOAD SWAP1 PUSH1 0x1 PUSH1 0x1 PUSH1 0x40 SHL SUB DUP3 GT PUSH2 0xD61 JUMPI PUSH2 0x14FB PUSH1 0x6 DUP5 ADD SLOAD PUSH2 0x20CE JUMP JUMPDEST PUSH1 0x1F DUP2 GT PUSH2 0x1624 JUMPI JUMPDEST POP PUSH1 0x20 SWAP1 PUSH1 0x1F DUP4 GT PUSH1 0x1 EQ PUSH2 0x15AE JUMPI SWAP2 DUP1 PUSH1 0x6 SWAP3 PUSH2 0x159D SWAP8 SWAP7 SWAP6 SWAP5 PUSH1 0x0 SWAP3 PUSH2 0x15A3 JUMPI JUMPDEST POP POP DUP2 PUSH1 0x1 SHL SWAP2 PUSH1 0x0 NOT SWAP1 PUSH1 0x3 SHL SHR NOT AND OR SWAP2 ADD SSTORE JUMPDEST PUSH1 0x24 CALLDATALOAD PUSH1 0x0 MSTORE PUSH1 0xB PUSH1 0x20 MSTORE PUSH2 0x1556 DUP2 PUSH1 0x40 PUSH1 0x0 KECCAK256 PUSH2 0x232A JUMP JUMPDEST PUSH1 0x1 PUSH1 0x1 PUSH1 0xA0 SHL SUB PUSH2 0x1568 DUP4 DUP8 PUSH2 0x2916 JUMP JUMPDEST MLOAD AND PUSH1 0x24 CALLDATALOAD DUP3 PUSH32 0x85EC0EFF4BF526B0DD054ADFFCD8BD8DA42126A1133CE302042973F32029FB0 PUSH1 0x0 DUP1 LOG4 PUSH2 0x1058 DUP3 DUP8 PUSH2 0x2916 JUMP JUMPDEST SWAP5 PUSH2 0x11F9 JUMP JUMPDEST ADD MLOAD SWAP1 POP DUP14 DUP1 PUSH2 0x1527 JUMP JUMPDEST SWAP1 PUSH1 0x6 DUP5 ADD PUSH1 0x0 MSTORE PUSH1 0x20 PUSH1 0x0 KECCAK256 SWAP2 PUSH1 0x0 JUMPDEST PUSH1 0x1F NOT DUP6 AND DUP2 LT PUSH2 0x160C JUMPI POP SWAP3 PUSH1 0x6 SWAP3 PUSH1 0x1 SWAP3 PUSH2 0x159D SWAP9 SWAP8 SWAP7 SWAP6 DUP4 PUSH1 0x1F NOT DUP2 AND LT PUSH2 0x15F3 JUMPI JUMPDEST POP POP POP DUP2 SHL ADD SWAP2 ADD SSTORE PUSH2 0x153D JUMP JUMPDEST ADD MLOAD PUSH1 0x0 NOT PUSH1 0xF8 DUP5 PUSH1 0x3 SHL AND SHR NOT AND SWAP1 SSTORE DUP14 DUP1 DUP1 PUSH2 0x15E5 JUMP JUMPDEST SWAP2 SWAP3 PUSH1 0x20 PUSH1 0x1 DUP2 SWAP3 DUP7 DUP6 ADD MLOAD DUP2 SSTORE ADD SWAP5 ADD SWAP3 ADD PUSH2 0x15BF JUMP JUMPDEST PUSH1 0x6 DUP5 ADD PUSH1 0x0 MSTORE PUSH1 0x20 PUSH1 0x0 KECCAK256 PUSH1 0x1F DUP5 ADD PUSH1 0x5 SHR DUP2 ADD PUSH1 0x20 DUP6 LT PUSH2 0x1664 JUMPI JUMPDEST PUSH1 0x1F DUP4 ADD PUSH1 0x5 SHR DUP3 ADD DUP2 LT PUSH2 0x1658 JUMPI POP POP PUSH2 0x1504 JUMP JUMPDEST PUSH1 0x0 DUP2 SSTORE PUSH1 0x1 ADD PUSH2 0x1642 JUMP JUMPDEST POP DUP1 PUSH2 0x1642 JUMP JUMPDEST ADD MLOAD SWAP1 POP DUP14 DUP1 PUSH2 0x14C3 JUMP JUMPDEST SWAP1 PUSH1 0x5 DUP6 ADD PUSH1 0x0 MSTORE PUSH1 0x20 PUSH1 0x0 KECCAK256 SWAP2 PUSH1 0x0 JUMPDEST PUSH1 0x1F NOT DUP6 AND DUP2 LT PUSH2 0x16D1 JUMPI POP SWAP2 DUP4 SWAP2 PUSH1 0x1 SWAP4 PUSH1 0xE0 SWAP7 SWAP6 PUSH1 0x1F NOT DUP2 AND LT PUSH2 0x16B8 JUMPI JUMPDEST POP POP POP DUP2 SHL ADD PUSH1 0x5 DUP5 ADD SSTORE PUSH2 0x14DB JUMP JUMPDEST ADD MLOAD PUSH1 0x0 NOT PUSH1 0xF8 DUP5 PUSH1 0x3 SHL AND SHR NOT AND SWAP1 SSTORE DUP14 DUP1 DUP1 PUSH2 0x16A8 JUMP JUMPDEST SWAP2 SWAP3 PUSH1 0x20 PUSH1 0x1 DUP2 SWAP3 DUP7 DUP6 ADD MLOAD DUP2 SSTORE ADD SWAP5 ADD SWAP3 ADD PUSH2 0x1687 JUMP JUMPDEST PUSH1 0x5 DUP6 ADD PUSH1 0x0 MSTORE PUSH1 0x20 PUSH1 0x0 KECCAK256 PUSH1 0x1F DUP5 ADD PUSH1 0x5 SHR DUP2 ADD PUSH1 0x20 DUP6 LT PUSH2 0x1729 JUMPI JUMPDEST PUSH1 0x1F DUP4 ADD PUSH1 0x5 SHR DUP3 ADD DUP2 LT PUSH2 0x171D JUMPI POP POP PUSH2 0x14A6 JUMP JUMPDEST PUSH1 0x0 DUP2 SSTORE PUSH1 0x1 ADD PUSH2 0x1707 JUMP JUMPDEST POP DUP1 PUSH2 0x1707 JUMP JUMPDEST SWAP1 PUSH1 0x1 ADD SWAP1 PUSH2 0x129F JUMP JUMPDEST PUSH1 0x64 PUSH1 0x2 SWAP2 DIV SWAP4 ADD SWAP3 PUSH2 0x1298 JUMP JUMPDEST PUSH1 0x4 SWAP2 DIV SWAP4 ADD SWAP3 DUP13 PUSH2 0x128D JUMP JUMPDEST PUSH1 0x8 SWAP2 DIV SWAP4 ADD SWAP3 DUP13 PUSH2 0x1280 JUMP JUMPDEST PUSH1 0x10 SWAP2 DIV SWAP4 ADD SWAP3 DUP13 PUSH2 0x1271 JUMP JUMPDEST PUSH1 0x20 SWAP2 DIV SWAP4 ADD SWAP3 DUP13 PUSH2 0x125F JUMP JUMPDEST PUSH1 0x40 SWAP4 POP PUSH1 0x1 DUP12 ADD DIV SWAP1 POP PUSH1 0xA PUSH2 0x1243 JUMP JUMPDEST PUSH4 0x4E487B71 PUSH1 0xE0 SHL PUSH1 0x0 MSTORE PUSH1 0x11 PUSH1 0x4 MSTORE PUSH1 0x24 PUSH1 0x0 REVERT JUMPDEST PUSH1 0x40 MLOAD DUP1 PUSH2 0x3D3 DUP7 DUP3 PUSH2 0x2009 JUMP JUMPDEST PUSH1 0x40 MLOAD PUSH3 0x461BCD PUSH1 0xE5 SHL DUP2 MSTORE PUSH1 0x20 PUSH1 0x4 DUP3 ADD MSTORE PUSH1 0x29 PUSH1 0x24 DUP3 ADD MSTORE PUSH32 0x526563697069656E747320616E64207365617420696E666F73206C656E677468 PUSH1 0x44 DUP3 ADD MSTORE PUSH9 0x40DAD2E6DAC2E8C6D PUSH1 0xBB SHL PUSH1 0x64 DUP3 ADD MSTORE PUSH1 0x84 SWAP1 REVERT JUMPDEST DUP4 CALLDATALOAD PUSH1 0x1 PUSH1 0x1 PUSH1 0x40 SHL SUB DUP2 GT PUSH2 0x24E JUMPI PUSH1 0x20 SWAP2 PUSH2 0x182D DUP4 SWAP3 PUSH1 0x24 CALLDATASIZE SWAP2 DUP8 ADD ADD PUSH2 0x1FEB JUMP JUMPDEST DUP2 MSTORE ADD SWAP4 ADD SWAP3 PUSH2 0x118F JUMP JUMPDEST DUP3 CALLDATALOAD PUSH1 0x1 PUSH1 0x1 PUSH1 0xA0 SHL SUB DUP2 AND DUP2 SUB PUSH2 0x24E JUMPI DUP2 MSTORE PUSH1 0x20 SWAP3 DUP4 ADD SWAP3 ADD PUSH2 0x1127 JUMP JUMPDEST CALLVALUE PUSH2 0x24E JUMPI PUSH1 0x0 CALLDATASIZE PUSH1 0x3 NOT ADD SLT PUSH2 0x24E JUMPI PUSH2 0x1871 PUSH2 0x21AE JUMP JUMPDEST STOP JUMPDEST CALLVALUE PUSH2 0x24E JUMPI PUSH1 0x20 CALLDATASIZE PUSH1 0x3 NOT ADD SLT PUSH2 0x24E JUMPI PUSH1 0x4 CALLDATALOAD PUSH1 0x0 SWAP1 DUP2 MSTORE PUSH1 0x2 PUSH1 0x20 SWAP1 DUP2 MSTORE PUSH1 0x40 SWAP1 SWAP2 KECCAK256 SLOAD PUSH1 0x1 PUSH1 0x1 PUSH1 0xA0 SHL SUB AND ISZERO ISZERO JUMPDEST PUSH1 0x40 MLOAD SWAP1 ISZERO ISZERO DUP2 MSTORE RETURN JUMPDEST CALLVALUE PUSH2 0x24E JUMPI PUSH2 0x18BD CALLDATASIZE PUSH2 0x1EF5 JUMP JUMPDEST DUP1 PUSH1 0x0 MSTORE PUSH1 0xA PUSH1 0x20 MSTORE PUSH2 0x18DB PUSH1 0xFF PUSH1 0x4 PUSH1 0x40 PUSH1 0x0 KECCAK256 ADD SLOAD AND ISZERO PUSH2 0x292A JUMP JUMPDEST DUP1 PUSH1 0x0 MSTORE PUSH1 0xA PUSH1 0x20 MSTORE PUSH2 0x18FB PUSH1 0xFF PUSH1 0x4 PUSH1 0x40 PUSH1 0x0 KECCAK256 ADD SLOAD PUSH1 0x8 SHR AND PUSH2 0x296C JUMP JUMPDEST PUSH2 0x199F PUSH2 0x7E4 PUSH1 0x1 PUSH1 0x1 PUSH1 0xA0 SHL SUB DUP4 DUP2 PUSH2 0x1914 DUP3 PUSH2 0x22C9 JUMP JUMPDEST AND SWAP6 PUSH2 0x1924 DUP4 DUP10 AND SWAP8 DUP9 EQ PUSH2 0x2AC5 JUMP JUMPDEST DUP3 DUP2 AND SWAP8 PUSH2 0x7C2 DUP10 ISZERO ISZERO PUSH2 0x1937 DUP2 PUSH2 0x2B01 JUMP JUMPDEST PUSH2 0x199A PUSH1 0x40 MLOAD SWAP7 PUSH2 0x1947 DUP9 PUSH2 0x1F46 JUMP JUMPDEST PUSH1 0x0 DUP9 MSTORE DUP7 PUSH1 0x0 MSTORE PUSH1 0xA PUSH1 0x20 MSTORE PUSH2 0x1969 PUSH1 0xFF PUSH1 0x4 PUSH1 0x40 PUSH1 0x0 KECCAK256 ADD SLOAD AND ISZERO PUSH2 0x292A JUMP JUMPDEST DUP7 PUSH1 0x0 MSTORE PUSH1 0xA PUSH1 0x20 MSTORE PUSH2 0x1989 PUSH1 0xFF PUSH1 0x4 PUSH1 0x40 PUSH1 0x0 KECCAK256 ADD SLOAD PUSH1 0x8 SHR AND PUSH2 0x296C JUMP JUMPDEST PUSH2 0x1992 DUP8 PUSH2 0x22C9 JUMP JUMPDEST AND DUP12 EQ PUSH2 0x2AC5 JUMP JUMPDEST PUSH2 0x2B01 JUMP JUMPDEST PUSH32 0xD15524263AE66F75C1E604C47DB6085085110F23EF7322B355179AC5E3B0783A DUP4 DUP4 DUP4 DUP4 PUSH1 0x0 DUP1 LOG4 PUSH1 0x0 DUP1 LOG4 STOP JUMPDEST CALLVALUE PUSH2 0x24E JUMPI PUSH1 0x20 DUP1 PUSH1 0x3 NOT CALLDATASIZE ADD SLT PUSH2 0x24E JUMPI PUSH1 0x4 CALLDATALOAD SWAP1 PUSH2 0x19ED DUP3 PUSH2 0x22C9 JUMP JUMPDEST CALLER PUSH1 0x1 PUSH1 0x1 PUSH1 0xA0 SHL SUB SWAP1 SWAP2 AND SUB PUSH2 0x1A92 JUMPI DUP2 PUSH1 0x0 MSTORE PUSH1 0xA DUP2 MSTORE PUSH2 0x1A1B PUSH1 0xFF PUSH1 0x4 PUSH1 0x40 PUSH1 0x0 KECCAK256 ADD SLOAD AND ISZERO PUSH2 0x292A JUMP JUMPDEST DUP2 PUSH1 0x0 MSTORE PUSH1 0xA DUP2 MSTORE PUSH2 0x1A3A PUSH1 0xFF PUSH1 0x4 PUSH1 0x40 PUSH1 0x0 KECCAK256 ADD SLOAD PUSH1 0x8 SHR AND PUSH2 0x296C JUMP JUMPDEST DUP2 PUSH1 0x0 MSTORE PUSH1 0xA DUP2 MSTORE PUSH1 0xC PUSH1 0x4 PUSH1 0x40 PUSH1 0x0 KECCAK256 ADD SWAP2 PUSH1 0xFF NOT SWAP3 PUSH1 0x1 DUP5 DUP3 SLOAD AND OR SWAP1 SSTORE MSTORE PUSH1 0x1 PUSH1 0x40 PUSH1 0x0 KECCAK256 SWAP2 DUP3 SLOAD AND OR SWAP1 SSTORE CALLER SWAP1 PUSH32 0x7C2221C844690CB15E32907258D38446CD4A17BC9B84E2069CD955615D547FD PUSH1 0x0 DUP1 LOG3 STOP JUMPDEST PUSH1 0x64 SWAP1 PUSH1 0x40 MLOAD SWAP1 PUSH3 0x461BCD PUSH1 0xE5 SHL DUP3 MSTORE PUSH1 0x4 DUP3 ADD MSTORE PUSH1 0x10 PUSH1 0x24 DUP3 ADD MSTORE PUSH16 0x2737BA103A34B1B5B2BA1037BBB732B9 PUSH1 0x81 SHL PUSH1 0x44 DUP3 ADD MSTORE REVERT JUMPDEST CALLVALUE PUSH2 0x24E JUMPI PUSH2 0x1AD7 CALLDATASIZE PUSH2 0x1EF5 JUMP JUMPDEST DUP1 PUSH1 0x0 MSTORE PUSH1 0xA PUSH1 0x20 MSTORE PUSH2 0x1AF5 PUSH1 0xFF PUSH1 0x4 PUSH1 0x40 PUSH1 0x0 KECCAK256 ADD SLOAD AND ISZERO PUSH2 0x292A JUMP JUMPDEST DUP1 PUSH1 0x0 MSTORE PUSH1 0xA PUSH1 0x20 MSTORE PUSH2 0x1B15 PUSH1 0xFF PUSH1 0x4 PUSH1 0x40 PUSH1 0x0 KECCAK256 ADD SLOAD PUSH1 0x8 SHR AND PUSH2 0x296C JUMP JUMPDEST PUSH1 0x1 PUSH1 0x1 PUSH1 0xA0 SHL SUB SWAP2 PUSH2 0x7E9 SWAP1 DUP3 SWAP1 DUP5 PUSH2 0x1B2E DUP4 PUSH2 0x22C9 JUMP JUMPDEST AND SWAP5 PUSH2 0x1B3E DUP2 DUP9 AND SWAP7 DUP8 EQ PUSH2 0x2AC5 JUMP JUMPDEST DUP2 AND SWAP6 PUSH2 0x1B4C DUP8 ISZERO ISZERO PUSH2 0x2B01 JUMP JUMPDEST PUSH2 0x1B59 PUSH2 0x7CF DUP5 CALLER PUSH2 0x2BAF JUMP JUMPDEST PUSH2 0x2C77 JUMP JUMPDEST CALLVALUE PUSH2 0x24E JUMPI PUSH1 0x0 CALLDATASIZE PUSH1 0x3 NOT ADD SLT PUSH2 0x24E JUMPI PUSH1 0x20 PUSH1 0x9 SLOAD PUSH1 0x40 MLOAD SWAP1 DUP2 MSTORE RETURN JUMPDEST CALLVALUE PUSH2 0x24E JUMPI PUSH1 0x40 CALLDATASIZE PUSH1 0x3 NOT ADD SLT PUSH2 0x24E JUMPI PUSH2 0x1B95 PUSH2 0x1EB3 JUMP JUMPDEST PUSH1 0x24 CALLDATALOAD SWAP1 PUSH1 0x1 PUSH1 0x1 PUSH1 0xA0 SHL SUB DUP1 DUP1 PUSH2 0x1BAC DUP6 PUSH2 0x22C9 JUMP JUMPDEST AND SWAP3 AND SWAP2 DUP1 DUP4 EQ PUSH2 0x1CA7 JUMPI DUP1 CALLER EQ SWAP1 DUP2 ISZERO PUSH2 0x1C82 JUMPI JUMPDEST POP ISZERO PUSH2 0x1C17 JUMPI PUSH1 0x0 DUP4 DUP2 MSTORE PUSH1 0x4 PUSH1 0x20 MSTORE PUSH1 0x40 SWAP1 KECCAK256 DUP1 SLOAD PUSH1 0x1 PUSH1 0x1 PUSH1 0xA0 SHL SUB NOT AND DUP4 OR SWAP1 SSTORE PUSH2 0x1BEF DUP4 PUSH2 0x22C9 JUMP JUMPDEST AND PUSH32 0x8C5BE1E5EBEC7D5BD14F71427D1E84F3DD0314C0F7B2291E5B200AC8C7C3B925 PUSH1 0x0 DUP1 LOG4 STOP JUMPDEST PUSH1 0x40 MLOAD PUSH3 0x461BCD PUSH1 0xE5 SHL DUP2 MSTORE PUSH1 0x20 PUSH1 0x4 DUP3 ADD MSTORE PUSH1 0x3D PUSH1 0x24 DUP3 ADD MSTORE PUSH32 0x4552433732313A20617070726F76652063616C6C6572206973206E6F7420746F PUSH1 0x44 DUP3 ADD MSTORE PUSH32 0x6B656E206F776E6572206F7220617070726F76656420666F7220616C6C000000 PUSH1 0x64 DUP3 ADD MSTORE PUSH1 0x84 SWAP1 REVERT JUMPDEST SWAP1 POP PUSH1 0x0 MSTORE PUSH1 0x5 PUSH1 0x20 MSTORE PUSH1 0x40 PUSH1 0x0 KECCAK256 CALLER PUSH1 0x0 MSTORE PUSH1 0x20 MSTORE PUSH1 0xFF PUSH1 0x40 PUSH1 0x0 KECCAK256 SLOAD AND DUP5 PUSH2 0x1BC2 JUMP JUMPDEST PUSH1 0x40 MLOAD PUSH3 0x461BCD PUSH1 0xE5 SHL DUP2 MSTORE PUSH1 0x20 PUSH1 0x4 DUP3 ADD MSTORE PUSH1 0x21 PUSH1 0x24 DUP3 ADD MSTORE PUSH32 0x4552433732313A20617070726F76616C20746F2063757272656E74206F776E65 PUSH1 0x44 DUP3 ADD MSTORE PUSH1 0x39 PUSH1 0xF9 SHL PUSH1 0x64 DUP3 ADD MSTORE PUSH1 0x84 SWAP1 REVERT JUMPDEST CALLVALUE PUSH2 0x24E JUMPI PUSH1 0x20 CALLDATASIZE PUSH1 0x3 NOT ADD SLT PUSH2 0x24E JUMPI PUSH1 0x20 PUSH2 0x10AF PUSH1 0x4 CALLDATALOAD PUSH2 0x22EC JUMP JUMPDEST CALLVALUE PUSH2 0x24E JUMPI PUSH1 0x0 CALLDATASIZE PUSH1 0x3 NOT ADD SLT PUSH2 0x24E JUMPI PUSH1 0x40 MLOAD PUSH1 0x0 DUP1 SLOAD PUSH2 0x1D35 DUP2 PUSH2 0x20CE JUMP JUMPDEST DUP1 DUP5 MSTORE SWAP1 PUSH1 0x1 SWAP1 DUP2 DUP2 AND SWAP1 DUP2 ISZERO PUSH2 0x9A3 JUMPI POP PUSH1 0x1 EQ PUSH2 0x1D5E JUMPI PUSH2 0x3D3 DUP5 PUSH2 0x936 DUP2 DUP7 SUB DUP3 PUSH2 0x1F61 JUMP JUMPDEST PUSH1 0x0 DUP1 DUP1 MSTORE SWAP3 POP PUSH32 0x290DECD9548B62A8D60345A988386FC84BA6BC95484008F6362F93160EF3E563 JUMPDEST DUP3 DUP5 LT PUSH2 0x1D9F JUMPI POP POP POP DUP2 ADD PUSH1 0x20 ADD PUSH2 0x936 DUP3 PUSH2 0x926 JUMP JUMPDEST DUP1 SLOAD PUSH1 0x20 DUP6 DUP8 ADD DUP2 ADD SWAP2 SWAP1 SWAP2 MSTORE SWAP1 SWAP4 ADD SWAP3 DUP2 ADD PUSH2 0x1D87 JUMP JUMPDEST CALLVALUE PUSH2 0x24E JUMPI PUSH1 0x20 PUSH2 0x18A5 PUSH2 0x1DCA CALLDATASIZE PUSH2 0x1E55 JUMP JUMPDEST SWAP1 PUSH2 0x29AF JUMP JUMPDEST CALLVALUE PUSH2 0x24E JUMPI PUSH1 0x20 CALLDATASIZE PUSH1 0x3 NOT ADD SLT PUSH2 0x24E JUMPI PUSH1 0x4 CALLDATALOAD SWAP1 PUSH4 0xFFFFFFFF PUSH1 0xE0 SHL DUP3 AND DUP1 SWAP3 SUB PUSH2 0x24E JUMPI PUSH1 0x20 SWAP2 PUSH4 0x24832483 PUSH1 0xE1 SHL DUP2 EQ SWAP1 DUP2 ISZERO PUSH2 0x1E12 JUMPI JUMPDEST POP ISZERO ISZERO DUP2 MSTORE RETURN JUMPDEST PUSH4 0x80AC58CD PUSH1 0xE0 SHL DUP2 EQ SWAP2 POP DUP2 ISZERO PUSH2 0x1E44 JUMPI JUMPDEST DUP2 ISZERO PUSH2 0x1E33 JUMPI JUMPDEST POP DUP4 PUSH2 0x1E0B JUMP JUMPDEST PUSH4 0x1FFC9A7 PUSH1 0xE0 SHL EQ SWAP1 POP DUP4 PUSH2 0x1E2C JUMP JUMPDEST PUSH4 0x5B5E139F PUSH1 0xE0 SHL DUP2 EQ SWAP2 POP PUSH2 0x1E25 JUMP JUMPDEST PUSH1 0x40 SWAP1 PUSH1 0x3 NOT ADD SLT PUSH2 0x24E JUMPI PUSH1 0x4 CALLDATALOAD SWAP1 PUSH1 0x24 CALLDATALOAD SWAP1 JUMP JUMPDEST PUSH1 0x0 JUMPDEST DUP4 DUP2 LT PUSH2 0x1E7E JUMPI POP POP PUSH1 0x0 SWAP2 ADD MSTORE JUMP JUMPDEST DUP2 DUP2 ADD MLOAD DUP4 DUP3 ADD MSTORE PUSH1 0x20 ADD PUSH2 0x1E6E JUMP JUMPDEST SWAP1 PUSH1 0x20 SWAP2 PUSH2 0x1EA7 DUP2 MLOAD DUP1 SWAP3 DUP2 DUP6 MSTORE DUP6 DUP1 DUP7 ADD SWAP2 ADD PUSH2 0x1E6B JUMP JUMPDEST PUSH1 0x1F ADD PUSH1 0x1F NOT AND ADD ADD SWAP1 JUMP JUMPDEST PUSH1 0x4 CALLDATALOAD SWAP1 PUSH1 0x1 PUSH1 0x1 PUSH1 0xA0 SHL SUB DUP3 AND DUP3 SUB PUSH2 0x24E JUMPI JUMP JUMPDEST PUSH1 0x44 CALLDATALOAD SWAP1 PUSH1 0x1 PUSH1 0x1 PUSH1 0xA0 SHL SUB DUP3 AND DUP3 SUB PUSH2 0x24E JUMPI JUMP JUMPDEST PUSH1 0x24 CALLDATALOAD SWAP1 PUSH1 0x1 PUSH1 0x1 PUSH1 0xA0 SHL SUB DUP3 AND DUP3 SUB PUSH2 0x24E JUMPI JUMP JUMPDEST PUSH1 0x60 SWAP1 PUSH1 0x3 NOT ADD SLT PUSH2 0x24E JUMPI PUSH1 0x1 PUSH1 0x1 PUSH1 0xA0 SHL SUB SWAP1 PUSH1 0x4 CALLDATALOAD DUP3 DUP2 AND DUP2 SUB PUSH2 0x24E JUMPI SWAP2 PUSH1 0x24 CALLDATALOAD SWAP1 DUP2 AND DUP2 SUB PUSH2 0x24E JUMPI SWAP1 PUSH1 0x44 CALLDATALOAD SWAP1 JUMP JUMPDEST PUSH2 0x100 DUP2 ADD SWAP1 DUP2 LT PUSH1 0x1 PUSH1 0x1 PUSH1 0x40 SHL SUB DUP3 GT OR PUSH2 0xD61 JUMPI PUSH1 0x40 MSTORE JUMP JUMPDEST PUSH1 0x20 DUP2 ADD SWAP1 DUP2 LT PUSH1 0x1 PUSH1 0x1 PUSH1 0x40 SHL SUB DUP3 GT OR PUSH2 0xD61 JUMPI PUSH1 0x40 MSTORE JUMP JUMPDEST SWAP1 PUSH1 0x1F DUP1 NOT SWAP2 ADD AND DUP2 ADD SWAP1 DUP2 LT PUSH1 0x1 PUSH1 0x1 PUSH1 0x40 SHL SUB DUP3 GT OR PUSH2 0xD61 JUMPI PUSH1 0x40 MSTORE JUMP JUMPDEST PUSH1 0x1 PUSH1 0x1 PUSH1 0x40 SHL SUB DUP2 GT PUSH2 0xD61 JUMPI PUSH1 0x5 SHL PUSH1 0x20 ADD SWAP1 JUMP JUMPDEST PUSH1 0x1 PUSH1 0x1 PUSH1 0x40 SHL SUB DUP2 GT PUSH2 0xD61 JUMPI PUSH1 0x1F ADD PUSH1 0x1F NOT AND PUSH1 0x20 ADD SWAP1 JUMP JUMPDEST SWAP3 SWAP2 SWAP3 PUSH2 0x1FC0 DUP3 PUSH2 0x1F99 JUMP JUMPDEST SWAP2 PUSH2 0x1FCE PUSH1 0x40 MLOAD SWAP4 DUP5 PUSH2 0x1F61 JUMP JUMPDEST DUP3 SWAP5 DUP2 DUP5 MSTORE DUP2 DUP4 ADD GT PUSH2 0x24E JUMPI DUP3 DUP2 PUSH1 0x20 SWAP4 DUP5 PUSH1 0x0 SWAP7 ADD CALLDATACOPY ADD ADD MSTORE JUMP JUMPDEST SWAP1 DUP1 PUSH1 0x1F DUP4 ADD SLT ISZERO PUSH2 0x24E JUMPI DUP2 PUSH1 0x20 PUSH2 0x2006 SWAP4 CALLDATALOAD SWAP2 ADD PUSH2 0x1FB4 JUMP JUMPDEST SWAP1 JUMP JUMPDEST PUSH1 0x20 SWAP1 DUP2 PUSH1 0x40 DUP2 DUP4 ADD SWAP3 DUP3 DUP2 MSTORE DUP6 MLOAD DUP1 SWAP5 MSTORE ADD SWAP4 ADD SWAP2 PUSH1 0x0 JUMPDEST DUP3 DUP2 LT PUSH2 0x2030 JUMPI POP POP POP POP SWAP1 JUMP JUMPDEST DUP4 MLOAD DUP6 MSTORE SWAP4 DUP2 ADD SWAP4 SWAP3 DUP2 ADD SWAP3 PUSH1 0x1 ADD PUSH2 0x2022 JUMP JUMPDEST DUP1 SLOAD DUP3 LT ISZERO PUSH2 0x205C JUMPI PUSH1 0x0 MSTORE PUSH1 0x20 PUSH1 0x0 KECCAK256 ADD SWAP1 PUSH1 0x0 SWAP1 JUMP JUMPDEST PUSH4 0x4E487B71 PUSH1 0xE0 SHL PUSH1 0x0 MSTORE PUSH1 0x32 PUSH1 0x4 MSTORE PUSH1 0x24 PUSH1 0x0 REVERT JUMPDEST SWAP1 DUP2 MSTORE PUSH1 0x1 PUSH1 0x1 PUSH1 0xA0 SHL SUB SWAP2 DUP3 AND PUSH1 0x20 DUP3 ADD MSTORE SWAP2 AND PUSH1 0x40 DUP3 ADD MSTORE PUSH1 0x60 DUP2 ADD SWAP2 SWAP1 SWAP2 MSTORE SWAP1 ISZERO ISZERO PUSH1 0x80 DUP3 ADD MSTORE SWAP1 ISZERO ISZERO PUSH1 0xA0 DUP3 ADD MSTORE PUSH2 0x100 PUSH1 0xC0 DUP3 ADD DUP2 SWAP1 MSTORE PUSH2 0x2006 SWAP4 SWAP2 SWAP3 PUSH2 0x20C0 SWAP2 DUP5 ADD SWAP1 PUSH2 0x1E8E JUMP JUMPDEST SWAP2 PUSH1 0xE0 DUP2 DUP5 SUB SWAP2 ADD MSTORE PUSH2 0x1E8E JUMP JUMPDEST SWAP1 PUSH1 0x1 DUP3 DUP2 SHR SWAP3 AND DUP1 ISZERO PUSH2 0x20FE JUMPI JUMPDEST PUSH1 0x20 DUP4 LT EQ PUSH2 0x20E8 JUMPI JUMP JUMPDEST PUSH4 0x4E487B71 PUSH1 0xE0 SHL PUSH1 0x0 MSTORE PUSH1 0x22 PUSH1 0x4 MSTORE PUSH1 0x24 PUSH1 0x0 REVERT JUMPDEST SWAP2 PUSH1 0x7F AND SWAP2 PUSH2 0x20DD JUMP JUMPDEST SWAP1 PUSH1 0x40 MLOAD SWAP2 DUP3 PUSH1 0x0 DUP3 SLOAD SWAP3 PUSH2 0x211C DUP5 PUSH2 0x20CE JUMP JUMPDEST SWAP1 DUP2 DUP5 MSTORE PUSH1 0x1 SWAP5 DUP6 DUP2 AND SWAP1 DUP2 PUSH1 0x0 EQ PUSH2 0x218B JUMPI POP PUSH1 0x1 EQ PUSH2 0x2148 JUMPI JUMPDEST POP POP PUSH2 0x2146 SWAP3 POP SUB DUP4 PUSH2 0x1F61 JUMP JUMPDEST JUMP JUMPDEST SWAP1 SWAP4 SWAP2 POP PUSH1 0x0 MSTORE PUSH1 0x20 SWAP1 DUP2 PUSH1 0x0 KECCAK256 SWAP4 PUSH1 0x0 SWAP2 JUMPDEST DUP2 DUP4 LT PUSH2 0x2173 JUMPI POP POP PUSH2 0x2146 SWAP4 POP DUP3 ADD ADD CODESIZE DUP1 PUSH2 0x2138 JUMP JUMPDEST DUP6 SLOAD DUP9 DUP5 ADD DUP6 ADD MSTORE SWAP5 DUP6 ADD SWAP5 DUP8 SWAP5 POP SWAP2 DUP4 ADD SWAP2 PUSH2 0x215B JUMP JUMPDEST SWAP2 POP POP PUSH2 0x2146 SWAP5 POP PUSH1 0x20 SWAP3 POP PUSH1 0xFF NOT AND DUP3 DUP5 ADD MSTORE ISZERO ISZERO PUSH1 0x5 SHL DUP3 ADD ADD CODESIZE DUP1 PUSH2 0x2138 JUMP JUMPDEST PUSH1 0x7 SLOAD PUSH1 0x1 PUSH1 0x1 PUSH1 0xA0 SHL SUB AND CALLER SUB PUSH2 0x21C2 JUMPI JUMP JUMPDEST PUSH1 0x64 PUSH1 0x40 MLOAD PUSH3 0x461BCD PUSH1 0xE5 SHL DUP2 MSTORE PUSH1 0x20 PUSH1 0x4 DUP3 ADD MSTORE PUSH1 0x20 PUSH1 0x24 DUP3 ADD MSTORE PUSH32 0x4F776E61626C653A2063616C6C6572206973206E6F7420746865206F776E6572 PUSH1 0x44 DUP3 ADD MSTORE REVERT JUMPDEST PUSH1 0x1 PUSH1 0x1 PUSH1 0xA0 SHL SUB AND DUP1 ISZERO PUSH2 0x2226 JUMPI PUSH1 0x0 MSTORE PUSH1 0x3 PUSH1 0x20 MSTORE PUSH1 0x40 PUSH1 0x0 KECCAK256 SLOAD SWAP1 JUMP JUMPDEST PUSH1 0x40 MLOAD PUSH3 0x461BCD PUSH1 0xE5 SHL DUP2 MSTORE PUSH1 0x20 PUSH1 0x4 DUP3 ADD MSTORE PUSH1 0x29 PUSH1 0x24 DUP3 ADD MSTORE PUSH32 0x4552433732313A2061646472657373207A65726F206973206E6F742061207661 PUSH1 0x44 DUP3 ADD MSTORE PUSH9 0x3634B21037BBB732B9 PUSH1 0xB9 SHL PUSH1 0x64 DUP3 ADD MSTORE PUSH1 0x84 SWAP1 REVERT JUMPDEST ISZERO PUSH2 0x2284 JUMPI JUMP JUMPDEST PUSH1 0x40 MLOAD PUSH3 0x461BCD PUSH1 0xE5 SHL DUP2 MSTORE PUSH1 0x20 PUSH1 0x4 DUP3 ADD MSTORE PUSH1 0x18 PUSH1 0x24 DUP3 ADD MSTORE PUSH32 0x4552433732313A20696E76616C696420746F6B656E2049440000000000000000 PUSH1 0x44 DUP3 ADD MSTORE PUSH1 0x64 SWAP1 REVERT JUMPDEST PUSH1 0x0 SWAP1 DUP2 MSTORE PUSH1 0x2 PUSH1 0x20 MSTORE PUSH1 0x40 SWAP1 KECCAK256 SLOAD PUSH1 0x1 PUSH1 0x1 PUSH1 0xA0 SHL SUB AND PUSH2 0x2006 DUP2 ISZERO ISZERO PUSH2 0x227D JUMP JUMPDEST PUSH1 0x0 DUP2 DUP2 MSTORE PUSH1 0x2 PUSH1 0x20 MSTORE PUSH1 0x40 SWAP1 KECCAK256 SLOAD PUSH2 0x230F SWAP1 PUSH1 0x1 PUSH1 0x1 PUSH1 0xA0 SHL SUB AND ISZERO ISZERO PUSH2 0x227D JUMP JUMPDEST PUSH1 0x0 SWAP1 DUP2 MSTORE PUSH1 0x4 PUSH1 0x20 MSTORE PUSH1 0x40 SWAP1 KECCAK256 SLOAD PUSH1 0x1 PUSH1 0x1 PUSH1 0xA0 SHL SUB AND SWAP1 JUMP JUMPDEST DUP1 SLOAD PUSH9 0x10000000000000000 DUP2 LT ISZERO PUSH2 0xD61 JUMPI PUSH2 0x234C SWAP2 PUSH1 0x1 DUP3 ADD DUP2 SSTORE PUSH2 0x2044 JUMP JUMPDEST DUP2 SWAP3 SWAP2 SLOAD SWAP1 PUSH1 0x3 SHL SWAP2 DUP3 SHL SWAP2 PUSH1 0x0 NOT SWAP1 SHL NOT AND OR SWAP1 SSTORE JUMP JUMPDEST PUSH1 0x40 MLOAD PUSH2 0x2370 DUP2 PUSH2 0x1F46 JUMP JUMPDEST PUSH1 0x0 DUP1 DUP3 MSTORE SWAP3 PUSH1 0x1 PUSH1 0x1 PUSH1 0xA0 SHL SUB DUP4 AND SWAP3 DUP4 ISZERO PUSH2 0x2435 JUMPI DUP2 PUSH2 0x7E4 SWAP5 PUSH2 0x2146 SWAP7 PUSH2 0x23B8 PUSH2 0x23B2 DUP5 PUSH1 0x0 MSTORE PUSH1 0x2 PUSH1 0x20 MSTORE PUSH1 0x1 DUP1 PUSH1 0xA0 SHL SUB PUSH1 0x40 PUSH1 0x0 KECCAK256 SLOAD AND ISZERO ISZERO SWAP1 JUMP JUMPDEST ISZERO PUSH2 0x24F0 JUMP JUMPDEST PUSH1 0x0 DUP4 DUP2 MSTORE PUSH1 0x2 PUSH1 0x20 MSTORE PUSH1 0x40 SWAP1 KECCAK256 SLOAD PUSH2 0x23DB SWAP1 PUSH1 0x1 PUSH1 0x1 PUSH1 0xA0 SHL SUB AND ISZERO ISZERO PUSH2 0x23B2 JUMP JUMPDEST DUP2 DUP2 MSTORE PUSH1 0x3 PUSH1 0x20 MSTORE PUSH1 0x40 DUP2 KECCAK256 PUSH1 0x1 DUP2 SLOAD ADD SWAP1 SSTORE DUP3 DUP2 MSTORE PUSH1 0x2 PUSH1 0x20 MSTORE PUSH1 0x40 DUP2 KECCAK256 DUP3 PUSH1 0x1 PUSH1 0x1 PUSH1 0x60 SHL SUB PUSH1 0xA0 SHL DUP3 SLOAD AND OR SWAP1 SSTORE PUSH32 0xDDF252AD1BE2C89B69C2B068FC378DAA952BA7F163C4A11628F55A4DF523B3EF DUP2 DUP1 LOG4 PUSH2 0x253C JUMP JUMPDEST PUSH1 0x64 PUSH1 0x40 MLOAD PUSH3 0x461BCD PUSH1 0xE5 SHL DUP2 MSTORE PUSH1 0x20 PUSH1 0x4 DUP3 ADD MSTORE PUSH1 0x20 PUSH1 0x24 DUP3 ADD MSTORE PUSH32 0x4552433732313A206D696E7420746F20746865207A65726F2061646472657373 PUSH1 0x44 DUP3 ADD MSTORE REVERT JUMPDEST PUSH1 0x80 SWAP1 PUSH1 0x20 DUP2 MSTORE PUSH1 0x32 PUSH1 0x20 DUP3 ADD MSTORE PUSH32 0x4552433732313A207472616E7366657220746F206E6F6E204552433732315265 PUSH1 0x40 DUP3 ADD MSTORE PUSH18 0x31B2B4BB32B91034B6B83632B6B2B73A32B9 PUSH1 0x71 SHL PUSH1 0x60 DUP3 ADD MSTORE ADD SWAP1 JUMP JUMPDEST ISZERO PUSH2 0x24D3 JUMPI JUMP JUMPDEST PUSH1 0x40 MLOAD PUSH3 0x461BCD PUSH1 0xE5 SHL DUP2 MSTORE DUP1 PUSH2 0x24EC PUSH1 0x4 DUP3 ADD PUSH2 0x2479 JUMP JUMPDEST SUB SWAP1 REVERT JUMPDEST ISZERO PUSH2 0x24F7 JUMPI JUMP JUMPDEST PUSH1 0x40 MLOAD PUSH3 0x461BCD PUSH1 0xE5 SHL DUP2 MSTORE PUSH1 0x20 PUSH1 0x4 DUP3 ADD MSTORE PUSH1 0x1C PUSH1 0x24 DUP3 ADD MSTORE PUSH32 0x4552433732313A20746F6B656E20616C7265616479206D696E74656400000000 PUSH1 0x44 DUP3 ADD MSTORE PUSH1 0x64 SWAP1 REVERT JUMPDEST SWAP2 SWAP3 PUSH1 0x0 SWAP3 SWAP1 SWAP2 SWAP1 DUP1 EXTCODESIZE ISZERO PUSH2 0x2652 JUMPI PUSH2 0x258A SWAP5 PUSH1 0x40 MLOAD DUP1 SWAP3 PUSH4 0xA85BD01 PUSH1 0xE1 SHL SWAP5 DUP6 DUP4 MSTORE CALLER PUSH1 0x4 DUP5 ADD MSTORE DUP8 PUSH1 0x24 DUP5 ADD MSTORE PUSH1 0x44 DUP4 ADD MSTORE PUSH1 0x80 PUSH1 0x64 DUP4 ADD MSTORE DUP2 DUP8 DUP2 PUSH1 0x20 SWAP11 DUP12 SWAP7 PUSH1 0x84 DUP4 ADD SWAP1 PUSH2 0x1E8E JUMP JUMPDEST SUB SWAP3 PUSH1 0x1 PUSH1 0x1 PUSH1 0xA0 SHL SUB AND GAS CALL DUP5 SWAP2 DUP2 PUSH2 0x260E JUMPI JUMPDEST POP PUSH2 0x25FD JUMPI POP POP POP RETURNDATASIZE PUSH1 0x0 EQ PUSH2 0x25F5 JUMPI RETURNDATASIZE PUSH2 0x25B9 DUP2 PUSH2 0x1F99 JUMP JUMPDEST SWAP1 PUSH2 0x25C7 PUSH1 0x40 MLOAD SWAP3 DUP4 PUSH2 0x1F61 JUMP JUMPDEST DUP2 MSTORE DUP1 SWAP2 DUP4 RETURNDATASIZE SWAP3 ADD RETURNDATACOPY JUMPDEST DUP1 MLOAD SWAP2 DUP3 PUSH2 0x25F2 JUMPI PUSH1 0x40 MLOAD PUSH3 0x461BCD PUSH1 0xE5 SHL DUP2 MSTORE DUP1 PUSH2 0x24EC PUSH1 0x4 DUP3 ADD PUSH2 0x2479 JUMP JUMPDEST ADD REVERT JUMPDEST POP PUSH1 0x60 PUSH2 0x25D1 JUMP JUMPDEST PUSH1 0x1 PUSH1 0x1 PUSH1 0xE0 SHL SUB NOT AND EQ SWAP3 POP SWAP1 POP JUMP JUMPDEST SWAP1 SWAP2 POP DUP6 DUP2 DUP2 RETURNDATASIZE DUP4 GT PUSH2 0x264B JUMPI JUMPDEST PUSH2 0x2626 DUP2 DUP4 PUSH2 0x1F61 JUMP JUMPDEST DUP2 ADD SUB SLT PUSH2 0x2647 JUMPI MLOAD PUSH1 0x1 PUSH1 0x1 PUSH1 0xE0 SHL SUB NOT DUP2 AND DUP2 SUB PUSH2 0x2647 JUMPI SWAP1 CODESIZE PUSH2 0x259F JUMP JUMPDEST DUP5 DUP1 REVERT JUMPDEST POP RETURNDATASIZE PUSH2 0x261C JUMP JUMPDEST POP POP SWAP2 POP POP PUSH1 0x1 SWAP1 JUMP JUMPDEST SWAP3 SWAP4 PUSH1 0x0 SWAP4 SWAP1 SWAP3 SWAP2 DUP1 EXTCODESIZE ISZERO PUSH2 0x26DC JUMPI SWAP5 DUP5 SWAP2 PUSH2 0x26B6 SWAP7 PUSH1 0x40 MLOAD DUP1 SWAP5 DUP2 SWAP4 PUSH4 0xA85BD01 PUSH1 0xE1 SHL SWAP8 DUP9 DUP5 MSTORE CALLER PUSH1 0x4 DUP6 ADD MSTORE PUSH1 0x1 DUP1 PUSH1 0xA0 SHL SUB DUP1 SWAP3 AND PUSH1 0x24 DUP6 ADD MSTORE PUSH1 0x44 DUP5 ADD MSTORE PUSH1 0x80 PUSH1 0x64 DUP5 ADD MSTORE DUP3 PUSH1 0x20 SWAP12 DUP13 SWAP8 PUSH1 0x84 DUP4 ADD SWAP1 PUSH2 0x1E8E JUMP JUMPDEST SUB SWAP4 AND GAS CALL DUP5 SWAP2 DUP2 PUSH2 0x260E JUMPI POP PUSH2 0x25FD JUMPI POP POP POP RETURNDATASIZE PUSH1 0x0 EQ PUSH2 0x25F5 JUMPI RETURNDATASIZE PUSH2 0x25B9 DUP2 PUSH2 0x1F99 JUMP JUMPDEST POP POP POP SWAP2 POP POP PUSH1 0x1 SWAP1 JUMP JUMPDEST PUSH1 0x0 DUP2 DUP2 MSTORE PUSH1 0x2 PUSH1 0x20 MSTORE PUSH1 0x40 SWAP1 KECCAK256 SLOAD SWAP2 SWAP3 SWAP2 PUSH1 0x1 PUSH1 0x1 PUSH1 0xA0 SHL SUB AND ISZERO PUSH2 0x2879 JUMPI PUSH1 0x0 SWAP1 DUP1 DUP3 MSTORE PUSH1 0x20 SWAP2 PUSH1 0x6 DUP4 MSTORE PUSH1 0x40 DUP2 KECCAK256 SWAP1 DUP6 MLOAD SWAP1 PUSH1 0x1 PUSH1 0x1 PUSH1 0x40 SHL SUB DUP3 GT PUSH2 0x2865 JUMPI PUSH2 0x2734 DUP4 SLOAD PUSH2 0x20CE JUMP JUMPDEST PUSH1 0x1F DUP2 GT PUSH2 0x2822 JUMPI JUMPDEST POP DUP5 SWAP1 PUSH1 0x1F DUP4 GT PUSH1 0x1 EQ PUSH2 0x279E JUMPI SWAP1 PUSH32 0xF8E1A15ABA9398E019F0B49DF1A4FDE98EE17AE345CB5F6B5E2C27F5033E8CE7 SWAP7 SWAP8 DUP4 PUSH2 0x2793 JUMPI JUMPDEST POP POP DUP2 PUSH1 0x1 SHL SWAP2 PUSH1 0x0 NOT SWAP1 PUSH1 0x3 SHL SHR NOT AND OR SWAP1 SSTORE JUMPDEST PUSH1 0x40 MLOAD SWAP1 DUP2 MSTORE LOG1 JUMP JUMPDEST ADD MLOAD SWAP1 POP CODESIZE DUP1 PUSH2 0x2775 JUMP JUMPDEST SWAP2 SWAP7 PUSH1 0x1F NOT DUP9 AND DUP5 DUP5 MSTORE DUP7 DUP5 KECCAK256 SWAP4 JUMPDEST DUP2 DUP2 LT PUSH2 0x280B JUMPI POP SWAP2 PUSH1 0x1 SWAP4 SWAP2 DUP10 PUSH32 0xF8E1A15ABA9398E019F0B49DF1A4FDE98EE17AE345CB5F6B5E2C27F5033E8CE7 SWAP10 SWAP11 SWAP5 LT PUSH2 0x27F2 JUMPI JUMPDEST POP POP POP DUP2 SHL ADD SWAP1 SSTORE PUSH2 0x278A JUMP JUMPDEST ADD MLOAD PUSH1 0x0 NOT PUSH1 0xF8 DUP5 PUSH1 0x3 SHL AND SHR NOT AND SWAP1 SSTORE CODESIZE DUP1 DUP1 PUSH2 0x27E5 JUMP JUMPDEST SWAP3 SWAP4 DUP8 PUSH1 0x1 DUP2 SWAP3 DUP8 DUP7 ADD MLOAD DUP2 SSTORE ADD SWAP6 ADD SWAP4 ADD PUSH2 0x27AD JUMP JUMPDEST DUP4 DUP3 MSTORE DUP6 DUP3 KECCAK256 PUSH1 0x1F DUP5 ADD PUSH1 0x5 SHR DUP2 ADD SWAP2 DUP8 DUP6 LT PUSH2 0x285B JUMPI JUMPDEST PUSH1 0x1F ADD PUSH1 0x5 SHR ADD SWAP1 JUMPDEST DUP2 DUP2 LT PUSH2 0x2850 JUMPI POP PUSH2 0x273D JUMP JUMPDEST DUP3 DUP2 SSTORE PUSH1 0x1 ADD PUSH2 0x2843 JUMP JUMPDEST SWAP1 SWAP2 POP DUP2 SWAP1 PUSH2 0x283A JUMP JUMPDEST PUSH4 0x4E487B71 PUSH1 0xE0 SHL DUP2 MSTORE PUSH1 0x41 PUSH1 0x4 MSTORE PUSH1 0x24 SWAP1 REVERT JUMPDEST PUSH1 0x40 MLOAD PUSH3 0x461BCD PUSH1 0xE5 SHL DUP2 MSTORE PUSH1 0x20 PUSH1 0x4 DUP3 ADD MSTORE PUSH1 0x2E PUSH1 0x24 DUP3 ADD MSTORE PUSH32 0x45524337323155524953746F726167653A2055524920736574206F66206E6F6E PUSH1 0x44 DUP3 ADD MSTORE PUSH14 0x32BC34B9BA32B73A103A37B5B2B7 PUSH1 0x91 SHL PUSH1 0x64 DUP3 ADD MSTORE PUSH1 0x84 SWAP1 REVERT JUMPDEST SWAP1 PUSH2 0x28DF DUP3 PUSH2 0x1F82 JUMP JUMPDEST PUSH2 0x28EC PUSH1 0x40 MLOAD SWAP2 DUP3 PUSH2 0x1F61 JUMP JUMPDEST DUP3 DUP2 MSTORE DUP1 SWAP3 PUSH2 0x28FD PUSH1 0x1F NOT SWAP2 PUSH2 0x1F82 JUMP JUMPDEST ADD SWAP1 PUSH1 0x20 CALLDATASIZE SWAP2 ADD CALLDATACOPY JUMP JUMPDEST PUSH1 0x0 NOT DUP2 EQ PUSH2 0x178E JUMPI PUSH1 0x1 ADD SWAP1 JUMP JUMPDEST DUP1 MLOAD DUP3 LT ISZERO PUSH2 0x205C JUMPI PUSH1 0x20 SWAP2 PUSH1 0x5 SHL ADD ADD SWAP1 JUMP JUMPDEST ISZERO PUSH2 0x2931 JUMPI JUMP JUMPDEST PUSH1 0x40 MLOAD PUSH3 0x461BCD PUSH1 0xE5 SHL DUP2 MSTORE PUSH1 0x20 PUSH1 0x4 DUP3 ADD MSTORE PUSH1 0x13 PUSH1 0x24 DUP3 ADD MSTORE PUSH19 0x151A58DAD95D08185B1C9958591E481D5CD959 PUSH1 0x6A SHL PUSH1 0x44 DUP3 ADD MSTORE PUSH1 0x64 SWAP1 REVERT JUMPDEST ISZERO PUSH2 0x2973 JUMPI JUMP JUMPDEST PUSH1 0x40 MLOAD PUSH3 0x461BCD PUSH1 0xE5 SHL DUP2 MSTORE PUSH1 0x20 PUSH1 0x4 DUP3 ADD MSTORE PUSH1 0x14 PUSH1 0x24 DUP3 ADD MSTORE PUSH20 0x5469636B6574206973206E6F7420616374697665 PUSH1 0x60 SHL PUSH1 0x44 DUP3 ADD MSTORE PUSH1 0x64 SWAP1 REVERT JUMPDEST PUSH1 0x0 DUP2 DUP2 MSTORE PUSH1 0x2 PUSH1 0x20 MSTORE PUSH1 0x40 SWAP1 KECCAK256 SLOAD PUSH1 0x1 PUSH1 0x1 PUSH1 0xA0 SHL SUB AND ISZERO PUSH2 0x2A7A JUMPI PUSH1 0x0 MSTORE PUSH1 0xA PUSH1 0x20 MSTORE PUSH1 0x40 PUSH1 0x0 KECCAK256 PUSH1 0x40 MLOAD SWAP2 PUSH2 0x29E6 DUP4 PUSH2 0x1F2A JUMP JUMPDEST DUP2 SLOAD DUP4 MSTORE PUSH1 0x1 DUP1 PUSH1 0xA0 SHL SUB DUP1 PUSH1 0x1 DUP5 ADD SLOAD AND PUSH1 0x20 DUP6 ADD MSTORE PUSH1 0x2 DUP4 ADD SLOAD AND PUSH1 0x40 DUP5 ADD MSTORE PUSH1 0x3 DUP3 ADD SLOAD PUSH1 0x60 DUP5 ADD MSTORE PUSH1 0x4 DUP3 ADD SLOAD SWAP3 PUSH2 0x2A50 PUSH1 0x6 PUSH1 0x80 DUP4 ADD SWAP5 PUSH1 0xFF DUP8 AND ISZERO ISZERO DUP7 MSTORE PUSH1 0xFF PUSH1 0xA0 DUP6 ADD SWAP8 PUSH1 0x8 SHR AND ISZERO ISZERO DUP8 MSTORE PUSH2 0x2A45 PUSH1 0x5 DUP3 ADD PUSH2 0x2108 JUMP JUMPDEST PUSH1 0xC0 DUP6 ADD MSTORE ADD PUSH2 0x2108 JUMP JUMPDEST PUSH1 0xE0 DUP3 ADD MSTORE MLOAD EQ SWAP2 DUP3 PUSH2 0x2A6F JUMPI JUMPDEST POP DUP2 PUSH2 0x2A68 JUMPI POP SWAP1 JUMP JUMPDEST SWAP1 POP MLOAD ISZERO SWAP1 JUMP JUMPDEST MLOAD ISZERO ISZERO SWAP2 POP CODESIZE PUSH2 0x2A5E JUMP JUMPDEST POP POP PUSH1 0x0 SWAP1 JUMP JUMPDEST ISZERO PUSH2 0x2A88 JUMPI JUMP JUMPDEST PUSH1 0x40 MLOAD PUSH3 0x461BCD PUSH1 0xE5 SHL DUP2 MSTORE PUSH1 0x20 PUSH1 0x4 DUP3 ADD MSTORE PUSH1 0x15 PUSH1 0x24 DUP3 ADD MSTORE PUSH21 0x151A58DAD95D08191BD95CC81B9BDD08195E1A5CDD PUSH1 0x5A SHL PUSH1 0x44 DUP3 ADD MSTORE PUSH1 0x64 SWAP1 REVERT JUMPDEST ISZERO PUSH2 0x2ACC JUMPI JUMP JUMPDEST PUSH1 0x40 MLOAD PUSH3 0x461BCD PUSH1 0xE5 SHL DUP2 MSTORE PUSH1 0x20 PUSH1 0x4 DUP3 ADD MSTORE PUSH1 0xD PUSH1 0x24 DUP3 ADD MSTORE PUSH13 0x2737BA103A34329037BBB732B9 PUSH1 0x99 SHL PUSH1 0x44 DUP3 ADD MSTORE PUSH1 0x64 SWAP1 REVERT JUMPDEST ISZERO PUSH2 0x2B08 JUMPI JUMP JUMPDEST PUSH1 0x40 MLOAD PUSH3 0x461BCD PUSH1 0xE5 SHL DUP2 MSTORE PUSH1 0x20 PUSH1 0x4 DUP3 ADD MSTORE PUSH1 0x1F PUSH1 0x24 DUP3 ADD MSTORE PUSH32 0x43616E6E6F74207472616E7366657220746F207A65726F206164647265737300 PUSH1 0x44 DUP3 ADD MSTORE PUSH1 0x64 SWAP1 REVERT JUMPDEST ISZERO PUSH2 0x2B54 JUMPI JUMP JUMPDEST PUSH1 0x40 MLOAD PUSH3 0x461BCD PUSH1 0xE5 SHL DUP2 MSTORE PUSH1 0x20 PUSH1 0x4 DUP3 ADD MSTORE PUSH1 0x2D PUSH1 0x24 DUP3 ADD MSTORE PUSH32 0x4552433732313A2063616C6C6572206973206E6F7420746F6B656E206F776E65 PUSH1 0x44 DUP3 ADD MSTORE PUSH13 0x1C881BDC88185C1C1C9BDD9959 PUSH1 0x9A SHL PUSH1 0x64 DUP3 ADD MSTORE PUSH1 0x84 SWAP1 REVERT JUMPDEST SWAP1 PUSH1 0x1 PUSH1 0x1 PUSH1 0xA0 SHL SUB DUP1 DUP1 PUSH2 0x2BC3 DUP5 PUSH2 0x22C9 JUMP JUMPDEST AND SWAP4 AND SWAP2 DUP4 DUP4 EQ SWAP4 DUP5 ISZERO PUSH2 0x2BF6 JUMPI JUMPDEST POP DUP4 ISZERO PUSH2 0x2BE0 JUMPI JUMPDEST POP POP POP SWAP1 JUMP JUMPDEST PUSH2 0x2BEC SWAP2 SWAP3 SWAP4 POP PUSH2 0x22EC JUMP JUMPDEST AND EQ CODESIZE DUP1 DUP1 PUSH2 0x2BDA JUMP JUMPDEST SWAP1 SWAP4 POP PUSH1 0x0 MSTORE PUSH1 0x5 PUSH1 0x20 MSTORE PUSH1 0x40 PUSH1 0x0 KECCAK256 DUP3 PUSH1 0x0 MSTORE PUSH1 0x20 MSTORE PUSH1 0xFF PUSH1 0x40 PUSH1 0x0 KECCAK256 SLOAD AND SWAP3 CODESIZE PUSH2 0x2BD2 JUMP JUMPDEST ISZERO PUSH2 0x2C24 JUMPI JUMP JUMPDEST PUSH1 0x40 MLOAD PUSH3 0x461BCD PUSH1 0xE5 SHL DUP2 MSTORE PUSH1 0x20 PUSH1 0x4 DUP3 ADD MSTORE PUSH1 0x25 PUSH1 0x24 DUP3 ADD MSTORE PUSH32 0x4552433732313A207472616E736665722066726F6D20696E636F727265637420 PUSH1 0x44 DUP3 ADD MSTORE PUSH5 0x37BBB732B9 PUSH1 0xD9 SHL PUSH1 0x64 DUP3 ADD MSTORE PUSH1 0x84 SWAP1 REVERT JUMPDEST SWAP1 PUSH2 0x2C9F SWAP2 PUSH2 0x2C85 DUP5 PUSH2 0x22C9 JUMP JUMPDEST PUSH1 0x1 PUSH1 0x1 PUSH1 0xA0 SHL SUB SWAP4 SWAP2 DUP5 AND SWAP3 DUP5 SWAP3 SWAP1 SWAP2 DUP4 AND DUP5 EQ PUSH2 0x2C1D JUMP JUMPDEST AND SWAP2 DUP3 ISZERO PUSH2 0x2D37 JUMPI DUP2 PUSH2 0x2CBC SWAP2 PUSH2 0x2CB5 DUP7 PUSH2 0x22C9 JUMP JUMPDEST AND EQ PUSH2 0x2C1D JUMP JUMPDEST PUSH32 0xDDF252AD1BE2C89B69C2B068FC378DAA952BA7F163C4A11628F55A4DF523B3EF PUSH1 0x0 DUP5 DUP2 MSTORE PUSH1 0x4 PUSH1 0x20 MSTORE PUSH1 0x40 DUP2 KECCAK256 PUSH1 0x1 PUSH1 0x1 PUSH1 0x60 SHL SUB PUSH1 0xA0 SHL SWAP1 DUP2 DUP2 SLOAD AND SWAP1 SSTORE DUP4 DUP3 MSTORE PUSH1 0x3 PUSH1 0x20 MSTORE PUSH1 0x40 DUP3 KECCAK256 PUSH1 0x0 NOT DUP2 SLOAD ADD SWAP1 SSTORE DUP5 DUP3 MSTORE PUSH1 0x40 DUP3 KECCAK256 PUSH1 0x1 DUP2 SLOAD ADD SWAP1 SSTORE DUP6 DUP3 MSTORE PUSH1 0x2 PUSH1 0x20 MSTORE DUP5 PUSH1 0x40 DUP4 KECCAK256 SWAP2 DUP3 SLOAD AND OR SWAP1 SSTORE DUP1 LOG4 JUMP JUMPDEST PUSH1 0x40 MLOAD PUSH3 0x461BCD PUSH1 0xE5 SHL DUP2 MSTORE PUSH1 0x20 PUSH1 0x4 DUP3 ADD MSTORE PUSH1 0x24 DUP1 DUP3 ADD MSTORE PUSH32 0x4552433732313A207472616E7366657220746F20746865207A65726F20616464 PUSH1 0x44 DUP3 ADD MSTORE PUSH4 0x72657373 PUSH1 0xE0 SHL PUSH1 0x64 DUP3 ADD MSTORE PUSH1 0x84 SWAP1 REVERT INVALID LOG2 PUSH5 0x6970667358 0x22 SLT KECCAK256 CALLDATACOPY PUSH13 0x131D5544346DC8B0D2BCC43BD SELFBALANCE DUP2 0xAC MUL 0xF9 DUP11 0xD3 LOG4 0xE7 0xF6 SWAP13 0xBA 0xD5 SHL 0xED 0x4B PUSH24 0x64736F6C6343000813003300000000000000000000000000 "},"methodIdentifiers":{"approve(address,uint256)":"095ea7b3","balanceOf(address)":"70a08231","cancelTicket(uint256)":"ee355b1f","emergencyPause()":"51858e27","eventContract()":"e274fd24","eventTickets(uint256,uint256)":"779cea77","exists(uint256)":"4f558e79","getApproved(uint256)":"081812fc","getContractStats()":"dfe6b5d6","getEventTickets(uint256)":"ca261ce1","getTicketMetadata(uint256)":"ba0ae43c","getTicketsByOwner(address)":"67aa23e2","isApprovedForAll(address,address)":"e985e9c5","mintBatchTickets(address[],uint256,address,string[],string,string)":"5a7b914c","mintTicket(address,uint256,address,string,string,string)":"7f677bd0","name()":"06fdde03","owner()":"8da5cb5b","ownerOf(uint256)":"6352211e","paymentProcessor()":"f1c6bdf8","renounceOwnership()":"715018a6","safeTransferFrom(address,address,uint256)":"42842e0e","safeTransferFrom(address,address,uint256,bytes)":"b88d4fde","setApprovalForAll(address,bool)":"a22cb465","supportsInterface(bytes4)":"01ffc9a7","symbol()":"95d89b41","ticketMetadata(uint256)":"ea05fc51","tokenURI(uint256)":"c87b56dd","totalSupply()":"18160ddd","transferFrom(address,address,uint256)":"23b872dd","transferOwnership(address)":"f2fde38b","useTicket(uint256)":"26606448","usedTickets(uint256)":"71efdc21","verifyTicket(uint256,uint256)":"03446b18"}},"storageLayout":{"storage":[{"astId":339,"contract":"contracts/TicketNFT.sol:TicketNFT","label":"_name","offset":0,"slot":"0","type":"t_string_storage"},{"astId":341,"contract":"contracts/TicketNFT.sol:TicketNFT","label":"_symbol","offset":0,"slot":"1","type":"t_string_storage"},{"astId":345,"contract":"contracts/TicketNFT.sol:TicketNFT","label":"_owners","offset":0,"slot":"2","type":"t_mapping(t_uint256,t_address)"},{"astId":349,"contract":"contracts/TicketNFT.sol:TicketNFT","label":"_balances","offset":0,"slot":"3","type":"t_mapping(t_address,t_uint256)"},{"astId":353,"contract":"contracts/TicketNFT.sol:TicketNFT","label":"_tokenApprovals","offset":0,"slot":"4","type":"t_mapping(t_uint256,t_address)"},{"astId":359,"contract":"contracts/TicketNFT.sol:TicketNFT","label":"_operatorApprovals","offset":0,"slot":"5","type":"t_mapping(t_address,t_mapping(t_address,t_bool))"},{"astId":1390,"contract":"contracts/TicketNFT.sol:TicketNFT","label":"_tokenURIs","offset":0,"slot":"6","type":"t_mapping(t_uint256,t_string_storage)"},{"astId":7,"contract":"contracts/TicketNFT.sol:TicketNFT","label":"_owner","offset":0,"slot":"7","type":"t_address"},{"astId":259,"contract":"contracts/TicketNFT.sol:TicketNFT","label":"_status","offset":0,"slot":"8","type":"t_uint256"},{"astId":5145,"contract":"contracts/TicketNFT.sol:TicketNFT","label":"_tokenIdCounter","offset":0,"slot":"9","type":"t_struct(Counter)1923_storage"},{"astId":5167,"contract":"contracts/TicketNFT.sol:TicketNFT","label":"ticketMetadata","offset":0,"slot":"10","type":"t_mapping(t_uint256,t_struct(TicketMetadata)5162_storage)"},{"astId":5172,"contract":"contracts/TicketNFT.sol:TicketNFT","label":"eventTickets","offset":0,"slot":"11","type":"t_mapping(t_uint256,t_array(t_uint256)dyn_storage)"},{"astId":5176,"contract":"contracts/TicketNFT.sol:TicketNFT","label":"usedTickets","offset":0,"slot":"12","type":"t_mapping(t_uint256,t_bool)"},{"astId":5178,"contract":"contracts/TicketNFT.sol:TicketNFT","label":"eventContract","offset":0,"slot":"13","type":"t_address"},{"astId":5180,"contract":"contracts/TicketNFT.sol:TicketNFT","label":"paymentProcessor","offset":0,"slot":"14","type":"t_address"}],"types":{"t_address":{"encoding":"inplace","label":"address","numberOfBytes":"20"},"t_array(t_uint256)dyn_storage":{"base":"t_uint256","encoding":"dynamic_array","label":"uint256[]","numberOfBytes":"32"},"t_bool":{"encoding":"inplace","label":"bool","numberOfBytes":"1"},"t_mapping(t_address,t_bool)":{"encoding":"mapping","key":"t_address","label":"mapping(address => bool)","numberOfBytes":"32","value":"t_bool"},"t_mapping(t_address,t_mapping(t_address,t_bool))":{"encoding":"mapping","key":"t_address","label":"mapping(address => mapping(address => bool))","numberOfBytes":"32","value":"t_mapping(t_address,t_bool)"},"t_mapping(t_address,t_uint256)":{"encoding":"mapping","key":"t_address","label":"mapping(address => uint256)","numberOfBytes":"32","value":"t_uint256"},"t_mapping(t_uint256,t_address)":{"encoding":"mapping","key":"t_uint256","label":"mapping(uint256 => address)","numberOfBytes":"32","value":"t_address"},"t_mapping(t_uint256,t_array(t_uint256)dyn_storage)":{"encoding":"mapping","key":"t_uint256","label":"mapping(uint256 => uint256[])","numberOfBytes":"32","value":"t_array(t_uint256)dyn_storage"},"t_mapping(t_uint256,t_bool)":{"encoding":"mapping","key":"t_uint256","label":"mapping(uint256 => bool)","numberOfBytes":"32","value":"t_bool"},"t_mapping(t_uint256,t_string_storage)":{"encoding":"mapping","key":"t_uint256","label":"mapping(uint256 => string)","numberOfBytes":"32","value":"t_string_storage"},"t_mapping(t_uint256,t_struct(TicketMetadata)5162_storage)":{"encoding":"mapping","key":"t_uint256","label":"mapping(uint256 => struct TicketNFT.TicketMetadata)","numberOfBytes":"32","value":"t_struct(TicketMetadata)5162_storage"},"t_string_storage":{"encoding":"bytes","label":"string","numberOfBytes":"32"},"t_struct(Counter)1923_storage":{"encoding":"inplace","label":"struct Counters.Counter","members":[{"astId":1922,"contract":"contracts/TicketNFT.sol:TicketNFT","label":"_value","offset":0,"slot":"0","type":"t_uint256"}],"numberOfBytes":"32"},"t_struct(TicketMetadata)5162_storage":{"encoding":"inplace","label":"struct TicketNFT.TicketMetadata","members":[{"astId":5147,"contract":"contracts/TicketNFT.sol:TicketNFT","label":"eventId","offset":0,"slot":"0","type":"t_uint256"},{"astId":5149,"contract":"contracts/TicketNFT.sol:TicketNFT","label":"eventContract","offset":0,"slot":"1","type":"t_address"},{"astId":5151,"contract":"contracts/TicketNFT.sol:TicketNFT","label":"purchaser","offset":0,"slot":"2","type":"t_address"},{"astId":5153,"contract":"contracts/TicketNFT.sol:TicketNFT","label":"purchaseDate","offset":0,"slot":"3","type":"t_uint256"},{"astId":5155,"contract":"contracts/TicketNFT.sol:TicketNFT","label":"isUsed","offset":0,"slot":"4","type":"t_bool"},{"astId":5157,"contract":"contracts/TicketNFT.sol:TicketNFT","label":"isActive","offset":1,"slot":"4","type":"t_bool"},{"astId":5159,"contract":"contracts/TicketNFT.sol:TicketNFT","label":"seatInfo","offset":0,"slot":"5","type":"t_string_storage"},{"astId":5161,"contract":"contracts/TicketNFT.sol:TicketNFT","label":"ticketType","offset":0,"slot":"6","type":"t_string_storage"}],"numberOfBytes":"224"},"t_uint256":{"encoding":"inplace","label":"uint256","numberOfBytes":"32"}}}}}}