{"contracts/TicketNFT.sol":{"TicketNFT":{"abi":[{"inputs":[],"stateMutability":"nonpayable","type":"constructor"},{"anonymous":false,"inputs":[{"indexed":true,"internalType":"address","name":"owner","type":"address"},{"indexed":true,"internalType":"address","name":"approved","type":"address"},{"indexed":true,"internalType":"uint256","name":"tokenId","type":"uint256"}],"name":"Approval","type":"event"},{"anonymous":false,"inputs":[{"indexed":true,"internalType":"address","name":"owner","type":"address"},{"indexed":true,"internalType":"address","name":"operator","type":"address"},{"indexed":false,"internalType":"bool","name":"approved","type":"bool"}],"name":"ApprovalForAll","type":"event"},{"anonymous":false,"inputs":[{"indexed":false,"internalType":"uint256","name":"_fromTokenId","type":"uint256"},{"indexed":false,"internalType":"uint256","name":"_toTokenId","type":"uint256"}],"name":"BatchMetadataUpdate","type":"event"},{"anonymous":false,"inputs":[{"indexed":true,"internalType":"address","name":"oldContract","type":"address"},{"indexed":true,"internalType":"address","name":"newContract","type":"address"}],"name":"EventContractUpdated","type":"event"},{"anonymous":false,"inputs":[{"indexed":false,"internalType":"uint256","name":"_tokenId","type":"uint256"}],"name":"MetadataUpdate","type":"event"},{"anonymous":false,"inputs":[{"indexed":true,"internalType":"address","name":"previousOwner","type":"address"},{"indexed":true,"internalType":"address","name":"newOwner","type":"address"}],"name":"OwnershipTransferred","type":"event"},{"anonymous":false,"inputs":[{"indexed":true,"internalType":"address","name":"oldProcessor","type":"address"},{"indexed":true,"internalType":"address","name":"newProcessor","type":"address"}],"name":"PaymentProcessorUpdated","type":"event"},{"anonymous":false,"inputs":[{"indexed":true,"internalType":"uint256","name":"tokenId","type":"uint256"}],"name":"TicketCancelled","type":"event"},{"anonymous":false,"inputs":[{"indexed":true,"internalType":"uint256","name":"tokenId","type":"uint256"},{"indexed":true,"internalType":"uint256","name":"eventId","type":"uint256"},{"indexed":true,"internalType":"address","name":"purchaser","type":"address"}],"name":"TicketMinted","type":"event"},{"anonymous":false,"inputs":[{"indexed":true,"internalType":"uint256","name":"tokenId","type":"uint256"},{"indexed":true,"internalType":"address","name":"from","type":"address"},{"indexed":true,"internalType":"address","name":"to","type":"address"}],"name":"TicketTransferred","type":"event"},{"anonymous":false,"inputs":[{"indexed":true,"internalType":"uint256","name":"tokenId","type":"uint256"},{"indexed":true,"internalType":"address","name":"user","type":"address"}],"name":"TicketUsed","type":"event"},{"anonymous":false,"inputs":[{"indexed":true,"internalType":"address","name":"from","type":"address"},{"indexed":true,"internalType":"address","name":"to","type":"address"},{"indexed":true,"internalType":"uint256","name":"tokenId","type":"uint256"}],"name":"Transfer","type":"event"},{"inputs":[{"internalType":"address","name":"to","type":"address"},{"internalType":"uint256","name":"tokenId","type":"uint256"}],"name":"approve","outputs":[],"stateMutability":"nonpayable","type":"function"},{"inputs":[{"internalType":"address","name":"owner","type":"address"}],"name":"balanceOf","outputs":[{"internalType":"uint256","name":"","type":"uint256"}],"stateMutability":"view","type":"function"},{"inputs":[{"internalType":"uint256","name":"tokenId","type":"uint256"}],"name":"cancelTicket","outputs":[],"stateMutability":"nonpayable","type":"function"},{"inputs":[],"name":"emergencyPause","outputs":[],"stateMutability":"nonpayable","type":"function"},{"inputs":[],"name":"eventContract","outputs":[{"internalType":"address","name":"","type":"address"}],"stateMutability":"view","type":"function"},{"inputs":[{"internalType":"uint256","name":"","type":"uint256"},{"internalType":"uint256","name":"","type":"uint256"}],"name":"eventTickets","outputs":[{"internalType":"uint256","name":"","type":"uint256"}],"stateMutability":"view","type":"function"},{"inputs":[{"internalType":"uint256","name":"tokenId","type":"uint256"}],"name":"exists","outputs":[{"internalType":"bool","name":"","type":"bool"}],"stateMutability":"view","type":"function"},{"inputs":[{"internalType":"uint256","name":"tokenId","type":"uint256"}],"name":"getApproved","outputs":[{"internalType":"address","name":"","type":"address"}],"stateMutability":"view","type":"function"},{"inputs":[],"name":"getContractStats","outputs":[{"internalType":"uint256","name":"totalTickets","type":"uint256"},{"internalType":"uint256","name":"activeTickets","type":"uint256"},{"internalType":"uint256","name":"totalUsedTickets","type":"uint256"}],"stateMutability":"view","type":"function"},{"inputs":[{"internalType":"uint256","name":"eventId","type":"uint256"}],"name":"getEventTickets","outputs":[{"internalType":"uint256[]","name":"","type":"uint256[]"}],"stateMutability":"view","type":"function"},{"inputs":[{"internalType":"uint256","name":"tokenId","type":"uint256"}],"name":"getTicketMetadata","outputs":[{"internalType":"uint256","name":"eventId","type":"uint256"},{"internalType":"address","name":"eventContractAddr","type":"address"},{"internalType":"address","name":"purchaser","type":"address"},{"internalType":"uint256","name":"purchaseDate","type":"uint256"},{"internalType":"bool","name":"isUsed","type":"bool"},{"internalType":"bool","name":"isActive","type":"bool"},{"internalType":"string","name":"seatInfo","type":"string"},{"internalType":"string","name":"ticketType","type":"string"}],"stateMutability":"view","type":"function"},{"inputs":[{"internalType":"address","name":"owner","type":"address"}],"name":"getTicketsByOwner","outputs":[{"internalType":"uint256[]","name":"","type":"uint256[]"}],"stateMutability":"view","type":"function"},{"inputs":[{"internalType":"address","name":"owner","type":"address"},{"internalType":"address","name":"operator","type":"address"}],"name":"isApprovedForAll","outputs":[{"internalType":"bool","name":"","type":"bool"}],"stateMutability":"view","type":"function"},{"inputs":[{"internalType":"address[]","name":"recipients","type":"address[]"},{"internalType":"uint256","name":"eventId","type":"uint256"},{"internalType":"address","name":"eventContractAddr","type":"address"},{"internalType":"string[]","name":"seatInfos","type":"string[]"},{"internalType":"string","name":"ticketType","type":"string"},{"internalType":"string","name":"baseMetadataURI","type":"string"}],"name":"mintBatchTickets","outputs":[{"internalType":"uint256[]","name":"","type":"uint256[]"}],"stateMutability":"nonpayable","type":"function"},{"inputs":[{"internalType":"address","name":"to","type":"address"},{"internalType":"uint256","name":"eventId","type":"uint256"},{"internalType":"address","name":"eventContractAddr","type":"address"},{"internalType":"string","name":"seatInfo","type":"string"},{"internalType":"string","name":"ticketType","type":"string"},{"internalType":"string","name":"metadataURI","type":"string"}],"name":"mintTicket","outputs":[{"internalType":"uint256","name":"","type":"uint256"}],"stateMutability":"nonpayable","type":"function"},{"inputs":[{"internalType":"address","name":"to","type":"address"},{"internalType":"uint256","name":"eventId","type":"uint256"},{"internalType":"address","name":"purchaser","type":"address"}],"name":"mintTicketForEvent","outputs":[{"internalType":"uint256","name":"","type":"uint256"}],"stateMutability":"nonpayable","type":"function"},{"inputs":[],"name":"name","outputs":[{"internalType":"string","name":"","type":"string"}],"stateMutability":"view","type":"function"},{"inputs":[],"name":"owner","outputs":[{"internalType":"address","name":"","type":"address"}],"stateMutability":"view","type":"function"},{"inputs":[{"internalType":"uint256","name":"tokenId","type":"uint256"}],"name":"ownerOf","outputs":[{"internalType":"address","name":"","type":"address"}],"stateMutability":"view","type":"function"},{"inputs":[],"name":"paymentProcessor","outputs":[{"internalType":"address","name":"","type":"address"}],"stateMutability":"view","type":"function"},{"inputs":[],"name":"renounceOwnership","outputs":[],"stateMutability":"nonpayable","type":"function"},{"inputs":[{"internalType":"address","name":"from","type":"address"},{"internalType":"address","name":"to","type":"address"},{"internalType":"uint256","name":"tokenId","type":"uint256"}],"name":"safeTransferFrom","outputs":[],"stateMutability":"nonpayable","type":"function"},{"inputs":[{"internalType":"address","name":"from","type":"address"},{"internalType":"address","name":"to","type":"address"},{"internalType":"uint256","name":"tokenId","type":"uint256"},{"internalType":"bytes","name":"data","type":"bytes"}],"name":"safeTransferFrom","outputs":[],"stateMutability":"nonpayable","type":"function"},{"inputs":[{"internalType":"address","name":"operator","type":"address"},{"internalType":"bool","name":"approved","type":"bool"}],"name":"setApprovalForAll","outputs":[],"stateMutability":"nonpayable","type":"function"},{"inputs":[{"internalType":"address","name":"_eventContract","type":"address"}],"name":"setEventContract","outputs":[],"stateMutability":"nonpayable","type":"function"},{"inputs":[{"internalType":"address","name":"_paymentProcessor","type":"address"}],"name":"setPaymentProcessor","outputs":[],"stateMutability":"nonpayable","type":"function"},{"inputs":[{"internalType":"bytes4","name":"interfaceId","type":"bytes4"}],"name":"supportsInterface","outputs":[{"internalType":"bool","name":"","type":"bool"}],"stateMutability":"view","type":"function"},{"inputs":[],"name":"symbol","outputs":[{"internalType":"string","name":"","type":"string"}],"stateMutability":"view","type":"function"},{"inputs":[{"internalType":"uint256","name":"","type":"uint256"}],"name":"ticketMetadata","outputs":[{"internalType":"uint256","name":"eventId","type":"uint256"},{"internalType":"address","name":"eventContract","type":"address"},{"internalType":"address","name":"purchaser","type":"address"},{"internalType":"uint256","name":"purchaseDate","type":"uint256"},{"internalType":"bool","name":"isUsed","type":"bool"},{"internalType":"bool","name":"isActive","type":"bool"},{"internalType":"string","name":"seatInfo","type":"string"},{"internalType":"string","name":"ticketType","type":"string"}],"stateMutability":"view","type":"function"},{"inputs":[{"internalType":"uint256","name":"tokenId","type":"uint256"}],"name":"tokenURI","outputs":[{"internalType":"string","name":"","type":"string"}],"stateMutability":"view","type":"function"},{"inputs":[],"name":"totalSupply","outputs":[{"internalType":"uint256","name":"","type":"uint256"}],"stateMutability":"view","type":"function"},{"inputs":[{"internalType":"address","name":"from","type":"address"},{"internalType":"address","name":"to","type":"address"},{"internalType":"uint256","name":"tokenId","type":"uint256"}],"name":"transferFrom","outputs":[],"stateMutability":"nonpayable","type":"function"},{"inputs":[{"internalType":"address","name":"newOwner","type":"address"}],"name":"transferOwnership","outputs":[],"stateMutability":"nonpayable","type":"function"},{"inputs":[{"internalType":"uint256","name":"tokenId","type":"uint256"}],"name":"useTicket","outputs":[],"stateMutability":"nonpayable","type":"function"},{"inputs":[{"internalType":"uint256","name":"","type":"uint256"}],"name":"usedTickets","outputs":[{"internalType":"bool","name":"","type":"bool"}],"stateMutability":"view","type":"function"},{"inputs":[{"internalType":"uint256","name":"tokenId","type":"uint256"},{"internalType":"uint256","name":"eventId","type":"uint256"}],"name":"verifyTicket","outputs":[{"internalType":"bool","name":"","type":"bool"}],"stateMutability":"view","type":"function"}],"evm":{"bytecode":{"linkReferences":{},"object":"6080346200035f576001600160401b03906040908082018381118282101762000349578252600b81526020916a115d995b9d151a58dad95d60aa1b8383015280519381850185811082821117620003495782526004855263115512d560e21b84860152825181811162000349576000948554916001958684811c941680156200033e575b838510146200032a578190601f94858111620002d7575b5083908583116001146200027357899262000267575b5050600019600383901b1c191690861b1786555b8651928311620002535784548581811c9116801562000248575b828210146200023457828111620001ec575b50809183116001146200018357508495829394959262000177575b5050600019600383901b1c191690831b1782555b60078054336001600160a01b03198216811790925591519390916001600160a01b0316907f8be0079c531659141344cd1fd0a4f28419497f9722a3daafe3b4186f6b6457e09080a360085561367a9081620003658239f35b0151905038806200010b565b90601f198316968587528287209287905b898210620001d45750508386979896959610620001ba575b505050811b0182556200011f565b015160001960f88460031b161c19169055388080620001ac565b80888596829496860151815501950193019062000194565b8587528187208380860160051c8201928487106200022a575b0160051c019086905b8281106200021e575050620000f0565b8881550186906200020e565b9250819262000205565b634e487b7160e01b87526022600452602487fd5b90607f1690620000de565b634e487b7160e01b86526041600452602486fd5b015190503880620000b0565b898052848a208994509190601f1984168b5b87828210620002c05750508411620002a6575b505050811b018655620000c4565b015160001960f88460031b161c1916905538808062000298565b8385015186558c9790950194938401930162000285565b9091508880528389208580850160051c82019286861062000320575b918a91869594930160051c01915b828110620003115750506200009a565b8b81558594508a910162000301565b92508192620002f3565b634e487b7160e01b88526022600452602488fd5b93607f169362000083565b634e487b7160e01b600052604160045260246000fd5b600080fdfe608080604052600436101561001357600080fd5b60003560e01c90816301ffc9a71461224e5750806303446b181461223557806306fdde0314612192578063078cc98614611cdb578063081812fc14611cbd578063088b0d7514611bfe578063095ea7b314611a8457806318160ddd14611a6657806323b872dd146119d157806326606448146118d657806342842e0e146117b75780634f558e791461177b57806351858e27146117605780635a7b914c146110f25780636352211e146110c2578063656f0f0f1461104d57806367aa23e214610f7257806370a0823114610f47578063715018a614610eea57806371efdc2114610eb9578063779cea7714610e7a5780637f677bd014610a145780638da5cb5b146109eb57806395d89b411461090c578063a22cb46514610831578063b88d4fde14610718578063ba0ae43c14610625578063c87b56dd146105b3578063ca261ce11461053d578063dfe6b5d614610477578063e274fd241461044e578063e985e9c5146103f8578063ea05fc511461037b578063ee355b1f1461029d578063f1c6bdf8146102745763f2fde38b146101ab57600080fd5b3461026f57602036600319011261026f576101c4612331565b6101cc61262c565b6001600160a01b0390811690811561021b57600754826001600160601b0360a01b821617600755167f8be0079c531659141344cd1fd0a4f28419497f9722a3daafe3b4186f6b6457e0600080a3005b60405162461bcd60e51b815260206004820152602660248201527f4f776e61626c653a206e6577206f776e657220697320746865207a65726f206160448201526564647265737360d01b6064820152608490fd5b600080fd5b3461026f57600036600319011261026f57600e546040516001600160a01b039091168152602090f35b3461026f57602036600319011261026f576004356102b961262c565b6000818152600260205260409020546102dc906001600160a01b0316151561333d565b80600052600a60205260ff600460406000200154166103365780600052600a602052600460406000200161ff001981541690557f90a5808be5f77b4a2e0aa0389f433983252aabf738204c5c421fc59e5ecdaeea600080a2005b60405162461bcd60e51b815260206004820152601960248201527f43616e6e6f742063616e63656c2075736564207469636b6574000000000000006044820152606490fd5b3461026f57602036600319011261026f57600435600052600a602052604060002080546103f460018060a01b03918260018501541692600285015416936003810154916004820154906103dc60066103d560058601612586565b9401612586565b9360405197889760ff808660081c16951693896124f0565b0390f35b3461026f57604036600319011261026f57610411612331565b61041961235d565b9060018060a01b03809116600052600560205260406000209116600052602052602060ff604060002054166040519015158152f35b3461026f57600036600319011261026f57600d546040516001600160a01b039091168152602090f35b3461026f57600036600319011261026f576009546000908160015b828111156104b157509160609260405192835260208301526040820152f35b6000818152600260205260409020546001600160a01b03166104dc575b6104d790613045565b610492565b9283600052600a60205260046040600020015460ff9081811660001461051357505061050a6104d791613045565b935b90506104ce565b60089592951c16610528575b6104d79061050c565b906105356104d791613045565b91905061051f565b3461026f5760208060031936011261026f57600435600052600b8152604060002090604051908181845491828152019360005281600020916000905b82821061059c576103f485610590818903826123df565b60405191829182612487565b835486529485019460019384019390910190610579565b3461026f57602036600319011261026f576004356000818152600260205260409020546105ea906001600160a01b031615156126fb565b60005260066020526103f46106026040600020612586565b6000604051610610816123c4565b5260405191829160208352602083019061230c565b3461026f57602036600319011261026f5760043560008181526002602052604090205461065c906001600160a01b0316151561333d565b600052600a6020526040600020604051610675816123a8565b815481526103f460018060a01b039182600185015416926020820193845280600286015416946040830195865260038101549160608401928352600482015490608085019060ff83161515825260ff60a087019360081c1615158352806106f160066106e360058801612586565b9660c08a0197885201612586565b968760e08201525198511698511693519051151591511515925193604051988998896124f0565b3461026f57608036600319011261026f57610731612331565b61073961235d565b6044356064356001600160401b03811161026f573660238201121561026f5761080561077261080a923690602481600401359101612432565b83600052600a60205261079060ff60046040600020015416156131d0565b83600052600a6020526107b060ff60046040600020015460081c16613212565b6001600160a01b03948490866107c583612747565b16966107d5818a16988914613381565b8116976107e38915156133bd565b6107f56107f0843361346b565b613409565b610800838383613533565b612bb6565b612a26565b7fd15524263ae66f75c1e604c47db6085085110f23ef7322b355179ac5e3b0783a600080a4005b3461026f57604036600319011261026f5761084a612331565b602435908115159081830361026f576001600160a01b0316913383146108c7576108999033600052600560205260406000208460005260205260406000209060ff801983541691151516179055565b6040519081527f17307eab39ab6107e8899845ad3d59bd9653f200f220920489ca2b5937696c3160203392a3005b60405162461bcd60e51b815260206004820152601960248201527f4552433732313a20617070726f766520746f2063616c6c6572000000000000006044820152606490fd5b3461026f57600036600319011261026f57604051600060018054906109308261254c565b808552918181169081156109c4575060011461096b575b6103f484610957818603826123df565b60405191829160208352602083019061230c565b600081815292507fb10e2d527612073b26eecdfd717e6a320cf44b4afac2b0732d9fcbe2b7fa0cf65b8284106109ac57505050810160200161095782610947565b80546020858701810191909152909301928101610994565b60ff191660208087019190915292151560051b850190920192506109579150839050610947565b3461026f57600036600319011261026f576007546040516001600160a01b039091168152602090f35b3461026f5760c036600319011261026f57610a2d612331565b610a35612347565b906064356001600160401b03811161026f57610a55903690600401612469565b6084356001600160401b03811161026f57610a74903690600401612469565b60a4356001600160401b03811161026f57610a93903690600401612469565b91610a9c61262c565b600d54610ac7906001600160a01b0316610ab78115156127f4565b6001600160a01b038716146127a8565b610ada610ad5602435612e71565b612838565b610af86001600954019384600955610af285876128be565b84612c41565b60405194610b05866123a8565b602435865260018060a01b0316602086015260018060a01b038416604086015242606086015260006080860152600160a086015260c085015260e084015280600052600a6020526040600020835181556001810160018060a01b03602086015116906001600160601b0360a01b9182825416179055600282019060018060a01b036040870151169082541617905560608401516003820155610bdb60048201610bc060808701511515829060ff801983541691151516179055565b60a0860151815461ff00191690151560081b61ff0016179055565b60c08401518051906001600160401b038211610d9f57610bfe600584015461254c565b601f8111610e33575b50602090601f8311600114610dc057918060e09492600694600092610db5575b50508160011b916000199060031b1c19161760058201555b019301519283516001600160401b038111610d9f57610c5e825461254c565b601f8111610d57575b50806020958690601f8311600114610cf357600092610ce8575b50508160011b916000199060031b1c19161790555b602435600052600b8352610cae816040600020612884565b604051916001600160a01b0316602435827f085ec0eff4bf526b0dd054adffcd8bd8da42126a1133ce302042973f32029fb0600080a48152f35b015190508680610c81565b60008581528881209350601f198516905b818110610d405750908460019594939210610d27575b505050811b019055610c96565b015160001960f88460031b161c19169055868080610d1a565b929389600181928786015181550195019301610d04565b826000526020600020601f830160051c81019160208410610d95575b601f0160051c01905b818110610d895750610c67565b60008155600101610d7c565b9091508190610d73565b634e487b7160e01b600052604160045260246000fd5b015190508880610c27565b90601f198316916005850160005260206000209260005b818110610e1b575092600192859260069660e0989610610e02575b505050811b016005820155610c3f565b015160001960f88460031b161c19169055888080610df2565b92936020600181928786015181550195019301610dd7565b600584016000526020600020601f840160051c810160208510610e73575b601f830160051c82018110610e67575050610c07565b60008155600101610e51565b5080610e51565b3461026f57610e88366122d3565b90600052600b6020526040600020805482101561026f57602091610eab916124c2565b90546040519160031b1c8152f35b3461026f57602036600319011261026f57600435600052600c602052602060ff604060002054166040519015158152f35b3461026f57600036600319011261026f57610f0361262c565b600780546001600160a01b031981169091556000906001600160a01b03167f8be0079c531659141344cd1fd0a4f28419497f9722a3daafe3b4186f6b6457e08280a3005b3461026f57602036600319011261026f576020610f6a610f65612331565b612684565b604051908152f35b3461026f57602036600319011261026f57610f8b612331565b610f9481612684565b610f9d81613013565b906009549060009060019283805b610fbe575b604051806103f48882612487565b8181111580611044575b1561103f576000818152600260205260409020546001600160a01b0316151580611022575b611001575b610ffb90613045565b84610fab565b9261101a8185611014610ffb948a613054565b52613045565b939050610ff2565b5061102c81612747565b6001600160a01b03888116911614610fed565b610fb0565b50828410610fc8565b3461026f57602036600319011261026f57611066612331565b61106e61262c565b6001600160a01b03908116906110858215156127a8565b600d54826001600160601b0360a01b821617600d55167faabd72c2deac39cf65b5bc46edc0595d34778a4cb1641f4318d6937f4db7766f600080a3005b3461026f57602036600319011261026f5760206110e0600435612747565b6040516001600160a01b039091168152f35b3461026f5760c036600319011261026f576004356001600160401b03811161026f573660238201121561026f57806004013561112d81612400565b9161113b60405193846123df565b8183526024602084019260051b8201019036821161026f57602401915b8183106117405783611168612347565b90606435906001600160401b03821161026f573660238301121561026f57816004013561119481612400565b926111a260405194856123df565b8184526024602085019260051b8201019036821161026f5760248101925b82841061171157505050506084356001600160401b03811161026f576111ea903690600401612469565b60a4356001600160401b03811161026f57611209903690600401612469565b9161121261262c565b80518451036116ba57600d54611236906001600160a01b0316610ab78115156127f4565b611244610ad5602435612e71565b61124e8151613013565b9160005b82518110156116ac5760096001815401809155600182018211611696576112ed61127e60018401613068565b6112ca60405191828a51611299818d602080860191016122e9565b8101602f60f81b60208201528251906112bb82602195602087850191016122e9565b010360018101845201826123df565b6112e7836001600160a01b036112e0878a613054565b51166128be565b82612c41565b6001600160a01b036112ff8386613054565b511661130b8389613054565b5160405190611319826123a8565b60243582526113e5602083019360018060a01b038d16855260408401908152606084019042825260808501916000835260a08601916001835260c087019586528a60e088015288600052600a60205260406000209787518955600189019060018060a01b03905116906001600160601b0360a01b9182825416179055600289019160018060a01b03905116908254161790555160038701556113ce6004870192511515839060ff801983541691151516179055565b51815461ff00191690151560081b61ff0016179055565b518051906001600160401b038211610d9f57611404600585015461254c565b601f811161164f575b50602090601f83116001146115dc5760e0939291600091836115d1575b50508160011b916000199060031b1c19161760058401555b01518051906001600160401b038211610d9f57611462600684015461254c565b601f811161158a575b50602090601f831160011461151457918060069261150497969594600092611509575b50508160011b916000199060031b1c1916179101555b602435600052600b6020526114bd816040600020612884565b6001600160a01b036114cf8387613054565b5116602435827f085ec0eff4bf526b0dd054adffcd8bd8da42126a1133ce302042973f32029fb0600080a46110148287613054565b611252565b015190508d8061148e565b906006840160005260206000209160005b601f19851681106115725750926006926001926115049897969583601f19811610611559575b505050811b019101556114a4565b015160001960f88460031b161c191690558d808061154b565b91926020600181928685015181550194019201611525565b600684016000526020600020601f840160051c8101602085106115ca575b601f830160051c820181106115be57505061146b565b600081556001016115a8565b50806115a8565b015190508d8061142a565b906005850160005260206000209160005b601f1985168110611637575091839160019360e09695601f1981161061161e575b505050811b016005840155611442565b015160001960f88460031b161c191690558d808061160e565b919260206001819286850151815501940192016115ed565b600585016000526020600020601f840160051c81016020851061168f575b601f830160051c8201811061168357505061140d565b6000815560010161166d565b508061166d565b634e487b7160e01b600052601160045260246000fd5b604051806103f48682612487565b60405162461bcd60e51b815260206004820152602960248201527f526563697069656e747320616e64207365617420696e666f73206c656e677468604482015268040dad2e6dac2e8c6d60bb1b6064820152608490fd5b83356001600160401b03811161026f57602091611735839260243691870101612469565b8152019301926111c0565b82356001600160a01b038116810361026f57815260209283019201611158565b3461026f57600036600319011261026f5761177961262c565b005b3461026f57602036600319011261026f576004356000908152600260209081526040909120546001600160a01b031615155b6040519015158152f35b3461026f576117c536612373565b80600052600a6020526117e360ff60046040600020015416156131d0565b80600052600a60205261180360ff60046040600020015460081c16613212565b6118a76108056001600160a01b03838161181c82612747565b169561182c838916978814613381565b828116976107e389151561183f816133bd565b6118a26040519661184f886123c4565b6000885286600052600a60205261187160ff60046040600020015416156131d0565b86600052600a60205261189160ff60046040600020015460081c16613212565b61189a87612747565b168b14613381565b6133bd565b7fd15524263ae66f75c1e604c47db6085085110f23ef7322b355179ac5e3b0783a83838383600080a4600080a4005b3461026f5760208060031936011261026f57600435906118f582612747565b336001600160a01b039091160361199a5781600052600a815261192360ff60046040600020015416156131d0565b81600052600a815261194260ff60046040600020015460081c16613212565b81600052600a8152600c60046040600020019160ff199260018482541617905552600160406000209182541617905533907f07c2221c844690cb15e32907258d38446cd4a17bc9b84e2069cd955615d547fd600080a3005b6064906040519062461bcd60e51b82526004820152601060248201526f2737ba103a34b1b5b2ba1037bbb732b960811b6044820152fd5b3461026f576119df36612373565b80600052600a6020526119fd60ff60046040600020015416156131d0565b80600052600a602052611a1d60ff60046040600020015460081c16613212565b6001600160a01b039161080a90829084611a3683612747565b1694611a46818816968714613381565b811695611a548715156133bd565b611a616107f0843361346b565b613533565b3461026f57600036600319011261026f576020600954604051908152f35b3461026f57604036600319011261026f57611a9d612331565b602435906001600160a01b038080611ab485612747565b16921691808314611baf57803314908115611b8a575b5015611b1f57600083815260046020526040902080546001600160a01b03191683179055611af783612747565b167f8c5be1e5ebec7d5bd14f71427d1e84f3dd0314c0f7b2291e5b200ac8c7c3b925600080a4005b60405162461bcd60e51b815260206004820152603d60248201527f4552433732313a20617070726f76652063616c6c6572206973206e6f7420746f60448201527f6b656e206f776e6572206f7220617070726f76656420666f7220616c6c0000006064820152608490fd5b9050600052600560205260406000203360005260205260ff6040600020541684611aca565b60405162461bcd60e51b815260206004820152602160248201527f4552433732313a20617070726f76616c20746f2063757272656e74206f776e656044820152603960f91b6064820152608490fd5b3461026f57602036600319011261026f57611c17612331565b611c1f61262c565b6001600160a01b03908116908115611c6e57600e54826001600160601b0360a01b821617600e55167f136038487aabf3739b91acb5eb89bf0da13241b5f155cc8edcce2b5119e7b901600080a3005b60405162461bcd60e51b815260206004820152602160248201527f496e76616c6964207061796d656e742070726f636573736f72206164647265736044820152607360f81b6064820152608490fd5b3461026f57602036600319011261026f5760206110e060043561276a565b3461026f57606036600319011261026f57611cf4612331565b611cfc612347565b600d549091906001600160a01b0316330361213b57611d1f610ad5602435612e71565b60016009540180600955611d3381836128be565b611dca611d41602435613068565b6047611d4c84613068565b916040519283917f68747470733a2f2f6170692e6576656e747469636b6574732e636f6d2f6d657460208401526561646174612f60d01b6040840152611d9c8151809260206046870191016122e9565b8201602f60f81b6046820152611dbb82518093602087850191016122e9565b010360278101835201906123df565b611dd381613068565b611e0e6025604051809364536561742d60d81b6020830152611dfe81518092602086860191016122e9565b81010360058101845201826123df565b600d5460405194906001600160a01b0316611e28866123a8565b6024358652602086015260018060a01b0316604085015242606085015260006080850152600160a085015260c08401526040518060408101106001600160401b03604083011117610d9f5760408101604052600881526714dd185b99185c9960c21b602082015260e084015280600052600a6020526040600020835181556001810160018060a01b03602086015116906001600160601b0360a01b9182825416179055600282019060018060a01b036040870151169082541617905560608401516003820155611f1160048201610bc060808701511515829060ff801983541691151516179055565b60c08401518051906001600160401b038211610d9f57611f34600584015461254c565b601f81116120f4575b50602090601f831160011461207f57918060e09492600694600092612074575b50508160011b916000199060031b1c19161760058201555b019301519283516001600160401b038111610d9f57611f94825461254c565b601f811161202c575b50806020958690601f8311600114611fe257600092610ce85750508160011b916000199060031b1c1916179055602435600052600b8352610cae816040600020612884565b60008581528881209350601f198516905b8181106120155750908460019594939210610d2757505050811b019055610c96565b929389600181928786015181550195019301611ff3565b826000526020600020601f830160051c8101916020841061206a575b601f0160051c01905b81811061205e5750611f9d565b60008155600101612051565b9091508190612048565b015190508880611f5d565b906005840160005260206000209160005b601f19851681106120dc57509260e0949260019260069583601f198116106120c3575b505050811b016005820155611f75565b015160001960f88460031b161c191690558880806120b3565b91926020600181928685015181550194019201612090565b600584016000526020600020601f840160051c810160208510612134575b601f830160051c82018110612128575050611f3d565b60008155600101612112565b5080612112565b60405162461bcd60e51b815260206004820152602960248201527f4f6e6c79204576656e74436f6e74726163742063616e2063616c6c207468697360448201526810333ab731ba34b7b760b91b6064820152608490fd5b3461026f57600036600319011261026f57604051600080546121b38161254c565b808452906001908181169081156109c457506001146121dc576103f484610957818603826123df565b600080805292507f290decd9548b62a8d60345a988386fc84ba6bc95484008f6362f93160ef3e5635b82841061221d57505050810160200161095782610947565b80546020858701810191909152909301928101612205565b3461026f5760206117ad612248366122d3565b90613255565b3461026f57602036600319011261026f576004359063ffffffff60e01b821680920361026f57602091632483248360e11b8114908115612290575b5015158152f35b6380ac58cd60e01b8114915081156122c2575b81156122b1575b5083612289565b6301ffc9a760e01b149050836122aa565b635b5e139f60e01b811491506122a3565b604090600319011261026f576004359060243590565b60005b8381106122fc5750506000910152565b81810151838201526020016122ec565b90602091612325815180928185528580860191016122e9565b601f01601f1916010190565b600435906001600160a01b038216820361026f57565b604435906001600160a01b038216820361026f57565b602435906001600160a01b038216820361026f57565b606090600319011261026f576001600160a01b0390600435828116810361026f5791602435908116810361026f579060443590565b61010081019081106001600160401b03821117610d9f57604052565b602081019081106001600160401b03821117610d9f57604052565b90601f801991011681019081106001600160401b03821117610d9f57604052565b6001600160401b038111610d9f5760051b60200190565b6001600160401b038111610d9f57601f01601f191660200190565b92919261243e82612417565b9161244c60405193846123df565b82948184528183011161026f578281602093846000960137010152565b9080601f8301121561026f5781602061248493359101612432565b90565b6020908160408183019282815285518094520193019160005b8281106124ae575050505090565b8351855293810193928101926001016124a0565b80548210156124da5760005260206000200190600090565b634e487b7160e01b600052603260045260246000fd5b9081526001600160a01b039182166020820152911660408201526060810191909152901515608082015290151560a082015261010060c0820181905261248493919261253e9184019061230c565b9160e081840391015261230c565b90600182811c9216801561257c575b602083101461256657565b634e487b7160e01b600052602260045260246000fd5b91607f169161255b565b906040519182600082549261259a8461254c565b90818452600194858116908160001461260957506001146125c6575b50506125c4925003836123df565b565b9093915060005260209081600020936000915b8183106125f15750506125c4935082010138806125b6565b855488840185015294850194879450918301916125d9565b9150506125c494506020925060ff191682840152151560051b82010138806125b6565b6007546001600160a01b0316330361264057565b606460405162461bcd60e51b815260206004820152602060248201527f4f776e61626c653a2063616c6c6572206973206e6f7420746865206f776e65726044820152fd5b6001600160a01b031680156126a457600052600360205260406000205490565b60405162461bcd60e51b815260206004820152602960248201527f4552433732313a2061646472657373207a65726f206973206e6f7420612076616044820152683634b21037bbb732b960b91b6064820152608490fd5b1561270257565b60405162461bcd60e51b815260206004820152601860248201527f4552433732313a20696e76616c696420746f6b656e20494400000000000000006044820152606490fd5b6000908152600260205260409020546001600160a01b03166124848115156126fb565b60008181526002602052604090205461278d906001600160a01b031615156126fb565b6000908152600460205260409020546001600160a01b031690565b156127af57565b60405162461bcd60e51b815260206004820152601e60248201527f496e76616c6964206576656e7420636f6e7472616374206164647265737300006044820152606490fd5b156127fb57565b60405162461bcd60e51b8152602060048201526015602482015274115d995b9d10dbdb9d1c9858dd081b9bdd081cd95d605a1b6044820152606490fd5b1561283f57565b60405162461bcd60e51b815260206004820152601960248201527f496e76616c6964206f7220696e616374697665206576656e74000000000000006044820152606490fd5b805468010000000000000000811015610d9f576128a6916001820181556124c2565b819291549060031b91821b91600019901b1916179055565b6040516128ca816123c4565b6000808252926001600160a01b03831692831561298f5781610805946125c49661291261290c84600052600260205260018060a01b0360406000205416151590565b15612a4a565b600083815260026020526040902054612935906001600160a01b0316151561290c565b81815260036020526040812060018154019055828152600260205260408120826001600160601b0360a01b8254161790557fddf252ad1be2c89b69c2b068fc378daa952ba7f163c4a11628f55a4df523b3ef8180a4612a96565b606460405162461bcd60e51b815260206004820152602060248201527f4552433732313a206d696e7420746f20746865207a65726f20616464726573736044820152fd5b60809060208152603260208201527f4552433732313a207472616e7366657220746f206e6f6e20455243373231526560408201527131b2b4bb32b91034b6b83632b6b2b73a32b960711b60608201520190565b15612a2d57565b60405162461bcd60e51b815280612a46600482016129d3565b0390fd5b15612a5157565b60405162461bcd60e51b815260206004820152601c60248201527f4552433732313a20746f6b656e20616c7265616479206d696e746564000000006044820152606490fd5b9192600092909190803b15612bac57612ae4946040518092630a85bd0160e11b9485835233600484015287602484015260448301526080606483015281878160209a8b96608483019061230c565b03926001600160a01b03165af1849181612b68575b50612b57575050503d600014612b4f573d612b1381612417565b90612b2160405192836123df565b81528091833d92013e5b80519182612b4c5760405162461bcd60e51b815280612a46600482016129d3565b01fd5b506060612b2b565b6001600160e01b0319161492509050565b9091508581813d8311612ba5575b612b8081836123df565b81010312612ba157516001600160e01b031981168103612ba1579038612af9565b8480fd5b503d612b76565b5050915050600190565b9293600093909291803b15612c3657948491612c109660405180948193630a85bd0160e11b9788845233600485015260018060a01b0380921660248501526044840152608060648401528260209b8c97608483019061230c565b0393165af1849181612b685750612b57575050503d600014612b4f573d612b1381612417565b505050915050600190565b6000818152600260205260409020549192916001600160a01b031615612dd3576000908082526020916006835260408120908551906001600160401b038211612dbf57612c8e835461254c565b601f8111612d7c575b508490601f8311600114612cf857907ff8e1a15aba9398e019f0b49df1a4fde98ee17ae345cb5f6b5e2c27f5033e8ce7969783612ced575b50508160011b916000199060031b1c19161790555b604051908152a1565b015190503880612ccf565b9196601f198816848452868420935b818110612d6557509160019391897ff8e1a15aba9398e019f0b49df1a4fde98ee17ae345cb5f6b5e2c27f5033e8ce7999a9410612d4c575b505050811b019055612ce4565b015160001960f88460031b161c19169055388080612d3f565b929387600181928786015181550195019301612d07565b838252858220601f840160051c810191878510612db5575b601f0160051c01905b818110612daa5750612c97565b828155600101612d9d565b9091508190612d94565b634e487b7160e01b81526041600452602490fd5b60405162461bcd60e51b815260206004820152602e60248201527f45524337323155524953746f726167653a2055524920736574206f66206e6f6e60448201526d32bc34b9ba32b73a103a37b5b2b760911b6064820152608490fd5b81601f8201121561026f578051612e4581612417565b92612e5360405194856123df565b8184526020828401011161026f5761248491602080850191016122e9565b600d546001600160a01b039190821690811561300b57604051928392630368c42760e51b845282600485015283602460009687935afa8493849282612ece575b5050612ebd5750505090565b14915081612ec9575090565b905090565b91945091503d8086843e612ee281846123df565b820190610180838303126130075782519160209182850151906001600160401b0391828111612fff5783612f17918801612e2f565b506040860151828111612fff5783612f30918801612e2f565b506101008601519081160361300357610120850151948515158603612ffb57610140810151828111612fff5783612f68918301612e2f565b5061016081015190828211612fff57019180601f84011215612ffb578251918480612f9285612400565b612f9f60405191826123df565b858152019360051b85010193828511612ff757858101935b858510612fce575050505050505090923880612eb1565b8451838111612ff3578791612fe886848094870101612e2f565b815201940193612fb7565b8c80fd5b8a80fd5b8880fd5b8980fd5b8780fd5b8580fd5b505050600090565b9061301d82612400565b61302a60405191826123df565b828152809261303b601f1991612400565b0190602036910137565b60001981146116965760010190565b80518210156124da5760209160051b010190565b806000917a184f03e93ff9f4daa797ed6e38ed64bf6a1f010000000000000000808210156131c2575b506d04ee2d6d415b85acef8100000000808310156131b3575b50662386f26fc10000808310156131a4575b506305f5e10080831015613195575b5061271080831015613186575b506064821015613176575b600a8092101561316c575b6001908160218186019561310187612417565b9661310f60405198896123df565b80885261311e601f1991612417565b01366020890137860101905b613136575b5050505090565b600019019083906f181899199a1a9b1b9c1cb0b131b232b360811b8282061a8353049182156131675791908261312a565b61312f565b91600101916130ee565b91906064600291049101916130e3565b600491939204910191386130d8565b600891939204910191386130cb565b601091939204910191386130bc565b602091939204910191386130aa565b604093508104915038613091565b156131d757565b60405162461bcd60e51b8152602060048201526013602482015272151a58dad95d08185b1c9958591e481d5cd959606a1b6044820152606490fd5b1561321957565b60405162461bcd60e51b81526020600482015260146024820152735469636b6574206973206e6f742061637469766560601b6044820152606490fd5b6000818152600260205260409020546001600160a01b03161561333657600052600a6020526040600020906040519161328d836123a8565b8054835260018060a01b03806001830154166020850152600282015416604084015260038101546060840152816004820154936132f86006608083019460ff88161515865260ff60a085019860081c16151588526132ed60058201612586565b60c085015201612586565b60e08201525114928361332b575b5082613321575b5081613317575090565b6124849150612e71565b511591503861330d565b511515925038613306565b5050600090565b1561334457565b60405162461bcd60e51b8152602060048201526015602482015274151a58dad95d08191bd95cc81b9bdd08195e1a5cdd605a1b6044820152606490fd5b1561338857565b60405162461bcd60e51b815260206004820152600d60248201526c2737ba103a34329037bbb732b960991b6044820152606490fd5b156133c457565b60405162461bcd60e51b815260206004820152601f60248201527f43616e6e6f74207472616e7366657220746f207a65726f2061646472657373006044820152606490fd5b1561341057565b60405162461bcd60e51b815260206004820152602d60248201527f4552433732313a2063616c6c6572206973206e6f7420746f6b656e206f776e6560448201526c1c881bdc88185c1c1c9bdd9959609a1b6064820152608490fd5b906001600160a01b03808061347f84612747565b169316918383149384156134b2575b50831561349c575b50505090565b6134a89192935061276a565b1614388080613496565b909350600052600560205260406000208260005260205260ff60406000205416923861348e565b156134e057565b60405162461bcd60e51b815260206004820152602560248201527f4552433732313a207472616e736665722066726f6d20696e636f72726563742060448201526437bbb732b960d91b6064820152608490fd5b9061355b9161354184612747565b6001600160a01b03939184169284929091831684146134d9565b169182156135f357816135789161357186612747565b16146134d9565b7fddf252ad1be2c89b69c2b068fc378daa952ba7f163c4a11628f55a4df523b3ef60008481526004602052604081206001600160601b0360a01b9081815416905583825260036020526040822060001981540190558482526040822060018154019055858252600260205284604083209182541617905580a4565b60405162461bcd60e51b8152602060048201526024808201527f4552433732313a207472616e7366657220746f20746865207a65726f206164646044820152637265737360e01b6064820152608490fdfea26469706673582212203ef48252b15234ef8560446926dab1cca6a833f8dcccfd461cdc18a5d7784dc164736f6c63430008130033","opcodes":"PUSH1 0x80 CALLVALUE PUSH3 0x35F JUMPI PUSH1 0x1 PUSH1 0x1 PUSH1 0x40 SHL SUB SWAP1 PUSH1 0x40 SWAP1 DUP1 DUP3 ADD DUP4 DUP2 GT DUP3 DUP3 LT OR PUSH3 0x349 JUMPI DUP3 MSTORE PUSH1 0xB DUP2 MSTORE PUSH1 0x20 SWAP2 PUSH11 0x115D995B9D151A58DAD95D PUSH1 0xAA SHL DUP4 DUP4 ADD MSTORE DUP1 MLOAD SWAP4 DUP2 DUP6 ADD DUP6 DUP2 LT DUP3 DUP3 GT OR PUSH3 0x349 JUMPI DUP3 MSTORE PUSH1 0x4 DUP6 MSTORE PUSH4 0x115512D5 PUSH1 0xE2 SHL DUP5 DUP7 ADD MSTORE DUP3 MLOAD DUP2 DUP2 GT PUSH3 0x349 JUMPI PUSH1 0x0 SWAP5 DUP6 SLOAD SWAP2 PUSH1 0x1 SWAP6 DUP7 DUP5 DUP2 SHR SWAP5 AND DUP1 ISZERO PUSH3 0x33E JUMPI JUMPDEST DUP4 DUP6 LT EQ PUSH3 0x32A JUMPI DUP2 SWAP1 PUSH1 0x1F SWAP5 DUP6 DUP2 GT PUSH3 0x2D7 JUMPI JUMPDEST POP DUP4 SWAP1 DUP6 DUP4 GT PUSH1 0x1 EQ PUSH3 0x273 JUMPI DUP10 SWAP3 PUSH3 0x267 JUMPI JUMPDEST POP POP PUSH1 0x0 NOT PUSH1 0x3 DUP4 SWAP1 SHL SHR NOT AND SWAP1 DUP7 SHL OR DUP7 SSTORE JUMPDEST DUP7 MLOAD SWAP3 DUP4 GT PUSH3 0x253 JUMPI DUP5 SLOAD DUP6 DUP2 DUP2 SHR SWAP2 AND DUP1 ISZERO PUSH3 0x248 JUMPI JUMPDEST DUP3 DUP3 LT EQ PUSH3 0x234 JUMPI DUP3 DUP2 GT PUSH3 0x1EC JUMPI JUMPDEST POP DUP1 SWAP2 DUP4 GT PUSH1 0x1 EQ PUSH3 0x183 JUMPI POP DUP5 SWAP6 DUP3 SWAP4 SWAP5 SWAP6 SWAP3 PUSH3 0x177 JUMPI JUMPDEST POP POP PUSH1 0x0 NOT PUSH1 0x3 DUP4 SWAP1 SHL SHR NOT AND SWAP1 DUP4 SHL OR DUP3 SSTORE JUMPDEST PUSH1 0x7 DUP1 SLOAD CALLER PUSH1 0x1 PUSH1 0x1 PUSH1 0xA0 SHL SUB NOT DUP3 AND DUP2 OR SWAP1 SWAP3 SSTORE SWAP2 MLOAD SWAP4 SWAP1 SWAP2 PUSH1 0x1 PUSH1 0x1 PUSH1 0xA0 SHL SUB AND SWAP1 PUSH32 0x8BE0079C531659141344CD1FD0A4F28419497F9722A3DAAFE3B4186F6B6457E0 SWAP1 DUP1 LOG3 PUSH1 0x8 SSTORE PUSH2 0x367A SWAP1 DUP2 PUSH3 0x365 DUP3 CODECOPY RETURN JUMPDEST ADD MLOAD SWAP1 POP CODESIZE DUP1 PUSH3 0x10B JUMP JUMPDEST SWAP1 PUSH1 0x1F NOT DUP4 AND SWAP7 DUP6 DUP8 MSTORE DUP3 DUP8 KECCAK256 SWAP3 DUP8 SWAP1 JUMPDEST DUP10 DUP3 LT PUSH3 0x1D4 JUMPI POP POP DUP4 DUP7 SWAP8 SWAP9 SWAP7 SWAP6 SWAP7 LT PUSH3 0x1BA JUMPI JUMPDEST POP POP POP DUP2 SHL ADD DUP3 SSTORE PUSH3 0x11F JUMP JUMPDEST ADD MLOAD PUSH1 0x0 NOT PUSH1 0xF8 DUP5 PUSH1 0x3 SHL AND SHR NOT AND SWAP1 SSTORE CODESIZE DUP1 DUP1 PUSH3 0x1AC JUMP JUMPDEST DUP1 DUP9 DUP6 SWAP7 DUP3 SWAP5 SWAP7 DUP7 ADD MLOAD DUP2 SSTORE ADD SWAP6 ADD SWAP4 ADD SWAP1 PUSH3 0x194 JUMP JUMPDEST DUP6 DUP8 MSTORE DUP2 DUP8 KECCAK256 DUP4 DUP1 DUP7 ADD PUSH1 0x5 SHR DUP3 ADD SWAP3 DUP5 DUP8 LT PUSH3 0x22A JUMPI JUMPDEST ADD PUSH1 0x5 SHR ADD SWAP1 DUP7 SWAP1 JUMPDEST DUP3 DUP2 LT PUSH3 0x21E JUMPI POP POP PUSH3 0xF0 JUMP JUMPDEST DUP9 DUP2 SSTORE ADD DUP7 SWAP1 PUSH3 0x20E JUMP JUMPDEST SWAP3 POP DUP2 SWAP3 PUSH3 0x205 JUMP JUMPDEST PUSH4 0x4E487B71 PUSH1 0xE0 SHL DUP8 MSTORE PUSH1 0x22 PUSH1 0x4 MSTORE PUSH1 0x24 DUP8 REVERT JUMPDEST SWAP1 PUSH1 0x7F AND SWAP1 PUSH3 0xDE JUMP JUMPDEST PUSH4 0x4E487B71 PUSH1 0xE0 SHL DUP7 MSTORE PUSH1 0x41 PUSH1 0x4 MSTORE PUSH1 0x24 DUP7 REVERT JUMPDEST ADD MLOAD SWAP1 POP CODESIZE DUP1 PUSH3 0xB0 JUMP JUMPDEST DUP10 DUP1 MSTORE DUP5 DUP11 KECCAK256 DUP10 SWAP5 POP SWAP2 SWAP1 PUSH1 0x1F NOT DUP5 AND DUP12 JUMPDEST DUP8 DUP3 DUP3 LT PUSH3 0x2C0 JUMPI POP POP DUP5 GT PUSH3 0x2A6 JUMPI JUMPDEST POP POP POP DUP2 SHL ADD DUP7 SSTORE PUSH3 0xC4 JUMP JUMPDEST ADD MLOAD PUSH1 0x0 NOT PUSH1 0xF8 DUP5 PUSH1 0x3 SHL AND SHR NOT AND SWAP1 SSTORE CODESIZE DUP1 DUP1 PUSH3 0x298 JUMP JUMPDEST DUP4 DUP6 ADD MLOAD DUP7 SSTORE DUP13 SWAP8 SWAP1 SWAP6 ADD SWAP5 SWAP4 DUP5 ADD SWAP4 ADD PUSH3 0x285 JUMP JUMPDEST SWAP1 SWAP2 POP DUP9 DUP1 MSTORE DUP4 DUP10 KECCAK256 DUP6 DUP1 DUP6 ADD PUSH1 0x5 SHR DUP3 ADD SWAP3 DUP7 DUP7 LT PUSH3 0x320 JUMPI JUMPDEST SWAP2 DUP11 SWAP2 DUP7 SWAP6 SWAP5 SWAP4 ADD PUSH1 0x5 SHR ADD SWAP2 JUMPDEST DUP3 DUP2 LT PUSH3 0x311 JUMPI POP POP PUSH3 0x9A JUMP JUMPDEST DUP12 DUP2 SSTORE DUP6 SWAP5 POP DUP11 SWAP2 ADD PUSH3 0x301 JUMP JUMPDEST SWAP3 POP DUP2 SWAP3 PUSH3 0x2F3 JUMP JUMPDEST PUSH4 0x4E487B71 PUSH1 0xE0 SHL DUP9 MSTORE PUSH1 0x22 PUSH1 0x4 MSTORE PUSH1 0x24 DUP9 REVERT JUMPDEST SWAP4 PUSH1 0x7F AND SWAP4 PUSH3 0x83 JUMP JUMPDEST PUSH4 0x4E487B71 PUSH1 0xE0 SHL PUSH1 0x0 MSTORE PUSH1 0x41 PUSH1 0x4 MSTORE PUSH1 0x24 PUSH1 0x0 REVERT JUMPDEST PUSH1 0x0 DUP1 REVERT INVALID PUSH1 0x80 DUP1 PUSH1 0x40 MSTORE PUSH1 0x4 CALLDATASIZE LT ISZERO PUSH2 0x13 JUMPI PUSH1 0x0 DUP1 REVERT JUMPDEST PUSH1 0x0 CALLDATALOAD PUSH1 0xE0 SHR SWAP1 DUP2 PUSH4 0x1FFC9A7 EQ PUSH2 0x224E JUMPI POP DUP1 PUSH4 0x3446B18 EQ PUSH2 0x2235 JUMPI DUP1 PUSH4 0x6FDDE03 EQ PUSH2 0x2192 JUMPI DUP1 PUSH4 0x78CC986 EQ PUSH2 0x1CDB JUMPI DUP1 PUSH4 0x81812FC EQ PUSH2 0x1CBD JUMPI DUP1 PUSH4 0x88B0D75 EQ PUSH2 0x1BFE JUMPI DUP1 PUSH4 0x95EA7B3 EQ PUSH2 0x1A84 JUMPI DUP1 PUSH4 0x18160DDD EQ PUSH2 0x1A66 JUMPI DUP1 PUSH4 0x23B872DD EQ PUSH2 0x19D1 JUMPI DUP1 PUSH4 0x26606448 EQ PUSH2 0x18D6 JUMPI DUP1 PUSH4 0x42842E0E EQ PUSH2 0x17B7 JUMPI DUP1 PUSH4 0x4F558E79 EQ PUSH2 0x177B JUMPI DUP1 PUSH4 0x51858E27 EQ PUSH2 0x1760 JUMPI DUP1 PUSH4 0x5A7B914C EQ PUSH2 0x10F2 JUMPI DUP1 PUSH4 0x6352211E EQ PUSH2 0x10C2 JUMPI DUP1 PUSH4 0x656F0F0F EQ PUSH2 0x104D JUMPI DUP1 PUSH4 0x67AA23E2 EQ PUSH2 0xF72 JUMPI DUP1 PUSH4 0x70A08231 EQ PUSH2 0xF47 JUMPI DUP1 PUSH4 0x715018A6 EQ PUSH2 0xEEA JUMPI DUP1 PUSH4 0x71EFDC21 EQ PUSH2 0xEB9 JUMPI DUP1 PUSH4 0x779CEA77 EQ PUSH2 0xE7A JUMPI DUP1 PUSH4 0x7F677BD0 EQ PUSH2 0xA14 JUMPI DUP1 PUSH4 0x8DA5CB5B EQ PUSH2 0x9EB JUMPI DUP1 PUSH4 0x95D89B41 EQ PUSH2 0x90C JUMPI DUP1 PUSH4 0xA22CB465 EQ PUSH2 0x831 JUMPI DUP1 PUSH4 0xB88D4FDE EQ PUSH2 0x718 JUMPI DUP1 PUSH4 0xBA0AE43C EQ PUSH2 0x625 JUMPI DUP1 PUSH4 0xC87B56DD EQ PUSH2 0x5B3 JUMPI DUP1 PUSH4 0xCA261CE1 EQ PUSH2 0x53D JUMPI DUP1 PUSH4 0xDFE6B5D6 EQ PUSH2 0x477 JUMPI DUP1 PUSH4 0xE274FD24 EQ PUSH2 0x44E JUMPI DUP1 PUSH4 0xE985E9C5 EQ PUSH2 0x3F8 JUMPI DUP1 PUSH4 0xEA05FC51 EQ PUSH2 0x37B JUMPI DUP1 PUSH4 0xEE355B1F EQ PUSH2 0x29D JUMPI DUP1 PUSH4 0xF1C6BDF8 EQ PUSH2 0x274 JUMPI PUSH4 0xF2FDE38B EQ PUSH2 0x1AB JUMPI PUSH1 0x0 DUP1 REVERT JUMPDEST CALLVALUE PUSH2 0x26F JUMPI PUSH1 0x20 CALLDATASIZE PUSH1 0x3 NOT ADD SLT PUSH2 0x26F JUMPI PUSH2 0x1C4 PUSH2 0x2331 JUMP JUMPDEST PUSH2 0x1CC PUSH2 0x262C JUMP JUMPDEST PUSH1 0x1 PUSH1 0x1 PUSH1 0xA0 SHL SUB SWAP1 DUP2 AND SWAP1 DUP2 ISZERO PUSH2 0x21B JUMPI PUSH1 0x7 SLOAD DUP3 PUSH1 0x1 PUSH1 0x1 PUSH1 0x60 SHL SUB PUSH1 0xA0 SHL DUP3 AND OR PUSH1 0x7 SSTORE AND PUSH32 0x8BE0079C531659141344CD1FD0A4F28419497F9722A3DAAFE3B4186F6B6457E0 PUSH1 0x0 DUP1 LOG3 STOP JUMPDEST PUSH1 0x40 MLOAD PUSH3 0x461BCD PUSH1 0xE5 SHL DUP2 MSTORE PUSH1 0x20 PUSH1 0x4 DUP3 ADD MSTORE PUSH1 0x26 PUSH1 0x24 DUP3 ADD MSTORE PUSH32 0x4F776E61626C653A206E6577206F776E657220697320746865207A65726F2061 PUSH1 0x44 DUP3 ADD MSTORE PUSH6 0x646472657373 PUSH1 0xD0 SHL PUSH1 0x64 DUP3 ADD MSTORE PUSH1 0x84 SWAP1 REVERT JUMPDEST PUSH1 0x0 DUP1 REVERT JUMPDEST CALLVALUE PUSH2 0x26F JUMPI PUSH1 0x0 CALLDATASIZE PUSH1 0x3 NOT ADD SLT PUSH2 0x26F JUMPI PUSH1 0xE SLOAD PUSH1 0x40 MLOAD PUSH1 0x1 PUSH1 0x1 PUSH1 0xA0 SHL SUB SWAP1 SWAP2 AND DUP2 MSTORE PUSH1 0x20 SWAP1 RETURN JUMPDEST CALLVALUE PUSH2 0x26F JUMPI PUSH1 0x20 CALLDATASIZE PUSH1 0x3 NOT ADD SLT PUSH2 0x26F JUMPI PUSH1 0x4 CALLDATALOAD PUSH2 0x2B9 PUSH2 0x262C JUMP JUMPDEST PUSH1 0x0 DUP2 DUP2 MSTORE PUSH1 0x2 PUSH1 0x20 MSTORE PUSH1 0x40 SWAP1 KECCAK256 SLOAD PUSH2 0x2DC SWAP1 PUSH1 0x1 PUSH1 0x1 PUSH1 0xA0 SHL SUB AND ISZERO ISZERO PUSH2 0x333D JUMP JUMPDEST DUP1 PUSH1 0x0 MSTORE PUSH1 0xA PUSH1 0x20 MSTORE PUSH1 0xFF PUSH1 0x4 PUSH1 0x40 PUSH1 0x0 KECCAK256 ADD SLOAD AND PUSH2 0x336 JUMPI DUP1 PUSH1 0x0 MSTORE PUSH1 0xA PUSH1 0x20 MSTORE PUSH1 0x4 PUSH1 0x40 PUSH1 0x0 KECCAK256 ADD PUSH2 0xFF00 NOT DUP2 SLOAD AND SWAP1 SSTORE PUSH32 0x90A5808BE5F77B4A2E0AA0389F433983252AABF738204C5C421FC59E5ECDAEEA PUSH1 0x0 DUP1 LOG2 STOP JUMPDEST PUSH1 0x40 MLOAD PUSH3 0x461BCD PUSH1 0xE5 SHL DUP2 MSTORE PUSH1 0x20 PUSH1 0x4 DUP3 ADD MSTORE PUSH1 0x19 PUSH1 0x24 DUP3 ADD MSTORE PUSH32 0x43616E6E6F742063616E63656C2075736564207469636B657400000000000000 PUSH1 0x44 DUP3 ADD MSTORE PUSH1 0x64 SWAP1 REVERT JUMPDEST CALLVALUE PUSH2 0x26F JUMPI PUSH1 0x20 CALLDATASIZE PUSH1 0x3 NOT ADD SLT PUSH2 0x26F JUMPI PUSH1 0x4 CALLDATALOAD PUSH1 0x0 MSTORE PUSH1 0xA PUSH1 0x20 MSTORE PUSH1 0x40 PUSH1 0x0 KECCAK256 DUP1 SLOAD PUSH2 0x3F4 PUSH1 0x1 DUP1 PUSH1 0xA0 SHL SUB SWAP2 DUP3 PUSH1 0x1 DUP6 ADD SLOAD AND SWAP3 PUSH1 0x2 DUP6 ADD SLOAD AND SWAP4 PUSH1 0x3 DUP2 ADD SLOAD SWAP2 PUSH1 0x4 DUP3 ADD SLOAD SWAP1 PUSH2 0x3DC PUSH1 0x6 PUSH2 0x3D5 PUSH1 0x5 DUP7 ADD PUSH2 0x2586 JUMP JUMPDEST SWAP5 ADD PUSH2 0x2586 JUMP JUMPDEST SWAP4 PUSH1 0x40 MLOAD SWAP8 DUP9 SWAP8 PUSH1 0xFF DUP1 DUP7 PUSH1 0x8 SHR AND SWAP6 AND SWAP4 DUP10 PUSH2 0x24F0 JUMP JUMPDEST SUB SWAP1 RETURN JUMPDEST CALLVALUE PUSH2 0x26F JUMPI PUSH1 0x40 CALLDATASIZE PUSH1 0x3 NOT ADD SLT PUSH2 0x26F JUMPI PUSH2 0x411 PUSH2 0x2331 JUMP JUMPDEST PUSH2 0x419 PUSH2 0x235D JUMP JUMPDEST SWAP1 PUSH1 0x1 DUP1 PUSH1 0xA0 SHL SUB DUP1 SWAP2 AND PUSH1 0x0 MSTORE PUSH1 0x5 PUSH1 0x20 MSTORE PUSH1 0x40 PUSH1 0x0 KECCAK256 SWAP2 AND PUSH1 0x0 MSTORE PUSH1 0x20 MSTORE PUSH1 0x20 PUSH1 0xFF PUSH1 0x40 PUSH1 0x0 KECCAK256 SLOAD AND PUSH1 0x40 MLOAD SWAP1 ISZERO ISZERO DUP2 MSTORE RETURN JUMPDEST CALLVALUE PUSH2 0x26F JUMPI PUSH1 0x0 CALLDATASIZE PUSH1 0x3 NOT ADD SLT PUSH2 0x26F JUMPI PUSH1 0xD SLOAD PUSH1 0x40 MLOAD PUSH1 0x1 PUSH1 0x1 PUSH1 0xA0 SHL SUB SWAP1 SWAP2 AND DUP2 MSTORE PUSH1 0x20 SWAP1 RETURN JUMPDEST CALLVALUE PUSH2 0x26F JUMPI PUSH1 0x0 CALLDATASIZE PUSH1 0x3 NOT ADD SLT PUSH2 0x26F JUMPI PUSH1 0x9 SLOAD PUSH1 0x0 SWAP1 DUP2 PUSH1 0x1 JUMPDEST DUP3 DUP2 GT ISZERO PUSH2 0x4B1 JUMPI POP SWAP2 PUSH1 0x60 SWAP3 PUSH1 0x40 MLOAD SWAP3 DUP4 MSTORE PUSH1 0x20 DUP4 ADD MSTORE PUSH1 0x40 DUP3 ADD MSTORE RETURN JUMPDEST PUSH1 0x0 DUP2 DUP2 MSTORE PUSH1 0x2 PUSH1 0x20 MSTORE PUSH1 0x40 SWAP1 KECCAK256 SLOAD PUSH1 0x1 PUSH1 0x1 PUSH1 0xA0 SHL SUB AND PUSH2 0x4DC JUMPI JUMPDEST PUSH2 0x4D7 SWAP1 PUSH2 0x3045 JUMP JUMPDEST PUSH2 0x492 JUMP JUMPDEST SWAP3 DUP4 PUSH1 0x0 MSTORE PUSH1 0xA PUSH1 0x20 MSTORE PUSH1 0x4 PUSH1 0x40 PUSH1 0x0 KECCAK256 ADD SLOAD PUSH1 0xFF SWAP1 DUP2 DUP2 AND PUSH1 0x0 EQ PUSH2 0x513 JUMPI POP POP PUSH2 0x50A PUSH2 0x4D7 SWAP2 PUSH2 0x3045 JUMP JUMPDEST SWAP4 JUMPDEST SWAP1 POP PUSH2 0x4CE JUMP JUMPDEST PUSH1 0x8 SWAP6 SWAP3 SWAP6 SHR AND PUSH2 0x528 JUMPI JUMPDEST PUSH2 0x4D7 SWAP1 PUSH2 0x50C JUMP JUMPDEST SWAP1 PUSH2 0x535 PUSH2 0x4D7 SWAP2 PUSH2 0x3045 JUMP JUMPDEST SWAP2 SWAP1 POP PUSH2 0x51F JUMP JUMPDEST CALLVALUE PUSH2 0x26F JUMPI PUSH1 0x20 DUP1 PUSH1 0x3 NOT CALLDATASIZE ADD SLT PUSH2 0x26F JUMPI PUSH1 0x4 CALLDATALOAD PUSH1 0x0 MSTORE PUSH1 0xB DUP2 MSTORE PUSH1 0x40 PUSH1 0x0 KECCAK256 SWAP1 PUSH1 0x40 MLOAD SWAP1 DUP2 DUP2 DUP5 SLOAD SWAP2 DUP3 DUP2 MSTORE ADD SWAP4 PUSH1 0x0 MSTORE DUP2 PUSH1 0x0 KECCAK256 SWAP2 PUSH1 0x0 SWAP1 JUMPDEST DUP3 DUP3 LT PUSH2 0x59C JUMPI PUSH2 0x3F4 DUP6 PUSH2 0x590 DUP2 DUP10 SUB DUP3 PUSH2 0x23DF JUMP JUMPDEST PUSH1 0x40 MLOAD SWAP2 DUP3 SWAP2 DUP3 PUSH2 0x2487 JUMP JUMPDEST DUP4 SLOAD DUP7 MSTORE SWAP5 DUP6 ADD SWAP5 PUSH1 0x1 SWAP4 DUP5 ADD SWAP4 SWAP1 SWAP2 ADD SWAP1 PUSH2 0x579 JUMP JUMPDEST CALLVALUE PUSH2 0x26F JUMPI PUSH1 0x20 CALLDATASIZE PUSH1 0x3 NOT ADD SLT PUSH2 0x26F JUMPI PUSH1 0x4 CALLDATALOAD PUSH1 0x0 DUP2 DUP2 MSTORE PUSH1 0x2 PUSH1 0x20 MSTORE PUSH1 0x40 SWAP1 KECCAK256 SLOAD PUSH2 0x5EA SWAP1 PUSH1 0x1 PUSH1 0x1 PUSH1 0xA0 SHL SUB AND ISZERO ISZERO PUSH2 0x26FB JUMP JUMPDEST PUSH1 0x0 MSTORE PUSH1 0x6 PUSH1 0x20 MSTORE PUSH2 0x3F4 PUSH2 0x602 PUSH1 0x40 PUSH1 0x0 KECCAK256 PUSH2 0x2586 JUMP JUMPDEST PUSH1 0x0 PUSH1 0x40 MLOAD PUSH2 0x610 DUP2 PUSH2 0x23C4 JUMP JUMPDEST MSTORE PUSH1 0x40 MLOAD SWAP2 DUP3 SWAP2 PUSH1 0x20 DUP4 MSTORE PUSH1 0x20 DUP4 ADD SWAP1 PUSH2 0x230C JUMP JUMPDEST CALLVALUE PUSH2 0x26F JUMPI PUSH1 0x20 CALLDATASIZE PUSH1 0x3 NOT ADD SLT PUSH2 0x26F JUMPI PUSH1 0x4 CALLDATALOAD PUSH1 0x0 DUP2 DUP2 MSTORE PUSH1 0x2 PUSH1 0x20 MSTORE PUSH1 0x40 SWAP1 KECCAK256 SLOAD PUSH2 0x65C SWAP1 PUSH1 0x1 PUSH1 0x1 PUSH1 0xA0 SHL SUB AND ISZERO ISZERO PUSH2 0x333D JUMP JUMPDEST PUSH1 0x0 MSTORE PUSH1 0xA PUSH1 0x20 MSTORE PUSH1 0x40 PUSH1 0x0 KECCAK256 PUSH1 0x40 MLOAD PUSH2 0x675 DUP2 PUSH2 0x23A8 JUMP JUMPDEST DUP2 SLOAD DUP2 MSTORE PUSH2 0x3F4 PUSH1 0x1 DUP1 PUSH1 0xA0 SHL SUB SWAP2 DUP3 PUSH1 0x1 DUP6 ADD SLOAD AND SWAP3 PUSH1 0x20 DUP3 ADD SWAP4 DUP5 MSTORE DUP1 PUSH1 0x2 DUP7 ADD SLOAD AND SWAP5 PUSH1 0x40 DUP4 ADD SWAP6 DUP7 MSTORE PUSH1 0x3 DUP2 ADD SLOAD SWAP2 PUSH1 0x60 DUP5 ADD SWAP3 DUP4 MSTORE PUSH1 0x4 DUP3 ADD SLOAD SWAP1 PUSH1 0x80 DUP6 ADD SWAP1 PUSH1 0xFF DUP4 AND ISZERO ISZERO DUP3 MSTORE PUSH1 0xFF PUSH1 0xA0 DUP8 ADD SWAP4 PUSH1 0x8 SHR AND ISZERO ISZERO DUP4 MSTORE DUP1 PUSH2 0x6F1 PUSH1 0x6 PUSH2 0x6E3 PUSH1 0x5 DUP9 ADD PUSH2 0x2586 JUMP JUMPDEST SWAP7 PUSH1 0xC0 DUP11 ADD SWAP8 DUP9 MSTORE ADD PUSH2 0x2586 JUMP JUMPDEST SWAP7 DUP8 PUSH1 0xE0 DUP3 ADD MSTORE MLOAD SWAP9 MLOAD AND SWAP9 MLOAD AND SWAP4 MLOAD SWAP1 MLOAD ISZERO ISZERO SWAP2 MLOAD ISZERO ISZERO SWAP3 MLOAD SWAP4 PUSH1 0x40 MLOAD SWAP9 DUP10 SWAP9 DUP10 PUSH2 0x24F0 JUMP JUMPDEST CALLVALUE PUSH2 0x26F JUMPI PUSH1 0x80 CALLDATASIZE PUSH1 0x3 NOT ADD SLT PUSH2 0x26F JUMPI PUSH2 0x731 PUSH2 0x2331 JUMP JUMPDEST PUSH2 0x739 PUSH2 0x235D JUMP JUMPDEST PUSH1 0x44 CALLDATALOAD PUSH1 0x64 CALLDATALOAD PUSH1 0x1 PUSH1 0x1 PUSH1 0x40 SHL SUB DUP2 GT PUSH2 0x26F JUMPI CALLDATASIZE PUSH1 0x23 DUP3 ADD SLT ISZERO PUSH2 0x26F JUMPI PUSH2 0x805 PUSH2 0x772 PUSH2 0x80A SWAP3 CALLDATASIZE SWAP1 PUSH1 0x24 DUP2 PUSH1 0x4 ADD CALLDATALOAD SWAP2 ADD PUSH2 0x2432 JUMP JUMPDEST DUP4 PUSH1 0x0 MSTORE PUSH1 0xA PUSH1 0x20 MSTORE PUSH2 0x790 PUSH1 0xFF PUSH1 0x4 PUSH1 0x40 PUSH1 0x0 KECCAK256 ADD SLOAD AND ISZERO PUSH2 0x31D0 JUMP JUMPDEST DUP4 PUSH1 0x0 MSTORE PUSH1 0xA PUSH1 0x20 MSTORE PUSH2 0x7B0 PUSH1 0xFF PUSH1 0x4 PUSH1 0x40 PUSH1 0x0 KECCAK256 ADD SLOAD PUSH1 0x8 SHR AND PUSH2 0x3212 JUMP JUMPDEST PUSH1 0x1 PUSH1 0x1 PUSH1 0xA0 SHL SUB SWAP5 DUP5 SWAP1 DUP7 PUSH2 0x7C5 DUP4 PUSH2 0x2747 JUMP JUMPDEST AND SWAP7 PUSH2 0x7D5 DUP2 DUP11 AND SWAP9 DUP10 EQ PUSH2 0x3381 JUMP JUMPDEST DUP2 AND SWAP8 PUSH2 0x7E3 DUP10 ISZERO ISZERO PUSH2 0x33BD JUMP JUMPDEST PUSH2 0x7F5 PUSH2 0x7F0 DUP5 CALLER PUSH2 0x346B JUMP JUMPDEST PUSH2 0x3409 JUMP JUMPDEST PUSH2 0x800 DUP4 DUP4 DUP4 PUSH2 0x3533 JUMP JUMPDEST PUSH2 0x2BB6 JUMP JUMPDEST PUSH2 0x2A26 JUMP JUMPDEST PUSH32 0xD15524263AE66F75C1E604C47DB6085085110F23EF7322B355179AC5E3B0783A PUSH1 0x0 DUP1 LOG4 STOP JUMPDEST CALLVALUE PUSH2 0x26F JUMPI PUSH1 0x40 CALLDATASIZE PUSH1 0x3 NOT ADD SLT PUSH2 0x26F JUMPI PUSH2 0x84A PUSH2 0x2331 JUMP JUMPDEST PUSH1 0x24 CALLDATALOAD SWAP1 DUP2 ISZERO ISZERO SWAP1 DUP2 DUP4 SUB PUSH2 0x26F JUMPI PUSH1 0x1 PUSH1 0x1 PUSH1 0xA0 SHL SUB AND SWAP2 CALLER DUP4 EQ PUSH2 0x8C7 JUMPI PUSH2 0x899 SWAP1 CALLER PUSH1 0x0 MSTORE PUSH1 0x5 PUSH1 0x20 MSTORE PUSH1 0x40 PUSH1 0x0 KECCAK256 DUP5 PUSH1 0x0 MSTORE PUSH1 0x20 MSTORE PUSH1 0x40 PUSH1 0x0 KECCAK256 SWAP1 PUSH1 0xFF DUP1 NOT DUP4 SLOAD AND SWAP2 ISZERO ISZERO AND OR SWAP1 SSTORE JUMP JUMPDEST PUSH1 0x40 MLOAD SWAP1 DUP2 MSTORE PUSH32 0x17307EAB39AB6107E8899845AD3D59BD9653F200F220920489CA2B5937696C31 PUSH1 0x20 CALLER SWAP3 LOG3 STOP JUMPDEST PUSH1 0x40 MLOAD PUSH3 0x461BCD PUSH1 0xE5 SHL DUP2 MSTORE PUSH1 0x20 PUSH1 0x4 DUP3 ADD MSTORE PUSH1 0x19 PUSH1 0x24 DUP3 ADD MSTORE PUSH32 0x4552433732313A20617070726F766520746F2063616C6C657200000000000000 PUSH1 0x44 DUP3 ADD MSTORE PUSH1 0x64 SWAP1 REVERT JUMPDEST CALLVALUE PUSH2 0x26F JUMPI PUSH1 0x0 CALLDATASIZE PUSH1 0x3 NOT ADD SLT PUSH2 0x26F JUMPI PUSH1 0x40 MLOAD PUSH1 0x0 PUSH1 0x1 DUP1 SLOAD SWAP1 PUSH2 0x930 DUP3 PUSH2 0x254C JUMP JUMPDEST DUP1 DUP6 MSTORE SWAP2 DUP2 DUP2 AND SWAP1 DUP2 ISZERO PUSH2 0x9C4 JUMPI POP PUSH1 0x1 EQ PUSH2 0x96B JUMPI JUMPDEST PUSH2 0x3F4 DUP5 PUSH2 0x957 DUP2 DUP7 SUB DUP3 PUSH2 0x23DF JUMP JUMPDEST PUSH1 0x40 MLOAD SWAP2 DUP3 SWAP2 PUSH1 0x20 DUP4 MSTORE PUSH1 0x20 DUP4 ADD SWAP1 PUSH2 0x230C JUMP JUMPDEST PUSH1 0x0 DUP2 DUP2 MSTORE SWAP3 POP PUSH32 0xB10E2D527612073B26EECDFD717E6A320CF44B4AFAC2B0732D9FCBE2B7FA0CF6 JUMPDEST DUP3 DUP5 LT PUSH2 0x9AC JUMPI POP POP POP DUP2 ADD PUSH1 0x20 ADD PUSH2 0x957 DUP3 PUSH2 0x947 JUMP JUMPDEST DUP1 SLOAD PUSH1 0x20 DUP6 DUP8 ADD DUP2 ADD SWAP2 SWAP1 SWAP2 MSTORE SWAP1 SWAP4 ADD SWAP3 DUP2 ADD PUSH2 0x994 JUMP JUMPDEST PUSH1 0xFF NOT AND PUSH1 0x20 DUP1 DUP8 ADD SWAP2 SWAP1 SWAP2 MSTORE SWAP3 ISZERO ISZERO PUSH1 0x5 SHL DUP6 ADD SWAP1 SWAP3 ADD SWAP3 POP PUSH2 0x957 SWAP2 POP DUP4 SWAP1 POP PUSH2 0x947 JUMP JUMPDEST CALLVALUE PUSH2 0x26F JUMPI PUSH1 0x0 CALLDATASIZE PUSH1 0x3 NOT ADD SLT PUSH2 0x26F JUMPI PUSH1 0x7 SLOAD PUSH1 0x40 MLOAD PUSH1 0x1 PUSH1 0x1 PUSH1 0xA0 SHL SUB SWAP1 SWAP2 AND DUP2 MSTORE PUSH1 0x20 SWAP1 RETURN JUMPDEST CALLVALUE PUSH2 0x26F JUMPI PUSH1 0xC0 CALLDATASIZE PUSH1 0x3 NOT ADD SLT PUSH2 0x26F JUMPI PUSH2 0xA2D PUSH2 0x2331 JUMP JUMPDEST PUSH2 0xA35 PUSH2 0x2347 JUMP JUMPDEST SWAP1 PUSH1 0x64 CALLDATALOAD PUSH1 0x1 PUSH1 0x1 PUSH1 0x40 SHL SUB DUP2 GT PUSH2 0x26F JUMPI PUSH2 0xA55 SWAP1 CALLDATASIZE SWAP1 PUSH1 0x4 ADD PUSH2 0x2469 JUMP JUMPDEST PUSH1 0x84 CALLDATALOAD PUSH1 0x1 PUSH1 0x1 PUSH1 0x40 SHL SUB DUP2 GT PUSH2 0x26F JUMPI PUSH2 0xA74 SWAP1 CALLDATASIZE SWAP1 PUSH1 0x4 ADD PUSH2 0x2469 JUMP JUMPDEST PUSH1 0xA4 CALLDATALOAD PUSH1 0x1 PUSH1 0x1 PUSH1 0x40 SHL SUB DUP2 GT PUSH2 0x26F JUMPI PUSH2 0xA93 SWAP1 CALLDATASIZE SWAP1 PUSH1 0x4 ADD PUSH2 0x2469 JUMP JUMPDEST SWAP2 PUSH2 0xA9C PUSH2 0x262C JUMP JUMPDEST PUSH1 0xD SLOAD PUSH2 0xAC7 SWAP1 PUSH1 0x1 PUSH1 0x1 PUSH1 0xA0 SHL SUB AND PUSH2 0xAB7 DUP2 ISZERO ISZERO PUSH2 0x27F4 JUMP JUMPDEST PUSH1 0x1 PUSH1 0x1 PUSH1 0xA0 SHL SUB DUP8 AND EQ PUSH2 0x27A8 JUMP JUMPDEST PUSH2 0xADA PUSH2 0xAD5 PUSH1 0x24 CALLDATALOAD PUSH2 0x2E71 JUMP JUMPDEST PUSH2 0x2838 JUMP JUMPDEST PUSH2 0xAF8 PUSH1 0x1 PUSH1 0x9 SLOAD ADD SWAP4 DUP5 PUSH1 0x9 SSTORE PUSH2 0xAF2 DUP6 DUP8 PUSH2 0x28BE JUMP JUMPDEST DUP5 PUSH2 0x2C41 JUMP JUMPDEST PUSH1 0x40 MLOAD SWAP5 PUSH2 0xB05 DUP7 PUSH2 0x23A8 JUMP JUMPDEST PUSH1 0x24 CALLDATALOAD DUP7 MSTORE PUSH1 0x1 DUP1 PUSH1 0xA0 SHL SUB AND PUSH1 0x20 DUP7 ADD MSTORE PUSH1 0x1 DUP1 PUSH1 0xA0 SHL SUB DUP5 AND PUSH1 0x40 DUP7 ADD MSTORE TIMESTAMP PUSH1 0x60 DUP7 ADD MSTORE PUSH1 0x0 PUSH1 0x80 DUP7 ADD MSTORE PUSH1 0x1 PUSH1 0xA0 DUP7 ADD MSTORE PUSH1 0xC0 DUP6 ADD MSTORE PUSH1 0xE0 DUP5 ADD MSTORE DUP1 PUSH1 0x0 MSTORE PUSH1 0xA PUSH1 0x20 MSTORE PUSH1 0x40 PUSH1 0x0 KECCAK256 DUP4 MLOAD DUP2 SSTORE PUSH1 0x1 DUP2 ADD PUSH1 0x1 DUP1 PUSH1 0xA0 SHL SUB PUSH1 0x20 DUP7 ADD MLOAD AND SWAP1 PUSH1 0x1 PUSH1 0x1 PUSH1 0x60 SHL SUB PUSH1 0xA0 SHL SWAP2 DUP3 DUP3 SLOAD AND OR SWAP1 SSTORE PUSH1 0x2 DUP3 ADD SWAP1 PUSH1 0x1 DUP1 PUSH1 0xA0 SHL SUB PUSH1 0x40 DUP8 ADD MLOAD AND SWAP1 DUP3 SLOAD AND OR SWAP1 SSTORE PUSH1 0x60 DUP5 ADD MLOAD PUSH1 0x3 DUP3 ADD SSTORE PUSH2 0xBDB PUSH1 0x4 DUP3 ADD PUSH2 0xBC0 PUSH1 0x80 DUP8 ADD MLOAD ISZERO ISZERO DUP3 SWAP1 PUSH1 0xFF DUP1 NOT DUP4 SLOAD AND SWAP2 ISZERO ISZERO AND OR SWAP1 SSTORE JUMP JUMPDEST PUSH1 0xA0 DUP7 ADD MLOAD DUP2 SLOAD PUSH2 0xFF00 NOT AND SWAP1 ISZERO ISZERO PUSH1 0x8 SHL PUSH2 0xFF00 AND OR SWAP1 SSTORE JUMP JUMPDEST PUSH1 0xC0 DUP5 ADD MLOAD DUP1 MLOAD SWAP1 PUSH1 0x1 PUSH1 0x1 PUSH1 0x40 SHL SUB DUP3 GT PUSH2 0xD9F JUMPI PUSH2 0xBFE PUSH1 0x5 DUP5 ADD SLOAD PUSH2 0x254C JUMP JUMPDEST PUSH1 0x1F DUP2 GT PUSH2 0xE33 JUMPI JUMPDEST POP PUSH1 0x20 SWAP1 PUSH1 0x1F DUP4 GT PUSH1 0x1 EQ PUSH2 0xDC0 JUMPI SWAP2 DUP1 PUSH1 0xE0 SWAP5 SWAP3 PUSH1 0x6 SWAP5 PUSH1 0x0 SWAP3 PUSH2 0xDB5 JUMPI JUMPDEST POP POP DUP2 PUSH1 0x1 SHL SWAP2 PUSH1 0x0 NOT SWAP1 PUSH1 0x3 SHL SHR NOT AND OR PUSH1 0x5 DUP3 ADD SSTORE JUMPDEST ADD SWAP4 ADD MLOAD SWAP3 DUP4 MLOAD PUSH1 0x1 PUSH1 0x1 PUSH1 0x40 SHL SUB DUP2 GT PUSH2 0xD9F JUMPI PUSH2 0xC5E DUP3 SLOAD PUSH2 0x254C JUMP JUMPDEST PUSH1 0x1F DUP2 GT PUSH2 0xD57 JUMPI JUMPDEST POP DUP1 PUSH1 0x20 SWAP6 DUP7 SWAP1 PUSH1 0x1F DUP4 GT PUSH1 0x1 EQ PUSH2 0xCF3 JUMPI PUSH1 0x0 SWAP3 PUSH2 0xCE8 JUMPI JUMPDEST POP POP DUP2 PUSH1 0x1 SHL SWAP2 PUSH1 0x0 NOT SWAP1 PUSH1 0x3 SHL SHR NOT AND OR SWAP1 SSTORE JUMPDEST PUSH1 0x24 CALLDATALOAD PUSH1 0x0 MSTORE PUSH1 0xB DUP4 MSTORE PUSH2 0xCAE DUP2 PUSH1 0x40 PUSH1 0x0 KECCAK256 PUSH2 0x2884 JUMP JUMPDEST PUSH1 0x40 MLOAD SWAP2 PUSH1 0x1 PUSH1 0x1 PUSH1 0xA0 SHL SUB AND PUSH1 0x24 CALLDATALOAD DUP3 PUSH32 0x85EC0EFF4BF526B0DD054ADFFCD8BD8DA42126A1133CE302042973F32029FB0 PUSH1 0x0 DUP1 LOG4 DUP2 MSTORE RETURN JUMPDEST ADD MLOAD SWAP1 POP DUP7 DUP1 PUSH2 0xC81 JUMP JUMPDEST PUSH1 0x0 DUP6 DUP2 MSTORE DUP9 DUP2 KECCAK256 SWAP4 POP PUSH1 0x1F NOT DUP6 AND SWAP1 JUMPDEST DUP2 DUP2 LT PUSH2 0xD40 JUMPI POP SWAP1 DUP5 PUSH1 0x1 SWAP6 SWAP5 SWAP4 SWAP3 LT PUSH2 0xD27 JUMPI JUMPDEST POP POP POP DUP2 SHL ADD SWAP1 SSTORE PUSH2 0xC96 JUMP JUMPDEST ADD MLOAD PUSH1 0x0 NOT PUSH1 0xF8 DUP5 PUSH1 0x3 SHL AND SHR NOT AND SWAP1 SSTORE DUP7 DUP1 DUP1 PUSH2 0xD1A JUMP JUMPDEST SWAP3 SWAP4 DUP10 PUSH1 0x1 DUP2 SWAP3 DUP8 DUP7 ADD MLOAD DUP2 SSTORE ADD SWAP6 ADD SWAP4 ADD PUSH2 0xD04 JUMP JUMPDEST DUP3 PUSH1 0x0 MSTORE PUSH1 0x20 PUSH1 0x0 KECCAK256 PUSH1 0x1F DUP4 ADD PUSH1 0x5 SHR DUP2 ADD SWAP2 PUSH1 0x20 DUP5 LT PUSH2 0xD95 JUMPI JUMPDEST PUSH1 0x1F ADD PUSH1 0x5 SHR ADD SWAP1 JUMPDEST DUP2 DUP2 LT PUSH2 0xD89 JUMPI POP PUSH2 0xC67 JUMP JUMPDEST PUSH1 0x0 DUP2 SSTORE PUSH1 0x1 ADD PUSH2 0xD7C JUMP JUMPDEST SWAP1 SWAP2 POP DUP2 SWAP1 PUSH2 0xD73 JUMP JUMPDEST PUSH4 0x4E487B71 PUSH1 0xE0 SHL PUSH1 0x0 MSTORE PUSH1 0x41 PUSH1 0x4 MSTORE PUSH1 0x24 PUSH1 0x0 REVERT JUMPDEST ADD MLOAD SWAP1 POP DUP9 DUP1 PUSH2 0xC27 JUMP JUMPDEST SWAP1 PUSH1 0x1F NOT DUP4 AND SWAP2 PUSH1 0x5 DUP6 ADD PUSH1 0x0 MSTORE PUSH1 0x20 PUSH1 0x0 KECCAK256 SWAP3 PUSH1 0x0 JUMPDEST DUP2 DUP2 LT PUSH2 0xE1B JUMPI POP SWAP3 PUSH1 0x1 SWAP3 DUP6 SWAP3 PUSH1 0x6 SWAP7 PUSH1 0xE0 SWAP9 SWAP7 LT PUSH2 0xE02 JUMPI JUMPDEST POP POP POP DUP2 SHL ADD PUSH1 0x5 DUP3 ADD SSTORE PUSH2 0xC3F JUMP JUMPDEST ADD MLOAD PUSH1 0x0 NOT PUSH1 0xF8 DUP5 PUSH1 0x3 SHL AND SHR NOT AND SWAP1 SSTORE DUP9 DUP1 DUP1 PUSH2 0xDF2 JUMP JUMPDEST SWAP3 SWAP4 PUSH1 0x20 PUSH1 0x1 DUP2 SWAP3 DUP8 DUP7 ADD MLOAD DUP2 SSTORE ADD SWAP6 ADD SWAP4 ADD PUSH2 0xDD7 JUMP JUMPDEST PUSH1 0x5 DUP5 ADD PUSH1 0x0 MSTORE PUSH1 0x20 PUSH1 0x0 KECCAK256 PUSH1 0x1F DUP5 ADD PUSH1 0x5 SHR DUP2 ADD PUSH1 0x20 DUP6 LT PUSH2 0xE73 JUMPI JUMPDEST PUSH1 0x1F DUP4 ADD PUSH1 0x5 SHR DUP3 ADD DUP2 LT PUSH2 0xE67 JUMPI POP POP PUSH2 0xC07 JUMP JUMPDEST PUSH1 0x0 DUP2 SSTORE PUSH1 0x1 ADD PUSH2 0xE51 JUMP JUMPDEST POP DUP1 PUSH2 0xE51 JUMP JUMPDEST CALLVALUE PUSH2 0x26F JUMPI PUSH2 0xE88 CALLDATASIZE PUSH2 0x22D3 JUMP JUMPDEST SWAP1 PUSH1 0x0 MSTORE PUSH1 0xB PUSH1 0x20 MSTORE PUSH1 0x40 PUSH1 0x0 KECCAK256 DUP1 SLOAD DUP3 LT ISZERO PUSH2 0x26F JUMPI PUSH1 0x20 SWAP2 PUSH2 0xEAB SWAP2 PUSH2 0x24C2 JUMP JUMPDEST SWAP1 SLOAD PUSH1 0x40 MLOAD SWAP2 PUSH1 0x3 SHL SHR DUP2 MSTORE RETURN JUMPDEST CALLVALUE PUSH2 0x26F JUMPI PUSH1 0x20 CALLDATASIZE PUSH1 0x3 NOT ADD SLT PUSH2 0x26F JUMPI PUSH1 0x4 CALLDATALOAD PUSH1 0x0 MSTORE PUSH1 0xC PUSH1 0x20 MSTORE PUSH1 0x20 PUSH1 0xFF PUSH1 0x40 PUSH1 0x0 KECCAK256 SLOAD AND PUSH1 0x40 MLOAD SWAP1 ISZERO ISZERO DUP2 MSTORE RETURN JUMPDEST CALLVALUE PUSH2 0x26F JUMPI PUSH1 0x0 CALLDATASIZE PUSH1 0x3 NOT ADD SLT PUSH2 0x26F JUMPI PUSH2 0xF03 PUSH2 0x262C JUMP JUMPDEST PUSH1 0x7 DUP1 SLOAD PUSH1 0x1 PUSH1 0x1 PUSH1 0xA0 SHL SUB NOT DUP2 AND SWAP1 SWAP2 SSTORE PUSH1 0x0 SWAP1 PUSH1 0x1 PUSH1 0x1 PUSH1 0xA0 SHL SUB AND PUSH32 0x8BE0079C531659141344CD1FD0A4F28419497F9722A3DAAFE3B4186F6B6457E0 DUP3 DUP1 LOG3 STOP JUMPDEST CALLVALUE PUSH2 0x26F JUMPI PUSH1 0x20 CALLDATASIZE PUSH1 0x3 NOT ADD SLT PUSH2 0x26F JUMPI PUSH1 0x20 PUSH2 0xF6A PUSH2 0xF65 PUSH2 0x2331 JUMP JUMPDEST PUSH2 0x2684 JUMP JUMPDEST PUSH1 0x40 MLOAD SWAP1 DUP2 MSTORE RETURN JUMPDEST CALLVALUE PUSH2 0x26F JUMPI PUSH1 0x20 CALLDATASIZE PUSH1 0x3 NOT ADD SLT PUSH2 0x26F JUMPI PUSH2 0xF8B PUSH2 0x2331 JUMP JUMPDEST PUSH2 0xF94 DUP2 PUSH2 0x2684 JUMP JUMPDEST PUSH2 0xF9D DUP2 PUSH2 0x3013 JUMP JUMPDEST SWAP1 PUSH1 0x9 SLOAD SWAP1 PUSH1 0x0 SWAP1 PUSH1 0x1 SWAP3 DUP4 DUP1 JUMPDEST PUSH2 0xFBE JUMPI JUMPDEST PUSH1 0x40 MLOAD DUP1 PUSH2 0x3F4 DUP9 DUP3 PUSH2 0x2487 JUMP JUMPDEST DUP2 DUP2 GT ISZERO DUP1 PUSH2 0x1044 JUMPI JUMPDEST ISZERO PUSH2 0x103F JUMPI PUSH1 0x0 DUP2 DUP2 MSTORE PUSH1 0x2 PUSH1 0x20 MSTORE PUSH1 0x40 SWAP1 KECCAK256 SLOAD PUSH1 0x1 PUSH1 0x1 PUSH1 0xA0 SHL SUB AND ISZERO ISZERO DUP1 PUSH2 0x1022 JUMPI JUMPDEST PUSH2 0x1001 JUMPI JUMPDEST PUSH2 0xFFB SWAP1 PUSH2 0x3045 JUMP JUMPDEST DUP5 PUSH2 0xFAB JUMP JUMPDEST SWAP3 PUSH2 0x101A DUP2 DUP6 PUSH2 0x1014 PUSH2 0xFFB SWAP5 DUP11 PUSH2 0x3054 JUMP JUMPDEST MSTORE PUSH2 0x3045 JUMP JUMPDEST SWAP4 SWAP1 POP PUSH2 0xFF2 JUMP JUMPDEST POP PUSH2 0x102C DUP2 PUSH2 0x2747 JUMP JUMPDEST PUSH1 0x1 PUSH1 0x1 PUSH1 0xA0 SHL SUB DUP9 DUP2 AND SWAP2 AND EQ PUSH2 0xFED JUMP JUMPDEST PUSH2 0xFB0 JUMP JUMPDEST POP DUP3 DUP5 LT PUSH2 0xFC8 JUMP JUMPDEST CALLVALUE PUSH2 0x26F JUMPI PUSH1 0x20 CALLDATASIZE PUSH1 0x3 NOT ADD SLT PUSH2 0x26F JUMPI PUSH2 0x1066 PUSH2 0x2331 JUMP JUMPDEST PUSH2 0x106E PUSH2 0x262C JUMP JUMPDEST PUSH1 0x1 PUSH1 0x1 PUSH1 0xA0 SHL SUB SWAP1 DUP2 AND SWAP1 PUSH2 0x1085 DUP3 ISZERO ISZERO PUSH2 0x27A8 JUMP JUMPDEST PUSH1 0xD SLOAD DUP3 PUSH1 0x1 PUSH1 0x1 PUSH1 0x60 SHL SUB PUSH1 0xA0 SHL DUP3 AND OR PUSH1 0xD SSTORE AND PUSH32 0xAABD72C2DEAC39CF65B5BC46EDC0595D34778A4CB1641F4318D6937F4DB7766F PUSH1 0x0 DUP1 LOG3 STOP JUMPDEST CALLVALUE PUSH2 0x26F JUMPI PUSH1 0x20 CALLDATASIZE PUSH1 0x3 NOT ADD SLT PUSH2 0x26F JUMPI PUSH1 0x20 PUSH2 0x10E0 PUSH1 0x4 CALLDATALOAD PUSH2 0x2747 JUMP JUMPDEST PUSH1 0x40 MLOAD PUSH1 0x1 PUSH1 0x1 PUSH1 0xA0 SHL SUB SWAP1 SWAP2 AND DUP2 MSTORE RETURN JUMPDEST CALLVALUE PUSH2 0x26F JUMPI PUSH1 0xC0 CALLDATASIZE PUSH1 0x3 NOT ADD SLT PUSH2 0x26F JUMPI PUSH1 0x4 CALLDATALOAD PUSH1 0x1 PUSH1 0x1 PUSH1 0x40 SHL SUB DUP2 GT PUSH2 0x26F JUMPI CALLDATASIZE PUSH1 0x23 DUP3 ADD SLT ISZERO PUSH2 0x26F JUMPI DUP1 PUSH1 0x4 ADD CALLDATALOAD PUSH2 0x112D DUP2 PUSH2 0x2400 JUMP JUMPDEST SWAP2 PUSH2 0x113B PUSH1 0x40 MLOAD SWAP4 DUP5 PUSH2 0x23DF JUMP JUMPDEST DUP2 DUP4 MSTORE PUSH1 0x24 PUSH1 0x20 DUP5 ADD SWAP3 PUSH1 0x5 SHL DUP3 ADD ADD SWAP1 CALLDATASIZE DUP3 GT PUSH2 0x26F JUMPI PUSH1 0x24 ADD SWAP2 JUMPDEST DUP2 DUP4 LT PUSH2 0x1740 JUMPI DUP4 PUSH2 0x1168 PUSH2 0x2347 JUMP JUMPDEST SWAP1 PUSH1 0x64 CALLDATALOAD SWAP1 PUSH1 0x1 PUSH1 0x1 PUSH1 0x40 SHL SUB DUP3 GT PUSH2 0x26F JUMPI CALLDATASIZE PUSH1 0x23 DUP4 ADD SLT ISZERO PUSH2 0x26F JUMPI DUP2 PUSH1 0x4 ADD CALLDATALOAD PUSH2 0x1194 DUP2 PUSH2 0x2400 JUMP JUMPDEST SWAP3 PUSH2 0x11A2 PUSH1 0x40 MLOAD SWAP5 DUP6 PUSH2 0x23DF JUMP JUMPDEST DUP2 DUP5 MSTORE PUSH1 0x24 PUSH1 0x20 DUP6 ADD SWAP3 PUSH1 0x5 SHL DUP3 ADD ADD SWAP1 CALLDATASIZE DUP3 GT PUSH2 0x26F JUMPI PUSH1 0x24 DUP2 ADD SWAP3 JUMPDEST DUP3 DUP5 LT PUSH2 0x1711 JUMPI POP POP POP POP PUSH1 0x84 CALLDATALOAD PUSH1 0x1 PUSH1 0x1 PUSH1 0x40 SHL SUB DUP2 GT PUSH2 0x26F JUMPI PUSH2 0x11EA SWAP1 CALLDATASIZE SWAP1 PUSH1 0x4 ADD PUSH2 0x2469 JUMP JUMPDEST PUSH1 0xA4 CALLDATALOAD PUSH1 0x1 PUSH1 0x1 PUSH1 0x40 SHL SUB DUP2 GT PUSH2 0x26F JUMPI PUSH2 0x1209 SWAP1 CALLDATASIZE SWAP1 PUSH1 0x4 ADD PUSH2 0x2469 JUMP JUMPDEST SWAP2 PUSH2 0x1212 PUSH2 0x262C JUMP JUMPDEST DUP1 MLOAD DUP5 MLOAD SUB PUSH2 0x16BA JUMPI PUSH1 0xD SLOAD PUSH2 0x1236 SWAP1 PUSH1 0x1 PUSH1 0x1 PUSH1 0xA0 SHL SUB AND PUSH2 0xAB7 DUP2 ISZERO ISZERO PUSH2 0x27F4 JUMP JUMPDEST PUSH2 0x1244 PUSH2 0xAD5 PUSH1 0x24 CALLDATALOAD PUSH2 0x2E71 JUMP JUMPDEST PUSH2 0x124E DUP2 MLOAD PUSH2 0x3013 JUMP JUMPDEST SWAP2 PUSH1 0x0 JUMPDEST DUP3 MLOAD DUP2 LT ISZERO PUSH2 0x16AC JUMPI PUSH1 0x9 PUSH1 0x1 DUP2 SLOAD ADD DUP1 SWAP2 SSTORE PUSH1 0x1 DUP3 ADD DUP3 GT PUSH2 0x1696 JUMPI PUSH2 0x12ED PUSH2 0x127E PUSH1 0x1 DUP5 ADD PUSH2 0x3068 JUMP JUMPDEST PUSH2 0x12CA PUSH1 0x40 MLOAD SWAP2 DUP3 DUP11 MLOAD PUSH2 0x1299 DUP2 DUP14 PUSH1 0x20 DUP1 DUP7 ADD SWAP2 ADD PUSH2 0x22E9 JUMP JUMPDEST DUP2 ADD PUSH1 0x2F PUSH1 0xF8 SHL PUSH1 0x20 DUP3 ADD MSTORE DUP3 MLOAD SWAP1 PUSH2 0x12BB DUP3 PUSH1 0x21 SWAP6 PUSH1 0x20 DUP8 DUP6 ADD SWAP2 ADD PUSH2 0x22E9 JUMP JUMPDEST ADD SUB PUSH1 0x1 DUP2 ADD DUP5 MSTORE ADD DUP3 PUSH2 0x23DF JUMP JUMPDEST PUSH2 0x12E7 DUP4 PUSH1 0x1 PUSH1 0x1 PUSH1 0xA0 SHL SUB PUSH2 0x12E0 DUP8 DUP11 PUSH2 0x3054 JUMP JUMPDEST MLOAD AND PUSH2 0x28BE JUMP JUMPDEST DUP3 PUSH2 0x2C41 JUMP JUMPDEST PUSH1 0x1 PUSH1 0x1 PUSH1 0xA0 SHL SUB PUSH2 0x12FF DUP4 DUP7 PUSH2 0x3054 JUMP JUMPDEST MLOAD AND PUSH2 0x130B DUP4 DUP10 PUSH2 0x3054 JUMP JUMPDEST MLOAD PUSH1 0x40 MLOAD SWAP1 PUSH2 0x1319 DUP3 PUSH2 0x23A8 JUMP JUMPDEST PUSH1 0x24 CALLDATALOAD DUP3 MSTORE PUSH2 0x13E5 PUSH1 0x20 DUP4 ADD SWAP4 PUSH1 0x1 DUP1 PUSH1 0xA0 SHL SUB DUP14 AND DUP6 MSTORE PUSH1 0x40 DUP5 ADD SWAP1 DUP2 MSTORE PUSH1 0x60 DUP5 ADD SWAP1 TIMESTAMP DUP3 MSTORE PUSH1 0x80 DUP6 ADD SWAP2 PUSH1 0x0 DUP4 MSTORE PUSH1 0xA0 DUP7 ADD SWAP2 PUSH1 0x1 DUP4 MSTORE PUSH1 0xC0 DUP8 ADD SWAP6 DUP7 MSTORE DUP11 PUSH1 0xE0 DUP9 ADD MSTORE DUP9 PUSH1 0x0 MSTORE PUSH1 0xA PUSH1 0x20 MSTORE PUSH1 0x40 PUSH1 0x0 KECCAK256 SWAP8 DUP8 MLOAD DUP10 SSTORE PUSH1 0x1 DUP10 ADD SWAP1 PUSH1 0x1 DUP1 PUSH1 0xA0 SHL SUB SWAP1 MLOAD AND SWAP1 PUSH1 0x1 PUSH1 0x1 PUSH1 0x60 SHL SUB PUSH1 0xA0 SHL SWAP2 DUP3 DUP3 SLOAD AND OR SWAP1 SSTORE PUSH1 0x2 DUP10 ADD SWAP2 PUSH1 0x1 DUP1 PUSH1 0xA0 SHL SUB SWAP1 MLOAD AND SWAP1 DUP3 SLOAD AND OR SWAP1 SSTORE MLOAD PUSH1 0x3 DUP8 ADD SSTORE PUSH2 0x13CE PUSH1 0x4 DUP8 ADD SWAP3 MLOAD ISZERO ISZERO DUP4 SWAP1 PUSH1 0xFF DUP1 NOT DUP4 SLOAD AND SWAP2 ISZERO ISZERO AND OR SWAP1 SSTORE JUMP JUMPDEST MLOAD DUP2 SLOAD PUSH2 0xFF00 NOT AND SWAP1 ISZERO ISZERO PUSH1 0x8 SHL PUSH2 0xFF00 AND OR SWAP1 SSTORE JUMP JUMPDEST MLOAD DUP1 MLOAD SWAP1 PUSH1 0x1 PUSH1 0x1 PUSH1 0x40 SHL SUB DUP3 GT PUSH2 0xD9F JUMPI PUSH2 0x1404 PUSH1 0x5 DUP6 ADD SLOAD PUSH2 0x254C JUMP JUMPDEST PUSH1 0x1F DUP2 GT PUSH2 0x164F JUMPI JUMPDEST POP PUSH1 0x20 SWAP1 PUSH1 0x1F DUP4 GT PUSH1 0x1 EQ PUSH2 0x15DC JUMPI PUSH1 0xE0 SWAP4 SWAP3 SWAP2 PUSH1 0x0 SWAP2 DUP4 PUSH2 0x15D1 JUMPI JUMPDEST POP POP DUP2 PUSH1 0x1 SHL SWAP2 PUSH1 0x0 NOT SWAP1 PUSH1 0x3 SHL SHR NOT AND OR PUSH1 0x5 DUP5 ADD SSTORE JUMPDEST ADD MLOAD DUP1 MLOAD SWAP1 PUSH1 0x1 PUSH1 0x1 PUSH1 0x40 SHL SUB DUP3 GT PUSH2 0xD9F JUMPI PUSH2 0x1462 PUSH1 0x6 DUP5 ADD SLOAD PUSH2 0x254C JUMP JUMPDEST PUSH1 0x1F DUP2 GT PUSH2 0x158A JUMPI JUMPDEST POP PUSH1 0x20 SWAP1 PUSH1 0x1F DUP4 GT PUSH1 0x1 EQ PUSH2 0x1514 JUMPI SWAP2 DUP1 PUSH1 0x6 SWAP3 PUSH2 0x1504 SWAP8 SWAP7 SWAP6 SWAP5 PUSH1 0x0 SWAP3 PUSH2 0x1509 JUMPI JUMPDEST POP POP DUP2 PUSH1 0x1 SHL SWAP2 PUSH1 0x0 NOT SWAP1 PUSH1 0x3 SHL SHR NOT AND OR SWAP2 ADD SSTORE JUMPDEST PUSH1 0x24 CALLDATALOAD PUSH1 0x0 MSTORE PUSH1 0xB PUSH1 0x20 MSTORE PUSH2 0x14BD DUP2 PUSH1 0x40 PUSH1 0x0 KECCAK256 PUSH2 0x2884 JUMP JUMPDEST PUSH1 0x1 PUSH1 0x1 PUSH1 0xA0 SHL SUB PUSH2 0x14CF DUP4 DUP8 PUSH2 0x3054 JUMP JUMPDEST MLOAD AND PUSH1 0x24 CALLDATALOAD DUP3 PUSH32 0x85EC0EFF4BF526B0DD054ADFFCD8BD8DA42126A1133CE302042973F32029FB0 PUSH1 0x0 DUP1 LOG4 PUSH2 0x1014 DUP3 DUP8 PUSH2 0x3054 JUMP JUMPDEST PUSH2 0x1252 JUMP JUMPDEST ADD MLOAD SWAP1 POP DUP14 DUP1 PUSH2 0x148E JUMP JUMPDEST SWAP1 PUSH1 0x6 DUP5 ADD PUSH1 0x0 MSTORE PUSH1 0x20 PUSH1 0x0 KECCAK256 SWAP2 PUSH1 0x0 JUMPDEST PUSH1 0x1F NOT DUP6 AND DUP2 LT PUSH2 0x1572 JUMPI POP SWAP3 PUSH1 0x6 SWAP3 PUSH1 0x1 SWAP3 PUSH2 0x1504 SWAP9 SWAP8 SWAP7 SWAP6 DUP4 PUSH1 0x1F NOT DUP2 AND LT PUSH2 0x1559 JUMPI JUMPDEST POP POP POP DUP2 SHL ADD SWAP2 ADD SSTORE PUSH2 0x14A4 JUMP JUMPDEST ADD MLOAD PUSH1 0x0 NOT PUSH1 0xF8 DUP5 PUSH1 0x3 SHL AND SHR NOT AND SWAP1 SSTORE DUP14 DUP1 DUP1 PUSH2 0x154B JUMP JUMPDEST SWAP2 SWAP3 PUSH1 0x20 PUSH1 0x1 DUP2 SWAP3 DUP7 DUP6 ADD MLOAD DUP2 SSTORE ADD SWAP5 ADD SWAP3 ADD PUSH2 0x1525 JUMP JUMPDEST PUSH1 0x6 DUP5 ADD PUSH1 0x0 MSTORE PUSH1 0x20 PUSH1 0x0 KECCAK256 PUSH1 0x1F DUP5 ADD PUSH1 0x5 SHR DUP2 ADD PUSH1 0x20 DUP6 LT PUSH2 0x15CA JUMPI JUMPDEST PUSH1 0x1F DUP4 ADD PUSH1 0x5 SHR DUP3 ADD DUP2 LT PUSH2 0x15BE JUMPI POP POP PUSH2 0x146B JUMP JUMPDEST PUSH1 0x0 DUP2 SSTORE PUSH1 0x1 ADD PUSH2 0x15A8 JUMP JUMPDEST POP DUP1 PUSH2 0x15A8 JUMP JUMPDEST ADD MLOAD SWAP1 POP DUP14 DUP1 PUSH2 0x142A JUMP JUMPDEST SWAP1 PUSH1 0x5 DUP6 ADD PUSH1 0x0 MSTORE PUSH1 0x20 PUSH1 0x0 KECCAK256 SWAP2 PUSH1 0x0 JUMPDEST PUSH1 0x1F NOT DUP6 AND DUP2 LT PUSH2 0x1637 JUMPI POP SWAP2 DUP4 SWAP2 PUSH1 0x1 SWAP4 PUSH1 0xE0 SWAP7 SWAP6 PUSH1 0x1F NOT DUP2 AND LT PUSH2 0x161E JUMPI JUMPDEST POP POP POP DUP2 SHL ADD PUSH1 0x5 DUP5 ADD SSTORE PUSH2 0x1442 JUMP JUMPDEST ADD MLOAD PUSH1 0x0 NOT PUSH1 0xF8 DUP5 PUSH1 0x3 SHL AND SHR NOT AND SWAP1 SSTORE DUP14 DUP1 DUP1 PUSH2 0x160E JUMP JUMPDEST SWAP2 SWAP3 PUSH1 0x20 PUSH1 0x1 DUP2 SWAP3 DUP7 DUP6 ADD MLOAD DUP2 SSTORE ADD SWAP5 ADD SWAP3 ADD PUSH2 0x15ED JUMP JUMPDEST PUSH1 0x5 DUP6 ADD PUSH1 0x0 MSTORE PUSH1 0x20 PUSH1 0x0 KECCAK256 PUSH1 0x1F DUP5 ADD PUSH1 0x5 SHR DUP2 ADD PUSH1 0x20 DUP6 LT PUSH2 0x168F JUMPI JUMPDEST PUSH1 0x1F DUP4 ADD PUSH1 0x5 SHR DUP3 ADD DUP2 LT PUSH2 0x1683 JUMPI POP POP PUSH2 0x140D JUMP JUMPDEST PUSH1 0x0 DUP2 SSTORE PUSH1 0x1 ADD PUSH2 0x166D JUMP JUMPDEST POP DUP1 PUSH2 0x166D JUMP JUMPDEST PUSH4 0x4E487B71 PUSH1 0xE0 SHL PUSH1 0x0 MSTORE PUSH1 0x11 PUSH1 0x4 MSTORE PUSH1 0x24 PUSH1 0x0 REVERT JUMPDEST PUSH1 0x40 MLOAD DUP1 PUSH2 0x3F4 DUP7 DUP3 PUSH2 0x2487 JUMP JUMPDEST PUSH1 0x40 MLOAD PUSH3 0x461BCD PUSH1 0xE5 SHL DUP2 MSTORE PUSH1 0x20 PUSH1 0x4 DUP3 ADD MSTORE PUSH1 0x29 PUSH1 0x24 DUP3 ADD MSTORE PUSH32 0x526563697069656E747320616E64207365617420696E666F73206C656E677468 PUSH1 0x44 DUP3 ADD MSTORE PUSH9 0x40DAD2E6DAC2E8C6D PUSH1 0xBB SHL PUSH1 0x64 DUP3 ADD MSTORE PUSH1 0x84 SWAP1 REVERT JUMPDEST DUP4 CALLDATALOAD PUSH1 0x1 PUSH1 0x1 PUSH1 0x40 SHL SUB DUP2 GT PUSH2 0x26F JUMPI PUSH1 0x20 SWAP2 PUSH2 0x1735 DUP4 SWAP3 PUSH1 0x24 CALLDATASIZE SWAP2 DUP8 ADD ADD PUSH2 0x2469 JUMP JUMPDEST DUP2 MSTORE ADD SWAP4 ADD SWAP3 PUSH2 0x11C0 JUMP JUMPDEST DUP3 CALLDATALOAD PUSH1 0x1 PUSH1 0x1 PUSH1 0xA0 SHL SUB DUP2 AND DUP2 SUB PUSH2 0x26F JUMPI DUP2 MSTORE PUSH1 0x20 SWAP3 DUP4 ADD SWAP3 ADD PUSH2 0x1158 JUMP JUMPDEST CALLVALUE PUSH2 0x26F JUMPI PUSH1 0x0 CALLDATASIZE PUSH1 0x3 NOT ADD SLT PUSH2 0x26F JUMPI PUSH2 0x1779 PUSH2 0x262C JUMP JUMPDEST STOP JUMPDEST CALLVALUE PUSH2 0x26F JUMPI PUSH1 0x20 CALLDATASIZE PUSH1 0x3 NOT ADD SLT PUSH2 0x26F JUMPI PUSH1 0x4 CALLDATALOAD PUSH1 0x0 SWAP1 DUP2 MSTORE PUSH1 0x2 PUSH1 0x20 SWAP1 DUP2 MSTORE PUSH1 0x40 SWAP1 SWAP2 KECCAK256 SLOAD PUSH1 0x1 PUSH1 0x1 PUSH1 0xA0 SHL SUB AND ISZERO ISZERO JUMPDEST PUSH1 0x40 MLOAD SWAP1 ISZERO ISZERO DUP2 MSTORE RETURN JUMPDEST CALLVALUE PUSH2 0x26F JUMPI PUSH2 0x17C5 CALLDATASIZE PUSH2 0x2373 JUMP JUMPDEST DUP1 PUSH1 0x0 MSTORE PUSH1 0xA PUSH1 0x20 MSTORE PUSH2 0x17E3 PUSH1 0xFF PUSH1 0x4 PUSH1 0x40 PUSH1 0x0 KECCAK256 ADD SLOAD AND ISZERO PUSH2 0x31D0 JUMP JUMPDEST DUP1 PUSH1 0x0 MSTORE PUSH1 0xA PUSH1 0x20 MSTORE PUSH2 0x1803 PUSH1 0xFF PUSH1 0x4 PUSH1 0x40 PUSH1 0x0 KECCAK256 ADD SLOAD PUSH1 0x8 SHR AND PUSH2 0x3212 JUMP JUMPDEST PUSH2 0x18A7 PUSH2 0x805 PUSH1 0x1 PUSH1 0x1 PUSH1 0xA0 SHL SUB DUP4 DUP2 PUSH2 0x181C DUP3 PUSH2 0x2747 JUMP JUMPDEST AND SWAP6 PUSH2 0x182C DUP4 DUP10 AND SWAP8 DUP9 EQ PUSH2 0x3381 JUMP JUMPDEST DUP3 DUP2 AND SWAP8 PUSH2 0x7E3 DUP10 ISZERO ISZERO PUSH2 0x183F DUP2 PUSH2 0x33BD JUMP JUMPDEST PUSH2 0x18A2 PUSH1 0x40 MLOAD SWAP7 PUSH2 0x184F DUP9 PUSH2 0x23C4 JUMP JUMPDEST PUSH1 0x0 DUP9 MSTORE DUP7 PUSH1 0x0 MSTORE PUSH1 0xA PUSH1 0x20 MSTORE PUSH2 0x1871 PUSH1 0xFF PUSH1 0x4 PUSH1 0x40 PUSH1 0x0 KECCAK256 ADD SLOAD AND ISZERO PUSH2 0x31D0 JUMP JUMPDEST DUP7 PUSH1 0x0 MSTORE PUSH1 0xA PUSH1 0x20 MSTORE PUSH2 0x1891 PUSH1 0xFF PUSH1 0x4 PUSH1 0x40 PUSH1 0x0 KECCAK256 ADD SLOAD PUSH1 0x8 SHR AND PUSH2 0x3212 JUMP JUMPDEST PUSH2 0x189A DUP8 PUSH2 0x2747 JUMP JUMPDEST AND DUP12 EQ PUSH2 0x3381 JUMP JUMPDEST PUSH2 0x33BD JUMP JUMPDEST PUSH32 0xD15524263AE66F75C1E604C47DB6085085110F23EF7322B355179AC5E3B0783A DUP4 DUP4 DUP4 DUP4 PUSH1 0x0 DUP1 LOG4 PUSH1 0x0 DUP1 LOG4 STOP JUMPDEST CALLVALUE PUSH2 0x26F JUMPI PUSH1 0x20 DUP1 PUSH1 0x3 NOT CALLDATASIZE ADD SLT PUSH2 0x26F JUMPI PUSH1 0x4 CALLDATALOAD SWAP1 PUSH2 0x18F5 DUP3 PUSH2 0x2747 JUMP JUMPDEST CALLER PUSH1 0x1 PUSH1 0x1 PUSH1 0xA0 SHL SUB SWAP1 SWAP2 AND SUB PUSH2 0x199A JUMPI DUP2 PUSH1 0x0 MSTORE PUSH1 0xA DUP2 MSTORE PUSH2 0x1923 PUSH1 0xFF PUSH1 0x4 PUSH1 0x40 PUSH1 0x0 KECCAK256 ADD SLOAD AND ISZERO PUSH2 0x31D0 JUMP JUMPDEST DUP2 PUSH1 0x0 MSTORE PUSH1 0xA DUP2 MSTORE PUSH2 0x1942 PUSH1 0xFF PUSH1 0x4 PUSH1 0x40 PUSH1 0x0 KECCAK256 ADD SLOAD PUSH1 0x8 SHR AND PUSH2 0x3212 JUMP JUMPDEST DUP2 PUSH1 0x0 MSTORE PUSH1 0xA DUP2 MSTORE PUSH1 0xC PUSH1 0x4 PUSH1 0x40 PUSH1 0x0 KECCAK256 ADD SWAP2 PUSH1 0xFF NOT SWAP3 PUSH1 0x1 DUP5 DUP3 SLOAD AND OR SWAP1 SSTORE MSTORE PUSH1 0x1 PUSH1 0x40 PUSH1 0x0 KECCAK256 SWAP2 DUP3 SLOAD AND OR SWAP1 SSTORE CALLER SWAP1 PUSH32 0x7C2221C844690CB15E32907258D38446CD4A17BC9B84E2069CD955615D547FD PUSH1 0x0 DUP1 LOG3 STOP JUMPDEST PUSH1 0x64 SWAP1 PUSH1 0x40 MLOAD SWAP1 PUSH3 0x461BCD PUSH1 0xE5 SHL DUP3 MSTORE PUSH1 0x4 DUP3 ADD MSTORE PUSH1 0x10 PUSH1 0x24 DUP3 ADD MSTORE PUSH16 0x2737BA103A34B1B5B2BA1037BBB732B9 PUSH1 0x81 SHL PUSH1 0x44 DUP3 ADD MSTORE REVERT JUMPDEST CALLVALUE PUSH2 0x26F JUMPI PUSH2 0x19DF CALLDATASIZE PUSH2 0x2373 JUMP JUMPDEST DUP1 PUSH1 0x0 MSTORE PUSH1 0xA PUSH1 0x20 MSTORE PUSH2 0x19FD PUSH1 0xFF PUSH1 0x4 PUSH1 0x40 PUSH1 0x0 KECCAK256 ADD SLOAD AND ISZERO PUSH2 0x31D0 JUMP JUMPDEST DUP1 PUSH1 0x0 MSTORE PUSH1 0xA PUSH1 0x20 MSTORE PUSH2 0x1A1D PUSH1 0xFF PUSH1 0x4 PUSH1 0x40 PUSH1 0x0 KECCAK256 ADD SLOAD PUSH1 0x8 SHR AND PUSH2 0x3212 JUMP JUMPDEST PUSH1 0x1 PUSH1 0x1 PUSH1 0xA0 SHL SUB SWAP2 PUSH2 0x80A SWAP1 DUP3 SWAP1 DUP5 PUSH2 0x1A36 DUP4 PUSH2 0x2747 JUMP JUMPDEST AND SWAP5 PUSH2 0x1A46 DUP2 DUP9 AND SWAP7 DUP8 EQ PUSH2 0x3381 JUMP JUMPDEST DUP2 AND SWAP6 PUSH2 0x1A54 DUP8 ISZERO ISZERO PUSH2 0x33BD JUMP JUMPDEST PUSH2 0x1A61 PUSH2 0x7F0 DUP5 CALLER PUSH2 0x346B JUMP JUMPDEST PUSH2 0x3533 JUMP JUMPDEST CALLVALUE PUSH2 0x26F JUMPI PUSH1 0x0 CALLDATASIZE PUSH1 0x3 NOT ADD SLT PUSH2 0x26F JUMPI PUSH1 0x20 PUSH1 0x9 SLOAD PUSH1 0x40 MLOAD SWAP1 DUP2 MSTORE RETURN JUMPDEST CALLVALUE PUSH2 0x26F JUMPI PUSH1 0x40 CALLDATASIZE PUSH1 0x3 NOT ADD SLT PUSH2 0x26F JUMPI PUSH2 0x1A9D PUSH2 0x2331 JUMP JUMPDEST PUSH1 0x24 CALLDATALOAD SWAP1 PUSH1 0x1 PUSH1 0x1 PUSH1 0xA0 SHL SUB DUP1 DUP1 PUSH2 0x1AB4 DUP6 PUSH2 0x2747 JUMP JUMPDEST AND SWAP3 AND SWAP2 DUP1 DUP4 EQ PUSH2 0x1BAF JUMPI DUP1 CALLER EQ SWAP1 DUP2 ISZERO PUSH2 0x1B8A JUMPI JUMPDEST POP ISZERO PUSH2 0x1B1F JUMPI PUSH1 0x0 DUP4 DUP2 MSTORE PUSH1 0x4 PUSH1 0x20 MSTORE PUSH1 0x40 SWAP1 KECCAK256 DUP1 SLOAD PUSH1 0x1 PUSH1 0x1 PUSH1 0xA0 SHL SUB NOT AND DUP4 OR SWAP1 SSTORE PUSH2 0x1AF7 DUP4 PUSH2 0x2747 JUMP JUMPDEST AND PUSH32 0x8C5BE1E5EBEC7D5BD14F71427D1E84F3DD0314C0F7B2291E5B200AC8C7C3B925 PUSH1 0x0 DUP1 LOG4 STOP JUMPDEST PUSH1 0x40 MLOAD PUSH3 0x461BCD PUSH1 0xE5 SHL DUP2 MSTORE PUSH1 0x20 PUSH1 0x4 DUP3 ADD MSTORE PUSH1 0x3D PUSH1 0x24 DUP3 ADD MSTORE PUSH32 0x4552433732313A20617070726F76652063616C6C6572206973206E6F7420746F PUSH1 0x44 DUP3 ADD MSTORE PUSH32 0x6B656E206F776E6572206F7220617070726F76656420666F7220616C6C000000 PUSH1 0x64 DUP3 ADD MSTORE PUSH1 0x84 SWAP1 REVERT JUMPDEST SWAP1 POP PUSH1 0x0 MSTORE PUSH1 0x5 PUSH1 0x20 MSTORE PUSH1 0x40 PUSH1 0x0 KECCAK256 CALLER PUSH1 0x0 MSTORE PUSH1 0x20 MSTORE PUSH1 0xFF PUSH1 0x40 PUSH1 0x0 KECCAK256 SLOAD AND DUP5 PUSH2 0x1ACA JUMP JUMPDEST PUSH1 0x40 MLOAD PUSH3 0x461BCD PUSH1 0xE5 SHL DUP2 MSTORE PUSH1 0x20 PUSH1 0x4 DUP3 ADD MSTORE PUSH1 0x21 PUSH1 0x24 DUP3 ADD MSTORE PUSH32 0x4552433732313A20617070726F76616C20746F2063757272656E74206F776E65 PUSH1 0x44 DUP3 ADD MSTORE PUSH1 0x39 PUSH1 0xF9 SHL PUSH1 0x64 DUP3 ADD MSTORE PUSH1 0x84 SWAP1 REVERT JUMPDEST CALLVALUE PUSH2 0x26F JUMPI PUSH1 0x20 CALLDATASIZE PUSH1 0x3 NOT ADD SLT PUSH2 0x26F JUMPI PUSH2 0x1C17 PUSH2 0x2331 JUMP JUMPDEST PUSH2 0x1C1F PUSH2 0x262C JUMP JUMPDEST PUSH1 0x1 PUSH1 0x1 PUSH1 0xA0 SHL SUB SWAP1 DUP2 AND SWAP1 DUP2 ISZERO PUSH2 0x1C6E JUMPI PUSH1 0xE SLOAD DUP3 PUSH1 0x1 PUSH1 0x1 PUSH1 0x60 SHL SUB PUSH1 0xA0 SHL DUP3 AND OR PUSH1 0xE SSTORE AND PUSH32 0x136038487AABF3739B91ACB5EB89BF0DA13241B5F155CC8EDCCE2B5119E7B901 PUSH1 0x0 DUP1 LOG3 STOP JUMPDEST PUSH1 0x40 MLOAD PUSH3 0x461BCD PUSH1 0xE5 SHL DUP2 MSTORE PUSH1 0x20 PUSH1 0x4 DUP3 ADD MSTORE PUSH1 0x21 PUSH1 0x24 DUP3 ADD MSTORE PUSH32 0x496E76616C6964207061796D656E742070726F636573736F7220616464726573 PUSH1 0x44 DUP3 ADD MSTORE PUSH1 0x73 PUSH1 0xF8 SHL PUSH1 0x64 DUP3 ADD MSTORE PUSH1 0x84 SWAP1 REVERT JUMPDEST CALLVALUE PUSH2 0x26F JUMPI PUSH1 0x20 CALLDATASIZE PUSH1 0x3 NOT ADD SLT PUSH2 0x26F JUMPI PUSH1 0x20 PUSH2 0x10E0 PUSH1 0x4 CALLDATALOAD PUSH2 0x276A JUMP JUMPDEST CALLVALUE PUSH2 0x26F JUMPI PUSH1 0x60 CALLDATASIZE PUSH1 0x3 NOT ADD SLT PUSH2 0x26F JUMPI PUSH2 0x1CF4 PUSH2 0x2331 JUMP JUMPDEST PUSH2 0x1CFC PUSH2 0x2347 JUMP JUMPDEST PUSH1 0xD SLOAD SWAP1 SWAP2 SWAP1 PUSH1 0x1 PUSH1 0x1 PUSH1 0xA0 SHL SUB AND CALLER SUB PUSH2 0x213B JUMPI PUSH2 0x1D1F PUSH2 0xAD5 PUSH1 0x24 CALLDATALOAD PUSH2 0x2E71 JUMP JUMPDEST PUSH1 0x1 PUSH1 0x9 SLOAD ADD DUP1 PUSH1 0x9 SSTORE PUSH2 0x1D33 DUP2 DUP4 PUSH2 0x28BE JUMP JUMPDEST PUSH2 0x1DCA PUSH2 0x1D41 PUSH1 0x24 CALLDATALOAD PUSH2 0x3068 JUMP JUMPDEST PUSH1 0x47 PUSH2 0x1D4C DUP5 PUSH2 0x3068 JUMP JUMPDEST SWAP2 PUSH1 0x40 MLOAD SWAP3 DUP4 SWAP2 PUSH32 0x68747470733A2F2F6170692E6576656E747469636B6574732E636F6D2F6D6574 PUSH1 0x20 DUP5 ADD MSTORE PUSH6 0x61646174612F PUSH1 0xD0 SHL PUSH1 0x40 DUP5 ADD MSTORE PUSH2 0x1D9C DUP2 MLOAD DUP1 SWAP3 PUSH1 0x20 PUSH1 0x46 DUP8 ADD SWAP2 ADD PUSH2 0x22E9 JUMP JUMPDEST DUP3 ADD PUSH1 0x2F PUSH1 0xF8 SHL PUSH1 0x46 DUP3 ADD MSTORE PUSH2 0x1DBB DUP3 MLOAD DUP1 SWAP4 PUSH1 0x20 DUP8 DUP6 ADD SWAP2 ADD PUSH2 0x22E9 JUMP JUMPDEST ADD SUB PUSH1 0x27 DUP2 ADD DUP4 MSTORE ADD SWAP1 PUSH2 0x23DF JUMP JUMPDEST PUSH2 0x1DD3 DUP2 PUSH2 0x3068 JUMP JUMPDEST PUSH2 0x1E0E PUSH1 0x25 PUSH1 0x40 MLOAD DUP1 SWAP4 PUSH5 0x536561742D PUSH1 0xD8 SHL PUSH1 0x20 DUP4 ADD MSTORE PUSH2 0x1DFE DUP2 MLOAD DUP1 SWAP3 PUSH1 0x20 DUP7 DUP7 ADD SWAP2 ADD PUSH2 0x22E9 JUMP JUMPDEST DUP2 ADD SUB PUSH1 0x5 DUP2 ADD DUP5 MSTORE ADD DUP3 PUSH2 0x23DF JUMP JUMPDEST PUSH1 0xD SLOAD PUSH1 0x40 MLOAD SWAP5 SWAP1 PUSH1 0x1 PUSH1 0x1 PUSH1 0xA0 SHL SUB AND PUSH2 0x1E28 DUP7 PUSH2 0x23A8 JUMP JUMPDEST PUSH1 0x24 CALLDATALOAD DUP7 MSTORE PUSH1 0x20 DUP7 ADD MSTORE PUSH1 0x1 DUP1 PUSH1 0xA0 SHL SUB AND PUSH1 0x40 DUP6 ADD MSTORE TIMESTAMP PUSH1 0x60 DUP6 ADD MSTORE PUSH1 0x0 PUSH1 0x80 DUP6 ADD MSTORE PUSH1 0x1 PUSH1 0xA0 DUP6 ADD MSTORE PUSH1 0xC0 DUP5 ADD MSTORE PUSH1 0x40 MLOAD DUP1 PUSH1 0x40 DUP2 ADD LT PUSH1 0x1 PUSH1 0x1 PUSH1 0x40 SHL SUB PUSH1 0x40 DUP4 ADD GT OR PUSH2 0xD9F JUMPI PUSH1 0x40 DUP2 ADD PUSH1 0x40 MSTORE PUSH1 0x8 DUP2 MSTORE PUSH8 0x14DD185B99185C99 PUSH1 0xC2 SHL PUSH1 0x20 DUP3 ADD MSTORE PUSH1 0xE0 DUP5 ADD MSTORE DUP1 PUSH1 0x0 MSTORE PUSH1 0xA PUSH1 0x20 MSTORE PUSH1 0x40 PUSH1 0x0 KECCAK256 DUP4 MLOAD DUP2 SSTORE PUSH1 0x1 DUP2 ADD PUSH1 0x1 DUP1 PUSH1 0xA0 SHL SUB PUSH1 0x20 DUP7 ADD MLOAD AND SWAP1 PUSH1 0x1 PUSH1 0x1 PUSH1 0x60 SHL SUB PUSH1 0xA0 SHL SWAP2 DUP3 DUP3 SLOAD AND OR SWAP1 SSTORE PUSH1 0x2 DUP3 ADD SWAP1 PUSH1 0x1 DUP1 PUSH1 0xA0 SHL SUB PUSH1 0x40 DUP8 ADD MLOAD AND SWAP1 DUP3 SLOAD AND OR SWAP1 SSTORE PUSH1 0x60 DUP5 ADD MLOAD PUSH1 0x3 DUP3 ADD SSTORE PUSH2 0x1F11 PUSH1 0x4 DUP3 ADD PUSH2 0xBC0 PUSH1 0x80 DUP8 ADD MLOAD ISZERO ISZERO DUP3 SWAP1 PUSH1 0xFF DUP1 NOT DUP4 SLOAD AND SWAP2 ISZERO ISZERO AND OR SWAP1 SSTORE JUMP JUMPDEST PUSH1 0xC0 DUP5 ADD MLOAD DUP1 MLOAD SWAP1 PUSH1 0x1 PUSH1 0x1 PUSH1 0x40 SHL SUB DUP3 GT PUSH2 0xD9F JUMPI PUSH2 0x1F34 PUSH1 0x5 DUP5 ADD SLOAD PUSH2 0x254C JUMP JUMPDEST PUSH1 0x1F DUP2 GT PUSH2 0x20F4 JUMPI JUMPDEST POP PUSH1 0x20 SWAP1 PUSH1 0x1F DUP4 GT PUSH1 0x1 EQ PUSH2 0x207F JUMPI SWAP2 DUP1 PUSH1 0xE0 SWAP5 SWAP3 PUSH1 0x6 SWAP5 PUSH1 0x0 SWAP3 PUSH2 0x2074 JUMPI JUMPDEST POP POP DUP2 PUSH1 0x1 SHL SWAP2 PUSH1 0x0 NOT SWAP1 PUSH1 0x3 SHL SHR NOT AND OR PUSH1 0x5 DUP3 ADD SSTORE JUMPDEST ADD SWAP4 ADD MLOAD SWAP3 DUP4 MLOAD PUSH1 0x1 PUSH1 0x1 PUSH1 0x40 SHL SUB DUP2 GT PUSH2 0xD9F JUMPI PUSH2 0x1F94 DUP3 SLOAD PUSH2 0x254C JUMP JUMPDEST PUSH1 0x1F DUP2 GT PUSH2 0x202C JUMPI JUMPDEST POP DUP1 PUSH1 0x20 SWAP6 DUP7 SWAP1 PUSH1 0x1F DUP4 GT PUSH1 0x1 EQ PUSH2 0x1FE2 JUMPI PUSH1 0x0 SWAP3 PUSH2 0xCE8 JUMPI POP POP DUP2 PUSH1 0x1 SHL SWAP2 PUSH1 0x0 NOT SWAP1 PUSH1 0x3 SHL SHR NOT AND OR SWAP1 SSTORE PUSH1 0x24 CALLDATALOAD PUSH1 0x0 MSTORE PUSH1 0xB DUP4 MSTORE PUSH2 0xCAE DUP2 PUSH1 0x40 PUSH1 0x0 KECCAK256 PUSH2 0x2884 JUMP JUMPDEST PUSH1 0x0 DUP6 DUP2 MSTORE DUP9 DUP2 KECCAK256 SWAP4 POP PUSH1 0x1F NOT DUP6 AND SWAP1 JUMPDEST DUP2 DUP2 LT PUSH2 0x2015 JUMPI POP SWAP1 DUP5 PUSH1 0x1 SWAP6 SWAP5 SWAP4 SWAP3 LT PUSH2 0xD27 JUMPI POP POP POP DUP2 SHL ADD SWAP1 SSTORE PUSH2 0xC96 JUMP JUMPDEST SWAP3 SWAP4 DUP10 PUSH1 0x1 DUP2 SWAP3 DUP8 DUP7 ADD MLOAD DUP2 SSTORE ADD SWAP6 ADD SWAP4 ADD PUSH2 0x1FF3 JUMP JUMPDEST DUP3 PUSH1 0x0 MSTORE PUSH1 0x20 PUSH1 0x0 KECCAK256 PUSH1 0x1F DUP4 ADD PUSH1 0x5 SHR DUP2 ADD SWAP2 PUSH1 0x20 DUP5 LT PUSH2 0x206A JUMPI JUMPDEST PUSH1 0x1F ADD PUSH1 0x5 SHR ADD SWAP1 JUMPDEST DUP2 DUP2 LT PUSH2 0x205E JUMPI POP PUSH2 0x1F9D JUMP JUMPDEST PUSH1 0x0 DUP2 SSTORE PUSH1 0x1 ADD PUSH2 0x2051 JUMP JUMPDEST SWAP1 SWAP2 POP DUP2 SWAP1 PUSH2 0x2048 JUMP JUMPDEST ADD MLOAD SWAP1 POP DUP9 DUP1 PUSH2 0x1F5D JUMP JUMPDEST SWAP1 PUSH1 0x5 DUP5 ADD PUSH1 0x0 MSTORE PUSH1 0x20 PUSH1 0x0 KECCAK256 SWAP2 PUSH1 0x0 JUMPDEST PUSH1 0x1F NOT DUP6 AND DUP2 LT PUSH2 0x20DC JUMPI POP SWAP3 PUSH1 0xE0 SWAP5 SWAP3 PUSH1 0x1 SWAP3 PUSH1 0x6 SWAP6 DUP4 PUSH1 0x1F NOT DUP2 AND LT PUSH2 0x20C3 JUMPI JUMPDEST POP POP POP DUP2 SHL ADD PUSH1 0x5 DUP3 ADD SSTORE PUSH2 0x1F75 JUMP JUMPDEST ADD MLOAD PUSH1 0x0 NOT PUSH1 0xF8 DUP5 PUSH1 0x3 SHL AND SHR NOT AND SWAP1 SSTORE DUP9 DUP1 DUP1 PUSH2 0x20B3 JUMP JUMPDEST SWAP2 SWAP3 PUSH1 0x20 PUSH1 0x1 DUP2 SWAP3 DUP7 DUP6 ADD MLOAD DUP2 SSTORE ADD SWAP5 ADD SWAP3 ADD PUSH2 0x2090 JUMP JUMPDEST PUSH1 0x5 DUP5 ADD PUSH1 0x0 MSTORE PUSH1 0x20 PUSH1 0x0 KECCAK256 PUSH1 0x1F DUP5 ADD PUSH1 0x5 SHR DUP2 ADD PUSH1 0x20 DUP6 LT PUSH2 0x2134 JUMPI JUMPDEST PUSH1 0x1F DUP4 ADD PUSH1 0x5 SHR DUP3 ADD DUP2 LT PUSH2 0x2128 JUMPI POP POP PUSH2 0x1F3D JUMP JUMPDEST PUSH1 0x0 DUP2 SSTORE PUSH1 0x1 ADD PUSH2 0x2112 JUMP JUMPDEST POP DUP1 PUSH2 0x2112 JUMP JUMPDEST PUSH1 0x40 MLOAD PUSH3 0x461BCD PUSH1 0xE5 SHL DUP2 MSTORE PUSH1 0x20 PUSH1 0x4 DUP3 ADD MSTORE PUSH1 0x29 PUSH1 0x24 DUP3 ADD MSTORE PUSH32 0x4F6E6C79204576656E74436F6E74726163742063616E2063616C6C2074686973 PUSH1 0x44 DUP3 ADD MSTORE PUSH9 0x10333AB731BA34B7B7 PUSH1 0xB9 SHL PUSH1 0x64 DUP3 ADD MSTORE PUSH1 0x84 SWAP1 REVERT JUMPDEST CALLVALUE PUSH2 0x26F JUMPI PUSH1 0x0 CALLDATASIZE PUSH1 0x3 NOT ADD SLT PUSH2 0x26F JUMPI PUSH1 0x40 MLOAD PUSH1 0x0 DUP1 SLOAD PUSH2 0x21B3 DUP2 PUSH2 0x254C JUMP JUMPDEST DUP1 DUP5 MSTORE SWAP1 PUSH1 0x1 SWAP1 DUP2 DUP2 AND SWAP1 DUP2 ISZERO PUSH2 0x9C4 JUMPI POP PUSH1 0x1 EQ PUSH2 0x21DC JUMPI PUSH2 0x3F4 DUP5 PUSH2 0x957 DUP2 DUP7 SUB DUP3 PUSH2 0x23DF JUMP JUMPDEST PUSH1 0x0 DUP1 DUP1 MSTORE SWAP3 POP PUSH32 0x290DECD9548B62A8D60345A988386FC84BA6BC95484008F6362F93160EF3E563 JUMPDEST DUP3 DUP5 LT PUSH2 0x221D JUMPI POP POP POP DUP2 ADD PUSH1 0x20 ADD PUSH2 0x957 DUP3 PUSH2 0x947 JUMP JUMPDEST DUP1 SLOAD PUSH1 0x20 DUP6 DUP8 ADD DUP2 ADD SWAP2 SWAP1 SWAP2 MSTORE SWAP1 SWAP4 ADD SWAP3 DUP2 ADD PUSH2 0x2205 JUMP JUMPDEST CALLVALUE PUSH2 0x26F JUMPI PUSH1 0x20 PUSH2 0x17AD PUSH2 0x2248 CALLDATASIZE PUSH2 0x22D3 JUMP JUMPDEST SWAP1 PUSH2 0x3255 JUMP JUMPDEST CALLVALUE PUSH2 0x26F JUMPI PUSH1 0x20 CALLDATASIZE PUSH1 0x3 NOT ADD SLT PUSH2 0x26F JUMPI PUSH1 0x4 CALLDATALOAD SWAP1 PUSH4 0xFFFFFFFF PUSH1 0xE0 SHL DUP3 AND DUP1 SWAP3 SUB PUSH2 0x26F JUMPI PUSH1 0x20 SWAP2 PUSH4 0x24832483 PUSH1 0xE1 SHL DUP2 EQ SWAP1 DUP2 ISZERO PUSH2 0x2290 JUMPI JUMPDEST POP ISZERO ISZERO DUP2 MSTORE RETURN JUMPDEST PUSH4 0x80AC58CD PUSH1 0xE0 SHL DUP2 EQ SWAP2 POP DUP2 ISZERO PUSH2 0x22C2 JUMPI JUMPDEST DUP2 ISZERO PUSH2 0x22B1 JUMPI JUMPDEST POP DUP4 PUSH2 0x2289 JUMP JUMPDEST PUSH4 0x1FFC9A7 PUSH1 0xE0 SHL EQ SWAP1 POP DUP4 PUSH2 0x22AA JUMP JUMPDEST PUSH4 0x5B5E139F PUSH1 0xE0 SHL DUP2 EQ SWAP2 POP PUSH2 0x22A3 JUMP JUMPDEST PUSH1 0x40 SWAP1 PUSH1 0x3 NOT ADD SLT PUSH2 0x26F JUMPI PUSH1 0x4 CALLDATALOAD SWAP1 PUSH1 0x24 CALLDATALOAD SWAP1 JUMP JUMPDEST PUSH1 0x0 JUMPDEST DUP4 DUP2 LT PUSH2 0x22FC JUMPI POP POP PUSH1 0x0 SWAP2 ADD MSTORE JUMP JUMPDEST DUP2 DUP2 ADD MLOAD DUP4 DUP3 ADD MSTORE PUSH1 0x20 ADD PUSH2 0x22EC JUMP JUMPDEST SWAP1 PUSH1 0x20 SWAP2 PUSH2 0x2325 DUP2 MLOAD DUP1 SWAP3 DUP2 DUP6 MSTORE DUP6 DUP1 DUP7 ADD SWAP2 ADD PUSH2 0x22E9 JUMP JUMPDEST PUSH1 0x1F ADD PUSH1 0x1F NOT AND ADD ADD SWAP1 JUMP JUMPDEST PUSH1 0x4 CALLDATALOAD SWAP1 PUSH1 0x1 PUSH1 0x1 PUSH1 0xA0 SHL SUB DUP3 AND DUP3 SUB PUSH2 0x26F JUMPI JUMP JUMPDEST PUSH1 0x44 CALLDATALOAD SWAP1 PUSH1 0x1 PUSH1 0x1 PUSH1 0xA0 SHL SUB DUP3 AND DUP3 SUB PUSH2 0x26F JUMPI JUMP JUMPDEST PUSH1 0x24 CALLDATALOAD SWAP1 PUSH1 0x1 PUSH1 0x1 PUSH1 0xA0 SHL SUB DUP3 AND DUP3 SUB PUSH2 0x26F JUMPI JUMP JUMPDEST PUSH1 0x60 SWAP1 PUSH1 0x3 NOT ADD SLT PUSH2 0x26F JUMPI PUSH1 0x1 PUSH1 0x1 PUSH1 0xA0 SHL SUB SWAP1 PUSH1 0x4 CALLDATALOAD DUP3 DUP2 AND DUP2 SUB PUSH2 0x26F JUMPI SWAP2 PUSH1 0x24 CALLDATALOAD SWAP1 DUP2 AND DUP2 SUB PUSH2 0x26F JUMPI SWAP1 PUSH1 0x44 CALLDATALOAD SWAP1 JUMP JUMPDEST PUSH2 0x100 DUP2 ADD SWAP1 DUP2 LT PUSH1 0x1 PUSH1 0x1 PUSH1 0x40 SHL SUB DUP3 GT OR PUSH2 0xD9F JUMPI PUSH1 0x40 MSTORE JUMP JUMPDEST PUSH1 0x20 DUP2 ADD SWAP1 DUP2 LT PUSH1 0x1 PUSH1 0x1 PUSH1 0x40 SHL SUB DUP3 GT OR PUSH2 0xD9F JUMPI PUSH1 0x40 MSTORE JUMP JUMPDEST SWAP1 PUSH1 0x1F DUP1 NOT SWAP2 ADD AND DUP2 ADD SWAP1 DUP2 LT PUSH1 0x1 PUSH1 0x1 PUSH1 0x40 SHL SUB DUP3 GT OR PUSH2 0xD9F JUMPI PUSH1 0x40 MSTORE JUMP JUMPDEST PUSH1 0x1 PUSH1 0x1 PUSH1 0x40 SHL SUB DUP2 GT PUSH2 0xD9F JUMPI PUSH1 0x5 SHL PUSH1 0x20 ADD SWAP1 JUMP JUMPDEST PUSH1 0x1 PUSH1 0x1 PUSH1 0x40 SHL SUB DUP2 GT PUSH2 0xD9F JUMPI PUSH1 0x1F ADD PUSH1 0x1F NOT AND PUSH1 0x20 ADD SWAP1 JUMP JUMPDEST SWAP3 SWAP2 SWAP3 PUSH2 0x243E DUP3 PUSH2 0x2417 JUMP JUMPDEST SWAP2 PUSH2 0x244C PUSH1 0x40 MLOAD SWAP4 DUP5 PUSH2 0x23DF JUMP JUMPDEST DUP3 SWAP5 DUP2 DUP5 MSTORE DUP2 DUP4 ADD GT PUSH2 0x26F JUMPI DUP3 DUP2 PUSH1 0x20 SWAP4 DUP5 PUSH1 0x0 SWAP7 ADD CALLDATACOPY ADD ADD MSTORE JUMP JUMPDEST SWAP1 DUP1 PUSH1 0x1F DUP4 ADD SLT ISZERO PUSH2 0x26F JUMPI DUP2 PUSH1 0x20 PUSH2 0x2484 SWAP4 CALLDATALOAD SWAP2 ADD PUSH2 0x2432 JUMP JUMPDEST SWAP1 JUMP JUMPDEST PUSH1 0x20 SWAP1 DUP2 PUSH1 0x40 DUP2 DUP4 ADD SWAP3 DUP3 DUP2 MSTORE DUP6 MLOAD DUP1 SWAP5 MSTORE ADD SWAP4 ADD SWAP2 PUSH1 0x0 JUMPDEST DUP3 DUP2 LT PUSH2 0x24AE JUMPI POP POP POP POP SWAP1 JUMP JUMPDEST DUP4 MLOAD DUP6 MSTORE SWAP4 DUP2 ADD SWAP4 SWAP3 DUP2 ADD SWAP3 PUSH1 0x1 ADD PUSH2 0x24A0 JUMP JUMPDEST DUP1 SLOAD DUP3 LT ISZERO PUSH2 0x24DA JUMPI PUSH1 0x0 MSTORE PUSH1 0x20 PUSH1 0x0 KECCAK256 ADD SWAP1 PUSH1 0x0 SWAP1 JUMP JUMPDEST PUSH4 0x4E487B71 PUSH1 0xE0 SHL PUSH1 0x0 MSTORE PUSH1 0x32 PUSH1 0x4 MSTORE PUSH1 0x24 PUSH1 0x0 REVERT JUMPDEST SWAP1 DUP2 MSTORE PUSH1 0x1 PUSH1 0x1 PUSH1 0xA0 SHL SUB SWAP2 DUP3 AND PUSH1 0x20 DUP3 ADD MSTORE SWAP2 AND PUSH1 0x40 DUP3 ADD MSTORE PUSH1 0x60 DUP2 ADD SWAP2 SWAP1 SWAP2 MSTORE SWAP1 ISZERO ISZERO PUSH1 0x80 DUP3 ADD MSTORE SWAP1 ISZERO ISZERO PUSH1 0xA0 DUP3 ADD MSTORE PUSH2 0x100 PUSH1 0xC0 DUP3 ADD DUP2 SWAP1 MSTORE PUSH2 0x2484 SWAP4 SWAP2 SWAP3 PUSH2 0x253E SWAP2 DUP5 ADD SWAP1 PUSH2 0x230C JUMP JUMPDEST SWAP2 PUSH1 0xE0 DUP2 DUP5 SUB SWAP2 ADD MSTORE PUSH2 0x230C JUMP JUMPDEST SWAP1 PUSH1 0x1 DUP3 DUP2 SHR SWAP3 AND DUP1 ISZERO PUSH2 0x257C JUMPI JUMPDEST PUSH1 0x20 DUP4 LT EQ PUSH2 0x2566 JUMPI JUMP JUMPDEST PUSH4 0x4E487B71 PUSH1 0xE0 SHL PUSH1 0x0 MSTORE PUSH1 0x22 PUSH1 0x4 MSTORE PUSH1 0x24 PUSH1 0x0 REVERT JUMPDEST SWAP2 PUSH1 0x7F AND SWAP2 PUSH2 0x255B JUMP JUMPDEST SWAP1 PUSH1 0x40 MLOAD SWAP2 DUP3 PUSH1 0x0 DUP3 SLOAD SWAP3 PUSH2 0x259A DUP5 PUSH2 0x254C JUMP JUMPDEST SWAP1 DUP2 DUP5 MSTORE PUSH1 0x1 SWAP5 DUP6 DUP2 AND SWAP1 DUP2 PUSH1 0x0 EQ PUSH2 0x2609 JUMPI POP PUSH1 0x1 EQ PUSH2 0x25C6 JUMPI JUMPDEST POP POP PUSH2 0x25C4 SWAP3 POP SUB DUP4 PUSH2 0x23DF JUMP JUMPDEST JUMP JUMPDEST SWAP1 SWAP4 SWAP2 POP PUSH1 0x0 MSTORE PUSH1 0x20 SWAP1 DUP2 PUSH1 0x0 KECCAK256 SWAP4 PUSH1 0x0 SWAP2 JUMPDEST DUP2 DUP4 LT PUSH2 0x25F1 JUMPI POP POP PUSH2 0x25C4 SWAP4 POP DUP3 ADD ADD CODESIZE DUP1 PUSH2 0x25B6 JUMP JUMPDEST DUP6 SLOAD DUP9 DUP5 ADD DUP6 ADD MSTORE SWAP5 DUP6 ADD SWAP5 DUP8 SWAP5 POP SWAP2 DUP4 ADD SWAP2 PUSH2 0x25D9 JUMP JUMPDEST SWAP2 POP POP PUSH2 0x25C4 SWAP5 POP PUSH1 0x20 SWAP3 POP PUSH1 0xFF NOT AND DUP3 DUP5 ADD MSTORE ISZERO ISZERO PUSH1 0x5 SHL DUP3 ADD ADD CODESIZE DUP1 PUSH2 0x25B6 JUMP JUMPDEST PUSH1 0x7 SLOAD PUSH1 0x1 PUSH1 0x1 PUSH1 0xA0 SHL SUB AND CALLER SUB PUSH2 0x2640 JUMPI JUMP JUMPDEST PUSH1 0x64 PUSH1 0x40 MLOAD PUSH3 0x461BCD PUSH1 0xE5 SHL DUP2 MSTORE PUSH1 0x20 PUSH1 0x4 DUP3 ADD MSTORE PUSH1 0x20 PUSH1 0x24 DUP3 ADD MSTORE PUSH32 0x4F776E61626C653A2063616C6C6572206973206E6F7420746865206F776E6572 PUSH1 0x44 DUP3 ADD MSTORE REVERT JUMPDEST PUSH1 0x1 PUSH1 0x1 PUSH1 0xA0 SHL SUB AND DUP1 ISZERO PUSH2 0x26A4 JUMPI PUSH1 0x0 MSTORE PUSH1 0x3 PUSH1 0x20 MSTORE PUSH1 0x40 PUSH1 0x0 KECCAK256 SLOAD SWAP1 JUMP JUMPDEST PUSH1 0x40 MLOAD PUSH3 0x461BCD PUSH1 0xE5 SHL DUP2 MSTORE PUSH1 0x20 PUSH1 0x4 DUP3 ADD MSTORE PUSH1 0x29 PUSH1 0x24 DUP3 ADD MSTORE PUSH32 0x4552433732313A2061646472657373207A65726F206973206E6F742061207661 PUSH1 0x44 DUP3 ADD MSTORE PUSH9 0x3634B21037BBB732B9 PUSH1 0xB9 SHL PUSH1 0x64 DUP3 ADD MSTORE PUSH1 0x84 SWAP1 REVERT JUMPDEST ISZERO PUSH2 0x2702 JUMPI JUMP JUMPDEST PUSH1 0x40 MLOAD PUSH3 0x461BCD PUSH1 0xE5 SHL DUP2 MSTORE PUSH1 0x20 PUSH1 0x4 DUP3 ADD MSTORE PUSH1 0x18 PUSH1 0x24 DUP3 ADD MSTORE PUSH32 0x4552433732313A20696E76616C696420746F6B656E2049440000000000000000 PUSH1 0x44 DUP3 ADD MSTORE PUSH1 0x64 SWAP1 REVERT JUMPDEST PUSH1 0x0 SWAP1 DUP2 MSTORE PUSH1 0x2 PUSH1 0x20 MSTORE PUSH1 0x40 SWAP1 KECCAK256 SLOAD PUSH1 0x1 PUSH1 0x1 PUSH1 0xA0 SHL SUB AND PUSH2 0x2484 DUP2 ISZERO ISZERO PUSH2 0x26FB JUMP JUMPDEST PUSH1 0x0 DUP2 DUP2 MSTORE PUSH1 0x2 PUSH1 0x20 MSTORE PUSH1 0x40 SWAP1 KECCAK256 SLOAD PUSH2 0x278D SWAP1 PUSH1 0x1 PUSH1 0x1 PUSH1 0xA0 SHL SUB AND ISZERO ISZERO PUSH2 0x26FB JUMP JUMPDEST PUSH1 0x0 SWAP1 DUP2 MSTORE PUSH1 0x4 PUSH1 0x20 MSTORE PUSH1 0x40 SWAP1 KECCAK256 SLOAD PUSH1 0x1 PUSH1 0x1 PUSH1 0xA0 SHL SUB AND SWAP1 JUMP JUMPDEST ISZERO PUSH2 0x27AF JUMPI JUMP JUMPDEST PUSH1 0x40 MLOAD PUSH3 0x461BCD PUSH1 0xE5 SHL DUP2 MSTORE PUSH1 0x20 PUSH1 0x4 DUP3 ADD MSTORE PUSH1 0x1E PUSH1 0x24 DUP3 ADD MSTORE PUSH32 0x496E76616C6964206576656E7420636F6E747261637420616464726573730000 PUSH1 0x44 DUP3 ADD MSTORE PUSH1 0x64 SWAP1 REVERT JUMPDEST ISZERO PUSH2 0x27FB JUMPI JUMP JUMPDEST PUSH1 0x40 MLOAD PUSH3 0x461BCD PUSH1 0xE5 SHL DUP2 MSTORE PUSH1 0x20 PUSH1 0x4 DUP3 ADD MSTORE PUSH1 0x15 PUSH1 0x24 DUP3 ADD MSTORE PUSH21 0x115D995B9D10DBDB9D1C9858DD081B9BDD081CD95D PUSH1 0x5A SHL PUSH1 0x44 DUP3 ADD MSTORE PUSH1 0x64 SWAP1 REVERT JUMPDEST ISZERO PUSH2 0x283F JUMPI JUMP JUMPDEST PUSH1 0x40 MLOAD PUSH3 0x461BCD PUSH1 0xE5 SHL DUP2 MSTORE PUSH1 0x20 PUSH1 0x4 DUP3 ADD MSTORE PUSH1 0x19 PUSH1 0x24 DUP3 ADD MSTORE PUSH32 0x496E76616C6964206F7220696E616374697665206576656E7400000000000000 PUSH1 0x44 DUP3 ADD MSTORE PUSH1 0x64 SWAP1 REVERT JUMPDEST DUP1 SLOAD PUSH9 0x10000000000000000 DUP2 LT ISZERO PUSH2 0xD9F JUMPI PUSH2 0x28A6 SWAP2 PUSH1 0x1 DUP3 ADD DUP2 SSTORE PUSH2 0x24C2 JUMP JUMPDEST DUP2 SWAP3 SWAP2 SLOAD SWAP1 PUSH1 0x3 SHL SWAP2 DUP3 SHL SWAP2 PUSH1 0x0 NOT SWAP1 SHL NOT AND OR SWAP1 SSTORE JUMP JUMPDEST PUSH1 0x40 MLOAD PUSH2 0x28CA DUP2 PUSH2 0x23C4 JUMP JUMPDEST PUSH1 0x0 DUP1 DUP3 MSTORE SWAP3 PUSH1 0x1 PUSH1 0x1 PUSH1 0xA0 SHL SUB DUP4 AND SWAP3 DUP4 ISZERO PUSH2 0x298F JUMPI DUP2 PUSH2 0x805 SWAP5 PUSH2 0x25C4 SWAP7 PUSH2 0x2912 PUSH2 0x290C DUP5 PUSH1 0x0 MSTORE PUSH1 0x2 PUSH1 0x20 MSTORE PUSH1 0x1 DUP1 PUSH1 0xA0 SHL SUB PUSH1 0x40 PUSH1 0x0 KECCAK256 SLOAD AND ISZERO ISZERO SWAP1 JUMP JUMPDEST ISZERO PUSH2 0x2A4A JUMP JUMPDEST PUSH1 0x0 DUP4 DUP2 MSTORE PUSH1 0x2 PUSH1 0x20 MSTORE PUSH1 0x40 SWAP1 KECCAK256 SLOAD PUSH2 0x2935 SWAP1 PUSH1 0x1 PUSH1 0x1 PUSH1 0xA0 SHL SUB AND ISZERO ISZERO PUSH2 0x290C JUMP JUMPDEST DUP2 DUP2 MSTORE PUSH1 0x3 PUSH1 0x20 MSTORE PUSH1 0x40 DUP2 KECCAK256 PUSH1 0x1 DUP2 SLOAD ADD SWAP1 SSTORE DUP3 DUP2 MSTORE PUSH1 0x2 PUSH1 0x20 MSTORE PUSH1 0x40 DUP2 KECCAK256 DUP3 PUSH1 0x1 PUSH1 0x1 PUSH1 0x60 SHL SUB PUSH1 0xA0 SHL DUP3 SLOAD AND OR SWAP1 SSTORE PUSH32 0xDDF252AD1BE2C89B69C2B068FC378DAA952BA7F163C4A11628F55A4DF523B3EF DUP2 DUP1 LOG4 PUSH2 0x2A96 JUMP JUMPDEST PUSH1 0x64 PUSH1 0x40 MLOAD PUSH3 0x461BCD PUSH1 0xE5 SHL DUP2 MSTORE PUSH1 0x20 PUSH1 0x4 DUP3 ADD MSTORE PUSH1 0x20 PUSH1 0x24 DUP3 ADD MSTORE PUSH32 0x4552433732313A206D696E7420746F20746865207A65726F2061646472657373 PUSH1 0x44 DUP3 ADD MSTORE REVERT JUMPDEST PUSH1 0x80 SWAP1 PUSH1 0x20 DUP2 MSTORE PUSH1 0x32 PUSH1 0x20 DUP3 ADD MSTORE PUSH32 0x4552433732313A207472616E7366657220746F206E6F6E204552433732315265 PUSH1 0x40 DUP3 ADD MSTORE PUSH18 0x31B2B4BB32B91034B6B83632B6B2B73A32B9 PUSH1 0x71 SHL PUSH1 0x60 DUP3 ADD MSTORE ADD SWAP1 JUMP JUMPDEST ISZERO PUSH2 0x2A2D JUMPI JUMP JUMPDEST PUSH1 0x40 MLOAD PUSH3 0x461BCD PUSH1 0xE5 SHL DUP2 MSTORE DUP1 PUSH2 0x2A46 PUSH1 0x4 DUP3 ADD PUSH2 0x29D3 JUMP JUMPDEST SUB SWAP1 REVERT JUMPDEST ISZERO PUSH2 0x2A51 JUMPI JUMP JUMPDEST PUSH1 0x40 MLOAD PUSH3 0x461BCD PUSH1 0xE5 SHL DUP2 MSTORE PUSH1 0x20 PUSH1 0x4 DUP3 ADD MSTORE PUSH1 0x1C PUSH1 0x24 DUP3 ADD MSTORE PUSH32 0x4552433732313A20746F6B656E20616C7265616479206D696E74656400000000 PUSH1 0x44 DUP3 ADD MSTORE PUSH1 0x64 SWAP1 REVERT JUMPDEST SWAP2 SWAP3 PUSH1 0x0 SWAP3 SWAP1 SWAP2 SWAP1 DUP1 EXTCODESIZE ISZERO PUSH2 0x2BAC JUMPI PUSH2 0x2AE4 SWAP5 PUSH1 0x40 MLOAD DUP1 SWAP3 PUSH4 0xA85BD01 PUSH1 0xE1 SHL SWAP5 DUP6 DUP4 MSTORE CALLER PUSH1 0x4 DUP5 ADD MSTORE DUP8 PUSH1 0x24 DUP5 ADD MSTORE PUSH1 0x44 DUP4 ADD MSTORE PUSH1 0x80 PUSH1 0x64 DUP4 ADD MSTORE DUP2 DUP8 DUP2 PUSH1 0x20 SWAP11 DUP12 SWAP7 PUSH1 0x84 DUP4 ADD SWAP1 PUSH2 0x230C JUMP JUMPDEST SUB SWAP3 PUSH1 0x1 PUSH1 0x1 PUSH1 0xA0 SHL SUB AND GAS CALL DUP5 SWAP2 DUP2 PUSH2 0x2B68 JUMPI JUMPDEST POP PUSH2 0x2B57 JUMPI POP POP POP RETURNDATASIZE PUSH1 0x0 EQ PUSH2 0x2B4F JUMPI RETURNDATASIZE PUSH2 0x2B13 DUP2 PUSH2 0x2417 JUMP JUMPDEST SWAP1 PUSH2 0x2B21 PUSH1 0x40 MLOAD SWAP3 DUP4 PUSH2 0x23DF JUMP JUMPDEST DUP2 MSTORE DUP1 SWAP2 DUP4 RETURNDATASIZE SWAP3 ADD RETURNDATACOPY JUMPDEST DUP1 MLOAD SWAP2 DUP3 PUSH2 0x2B4C JUMPI PUSH1 0x40 MLOAD PUSH3 0x461BCD PUSH1 0xE5 SHL DUP2 MSTORE DUP1 PUSH2 0x2A46 PUSH1 0x4 DUP3 ADD PUSH2 0x29D3 JUMP JUMPDEST ADD REVERT JUMPDEST POP PUSH1 0x60 PUSH2 0x2B2B JUMP JUMPDEST PUSH1 0x1 PUSH1 0x1 PUSH1 0xE0 SHL SUB NOT AND EQ SWAP3 POP SWAP1 POP JUMP JUMPDEST SWAP1 SWAP2 POP DUP6 DUP2 DUP2 RETURNDATASIZE DUP4 GT PUSH2 0x2BA5 JUMPI JUMPDEST PUSH2 0x2B80 DUP2 DUP4 PUSH2 0x23DF JUMP JUMPDEST DUP2 ADD SUB SLT PUSH2 0x2BA1 JUMPI MLOAD PUSH1 0x1 PUSH1 0x1 PUSH1 0xE0 SHL SUB NOT DUP2 AND DUP2 SUB PUSH2 0x2BA1 JUMPI SWAP1 CODESIZE PUSH2 0x2AF9 JUMP JUMPDEST DUP5 DUP1 REVERT JUMPDEST POP RETURNDATASIZE PUSH2 0x2B76 JUMP JUMPDEST POP POP SWAP2 POP POP PUSH1 0x1 SWAP1 JUMP JUMPDEST SWAP3 SWAP4 PUSH1 0x0 SWAP4 SWAP1 SWAP3 SWAP2 DUP1 EXTCODESIZE ISZERO PUSH2 0x2C36 JUMPI SWAP5 DUP5 SWAP2 PUSH2 0x2C10 SWAP7 PUSH1 0x40 MLOAD DUP1 SWAP5 DUP2 SWAP4 PUSH4 0xA85BD01 PUSH1 0xE1 SHL SWAP8 DUP9 DUP5 MSTORE CALLER PUSH1 0x4 DUP6 ADD MSTORE PUSH1 0x1 DUP1 PUSH1 0xA0 SHL SUB DUP1 SWAP3 AND PUSH1 0x24 DUP6 ADD MSTORE PUSH1 0x44 DUP5 ADD MSTORE PUSH1 0x80 PUSH1 0x64 DUP5 ADD MSTORE DUP3 PUSH1 0x20 SWAP12 DUP13 SWAP8 PUSH1 0x84 DUP4 ADD SWAP1 PUSH2 0x230C JUMP JUMPDEST SUB SWAP4 AND GAS CALL DUP5 SWAP2 DUP2 PUSH2 0x2B68 JUMPI POP PUSH2 0x2B57 JUMPI POP POP POP RETURNDATASIZE PUSH1 0x0 EQ PUSH2 0x2B4F JUMPI RETURNDATASIZE PUSH2 0x2B13 DUP2 PUSH2 0x2417 JUMP JUMPDEST POP POP POP SWAP2 POP POP PUSH1 0x1 SWAP1 JUMP JUMPDEST PUSH1 0x0 DUP2 DUP2 MSTORE PUSH1 0x2 PUSH1 0x20 MSTORE PUSH1 0x40 SWAP1 KECCAK256 SLOAD SWAP2 SWAP3 SWAP2 PUSH1 0x1 PUSH1 0x1 PUSH1 0xA0 SHL SUB AND ISZERO PUSH2 0x2DD3 JUMPI PUSH1 0x0 SWAP1 DUP1 DUP3 MSTORE PUSH1 0x20 SWAP2 PUSH1 0x6 DUP4 MSTORE PUSH1 0x40 DUP2 KECCAK256 SWAP1 DUP6 MLOAD SWAP1 PUSH1 0x1 PUSH1 0x1 PUSH1 0x40 SHL SUB DUP3 GT PUSH2 0x2DBF JUMPI PUSH2 0x2C8E DUP4 SLOAD PUSH2 0x254C JUMP JUMPDEST PUSH1 0x1F DUP2 GT PUSH2 0x2D7C JUMPI JUMPDEST POP DUP5 SWAP1 PUSH1 0x1F DUP4 GT PUSH1 0x1 EQ PUSH2 0x2CF8 JUMPI SWAP1 PUSH32 0xF8E1A15ABA9398E019F0B49DF1A4FDE98EE17AE345CB5F6B5E2C27F5033E8CE7 SWAP7 SWAP8 DUP4 PUSH2 0x2CED JUMPI JUMPDEST POP POP DUP2 PUSH1 0x1 SHL SWAP2 PUSH1 0x0 NOT SWAP1 PUSH1 0x3 SHL SHR NOT AND OR SWAP1 SSTORE JUMPDEST PUSH1 0x40 MLOAD SWAP1 DUP2 MSTORE LOG1 JUMP JUMPDEST ADD MLOAD SWAP1 POP CODESIZE DUP1 PUSH2 0x2CCF JUMP JUMPDEST SWAP2 SWAP7 PUSH1 0x1F NOT DUP9 AND DUP5 DUP5 MSTORE DUP7 DUP5 KECCAK256 SWAP4 JUMPDEST DUP2 DUP2 LT PUSH2 0x2D65 JUMPI POP SWAP2 PUSH1 0x1 SWAP4 SWAP2 DUP10 PUSH32 0xF8E1A15ABA9398E019F0B49DF1A4FDE98EE17AE345CB5F6B5E2C27F5033E8CE7 SWAP10 SWAP11 SWAP5 LT PUSH2 0x2D4C JUMPI JUMPDEST POP POP POP DUP2 SHL ADD SWAP1 SSTORE PUSH2 0x2CE4 JUMP JUMPDEST ADD MLOAD PUSH1 0x0 NOT PUSH1 0xF8 DUP5 PUSH1 0x3 SHL AND SHR NOT AND SWAP1 SSTORE CODESIZE DUP1 DUP1 PUSH2 0x2D3F JUMP JUMPDEST SWAP3 SWAP4 DUP8 PUSH1 0x1 DUP2 SWAP3 DUP8 DUP7 ADD MLOAD DUP2 SSTORE ADD SWAP6 ADD SWAP4 ADD PUSH2 0x2D07 JUMP JUMPDEST DUP4 DUP3 MSTORE DUP6 DUP3 KECCAK256 PUSH1 0x1F DUP5 ADD PUSH1 0x5 SHR DUP2 ADD SWAP2 DUP8 DUP6 LT PUSH2 0x2DB5 JUMPI JUMPDEST PUSH1 0x1F ADD PUSH1 0x5 SHR ADD SWAP1 JUMPDEST DUP2 DUP2 LT PUSH2 0x2DAA JUMPI POP PUSH2 0x2C97 JUMP JUMPDEST DUP3 DUP2 SSTORE PUSH1 0x1 ADD PUSH2 0x2D9D JUMP JUMPDEST SWAP1 SWAP2 POP DUP2 SWAP1 PUSH2 0x2D94 JUMP JUMPDEST PUSH4 0x4E487B71 PUSH1 0xE0 SHL DUP2 MSTORE PUSH1 0x41 PUSH1 0x4 MSTORE PUSH1 0x24 SWAP1 REVERT JUMPDEST PUSH1 0x40 MLOAD PUSH3 0x461BCD PUSH1 0xE5 SHL DUP2 MSTORE PUSH1 0x20 PUSH1 0x4 DUP3 ADD MSTORE PUSH1 0x2E PUSH1 0x24 DUP3 ADD MSTORE PUSH32 0x45524337323155524953746F726167653A2055524920736574206F66206E6F6E PUSH1 0x44 DUP3 ADD MSTORE PUSH14 0x32BC34B9BA32B73A103A37B5B2B7 PUSH1 0x91 SHL PUSH1 0x64 DUP3 ADD MSTORE PUSH1 0x84 SWAP1 REVERT JUMPDEST DUP2 PUSH1 0x1F DUP3 ADD SLT ISZERO PUSH2 0x26F JUMPI DUP1 MLOAD PUSH2 0x2E45 DUP2 PUSH2 0x2417 JUMP JUMPDEST SWAP3 PUSH2 0x2E53 PUSH1 0x40 MLOAD SWAP5 DUP6 PUSH2 0x23DF JUMP JUMPDEST DUP2 DUP5 MSTORE PUSH1 0x20 DUP3 DUP5 ADD ADD GT PUSH2 0x26F JUMPI PUSH2 0x2484 SWAP2 PUSH1 0x20 DUP1 DUP6 ADD SWAP2 ADD PUSH2 0x22E9 JUMP JUMPDEST PUSH1 0xD SLOAD PUSH1 0x1 PUSH1 0x1 PUSH1 0xA0 SHL SUB SWAP2 SWAP1 DUP3 AND SWAP1 DUP2 ISZERO PUSH2 0x300B JUMPI PUSH1 0x40 MLOAD SWAP3 DUP4 SWAP3 PUSH4 0x368C427 PUSH1 0xE5 SHL DUP5 MSTORE DUP3 PUSH1 0x4 DUP6 ADD MSTORE DUP4 PUSH1 0x24 PUSH1 0x0 SWAP7 DUP8 SWAP4 GAS STATICCALL DUP5 SWAP4 DUP5 SWAP3 DUP3 PUSH2 0x2ECE JUMPI JUMPDEST POP POP PUSH2 0x2EBD JUMPI POP POP POP SWAP1 JUMP JUMPDEST EQ SWAP2 POP DUP2 PUSH2 0x2EC9 JUMPI POP SWAP1 JUMP JUMPDEST SWAP1 POP SWAP1 JUMP JUMPDEST SWAP2 SWAP5 POP SWAP2 POP RETURNDATASIZE DUP1 DUP7 DUP5 RETURNDATACOPY PUSH2 0x2EE2 DUP2 DUP5 PUSH2 0x23DF JUMP JUMPDEST DUP3 ADD SWAP1 PUSH2 0x180 DUP4 DUP4 SUB SLT PUSH2 0x3007 JUMPI DUP3 MLOAD SWAP2 PUSH1 0x20 SWAP2 DUP3 DUP6 ADD MLOAD SWAP1 PUSH1 0x1 PUSH1 0x1 PUSH1 0x40 SHL SUB SWAP2 DUP3 DUP2 GT PUSH2 0x2FFF JUMPI DUP4 PUSH2 0x2F17 SWAP2 DUP9 ADD PUSH2 0x2E2F JUMP JUMPDEST POP PUSH1 0x40 DUP7 ADD MLOAD DUP3 DUP2 GT PUSH2 0x2FFF JUMPI DUP4 PUSH2 0x2F30 SWAP2 DUP9 ADD PUSH2 0x2E2F JUMP JUMPDEST POP PUSH2 0x100 DUP7 ADD MLOAD SWAP1 DUP2 AND SUB PUSH2 0x3003 JUMPI PUSH2 0x120 DUP6 ADD MLOAD SWAP5 DUP6 ISZERO ISZERO DUP7 SUB PUSH2 0x2FFB JUMPI PUSH2 0x140 DUP2 ADD MLOAD DUP3 DUP2 GT PUSH2 0x2FFF JUMPI DUP4 PUSH2 0x2F68 SWAP2 DUP4 ADD PUSH2 0x2E2F JUMP JUMPDEST POP PUSH2 0x160 DUP2 ADD MLOAD SWAP1 DUP3 DUP3 GT PUSH2 0x2FFF JUMPI ADD SWAP2 DUP1 PUSH1 0x1F DUP5 ADD SLT ISZERO PUSH2 0x2FFB JUMPI DUP3 MLOAD SWAP2 DUP5 DUP1 PUSH2 0x2F92 DUP6 PUSH2 0x2400 JUMP JUMPDEST PUSH2 0x2F9F PUSH1 0x40 MLOAD SWAP2 DUP3 PUSH2 0x23DF JUMP JUMPDEST DUP6 DUP2 MSTORE ADD SWAP4 PUSH1 0x5 SHL DUP6 ADD ADD SWAP4 DUP3 DUP6 GT PUSH2 0x2FF7 JUMPI DUP6 DUP2 ADD SWAP4 JUMPDEST DUP6 DUP6 LT PUSH2 0x2FCE JUMPI POP POP POP POP POP POP POP SWAP1 SWAP3 CODESIZE DUP1 PUSH2 0x2EB1 JUMP JUMPDEST DUP5 MLOAD DUP4 DUP2 GT PUSH2 0x2FF3 JUMPI DUP8 SWAP2 PUSH2 0x2FE8 DUP7 DUP5 DUP1 SWAP5 DUP8 ADD ADD PUSH2 0x2E2F JUMP JUMPDEST DUP2 MSTORE ADD SWAP5 ADD SWAP4 PUSH2 0x2FB7 JUMP JUMPDEST DUP13 DUP1 REVERT JUMPDEST DUP11 DUP1 REVERT JUMPDEST DUP9 DUP1 REVERT JUMPDEST DUP10 DUP1 REVERT JUMPDEST DUP8 DUP1 REVERT JUMPDEST DUP6 DUP1 REVERT JUMPDEST POP POP POP PUSH1 0x0 SWAP1 JUMP JUMPDEST SWAP1 PUSH2 0x301D DUP3 PUSH2 0x2400 JUMP JUMPDEST PUSH2 0x302A PUSH1 0x40 MLOAD SWAP2 DUP3 PUSH2 0x23DF JUMP JUMPDEST DUP3 DUP2 MSTORE DUP1 SWAP3 PUSH2 0x303B PUSH1 0x1F NOT SWAP2 PUSH2 0x2400 JUMP JUMPDEST ADD SWAP1 PUSH1 0x20 CALLDATASIZE SWAP2 ADD CALLDATACOPY JUMP JUMPDEST PUSH1 0x0 NOT DUP2 EQ PUSH2 0x1696 JUMPI PUSH1 0x1 ADD SWAP1 JUMP JUMPDEST DUP1 MLOAD DUP3 LT ISZERO PUSH2 0x24DA JUMPI PUSH1 0x20 SWAP2 PUSH1 0x5 SHL ADD ADD SWAP1 JUMP JUMPDEST DUP1 PUSH1 0x0 SWAP2 PUSH27 0x184F03E93FF9F4DAA797ED6E38ED64BF6A1F010000000000000000 DUP1 DUP3 LT ISZERO PUSH2 0x31C2 JUMPI JUMPDEST POP PUSH14 0x4EE2D6D415B85ACEF8100000000 DUP1 DUP4 LT ISZERO PUSH2 0x31B3 JUMPI JUMPDEST POP PUSH7 0x2386F26FC10000 DUP1 DUP4 LT ISZERO PUSH2 0x31A4 JUMPI JUMPDEST POP PUSH4 0x5F5E100 DUP1 DUP4 LT ISZERO PUSH2 0x3195 JUMPI JUMPDEST POP PUSH2 0x2710 DUP1 DUP4 LT ISZERO PUSH2 0x3186 JUMPI JUMPDEST POP PUSH1 0x64 DUP3 LT ISZERO PUSH2 0x3176 JUMPI JUMPDEST PUSH1 0xA DUP1 SWAP3 LT ISZERO PUSH2 0x316C JUMPI JUMPDEST PUSH1 0x1 SWAP1 DUP2 PUSH1 0x21 DUP2 DUP7 ADD SWAP6 PUSH2 0x3101 DUP8 PUSH2 0x2417 JUMP JUMPDEST SWAP7 PUSH2 0x310F PUSH1 0x40 MLOAD SWAP9 DUP10 PUSH2 0x23DF JUMP JUMPDEST DUP1 DUP9 MSTORE PUSH2 0x311E PUSH1 0x1F NOT SWAP2 PUSH2 0x2417 JUMP JUMPDEST ADD CALLDATASIZE PUSH1 0x20 DUP10 ADD CALLDATACOPY DUP7 ADD ADD SWAP1 JUMPDEST PUSH2 0x3136 JUMPI JUMPDEST POP POP POP POP SWAP1 JUMP JUMPDEST PUSH1 0x0 NOT ADD SWAP1 DUP4 SWAP1 PUSH16 0x181899199A1A9B1B9C1CB0B131B232B3 PUSH1 0x81 SHL DUP3 DUP3 MOD BYTE DUP4 MSTORE8 DIV SWAP2 DUP3 ISZERO PUSH2 0x3167 JUMPI SWAP2 SWAP1 DUP3 PUSH2 0x312A JUMP JUMPDEST PUSH2 0x312F JUMP JUMPDEST SWAP2 PUSH1 0x1 ADD SWAP2 PUSH2 0x30EE JUMP JUMPDEST SWAP2 SWAP1 PUSH1 0x64 PUSH1 0x2 SWAP2 DIV SWAP2 ADD SWAP2 PUSH2 0x30E3 JUMP JUMPDEST PUSH1 0x4 SWAP2 SWAP4 SWAP3 DIV SWAP2 ADD SWAP2 CODESIZE PUSH2 0x30D8 JUMP JUMPDEST PUSH1 0x8 SWAP2 SWAP4 SWAP3 DIV SWAP2 ADD SWAP2 CODESIZE PUSH2 0x30CB JUMP JUMPDEST PUSH1 0x10 SWAP2 SWAP4 SWAP3 DIV SWAP2 ADD SWAP2 CODESIZE PUSH2 0x30BC JUMP JUMPDEST PUSH1 0x20 SWAP2 SWAP4 SWAP3 DIV SWAP2 ADD SWAP2 CODESIZE PUSH2 0x30AA JUMP JUMPDEST PUSH1 0x40 SWAP4 POP DUP2 DIV SWAP2 POP CODESIZE PUSH2 0x3091 JUMP JUMPDEST ISZERO PUSH2 0x31D7 JUMPI JUMP JUMPDEST PUSH1 0x40 MLOAD PUSH3 0x461BCD PUSH1 0xE5 SHL DUP2 MSTORE PUSH1 0x20 PUSH1 0x4 DUP3 ADD MSTORE PUSH1 0x13 PUSH1 0x24 DUP3 ADD MSTORE PUSH19 0x151A58DAD95D08185B1C9958591E481D5CD959 PUSH1 0x6A SHL PUSH1 0x44 DUP3 ADD MSTORE PUSH1 0x64 SWAP1 REVERT JUMPDEST ISZERO PUSH2 0x3219 JUMPI JUMP JUMPDEST PUSH1 0x40 MLOAD PUSH3 0x461BCD PUSH1 0xE5 SHL DUP2 MSTORE PUSH1 0x20 PUSH1 0x4 DUP3 ADD MSTORE PUSH1 0x14 PUSH1 0x24 DUP3 ADD MSTORE PUSH20 0x5469636B6574206973206E6F7420616374697665 PUSH1 0x60 SHL PUSH1 0x44 DUP3 ADD MSTORE PUSH1 0x64 SWAP1 REVERT JUMPDEST PUSH1 0x0 DUP2 DUP2 MSTORE PUSH1 0x2 PUSH1 0x20 MSTORE PUSH1 0x40 SWAP1 KECCAK256 SLOAD PUSH1 0x1 PUSH1 0x1 PUSH1 0xA0 SHL SUB AND ISZERO PUSH2 0x3336 JUMPI PUSH1 0x0 MSTORE PUSH1 0xA PUSH1 0x20 MSTORE PUSH1 0x40 PUSH1 0x0 KECCAK256 SWAP1 PUSH1 0x40 MLOAD SWAP2 PUSH2 0x328D DUP4 PUSH2 0x23A8 JUMP JUMPDEST DUP1 SLOAD DUP4 MSTORE PUSH1 0x1 DUP1 PUSH1 0xA0 SHL SUB DUP1 PUSH1 0x1 DUP4 ADD SLOAD AND PUSH1 0x20 DUP6 ADD MSTORE PUSH1 0x2 DUP3 ADD SLOAD AND PUSH1 0x40 DUP5 ADD MSTORE PUSH1 0x3 DUP2 ADD SLOAD PUSH1 0x60 DUP5 ADD MSTORE DUP2 PUSH1 0x4 DUP3 ADD SLOAD SWAP4 PUSH2 0x32F8 PUSH1 0x6 PUSH1 0x80 DUP4 ADD SWAP5 PUSH1 0xFF DUP9 AND ISZERO ISZERO DUP7 MSTORE PUSH1 0xFF PUSH1 0xA0 DUP6 ADD SWAP9 PUSH1 0x8 SHR AND ISZERO ISZERO DUP9 MSTORE PUSH2 0x32ED PUSH1 0x5 DUP3 ADD PUSH2 0x2586 JUMP JUMPDEST PUSH1 0xC0 DUP6 ADD MSTORE ADD PUSH2 0x2586 JUMP JUMPDEST PUSH1 0xE0 DUP3 ADD MSTORE MLOAD EQ SWAP3 DUP4 PUSH2 0x332B JUMPI JUMPDEST POP DUP3 PUSH2 0x3321 JUMPI JUMPDEST POP DUP2 PUSH2 0x3317 JUMPI POP SWAP1 JUMP JUMPDEST PUSH2 0x2484 SWAP2 POP PUSH2 0x2E71 JUMP JUMPDEST MLOAD ISZERO SWAP2 POP CODESIZE PUSH2 0x330D JUMP JUMPDEST MLOAD ISZERO ISZERO SWAP3 POP CODESIZE PUSH2 0x3306 JUMP JUMPDEST POP POP PUSH1 0x0 SWAP1 JUMP JUMPDEST ISZERO PUSH2 0x3344 JUMPI JUMP JUMPDEST PUSH1 0x40 MLOAD PUSH3 0x461BCD PUSH1 0xE5 SHL DUP2 MSTORE PUSH1 0x20 PUSH1 0x4 DUP3 ADD MSTORE PUSH1 0x15 PUSH1 0x24 DUP3 ADD MSTORE PUSH21 0x151A58DAD95D08191BD95CC81B9BDD08195E1A5CDD PUSH1 0x5A SHL PUSH1 0x44 DUP3 ADD MSTORE PUSH1 0x64 SWAP1 REVERT JUMPDEST ISZERO PUSH2 0x3388 JUMPI JUMP JUMPDEST PUSH1 0x40 MLOAD PUSH3 0x461BCD PUSH1 0xE5 SHL DUP2 MSTORE PUSH1 0x20 PUSH1 0x4 DUP3 ADD MSTORE PUSH1 0xD PUSH1 0x24 DUP3 ADD MSTORE PUSH13 0x2737BA103A34329037BBB732B9 PUSH1 0x99 SHL PUSH1 0x44 DUP3 ADD MSTORE PUSH1 0x64 SWAP1 REVERT JUMPDEST ISZERO PUSH2 0x33C4 JUMPI JUMP JUMPDEST PUSH1 0x40 MLOAD PUSH3 0x461BCD PUSH1 0xE5 SHL DUP2 MSTORE PUSH1 0x20 PUSH1 0x4 DUP3 ADD MSTORE PUSH1 0x1F PUSH1 0x24 DUP3 ADD MSTORE PUSH32 0x43616E6E6F74207472616E7366657220746F207A65726F206164647265737300 PUSH1 0x44 DUP3 ADD MSTORE PUSH1 0x64 SWAP1 REVERT JUMPDEST ISZERO PUSH2 0x3410 JUMPI JUMP JUMPDEST PUSH1 0x40 MLOAD PUSH3 0x461BCD PUSH1 0xE5 SHL DUP2 MSTORE PUSH1 0x20 PUSH1 0x4 DUP3 ADD MSTORE PUSH1 0x2D PUSH1 0x24 DUP3 ADD MSTORE PUSH32 0x4552433732313A2063616C6C6572206973206E6F7420746F6B656E206F776E65 PUSH1 0x44 DUP3 ADD MSTORE PUSH13 0x1C881BDC88185C1C1C9BDD9959 PUSH1 0x9A SHL PUSH1 0x64 DUP3 ADD MSTORE PUSH1 0x84 SWAP1 REVERT JUMPDEST SWAP1 PUSH1 0x1 PUSH1 0x1 PUSH1 0xA0 SHL SUB DUP1 DUP1 PUSH2 0x347F DUP5 PUSH2 0x2747 JUMP JUMPDEST AND SWAP4 AND SWAP2 DUP4 DUP4 EQ SWAP4 DUP5 ISZERO PUSH2 0x34B2 JUMPI JUMPDEST POP DUP4 ISZERO PUSH2 0x349C JUMPI JUMPDEST POP POP POP SWAP1 JUMP JUMPDEST PUSH2 0x34A8 SWAP2 SWAP3 SWAP4 POP PUSH2 0x276A JUMP JUMPDEST AND EQ CODESIZE DUP1 DUP1 PUSH2 0x3496 JUMP JUMPDEST SWAP1 SWAP4 POP PUSH1 0x0 MSTORE PUSH1 0x5 PUSH1 0x20 MSTORE PUSH1 0x40 PUSH1 0x0 KECCAK256 DUP3 PUSH1 0x0 MSTORE PUSH1 0x20 MSTORE PUSH1 0xFF PUSH1 0x40 PUSH1 0x0 KECCAK256 SLOAD AND SWAP3 CODESIZE PUSH2 0x348E JUMP JUMPDEST ISZERO PUSH2 0x34E0 JUMPI JUMP JUMPDEST PUSH1 0x40 MLOAD PUSH3 0x461BCD PUSH1 0xE5 SHL DUP2 MSTORE PUSH1 0x20 PUSH1 0x4 DUP3 ADD MSTORE PUSH1 0x25 PUSH1 0x24 DUP3 ADD MSTORE PUSH32 0x4552433732313A207472616E736665722066726F6D20696E636F727265637420 PUSH1 0x44 DUP3 ADD MSTORE PUSH5 0x37BBB732B9 PUSH1 0xD9 SHL PUSH1 0x64 DUP3 ADD MSTORE PUSH1 0x84 SWAP1 REVERT JUMPDEST SWAP1 PUSH2 0x355B SWAP2 PUSH2 0x3541 DUP5 PUSH2 0x2747 JUMP JUMPDEST PUSH1 0x1 PUSH1 0x1 PUSH1 0xA0 SHL SUB SWAP4 SWAP2 DUP5 AND SWAP3 DUP5 SWAP3 SWAP1 SWAP2 DUP4 AND DUP5 EQ PUSH2 0x34D9 JUMP JUMPDEST AND SWAP2 DUP3 ISZERO PUSH2 0x35F3 JUMPI DUP2 PUSH2 0x3578 SWAP2 PUSH2 0x3571 DUP7 PUSH2 0x2747 JUMP JUMPDEST AND EQ PUSH2 0x34D9 JUMP JUMPDEST PUSH32 0xDDF252AD1BE2C89B69C2B068FC378DAA952BA7F163C4A11628F55A4DF523B3EF PUSH1 0x0 DUP5 DUP2 MSTORE PUSH1 0x4 PUSH1 0x20 MSTORE PUSH1 0x40 DUP2 KECCAK256 PUSH1 0x1 PUSH1 0x1 PUSH1 0x60 SHL SUB PUSH1 0xA0 SHL SWAP1 DUP2 DUP2 SLOAD AND SWAP1 SSTORE DUP4 DUP3 MSTORE PUSH1 0x3 PUSH1 0x20 MSTORE PUSH1 0x40 DUP3 KECCAK256 PUSH1 0x0 NOT DUP2 SLOAD ADD SWAP1 SSTORE DUP5 DUP3 MSTORE PUSH1 0x40 DUP3 KECCAK256 PUSH1 0x1 DUP2 SLOAD ADD SWAP1 SSTORE DUP6 DUP3 MSTORE PUSH1 0x2 PUSH1 0x20 MSTORE DUP5 PUSH1 0x40 DUP4 KECCAK256 SWAP2 DUP3 SLOAD AND OR SWAP1 SSTORE DUP1 LOG4 JUMP JUMPDEST PUSH1 0x40 MLOAD PUSH3 0x461BCD PUSH1 0xE5 SHL DUP2 MSTORE PUSH1 0x20 PUSH1 0x4 DUP3 ADD MSTORE PUSH1 0x24 DUP1 DUP3 ADD MSTORE PUSH32 0x4552433732313A207472616E7366657220746F20746865207A65726F20616464 PUSH1 0x44 DUP3 ADD MSTORE PUSH4 0x72657373 PUSH1 0xE0 SHL PUSH1 0x64 DUP3 ADD MSTORE PUSH1 0x84 SWAP1 REVERT INVALID LOG2 PUSH5 0x6970667358 0x22 SLT KECCAK256 RETURNDATACOPY DELEGATECALL DUP3 MSTORE 0xB1 MSTORE CALLVALUE 0xEF DUP6 PUSH1 0x44 PUSH10 0x26DAB1CCA6A833F8DCCC REVERT CHAINID SHR 0xDC XOR 0xA5 0xD7 PUSH25 0x4DC164736F6C63430008130033000000000000000000000000 "},"methodIdentifiers":{"approve(address,uint256)":"095ea7b3","balanceOf(address)":"70a08231","cancelTicket(uint256)":"ee355b1f","emergencyPause()":"51858e27","eventContract()":"e274fd24","eventTickets(uint256,uint256)":"779cea77","exists(uint256)":"4f558e79","getApproved(uint256)":"081812fc","getContractStats()":"dfe6b5d6","getEventTickets(uint256)":"ca261ce1","getTicketMetadata(uint256)":"ba0ae43c","getTicketsByOwner(address)":"67aa23e2","isApprovedForAll(address,address)":"e985e9c5","mintBatchTickets(address[],uint256,address,string[],string,string)":"5a7b914c","mintTicket(address,uint256,address,string,string,string)":"7f677bd0","mintTicketForEvent(address,uint256,address)":"078cc986","name()":"06fdde03","owner()":"8da5cb5b","ownerOf(uint256)":"6352211e","paymentProcessor()":"f1c6bdf8","renounceOwnership()":"715018a6","safeTransferFrom(address,address,uint256)":"42842e0e","safeTransferFrom(address,address,uint256,bytes)":"b88d4fde","setApprovalForAll(address,bool)":"a22cb465","setEventContract(address)":"656f0f0f","setPaymentProcessor(address)":"088b0d75","supportsInterface(bytes4)":"01ffc9a7","symbol()":"95d89b41","ticketMetadata(uint256)":"ea05fc51","tokenURI(uint256)":"c87b56dd","totalSupply()":"18160ddd","transferFrom(address,address,uint256)":"23b872dd","transferOwnership(address)":"f2fde38b","useTicket(uint256)":"26606448","usedTickets(uint256)":"71efdc21","verifyTicket(uint256,uint256)":"03446b18"}},"storageLayout":{"storage":[{"astId":231,"contract":"contracts/TicketNFT.sol:TicketNFT","label":"_name","offset":0,"slot":"0","type":"t_string_storage"},{"astId":233,"contract":"contracts/TicketNFT.sol:TicketNFT","label":"_symbol","offset":0,"slot":"1","type":"t_string_storage"},{"astId":237,"contract":"contracts/TicketNFT.sol:TicketNFT","label":"_owners","offset":0,"slot":"2","type":"t_mapping(t_uint256,t_address)"},{"astId":241,"contract":"contracts/TicketNFT.sol:TicketNFT","label":"_balances","offset":0,"slot":"3","type":"t_mapping(t_address,t_uint256)"},{"astId":245,"contract":"contracts/TicketNFT.sol:TicketNFT","label":"_tokenApprovals","offset":0,"slot":"4","type":"t_mapping(t_uint256,t_address)"},{"astId":251,"contract":"contracts/TicketNFT.sol:TicketNFT","label":"_operatorApprovals","offset":0,"slot":"5","type":"t_mapping(t_address,t_mapping(t_address,t_bool))"},{"astId":1282,"contract":"contracts/TicketNFT.sol:TicketNFT","label":"_tokenURIs","offset":0,"slot":"6","type":"t_mapping(t_uint256,t_string_storage)"},{"astId":7,"contract":"contracts/TicketNFT.sol:TicketNFT","label":"_owner","offset":0,"slot":"7","type":"t_address"},{"astId":151,"contract":"contracts/TicketNFT.sol:TicketNFT","label":"_status","offset":0,"slot":"8","type":"t_uint256"},{"astId":3175,"contract":"contracts/TicketNFT.sol:TicketNFT","label":"_tokenIdCounter","offset":0,"slot":"9","type":"t_struct(Counter)1815_storage"},{"astId":3197,"contract":"contracts/TicketNFT.sol:TicketNFT","label":"ticketMetadata","offset":0,"slot":"10","type":"t_mapping(t_uint256,t_struct(TicketMetadata)3192_storage)"},{"astId":3202,"contract":"contracts/TicketNFT.sol:TicketNFT","label":"eventTickets","offset":0,"slot":"11","type":"t_mapping(t_uint256,t_array(t_uint256)dyn_storage)"},{"astId":3206,"contract":"contracts/TicketNFT.sol:TicketNFT","label":"usedTickets","offset":0,"slot":"12","type":"t_mapping(t_uint256,t_bool)"},{"astId":3208,"contract":"contracts/TicketNFT.sol:TicketNFT","label":"eventContract","offset":0,"slot":"13","type":"t_address"},{"astId":3210,"contract":"contracts/TicketNFT.sol:TicketNFT","label":"paymentProcessor","offset":0,"slot":"14","type":"t_address"}],"types":{"t_address":{"encoding":"inplace","label":"address","numberOfBytes":"20"},"t_array(t_uint256)dyn_storage":{"base":"t_uint256","encoding":"dynamic_array","label":"uint256[]","numberOfBytes":"32"},"t_bool":{"encoding":"inplace","label":"bool","numberOfBytes":"1"},"t_mapping(t_address,t_bool)":{"encoding":"mapping","key":"t_address","label":"mapping(address => bool)","numberOfBytes":"32","value":"t_bool"},"t_mapping(t_address,t_mapping(t_address,t_bool))":{"encoding":"mapping","key":"t_address","label":"mapping(address => mapping(address => bool))","numberOfBytes":"32","value":"t_mapping(t_address,t_bool)"},"t_mapping(t_address,t_uint256)":{"encoding":"mapping","key":"t_address","label":"mapping(address => uint256)","numberOfBytes":"32","value":"t_uint256"},"t_mapping(t_uint256,t_address)":{"encoding":"mapping","key":"t_uint256","label":"mapping(uint256 => address)","numberOfBytes":"32","value":"t_address"},"t_mapping(t_uint256,t_array(t_uint256)dyn_storage)":{"encoding":"mapping","key":"t_uint256","label":"mapping(uint256 => uint256[])","numberOfBytes":"32","value":"t_array(t_uint256)dyn_storage"},"t_mapping(t_uint256,t_bool)":{"encoding":"mapping","key":"t_uint256","label":"mapping(uint256 => bool)","numberOfBytes":"32","value":"t_bool"},"t_mapping(t_uint256,t_string_storage)":{"encoding":"mapping","key":"t_uint256","label":"mapping(uint256 => string)","numberOfBytes":"32","value":"t_string_storage"},"t_mapping(t_uint256,t_struct(TicketMetadata)3192_storage)":{"encoding":"mapping","key":"t_uint256","label":"mapping(uint256 => struct TicketNFT.TicketMetadata)","numberOfBytes":"32","value":"t_struct(TicketMetadata)3192_storage"},"t_string_storage":{"encoding":"bytes","label":"string","numberOfBytes":"32"},"t_struct(Counter)1815_storage":{"encoding":"inplace","label":"struct Counters.Counter","members":[{"astId":1814,"contract":"contracts/TicketNFT.sol:TicketNFT","label":"_value","offset":0,"slot":"0","type":"t_uint256"}],"numberOfBytes":"32"},"t_struct(TicketMetadata)3192_storage":{"encoding":"inplace","label":"struct TicketNFT.TicketMetadata","members":[{"astId":3177,"contract":"contracts/TicketNFT.sol:TicketNFT","label":"eventId","offset":0,"slot":"0","type":"t_uint256"},{"astId":3179,"contract":"contracts/TicketNFT.sol:TicketNFT","label":"eventContract","offset":0,"slot":"1","type":"t_address"},{"astId":3181,"contract":"contracts/TicketNFT.sol:TicketNFT","label":"purchaser","offset":0,"slot":"2","type":"t_address"},{"astId":3183,"contract":"contracts/TicketNFT.sol:TicketNFT","label":"purchaseDate","offset":0,"slot":"3","type":"t_uint256"},{"astId":3185,"contract":"contracts/TicketNFT.sol:TicketNFT","label":"isUsed","offset":0,"slot":"4","type":"t_bool"},{"astId":3187,"contract":"contracts/TicketNFT.sol:TicketNFT","label":"isActive","offset":1,"slot":"4","type":"t_bool"},{"astId":3189,"contract":"contracts/TicketNFT.sol:TicketNFT","label":"seatInfo","offset":0,"slot":"5","type":"t_string_storage"},{"astId":3191,"contract":"contracts/TicketNFT.sol:TicketNFT","label":"ticketType","offset":0,"slot":"6","type":"t_string_storage"}],"numberOfBytes":"224"},"t_uint256":{"encoding":"inplace","label":"uint256","numberOfBytes":"32"}}}}}}