{"contracts/EventContract.sol":{"EventContract":{"abi":[{"anonymous":false,"inputs":[{"indexed":true,"internalType":"uint256","name":"eventId","type":"uint256"}],"name":"EventCancelled","type":"event"},{"anonymous":false,"inputs":[{"indexed":true,"internalType":"uint256","name":"eventId","type":"uint256"},{"indexed":true,"internalType":"address","name":"organizer","type":"address"},{"indexed":false,"internalType":"string","name":"title","type":"string"}],"name":"EventCreated","type":"event"},{"anonymous":false,"inputs":[{"indexed":true,"internalType":"uint256","name":"eventId","type":"uint256"},{"indexed":false,"internalType":"string","name":"title","type":"string"}],"name":"EventUpdated","type":"event"},{"anonymous":false,"inputs":[{"indexed":true,"internalType":"address","name":"previousOwner","type":"address"},{"indexed":true,"internalType":"address","name":"newOwner","type":"address"}],"name":"OwnershipTransferred","type":"event"},{"anonymous":false,"inputs":[{"indexed":true,"internalType":"uint256","name":"eventId","type":"uint256"},{"indexed":true,"internalType":"address","name":"user","type":"address"}],"name":"UserRegistered","type":"event"},{"anonymous":false,"inputs":[{"indexed":true,"internalType":"uint256","name":"eventId","type":"uint256"},{"indexed":true,"internalType":"address","name":"user","type":"address"}],"name":"UserUnregistered","type":"event"},{"inputs":[{"internalType":"uint256","name":"_eventId","type":"uint256"}],"name":"cancelEvent","outputs":[],"stateMutability":"nonpayable","type":"function"},{"inputs":[{"internalType":"string","name":"_title","type":"string"},{"internalType":"string","name":"_description","type":"string"},{"internalType":"uint256","name":"_startDate","type":"uint256"},{"internalType":"uint256","name":"_endDate","type":"uint256"},{"internalType":"uint256","name":"_ticketPrice","type":"uint256"},{"internalType":"uint256","name":"_capacity","type":"uint256"},{"internalType":"string","name":"_location","type":"string"},{"internalType":"string[]","name":"_categories","type":"string[]"}],"name":"createEvent","outputs":[{"internalType":"uint256","name":"","type":"uint256"}],"stateMutability":"nonpayable","type":"function"},{"inputs":[],"name":"eventCount","outputs":[{"internalType":"uint256","name":"","type":"uint256"}],"stateMutability":"view","type":"function"},{"inputs":[{"internalType":"uint256","name":"","type":"uint256"},{"internalType":"address","name":"","type":"address"}],"name":"eventRegistrations","outputs":[{"internalType":"bool","name":"","type":"bool"}],"stateMutability":"view","type":"function"},{"inputs":[{"internalType":"uint256","name":"","type":"uint256"}],"name":"events","outputs":[{"internalType":"uint256","name":"id","type":"uint256"},{"internalType":"string","name":"title","type":"string"},{"internalType":"string","name":"description","type":"string"},{"internalType":"uint256","name":"startDate","type":"uint256"},{"internalType":"uint256","name":"endDate","type":"uint256"},{"internalType":"uint256","name":"ticketPrice","type":"uint256"},{"internalType":"uint256","name":"capacity","type":"uint256"},{"internalType":"uint256","name":"registeredCount","type":"uint256"},{"internalType":"address","name":"organizer","type":"address"},{"internalType":"bool","name":"isActive","type":"bool"},{"internalType":"string","name":"location","type":"string"}],"stateMutability":"view","type":"function"},{"inputs":[],"name":"getActiveEvents","outputs":[{"internalType":"uint256[]","name":"","type":"uint256[]"}],"stateMutability":"view","type":"function"},{"inputs":[],"name":"getContractBalance","outputs":[{"internalType":"uint256","name":"","type":"uint256"}],"stateMutability":"view","type":"function"},{"inputs":[{"internalType":"uint256","name":"_eventId","type":"uint256"}],"name":"getEvent","outputs":[{"internalType":"uint256","name":"id","type":"uint256"},{"internalType":"string","name":"title","type":"string"},{"internalType":"string","name":"description","type":"string"},{"internalType":"uint256","name":"startDate","type":"uint256"},{"internalType":"uint256","name":"endDate","type":"uint256"},{"internalType":"uint256","name":"ticketPrice","type":"uint256"},{"internalType":"uint256","name":"capacity","type":"uint256"},{"internalType":"uint256","name":"registeredCount","type":"uint256"},{"internalType":"address","name":"organizer","type":"address"},{"internalType":"bool","name":"isActive","type":"bool"},{"internalType":"string","name":"location","type":"string"},{"internalType":"string[]","name":"categories","type":"string[]"}],"stateMutability":"view","type":"function"},{"inputs":[{"internalType":"address","name":"_organizer","type":"address"}],"name":"getEventsByOrganizer","outputs":[{"internalType":"uint256[]","name":"","type":"uint256[]"}],"stateMutability":"view","type":"function"},{"inputs":[{"internalType":"uint256","name":"_eventId","type":"uint256"},{"internalType":"address","name":"_user","type":"address"}],"name":"isUserRegistered","outputs":[{"internalType":"bool","name":"","type":"bool"}],"stateMutability":"view","type":"function"},{"inputs":[],"name":"owner","outputs":[{"internalType":"address","name":"","type":"address"}],"stateMutability":"view","type":"function"},{"inputs":[],"name":"platformFee","outputs":[{"internalType":"uint256","name":"","type":"uint256"}],"stateMutability":"view","type":"function"},{"inputs":[{"internalType":"uint256","name":"_eventId","type":"uint256"}],"name":"registerForEvent","outputs":[],"stateMutability":"payable","type":"function"},{"inputs":[],"name":"renounceOwnership","outputs":[],"stateMutability":"nonpayable","type":"function"},{"inputs":[{"internalType":"address","name":"newOwner","type":"address"}],"name":"transferOwnership","outputs":[],"stateMutability":"nonpayable","type":"function"},{"inputs":[{"internalType":"uint256","name":"_eventId","type":"uint256"}],"name":"unregisterFromEvent","outputs":[],"stateMutability":"nonpayable","type":"function"},{"inputs":[{"internalType":"uint256","name":"_eventId","type":"uint256"},{"internalType":"string","name":"_title","type":"string"},{"internalType":"string","name":"_description","type":"string"},{"internalType":"uint256","name":"_startDate","type":"uint256"},{"internalType":"uint256","name":"_endDate","type":"uint256"},{"internalType":"uint256","name":"_ticketPrice","type":"uint256"},{"internalType":"uint256","name":"_capacity","type":"uint256"},{"internalType":"string","name":"_location","type":"string"},{"internalType":"string[]","name":"_categories","type":"string[]"}],"name":"updateEvent","outputs":[],"stateMutability":"nonpayable","type":"function"},{"inputs":[{"internalType":"uint256","name":"_newFee","type":"uint256"}],"name":"updatePlatformFee","outputs":[],"stateMutability":"nonpayable","type":"function"},{"inputs":[],"name":"withdrawPlatformFees","outputs":[],"stateMutability":"nonpayable","type":"function"}],"evm":{"bytecode":{"linkReferences":{},"object":"608080604052346100635760008054336001600160a01b0319821681178355916001600160a01b03909116907f8be0079c531659141344cd1fd0a4f28419497f9722a3daafe3b4186f6b6457e09080a360018055600580556120b690816100698239f35b600080fdfe6080604052600436101561001257600080fd5b60003560e01c80630b79143014611ad057806326232a2e14611ab25780633612280f14611a095780633e2c70141461152e5780633f69babd14611916578063406db843146116835780634df6dab91461157b57806357f697991461152e5780636d1884e0146112e95780636f9fb98a146112cd578063715018a61461127457806371be2e4a146112565780638da5cb5b1461122d5780639f6271c31461115d578063aa0b5988146110ef578063c2c029651461097d578063d0b7830b146108fd578063f2fde38b146108345763f4929006146100ed57600080fd5b3461082f5761012036600319011261082f576024356001600160401b03811161082f5761011e903690600401611d74565b6044356001600160401b03811161082f5761013d903690600401611d74565b9060e4356001600160401b03811161082f5761015d903690600401611d74565b91610104356001600160401b03811161082f5761017e903690600401611de1565b60043560005260026020526101996040600020541515611f80565b60043560005260026020526101bf60018060a01b03600860406000200154163314611fc3565b600435600052600260205260ff60086040600020015460a01c16156107ea576101eb4260643511611eb9565b6101fa60643560843511611f04565b600435600052600260205260076040600020015460c4351061078657600435600052600260205260406000209183516001600160401b0381116104ea576102446001850154611bb0565b601f8111610751575b50806020601f82116001146106e4576000916106d9575b508160011b916000199060031b1c19161760018401555b8051906001600160401b0382116104ea57819061029b6002860154611bb0565b601f81116106a4575b50602090601f831160011461063257600092610627575b50508160011b916000199060031b1c19161760028301555b6064356003830155608435600483015560a435600583015560c435600683015583516001600160401b0381116104ea576103106009840154611bb0565b601f81116105f2575b506020601f8211600114610583578192939495600092610578575b50508160011b916000199060031b1c19161760098301555b805190600160401b82116104ea57600a83015482600a850155808310610500575b506020600a910192016000526020600020916000905b8282106103ca57847f0c21d47f606573d65eedb6ee084e32d784cfcd5ce32240b22f19de37d6b4096960405160208152806103c5600435946020830190611ccd565b0390a2005b80518051906001600160401b0382116104ea576103e78654611bb0565b601f81116104ad575b50602090601f831160011461043d579282600194936020938695600092610432575b5050600019600383901b1c191690841b1787555b01940191019092610383565b015190503880610412565b908660005260206000209160005b601f1985168110610495575083602093600196938796938794601f1981161061047c575b505050811b018755610426565b015160001960f88460031b161c1916905538808061046f565b9192602060018192868501518155019401920161044b565b6104da90876000526020600020601f850160051c810191602086106104e0575b601f0160051c0190611f69565b386103f0565b90915081906104cd565b634e487b7160e01b600052604160045260246000fd5b600a84016000526020600020908382015b818301811061052157505061036d565b8061052e60019254611bb0565b8061053b575b5001610511565b601f811183146105515750600081555b38610534565b60009082825261056f601f60208420920160051c8201858301611f69565b8183555561054b565b015190503880610334565b6009840160005260206000209060005b601f19841681106105da575060019394959683601f198116106105c1575b505050811b01600983015561034c565b015160001960f88460031b161c191690553880806105b1565b9091602060018192858b015181550193019101610593565b61062190600985016000526020600020601f840160051c810191602085106104e057601f0160051c0190611f69565b38610319565b0151905038806102bb565b9250600285016000526020600020906000935b601f1984168510610689576001945083601f19811610610670575b505050811b0160028301556102d3565b015160001960f88460031b161c19169055388080610660565b81810151835560209485019460019093019290910190610645565b6106d390600287016000526020600020601f850160051c810191602086106104e057601f0160051c0190611f69565b386102a4565b905085015138610264565b91506001850160005260206000206000925b601f1983168410610739576001935082601f19811610610720575b5050811b01600184015561027b565b87015160001960f88460031b161c191690553880610711565b878101518255602093840193600190920191016106f6565b61078090600186016000526020600020601f840160051c810191602085106104e057601f0160051c0190611f69565b3861024d565b60405162461bcd60e51b815260206004820152603660248201527f4e65772063617061636974792063616e6e6f74206265206c657373207468616e6044820152752063757272656e7420726567697374726174696f6e7360501b6064820152608490fd5b60405162461bcd60e51b815260206004820152601d60248201527f43616e6e6f74207570646174652063616e63656c6c6564206576656e740000006044820152606490fd5b600080fd5b3461082f57602036600319011261082f5761084d611d5e565b610855611e61565b6001600160a01b039081169081156108a957600054826bffffffffffffffffffffffff60a01b821617600055167f8be0079c531659141344cd1fd0a4f28419497f9722a3daafe3b4186f6b6457e0600080a3005b60405162461bcd60e51b815260206004820152602660248201527f4f776e61626c653a206e6577206f776e657220697320746865207a65726f206160448201526564647265737360d01b6064820152608490fd5b3461082f57600036600319011261082f57610916611e61565b4780156109425760008080809360018060a01b0382541682f11561093657005b6040513d6000823e3d90fd5b60405162461bcd60e51b81526020600482015260136024820152724e6f206665657320746f20776974686472617760681b6044820152606490fd5b3461082f5761010036600319011261082f576004356001600160401b03811161082f576109ae903690600401611d74565b6024356001600160401b03811161082f576109cd903690600401611d74565b9060c4356001600160401b03811161082f576109ed903690600401611d74565b9060e4356001600160401b03811161082f57610a0d903690600401611de1565b8151156110b257610a214260443511611eb9565b610a3060443560643511611f04565b60a4351561106d57610a43600454611f5a565b928360045560405194610a5586611bea565b84865283602087015260408601526044356060860152606435608086015260843560a086015260a43560c0860152600060e08601523361010086015260016101208601526101408501526101608401528160005260026020526040600020928051845560208101518051906001600160401b0382116104ea578190610add6001880154611bb0565b601f8111611038575b50602090601f8311600114610fc657600092610fbb575b50508160011b916000199060031b1c19161760018501555b60408101518051906001600160401b0382116104ea578190610b3a6002880154611bb0565b601f8111610f86575b50602090601f8311600114610f1457600092610f09575b50508160011b916000199060031b1c19161760028501555b606081015160038501556080810151600485015560a0810151600585015560c0810151600685015560e081015160078501556008840160018060a01b036101008301511681549060ff60a01b610120850151151560a01b16916affffffffffffffffffffff60a81b16171790556101408101518051906001600160401b0382116104ea57610c036009870154611bb0565b601f8111610ed4575b50602090601f8311600114610e605761016093929160009183610e55575b50508160011b916000199060031b1c19161760098601555b0151805190600160401b82116104ea57600a85015482600a870155808310610ddd575b506020600a910194016000526020600020936000905b828210610cc85760208585817ffc695dea2478fb938a11068aeedddd7046a5fe655f136e30a325d353fe187a4560405185815280610cbd339588830190611ccd565b0390a3604051908152f35b80518051906001600160401b0382116104ea57610ce58854611bb0565b601f8111610dab575b50602090601f8311600114610d3b579282600194936020938695600092610d30575b5050600019600383901b1c191690841b1789555b01960191019094610c7b565b015190508b80610d10565b908860005260206000209160005b601f1985168110610d93575083602093600196938796938794601f19811610610d7a575b505050811b018955610d24565b015160001960f88460031b161c191690558b8080610d6d565b91926020600181928685015181550194019201610d49565b610dd790896000526020600020601f850160051c810191602086106104e057601f0160051c0190611f69565b88610cee565b600a86016000526020600020908382015b8183018110610dfe575050610c65565b80610e0b60019254611bb0565b80610e18575b5001610dee565b601f81118314610e2e5750600081555b89610e11565b600090828252610e4c601f60208420920160051c8201858301611f69565b81835555610e28565b015190508780610c2a565b906009870160005260206000209160005b601f1985168110610ebc57509183916001936101609695601f19811610610ea3575b505050811b016009860155610c42565b015160001960f88460031b161c19169055878080610e93565b91926020600181928685015181550194019201610e71565b610f0390600988016000526020600020601f850160051c810191602086106104e057601f0160051c0190611f69565b86610c0c565b015190508680610b5a565b9250600287016000526020600020906000935b601f1984168510610f6b576001945083601f19811610610f52575b505050811b016002850155610b72565b015160001960f88460031b161c19169055868080610f42565b81810151835560209485019460019093019290910190610f27565b610fb590600289016000526020600020601f850160051c810191602086106104e057601f0160051c0190611f69565b87610b43565b015190508680610afd565b9250600187016000526020600020906000935b601f198416851061101d576001945083601f19811610611004575b505050811b016001850155610b15565b015160001960f88460031b161c19169055868080610ff4565b81810151835560209485019460019093019290910190610fd9565b61106790600189016000526020600020601f850160051c810191602086106104e057601f0160051c0190611f69565b87610ae6565b60405162461bcd60e51b815260206004820152601f60248201527f4361706163697479206d7573742062652067726561746572207468616e2030006044820152606490fd5b60405162461bcd60e51b81526020600482015260156024820152745469746c652063616e6e6f7420626520656d70747960581b6044820152606490fd5b3461082f57602036600319011261082f5760043561110b611e61565b6014811161111857600555005b60405162461bcd60e51b815260206004820152601e60248201527f506c6174666f726d206665652063616e6e6f74206578636565642032302500006044820152606490fd5b3461082f5760208060031936011261082f57611177611d5e565b60045461118381612024565b926000926001600160a01b039081169160015b848111156111ea5786866111a981612024565b9160005b8281106111c657604051806111c28682611d0d565b0390f35b806111d46111e59284612056565b516111df8287612056565b52611f5a565b6111ad565b806000526002825283836008604060002001541614611212575b61120d90611f5a565b611196565b9461122581876111df61120d948b612056565b959050611204565b3461082f57600036600319011261082f576000546040516001600160a01b039091168152602090f35b3461082f57600036600319011261082f576020600454604051908152f35b3461082f57600036600319011261082f5761128d611e61565b600080546001600160a01b0319811682556001600160a01b03167f8be0079c531659141344cd1fd0a4f28419497f9722a3daafe3b4186f6b6457e08280a3005b3461082f57600036600319011261082f57602047604051908152f35b3461082f57602036600319011261082f576004358060005260026020526113166040600020541515611f80565b600052600260205260406000206040519061133082611bea565b8054825261134060018201611c27565b602083015261135160028201611c27565b60408301526003810154606083015260048101546080830152600581015460a0830152600681015460c0830152600781015460e083015260ff600882015460018060a01b03811661010085015260a01c1615156101208301526113b660098201611c27565b610140830152600a8101546113ca81611dca565b906113d86040519283611c06565b80825260208201600a81940160005260206000206000915b8383106115115786858781610160840152825191602084015193604081015190606081015190608081015160a082015160c083015160e084015191600160a01b6001900361010086015116936101208601511515956101400151976040519c8d9c8d528c6101806020819201528d0161146891611ccd565b8c810360408e015261147991611ccd565b9660608c015260808b015260a08a015260c089015260e08801526101008701526101208601528481036101408601526114b191611ccd565b908382036101608501525180825260208201918160051b810160200193926000915b8383106114e05786860387f35b9193955091936020806114ff600193601f198682030187528951611ccd565b970193019301909286959492936114d3565b60016020819261152085611c27565b8152019201920191906113f0565b3461082f57604036600319011261082f57611547611d48565b600435600052600360205260406000209060018060a01b0316600052602052602060ff604060002054166040519015158152f35b3461082f5760208060031936011261082f576004359081600052600281526115a96040600020541515611f80565b8160005260038152604060002033600052815260ff604060002054161561163f576000828152600282526040808220600384528183203384529093529020805460ff19169055600701805480156116295760001901905533907fd7e5581f5accf2708572ba158aa9df7b822d6855be3657319e94b445a58f7703600080a3005b634e487b7160e01b600052601160045260246000fd5b6064906040519062461bcd60e51b82526004820152601d60248201527f4e6f74207265676973746572656420666f722074686973206576656e740000006044820152fd5b60208060031936011261082f576004359081600052600281526116ac6040600020541515611f80565b816000526002815260ff60086040600020015460a01c16156118dc57600260015414611898576002600155816000526002815260406000209060038152604060002033600052815260ff6040600020541661184a57600782019081546006840154111561180657600583015434106117cb57836000526003815260406000209033600052526040600020600160ff1982541617905561174b8154611f5a565b905560055480340290348204143415171561162957606490048034039034821161162957600080809381938796600860018060a01b039101541690839034146117c2575bf1156109365733907fb442efe467d2ef30e62927a3cae0afcbc799a8a0944d8a143332e4e5e51cee5d600080a360018055005b506108fc61178f565b6064906040519062461bcd60e51b825260048201526014602482015273125b9cdd59999a58da595b9d081c185e5b595b9d60621b6044820152fd5b6064906040519062461bcd60e51b82526004820152601960248201527f4576656e742069732061742066756c6c206361706163697479000000000000006044820152fd5b6084906040519062461bcd60e51b82526004820152602160248201527f416c7265616479207265676973746572656420666f722074686973206576656e6044820152601d60fa1b6064820152fd5b6064906040519062461bcd60e51b82526004820152601f60248201527f5265656e7472616e637947756172643a207265656e7472616e742063616c6c006044820152fd5b6064906040519062461bcd60e51b8252600482015260136024820152724576656e74206973206e6f742061637469766560681b6044820152fd5b3461082f5760208060031936011261082f576004359081600052600281526119446040600020541515611f80565b816000526002815261196760018060a01b03600860406000200154163314611fc3565b816000526002815260ff60086040600020015460a01c16156119c5576000828152600290915260408120600801805460ff60a01b191690557fdc3cb569b066460f4a22dffa05317bdcce5d3826382ed49a21f13e5fa2063d399080a2005b6064906040519062461bcd60e51b82526004820152601a60248201527f4576656e7420697320616c72656164792063616e63656c6c65640000000000006044820152fd5b3461082f57600036600319011261082f57600454611a2681612024565b9060009060015b81811115611a6c575050611a4081612024565b9160005b828110611a5957604051806111c28682611d0d565b806111d4611a679284612056565b611a44565b80600052600260205260ff60086040600020015460a01c16611a97575b611a9290611f5a565b611a2d565b91611aaa81846111df611a929488612056565b929050611a89565b3461082f57600036600319011261082f576020600554604051908152f35b3461082f57602036600319011261082f576004356000526002602052604060002080546111c2611b0260018401611c27565b92611b0f60028201611c27565b60ff60038301549260048101546005820154600683015490600784015492611b6d611b41600960088801549701611c27565b97611b5f6040519d8e9d8e528d610160908160208201520190611ccd565b8c810360408e015290611ccd565b9760608b015260808a015260a089015260c088015260e087015260018060a01b03811661010087015260a01c161515610120850152838203610140850152611ccd565b90600182811c92168015611be0575b6020831014611bca57565b634e487b7160e01b600052602260045260246000fd5b91607f1691611bbf565b61018081019081106001600160401b038211176104ea57604052565b90601f801991011681019081106001600160401b038211176104ea57604052565b9060405191826000825492611c3b84611bb0565b908184526001948581169081600014611caa5750600114611c67575b5050611c6592500383611c06565b565b9093915060005260209081600020936000915b818310611c92575050611c6593508201013880611c57565b85548884018501529485019487945091830191611c7a565b915050611c6594506020925060ff191682840152151560051b8201013880611c57565b919082519283825260005b848110611cf9575050826000602080949584010152601f8019910116010190565b602081830181015184830182015201611cd8565b6020908160408183019282815285518094520193019160005b828110611d34575050505090565b835185529381019392810192600101611d26565b602435906001600160a01b038216820361082f57565b600435906001600160a01b038216820361082f57565b81601f8201121561082f578035906001600160401b0382116104ea5760405192611da8601f8401601f191660200185611c06565b8284526020838301011161082f57816000926020809301838601378301015290565b6001600160401b0381116104ea5760051b60200190565b9080601f8301121561082f57813590611df982611dca565b92611e076040519485611c06565b828452602092838086019160051b8301019280841161082f57848301915b848310611e355750505050505090565b82356001600160401b03811161082f578691611e5684848094890101611d74565b815201920191611e25565b6000546001600160a01b03163303611e7557565b606460405162461bcd60e51b815260206004820152602060248201527f4f776e61626c653a2063616c6c6572206973206e6f7420746865206f776e65726044820152fd5b15611ec057565b606460405162461bcd60e51b815260206004820152602060248201527f53746172742064617465206d75737420626520696e20746865206675747572656044820152fd5b15611f0b57565b60405162461bcd60e51b815260206004820152602160248201527f456e642064617465206d757374206265206166746572207374617274206461746044820152606560f81b6064820152608490fd5b60001981146116295760010190565b818110611f74575050565b60008155600101611f69565b15611f8757565b60405162461bcd60e51b8152602060048201526014602482015273115d995b9d08191bd95cc81b9bdd08195e1a5cdd60621b6044820152606490fd5b15611fca57565b60405162461bcd60e51b815260206004820152602c60248201527f4f6e6c79206576656e74206f7267616e697a65722063616e20706572666f726d60448201526b103a3434b99030b1ba34b7b760a11b6064820152608490fd5b9061202e82611dca565b61203b6040519182611c06565b828152809261204c601f1991611dca565b0190602036910137565b805182101561206a5760209160051b010190565b634e487b7160e01b600052603260045260246000fdfea264697066735822122099926b6ee2538cf24c862b77f5e340532c4409bb0ad2ae59fd4d52828c701d9864736f6c63430008130033","opcodes":"PUSH1 0x80 DUP1 PUSH1 0x40 MSTORE CALLVALUE PUSH2 0x63 JUMPI PUSH1 0x0 DUP1 SLOAD CALLER PUSH1 0x1 PUSH1 0x1 PUSH1 0xA0 SHL SUB NOT DUP3 AND DUP2 OR DUP4 SSTORE SWAP2 PUSH1 0x1 PUSH1 0x1 PUSH1 0xA0 SHL SUB SWAP1 SWAP2 AND SWAP1 PUSH32 0x8BE0079C531659141344CD1FD0A4F28419497F9722A3DAAFE3B4186F6B6457E0 SWAP1 DUP1 LOG3 PUSH1 0x1 DUP1 SSTORE PUSH1 0x5 DUP1 SSTORE PUSH2 0x20B6 SWAP1 DUP2 PUSH2 0x69 DUP3 CODECOPY RETURN JUMPDEST PUSH1 0x0 DUP1 REVERT INVALID PUSH1 0x80 PUSH1 0x40 MSTORE PUSH1 0x4 CALLDATASIZE LT ISZERO PUSH2 0x12 JUMPI PUSH1 0x0 DUP1 REVERT JUMPDEST PUSH1 0x0 CALLDATALOAD PUSH1 0xE0 SHR DUP1 PUSH4 0xB791430 EQ PUSH2 0x1AD0 JUMPI DUP1 PUSH4 0x26232A2E EQ PUSH2 0x1AB2 JUMPI DUP1 PUSH4 0x3612280F EQ PUSH2 0x1A09 JUMPI DUP1 PUSH4 0x3E2C7014 EQ PUSH2 0x152E JUMPI DUP1 PUSH4 0x3F69BABD EQ PUSH2 0x1916 JUMPI DUP1 PUSH4 0x406DB843 EQ PUSH2 0x1683 JUMPI DUP1 PUSH4 0x4DF6DAB9 EQ PUSH2 0x157B JUMPI DUP1 PUSH4 0x57F69799 EQ PUSH2 0x152E JUMPI DUP1 PUSH4 0x6D1884E0 EQ PUSH2 0x12E9 JUMPI DUP1 PUSH4 0x6F9FB98A EQ PUSH2 0x12CD JUMPI DUP1 PUSH4 0x715018A6 EQ PUSH2 0x1274 JUMPI DUP1 PUSH4 0x71BE2E4A EQ PUSH2 0x1256 JUMPI DUP1 PUSH4 0x8DA5CB5B EQ PUSH2 0x122D JUMPI DUP1 PUSH4 0x9F6271C3 EQ PUSH2 0x115D JUMPI DUP1 PUSH4 0xAA0B5988 EQ PUSH2 0x10EF JUMPI DUP1 PUSH4 0xC2C02965 EQ PUSH2 0x97D JUMPI DUP1 PUSH4 0xD0B7830B EQ PUSH2 0x8FD JUMPI DUP1 PUSH4 0xF2FDE38B EQ PUSH2 0x834 JUMPI PUSH4 0xF4929006 EQ PUSH2 0xED JUMPI PUSH1 0x0 DUP1 REVERT JUMPDEST CALLVALUE PUSH2 0x82F JUMPI PUSH2 0x120 CALLDATASIZE PUSH1 0x3 NOT ADD SLT PUSH2 0x82F JUMPI PUSH1 0x24 CALLDATALOAD PUSH1 0x1 PUSH1 0x1 PUSH1 0x40 SHL SUB DUP2 GT PUSH2 0x82F JUMPI PUSH2 0x11E SWAP1 CALLDATASIZE SWAP1 PUSH1 0x4 ADD PUSH2 0x1D74 JUMP JUMPDEST PUSH1 0x44 CALLDATALOAD PUSH1 0x1 PUSH1 0x1 PUSH1 0x40 SHL SUB DUP2 GT PUSH2 0x82F JUMPI PUSH2 0x13D SWAP1 CALLDATASIZE SWAP1 PUSH1 0x4 ADD PUSH2 0x1D74 JUMP JUMPDEST SWAP1 PUSH1 0xE4 CALLDATALOAD PUSH1 0x1 PUSH1 0x1 PUSH1 0x40 SHL SUB DUP2 GT PUSH2 0x82F JUMPI PUSH2 0x15D SWAP1 CALLDATASIZE SWAP1 PUSH1 0x4 ADD PUSH2 0x1D74 JUMP JUMPDEST SWAP2 PUSH2 0x104 CALLDATALOAD PUSH1 0x1 PUSH1 0x1 PUSH1 0x40 SHL SUB DUP2 GT PUSH2 0x82F JUMPI PUSH2 0x17E SWAP1 CALLDATASIZE SWAP1 PUSH1 0x4 ADD PUSH2 0x1DE1 JUMP JUMPDEST PUSH1 0x4 CALLDATALOAD PUSH1 0x0 MSTORE PUSH1 0x2 PUSH1 0x20 MSTORE PUSH2 0x199 PUSH1 0x40 PUSH1 0x0 KECCAK256 SLOAD ISZERO ISZERO PUSH2 0x1F80 JUMP JUMPDEST PUSH1 0x4 CALLDATALOAD PUSH1 0x0 MSTORE PUSH1 0x2 PUSH1 0x20 MSTORE PUSH2 0x1BF PUSH1 0x1 DUP1 PUSH1 0xA0 SHL SUB PUSH1 0x8 PUSH1 0x40 PUSH1 0x0 KECCAK256 ADD SLOAD AND CALLER EQ PUSH2 0x1FC3 JUMP JUMPDEST PUSH1 0x4 CALLDATALOAD PUSH1 0x0 MSTORE PUSH1 0x2 PUSH1 0x20 MSTORE PUSH1 0xFF PUSH1 0x8 PUSH1 0x40 PUSH1 0x0 KECCAK256 ADD SLOAD PUSH1 0xA0 SHR AND ISZERO PUSH2 0x7EA JUMPI PUSH2 0x1EB TIMESTAMP PUSH1 0x64 CALLDATALOAD GT PUSH2 0x1EB9 JUMP JUMPDEST PUSH2 0x1FA PUSH1 0x64 CALLDATALOAD PUSH1 0x84 CALLDATALOAD GT PUSH2 0x1F04 JUMP JUMPDEST PUSH1 0x4 CALLDATALOAD PUSH1 0x0 MSTORE PUSH1 0x2 PUSH1 0x20 MSTORE PUSH1 0x7 PUSH1 0x40 PUSH1 0x0 KECCAK256 ADD SLOAD PUSH1 0xC4 CALLDATALOAD LT PUSH2 0x786 JUMPI PUSH1 0x4 CALLDATALOAD PUSH1 0x0 MSTORE PUSH1 0x2 PUSH1 0x20 MSTORE PUSH1 0x40 PUSH1 0x0 KECCAK256 SWAP2 DUP4 MLOAD PUSH1 0x1 PUSH1 0x1 PUSH1 0x40 SHL SUB DUP2 GT PUSH2 0x4EA JUMPI PUSH2 0x244 PUSH1 0x1 DUP6 ADD SLOAD PUSH2 0x1BB0 JUMP JUMPDEST PUSH1 0x1F DUP2 GT PUSH2 0x751 JUMPI JUMPDEST POP DUP1 PUSH1 0x20 PUSH1 0x1F DUP3 GT PUSH1 0x1 EQ PUSH2 0x6E4 JUMPI PUSH1 0x0 SWAP2 PUSH2 0x6D9 JUMPI JUMPDEST POP DUP2 PUSH1 0x1 SHL SWAP2 PUSH1 0x0 NOT SWAP1 PUSH1 0x3 SHL SHR NOT AND OR PUSH1 0x1 DUP5 ADD SSTORE JUMPDEST DUP1 MLOAD SWAP1 PUSH1 0x1 PUSH1 0x1 PUSH1 0x40 SHL SUB DUP3 GT PUSH2 0x4EA JUMPI DUP2 SWAP1 PUSH2 0x29B PUSH1 0x2 DUP7 ADD SLOAD PUSH2 0x1BB0 JUMP JUMPDEST PUSH1 0x1F DUP2 GT PUSH2 0x6A4 JUMPI JUMPDEST POP PUSH1 0x20 SWAP1 PUSH1 0x1F DUP4 GT PUSH1 0x1 EQ PUSH2 0x632 JUMPI PUSH1 0x0 SWAP3 PUSH2 0x627 JUMPI JUMPDEST POP POP DUP2 PUSH1 0x1 SHL SWAP2 PUSH1 0x0 NOT SWAP1 PUSH1 0x3 SHL SHR NOT AND OR PUSH1 0x2 DUP4 ADD SSTORE JUMPDEST PUSH1 0x64 CALLDATALOAD PUSH1 0x3 DUP4 ADD SSTORE PUSH1 0x84 CALLDATALOAD PUSH1 0x4 DUP4 ADD SSTORE PUSH1 0xA4 CALLDATALOAD PUSH1 0x5 DUP4 ADD SSTORE PUSH1 0xC4 CALLDATALOAD PUSH1 0x6 DUP4 ADD SSTORE DUP4 MLOAD PUSH1 0x1 PUSH1 0x1 PUSH1 0x40 SHL SUB DUP2 GT PUSH2 0x4EA JUMPI PUSH2 0x310 PUSH1 0x9 DUP5 ADD SLOAD PUSH2 0x1BB0 JUMP JUMPDEST PUSH1 0x1F DUP2 GT PUSH2 0x5F2 JUMPI JUMPDEST POP PUSH1 0x20 PUSH1 0x1F DUP3 GT PUSH1 0x1 EQ PUSH2 0x583 JUMPI DUP2 SWAP3 SWAP4 SWAP5 SWAP6 PUSH1 0x0 SWAP3 PUSH2 0x578 JUMPI JUMPDEST POP POP DUP2 PUSH1 0x1 SHL SWAP2 PUSH1 0x0 NOT SWAP1 PUSH1 0x3 SHL SHR NOT AND OR PUSH1 0x9 DUP4 ADD SSTORE JUMPDEST DUP1 MLOAD SWAP1 PUSH1 0x1 PUSH1 0x40 SHL DUP3 GT PUSH2 0x4EA JUMPI PUSH1 0xA DUP4 ADD SLOAD DUP3 PUSH1 0xA DUP6 ADD SSTORE DUP1 DUP4 LT PUSH2 0x500 JUMPI JUMPDEST POP PUSH1 0x20 PUSH1 0xA SWAP2 ADD SWAP3 ADD PUSH1 0x0 MSTORE PUSH1 0x20 PUSH1 0x0 KECCAK256 SWAP2 PUSH1 0x0 SWAP1 JUMPDEST DUP3 DUP3 LT PUSH2 0x3CA JUMPI DUP5 PUSH32 0xC21D47F606573D65EEDB6EE084E32D784CFCD5CE32240B22F19DE37D6B40969 PUSH1 0x40 MLOAD PUSH1 0x20 DUP2 MSTORE DUP1 PUSH2 0x3C5 PUSH1 0x4 CALLDATALOAD SWAP5 PUSH1 0x20 DUP4 ADD SWAP1 PUSH2 0x1CCD JUMP JUMPDEST SUB SWAP1 LOG2 STOP JUMPDEST DUP1 MLOAD DUP1 MLOAD SWAP1 PUSH1 0x1 PUSH1 0x1 PUSH1 0x40 SHL SUB DUP3 GT PUSH2 0x4EA JUMPI PUSH2 0x3E7 DUP7 SLOAD PUSH2 0x1BB0 JUMP JUMPDEST PUSH1 0x1F DUP2 GT PUSH2 0x4AD JUMPI JUMPDEST POP PUSH1 0x20 SWAP1 PUSH1 0x1F DUP4 GT PUSH1 0x1 EQ PUSH2 0x43D JUMPI SWAP3 DUP3 PUSH1 0x1 SWAP5 SWAP4 PUSH1 0x20 SWAP4 DUP7 SWAP6 PUSH1 0x0 SWAP3 PUSH2 0x432 JUMPI JUMPDEST POP POP PUSH1 0x0 NOT PUSH1 0x3 DUP4 SWAP1 SHL SHR NOT AND SWAP1 DUP5 SHL OR DUP8 SSTORE JUMPDEST ADD SWAP5 ADD SWAP2 ADD SWAP1 SWAP3 PUSH2 0x383 JUMP JUMPDEST ADD MLOAD SWAP1 POP CODESIZE DUP1 PUSH2 0x412 JUMP JUMPDEST SWAP1 DUP7 PUSH1 0x0 MSTORE PUSH1 0x20 PUSH1 0x0 KECCAK256 SWAP2 PUSH1 0x0 JUMPDEST PUSH1 0x1F NOT DUP6 AND DUP2 LT PUSH2 0x495 JUMPI POP DUP4 PUSH1 0x20 SWAP4 PUSH1 0x1 SWAP7 SWAP4 DUP8 SWAP7 SWAP4 DUP8 SWAP5 PUSH1 0x1F NOT DUP2 AND LT PUSH2 0x47C JUMPI JUMPDEST POP POP POP DUP2 SHL ADD DUP8 SSTORE PUSH2 0x426 JUMP JUMPDEST ADD MLOAD PUSH1 0x0 NOT PUSH1 0xF8 DUP5 PUSH1 0x3 SHL AND SHR NOT AND SWAP1 SSTORE CODESIZE DUP1 DUP1 PUSH2 0x46F JUMP JUMPDEST SWAP2 SWAP3 PUSH1 0x20 PUSH1 0x1 DUP2 SWAP3 DUP7 DUP6 ADD MLOAD DUP2 SSTORE ADD SWAP5 ADD SWAP3 ADD PUSH2 0x44B JUMP JUMPDEST PUSH2 0x4DA SWAP1 DUP8 PUSH1 0x0 MSTORE PUSH1 0x20 PUSH1 0x0 KECCAK256 PUSH1 0x1F DUP6 ADD PUSH1 0x5 SHR DUP2 ADD SWAP2 PUSH1 0x20 DUP7 LT PUSH2 0x4E0 JUMPI JUMPDEST PUSH1 0x1F ADD PUSH1 0x5 SHR ADD SWAP1 PUSH2 0x1F69 JUMP JUMPDEST CODESIZE PUSH2 0x3F0 JUMP JUMPDEST SWAP1 SWAP2 POP DUP2 SWAP1 PUSH2 0x4CD JUMP JUMPDEST PUSH4 0x4E487B71 PUSH1 0xE0 SHL PUSH1 0x0 MSTORE PUSH1 0x41 PUSH1 0x4 MSTORE PUSH1 0x24 PUSH1 0x0 REVERT JUMPDEST PUSH1 0xA DUP5 ADD PUSH1 0x0 MSTORE PUSH1 0x20 PUSH1 0x0 KECCAK256 SWAP1 DUP4 DUP3 ADD JUMPDEST DUP2 DUP4 ADD DUP2 LT PUSH2 0x521 JUMPI POP POP PUSH2 0x36D JUMP JUMPDEST DUP1 PUSH2 0x52E PUSH1 0x1 SWAP3 SLOAD PUSH2 0x1BB0 JUMP JUMPDEST DUP1 PUSH2 0x53B JUMPI JUMPDEST POP ADD PUSH2 0x511 JUMP JUMPDEST PUSH1 0x1F DUP2 GT DUP4 EQ PUSH2 0x551 JUMPI POP PUSH1 0x0 DUP2 SSTORE JUMPDEST CODESIZE PUSH2 0x534 JUMP JUMPDEST PUSH1 0x0 SWAP1 DUP3 DUP3 MSTORE PUSH2 0x56F PUSH1 0x1F PUSH1 0x20 DUP5 KECCAK256 SWAP3 ADD PUSH1 0x5 SHR DUP3 ADD DUP6 DUP4 ADD PUSH2 0x1F69 JUMP JUMPDEST DUP2 DUP4 SSTORE SSTORE PUSH2 0x54B JUMP JUMPDEST ADD MLOAD SWAP1 POP CODESIZE DUP1 PUSH2 0x334 JUMP JUMPDEST PUSH1 0x9 DUP5 ADD PUSH1 0x0 MSTORE PUSH1 0x20 PUSH1 0x0 KECCAK256 SWAP1 PUSH1 0x0 JUMPDEST PUSH1 0x1F NOT DUP5 AND DUP2 LT PUSH2 0x5DA JUMPI POP PUSH1 0x1 SWAP4 SWAP5 SWAP6 SWAP7 DUP4 PUSH1 0x1F NOT DUP2 AND LT PUSH2 0x5C1 JUMPI JUMPDEST POP POP POP DUP2 SHL ADD PUSH1 0x9 DUP4 ADD SSTORE PUSH2 0x34C JUMP JUMPDEST ADD MLOAD PUSH1 0x0 NOT PUSH1 0xF8 DUP5 PUSH1 0x3 SHL AND SHR NOT AND SWAP1 SSTORE CODESIZE DUP1 DUP1 PUSH2 0x5B1 JUMP JUMPDEST SWAP1 SWAP2 PUSH1 0x20 PUSH1 0x1 DUP2 SWAP3 DUP6 DUP12 ADD MLOAD DUP2 SSTORE ADD SWAP4 ADD SWAP2 ADD PUSH2 0x593 JUMP JUMPDEST PUSH2 0x621 SWAP1 PUSH1 0x9 DUP6 ADD PUSH1 0x0 MSTORE PUSH1 0x20 PUSH1 0x0 KECCAK256 PUSH1 0x1F DUP5 ADD PUSH1 0x5 SHR DUP2 ADD SWAP2 PUSH1 0x20 DUP6 LT PUSH2 0x4E0 JUMPI PUSH1 0x1F ADD PUSH1 0x5 SHR ADD SWAP1 PUSH2 0x1F69 JUMP JUMPDEST CODESIZE PUSH2 0x319 JUMP JUMPDEST ADD MLOAD SWAP1 POP CODESIZE DUP1 PUSH2 0x2BB JUMP JUMPDEST SWAP3 POP PUSH1 0x2 DUP6 ADD PUSH1 0x0 MSTORE PUSH1 0x20 PUSH1 0x0 KECCAK256 SWAP1 PUSH1 0x0 SWAP4 JUMPDEST PUSH1 0x1F NOT DUP5 AND DUP6 LT PUSH2 0x689 JUMPI PUSH1 0x1 SWAP5 POP DUP4 PUSH1 0x1F NOT DUP2 AND LT PUSH2 0x670 JUMPI JUMPDEST POP POP POP DUP2 SHL ADD PUSH1 0x2 DUP4 ADD SSTORE PUSH2 0x2D3 JUMP JUMPDEST ADD MLOAD PUSH1 0x0 NOT PUSH1 0xF8 DUP5 PUSH1 0x3 SHL AND SHR NOT AND SWAP1 SSTORE CODESIZE DUP1 DUP1 PUSH2 0x660 JUMP JUMPDEST DUP2 DUP2 ADD MLOAD DUP4 SSTORE PUSH1 0x20 SWAP5 DUP6 ADD SWAP5 PUSH1 0x1 SWAP1 SWAP4 ADD SWAP3 SWAP1 SWAP2 ADD SWAP1 PUSH2 0x645 JUMP JUMPDEST PUSH2 0x6D3 SWAP1 PUSH1 0x2 DUP8 ADD PUSH1 0x0 MSTORE PUSH1 0x20 PUSH1 0x0 KECCAK256 PUSH1 0x1F DUP6 ADD PUSH1 0x5 SHR DUP2 ADD SWAP2 PUSH1 0x20 DUP7 LT PUSH2 0x4E0 JUMPI PUSH1 0x1F ADD PUSH1 0x5 SHR ADD SWAP1 PUSH2 0x1F69 JUMP JUMPDEST CODESIZE PUSH2 0x2A4 JUMP JUMPDEST SWAP1 POP DUP6 ADD MLOAD CODESIZE PUSH2 0x264 JUMP JUMPDEST SWAP2 POP PUSH1 0x1 DUP6 ADD PUSH1 0x0 MSTORE PUSH1 0x20 PUSH1 0x0 KECCAK256 PUSH1 0x0 SWAP3 JUMPDEST PUSH1 0x1F NOT DUP4 AND DUP5 LT PUSH2 0x739 JUMPI PUSH1 0x1 SWAP4 POP DUP3 PUSH1 0x1F NOT DUP2 AND LT PUSH2 0x720 JUMPI JUMPDEST POP POP DUP2 SHL ADD PUSH1 0x1 DUP5 ADD SSTORE PUSH2 0x27B JUMP JUMPDEST DUP8 ADD MLOAD PUSH1 0x0 NOT PUSH1 0xF8 DUP5 PUSH1 0x3 SHL AND SHR NOT AND SWAP1 SSTORE CODESIZE DUP1 PUSH2 0x711 JUMP JUMPDEST DUP8 DUP2 ADD MLOAD DUP3 SSTORE PUSH1 0x20 SWAP4 DUP5 ADD SWAP4 PUSH1 0x1 SWAP1 SWAP3 ADD SWAP2 ADD PUSH2 0x6F6 JUMP JUMPDEST PUSH2 0x780 SWAP1 PUSH1 0x1 DUP7 ADD PUSH1 0x0 MSTORE PUSH1 0x20 PUSH1 0x0 KECCAK256 PUSH1 0x1F DUP5 ADD PUSH1 0x5 SHR DUP2 ADD SWAP2 PUSH1 0x20 DUP6 LT PUSH2 0x4E0 JUMPI PUSH1 0x1F ADD PUSH1 0x5 SHR ADD SWAP1 PUSH2 0x1F69 JUMP JUMPDEST CODESIZE PUSH2 0x24D JUMP JUMPDEST PUSH1 0x40 MLOAD PUSH3 0x461BCD PUSH1 0xE5 SHL DUP2 MSTORE PUSH1 0x20 PUSH1 0x4 DUP3 ADD MSTORE PUSH1 0x36 PUSH1 0x24 DUP3 ADD MSTORE PUSH32 0x4E65772063617061636974792063616E6E6F74206265206C657373207468616E PUSH1 0x44 DUP3 ADD MSTORE PUSH22 0x2063757272656E7420726567697374726174696F6E73 PUSH1 0x50 SHL PUSH1 0x64 DUP3 ADD MSTORE PUSH1 0x84 SWAP1 REVERT JUMPDEST PUSH1 0x40 MLOAD PUSH3 0x461BCD PUSH1 0xE5 SHL DUP2 MSTORE PUSH1 0x20 PUSH1 0x4 DUP3 ADD MSTORE PUSH1 0x1D PUSH1 0x24 DUP3 ADD MSTORE PUSH32 0x43616E6E6F74207570646174652063616E63656C6C6564206576656E74000000 PUSH1 0x44 DUP3 ADD MSTORE PUSH1 0x64 SWAP1 REVERT JUMPDEST PUSH1 0x0 DUP1 REVERT JUMPDEST CALLVALUE PUSH2 0x82F JUMPI PUSH1 0x20 CALLDATASIZE PUSH1 0x3 NOT ADD SLT PUSH2 0x82F JUMPI PUSH2 0x84D PUSH2 0x1D5E JUMP JUMPDEST PUSH2 0x855 PUSH2 0x1E61 JUMP JUMPDEST PUSH1 0x1 PUSH1 0x1 PUSH1 0xA0 SHL SUB SWAP1 DUP2 AND SWAP1 DUP2 ISZERO PUSH2 0x8A9 JUMPI PUSH1 0x0 SLOAD DUP3 PUSH12 0xFFFFFFFFFFFFFFFFFFFFFFFF PUSH1 0xA0 SHL DUP3 AND OR PUSH1 0x0 SSTORE AND PUSH32 0x8BE0079C531659141344CD1FD0A4F28419497F9722A3DAAFE3B4186F6B6457E0 PUSH1 0x0 DUP1 LOG3 STOP JUMPDEST PUSH1 0x40 MLOAD PUSH3 0x461BCD PUSH1 0xE5 SHL DUP2 MSTORE PUSH1 0x20 PUSH1 0x4 DUP3 ADD MSTORE PUSH1 0x26 PUSH1 0x24 DUP3 ADD MSTORE PUSH32 0x4F776E61626C653A206E6577206F776E657220697320746865207A65726F2061 PUSH1 0x44 DUP3 ADD MSTORE PUSH6 0x646472657373 PUSH1 0xD0 SHL PUSH1 0x64 DUP3 ADD MSTORE PUSH1 0x84 SWAP1 REVERT JUMPDEST CALLVALUE PUSH2 0x82F JUMPI PUSH1 0x0 CALLDATASIZE PUSH1 0x3 NOT ADD SLT PUSH2 0x82F JUMPI PUSH2 0x916 PUSH2 0x1E61 JUMP JUMPDEST SELFBALANCE DUP1 ISZERO PUSH2 0x942 JUMPI PUSH1 0x0 DUP1 DUP1 DUP1 SWAP4 PUSH1 0x1 DUP1 PUSH1 0xA0 SHL SUB DUP3 SLOAD AND DUP3 CALL ISZERO PUSH2 0x936 JUMPI STOP JUMPDEST PUSH1 0x40 MLOAD RETURNDATASIZE PUSH1 0x0 DUP3 RETURNDATACOPY RETURNDATASIZE SWAP1 REVERT JUMPDEST PUSH1 0x40 MLOAD PUSH3 0x461BCD PUSH1 0xE5 SHL DUP2 MSTORE PUSH1 0x20 PUSH1 0x4 DUP3 ADD MSTORE PUSH1 0x13 PUSH1 0x24 DUP3 ADD MSTORE PUSH19 0x4E6F206665657320746F207769746864726177 PUSH1 0x68 SHL PUSH1 0x44 DUP3 ADD MSTORE PUSH1 0x64 SWAP1 REVERT JUMPDEST CALLVALUE PUSH2 0x82F JUMPI PUSH2 0x100 CALLDATASIZE PUSH1 0x3 NOT ADD SLT PUSH2 0x82F JUMPI PUSH1 0x4 CALLDATALOAD PUSH1 0x1 PUSH1 0x1 PUSH1 0x40 SHL SUB DUP2 GT PUSH2 0x82F JUMPI PUSH2 0x9AE SWAP1 CALLDATASIZE SWAP1 PUSH1 0x4 ADD PUSH2 0x1D74 JUMP JUMPDEST PUSH1 0x24 CALLDATALOAD PUSH1 0x1 PUSH1 0x1 PUSH1 0x40 SHL SUB DUP2 GT PUSH2 0x82F JUMPI PUSH2 0x9CD SWAP1 CALLDATASIZE SWAP1 PUSH1 0x4 ADD PUSH2 0x1D74 JUMP JUMPDEST SWAP1 PUSH1 0xC4 CALLDATALOAD PUSH1 0x1 PUSH1 0x1 PUSH1 0x40 SHL SUB DUP2 GT PUSH2 0x82F JUMPI PUSH2 0x9ED SWAP1 CALLDATASIZE SWAP1 PUSH1 0x4 ADD PUSH2 0x1D74 JUMP JUMPDEST SWAP1 PUSH1 0xE4 CALLDATALOAD PUSH1 0x1 PUSH1 0x1 PUSH1 0x40 SHL SUB DUP2 GT PUSH2 0x82F JUMPI PUSH2 0xA0D SWAP1 CALLDATASIZE SWAP1 PUSH1 0x4 ADD PUSH2 0x1DE1 JUMP JUMPDEST DUP2 MLOAD ISZERO PUSH2 0x10B2 JUMPI PUSH2 0xA21 TIMESTAMP PUSH1 0x44 CALLDATALOAD GT PUSH2 0x1EB9 JUMP JUMPDEST PUSH2 0xA30 PUSH1 0x44 CALLDATALOAD PUSH1 0x64 CALLDATALOAD GT PUSH2 0x1F04 JUMP JUMPDEST PUSH1 0xA4 CALLDATALOAD ISZERO PUSH2 0x106D JUMPI PUSH2 0xA43 PUSH1 0x4 SLOAD PUSH2 0x1F5A JUMP JUMPDEST SWAP3 DUP4 PUSH1 0x4 SSTORE PUSH1 0x40 MLOAD SWAP5 PUSH2 0xA55 DUP7 PUSH2 0x1BEA JUMP JUMPDEST DUP5 DUP7 MSTORE DUP4 PUSH1 0x20 DUP8 ADD MSTORE PUSH1 0x40 DUP7 ADD MSTORE PUSH1 0x44 CALLDATALOAD PUSH1 0x60 DUP7 ADD MSTORE PUSH1 0x64 CALLDATALOAD PUSH1 0x80 DUP7 ADD MSTORE PUSH1 0x84 CALLDATALOAD PUSH1 0xA0 DUP7 ADD MSTORE PUSH1 0xA4 CALLDATALOAD PUSH1 0xC0 DUP7 ADD MSTORE PUSH1 0x0 PUSH1 0xE0 DUP7 ADD MSTORE CALLER PUSH2 0x100 DUP7 ADD MSTORE PUSH1 0x1 PUSH2 0x120 DUP7 ADD MSTORE PUSH2 0x140 DUP6 ADD MSTORE PUSH2 0x160 DUP5 ADD MSTORE DUP2 PUSH1 0x0 MSTORE PUSH1 0x2 PUSH1 0x20 MSTORE PUSH1 0x40 PUSH1 0x0 KECCAK256 SWAP3 DUP1 MLOAD DUP5 SSTORE PUSH1 0x20 DUP2 ADD MLOAD DUP1 MLOAD SWAP1 PUSH1 0x1 PUSH1 0x1 PUSH1 0x40 SHL SUB DUP3 GT PUSH2 0x4EA JUMPI DUP2 SWAP1 PUSH2 0xADD PUSH1 0x1 DUP9 ADD SLOAD PUSH2 0x1BB0 JUMP JUMPDEST PUSH1 0x1F DUP2 GT PUSH2 0x1038 JUMPI JUMPDEST POP PUSH1 0x20 SWAP1 PUSH1 0x1F DUP4 GT PUSH1 0x1 EQ PUSH2 0xFC6 JUMPI PUSH1 0x0 SWAP3 PUSH2 0xFBB JUMPI JUMPDEST POP POP DUP2 PUSH1 0x1 SHL SWAP2 PUSH1 0x0 NOT SWAP1 PUSH1 0x3 SHL SHR NOT AND OR PUSH1 0x1 DUP6 ADD SSTORE JUMPDEST PUSH1 0x40 DUP2 ADD MLOAD DUP1 MLOAD SWAP1 PUSH1 0x1 PUSH1 0x1 PUSH1 0x40 SHL SUB DUP3 GT PUSH2 0x4EA JUMPI DUP2 SWAP1 PUSH2 0xB3A PUSH1 0x2 DUP9 ADD SLOAD PUSH2 0x1BB0 JUMP JUMPDEST PUSH1 0x1F DUP2 GT PUSH2 0xF86 JUMPI JUMPDEST POP PUSH1 0x20 SWAP1 PUSH1 0x1F DUP4 GT PUSH1 0x1 EQ PUSH2 0xF14 JUMPI PUSH1 0x0 SWAP3 PUSH2 0xF09 JUMPI JUMPDEST POP POP DUP2 PUSH1 0x1 SHL SWAP2 PUSH1 0x0 NOT SWAP1 PUSH1 0x3 SHL SHR NOT AND OR PUSH1 0x2 DUP6 ADD SSTORE JUMPDEST PUSH1 0x60 DUP2 ADD MLOAD PUSH1 0x3 DUP6 ADD SSTORE PUSH1 0x80 DUP2 ADD MLOAD PUSH1 0x4 DUP6 ADD SSTORE PUSH1 0xA0 DUP2 ADD MLOAD PUSH1 0x5 DUP6 ADD SSTORE PUSH1 0xC0 DUP2 ADD MLOAD PUSH1 0x6 DUP6 ADD SSTORE PUSH1 0xE0 DUP2 ADD MLOAD PUSH1 0x7 DUP6 ADD SSTORE PUSH1 0x8 DUP5 ADD PUSH1 0x1 DUP1 PUSH1 0xA0 SHL SUB PUSH2 0x100 DUP4 ADD MLOAD AND DUP2 SLOAD SWAP1 PUSH1 0xFF PUSH1 0xA0 SHL PUSH2 0x120 DUP6 ADD MLOAD ISZERO ISZERO PUSH1 0xA0 SHL AND SWAP2 PUSH11 0xFFFFFFFFFFFFFFFFFFFFFF PUSH1 0xA8 SHL AND OR OR SWAP1 SSTORE PUSH2 0x140 DUP2 ADD MLOAD DUP1 MLOAD SWAP1 PUSH1 0x1 PUSH1 0x1 PUSH1 0x40 SHL SUB DUP3 GT PUSH2 0x4EA JUMPI PUSH2 0xC03 PUSH1 0x9 DUP8 ADD SLOAD PUSH2 0x1BB0 JUMP JUMPDEST PUSH1 0x1F DUP2 GT PUSH2 0xED4 JUMPI JUMPDEST POP PUSH1 0x20 SWAP1 PUSH1 0x1F DUP4 GT PUSH1 0x1 EQ PUSH2 0xE60 JUMPI PUSH2 0x160 SWAP4 SWAP3 SWAP2 PUSH1 0x0 SWAP2 DUP4 PUSH2 0xE55 JUMPI JUMPDEST POP POP DUP2 PUSH1 0x1 SHL SWAP2 PUSH1 0x0 NOT SWAP1 PUSH1 0x3 SHL SHR NOT AND OR PUSH1 0x9 DUP7 ADD SSTORE JUMPDEST ADD MLOAD DUP1 MLOAD SWAP1 PUSH1 0x1 PUSH1 0x40 SHL DUP3 GT PUSH2 0x4EA JUMPI PUSH1 0xA DUP6 ADD SLOAD DUP3 PUSH1 0xA DUP8 ADD SSTORE DUP1 DUP4 LT PUSH2 0xDDD JUMPI JUMPDEST POP PUSH1 0x20 PUSH1 0xA SWAP2 ADD SWAP5 ADD PUSH1 0x0 MSTORE PUSH1 0x20 PUSH1 0x0 KECCAK256 SWAP4 PUSH1 0x0 SWAP1 JUMPDEST DUP3 DUP3 LT PUSH2 0xCC8 JUMPI PUSH1 0x20 DUP6 DUP6 DUP2 PUSH32 0xFC695DEA2478FB938A11068AEEDDDD7046A5FE655F136E30A325D353FE187A45 PUSH1 0x40 MLOAD DUP6 DUP2 MSTORE DUP1 PUSH2 0xCBD CALLER SWAP6 DUP9 DUP4 ADD SWAP1 PUSH2 0x1CCD JUMP JUMPDEST SUB SWAP1 LOG3 PUSH1 0x40 MLOAD SWAP1 DUP2 MSTORE RETURN JUMPDEST DUP1 MLOAD DUP1 MLOAD SWAP1 PUSH1 0x1 PUSH1 0x1 PUSH1 0x40 SHL SUB DUP3 GT PUSH2 0x4EA JUMPI PUSH2 0xCE5 DUP9 SLOAD PUSH2 0x1BB0 JUMP JUMPDEST PUSH1 0x1F DUP2 GT PUSH2 0xDAB JUMPI JUMPDEST POP PUSH1 0x20 SWAP1 PUSH1 0x1F DUP4 GT PUSH1 0x1 EQ PUSH2 0xD3B JUMPI SWAP3 DUP3 PUSH1 0x1 SWAP5 SWAP4 PUSH1 0x20 SWAP4 DUP7 SWAP6 PUSH1 0x0 SWAP3 PUSH2 0xD30 JUMPI JUMPDEST POP POP PUSH1 0x0 NOT PUSH1 0x3 DUP4 SWAP1 SHL SHR NOT AND SWAP1 DUP5 SHL OR DUP10 SSTORE JUMPDEST ADD SWAP7 ADD SWAP2 ADD SWAP1 SWAP5 PUSH2 0xC7B JUMP JUMPDEST ADD MLOAD SWAP1 POP DUP12 DUP1 PUSH2 0xD10 JUMP JUMPDEST SWAP1 DUP9 PUSH1 0x0 MSTORE PUSH1 0x20 PUSH1 0x0 KECCAK256 SWAP2 PUSH1 0x0 JUMPDEST PUSH1 0x1F NOT DUP6 AND DUP2 LT PUSH2 0xD93 JUMPI POP DUP4 PUSH1 0x20 SWAP4 PUSH1 0x1 SWAP7 SWAP4 DUP8 SWAP7 SWAP4 DUP8 SWAP5 PUSH1 0x1F NOT DUP2 AND LT PUSH2 0xD7A JUMPI JUMPDEST POP POP POP DUP2 SHL ADD DUP10 SSTORE PUSH2 0xD24 JUMP JUMPDEST ADD MLOAD PUSH1 0x0 NOT PUSH1 0xF8 DUP5 PUSH1 0x3 SHL AND SHR NOT AND SWAP1 SSTORE DUP12 DUP1 DUP1 PUSH2 0xD6D JUMP JUMPDEST SWAP2 SWAP3 PUSH1 0x20 PUSH1 0x1 DUP2 SWAP3 DUP7 DUP6 ADD MLOAD DUP2 SSTORE ADD SWAP5 ADD SWAP3 ADD PUSH2 0xD49 JUMP JUMPDEST PUSH2 0xDD7 SWAP1 DUP10 PUSH1 0x0 MSTORE PUSH1 0x20 PUSH1 0x0 KECCAK256 PUSH1 0x1F DUP6 ADD PUSH1 0x5 SHR DUP2 ADD SWAP2 PUSH1 0x20 DUP7 LT PUSH2 0x4E0 JUMPI PUSH1 0x1F ADD PUSH1 0x5 SHR ADD SWAP1 PUSH2 0x1F69 JUMP JUMPDEST DUP9 PUSH2 0xCEE JUMP JUMPDEST PUSH1 0xA DUP7 ADD PUSH1 0x0 MSTORE PUSH1 0x20 PUSH1 0x0 KECCAK256 SWAP1 DUP4 DUP3 ADD JUMPDEST DUP2 DUP4 ADD DUP2 LT PUSH2 0xDFE JUMPI POP POP PUSH2 0xC65 JUMP JUMPDEST DUP1 PUSH2 0xE0B PUSH1 0x1 SWAP3 SLOAD PUSH2 0x1BB0 JUMP JUMPDEST DUP1 PUSH2 0xE18 JUMPI JUMPDEST POP ADD PUSH2 0xDEE JUMP JUMPDEST PUSH1 0x1F DUP2 GT DUP4 EQ PUSH2 0xE2E JUMPI POP PUSH1 0x0 DUP2 SSTORE JUMPDEST DUP10 PUSH2 0xE11 JUMP JUMPDEST PUSH1 0x0 SWAP1 DUP3 DUP3 MSTORE PUSH2 0xE4C PUSH1 0x1F PUSH1 0x20 DUP5 KECCAK256 SWAP3 ADD PUSH1 0x5 SHR DUP3 ADD DUP6 DUP4 ADD PUSH2 0x1F69 JUMP JUMPDEST DUP2 DUP4 SSTORE SSTORE PUSH2 0xE28 JUMP JUMPDEST ADD MLOAD SWAP1 POP DUP8 DUP1 PUSH2 0xC2A JUMP JUMPDEST SWAP1 PUSH1 0x9 DUP8 ADD PUSH1 0x0 MSTORE PUSH1 0x20 PUSH1 0x0 KECCAK256 SWAP2 PUSH1 0x0 JUMPDEST PUSH1 0x1F NOT DUP6 AND DUP2 LT PUSH2 0xEBC JUMPI POP SWAP2 DUP4 SWAP2 PUSH1 0x1 SWAP4 PUSH2 0x160 SWAP7 SWAP6 PUSH1 0x1F NOT DUP2 AND LT PUSH2 0xEA3 JUMPI JUMPDEST POP POP POP DUP2 SHL ADD PUSH1 0x9 DUP7 ADD SSTORE PUSH2 0xC42 JUMP JUMPDEST ADD MLOAD PUSH1 0x0 NOT PUSH1 0xF8 DUP5 PUSH1 0x3 SHL AND SHR NOT AND SWAP1 SSTORE DUP8 DUP1 DUP1 PUSH2 0xE93 JUMP JUMPDEST SWAP2 SWAP3 PUSH1 0x20 PUSH1 0x1 DUP2 SWAP3 DUP7 DUP6 ADD MLOAD DUP2 SSTORE ADD SWAP5 ADD SWAP3 ADD PUSH2 0xE71 JUMP JUMPDEST PUSH2 0xF03 SWAP1 PUSH1 0x9 DUP9 ADD PUSH1 0x0 MSTORE PUSH1 0x20 PUSH1 0x0 KECCAK256 PUSH1 0x1F DUP6 ADD PUSH1 0x5 SHR DUP2 ADD SWAP2 PUSH1 0x20 DUP7 LT PUSH2 0x4E0 JUMPI PUSH1 0x1F ADD PUSH1 0x5 SHR ADD SWAP1 PUSH2 0x1F69 JUMP JUMPDEST DUP7 PUSH2 0xC0C JUMP JUMPDEST ADD MLOAD SWAP1 POP DUP7 DUP1 PUSH2 0xB5A JUMP JUMPDEST SWAP3 POP PUSH1 0x2 DUP8 ADD PUSH1 0x0 MSTORE PUSH1 0x20 PUSH1 0x0 KECCAK256 SWAP1 PUSH1 0x0 SWAP4 JUMPDEST PUSH1 0x1F NOT DUP5 AND DUP6 LT PUSH2 0xF6B JUMPI PUSH1 0x1 SWAP5 POP DUP4 PUSH1 0x1F NOT DUP2 AND LT PUSH2 0xF52 JUMPI JUMPDEST POP POP POP DUP2 SHL ADD PUSH1 0x2 DUP6 ADD SSTORE PUSH2 0xB72 JUMP JUMPDEST ADD MLOAD PUSH1 0x0 NOT PUSH1 0xF8 DUP5 PUSH1 0x3 SHL AND SHR NOT AND SWAP1 SSTORE DUP7 DUP1 DUP1 PUSH2 0xF42 JUMP JUMPDEST DUP2 DUP2 ADD MLOAD DUP4 SSTORE PUSH1 0x20 SWAP5 DUP6 ADD SWAP5 PUSH1 0x1 SWAP1 SWAP4 ADD SWAP3 SWAP1 SWAP2 ADD SWAP1 PUSH2 0xF27 JUMP JUMPDEST PUSH2 0xFB5 SWAP1 PUSH1 0x2 DUP10 ADD PUSH1 0x0 MSTORE PUSH1 0x20 PUSH1 0x0 KECCAK256 PUSH1 0x1F DUP6 ADD PUSH1 0x5 SHR DUP2 ADD SWAP2 PUSH1 0x20 DUP7 LT PUSH2 0x4E0 JUMPI PUSH1 0x1F ADD PUSH1 0x5 SHR ADD SWAP1 PUSH2 0x1F69 JUMP JUMPDEST DUP8 PUSH2 0xB43 JUMP JUMPDEST ADD MLOAD SWAP1 POP DUP7 DUP1 PUSH2 0xAFD JUMP JUMPDEST SWAP3 POP PUSH1 0x1 DUP8 ADD PUSH1 0x0 MSTORE PUSH1 0x20 PUSH1 0x0 KECCAK256 SWAP1 PUSH1 0x0 SWAP4 JUMPDEST PUSH1 0x1F NOT DUP5 AND DUP6 LT PUSH2 0x101D JUMPI PUSH1 0x1 SWAP5 POP DUP4 PUSH1 0x1F NOT DUP2 AND LT PUSH2 0x1004 JUMPI JUMPDEST POP POP POP DUP2 SHL ADD PUSH1 0x1 DUP6 ADD SSTORE PUSH2 0xB15 JUMP JUMPDEST ADD MLOAD PUSH1 0x0 NOT PUSH1 0xF8 DUP5 PUSH1 0x3 SHL AND SHR NOT AND SWAP1 SSTORE DUP7 DUP1 DUP1 PUSH2 0xFF4 JUMP JUMPDEST DUP2 DUP2 ADD MLOAD DUP4 SSTORE PUSH1 0x20 SWAP5 DUP6 ADD SWAP5 PUSH1 0x1 SWAP1 SWAP4 ADD SWAP3 SWAP1 SWAP2 ADD SWAP1 PUSH2 0xFD9 JUMP JUMPDEST PUSH2 0x1067 SWAP1 PUSH1 0x1 DUP10 ADD PUSH1 0x0 MSTORE PUSH1 0x20 PUSH1 0x0 KECCAK256 PUSH1 0x1F DUP6 ADD PUSH1 0x5 SHR DUP2 ADD SWAP2 PUSH1 0x20 DUP7 LT PUSH2 0x4E0 JUMPI PUSH1 0x1F ADD PUSH1 0x5 SHR ADD SWAP1 PUSH2 0x1F69 JUMP JUMPDEST DUP8 PUSH2 0xAE6 JUMP JUMPDEST PUSH1 0x40 MLOAD PUSH3 0x461BCD PUSH1 0xE5 SHL DUP2 MSTORE PUSH1 0x20 PUSH1 0x4 DUP3 ADD MSTORE PUSH1 0x1F PUSH1 0x24 DUP3 ADD MSTORE PUSH32 0x4361706163697479206D7573742062652067726561746572207468616E203000 PUSH1 0x44 DUP3 ADD MSTORE PUSH1 0x64 SWAP1 REVERT JUMPDEST PUSH1 0x40 MLOAD PUSH3 0x461BCD PUSH1 0xE5 SHL DUP2 MSTORE PUSH1 0x20 PUSH1 0x4 DUP3 ADD MSTORE PUSH1 0x15 PUSH1 0x24 DUP3 ADD MSTORE PUSH21 0x5469746C652063616E6E6F7420626520656D707479 PUSH1 0x58 SHL PUSH1 0x44 DUP3 ADD MSTORE PUSH1 0x64 SWAP1 REVERT JUMPDEST CALLVALUE PUSH2 0x82F JUMPI PUSH1 0x20 CALLDATASIZE PUSH1 0x3 NOT ADD SLT PUSH2 0x82F JUMPI PUSH1 0x4 CALLDATALOAD PUSH2 0x110B PUSH2 0x1E61 JUMP JUMPDEST PUSH1 0x14 DUP2 GT PUSH2 0x1118 JUMPI PUSH1 0x5 SSTORE STOP JUMPDEST PUSH1 0x40 MLOAD PUSH3 0x461BCD PUSH1 0xE5 SHL DUP2 MSTORE PUSH1 0x20 PUSH1 0x4 DUP3 ADD MSTORE PUSH1 0x1E PUSH1 0x24 DUP3 ADD MSTORE PUSH32 0x506C6174666F726D206665652063616E6E6F7420657863656564203230250000 PUSH1 0x44 DUP3 ADD MSTORE PUSH1 0x64 SWAP1 REVERT JUMPDEST CALLVALUE PUSH2 0x82F JUMPI PUSH1 0x20 DUP1 PUSH1 0x3 NOT CALLDATASIZE ADD SLT PUSH2 0x82F JUMPI PUSH2 0x1177 PUSH2 0x1D5E JUMP JUMPDEST PUSH1 0x4 SLOAD PUSH2 0x1183 DUP2 PUSH2 0x2024 JUMP JUMPDEST SWAP3 PUSH1 0x0 SWAP3 PUSH1 0x1 PUSH1 0x1 PUSH1 0xA0 SHL SUB SWAP1 DUP2 AND SWAP2 PUSH1 0x1 JUMPDEST DUP5 DUP2 GT ISZERO PUSH2 0x11EA JUMPI DUP7 DUP7 PUSH2 0x11A9 DUP2 PUSH2 0x2024 JUMP JUMPDEST SWAP2 PUSH1 0x0 JUMPDEST DUP3 DUP2 LT PUSH2 0x11C6 JUMPI PUSH1 0x40 MLOAD DUP1 PUSH2 0x11C2 DUP7 DUP3 PUSH2 0x1D0D JUMP JUMPDEST SUB SWAP1 RETURN JUMPDEST DUP1 PUSH2 0x11D4 PUSH2 0x11E5 SWAP3 DUP5 PUSH2 0x2056 JUMP JUMPDEST MLOAD PUSH2 0x11DF DUP3 DUP8 PUSH2 0x2056 JUMP JUMPDEST MSTORE PUSH2 0x1F5A JUMP JUMPDEST PUSH2 0x11AD JUMP JUMPDEST DUP1 PUSH1 0x0 MSTORE PUSH1 0x2 DUP3 MSTORE DUP4 DUP4 PUSH1 0x8 PUSH1 0x40 PUSH1 0x0 KECCAK256 ADD SLOAD AND EQ PUSH2 0x1212 JUMPI JUMPDEST PUSH2 0x120D SWAP1 PUSH2 0x1F5A JUMP JUMPDEST PUSH2 0x1196 JUMP JUMPDEST SWAP5 PUSH2 0x1225 DUP2 DUP8 PUSH2 0x11DF PUSH2 0x120D SWAP5 DUP12 PUSH2 0x2056 JUMP JUMPDEST SWAP6 SWAP1 POP PUSH2 0x1204 JUMP JUMPDEST CALLVALUE PUSH2 0x82F JUMPI PUSH1 0x0 CALLDATASIZE PUSH1 0x3 NOT ADD SLT PUSH2 0x82F JUMPI PUSH1 0x0 SLOAD PUSH1 0x40 MLOAD PUSH1 0x1 PUSH1 0x1 PUSH1 0xA0 SHL SUB SWAP1 SWAP2 AND DUP2 MSTORE PUSH1 0x20 SWAP1 RETURN JUMPDEST CALLVALUE PUSH2 0x82F JUMPI PUSH1 0x0 CALLDATASIZE PUSH1 0x3 NOT ADD SLT PUSH2 0x82F JUMPI PUSH1 0x20 PUSH1 0x4 SLOAD PUSH1 0x40 MLOAD SWAP1 DUP2 MSTORE RETURN JUMPDEST CALLVALUE PUSH2 0x82F JUMPI PUSH1 0x0 CALLDATASIZE PUSH1 0x3 NOT ADD SLT PUSH2 0x82F JUMPI PUSH2 0x128D PUSH2 0x1E61 JUMP JUMPDEST PUSH1 0x0 DUP1 SLOAD PUSH1 0x1 PUSH1 0x1 PUSH1 0xA0 SHL SUB NOT DUP2 AND DUP3 SSTORE PUSH1 0x1 PUSH1 0x1 PUSH1 0xA0 SHL SUB AND PUSH32 0x8BE0079C531659141344CD1FD0A4F28419497F9722A3DAAFE3B4186F6B6457E0 DUP3 DUP1 LOG3 STOP JUMPDEST CALLVALUE PUSH2 0x82F JUMPI PUSH1 0x0 CALLDATASIZE PUSH1 0x3 NOT ADD SLT PUSH2 0x82F JUMPI PUSH1 0x20 SELFBALANCE PUSH1 0x40 MLOAD SWAP1 DUP2 MSTORE RETURN JUMPDEST CALLVALUE PUSH2 0x82F JUMPI PUSH1 0x20 CALLDATASIZE PUSH1 0x3 NOT ADD SLT PUSH2 0x82F JUMPI PUSH1 0x4 CALLDATALOAD DUP1 PUSH1 0x0 MSTORE PUSH1 0x2 PUSH1 0x20 MSTORE PUSH2 0x1316 PUSH1 0x40 PUSH1 0x0 KECCAK256 SLOAD ISZERO ISZERO PUSH2 0x1F80 JUMP JUMPDEST PUSH1 0x0 MSTORE PUSH1 0x2 PUSH1 0x20 MSTORE PUSH1 0x40 PUSH1 0x0 KECCAK256 PUSH1 0x40 MLOAD SWAP1 PUSH2 0x1330 DUP3 PUSH2 0x1BEA JUMP JUMPDEST DUP1 SLOAD DUP3 MSTORE PUSH2 0x1340 PUSH1 0x1 DUP3 ADD PUSH2 0x1C27 JUMP JUMPDEST PUSH1 0x20 DUP4 ADD MSTORE PUSH2 0x1351 PUSH1 0x2 DUP3 ADD PUSH2 0x1C27 JUMP JUMPDEST PUSH1 0x40 DUP4 ADD MSTORE PUSH1 0x3 DUP2 ADD SLOAD PUSH1 0x60 DUP4 ADD MSTORE PUSH1 0x4 DUP2 ADD SLOAD PUSH1 0x80 DUP4 ADD MSTORE PUSH1 0x5 DUP2 ADD SLOAD PUSH1 0xA0 DUP4 ADD MSTORE PUSH1 0x6 DUP2 ADD SLOAD PUSH1 0xC0 DUP4 ADD MSTORE PUSH1 0x7 DUP2 ADD SLOAD PUSH1 0xE0 DUP4 ADD MSTORE PUSH1 0xFF PUSH1 0x8 DUP3 ADD SLOAD PUSH1 0x1 DUP1 PUSH1 0xA0 SHL SUB DUP2 AND PUSH2 0x100 DUP6 ADD MSTORE PUSH1 0xA0 SHR AND ISZERO ISZERO PUSH2 0x120 DUP4 ADD MSTORE PUSH2 0x13B6 PUSH1 0x9 DUP3 ADD PUSH2 0x1C27 JUMP JUMPDEST PUSH2 0x140 DUP4 ADD MSTORE PUSH1 0xA DUP2 ADD SLOAD PUSH2 0x13CA DUP2 PUSH2 0x1DCA JUMP JUMPDEST SWAP1 PUSH2 0x13D8 PUSH1 0x40 MLOAD SWAP3 DUP4 PUSH2 0x1C06 JUMP JUMPDEST DUP1 DUP3 MSTORE PUSH1 0x20 DUP3 ADD PUSH1 0xA DUP2 SWAP5 ADD PUSH1 0x0 MSTORE PUSH1 0x20 PUSH1 0x0 KECCAK256 PUSH1 0x0 SWAP2 JUMPDEST DUP4 DUP4 LT PUSH2 0x1511 JUMPI DUP7 DUP6 DUP8 DUP2 PUSH2 0x160 DUP5 ADD MSTORE DUP3 MLOAD SWAP2 PUSH1 0x20 DUP5 ADD MLOAD SWAP4 PUSH1 0x40 DUP2 ADD MLOAD SWAP1 PUSH1 0x60 DUP2 ADD MLOAD SWAP1 PUSH1 0x80 DUP2 ADD MLOAD PUSH1 0xA0 DUP3 ADD MLOAD PUSH1 0xC0 DUP4 ADD MLOAD PUSH1 0xE0 DUP5 ADD MLOAD SWAP2 PUSH1 0x1 PUSH1 0xA0 SHL PUSH1 0x1 SWAP1 SUB PUSH2 0x100 DUP7 ADD MLOAD AND SWAP4 PUSH2 0x120 DUP7 ADD MLOAD ISZERO ISZERO SWAP6 PUSH2 0x140 ADD MLOAD SWAP8 PUSH1 0x40 MLOAD SWAP13 DUP14 SWAP13 DUP14 MSTORE DUP13 PUSH2 0x180 PUSH1 0x20 DUP2 SWAP3 ADD MSTORE DUP14 ADD PUSH2 0x1468 SWAP2 PUSH2 0x1CCD JUMP JUMPDEST DUP13 DUP2 SUB PUSH1 0x40 DUP15 ADD MSTORE PUSH2 0x1479 SWAP2 PUSH2 0x1CCD JUMP JUMPDEST SWAP7 PUSH1 0x60 DUP13 ADD MSTORE PUSH1 0x80 DUP12 ADD MSTORE PUSH1 0xA0 DUP11 ADD MSTORE PUSH1 0xC0 DUP10 ADD MSTORE PUSH1 0xE0 DUP9 ADD MSTORE PUSH2 0x100 DUP8 ADD MSTORE PUSH2 0x120 DUP7 ADD MSTORE DUP5 DUP2 SUB PUSH2 0x140 DUP7 ADD MSTORE PUSH2 0x14B1 SWAP2 PUSH2 0x1CCD JUMP JUMPDEST SWAP1 DUP4 DUP3 SUB PUSH2 0x160 DUP6 ADD MSTORE MLOAD DUP1 DUP3 MSTORE PUSH1 0x20 DUP3 ADD SWAP2 DUP2 PUSH1 0x5 SHL DUP2 ADD PUSH1 0x20 ADD SWAP4 SWAP3 PUSH1 0x0 SWAP2 JUMPDEST DUP4 DUP4 LT PUSH2 0x14E0 JUMPI DUP7 DUP7 SUB DUP8 RETURN JUMPDEST SWAP2 SWAP4 SWAP6 POP SWAP2 SWAP4 PUSH1 0x20 DUP1 PUSH2 0x14FF PUSH1 0x1 SWAP4 PUSH1 0x1F NOT DUP7 DUP3 SUB ADD DUP8 MSTORE DUP10 MLOAD PUSH2 0x1CCD JUMP JUMPDEST SWAP8 ADD SWAP4 ADD SWAP4 ADD SWAP1 SWAP3 DUP7 SWAP6 SWAP5 SWAP3 SWAP4 PUSH2 0x14D3 JUMP JUMPDEST PUSH1 0x1 PUSH1 0x20 DUP2 SWAP3 PUSH2 0x1520 DUP6 PUSH2 0x1C27 JUMP JUMPDEST DUP2 MSTORE ADD SWAP3 ADD SWAP3 ADD SWAP2 SWAP1 PUSH2 0x13F0 JUMP JUMPDEST CALLVALUE PUSH2 0x82F JUMPI PUSH1 0x40 CALLDATASIZE PUSH1 0x3 NOT ADD SLT PUSH2 0x82F JUMPI PUSH2 0x1547 PUSH2 0x1D48 JUMP JUMPDEST PUSH1 0x4 CALLDATALOAD PUSH1 0x0 MSTORE PUSH1 0x3 PUSH1 0x20 MSTORE PUSH1 0x40 PUSH1 0x0 KECCAK256 SWAP1 PUSH1 0x1 DUP1 PUSH1 0xA0 SHL SUB AND PUSH1 0x0 MSTORE PUSH1 0x20 MSTORE PUSH1 0x20 PUSH1 0xFF PUSH1 0x40 PUSH1 0x0 KECCAK256 SLOAD AND PUSH1 0x40 MLOAD SWAP1 ISZERO ISZERO DUP2 MSTORE RETURN JUMPDEST CALLVALUE PUSH2 0x82F JUMPI PUSH1 0x20 DUP1 PUSH1 0x3 NOT CALLDATASIZE ADD SLT PUSH2 0x82F JUMPI PUSH1 0x4 CALLDATALOAD SWAP1 DUP2 PUSH1 0x0 MSTORE PUSH1 0x2 DUP2 MSTORE PUSH2 0x15A9 PUSH1 0x40 PUSH1 0x0 KECCAK256 SLOAD ISZERO ISZERO PUSH2 0x1F80 JUMP JUMPDEST DUP2 PUSH1 0x0 MSTORE PUSH1 0x3 DUP2 MSTORE PUSH1 0x40 PUSH1 0x0 KECCAK256 CALLER PUSH1 0x0 MSTORE DUP2 MSTORE PUSH1 0xFF PUSH1 0x40 PUSH1 0x0 KECCAK256 SLOAD AND ISZERO PUSH2 0x163F JUMPI PUSH1 0x0 DUP3 DUP2 MSTORE PUSH1 0x2 DUP3 MSTORE PUSH1 0x40 DUP1 DUP3 KECCAK256 PUSH1 0x3 DUP5 MSTORE DUP2 DUP4 KECCAK256 CALLER DUP5 MSTORE SWAP1 SWAP4 MSTORE SWAP1 KECCAK256 DUP1 SLOAD PUSH1 0xFF NOT AND SWAP1 SSTORE PUSH1 0x7 ADD DUP1 SLOAD DUP1 ISZERO PUSH2 0x1629 JUMPI PUSH1 0x0 NOT ADD SWAP1 SSTORE CALLER SWAP1 PUSH32 0xD7E5581F5ACCF2708572BA158AA9DF7B822D6855BE3657319E94B445A58F7703 PUSH1 0x0 DUP1 LOG3 STOP JUMPDEST PUSH4 0x4E487B71 PUSH1 0xE0 SHL PUSH1 0x0 MSTORE PUSH1 0x11 PUSH1 0x4 MSTORE PUSH1 0x24 PUSH1 0x0 REVERT JUMPDEST PUSH1 0x64 SWAP1 PUSH1 0x40 MLOAD SWAP1 PUSH3 0x461BCD PUSH1 0xE5 SHL DUP3 MSTORE PUSH1 0x4 DUP3 ADD MSTORE PUSH1 0x1D PUSH1 0x24 DUP3 ADD MSTORE PUSH32 0x4E6F74207265676973746572656420666F722074686973206576656E74000000 PUSH1 0x44 DUP3 ADD MSTORE REVERT JUMPDEST PUSH1 0x20 DUP1 PUSH1 0x3 NOT CALLDATASIZE ADD SLT PUSH2 0x82F JUMPI PUSH1 0x4 CALLDATALOAD SWAP1 DUP2 PUSH1 0x0 MSTORE PUSH1 0x2 DUP2 MSTORE PUSH2 0x16AC PUSH1 0x40 PUSH1 0x0 KECCAK256 SLOAD ISZERO ISZERO PUSH2 0x1F80 JUMP JUMPDEST DUP2 PUSH1 0x0 MSTORE PUSH1 0x2 DUP2 MSTORE PUSH1 0xFF PUSH1 0x8 PUSH1 0x40 PUSH1 0x0 KECCAK256 ADD SLOAD PUSH1 0xA0 SHR AND ISZERO PUSH2 0x18DC JUMPI PUSH1 0x2 PUSH1 0x1 SLOAD EQ PUSH2 0x1898 JUMPI PUSH1 0x2 PUSH1 0x1 SSTORE DUP2 PUSH1 0x0 MSTORE PUSH1 0x2 DUP2 MSTORE PUSH1 0x40 PUSH1 0x0 KECCAK256 SWAP1 PUSH1 0x3 DUP2 MSTORE PUSH1 0x40 PUSH1 0x0 KECCAK256 CALLER PUSH1 0x0 MSTORE DUP2 MSTORE PUSH1 0xFF PUSH1 0x40 PUSH1 0x0 KECCAK256 SLOAD AND PUSH2 0x184A JUMPI PUSH1 0x7 DUP3 ADD SWAP1 DUP2 SLOAD PUSH1 0x6 DUP5 ADD SLOAD GT ISZERO PUSH2 0x1806 JUMPI PUSH1 0x5 DUP4 ADD SLOAD CALLVALUE LT PUSH2 0x17CB JUMPI DUP4 PUSH1 0x0 MSTORE PUSH1 0x3 DUP2 MSTORE PUSH1 0x40 PUSH1 0x0 KECCAK256 SWAP1 CALLER PUSH1 0x0 MSTORE MSTORE PUSH1 0x40 PUSH1 0x0 KECCAK256 PUSH1 0x1 PUSH1 0xFF NOT DUP3 SLOAD AND OR SWAP1 SSTORE PUSH2 0x174B DUP2 SLOAD PUSH2 0x1F5A JUMP JUMPDEST SWAP1 SSTORE PUSH1 0x5 SLOAD DUP1 CALLVALUE MUL SWAP1 CALLVALUE DUP3 DIV EQ CALLVALUE ISZERO OR ISZERO PUSH2 0x1629 JUMPI PUSH1 0x64 SWAP1 DIV DUP1 CALLVALUE SUB SWAP1 CALLVALUE DUP3 GT PUSH2 0x1629 JUMPI PUSH1 0x0 DUP1 DUP1 SWAP4 DUP2 SWAP4 DUP8 SWAP7 PUSH1 0x8 PUSH1 0x1 DUP1 PUSH1 0xA0 SHL SUB SWAP2 ADD SLOAD AND SWAP1 DUP4 SWAP1 CALLVALUE EQ PUSH2 0x17C2 JUMPI JUMPDEST CALL ISZERO PUSH2 0x936 JUMPI CALLER SWAP1 PUSH32 0xB442EFE467D2EF30E62927A3CAE0AFCBC799A8A0944D8A143332E4E5E51CEE5D PUSH1 0x0 DUP1 LOG3 PUSH1 0x1 DUP1 SSTORE STOP JUMPDEST POP PUSH2 0x8FC PUSH2 0x178F JUMP JUMPDEST PUSH1 0x64 SWAP1 PUSH1 0x40 MLOAD SWAP1 PUSH3 0x461BCD PUSH1 0xE5 SHL DUP3 MSTORE PUSH1 0x4 DUP3 ADD MSTORE PUSH1 0x14 PUSH1 0x24 DUP3 ADD MSTORE PUSH20 0x125B9CDD59999A58DA595B9D081C185E5B595B9D PUSH1 0x62 SHL PUSH1 0x44 DUP3 ADD MSTORE REVERT JUMPDEST PUSH1 0x64 SWAP1 PUSH1 0x40 MLOAD SWAP1 PUSH3 0x461BCD PUSH1 0xE5 SHL DUP3 MSTORE PUSH1 0x4 DUP3 ADD MSTORE PUSH1 0x19 PUSH1 0x24 DUP3 ADD MSTORE PUSH32 0x4576656E742069732061742066756C6C20636170616369747900000000000000 PUSH1 0x44 DUP3 ADD MSTORE REVERT JUMPDEST PUSH1 0x84 SWAP1 PUSH1 0x40 MLOAD SWAP1 PUSH3 0x461BCD PUSH1 0xE5 SHL DUP3 MSTORE PUSH1 0x4 DUP3 ADD MSTORE PUSH1 0x21 PUSH1 0x24 DUP3 ADD MSTORE PUSH32 0x416C7265616479207265676973746572656420666F722074686973206576656E PUSH1 0x44 DUP3 ADD MSTORE PUSH1 0x1D PUSH1 0xFA SHL PUSH1 0x64 DUP3 ADD MSTORE REVERT JUMPDEST PUSH1 0x64 SWAP1 PUSH1 0x40 MLOAD SWAP1 PUSH3 0x461BCD PUSH1 0xE5 SHL DUP3 MSTORE PUSH1 0x4 DUP3 ADD MSTORE PUSH1 0x1F PUSH1 0x24 DUP3 ADD MSTORE PUSH32 0x5265656E7472616E637947756172643A207265656E7472616E742063616C6C00 PUSH1 0x44 DUP3 ADD MSTORE REVERT JUMPDEST PUSH1 0x64 SWAP1 PUSH1 0x40 MLOAD SWAP1 PUSH3 0x461BCD PUSH1 0xE5 SHL DUP3 MSTORE PUSH1 0x4 DUP3 ADD MSTORE PUSH1 0x13 PUSH1 0x24 DUP3 ADD MSTORE PUSH19 0x4576656E74206973206E6F7420616374697665 PUSH1 0x68 SHL PUSH1 0x44 DUP3 ADD MSTORE REVERT JUMPDEST CALLVALUE PUSH2 0x82F JUMPI PUSH1 0x20 DUP1 PUSH1 0x3 NOT CALLDATASIZE ADD SLT PUSH2 0x82F JUMPI PUSH1 0x4 CALLDATALOAD SWAP1 DUP2 PUSH1 0x0 MSTORE PUSH1 0x2 DUP2 MSTORE PUSH2 0x1944 PUSH1 0x40 PUSH1 0x0 KECCAK256 SLOAD ISZERO ISZERO PUSH2 0x1F80 JUMP JUMPDEST DUP2 PUSH1 0x0 MSTORE PUSH1 0x2 DUP2 MSTORE PUSH2 0x1967 PUSH1 0x1 DUP1 PUSH1 0xA0 SHL SUB PUSH1 0x8 PUSH1 0x40 PUSH1 0x0 KECCAK256 ADD SLOAD AND CALLER EQ PUSH2 0x1FC3 JUMP JUMPDEST DUP2 PUSH1 0x0 MSTORE PUSH1 0x2 DUP2 MSTORE PUSH1 0xFF PUSH1 0x8 PUSH1 0x40 PUSH1 0x0 KECCAK256 ADD SLOAD PUSH1 0xA0 SHR AND ISZERO PUSH2 0x19C5 JUMPI PUSH1 0x0 DUP3 DUP2 MSTORE PUSH1 0x2 SWAP1 SWAP2 MSTORE PUSH1 0x40 DUP2 KECCAK256 PUSH1 0x8 ADD DUP1 SLOAD PUSH1 0xFF PUSH1 0xA0 SHL NOT AND SWAP1 SSTORE PUSH32 0xDC3CB569B066460F4A22DFFA05317BDCCE5D3826382ED49A21F13E5FA2063D39 SWAP1 DUP1 LOG2 STOP JUMPDEST PUSH1 0x64 SWAP1 PUSH1 0x40 MLOAD SWAP1 PUSH3 0x461BCD PUSH1 0xE5 SHL DUP3 MSTORE PUSH1 0x4 DUP3 ADD MSTORE PUSH1 0x1A PUSH1 0x24 DUP3 ADD MSTORE PUSH32 0x4576656E7420697320616C72656164792063616E63656C6C6564000000000000 PUSH1 0x44 DUP3 ADD MSTORE REVERT JUMPDEST CALLVALUE PUSH2 0x82F JUMPI PUSH1 0x0 CALLDATASIZE PUSH1 0x3 NOT ADD SLT PUSH2 0x82F JUMPI PUSH1 0x4 SLOAD PUSH2 0x1A26 DUP2 PUSH2 0x2024 JUMP JUMPDEST SWAP1 PUSH1 0x0 SWAP1 PUSH1 0x1 JUMPDEST DUP2 DUP2 GT ISZERO PUSH2 0x1A6C JUMPI POP POP PUSH2 0x1A40 DUP2 PUSH2 0x2024 JUMP JUMPDEST SWAP2 PUSH1 0x0 JUMPDEST DUP3 DUP2 LT PUSH2 0x1A59 JUMPI PUSH1 0x40 MLOAD DUP1 PUSH2 0x11C2 DUP7 DUP3 PUSH2 0x1D0D JUMP JUMPDEST DUP1 PUSH2 0x11D4 PUSH2 0x1A67 SWAP3 DUP5 PUSH2 0x2056 JUMP JUMPDEST PUSH2 0x1A44 JUMP JUMPDEST DUP1 PUSH1 0x0 MSTORE PUSH1 0x2 PUSH1 0x20 MSTORE PUSH1 0xFF PUSH1 0x8 PUSH1 0x40 PUSH1 0x0 KECCAK256 ADD SLOAD PUSH1 0xA0 SHR AND PUSH2 0x1A97 JUMPI JUMPDEST PUSH2 0x1A92 SWAP1 PUSH2 0x1F5A JUMP JUMPDEST PUSH2 0x1A2D JUMP JUMPDEST SWAP2 PUSH2 0x1AAA DUP2 DUP5 PUSH2 0x11DF PUSH2 0x1A92 SWAP5 DUP9 PUSH2 0x2056 JUMP JUMPDEST SWAP3 SWAP1 POP PUSH2 0x1A89 JUMP JUMPDEST CALLVALUE PUSH2 0x82F JUMPI PUSH1 0x0 CALLDATASIZE PUSH1 0x3 NOT ADD SLT PUSH2 0x82F JUMPI PUSH1 0x20 PUSH1 0x5 SLOAD PUSH1 0x40 MLOAD SWAP1 DUP2 MSTORE RETURN JUMPDEST CALLVALUE PUSH2 0x82F JUMPI PUSH1 0x20 CALLDATASIZE PUSH1 0x3 NOT ADD SLT PUSH2 0x82F JUMPI PUSH1 0x4 CALLDATALOAD PUSH1 0x0 MSTORE PUSH1 0x2 PUSH1 0x20 MSTORE PUSH1 0x40 PUSH1 0x0 KECCAK256 DUP1 SLOAD PUSH2 0x11C2 PUSH2 0x1B02 PUSH1 0x1 DUP5 ADD PUSH2 0x1C27 JUMP JUMPDEST SWAP3 PUSH2 0x1B0F PUSH1 0x2 DUP3 ADD PUSH2 0x1C27 JUMP JUMPDEST PUSH1 0xFF PUSH1 0x3 DUP4 ADD SLOAD SWAP3 PUSH1 0x4 DUP2 ADD SLOAD PUSH1 0x5 DUP3 ADD SLOAD PUSH1 0x6 DUP4 ADD SLOAD SWAP1 PUSH1 0x7 DUP5 ADD SLOAD SWAP3 PUSH2 0x1B6D PUSH2 0x1B41 PUSH1 0x9 PUSH1 0x8 DUP9 ADD SLOAD SWAP8 ADD PUSH2 0x1C27 JUMP JUMPDEST SWAP8 PUSH2 0x1B5F PUSH1 0x40 MLOAD SWAP14 DUP15 SWAP14 DUP15 MSTORE DUP14 PUSH2 0x160 SWAP1 DUP2 PUSH1 0x20 DUP3 ADD MSTORE ADD SWAP1 PUSH2 0x1CCD JUMP JUMPDEST DUP13 DUP2 SUB PUSH1 0x40 DUP15 ADD MSTORE SWAP1 PUSH2 0x1CCD JUMP JUMPDEST SWAP8 PUSH1 0x60 DUP12 ADD MSTORE PUSH1 0x80 DUP11 ADD MSTORE PUSH1 0xA0 DUP10 ADD MSTORE PUSH1 0xC0 DUP9 ADD MSTORE PUSH1 0xE0 DUP8 ADD MSTORE PUSH1 0x1 DUP1 PUSH1 0xA0 SHL SUB DUP2 AND PUSH2 0x100 DUP8 ADD MSTORE PUSH1 0xA0 SHR AND ISZERO ISZERO PUSH2 0x120 DUP6 ADD MSTORE DUP4 DUP3 SUB PUSH2 0x140 DUP6 ADD MSTORE PUSH2 0x1CCD JUMP JUMPDEST SWAP1 PUSH1 0x1 DUP3 DUP2 SHR SWAP3 AND DUP1 ISZERO PUSH2 0x1BE0 JUMPI JUMPDEST PUSH1 0x20 DUP4 LT EQ PUSH2 0x1BCA JUMPI JUMP JUMPDEST PUSH4 0x4E487B71 PUSH1 0xE0 SHL PUSH1 0x0 MSTORE PUSH1 0x22 PUSH1 0x4 MSTORE PUSH1 0x24 PUSH1 0x0 REVERT JUMPDEST SWAP2 PUSH1 0x7F AND SWAP2 PUSH2 0x1BBF JUMP JUMPDEST PUSH2 0x180 DUP2 ADD SWAP1 DUP2 LT PUSH1 0x1 PUSH1 0x1 PUSH1 0x40 SHL SUB DUP3 GT OR PUSH2 0x4EA JUMPI PUSH1 0x40 MSTORE JUMP JUMPDEST SWAP1 PUSH1 0x1F DUP1 NOT SWAP2 ADD AND DUP2 ADD SWAP1 DUP2 LT PUSH1 0x1 PUSH1 0x1 PUSH1 0x40 SHL SUB DUP3 GT OR PUSH2 0x4EA JUMPI PUSH1 0x40 MSTORE JUMP JUMPDEST SWAP1 PUSH1 0x40 MLOAD SWAP2 DUP3 PUSH1 0x0 DUP3 SLOAD SWAP3 PUSH2 0x1C3B DUP5 PUSH2 0x1BB0 JUMP JUMPDEST SWAP1 DUP2 DUP5 MSTORE PUSH1 0x1 SWAP5 DUP6 DUP2 AND SWAP1 DUP2 PUSH1 0x0 EQ PUSH2 0x1CAA JUMPI POP PUSH1 0x1 EQ PUSH2 0x1C67 JUMPI JUMPDEST POP POP PUSH2 0x1C65 SWAP3 POP SUB DUP4 PUSH2 0x1C06 JUMP JUMPDEST JUMP JUMPDEST SWAP1 SWAP4 SWAP2 POP PUSH1 0x0 MSTORE PUSH1 0x20 SWAP1 DUP2 PUSH1 0x0 KECCAK256 SWAP4 PUSH1 0x0 SWAP2 JUMPDEST DUP2 DUP4 LT PUSH2 0x1C92 JUMPI POP POP PUSH2 0x1C65 SWAP4 POP DUP3 ADD ADD CODESIZE DUP1 PUSH2 0x1C57 JUMP JUMPDEST DUP6 SLOAD DUP9 DUP5 ADD DUP6 ADD MSTORE SWAP5 DUP6 ADD SWAP5 DUP8 SWAP5 POP SWAP2 DUP4 ADD SWAP2 PUSH2 0x1C7A JUMP JUMPDEST SWAP2 POP POP PUSH2 0x1C65 SWAP5 POP PUSH1 0x20 SWAP3 POP PUSH1 0xFF NOT AND DUP3 DUP5 ADD MSTORE ISZERO ISZERO PUSH1 0x5 SHL DUP3 ADD ADD CODESIZE DUP1 PUSH2 0x1C57 JUMP JUMPDEST SWAP2 SWAP1 DUP3 MLOAD SWAP3 DUP4 DUP3 MSTORE PUSH1 0x0 JUMPDEST DUP5 DUP2 LT PUSH2 0x1CF9 JUMPI POP POP DUP3 PUSH1 0x0 PUSH1 0x20 DUP1 SWAP5 SWAP6 DUP5 ADD ADD MSTORE PUSH1 0x1F DUP1 NOT SWAP2 ADD AND ADD ADD SWAP1 JUMP JUMPDEST PUSH1 0x20 DUP2 DUP4 ADD DUP2 ADD MLOAD DUP5 DUP4 ADD DUP3 ADD MSTORE ADD PUSH2 0x1CD8 JUMP JUMPDEST PUSH1 0x20 SWAP1 DUP2 PUSH1 0x40 DUP2 DUP4 ADD SWAP3 DUP3 DUP2 MSTORE DUP6 MLOAD DUP1 SWAP5 MSTORE ADD SWAP4 ADD SWAP2 PUSH1 0x0 JUMPDEST DUP3 DUP2 LT PUSH2 0x1D34 JUMPI POP POP POP POP SWAP1 JUMP JUMPDEST DUP4 MLOAD DUP6 MSTORE SWAP4 DUP2 ADD SWAP4 SWAP3 DUP2 ADD SWAP3 PUSH1 0x1 ADD PUSH2 0x1D26 JUMP JUMPDEST PUSH1 0x24 CALLDATALOAD SWAP1 PUSH1 0x1 PUSH1 0x1 PUSH1 0xA0 SHL SUB DUP3 AND DUP3 SUB PUSH2 0x82F JUMPI JUMP JUMPDEST PUSH1 0x4 CALLDATALOAD SWAP1 PUSH1 0x1 PUSH1 0x1 PUSH1 0xA0 SHL SUB DUP3 AND DUP3 SUB PUSH2 0x82F JUMPI JUMP JUMPDEST DUP2 PUSH1 0x1F DUP3 ADD SLT ISZERO PUSH2 0x82F JUMPI DUP1 CALLDATALOAD SWAP1 PUSH1 0x1 PUSH1 0x1 PUSH1 0x40 SHL SUB DUP3 GT PUSH2 0x4EA JUMPI PUSH1 0x40 MLOAD SWAP3 PUSH2 0x1DA8 PUSH1 0x1F DUP5 ADD PUSH1 0x1F NOT AND PUSH1 0x20 ADD DUP6 PUSH2 0x1C06 JUMP JUMPDEST DUP3 DUP5 MSTORE PUSH1 0x20 DUP4 DUP4 ADD ADD GT PUSH2 0x82F JUMPI DUP2 PUSH1 0x0 SWAP3 PUSH1 0x20 DUP1 SWAP4 ADD DUP4 DUP7 ADD CALLDATACOPY DUP4 ADD ADD MSTORE SWAP1 JUMP JUMPDEST PUSH1 0x1 PUSH1 0x1 PUSH1 0x40 SHL SUB DUP2 GT PUSH2 0x4EA JUMPI PUSH1 0x5 SHL PUSH1 0x20 ADD SWAP1 JUMP JUMPDEST SWAP1 DUP1 PUSH1 0x1F DUP4 ADD SLT ISZERO PUSH2 0x82F JUMPI DUP2 CALLDATALOAD SWAP1 PUSH2 0x1DF9 DUP3 PUSH2 0x1DCA JUMP JUMPDEST SWAP3 PUSH2 0x1E07 PUSH1 0x40 MLOAD SWAP5 DUP6 PUSH2 0x1C06 JUMP JUMPDEST DUP3 DUP5 MSTORE PUSH1 0x20 SWAP3 DUP4 DUP1 DUP7 ADD SWAP2 PUSH1 0x5 SHL DUP4 ADD ADD SWAP3 DUP1 DUP5 GT PUSH2 0x82F JUMPI DUP5 DUP4 ADD SWAP2 JUMPDEST DUP5 DUP4 LT PUSH2 0x1E35 JUMPI POP POP POP POP POP POP SWAP1 JUMP JUMPDEST DUP3 CALLDATALOAD PUSH1 0x1 PUSH1 0x1 PUSH1 0x40 SHL SUB DUP2 GT PUSH2 0x82F JUMPI DUP7 SWAP2 PUSH2 0x1E56 DUP5 DUP5 DUP1 SWAP5 DUP10 ADD ADD PUSH2 0x1D74 JUMP JUMPDEST DUP2 MSTORE ADD SWAP3 ADD SWAP2 PUSH2 0x1E25 JUMP JUMPDEST PUSH1 0x0 SLOAD PUSH1 0x1 PUSH1 0x1 PUSH1 0xA0 SHL SUB AND CALLER SUB PUSH2 0x1E75 JUMPI JUMP JUMPDEST PUSH1 0x64 PUSH1 0x40 MLOAD PUSH3 0x461BCD PUSH1 0xE5 SHL DUP2 MSTORE PUSH1 0x20 PUSH1 0x4 DUP3 ADD MSTORE PUSH1 0x20 PUSH1 0x24 DUP3 ADD MSTORE PUSH32 0x4F776E61626C653A2063616C6C6572206973206E6F7420746865206F776E6572 PUSH1 0x44 DUP3 ADD MSTORE REVERT JUMPDEST ISZERO PUSH2 0x1EC0 JUMPI JUMP JUMPDEST PUSH1 0x64 PUSH1 0x40 MLOAD PUSH3 0x461BCD PUSH1 0xE5 SHL DUP2 MSTORE PUSH1 0x20 PUSH1 0x4 DUP3 ADD MSTORE PUSH1 0x20 PUSH1 0x24 DUP3 ADD MSTORE PUSH32 0x53746172742064617465206D75737420626520696E2074686520667574757265 PUSH1 0x44 DUP3 ADD MSTORE REVERT JUMPDEST ISZERO PUSH2 0x1F0B JUMPI JUMP JUMPDEST PUSH1 0x40 MLOAD PUSH3 0x461BCD PUSH1 0xE5 SHL DUP2 MSTORE PUSH1 0x20 PUSH1 0x4 DUP3 ADD MSTORE PUSH1 0x21 PUSH1 0x24 DUP3 ADD MSTORE PUSH32 0x456E642064617465206D75737420626520616674657220737461727420646174 PUSH1 0x44 DUP3 ADD MSTORE PUSH1 0x65 PUSH1 0xF8 SHL PUSH1 0x64 DUP3 ADD MSTORE PUSH1 0x84 SWAP1 REVERT JUMPDEST PUSH1 0x0 NOT DUP2 EQ PUSH2 0x1629 JUMPI PUSH1 0x1 ADD SWAP1 JUMP JUMPDEST DUP2 DUP2 LT PUSH2 0x1F74 JUMPI POP POP JUMP JUMPDEST PUSH1 0x0 DUP2 SSTORE PUSH1 0x1 ADD PUSH2 0x1F69 JUMP JUMPDEST ISZERO PUSH2 0x1F87 JUMPI JUMP JUMPDEST PUSH1 0x40 MLOAD PUSH3 0x461BCD PUSH1 0xE5 SHL DUP2 MSTORE PUSH1 0x20 PUSH1 0x4 DUP3 ADD MSTORE PUSH1 0x14 PUSH1 0x24 DUP3 ADD MSTORE PUSH20 0x115D995B9D08191BD95CC81B9BDD08195E1A5CDD PUSH1 0x62 SHL PUSH1 0x44 DUP3 ADD MSTORE PUSH1 0x64 SWAP1 REVERT JUMPDEST ISZERO PUSH2 0x1FCA JUMPI JUMP JUMPDEST PUSH1 0x40 MLOAD PUSH3 0x461BCD PUSH1 0xE5 SHL DUP2 MSTORE PUSH1 0x20 PUSH1 0x4 DUP3 ADD MSTORE PUSH1 0x2C PUSH1 0x24 DUP3 ADD MSTORE PUSH32 0x4F6E6C79206576656E74206F7267616E697A65722063616E20706572666F726D PUSH1 0x44 DUP3 ADD MSTORE PUSH12 0x103A3434B99030B1BA34B7B7 PUSH1 0xA1 SHL PUSH1 0x64 DUP3 ADD MSTORE PUSH1 0x84 SWAP1 REVERT JUMPDEST SWAP1 PUSH2 0x202E DUP3 PUSH2 0x1DCA JUMP JUMPDEST PUSH2 0x203B PUSH1 0x40 MLOAD SWAP2 DUP3 PUSH2 0x1C06 JUMP JUMPDEST DUP3 DUP2 MSTORE DUP1 SWAP3 PUSH2 0x204C PUSH1 0x1F NOT SWAP2 PUSH2 0x1DCA JUMP JUMPDEST ADD SWAP1 PUSH1 0x20 CALLDATASIZE SWAP2 ADD CALLDATACOPY JUMP JUMPDEST DUP1 MLOAD DUP3 LT ISZERO PUSH2 0x206A JUMPI PUSH1 0x20 SWAP2 PUSH1 0x5 SHL ADD ADD SWAP1 JUMP JUMPDEST PUSH4 0x4E487B71 PUSH1 0xE0 SHL PUSH1 0x0 MSTORE PUSH1 0x32 PUSH1 0x4 MSTORE PUSH1 0x24 PUSH1 0x0 REVERT INVALID LOG2 PUSH5 0x6970667358 0x22 SLT KECCAK256 SWAP10 SWAP3 PUSH12 0x6EE2538CF24C862B77F5E340 MSTORE8 0x2C PREVRANDAO MULMOD 0xBB EXP 0xD2 0xAE MSIZE REVERT 0x4D MSTORE DUP3 DUP13 PUSH17 0x1D9864736F6C6343000813003300000000 "},"methodIdentifiers":{"cancelEvent(uint256)":"3f69babd","createEvent(string,string,uint256,uint256,uint256,uint256,string,string[])":"c2c02965","eventCount()":"71be2e4a","eventRegistrations(uint256,address)":"3e2c7014","events(uint256)":"0b791430","getActiveEvents()":"3612280f","getContractBalance()":"6f9fb98a","getEvent(uint256)":"6d1884e0","getEventsByOrganizer(address)":"9f6271c3","isUserRegistered(uint256,address)":"57f69799","owner()":"8da5cb5b","platformFee()":"26232a2e","registerForEvent(uint256)":"406db843","renounceOwnership()":"715018a6","transferOwnership(address)":"f2fde38b","unregisterFromEvent(uint256)":"4df6dab9","updateEvent(uint256,string,string,uint256,uint256,uint256,uint256,string,string[])":"f4929006","updatePlatformFee(uint256)":"aa0b5988","withdrawPlatformFees()":"d0b7830b"}},"storageLayout":{"storage":[{"astId":7,"contract":"contracts/EventContract.sol:EventContract","label":"_owner","offset":0,"slot":"0","type":"t_address"},{"astId":123,"contract":"contracts/EventContract.sol:EventContract","label":"_status","offset":0,"slot":"1","type":"t_uint256"},{"astId":247,"contract":"contracts/EventContract.sol:EventContract","label":"events","offset":0,"slot":"2","type":"t_mapping(t_uint256,t_struct(Event)242_storage)"},{"astId":253,"contract":"contracts/EventContract.sol:EventContract","label":"eventRegistrations","offset":0,"slot":"3","type":"t_mapping(t_uint256,t_mapping(t_address,t_bool))"},{"astId":255,"contract":"contracts/EventContract.sol:EventContract","label":"eventCount","offset":0,"slot":"4","type":"t_uint256"},{"astId":258,"contract":"contracts/EventContract.sol:EventContract","label":"platformFee","offset":0,"slot":"5","type":"t_uint256"}],"types":{"t_address":{"encoding":"inplace","label":"address","numberOfBytes":"20"},"t_array(t_string_storage)dyn_storage":{"base":"t_string_storage","encoding":"dynamic_array","label":"string[]","numberOfBytes":"32"},"t_bool":{"encoding":"inplace","label":"bool","numberOfBytes":"1"},"t_mapping(t_address,t_bool)":{"encoding":"mapping","key":"t_address","label":"mapping(address => bool)","numberOfBytes":"32","value":"t_bool"},"t_mapping(t_uint256,t_mapping(t_address,t_bool))":{"encoding":"mapping","key":"t_uint256","label":"mapping(uint256 => mapping(address => bool))","numberOfBytes":"32","value":"t_mapping(t_address,t_bool)"},"t_mapping(t_uint256,t_struct(Event)242_storage)":{"encoding":"mapping","key":"t_uint256","label":"mapping(uint256 => struct EventContract.Event)","numberOfBytes":"32","value":"t_struct(Event)242_storage"},"t_string_storage":{"encoding":"bytes","label":"string","numberOfBytes":"32"},"t_struct(Event)242_storage":{"encoding":"inplace","label":"struct EventContract.Event","members":[{"astId":218,"contract":"contracts/EventContract.sol:EventContract","label":"id","offset":0,"slot":"0","type":"t_uint256"},{"astId":220,"contract":"contracts/EventContract.sol:EventContract","label":"title","offset":0,"slot":"1","type":"t_string_storage"},{"astId":222,"contract":"contracts/EventContract.sol:EventContract","label":"description","offset":0,"slot":"2","type":"t_string_storage"},{"astId":224,"contract":"contracts/EventContract.sol:EventContract","label":"startDate","offset":0,"slot":"3","type":"t_uint256"},{"astId":226,"contract":"contracts/EventContract.sol:EventContract","label":"endDate","offset":0,"slot":"4","type":"t_uint256"},{"astId":228,"contract":"contracts/EventContract.sol:EventContract","label":"ticketPrice","offset":0,"slot":"5","type":"t_uint256"},{"astId":230,"contract":"contracts/EventContract.sol:EventContract","label":"capacity","offset":0,"slot":"6","type":"t_uint256"},{"astId":232,"contract":"contracts/EventContract.sol:EventContract","label":"registeredCount","offset":0,"slot":"7","type":"t_uint256"},{"astId":234,"contract":"contracts/EventContract.sol:EventContract","label":"organizer","offset":0,"slot":"8","type":"t_address"},{"astId":236,"contract":"contracts/EventContract.sol:EventContract","label":"isActive","offset":20,"slot":"8","type":"t_bool"},{"astId":238,"contract":"contracts/EventContract.sol:EventContract","label":"location","offset":0,"slot":"9","type":"t_string_storage"},{"astId":241,"contract":"contracts/EventContract.sol:EventContract","label":"categories","offset":0,"slot":"10","type":"t_array(t_string_storage)dyn_storage"}],"numberOfBytes":"352"},"t_uint256":{"encoding":"inplace","label":"uint256","numberOfBytes":"32"}}}}}}