{"contracts/EventContract.sol":{"EventContract":{"abi":[{"anonymous":false,"inputs":[{"indexed":true,"internalType":"uint256","name":"eventId","type":"uint256"}],"name":"EventCancelled","type":"event"},{"anonymous":false,"inputs":[{"indexed":true,"internalType":"uint256","name":"eventId","type":"uint256"},{"indexed":true,"internalType":"address","name":"organizer","type":"address"},{"indexed":false,"internalType":"string","name":"title","type":"string"}],"name":"EventCreated","type":"event"},{"anonymous":false,"inputs":[{"indexed":true,"internalType":"uint256","name":"eventId","type":"uint256"},{"indexed":false,"internalType":"string","name":"title","type":"string"}],"name":"EventUpdated","type":"event"},{"anonymous":false,"inputs":[{"indexed":true,"internalType":"address","name":"previousOwner","type":"address"},{"indexed":true,"internalType":"address","name":"newOwner","type":"address"}],"name":"OwnershipTransferred","type":"event"},{"anonymous":false,"inputs":[{"indexed":true,"internalType":"address","name":"oldProcessor","type":"address"},{"indexed":true,"internalType":"address","name":"newProcessor","type":"address"}],"name":"PaymentProcessorUpdated","type":"event"},{"anonymous":false,"inputs":[{"indexed":true,"internalType":"uint256","name":"eventId","type":"uint256"},{"indexed":true,"internalType":"address","name":"user","type":"address"}],"name":"UserRegistered","type":"event"},{"anonymous":false,"inputs":[{"indexed":true,"internalType":"uint256","name":"eventId","type":"uint256"},{"indexed":true,"internalType":"address","name":"user","type":"address"}],"name":"UserUnregistered","type":"event"},{"inputs":[{"internalType":"uint256","name":"_eventId","type":"uint256"}],"name":"cancelEvent","outputs":[],"stateMutability":"nonpayable","type":"function"},{"inputs":[{"internalType":"string","name":"_title","type":"string"},{"internalType":"string","name":"_description","type":"string"},{"internalType":"uint256","name":"_startDate","type":"uint256"},{"internalType":"uint256","name":"_endDate","type":"uint256"},{"internalType":"uint256","name":"_ticketPrice","type":"uint256"},{"internalType":"uint256","name":"_capacity","type":"uint256"},{"internalType":"string","name":"_location","type":"string"},{"internalType":"string[]","name":"_categories","type":"string[]"}],"name":"createEvent","outputs":[{"internalType":"uint256","name":"","type":"uint256"}],"stateMutability":"nonpayable","type":"function"},{"inputs":[],"name":"eventCount","outputs":[{"internalType":"uint256","name":"","type":"uint256"}],"stateMutability":"view","type":"function"},{"inputs":[{"internalType":"uint256","name":"","type":"uint256"},{"internalType":"address","name":"","type":"address"}],"name":"eventRegistrations","outputs":[{"internalType":"bool","name":"","type":"bool"}],"stateMutability":"view","type":"function"},{"inputs":[{"internalType":"uint256","name":"","type":"uint256"}],"name":"events","outputs":[{"internalType":"uint256","name":"id","type":"uint256"},{"internalType":"string","name":"title","type":"string"},{"internalType":"string","name":"description","type":"string"},{"internalType":"uint256","name":"startDate","type":"uint256"},{"internalType":"uint256","name":"endDate","type":"uint256"},{"internalType":"uint256","name":"ticketPrice","type":"uint256"},{"internalType":"uint256","name":"capacity","type":"uint256"},{"internalType":"uint256","name":"registeredCount","type":"uint256"},{"internalType":"address","name":"organizer","type":"address"},{"internalType":"bool","name":"isActive","type":"bool"},{"internalType":"string","name":"location","type":"string"}],"stateMutability":"view","type":"function"},{"inputs":[],"name":"getActiveEvents","outputs":[{"internalType":"uint256[]","name":"","type":"uint256[]"}],"stateMutability":"view","type":"function"},{"inputs":[],"name":"getContractBalance","outputs":[{"internalType":"uint256","name":"","type":"uint256"}],"stateMutability":"view","type":"function"},{"inputs":[{"internalType":"uint256","name":"_eventId","type":"uint256"}],"name":"getEvent","outputs":[{"internalType":"uint256","name":"id","type":"uint256"},{"internalType":"string","name":"title","type":"string"},{"internalType":"string","name":"description","type":"string"},{"internalType":"uint256","name":"startDate","type":"uint256"},{"internalType":"uint256","name":"endDate","type":"uint256"},{"internalType":"uint256","name":"ticketPrice","type":"uint256"},{"internalType":"uint256","name":"capacity","type":"uint256"},{"internalType":"uint256","name":"registeredCount","type":"uint256"},{"internalType":"address","name":"organizer","type":"address"},{"internalType":"bool","name":"isActive","type":"bool"},{"internalType":"string","name":"location","type":"string"},{"internalType":"string[]","name":"categories","type":"string[]"}],"stateMutability":"view","type":"function"},{"inputs":[{"internalType":"address","name":"_organizer","type":"address"}],"name":"getEventsByOrganizer","outputs":[{"internalType":"uint256[]","name":"","type":"uint256[]"}],"stateMutability":"view","type":"function"},{"inputs":[{"internalType":"uint256","name":"_eventId","type":"uint256"},{"internalType":"address","name":"_user","type":"address"}],"name":"isUserRegistered","outputs":[{"internalType":"bool","name":"","type":"bool"}],"stateMutability":"view","type":"function"},{"inputs":[],"name":"owner","outputs":[{"internalType":"address","name":"","type":"address"}],"stateMutability":"view","type":"function"},{"inputs":[],"name":"paymentProcessor","outputs":[{"internalType":"address","name":"","type":"address"}],"stateMutability":"view","type":"function"},{"inputs":[],"name":"platformFee","outputs":[{"internalType":"uint256","name":"","type":"uint256"}],"stateMutability":"view","type":"function"},{"inputs":[{"internalType":"uint256","name":"_eventId","type":"uint256"}],"name":"registerForEvent","outputs":[],"stateMutability":"payable","type":"function"},{"inputs":[],"name":"renounceOwnership","outputs":[],"stateMutability":"nonpayable","type":"function"},{"inputs":[{"internalType":"address","name":"_paymentProcessor","type":"address"}],"name":"setPaymentProcessor","outputs":[],"stateMutability":"nonpayable","type":"function"},{"inputs":[{"internalType":"address","name":"_ticketNFT","type":"address"}],"name":"setTicketNFT","outputs":[],"stateMutability":"nonpayable","type":"function"},{"inputs":[],"name":"ticketNFT","outputs":[{"internalType":"address","name":"","type":"address"}],"stateMutability":"view","type":"function"},{"inputs":[{"internalType":"address","name":"newOwner","type":"address"}],"name":"transferOwnership","outputs":[],"stateMutability":"nonpayable","type":"function"},{"inputs":[{"internalType":"uint256","name":"_eventId","type":"uint256"}],"name":"unregisterFromEvent","outputs":[],"stateMutability":"nonpayable","type":"function"},{"inputs":[{"internalType":"uint256","name":"_eventId","type":"uint256"},{"internalType":"string","name":"_title","type":"string"},{"internalType":"string","name":"_description","type":"string"},{"internalType":"uint256","name":"_startDate","type":"uint256"},{"internalType":"uint256","name":"_endDate","type":"uint256"},{"internalType":"uint256","name":"_ticketPrice","type":"uint256"},{"internalType":"uint256","name":"_capacity","type":"uint256"},{"internalType":"string","name":"_location","type":"string"},{"internalType":"string[]","name":"_categories","type":"string[]"}],"name":"updateEvent","outputs":[],"stateMutability":"nonpayable","type":"function"},{"inputs":[{"internalType":"uint256","name":"_newFee","type":"uint256"}],"name":"updatePlatformFee","outputs":[],"stateMutability":"nonpayable","type":"function"},{"inputs":[],"name":"withdrawPlatformFees","outputs":[],"stateMutability":"nonpayable","type":"function"}],"evm":{"bytecode":{"linkReferences":{},"object":"608080604052346100635760008054336001600160a01b0319821681178355916001600160a01b03909116907f8be0079c531659141344cd1fd0a4f28419497f9722a3daafe3b4186f6b6457e09080a360018055600580556123cf90816100698239f35b600080fdfe6080604052600436101561001257600080fd5b60003560e01c8063088b0d7514611dfe5780630b79143014611d1e57806326232a2e14611d005780633612280f14611c575780633e2c7014146116345780633f69babd14611b64578063406db843146117895780634df6dab91461168157806357f69799146116345780636ade389b146115a75780636d1884e0146113625780636f9fb98a14611346578063715018a6146112ed57806371be2e4a146112cf5780638da5cb5b146112a65780639f6271c3146111d6578063aa0b598814611168578063b393391b1461113f578063c2c02965146109cd578063d0b7830b1461094d578063f1c6bdf814610924578063f2fde38b146108605763f49290061461011957600080fd5b3461085b5761012036600319011261085b576024356001600160401b03811161085b5761014a90369060040161209c565b6044356001600160401b03811161085b5761016990369060040161209c565b9060e4356001600160401b03811161085b5761018990369060040161209c565b91610104356001600160401b03811161085b576101aa9036906004016120fa565b60043560005260026020526101c56040600020541515612299565b60043560005260026020526101eb60018060a01b036008604060002001541633146122dc565b600435600052600260205260ff60086040600020015460a01c16156108165761021742606435116121d2565b6102266064356084351161221d565b600435600052600260205260076040600020015460c435106107b257600435600052600260205260406000209183516001600160401b038111610516576102706001850154611ee9565b601f811161077d575b50806020601f821160011461071057600091610705575b508160011b916000199060031b1c19161760018401555b8051906001600160401b0382116105165781906102c76002860154611ee9565b601f81116106d0575b50602090601f831160011461065e57600092610653575b50508160011b916000199060031b1c19161760028301555b6064356003830155608435600483015560a435600583015560c435600683015583516001600160401b0381116105165761033c6009840154611ee9565b601f811161061e575b506020601f82116001146105af5781929394956000926105a4575b50508160011b916000199060031b1c19161760098301555b805190600160401b821161051657600a83015482600a85015580831061052c575b506020600a910192016000526020600020916000905b8282106103f657847f0c21d47f606573d65eedb6ee084e32d784cfcd5ce32240b22f19de37d6b4096960405160208152806103f1600435946020830190612006565b0390a2005b80518051906001600160401b038211610516576104138654611ee9565b601f81116104d9575b50602090601f831160011461046957928260019493602093869560009261045e575b5050600019600383901b1c191690841b1787555b019401910190926103af565b01519050388061043e565b908660005260206000209160005b601f19851681106104c1575083602093600196938796938794601f198116106104a8575b505050811b018755610452565b015160001960f88460031b161c1916905538808061049b565b91926020600181928685015181550194019201610477565b61050690876000526020600020601f850160051c8101916020861061050c575b601f0160051c0190612282565b3861041c565b90915081906104f9565b634e487b7160e01b600052604160045260246000fd5b600a84016000526020600020908382015b818301811061054d575050610399565b8061055a60019254611ee9565b80610567575b500161053d565b601f8111831461057d5750600081555b38610560565b60009082825261059b601f60208420920160051c8201858301612282565b81835555610577565b015190503880610360565b6009840160005260206000209060005b601f1984168110610606575060019394959683601f198116106105ed575b505050811b016009830155610378565b015160001960f88460031b161c191690553880806105dd565b9091602060018192858b0151815501930191016105bf565b61064d90600985016000526020600020601f840160051c8101916020851061050c57601f0160051c0190612282565b38610345565b0151905038806102e7565b9250600285016000526020600020906000935b601f19841685106106b5576001945083601f1981161061069c575b505050811b0160028301556102ff565b015160001960f88460031b161c1916905538808061068c565b81810151835560209485019460019093019290910190610671565b6106ff90600287016000526020600020601f850160051c8101916020861061050c57601f0160051c0190612282565b386102d0565b905085015138610290565b91506001850160005260206000206000925b601f1983168410610765576001935082601f1981161061074c575b5050811b0160018401556102a7565b87015160001960f88460031b161c19169055388061073d565b87810151825560209384019360019092019101610722565b6107ac90600186016000526020600020601f840160051c8101916020851061050c57601f0160051c0190612282565b38610279565b60405162461bcd60e51b815260206004820152603660248201527f4e65772063617061636974792063616e6e6f74206265206c657373207468616e6044820152752063757272656e7420726567697374726174696f6e7360501b6064820152608490fd5b60405162461bcd60e51b815260206004820152601d60248201527f43616e6e6f74207570646174652063616e63656c6c6564206576656e740000006044820152606490fd5b600080fd5b3461085b57602036600319011261085b57610879611ebd565b61088161217a565b6001600160a01b039081169081156108d057600054826001600160601b0360a01b821617600055167f8be0079c531659141344cd1fd0a4f28419497f9722a3daafe3b4186f6b6457e0600080a3005b60405162461bcd60e51b815260206004820152602660248201527f4f776e61626c653a206e6577206f776e657220697320746865207a65726f206160448201526564647265737360d01b6064820152608490fd5b3461085b57600036600319011261085b576006546040516001600160a01b039091168152602090f35b3461085b57600036600319011261085b5761096661217a565b4780156109925760008080809360018060a01b0382541682f11561098657005b6040513d6000823e3d90fd5b60405162461bcd60e51b81526020600482015260136024820152724e6f206665657320746f20776974686472617760681b6044820152606490fd5b3461085b5761010036600319011261085b576004356001600160401b03811161085b576109fe90369060040161209c565b6024356001600160401b03811161085b57610a1d90369060040161209c565b9060c4356001600160401b03811161085b57610a3d90369060040161209c565b9060e4356001600160401b03811161085b57610a5d9036906004016120fa565b81511561110257610a7142604435116121d2565b610a806044356064351161221d565b60a435156110bd57610a93600454612273565b928360045560405194610aa586611f23565b84865283602087015260408601526044356060860152606435608086015260843560a086015260a43560c0860152600060e08601523361010086015260016101208601526101408501526101608401528160005260026020526040600020928051845560208101518051906001600160401b038211610516578190610b2d6001880154611ee9565b601f8111611088575b50602090601f83116001146110165760009261100b575b50508160011b916000199060031b1c19161760018501555b60408101518051906001600160401b038211610516578190610b8a6002880154611ee9565b601f8111610fd6575b50602090601f8311600114610f6457600092610f59575b50508160011b916000199060031b1c19161760028501555b606081015160038501556080810151600485015560a0810151600585015560c0810151600685015560e081015160078501556008840160018060a01b036101008301511681549060ff60a01b610120850151151560a01b16916affffffffffffffffffffff60a81b16171790556101408101518051906001600160401b03821161051657610c536009870154611ee9565b601f8111610f24575b50602090601f8311600114610eb05761016093929160009183610ea5575b50508160011b916000199060031b1c19161760098601555b0151805190600160401b821161051657600a85015482600a870155808310610e2d575b506020600a910194016000526020600020936000905b828210610d185760208585817ffc695dea2478fb938a11068aeedddd7046a5fe655f136e30a325d353fe187a4560405185815280610d0d339588830190612006565b0390a3604051908152f35b80518051906001600160401b03821161051657610d358854611ee9565b601f8111610dfb575b50602090601f8311600114610d8b579282600194936020938695600092610d80575b5050600019600383901b1c191690841b1789555b01960191019094610ccb565b015190508b80610d60565b908860005260206000209160005b601f1985168110610de3575083602093600196938796938794601f19811610610dca575b505050811b018955610d74565b015160001960f88460031b161c191690558b8080610dbd565b91926020600181928685015181550194019201610d99565b610e2790896000526020600020601f850160051c8101916020861061050c57601f0160051c0190612282565b88610d3e565b600a86016000526020600020908382015b8183018110610e4e575050610cb5565b80610e5b60019254611ee9565b80610e68575b5001610e3e565b601f81118314610e7e5750600081555b89610e61565b600090828252610e9c601f60208420920160051c8201858301612282565b81835555610e78565b015190508780610c7a565b906009870160005260206000209160005b601f1985168110610f0c57509183916001936101609695601f19811610610ef3575b505050811b016009860155610c92565b015160001960f88460031b161c19169055878080610ee3565b91926020600181928685015181550194019201610ec1565b610f5390600988016000526020600020601f850160051c8101916020861061050c57601f0160051c0190612282565b86610c5c565b015190508680610baa565b9250600287016000526020600020906000935b601f1984168510610fbb576001945083601f19811610610fa2575b505050811b016002850155610bc2565b015160001960f88460031b161c19169055868080610f92565b81810151835560209485019460019093019290910190610f77565b61100590600289016000526020600020601f850160051c8101916020861061050c57601f0160051c0190612282565b87610b93565b015190508680610b4d565b9250600187016000526020600020906000935b601f198416851061106d576001945083601f19811610611054575b505050811b016001850155610b65565b015160001960f88460031b161c19169055868080611044565b81810151835560209485019460019093019290910190611029565b6110b790600189016000526020600020601f850160051c8101916020861061050c57601f0160051c0190612282565b87610b36565b60405162461bcd60e51b815260206004820152601f60248201527f4361706163697479206d7573742062652067726561746572207468616e2030006044820152606490fd5b60405162461bcd60e51b81526020600482015260156024820152745469746c652063616e6e6f7420626520656d70747960581b6044820152606490fd5b3461085b57600036600319011261085b576007546040516001600160a01b039091168152602090f35b3461085b57602036600319011261085b5760043561118461217a565b6014811161119157600555005b60405162461bcd60e51b815260206004820152601e60248201527f506c6174666f726d206665652063616e6e6f74206578636565642032302500006044820152606490fd5b3461085b5760208060031936011261085b576111f0611ebd565b6004546111fc8161233d565b926000926001600160a01b039081169160015b848111156112635786866112228161233d565b9160005b82811061123f576040518061123b8682612046565b0390f35b8061124d61125e928461236f565b51611258828761236f565b52612273565b611226565b80600052600282528383600860406000200154161461128b575b61128690612273565b61120f565b9461129e8187611258611286948b61236f565b95905061127d565b3461085b57600036600319011261085b576000546040516001600160a01b039091168152602090f35b3461085b57600036600319011261085b576020600454604051908152f35b3461085b57600036600319011261085b5761130661217a565b600080546001600160a01b0319811682556001600160a01b03167f8be0079c531659141344cd1fd0a4f28419497f9722a3daafe3b4186f6b6457e08280a3005b3461085b57600036600319011261085b57602047604051908152f35b3461085b57602036600319011261085b5760043580600052600260205261138f6040600020541515612299565b60005260026020526040600020604051906113a982611f23565b805482526113b960018201611f60565b60208301526113ca60028201611f60565b60408301526003810154606083015260048101546080830152600581015460a0830152600681015460c0830152600781015460e083015260ff600882015460018060a01b03811661010085015260a01c16151561012083015261142f60098201611f60565b610140830152600a810154611443816120e3565b906114516040519283611f3f565b80825260208201600a81940160005260206000206000915b83831061158a5786858781610160840152825191602084015193604081015190606081015190608081015160a082015160c083015160e084015191600160a01b6001900361010086015116936101208601511515956101400151976040519c8d9c8d528c6101806020819201528d016114e191612006565b8c810360408e01526114f291612006565b9660608c015260808b015260a08a015260c089015260e088015261010087015261012086015284810361014086015261152a91612006565b908382036101608501525180825260208201918160051b810160200193926000915b8383106115595786860387f35b919395509193602080611578600193601f198682030187528951612006565b9701930193019092869594929361154c565b60016020819261159985611f60565b815201920192019190611469565b3461085b57602036600319011261085b576115c0611ebd565b6115c861217a565b6001600160a01b031680156115ef576001600160601b0360a01b6007541617600755600080f35b60405162461bcd60e51b815260206004820152601a60248201527f496e76616c6964207469636b6574204e465420616464726573730000000000006044820152606490fd5b3461085b57604036600319011261085b5761164d611ed3565b600435600052600360205260406000209060018060a01b0316600052602052602060ff604060002054166040519015158152f35b3461085b5760208060031936011261085b576004359081600052600281526116af6040600020541515612299565b8160005260038152604060002033600052815260ff6040600020541615611745576000828152600282526040808220600384528183203384529093529020805460ff191690556007018054801561172f5760001901905533907fd7e5581f5accf2708572ba158aa9df7b822d6855be3657319e94b445a58f7703600080a3005b634e487b7160e01b600052601160045260246000fd5b6064906040519062461bcd60e51b82526004820152601d60248201527f4e6f74207265676973746572656420666f722074686973206576656e740000006044820152fd5b60208060031936011261085b576004359081600052600281526117b26040600020541515612299565b816000526002815260ff60086040600020015460a01c1615611b2a57600260015414611ae65760026001558160005260028152604060002060038252604060002033600052825260ff60406000205416611a97576007810190815460068201541115611a525760058101543410611a16576006546001600160a01b0392908316156119d157846000526003845260406000203360005284526040600020600160ff198254161790556118648154612273565b90558160088160065416920154166040519184830191633279c41160e01b835286602485015233604485015260648401523460848401526084835260c08301918383106001600160401b03841117610516576000938493604052519134905af13d156119cc573d6118d481612081565b906118e26040519283611f3f565b81526000843d92013e5b15611987576007541680611928575b33837fb442efe467d2ef30e62927a3cae0afcbc799a8a0944d8a143332e4e5e51cee5d600080a360018055005b816000916064604051809481936303c664c360e11b83523360048401528860248401523360448401525af1801561098657156118fb57813d8311611980575b6119718183611f3f565b8101031261085b5781806118fb565b503d611967565b60405162461bcd60e51b815260048101839052601960248201527f5061796d656e742070726f63657373696e67206661696c6564000000000000006044820152606490fd5b6118ec565b60405162461bcd60e51b815260048101859052601860248201527f5061796d656e7450726f636573736f72206e6f742073657400000000000000006044820152606490fd5b60405162461bcd60e51b8152600481018490526014602482015273125b9cdd59999a58da595b9d081c185e5b595b9d60621b6044820152606490fd5b60405162461bcd60e51b815260048101849052601960248201527f4576656e742069732061742066756c6c206361706163697479000000000000006044820152606490fd5b60405162461bcd60e51b815260048101839052602160248201527f416c7265616479207265676973746572656420666f722074686973206576656e6044820152601d60fa1b6064820152608490fd5b6064906040519062461bcd60e51b82526004820152601f60248201527f5265656e7472616e637947756172643a207265656e7472616e742063616c6c006044820152fd5b6064906040519062461bcd60e51b8252600482015260136024820152724576656e74206973206e6f742061637469766560681b6044820152fd5b3461085b5760208060031936011261085b57600435908160005260028152611b926040600020541515612299565b8160005260028152611bb560018060a01b036008604060002001541633146122dc565b816000526002815260ff60086040600020015460a01c1615611c13576000828152600290915260408120600801805460ff60a01b191690557fdc3cb569b066460f4a22dffa05317bdcce5d3826382ed49a21f13e5fa2063d399080a2005b6064906040519062461bcd60e51b82526004820152601a60248201527f4576656e7420697320616c72656164792063616e63656c6c65640000000000006044820152fd5b3461085b57600036600319011261085b57600454611c748161233d565b9060009060015b81811115611cba575050611c8e8161233d565b9160005b828110611ca7576040518061123b8682612046565b8061124d611cb5928461236f565b611c92565b80600052600260205260ff60086040600020015460a01c16611ce5575b611ce090612273565b611c7b565b91611cf88184611258611ce0948861236f565b929050611cd7565b3461085b57600036600319011261085b576020600554604051908152f35b3461085b57602036600319011261085b5760043560005260026020526040600020805461123b611d5060018401611f60565b92611d5d60028201611f60565b60ff60038301549260048101546005820154600683015490600784015492611dbb611d8f600960088801549701611f60565b97611dad6040519d8e9d8e528d610160908160208201520190612006565b8c810360408e015290612006565b9760608b015260808a015260a089015260c088015260e087015260018060a01b03811661010087015260a01c161515610120850152838203610140850152612006565b3461085b57602036600319011261085b57611e17611ebd565b611e1f61217a565b6001600160a01b03908116908115611e6e57600654826001600160601b0360a01b821617600655167f136038487aabf3739b91acb5eb89bf0da13241b5f155cc8edcce2b5119e7b901600080a3005b60405162461bcd60e51b815260206004820152602160248201527f496e76616c6964207061796d656e742070726f636573736f72206164647265736044820152607360f81b6064820152608490fd5b600435906001600160a01b038216820361085b57565b602435906001600160a01b038216820361085b57565b90600182811c92168015611f19575b6020831014611f0357565b634e487b7160e01b600052602260045260246000fd5b91607f1691611ef8565b61018081019081106001600160401b0382111761051657604052565b90601f801991011681019081106001600160401b0382111761051657604052565b9060405191826000825492611f7484611ee9565b908184526001948581169081600014611fe35750600114611fa0575b5050611f9e92500383611f3f565b565b9093915060005260209081600020936000915b818310611fcb575050611f9e93508201013880611f90565b85548884018501529485019487945091830191611fb3565b915050611f9e94506020925060ff191682840152151560051b8201013880611f90565b919082519283825260005b848110612032575050826000602080949584010152601f8019910116010190565b602081830181015184830182015201612011565b6020908160408183019282815285518094520193019160005b82811061206d575050505090565b83518552938101939281019260010161205f565b6001600160401b03811161051657601f01601f191660200190565b81601f8201121561085b578035906120b382612081565b926120c16040519485611f3f565b8284526020838301011161085b57816000926020809301838601378301015290565b6001600160401b0381116105165760051b60200190565b9080601f8301121561085b57813590612112826120e3565b926121206040519485611f3f565b828452602092838086019160051b8301019280841161085b57848301915b84831061214e5750505050505090565b82356001600160401b03811161085b57869161216f8484809489010161209c565b81520192019161213e565b6000546001600160a01b0316330361218e57565b606460405162461bcd60e51b815260206004820152602060248201527f4f776e61626c653a2063616c6c6572206973206e6f7420746865206f776e65726044820152fd5b156121d957565b606460405162461bcd60e51b815260206004820152602060248201527f53746172742064617465206d75737420626520696e20746865206675747572656044820152fd5b1561222457565b60405162461bcd60e51b815260206004820152602160248201527f456e642064617465206d757374206265206166746572207374617274206461746044820152606560f81b6064820152608490fd5b600019811461172f5760010190565b81811061228d575050565b60008155600101612282565b156122a057565b60405162461bcd60e51b8152602060048201526014602482015273115d995b9d08191bd95cc81b9bdd08195e1a5cdd60621b6044820152606490fd5b156122e357565b60405162461bcd60e51b815260206004820152602c60248201527f4f6e6c79206576656e74206f7267616e697a65722063616e20706572666f726d60448201526b103a3434b99030b1ba34b7b760a11b6064820152608490fd5b90612347826120e3565b6123546040519182611f3f565b8281528092612365601f19916120e3565b0190602036910137565b80518210156123835760209160051b010190565b634e487b7160e01b600052603260045260246000fdfea2646970667358221220ce2d7658d34f06acd92d7552596772670d15ab16b65a469b827c1d01a8a5ab5a64736f6c63430008130033","opcodes":"PUSH1 0x80 DUP1 PUSH1 0x40 MSTORE CALLVALUE PUSH2 0x63 JUMPI PUSH1 0x0 DUP1 SLOAD CALLER PUSH1 0x1 PUSH1 0x1 PUSH1 0xA0 SHL SUB NOT DUP3 AND DUP2 OR DUP4 SSTORE SWAP2 PUSH1 0x1 PUSH1 0x1 PUSH1 0xA0 SHL SUB SWAP1 SWAP2 AND SWAP1 PUSH32 0x8BE0079C531659141344CD1FD0A4F28419497F9722A3DAAFE3B4186F6B6457E0 SWAP1 DUP1 LOG3 PUSH1 0x1 DUP1 SSTORE PUSH1 0x5 DUP1 SSTORE PUSH2 0x23CF SWAP1 DUP2 PUSH2 0x69 DUP3 CODECOPY RETURN JUMPDEST PUSH1 0x0 DUP1 REVERT INVALID PUSH1 0x80 PUSH1 0x40 MSTORE PUSH1 0x4 CALLDATASIZE LT ISZERO PUSH2 0x12 JUMPI PUSH1 0x0 DUP1 REVERT JUMPDEST PUSH1 0x0 CALLDATALOAD PUSH1 0xE0 SHR DUP1 PUSH4 0x88B0D75 EQ PUSH2 0x1DFE JUMPI DUP1 PUSH4 0xB791430 EQ PUSH2 0x1D1E JUMPI DUP1 PUSH4 0x26232A2E EQ PUSH2 0x1D00 JUMPI DUP1 PUSH4 0x3612280F EQ PUSH2 0x1C57 JUMPI DUP1 PUSH4 0x3E2C7014 EQ PUSH2 0x1634 JUMPI DUP1 PUSH4 0x3F69BABD EQ PUSH2 0x1B64 JUMPI DUP1 PUSH4 0x406DB843 EQ PUSH2 0x1789 JUMPI DUP1 PUSH4 0x4DF6DAB9 EQ PUSH2 0x1681 JUMPI DUP1 PUSH4 0x57F69799 EQ PUSH2 0x1634 JUMPI DUP1 PUSH4 0x6ADE389B EQ PUSH2 0x15A7 JUMPI DUP1 PUSH4 0x6D1884E0 EQ PUSH2 0x1362 JUMPI DUP1 PUSH4 0x6F9FB98A EQ PUSH2 0x1346 JUMPI DUP1 PUSH4 0x715018A6 EQ PUSH2 0x12ED JUMPI DUP1 PUSH4 0x71BE2E4A EQ PUSH2 0x12CF JUMPI DUP1 PUSH4 0x8DA5CB5B EQ PUSH2 0x12A6 JUMPI DUP1 PUSH4 0x9F6271C3 EQ PUSH2 0x11D6 JUMPI DUP1 PUSH4 0xAA0B5988 EQ PUSH2 0x1168 JUMPI DUP1 PUSH4 0xB393391B EQ PUSH2 0x113F JUMPI DUP1 PUSH4 0xC2C02965 EQ PUSH2 0x9CD JUMPI DUP1 PUSH4 0xD0B7830B EQ PUSH2 0x94D JUMPI DUP1 PUSH4 0xF1C6BDF8 EQ PUSH2 0x924 JUMPI DUP1 PUSH4 0xF2FDE38B EQ PUSH2 0x860 JUMPI PUSH4 0xF4929006 EQ PUSH2 0x119 JUMPI PUSH1 0x0 DUP1 REVERT JUMPDEST CALLVALUE PUSH2 0x85B JUMPI PUSH2 0x120 CALLDATASIZE PUSH1 0x3 NOT ADD SLT PUSH2 0x85B JUMPI PUSH1 0x24 CALLDATALOAD PUSH1 0x1 PUSH1 0x1 PUSH1 0x40 SHL SUB DUP2 GT PUSH2 0x85B JUMPI PUSH2 0x14A SWAP1 CALLDATASIZE SWAP1 PUSH1 0x4 ADD PUSH2 0x209C JUMP JUMPDEST PUSH1 0x44 CALLDATALOAD PUSH1 0x1 PUSH1 0x1 PUSH1 0x40 SHL SUB DUP2 GT PUSH2 0x85B JUMPI PUSH2 0x169 SWAP1 CALLDATASIZE SWAP1 PUSH1 0x4 ADD PUSH2 0x209C JUMP JUMPDEST SWAP1 PUSH1 0xE4 CALLDATALOAD PUSH1 0x1 PUSH1 0x1 PUSH1 0x40 SHL SUB DUP2 GT PUSH2 0x85B JUMPI PUSH2 0x189 SWAP1 CALLDATASIZE SWAP1 PUSH1 0x4 ADD PUSH2 0x209C JUMP JUMPDEST SWAP2 PUSH2 0x104 CALLDATALOAD PUSH1 0x1 PUSH1 0x1 PUSH1 0x40 SHL SUB DUP2 GT PUSH2 0x85B JUMPI PUSH2 0x1AA SWAP1 CALLDATASIZE SWAP1 PUSH1 0x4 ADD PUSH2 0x20FA JUMP JUMPDEST PUSH1 0x4 CALLDATALOAD PUSH1 0x0 MSTORE PUSH1 0x2 PUSH1 0x20 MSTORE PUSH2 0x1C5 PUSH1 0x40 PUSH1 0x0 KECCAK256 SLOAD ISZERO ISZERO PUSH2 0x2299 JUMP JUMPDEST PUSH1 0x4 CALLDATALOAD PUSH1 0x0 MSTORE PUSH1 0x2 PUSH1 0x20 MSTORE PUSH2 0x1EB PUSH1 0x1 DUP1 PUSH1 0xA0 SHL SUB PUSH1 0x8 PUSH1 0x40 PUSH1 0x0 KECCAK256 ADD SLOAD AND CALLER EQ PUSH2 0x22DC JUMP JUMPDEST PUSH1 0x4 CALLDATALOAD PUSH1 0x0 MSTORE PUSH1 0x2 PUSH1 0x20 MSTORE PUSH1 0xFF PUSH1 0x8 PUSH1 0x40 PUSH1 0x0 KECCAK256 ADD SLOAD PUSH1 0xA0 SHR AND ISZERO PUSH2 0x816 JUMPI PUSH2 0x217 TIMESTAMP PUSH1 0x64 CALLDATALOAD GT PUSH2 0x21D2 JUMP JUMPDEST PUSH2 0x226 PUSH1 0x64 CALLDATALOAD PUSH1 0x84 CALLDATALOAD GT PUSH2 0x221D JUMP JUMPDEST PUSH1 0x4 CALLDATALOAD PUSH1 0x0 MSTORE PUSH1 0x2 PUSH1 0x20 MSTORE PUSH1 0x7 PUSH1 0x40 PUSH1 0x0 KECCAK256 ADD SLOAD PUSH1 0xC4 CALLDATALOAD LT PUSH2 0x7B2 JUMPI PUSH1 0x4 CALLDATALOAD PUSH1 0x0 MSTORE PUSH1 0x2 PUSH1 0x20 MSTORE PUSH1 0x40 PUSH1 0x0 KECCAK256 SWAP2 DUP4 MLOAD PUSH1 0x1 PUSH1 0x1 PUSH1 0x40 SHL SUB DUP2 GT PUSH2 0x516 JUMPI PUSH2 0x270 PUSH1 0x1 DUP6 ADD SLOAD PUSH2 0x1EE9 JUMP JUMPDEST PUSH1 0x1F DUP2 GT PUSH2 0x77D JUMPI JUMPDEST POP DUP1 PUSH1 0x20 PUSH1 0x1F DUP3 GT PUSH1 0x1 EQ PUSH2 0x710 JUMPI PUSH1 0x0 SWAP2 PUSH2 0x705 JUMPI JUMPDEST POP DUP2 PUSH1 0x1 SHL SWAP2 PUSH1 0x0 NOT SWAP1 PUSH1 0x3 SHL SHR NOT AND OR PUSH1 0x1 DUP5 ADD SSTORE JUMPDEST DUP1 MLOAD SWAP1 PUSH1 0x1 PUSH1 0x1 PUSH1 0x40 SHL SUB DUP3 GT PUSH2 0x516 JUMPI DUP2 SWAP1 PUSH2 0x2C7 PUSH1 0x2 DUP7 ADD SLOAD PUSH2 0x1EE9 JUMP JUMPDEST PUSH1 0x1F DUP2 GT PUSH2 0x6D0 JUMPI JUMPDEST POP PUSH1 0x20 SWAP1 PUSH1 0x1F DUP4 GT PUSH1 0x1 EQ PUSH2 0x65E JUMPI PUSH1 0x0 SWAP3 PUSH2 0x653 JUMPI JUMPDEST POP POP DUP2 PUSH1 0x1 SHL SWAP2 PUSH1 0x0 NOT SWAP1 PUSH1 0x3 SHL SHR NOT AND OR PUSH1 0x2 DUP4 ADD SSTORE JUMPDEST PUSH1 0x64 CALLDATALOAD PUSH1 0x3 DUP4 ADD SSTORE PUSH1 0x84 CALLDATALOAD PUSH1 0x4 DUP4 ADD SSTORE PUSH1 0xA4 CALLDATALOAD PUSH1 0x5 DUP4 ADD SSTORE PUSH1 0xC4 CALLDATALOAD PUSH1 0x6 DUP4 ADD SSTORE DUP4 MLOAD PUSH1 0x1 PUSH1 0x1 PUSH1 0x40 SHL SUB DUP2 GT PUSH2 0x516 JUMPI PUSH2 0x33C PUSH1 0x9 DUP5 ADD SLOAD PUSH2 0x1EE9 JUMP JUMPDEST PUSH1 0x1F DUP2 GT PUSH2 0x61E JUMPI JUMPDEST POP PUSH1 0x20 PUSH1 0x1F DUP3 GT PUSH1 0x1 EQ PUSH2 0x5AF JUMPI DUP2 SWAP3 SWAP4 SWAP5 SWAP6 PUSH1 0x0 SWAP3 PUSH2 0x5A4 JUMPI JUMPDEST POP POP DUP2 PUSH1 0x1 SHL SWAP2 PUSH1 0x0 NOT SWAP1 PUSH1 0x3 SHL SHR NOT AND OR PUSH1 0x9 DUP4 ADD SSTORE JUMPDEST DUP1 MLOAD SWAP1 PUSH1 0x1 PUSH1 0x40 SHL DUP3 GT PUSH2 0x516 JUMPI PUSH1 0xA DUP4 ADD SLOAD DUP3 PUSH1 0xA DUP6 ADD SSTORE DUP1 DUP4 LT PUSH2 0x52C JUMPI JUMPDEST POP PUSH1 0x20 PUSH1 0xA SWAP2 ADD SWAP3 ADD PUSH1 0x0 MSTORE PUSH1 0x20 PUSH1 0x0 KECCAK256 SWAP2 PUSH1 0x0 SWAP1 JUMPDEST DUP3 DUP3 LT PUSH2 0x3F6 JUMPI DUP5 PUSH32 0xC21D47F606573D65EEDB6EE084E32D784CFCD5CE32240B22F19DE37D6B40969 PUSH1 0x40 MLOAD PUSH1 0x20 DUP2 MSTORE DUP1 PUSH2 0x3F1 PUSH1 0x4 CALLDATALOAD SWAP5 PUSH1 0x20 DUP4 ADD SWAP1 PUSH2 0x2006 JUMP JUMPDEST SUB SWAP1 LOG2 STOP JUMPDEST DUP1 MLOAD DUP1 MLOAD SWAP1 PUSH1 0x1 PUSH1 0x1 PUSH1 0x40 SHL SUB DUP3 GT PUSH2 0x516 JUMPI PUSH2 0x413 DUP7 SLOAD PUSH2 0x1EE9 JUMP JUMPDEST PUSH1 0x1F DUP2 GT PUSH2 0x4D9 JUMPI JUMPDEST POP PUSH1 0x20 SWAP1 PUSH1 0x1F DUP4 GT PUSH1 0x1 EQ PUSH2 0x469 JUMPI SWAP3 DUP3 PUSH1 0x1 SWAP5 SWAP4 PUSH1 0x20 SWAP4 DUP7 SWAP6 PUSH1 0x0 SWAP3 PUSH2 0x45E JUMPI JUMPDEST POP POP PUSH1 0x0 NOT PUSH1 0x3 DUP4 SWAP1 SHL SHR NOT AND SWAP1 DUP5 SHL OR DUP8 SSTORE JUMPDEST ADD SWAP5 ADD SWAP2 ADD SWAP1 SWAP3 PUSH2 0x3AF JUMP JUMPDEST ADD MLOAD SWAP1 POP CODESIZE DUP1 PUSH2 0x43E JUMP JUMPDEST SWAP1 DUP7 PUSH1 0x0 MSTORE PUSH1 0x20 PUSH1 0x0 KECCAK256 SWAP2 PUSH1 0x0 JUMPDEST PUSH1 0x1F NOT DUP6 AND DUP2 LT PUSH2 0x4C1 JUMPI POP DUP4 PUSH1 0x20 SWAP4 PUSH1 0x1 SWAP7 SWAP4 DUP8 SWAP7 SWAP4 DUP8 SWAP5 PUSH1 0x1F NOT DUP2 AND LT PUSH2 0x4A8 JUMPI JUMPDEST POP POP POP DUP2 SHL ADD DUP8 SSTORE PUSH2 0x452 JUMP JUMPDEST ADD MLOAD PUSH1 0x0 NOT PUSH1 0xF8 DUP5 PUSH1 0x3 SHL AND SHR NOT AND SWAP1 SSTORE CODESIZE DUP1 DUP1 PUSH2 0x49B JUMP JUMPDEST SWAP2 SWAP3 PUSH1 0x20 PUSH1 0x1 DUP2 SWAP3 DUP7 DUP6 ADD MLOAD DUP2 SSTORE ADD SWAP5 ADD SWAP3 ADD PUSH2 0x477 JUMP JUMPDEST PUSH2 0x506 SWAP1 DUP8 PUSH1 0x0 MSTORE PUSH1 0x20 PUSH1 0x0 KECCAK256 PUSH1 0x1F DUP6 ADD PUSH1 0x5 SHR DUP2 ADD SWAP2 PUSH1 0x20 DUP7 LT PUSH2 0x50C JUMPI JUMPDEST PUSH1 0x1F ADD PUSH1 0x5 SHR ADD SWAP1 PUSH2 0x2282 JUMP JUMPDEST CODESIZE PUSH2 0x41C JUMP JUMPDEST SWAP1 SWAP2 POP DUP2 SWAP1 PUSH2 0x4F9 JUMP JUMPDEST PUSH4 0x4E487B71 PUSH1 0xE0 SHL PUSH1 0x0 MSTORE PUSH1 0x41 PUSH1 0x4 MSTORE PUSH1 0x24 PUSH1 0x0 REVERT JUMPDEST PUSH1 0xA DUP5 ADD PUSH1 0x0 MSTORE PUSH1 0x20 PUSH1 0x0 KECCAK256 SWAP1 DUP4 DUP3 ADD JUMPDEST DUP2 DUP4 ADD DUP2 LT PUSH2 0x54D JUMPI POP POP PUSH2 0x399 JUMP JUMPDEST DUP1 PUSH2 0x55A PUSH1 0x1 SWAP3 SLOAD PUSH2 0x1EE9 JUMP JUMPDEST DUP1 PUSH2 0x567 JUMPI JUMPDEST POP ADD PUSH2 0x53D JUMP JUMPDEST PUSH1 0x1F DUP2 GT DUP4 EQ PUSH2 0x57D JUMPI POP PUSH1 0x0 DUP2 SSTORE JUMPDEST CODESIZE PUSH2 0x560 JUMP JUMPDEST PUSH1 0x0 SWAP1 DUP3 DUP3 MSTORE PUSH2 0x59B PUSH1 0x1F PUSH1 0x20 DUP5 KECCAK256 SWAP3 ADD PUSH1 0x5 SHR DUP3 ADD DUP6 DUP4 ADD PUSH2 0x2282 JUMP JUMPDEST DUP2 DUP4 SSTORE SSTORE PUSH2 0x577 JUMP JUMPDEST ADD MLOAD SWAP1 POP CODESIZE DUP1 PUSH2 0x360 JUMP JUMPDEST PUSH1 0x9 DUP5 ADD PUSH1 0x0 MSTORE PUSH1 0x20 PUSH1 0x0 KECCAK256 SWAP1 PUSH1 0x0 JUMPDEST PUSH1 0x1F NOT DUP5 AND DUP2 LT PUSH2 0x606 JUMPI POP PUSH1 0x1 SWAP4 SWAP5 SWAP6 SWAP7 DUP4 PUSH1 0x1F NOT DUP2 AND LT PUSH2 0x5ED JUMPI JUMPDEST POP POP POP DUP2 SHL ADD PUSH1 0x9 DUP4 ADD SSTORE PUSH2 0x378 JUMP JUMPDEST ADD MLOAD PUSH1 0x0 NOT PUSH1 0xF8 DUP5 PUSH1 0x3 SHL AND SHR NOT AND SWAP1 SSTORE CODESIZE DUP1 DUP1 PUSH2 0x5DD JUMP JUMPDEST SWAP1 SWAP2 PUSH1 0x20 PUSH1 0x1 DUP2 SWAP3 DUP6 DUP12 ADD MLOAD DUP2 SSTORE ADD SWAP4 ADD SWAP2 ADD PUSH2 0x5BF JUMP JUMPDEST PUSH2 0x64D SWAP1 PUSH1 0x9 DUP6 ADD PUSH1 0x0 MSTORE PUSH1 0x20 PUSH1 0x0 KECCAK256 PUSH1 0x1F DUP5 ADD PUSH1 0x5 SHR DUP2 ADD SWAP2 PUSH1 0x20 DUP6 LT PUSH2 0x50C JUMPI PUSH1 0x1F ADD PUSH1 0x5 SHR ADD SWAP1 PUSH2 0x2282 JUMP JUMPDEST CODESIZE PUSH2 0x345 JUMP JUMPDEST ADD MLOAD SWAP1 POP CODESIZE DUP1 PUSH2 0x2E7 JUMP JUMPDEST SWAP3 POP PUSH1 0x2 DUP6 ADD PUSH1 0x0 MSTORE PUSH1 0x20 PUSH1 0x0 KECCAK256 SWAP1 PUSH1 0x0 SWAP4 JUMPDEST PUSH1 0x1F NOT DUP5 AND DUP6 LT PUSH2 0x6B5 JUMPI PUSH1 0x1 SWAP5 POP DUP4 PUSH1 0x1F NOT DUP2 AND LT PUSH2 0x69C JUMPI JUMPDEST POP POP POP DUP2 SHL ADD PUSH1 0x2 DUP4 ADD SSTORE PUSH2 0x2FF JUMP JUMPDEST ADD MLOAD PUSH1 0x0 NOT PUSH1 0xF8 DUP5 PUSH1 0x3 SHL AND SHR NOT AND SWAP1 SSTORE CODESIZE DUP1 DUP1 PUSH2 0x68C JUMP JUMPDEST DUP2 DUP2 ADD MLOAD DUP4 SSTORE PUSH1 0x20 SWAP5 DUP6 ADD SWAP5 PUSH1 0x1 SWAP1 SWAP4 ADD SWAP3 SWAP1 SWAP2 ADD SWAP1 PUSH2 0x671 JUMP JUMPDEST PUSH2 0x6FF SWAP1 PUSH1 0x2 DUP8 ADD PUSH1 0x0 MSTORE PUSH1 0x20 PUSH1 0x0 KECCAK256 PUSH1 0x1F DUP6 ADD PUSH1 0x5 SHR DUP2 ADD SWAP2 PUSH1 0x20 DUP7 LT PUSH2 0x50C JUMPI PUSH1 0x1F ADD PUSH1 0x5 SHR ADD SWAP1 PUSH2 0x2282 JUMP JUMPDEST CODESIZE PUSH2 0x2D0 JUMP JUMPDEST SWAP1 POP DUP6 ADD MLOAD CODESIZE PUSH2 0x290 JUMP JUMPDEST SWAP2 POP PUSH1 0x1 DUP6 ADD PUSH1 0x0 MSTORE PUSH1 0x20 PUSH1 0x0 KECCAK256 PUSH1 0x0 SWAP3 JUMPDEST PUSH1 0x1F NOT DUP4 AND DUP5 LT PUSH2 0x765 JUMPI PUSH1 0x1 SWAP4 POP DUP3 PUSH1 0x1F NOT DUP2 AND LT PUSH2 0x74C JUMPI JUMPDEST POP POP DUP2 SHL ADD PUSH1 0x1 DUP5 ADD SSTORE PUSH2 0x2A7 JUMP JUMPDEST DUP8 ADD MLOAD PUSH1 0x0 NOT PUSH1 0xF8 DUP5 PUSH1 0x3 SHL AND SHR NOT AND SWAP1 SSTORE CODESIZE DUP1 PUSH2 0x73D JUMP JUMPDEST DUP8 DUP2 ADD MLOAD DUP3 SSTORE PUSH1 0x20 SWAP4 DUP5 ADD SWAP4 PUSH1 0x1 SWAP1 SWAP3 ADD SWAP2 ADD PUSH2 0x722 JUMP JUMPDEST PUSH2 0x7AC SWAP1 PUSH1 0x1 DUP7 ADD PUSH1 0x0 MSTORE PUSH1 0x20 PUSH1 0x0 KECCAK256 PUSH1 0x1F DUP5 ADD PUSH1 0x5 SHR DUP2 ADD SWAP2 PUSH1 0x20 DUP6 LT PUSH2 0x50C JUMPI PUSH1 0x1F ADD PUSH1 0x5 SHR ADD SWAP1 PUSH2 0x2282 JUMP JUMPDEST CODESIZE PUSH2 0x279 JUMP JUMPDEST PUSH1 0x40 MLOAD PUSH3 0x461BCD PUSH1 0xE5 SHL DUP2 MSTORE PUSH1 0x20 PUSH1 0x4 DUP3 ADD MSTORE PUSH1 0x36 PUSH1 0x24 DUP3 ADD MSTORE PUSH32 0x4E65772063617061636974792063616E6E6F74206265206C657373207468616E PUSH1 0x44 DUP3 ADD MSTORE PUSH22 0x2063757272656E7420726567697374726174696F6E73 PUSH1 0x50 SHL PUSH1 0x64 DUP3 ADD MSTORE PUSH1 0x84 SWAP1 REVERT JUMPDEST PUSH1 0x40 MLOAD PUSH3 0x461BCD PUSH1 0xE5 SHL DUP2 MSTORE PUSH1 0x20 PUSH1 0x4 DUP3 ADD MSTORE PUSH1 0x1D PUSH1 0x24 DUP3 ADD MSTORE PUSH32 0x43616E6E6F74207570646174652063616E63656C6C6564206576656E74000000 PUSH1 0x44 DUP3 ADD MSTORE PUSH1 0x64 SWAP1 REVERT JUMPDEST PUSH1 0x0 DUP1 REVERT JUMPDEST CALLVALUE PUSH2 0x85B JUMPI PUSH1 0x20 CALLDATASIZE PUSH1 0x3 NOT ADD SLT PUSH2 0x85B JUMPI PUSH2 0x879 PUSH2 0x1EBD JUMP JUMPDEST PUSH2 0x881 PUSH2 0x217A JUMP JUMPDEST PUSH1 0x1 PUSH1 0x1 PUSH1 0xA0 SHL SUB SWAP1 DUP2 AND SWAP1 DUP2 ISZERO PUSH2 0x8D0 JUMPI PUSH1 0x0 SLOAD DUP3 PUSH1 0x1 PUSH1 0x1 PUSH1 0x60 SHL SUB PUSH1 0xA0 SHL DUP3 AND OR PUSH1 0x0 SSTORE AND PUSH32 0x8BE0079C531659141344CD1FD0A4F28419497F9722A3DAAFE3B4186F6B6457E0 PUSH1 0x0 DUP1 LOG3 STOP JUMPDEST PUSH1 0x40 MLOAD PUSH3 0x461BCD PUSH1 0xE5 SHL DUP2 MSTORE PUSH1 0x20 PUSH1 0x4 DUP3 ADD MSTORE PUSH1 0x26 PUSH1 0x24 DUP3 ADD MSTORE PUSH32 0x4F776E61626C653A206E6577206F776E657220697320746865207A65726F2061 PUSH1 0x44 DUP3 ADD MSTORE PUSH6 0x646472657373 PUSH1 0xD0 SHL PUSH1 0x64 DUP3 ADD MSTORE PUSH1 0x84 SWAP1 REVERT JUMPDEST CALLVALUE PUSH2 0x85B JUMPI PUSH1 0x0 CALLDATASIZE PUSH1 0x3 NOT ADD SLT PUSH2 0x85B JUMPI PUSH1 0x6 SLOAD PUSH1 0x40 MLOAD PUSH1 0x1 PUSH1 0x1 PUSH1 0xA0 SHL SUB SWAP1 SWAP2 AND DUP2 MSTORE PUSH1 0x20 SWAP1 RETURN JUMPDEST CALLVALUE PUSH2 0x85B JUMPI PUSH1 0x0 CALLDATASIZE PUSH1 0x3 NOT ADD SLT PUSH2 0x85B JUMPI PUSH2 0x966 PUSH2 0x217A JUMP JUMPDEST SELFBALANCE DUP1 ISZERO PUSH2 0x992 JUMPI PUSH1 0x0 DUP1 DUP1 DUP1 SWAP4 PUSH1 0x1 DUP1 PUSH1 0xA0 SHL SUB DUP3 SLOAD AND DUP3 CALL ISZERO PUSH2 0x986 JUMPI STOP JUMPDEST PUSH1 0x40 MLOAD RETURNDATASIZE PUSH1 0x0 DUP3 RETURNDATACOPY RETURNDATASIZE SWAP1 REVERT JUMPDEST PUSH1 0x40 MLOAD PUSH3 0x461BCD PUSH1 0xE5 SHL DUP2 MSTORE PUSH1 0x20 PUSH1 0x4 DUP3 ADD MSTORE PUSH1 0x13 PUSH1 0x24 DUP3 ADD MSTORE PUSH19 0x4E6F206665657320746F207769746864726177 PUSH1 0x68 SHL PUSH1 0x44 DUP3 ADD MSTORE PUSH1 0x64 SWAP1 REVERT JUMPDEST CALLVALUE PUSH2 0x85B JUMPI PUSH2 0x100 CALLDATASIZE PUSH1 0x3 NOT ADD SLT PUSH2 0x85B JUMPI PUSH1 0x4 CALLDATALOAD PUSH1 0x1 PUSH1 0x1 PUSH1 0x40 SHL SUB DUP2 GT PUSH2 0x85B JUMPI PUSH2 0x9FE SWAP1 CALLDATASIZE SWAP1 PUSH1 0x4 ADD PUSH2 0x209C JUMP JUMPDEST PUSH1 0x24 CALLDATALOAD PUSH1 0x1 PUSH1 0x1 PUSH1 0x40 SHL SUB DUP2 GT PUSH2 0x85B JUMPI PUSH2 0xA1D SWAP1 CALLDATASIZE SWAP1 PUSH1 0x4 ADD PUSH2 0x209C JUMP JUMPDEST SWAP1 PUSH1 0xC4 CALLDATALOAD PUSH1 0x1 PUSH1 0x1 PUSH1 0x40 SHL SUB DUP2 GT PUSH2 0x85B JUMPI PUSH2 0xA3D SWAP1 CALLDATASIZE SWAP1 PUSH1 0x4 ADD PUSH2 0x209C JUMP JUMPDEST SWAP1 PUSH1 0xE4 CALLDATALOAD PUSH1 0x1 PUSH1 0x1 PUSH1 0x40 SHL SUB DUP2 GT PUSH2 0x85B JUMPI PUSH2 0xA5D SWAP1 CALLDATASIZE SWAP1 PUSH1 0x4 ADD PUSH2 0x20FA JUMP JUMPDEST DUP2 MLOAD ISZERO PUSH2 0x1102 JUMPI PUSH2 0xA71 TIMESTAMP PUSH1 0x44 CALLDATALOAD GT PUSH2 0x21D2 JUMP JUMPDEST PUSH2 0xA80 PUSH1 0x44 CALLDATALOAD PUSH1 0x64 CALLDATALOAD GT PUSH2 0x221D JUMP JUMPDEST PUSH1 0xA4 CALLDATALOAD ISZERO PUSH2 0x10BD JUMPI PUSH2 0xA93 PUSH1 0x4 SLOAD PUSH2 0x2273 JUMP JUMPDEST SWAP3 DUP4 PUSH1 0x4 SSTORE PUSH1 0x40 MLOAD SWAP5 PUSH2 0xAA5 DUP7 PUSH2 0x1F23 JUMP JUMPDEST DUP5 DUP7 MSTORE DUP4 PUSH1 0x20 DUP8 ADD MSTORE PUSH1 0x40 DUP7 ADD MSTORE PUSH1 0x44 CALLDATALOAD PUSH1 0x60 DUP7 ADD MSTORE PUSH1 0x64 CALLDATALOAD PUSH1 0x80 DUP7 ADD MSTORE PUSH1 0x84 CALLDATALOAD PUSH1 0xA0 DUP7 ADD MSTORE PUSH1 0xA4 CALLDATALOAD PUSH1 0xC0 DUP7 ADD MSTORE PUSH1 0x0 PUSH1 0xE0 DUP7 ADD MSTORE CALLER PUSH2 0x100 DUP7 ADD MSTORE PUSH1 0x1 PUSH2 0x120 DUP7 ADD MSTORE PUSH2 0x140 DUP6 ADD MSTORE PUSH2 0x160 DUP5 ADD MSTORE DUP2 PUSH1 0x0 MSTORE PUSH1 0x2 PUSH1 0x20 MSTORE PUSH1 0x40 PUSH1 0x0 KECCAK256 SWAP3 DUP1 MLOAD DUP5 SSTORE PUSH1 0x20 DUP2 ADD MLOAD DUP1 MLOAD SWAP1 PUSH1 0x1 PUSH1 0x1 PUSH1 0x40 SHL SUB DUP3 GT PUSH2 0x516 JUMPI DUP2 SWAP1 PUSH2 0xB2D PUSH1 0x1 DUP9 ADD SLOAD PUSH2 0x1EE9 JUMP JUMPDEST PUSH1 0x1F DUP2 GT PUSH2 0x1088 JUMPI JUMPDEST POP PUSH1 0x20 SWAP1 PUSH1 0x1F DUP4 GT PUSH1 0x1 EQ PUSH2 0x1016 JUMPI PUSH1 0x0 SWAP3 PUSH2 0x100B JUMPI JUMPDEST POP POP DUP2 PUSH1 0x1 SHL SWAP2 PUSH1 0x0 NOT SWAP1 PUSH1 0x3 SHL SHR NOT AND OR PUSH1 0x1 DUP6 ADD SSTORE JUMPDEST PUSH1 0x40 DUP2 ADD MLOAD DUP1 MLOAD SWAP1 PUSH1 0x1 PUSH1 0x1 PUSH1 0x40 SHL SUB DUP3 GT PUSH2 0x516 JUMPI DUP2 SWAP1 PUSH2 0xB8A PUSH1 0x2 DUP9 ADD SLOAD PUSH2 0x1EE9 JUMP JUMPDEST PUSH1 0x1F DUP2 GT PUSH2 0xFD6 JUMPI JUMPDEST POP PUSH1 0x20 SWAP1 PUSH1 0x1F DUP4 GT PUSH1 0x1 EQ PUSH2 0xF64 JUMPI PUSH1 0x0 SWAP3 PUSH2 0xF59 JUMPI JUMPDEST POP POP DUP2 PUSH1 0x1 SHL SWAP2 PUSH1 0x0 NOT SWAP1 PUSH1 0x3 SHL SHR NOT AND OR PUSH1 0x2 DUP6 ADD SSTORE JUMPDEST PUSH1 0x60 DUP2 ADD MLOAD PUSH1 0x3 DUP6 ADD SSTORE PUSH1 0x80 DUP2 ADD MLOAD PUSH1 0x4 DUP6 ADD SSTORE PUSH1 0xA0 DUP2 ADD MLOAD PUSH1 0x5 DUP6 ADD SSTORE PUSH1 0xC0 DUP2 ADD MLOAD PUSH1 0x6 DUP6 ADD SSTORE PUSH1 0xE0 DUP2 ADD MLOAD PUSH1 0x7 DUP6 ADD SSTORE PUSH1 0x8 DUP5 ADD PUSH1 0x1 DUP1 PUSH1 0xA0 SHL SUB PUSH2 0x100 DUP4 ADD MLOAD AND DUP2 SLOAD SWAP1 PUSH1 0xFF PUSH1 0xA0 SHL PUSH2 0x120 DUP6 ADD MLOAD ISZERO ISZERO PUSH1 0xA0 SHL AND SWAP2 PUSH11 0xFFFFFFFFFFFFFFFFFFFFFF PUSH1 0xA8 SHL AND OR OR SWAP1 SSTORE PUSH2 0x140 DUP2 ADD MLOAD DUP1 MLOAD SWAP1 PUSH1 0x1 PUSH1 0x1 PUSH1 0x40 SHL SUB DUP3 GT PUSH2 0x516 JUMPI PUSH2 0xC53 PUSH1 0x9 DUP8 ADD SLOAD PUSH2 0x1EE9 JUMP JUMPDEST PUSH1 0x1F DUP2 GT PUSH2 0xF24 JUMPI JUMPDEST POP PUSH1 0x20 SWAP1 PUSH1 0x1F DUP4 GT PUSH1 0x1 EQ PUSH2 0xEB0 JUMPI PUSH2 0x160 SWAP4 SWAP3 SWAP2 PUSH1 0x0 SWAP2 DUP4 PUSH2 0xEA5 JUMPI JUMPDEST POP POP DUP2 PUSH1 0x1 SHL SWAP2 PUSH1 0x0 NOT SWAP1 PUSH1 0x3 SHL SHR NOT AND OR PUSH1 0x9 DUP7 ADD SSTORE JUMPDEST ADD MLOAD DUP1 MLOAD SWAP1 PUSH1 0x1 PUSH1 0x40 SHL DUP3 GT PUSH2 0x516 JUMPI PUSH1 0xA DUP6 ADD SLOAD DUP3 PUSH1 0xA DUP8 ADD SSTORE DUP1 DUP4 LT PUSH2 0xE2D JUMPI JUMPDEST POP PUSH1 0x20 PUSH1 0xA SWAP2 ADD SWAP5 ADD PUSH1 0x0 MSTORE PUSH1 0x20 PUSH1 0x0 KECCAK256 SWAP4 PUSH1 0x0 SWAP1 JUMPDEST DUP3 DUP3 LT PUSH2 0xD18 JUMPI PUSH1 0x20 DUP6 DUP6 DUP2 PUSH32 0xFC695DEA2478FB938A11068AEEDDDD7046A5FE655F136E30A325D353FE187A45 PUSH1 0x40 MLOAD DUP6 DUP2 MSTORE DUP1 PUSH2 0xD0D CALLER SWAP6 DUP9 DUP4 ADD SWAP1 PUSH2 0x2006 JUMP JUMPDEST SUB SWAP1 LOG3 PUSH1 0x40 MLOAD SWAP1 DUP2 MSTORE RETURN JUMPDEST DUP1 MLOAD DUP1 MLOAD SWAP1 PUSH1 0x1 PUSH1 0x1 PUSH1 0x40 SHL SUB DUP3 GT PUSH2 0x516 JUMPI PUSH2 0xD35 DUP9 SLOAD PUSH2 0x1EE9 JUMP JUMPDEST PUSH1 0x1F DUP2 GT PUSH2 0xDFB JUMPI JUMPDEST POP PUSH1 0x20 SWAP1 PUSH1 0x1F DUP4 GT PUSH1 0x1 EQ PUSH2 0xD8B JUMPI SWAP3 DUP3 PUSH1 0x1 SWAP5 SWAP4 PUSH1 0x20 SWAP4 DUP7 SWAP6 PUSH1 0x0 SWAP3 PUSH2 0xD80 JUMPI JUMPDEST POP POP PUSH1 0x0 NOT PUSH1 0x3 DUP4 SWAP1 SHL SHR NOT AND SWAP1 DUP5 SHL OR DUP10 SSTORE JUMPDEST ADD SWAP7 ADD SWAP2 ADD SWAP1 SWAP5 PUSH2 0xCCB JUMP JUMPDEST ADD MLOAD SWAP1 POP DUP12 DUP1 PUSH2 0xD60 JUMP JUMPDEST SWAP1 DUP9 PUSH1 0x0 MSTORE PUSH1 0x20 PUSH1 0x0 KECCAK256 SWAP2 PUSH1 0x0 JUMPDEST PUSH1 0x1F NOT DUP6 AND DUP2 LT PUSH2 0xDE3 JUMPI POP DUP4 PUSH1 0x20 SWAP4 PUSH1 0x1 SWAP7 SWAP4 DUP8 SWAP7 SWAP4 DUP8 SWAP5 PUSH1 0x1F NOT DUP2 AND LT PUSH2 0xDCA JUMPI JUMPDEST POP POP POP DUP2 SHL ADD DUP10 SSTORE PUSH2 0xD74 JUMP JUMPDEST ADD MLOAD PUSH1 0x0 NOT PUSH1 0xF8 DUP5 PUSH1 0x3 SHL AND SHR NOT AND SWAP1 SSTORE DUP12 DUP1 DUP1 PUSH2 0xDBD JUMP JUMPDEST SWAP2 SWAP3 PUSH1 0x20 PUSH1 0x1 DUP2 SWAP3 DUP7 DUP6 ADD MLOAD DUP2 SSTORE ADD SWAP5 ADD SWAP3 ADD PUSH2 0xD99 JUMP JUMPDEST PUSH2 0xE27 SWAP1 DUP10 PUSH1 0x0 MSTORE PUSH1 0x20 PUSH1 0x0 KECCAK256 PUSH1 0x1F DUP6 ADD PUSH1 0x5 SHR DUP2 ADD SWAP2 PUSH1 0x20 DUP7 LT PUSH2 0x50C JUMPI PUSH1 0x1F ADD PUSH1 0x5 SHR ADD SWAP1 PUSH2 0x2282 JUMP JUMPDEST DUP9 PUSH2 0xD3E JUMP JUMPDEST PUSH1 0xA DUP7 ADD PUSH1 0x0 MSTORE PUSH1 0x20 PUSH1 0x0 KECCAK256 SWAP1 DUP4 DUP3 ADD JUMPDEST DUP2 DUP4 ADD DUP2 LT PUSH2 0xE4E JUMPI POP POP PUSH2 0xCB5 JUMP JUMPDEST DUP1 PUSH2 0xE5B PUSH1 0x1 SWAP3 SLOAD PUSH2 0x1EE9 JUMP JUMPDEST DUP1 PUSH2 0xE68 JUMPI JUMPDEST POP ADD PUSH2 0xE3E JUMP JUMPDEST PUSH1 0x1F DUP2 GT DUP4 EQ PUSH2 0xE7E JUMPI POP PUSH1 0x0 DUP2 SSTORE JUMPDEST DUP10 PUSH2 0xE61 JUMP JUMPDEST PUSH1 0x0 SWAP1 DUP3 DUP3 MSTORE PUSH2 0xE9C PUSH1 0x1F PUSH1 0x20 DUP5 KECCAK256 SWAP3 ADD PUSH1 0x5 SHR DUP3 ADD DUP6 DUP4 ADD PUSH2 0x2282 JUMP JUMPDEST DUP2 DUP4 SSTORE SSTORE PUSH2 0xE78 JUMP JUMPDEST ADD MLOAD SWAP1 POP DUP8 DUP1 PUSH2 0xC7A JUMP JUMPDEST SWAP1 PUSH1 0x9 DUP8 ADD PUSH1 0x0 MSTORE PUSH1 0x20 PUSH1 0x0 KECCAK256 SWAP2 PUSH1 0x0 JUMPDEST PUSH1 0x1F NOT DUP6 AND DUP2 LT PUSH2 0xF0C JUMPI POP SWAP2 DUP4 SWAP2 PUSH1 0x1 SWAP4 PUSH2 0x160 SWAP7 SWAP6 PUSH1 0x1F NOT DUP2 AND LT PUSH2 0xEF3 JUMPI JUMPDEST POP POP POP DUP2 SHL ADD PUSH1 0x9 DUP7 ADD SSTORE PUSH2 0xC92 JUMP JUMPDEST ADD MLOAD PUSH1 0x0 NOT PUSH1 0xF8 DUP5 PUSH1 0x3 SHL AND SHR NOT AND SWAP1 SSTORE DUP8 DUP1 DUP1 PUSH2 0xEE3 JUMP JUMPDEST SWAP2 SWAP3 PUSH1 0x20 PUSH1 0x1 DUP2 SWAP3 DUP7 DUP6 ADD MLOAD DUP2 SSTORE ADD SWAP5 ADD SWAP3 ADD PUSH2 0xEC1 JUMP JUMPDEST PUSH2 0xF53 SWAP1 PUSH1 0x9 DUP9 ADD PUSH1 0x0 MSTORE PUSH1 0x20 PUSH1 0x0 KECCAK256 PUSH1 0x1F DUP6 ADD PUSH1 0x5 SHR DUP2 ADD SWAP2 PUSH1 0x20 DUP7 LT PUSH2 0x50C JUMPI PUSH1 0x1F ADD PUSH1 0x5 SHR ADD SWAP1 PUSH2 0x2282 JUMP JUMPDEST DUP7 PUSH2 0xC5C JUMP JUMPDEST ADD MLOAD SWAP1 POP DUP7 DUP1 PUSH2 0xBAA JUMP JUMPDEST SWAP3 POP PUSH1 0x2 DUP8 ADD PUSH1 0x0 MSTORE PUSH1 0x20 PUSH1 0x0 KECCAK256 SWAP1 PUSH1 0x0 SWAP4 JUMPDEST PUSH1 0x1F NOT DUP5 AND DUP6 LT PUSH2 0xFBB JUMPI PUSH1 0x1 SWAP5 POP DUP4 PUSH1 0x1F NOT DUP2 AND LT PUSH2 0xFA2 JUMPI JUMPDEST POP POP POP DUP2 SHL ADD PUSH1 0x2 DUP6 ADD SSTORE PUSH2 0xBC2 JUMP JUMPDEST ADD MLOAD PUSH1 0x0 NOT PUSH1 0xF8 DUP5 PUSH1 0x3 SHL AND SHR NOT AND SWAP1 SSTORE DUP7 DUP1 DUP1 PUSH2 0xF92 JUMP JUMPDEST DUP2 DUP2 ADD MLOAD DUP4 SSTORE PUSH1 0x20 SWAP5 DUP6 ADD SWAP5 PUSH1 0x1 SWAP1 SWAP4 ADD SWAP3 SWAP1 SWAP2 ADD SWAP1 PUSH2 0xF77 JUMP JUMPDEST PUSH2 0x1005 SWAP1 PUSH1 0x2 DUP10 ADD PUSH1 0x0 MSTORE PUSH1 0x20 PUSH1 0x0 KECCAK256 PUSH1 0x1F DUP6 ADD PUSH1 0x5 SHR DUP2 ADD SWAP2 PUSH1 0x20 DUP7 LT PUSH2 0x50C JUMPI PUSH1 0x1F ADD PUSH1 0x5 SHR ADD SWAP1 PUSH2 0x2282 JUMP JUMPDEST DUP8 PUSH2 0xB93 JUMP JUMPDEST ADD MLOAD SWAP1 POP DUP7 DUP1 PUSH2 0xB4D JUMP JUMPDEST SWAP3 POP PUSH1 0x1 DUP8 ADD PUSH1 0x0 MSTORE PUSH1 0x20 PUSH1 0x0 KECCAK256 SWAP1 PUSH1 0x0 SWAP4 JUMPDEST PUSH1 0x1F NOT DUP5 AND DUP6 LT PUSH2 0x106D JUMPI PUSH1 0x1 SWAP5 POP DUP4 PUSH1 0x1F NOT DUP2 AND LT PUSH2 0x1054 JUMPI JUMPDEST POP POP POP DUP2 SHL ADD PUSH1 0x1 DUP6 ADD SSTORE PUSH2 0xB65 JUMP JUMPDEST ADD MLOAD PUSH1 0x0 NOT PUSH1 0xF8 DUP5 PUSH1 0x3 SHL AND SHR NOT AND SWAP1 SSTORE DUP7 DUP1 DUP1 PUSH2 0x1044 JUMP JUMPDEST DUP2 DUP2 ADD MLOAD DUP4 SSTORE PUSH1 0x20 SWAP5 DUP6 ADD SWAP5 PUSH1 0x1 SWAP1 SWAP4 ADD SWAP3 SWAP1 SWAP2 ADD SWAP1 PUSH2 0x1029 JUMP JUMPDEST PUSH2 0x10B7 SWAP1 PUSH1 0x1 DUP10 ADD PUSH1 0x0 MSTORE PUSH1 0x20 PUSH1 0x0 KECCAK256 PUSH1 0x1F DUP6 ADD PUSH1 0x5 SHR DUP2 ADD SWAP2 PUSH1 0x20 DUP7 LT PUSH2 0x50C JUMPI PUSH1 0x1F ADD PUSH1 0x5 SHR ADD SWAP1 PUSH2 0x2282 JUMP JUMPDEST DUP8 PUSH2 0xB36 JUMP JUMPDEST PUSH1 0x40 MLOAD PUSH3 0x461BCD PUSH1 0xE5 SHL DUP2 MSTORE PUSH1 0x20 PUSH1 0x4 DUP3 ADD MSTORE PUSH1 0x1F PUSH1 0x24 DUP3 ADD MSTORE PUSH32 0x4361706163697479206D7573742062652067726561746572207468616E203000 PUSH1 0x44 DUP3 ADD MSTORE PUSH1 0x64 SWAP1 REVERT JUMPDEST PUSH1 0x40 MLOAD PUSH3 0x461BCD PUSH1 0xE5 SHL DUP2 MSTORE PUSH1 0x20 PUSH1 0x4 DUP3 ADD MSTORE PUSH1 0x15 PUSH1 0x24 DUP3 ADD MSTORE PUSH21 0x5469746C652063616E6E6F7420626520656D707479 PUSH1 0x58 SHL PUSH1 0x44 DUP3 ADD MSTORE PUSH1 0x64 SWAP1 REVERT JUMPDEST CALLVALUE PUSH2 0x85B JUMPI PUSH1 0x0 CALLDATASIZE PUSH1 0x3 NOT ADD SLT PUSH2 0x85B JUMPI PUSH1 0x7 SLOAD PUSH1 0x40 MLOAD PUSH1 0x1 PUSH1 0x1 PUSH1 0xA0 SHL SUB SWAP1 SWAP2 AND DUP2 MSTORE PUSH1 0x20 SWAP1 RETURN JUMPDEST CALLVALUE PUSH2 0x85B JUMPI PUSH1 0x20 CALLDATASIZE PUSH1 0x3 NOT ADD SLT PUSH2 0x85B JUMPI PUSH1 0x4 CALLDATALOAD PUSH2 0x1184 PUSH2 0x217A JUMP JUMPDEST PUSH1 0x14 DUP2 GT PUSH2 0x1191 JUMPI PUSH1 0x5 SSTORE STOP JUMPDEST PUSH1 0x40 MLOAD PUSH3 0x461BCD PUSH1 0xE5 SHL DUP2 MSTORE PUSH1 0x20 PUSH1 0x4 DUP3 ADD MSTORE PUSH1 0x1E PUSH1 0x24 DUP3 ADD MSTORE PUSH32 0x506C6174666F726D206665652063616E6E6F7420657863656564203230250000 PUSH1 0x44 DUP3 ADD MSTORE PUSH1 0x64 SWAP1 REVERT JUMPDEST CALLVALUE PUSH2 0x85B JUMPI PUSH1 0x20 DUP1 PUSH1 0x3 NOT CALLDATASIZE ADD SLT PUSH2 0x85B JUMPI PUSH2 0x11F0 PUSH2 0x1EBD JUMP JUMPDEST PUSH1 0x4 SLOAD PUSH2 0x11FC DUP2 PUSH2 0x233D JUMP JUMPDEST SWAP3 PUSH1 0x0 SWAP3 PUSH1 0x1 PUSH1 0x1 PUSH1 0xA0 SHL SUB SWAP1 DUP2 AND SWAP2 PUSH1 0x1 JUMPDEST DUP5 DUP2 GT ISZERO PUSH2 0x1263 JUMPI DUP7 DUP7 PUSH2 0x1222 DUP2 PUSH2 0x233D JUMP JUMPDEST SWAP2 PUSH1 0x0 JUMPDEST DUP3 DUP2 LT PUSH2 0x123F JUMPI PUSH1 0x40 MLOAD DUP1 PUSH2 0x123B DUP7 DUP3 PUSH2 0x2046 JUMP JUMPDEST SUB SWAP1 RETURN JUMPDEST DUP1 PUSH2 0x124D PUSH2 0x125E SWAP3 DUP5 PUSH2 0x236F JUMP JUMPDEST MLOAD PUSH2 0x1258 DUP3 DUP8 PUSH2 0x236F JUMP JUMPDEST MSTORE PUSH2 0x2273 JUMP JUMPDEST PUSH2 0x1226 JUMP JUMPDEST DUP1 PUSH1 0x0 MSTORE PUSH1 0x2 DUP3 MSTORE DUP4 DUP4 PUSH1 0x8 PUSH1 0x40 PUSH1 0x0 KECCAK256 ADD SLOAD AND EQ PUSH2 0x128B JUMPI JUMPDEST PUSH2 0x1286 SWAP1 PUSH2 0x2273 JUMP JUMPDEST PUSH2 0x120F JUMP JUMPDEST SWAP5 PUSH2 0x129E DUP2 DUP8 PUSH2 0x1258 PUSH2 0x1286 SWAP5 DUP12 PUSH2 0x236F JUMP JUMPDEST SWAP6 SWAP1 POP PUSH2 0x127D JUMP JUMPDEST CALLVALUE PUSH2 0x85B JUMPI PUSH1 0x0 CALLDATASIZE PUSH1 0x3 NOT ADD SLT PUSH2 0x85B JUMPI PUSH1 0x0 SLOAD PUSH1 0x40 MLOAD PUSH1 0x1 PUSH1 0x1 PUSH1 0xA0 SHL SUB SWAP1 SWAP2 AND DUP2 MSTORE PUSH1 0x20 SWAP1 RETURN JUMPDEST CALLVALUE PUSH2 0x85B JUMPI PUSH1 0x0 CALLDATASIZE PUSH1 0x3 NOT ADD SLT PUSH2 0x85B JUMPI PUSH1 0x20 PUSH1 0x4 SLOAD PUSH1 0x40 MLOAD SWAP1 DUP2 MSTORE RETURN JUMPDEST CALLVALUE PUSH2 0x85B JUMPI PUSH1 0x0 CALLDATASIZE PUSH1 0x3 NOT ADD SLT PUSH2 0x85B JUMPI PUSH2 0x1306 PUSH2 0x217A JUMP JUMPDEST PUSH1 0x0 DUP1 SLOAD PUSH1 0x1 PUSH1 0x1 PUSH1 0xA0 SHL SUB NOT DUP2 AND DUP3 SSTORE PUSH1 0x1 PUSH1 0x1 PUSH1 0xA0 SHL SUB AND PUSH32 0x8BE0079C531659141344CD1FD0A4F28419497F9722A3DAAFE3B4186F6B6457E0 DUP3 DUP1 LOG3 STOP JUMPDEST CALLVALUE PUSH2 0x85B JUMPI PUSH1 0x0 CALLDATASIZE PUSH1 0x3 NOT ADD SLT PUSH2 0x85B JUMPI PUSH1 0x20 SELFBALANCE PUSH1 0x40 MLOAD SWAP1 DUP2 MSTORE RETURN JUMPDEST CALLVALUE PUSH2 0x85B JUMPI PUSH1 0x20 CALLDATASIZE PUSH1 0x3 NOT ADD SLT PUSH2 0x85B JUMPI PUSH1 0x4 CALLDATALOAD DUP1 PUSH1 0x0 MSTORE PUSH1 0x2 PUSH1 0x20 MSTORE PUSH2 0x138F PUSH1 0x40 PUSH1 0x0 KECCAK256 SLOAD ISZERO ISZERO PUSH2 0x2299 JUMP JUMPDEST PUSH1 0x0 MSTORE PUSH1 0x2 PUSH1 0x20 MSTORE PUSH1 0x40 PUSH1 0x0 KECCAK256 PUSH1 0x40 MLOAD SWAP1 PUSH2 0x13A9 DUP3 PUSH2 0x1F23 JUMP JUMPDEST DUP1 SLOAD DUP3 MSTORE PUSH2 0x13B9 PUSH1 0x1 DUP3 ADD PUSH2 0x1F60 JUMP JUMPDEST PUSH1 0x20 DUP4 ADD MSTORE PUSH2 0x13CA PUSH1 0x2 DUP3 ADD PUSH2 0x1F60 JUMP JUMPDEST PUSH1 0x40 DUP4 ADD MSTORE PUSH1 0x3 DUP2 ADD SLOAD PUSH1 0x60 DUP4 ADD MSTORE PUSH1 0x4 DUP2 ADD SLOAD PUSH1 0x80 DUP4 ADD MSTORE PUSH1 0x5 DUP2 ADD SLOAD PUSH1 0xA0 DUP4 ADD MSTORE PUSH1 0x6 DUP2 ADD SLOAD PUSH1 0xC0 DUP4 ADD MSTORE PUSH1 0x7 DUP2 ADD SLOAD PUSH1 0xE0 DUP4 ADD MSTORE PUSH1 0xFF PUSH1 0x8 DUP3 ADD SLOAD PUSH1 0x1 DUP1 PUSH1 0xA0 SHL SUB DUP2 AND PUSH2 0x100 DUP6 ADD MSTORE PUSH1 0xA0 SHR AND ISZERO ISZERO PUSH2 0x120 DUP4 ADD MSTORE PUSH2 0x142F PUSH1 0x9 DUP3 ADD PUSH2 0x1F60 JUMP JUMPDEST PUSH2 0x140 DUP4 ADD MSTORE PUSH1 0xA DUP2 ADD SLOAD PUSH2 0x1443 DUP2 PUSH2 0x20E3 JUMP JUMPDEST SWAP1 PUSH2 0x1451 PUSH1 0x40 MLOAD SWAP3 DUP4 PUSH2 0x1F3F JUMP JUMPDEST DUP1 DUP3 MSTORE PUSH1 0x20 DUP3 ADD PUSH1 0xA DUP2 SWAP5 ADD PUSH1 0x0 MSTORE PUSH1 0x20 PUSH1 0x0 KECCAK256 PUSH1 0x0 SWAP2 JUMPDEST DUP4 DUP4 LT PUSH2 0x158A JUMPI DUP7 DUP6 DUP8 DUP2 PUSH2 0x160 DUP5 ADD MSTORE DUP3 MLOAD SWAP2 PUSH1 0x20 DUP5 ADD MLOAD SWAP4 PUSH1 0x40 DUP2 ADD MLOAD SWAP1 PUSH1 0x60 DUP2 ADD MLOAD SWAP1 PUSH1 0x80 DUP2 ADD MLOAD PUSH1 0xA0 DUP3 ADD MLOAD PUSH1 0xC0 DUP4 ADD MLOAD PUSH1 0xE0 DUP5 ADD MLOAD SWAP2 PUSH1 0x1 PUSH1 0xA0 SHL PUSH1 0x1 SWAP1 SUB PUSH2 0x100 DUP7 ADD MLOAD AND SWAP4 PUSH2 0x120 DUP7 ADD MLOAD ISZERO ISZERO SWAP6 PUSH2 0x140 ADD MLOAD SWAP8 PUSH1 0x40 MLOAD SWAP13 DUP14 SWAP13 DUP14 MSTORE DUP13 PUSH2 0x180 PUSH1 0x20 DUP2 SWAP3 ADD MSTORE DUP14 ADD PUSH2 0x14E1 SWAP2 PUSH2 0x2006 JUMP JUMPDEST DUP13 DUP2 SUB PUSH1 0x40 DUP15 ADD MSTORE PUSH2 0x14F2 SWAP2 PUSH2 0x2006 JUMP JUMPDEST SWAP7 PUSH1 0x60 DUP13 ADD MSTORE PUSH1 0x80 DUP12 ADD MSTORE PUSH1 0xA0 DUP11 ADD MSTORE PUSH1 0xC0 DUP10 ADD MSTORE PUSH1 0xE0 DUP9 ADD MSTORE PUSH2 0x100 DUP8 ADD MSTORE PUSH2 0x120 DUP7 ADD MSTORE DUP5 DUP2 SUB PUSH2 0x140 DUP7 ADD MSTORE PUSH2 0x152A SWAP2 PUSH2 0x2006 JUMP JUMPDEST SWAP1 DUP4 DUP3 SUB PUSH2 0x160 DUP6 ADD MSTORE MLOAD DUP1 DUP3 MSTORE PUSH1 0x20 DUP3 ADD SWAP2 DUP2 PUSH1 0x5 SHL DUP2 ADD PUSH1 0x20 ADD SWAP4 SWAP3 PUSH1 0x0 SWAP2 JUMPDEST DUP4 DUP4 LT PUSH2 0x1559 JUMPI DUP7 DUP7 SUB DUP8 RETURN JUMPDEST SWAP2 SWAP4 SWAP6 POP SWAP2 SWAP4 PUSH1 0x20 DUP1 PUSH2 0x1578 PUSH1 0x1 SWAP4 PUSH1 0x1F NOT DUP7 DUP3 SUB ADD DUP8 MSTORE DUP10 MLOAD PUSH2 0x2006 JUMP JUMPDEST SWAP8 ADD SWAP4 ADD SWAP4 ADD SWAP1 SWAP3 DUP7 SWAP6 SWAP5 SWAP3 SWAP4 PUSH2 0x154C JUMP JUMPDEST PUSH1 0x1 PUSH1 0x20 DUP2 SWAP3 PUSH2 0x1599 DUP6 PUSH2 0x1F60 JUMP JUMPDEST DUP2 MSTORE ADD SWAP3 ADD SWAP3 ADD SWAP2 SWAP1 PUSH2 0x1469 JUMP JUMPDEST CALLVALUE PUSH2 0x85B JUMPI PUSH1 0x20 CALLDATASIZE PUSH1 0x3 NOT ADD SLT PUSH2 0x85B JUMPI PUSH2 0x15C0 PUSH2 0x1EBD JUMP JUMPDEST PUSH2 0x15C8 PUSH2 0x217A JUMP JUMPDEST PUSH1 0x1 PUSH1 0x1 PUSH1 0xA0 SHL SUB AND DUP1 ISZERO PUSH2 0x15EF JUMPI PUSH1 0x1 PUSH1 0x1 PUSH1 0x60 SHL SUB PUSH1 0xA0 SHL PUSH1 0x7 SLOAD AND OR PUSH1 0x7 SSTORE PUSH1 0x0 DUP1 RETURN JUMPDEST PUSH1 0x40 MLOAD PUSH3 0x461BCD PUSH1 0xE5 SHL DUP2 MSTORE PUSH1 0x20 PUSH1 0x4 DUP3 ADD MSTORE PUSH1 0x1A PUSH1 0x24 DUP3 ADD MSTORE PUSH32 0x496E76616C6964207469636B6574204E46542061646472657373000000000000 PUSH1 0x44 DUP3 ADD MSTORE PUSH1 0x64 SWAP1 REVERT JUMPDEST CALLVALUE PUSH2 0x85B JUMPI PUSH1 0x40 CALLDATASIZE PUSH1 0x3 NOT ADD SLT PUSH2 0x85B JUMPI PUSH2 0x164D PUSH2 0x1ED3 JUMP JUMPDEST PUSH1 0x4 CALLDATALOAD PUSH1 0x0 MSTORE PUSH1 0x3 PUSH1 0x20 MSTORE PUSH1 0x40 PUSH1 0x0 KECCAK256 SWAP1 PUSH1 0x1 DUP1 PUSH1 0xA0 SHL SUB AND PUSH1 0x0 MSTORE PUSH1 0x20 MSTORE PUSH1 0x20 PUSH1 0xFF PUSH1 0x40 PUSH1 0x0 KECCAK256 SLOAD AND PUSH1 0x40 MLOAD SWAP1 ISZERO ISZERO DUP2 MSTORE RETURN JUMPDEST CALLVALUE PUSH2 0x85B JUMPI PUSH1 0x20 DUP1 PUSH1 0x3 NOT CALLDATASIZE ADD SLT PUSH2 0x85B JUMPI PUSH1 0x4 CALLDATALOAD SWAP1 DUP2 PUSH1 0x0 MSTORE PUSH1 0x2 DUP2 MSTORE PUSH2 0x16AF PUSH1 0x40 PUSH1 0x0 KECCAK256 SLOAD ISZERO ISZERO PUSH2 0x2299 JUMP JUMPDEST DUP2 PUSH1 0x0 MSTORE PUSH1 0x3 DUP2 MSTORE PUSH1 0x40 PUSH1 0x0 KECCAK256 CALLER PUSH1 0x0 MSTORE DUP2 MSTORE PUSH1 0xFF PUSH1 0x40 PUSH1 0x0 KECCAK256 SLOAD AND ISZERO PUSH2 0x1745 JUMPI PUSH1 0x0 DUP3 DUP2 MSTORE PUSH1 0x2 DUP3 MSTORE PUSH1 0x40 DUP1 DUP3 KECCAK256 PUSH1 0x3 DUP5 MSTORE DUP2 DUP4 KECCAK256 CALLER DUP5 MSTORE SWAP1 SWAP4 MSTORE SWAP1 KECCAK256 DUP1 SLOAD PUSH1 0xFF NOT AND SWAP1 SSTORE PUSH1 0x7 ADD DUP1 SLOAD DUP1 ISZERO PUSH2 0x172F JUMPI PUSH1 0x0 NOT ADD SWAP1 SSTORE CALLER SWAP1 PUSH32 0xD7E5581F5ACCF2708572BA158AA9DF7B822D6855BE3657319E94B445A58F7703 PUSH1 0x0 DUP1 LOG3 STOP JUMPDEST PUSH4 0x4E487B71 PUSH1 0xE0 SHL PUSH1 0x0 MSTORE PUSH1 0x11 PUSH1 0x4 MSTORE PUSH1 0x24 PUSH1 0x0 REVERT JUMPDEST PUSH1 0x64 SWAP1 PUSH1 0x40 MLOAD SWAP1 PUSH3 0x461BCD PUSH1 0xE5 SHL DUP3 MSTORE PUSH1 0x4 DUP3 ADD MSTORE PUSH1 0x1D PUSH1 0x24 DUP3 ADD MSTORE PUSH32 0x4E6F74207265676973746572656420666F722074686973206576656E74000000 PUSH1 0x44 DUP3 ADD MSTORE REVERT JUMPDEST PUSH1 0x20 DUP1 PUSH1 0x3 NOT CALLDATASIZE ADD SLT PUSH2 0x85B JUMPI PUSH1 0x4 CALLDATALOAD SWAP1 DUP2 PUSH1 0x0 MSTORE PUSH1 0x2 DUP2 MSTORE PUSH2 0x17B2 PUSH1 0x40 PUSH1 0x0 KECCAK256 SLOAD ISZERO ISZERO PUSH2 0x2299 JUMP JUMPDEST DUP2 PUSH1 0x0 MSTORE PUSH1 0x2 DUP2 MSTORE PUSH1 0xFF PUSH1 0x8 PUSH1 0x40 PUSH1 0x0 KECCAK256 ADD SLOAD PUSH1 0xA0 SHR AND ISZERO PUSH2 0x1B2A JUMPI PUSH1 0x2 PUSH1 0x1 SLOAD EQ PUSH2 0x1AE6 JUMPI PUSH1 0x2 PUSH1 0x1 SSTORE DUP2 PUSH1 0x0 MSTORE PUSH1 0x2 DUP2 MSTORE PUSH1 0x40 PUSH1 0x0 KECCAK256 PUSH1 0x3 DUP3 MSTORE PUSH1 0x40 PUSH1 0x0 KECCAK256 CALLER PUSH1 0x0 MSTORE DUP3 MSTORE PUSH1 0xFF PUSH1 0x40 PUSH1 0x0 KECCAK256 SLOAD AND PUSH2 0x1A97 JUMPI PUSH1 0x7 DUP2 ADD SWAP1 DUP2 SLOAD PUSH1 0x6 DUP3 ADD SLOAD GT ISZERO PUSH2 0x1A52 JUMPI PUSH1 0x5 DUP2 ADD SLOAD CALLVALUE LT PUSH2 0x1A16 JUMPI PUSH1 0x6 SLOAD PUSH1 0x1 PUSH1 0x1 PUSH1 0xA0 SHL SUB SWAP3 SWAP1 DUP4 AND ISZERO PUSH2 0x19D1 JUMPI DUP5 PUSH1 0x0 MSTORE PUSH1 0x3 DUP5 MSTORE PUSH1 0x40 PUSH1 0x0 KECCAK256 CALLER PUSH1 0x0 MSTORE DUP5 MSTORE PUSH1 0x40 PUSH1 0x0 KECCAK256 PUSH1 0x1 PUSH1 0xFF NOT DUP3 SLOAD AND OR SWAP1 SSTORE PUSH2 0x1864 DUP2 SLOAD PUSH2 0x2273 JUMP JUMPDEST SWAP1 SSTORE DUP2 PUSH1 0x8 DUP2 PUSH1 0x6 SLOAD AND SWAP3 ADD SLOAD AND PUSH1 0x40 MLOAD SWAP2 DUP5 DUP4 ADD SWAP2 PUSH4 0x3279C411 PUSH1 0xE0 SHL DUP4 MSTORE DUP7 PUSH1 0x24 DUP6 ADD MSTORE CALLER PUSH1 0x44 DUP6 ADD MSTORE PUSH1 0x64 DUP5 ADD MSTORE CALLVALUE PUSH1 0x84 DUP5 ADD MSTORE PUSH1 0x84 DUP4 MSTORE PUSH1 0xC0 DUP4 ADD SWAP2 DUP4 DUP4 LT PUSH1 0x1 PUSH1 0x1 PUSH1 0x40 SHL SUB DUP5 GT OR PUSH2 0x516 JUMPI PUSH1 0x0 SWAP4 DUP5 SWAP4 PUSH1 0x40 MSTORE MLOAD SWAP2 CALLVALUE SWAP1 GAS CALL RETURNDATASIZE ISZERO PUSH2 0x19CC JUMPI RETURNDATASIZE PUSH2 0x18D4 DUP2 PUSH2 0x2081 JUMP JUMPDEST SWAP1 PUSH2 0x18E2 PUSH1 0x40 MLOAD SWAP3 DUP4 PUSH2 0x1F3F JUMP JUMPDEST DUP2 MSTORE PUSH1 0x0 DUP5 RETURNDATASIZE SWAP3 ADD RETURNDATACOPY JUMPDEST ISZERO PUSH2 0x1987 JUMPI PUSH1 0x7 SLOAD AND DUP1 PUSH2 0x1928 JUMPI JUMPDEST CALLER DUP4 PUSH32 0xB442EFE467D2EF30E62927A3CAE0AFCBC799A8A0944D8A143332E4E5E51CEE5D PUSH1 0x0 DUP1 LOG3 PUSH1 0x1 DUP1 SSTORE STOP JUMPDEST DUP2 PUSH1 0x0 SWAP2 PUSH1 0x64 PUSH1 0x40 MLOAD DUP1 SWAP5 DUP2 SWAP4 PUSH4 0x3C664C3 PUSH1 0xE1 SHL DUP4 MSTORE CALLER PUSH1 0x4 DUP5 ADD MSTORE DUP9 PUSH1 0x24 DUP5 ADD MSTORE CALLER PUSH1 0x44 DUP5 ADD MSTORE GAS CALL DUP1 ISZERO PUSH2 0x986 JUMPI ISZERO PUSH2 0x18FB JUMPI DUP2 RETURNDATASIZE DUP4 GT PUSH2 0x1980 JUMPI JUMPDEST PUSH2 0x1971 DUP2 DUP4 PUSH2 0x1F3F JUMP JUMPDEST DUP2 ADD SUB SLT PUSH2 0x85B JUMPI DUP2 DUP1 PUSH2 0x18FB JUMP JUMPDEST POP RETURNDATASIZE PUSH2 0x1967 JUMP JUMPDEST PUSH1 0x40 MLOAD PUSH3 0x461BCD PUSH1 0xE5 SHL DUP2 MSTORE PUSH1 0x4 DUP2 ADD DUP4 SWAP1 MSTORE PUSH1 0x19 PUSH1 0x24 DUP3 ADD MSTORE PUSH32 0x5061796D656E742070726F63657373696E67206661696C656400000000000000 PUSH1 0x44 DUP3 ADD MSTORE PUSH1 0x64 SWAP1 REVERT JUMPDEST PUSH2 0x18EC JUMP JUMPDEST PUSH1 0x40 MLOAD PUSH3 0x461BCD PUSH1 0xE5 SHL DUP2 MSTORE PUSH1 0x4 DUP2 ADD DUP6 SWAP1 MSTORE PUSH1 0x18 PUSH1 0x24 DUP3 ADD MSTORE PUSH32 0x5061796D656E7450726F636573736F72206E6F74207365740000000000000000 PUSH1 0x44 DUP3 ADD MSTORE PUSH1 0x64 SWAP1 REVERT JUMPDEST PUSH1 0x40 MLOAD PUSH3 0x461BCD PUSH1 0xE5 SHL DUP2 MSTORE PUSH1 0x4 DUP2 ADD DUP5 SWAP1 MSTORE PUSH1 0x14 PUSH1 0x24 DUP3 ADD MSTORE PUSH20 0x125B9CDD59999A58DA595B9D081C185E5B595B9D PUSH1 0x62 SHL PUSH1 0x44 DUP3 ADD MSTORE PUSH1 0x64 SWAP1 REVERT JUMPDEST PUSH1 0x40 MLOAD PUSH3 0x461BCD PUSH1 0xE5 SHL DUP2 MSTORE PUSH1 0x4 DUP2 ADD DUP5 SWAP1 MSTORE PUSH1 0x19 PUSH1 0x24 DUP3 ADD MSTORE PUSH32 0x4576656E742069732061742066756C6C20636170616369747900000000000000 PUSH1 0x44 DUP3 ADD MSTORE PUSH1 0x64 SWAP1 REVERT JUMPDEST PUSH1 0x40 MLOAD PUSH3 0x461BCD PUSH1 0xE5 SHL DUP2 MSTORE PUSH1 0x4 DUP2 ADD DUP4 SWAP1 MSTORE PUSH1 0x21 PUSH1 0x24 DUP3 ADD MSTORE PUSH32 0x416C7265616479207265676973746572656420666F722074686973206576656E PUSH1 0x44 DUP3 ADD MSTORE PUSH1 0x1D PUSH1 0xFA SHL PUSH1 0x64 DUP3 ADD MSTORE PUSH1 0x84 SWAP1 REVERT JUMPDEST PUSH1 0x64 SWAP1 PUSH1 0x40 MLOAD SWAP1 PUSH3 0x461BCD PUSH1 0xE5 SHL DUP3 MSTORE PUSH1 0x4 DUP3 ADD MSTORE PUSH1 0x1F PUSH1 0x24 DUP3 ADD MSTORE PUSH32 0x5265656E7472616E637947756172643A207265656E7472616E742063616C6C00 PUSH1 0x44 DUP3 ADD MSTORE REVERT JUMPDEST PUSH1 0x64 SWAP1 PUSH1 0x40 MLOAD SWAP1 PUSH3 0x461BCD PUSH1 0xE5 SHL DUP3 MSTORE PUSH1 0x4 DUP3 ADD MSTORE PUSH1 0x13 PUSH1 0x24 DUP3 ADD MSTORE PUSH19 0x4576656E74206973206E6F7420616374697665 PUSH1 0x68 SHL PUSH1 0x44 DUP3 ADD MSTORE REVERT JUMPDEST CALLVALUE PUSH2 0x85B JUMPI PUSH1 0x20 DUP1 PUSH1 0x3 NOT CALLDATASIZE ADD SLT PUSH2 0x85B JUMPI PUSH1 0x4 CALLDATALOAD SWAP1 DUP2 PUSH1 0x0 MSTORE PUSH1 0x2 DUP2 MSTORE PUSH2 0x1B92 PUSH1 0x40 PUSH1 0x0 KECCAK256 SLOAD ISZERO ISZERO PUSH2 0x2299 JUMP JUMPDEST DUP2 PUSH1 0x0 MSTORE PUSH1 0x2 DUP2 MSTORE PUSH2 0x1BB5 PUSH1 0x1 DUP1 PUSH1 0xA0 SHL SUB PUSH1 0x8 PUSH1 0x40 PUSH1 0x0 KECCAK256 ADD SLOAD AND CALLER EQ PUSH2 0x22DC JUMP JUMPDEST DUP2 PUSH1 0x0 MSTORE PUSH1 0x2 DUP2 MSTORE PUSH1 0xFF PUSH1 0x8 PUSH1 0x40 PUSH1 0x0 KECCAK256 ADD SLOAD PUSH1 0xA0 SHR AND ISZERO PUSH2 0x1C13 JUMPI PUSH1 0x0 DUP3 DUP2 MSTORE PUSH1 0x2 SWAP1 SWAP2 MSTORE PUSH1 0x40 DUP2 KECCAK256 PUSH1 0x8 ADD DUP1 SLOAD PUSH1 0xFF PUSH1 0xA0 SHL NOT AND SWAP1 SSTORE PUSH32 0xDC3CB569B066460F4A22DFFA05317BDCCE5D3826382ED49A21F13E5FA2063D39 SWAP1 DUP1 LOG2 STOP JUMPDEST PUSH1 0x64 SWAP1 PUSH1 0x40 MLOAD SWAP1 PUSH3 0x461BCD PUSH1 0xE5 SHL DUP3 MSTORE PUSH1 0x4 DUP3 ADD MSTORE PUSH1 0x1A PUSH1 0x24 DUP3 ADD MSTORE PUSH32 0x4576656E7420697320616C72656164792063616E63656C6C6564000000000000 PUSH1 0x44 DUP3 ADD MSTORE REVERT JUMPDEST CALLVALUE PUSH2 0x85B JUMPI PUSH1 0x0 CALLDATASIZE PUSH1 0x3 NOT ADD SLT PUSH2 0x85B JUMPI PUSH1 0x4 SLOAD PUSH2 0x1C74 DUP2 PUSH2 0x233D JUMP JUMPDEST SWAP1 PUSH1 0x0 SWAP1 PUSH1 0x1 JUMPDEST DUP2 DUP2 GT ISZERO PUSH2 0x1CBA JUMPI POP POP PUSH2 0x1C8E DUP2 PUSH2 0x233D JUMP JUMPDEST SWAP2 PUSH1 0x0 JUMPDEST DUP3 DUP2 LT PUSH2 0x1CA7 JUMPI PUSH1 0x40 MLOAD DUP1 PUSH2 0x123B DUP7 DUP3 PUSH2 0x2046 JUMP JUMPDEST DUP1 PUSH2 0x124D PUSH2 0x1CB5 SWAP3 DUP5 PUSH2 0x236F JUMP JUMPDEST PUSH2 0x1C92 JUMP JUMPDEST DUP1 PUSH1 0x0 MSTORE PUSH1 0x2 PUSH1 0x20 MSTORE PUSH1 0xFF PUSH1 0x8 PUSH1 0x40 PUSH1 0x0 KECCAK256 ADD SLOAD PUSH1 0xA0 SHR AND PUSH2 0x1CE5 JUMPI JUMPDEST PUSH2 0x1CE0 SWAP1 PUSH2 0x2273 JUMP JUMPDEST PUSH2 0x1C7B JUMP JUMPDEST SWAP2 PUSH2 0x1CF8 DUP2 DUP5 PUSH2 0x1258 PUSH2 0x1CE0 SWAP5 DUP9 PUSH2 0x236F JUMP JUMPDEST SWAP3 SWAP1 POP PUSH2 0x1CD7 JUMP JUMPDEST CALLVALUE PUSH2 0x85B JUMPI PUSH1 0x0 CALLDATASIZE PUSH1 0x3 NOT ADD SLT PUSH2 0x85B JUMPI PUSH1 0x20 PUSH1 0x5 SLOAD PUSH1 0x40 MLOAD SWAP1 DUP2 MSTORE RETURN JUMPDEST CALLVALUE PUSH2 0x85B JUMPI PUSH1 0x20 CALLDATASIZE PUSH1 0x3 NOT ADD SLT PUSH2 0x85B JUMPI PUSH1 0x4 CALLDATALOAD PUSH1 0x0 MSTORE PUSH1 0x2 PUSH1 0x20 MSTORE PUSH1 0x40 PUSH1 0x0 KECCAK256 DUP1 SLOAD PUSH2 0x123B PUSH2 0x1D50 PUSH1 0x1 DUP5 ADD PUSH2 0x1F60 JUMP JUMPDEST SWAP3 PUSH2 0x1D5D PUSH1 0x2 DUP3 ADD PUSH2 0x1F60 JUMP JUMPDEST PUSH1 0xFF PUSH1 0x3 DUP4 ADD SLOAD SWAP3 PUSH1 0x4 DUP2 ADD SLOAD PUSH1 0x5 DUP3 ADD SLOAD PUSH1 0x6 DUP4 ADD SLOAD SWAP1 PUSH1 0x7 DUP5 ADD SLOAD SWAP3 PUSH2 0x1DBB PUSH2 0x1D8F PUSH1 0x9 PUSH1 0x8 DUP9 ADD SLOAD SWAP8 ADD PUSH2 0x1F60 JUMP JUMPDEST SWAP8 PUSH2 0x1DAD PUSH1 0x40 MLOAD SWAP14 DUP15 SWAP14 DUP15 MSTORE DUP14 PUSH2 0x160 SWAP1 DUP2 PUSH1 0x20 DUP3 ADD MSTORE ADD SWAP1 PUSH2 0x2006 JUMP JUMPDEST DUP13 DUP2 SUB PUSH1 0x40 DUP15 ADD MSTORE SWAP1 PUSH2 0x2006 JUMP JUMPDEST SWAP8 PUSH1 0x60 DUP12 ADD MSTORE PUSH1 0x80 DUP11 ADD MSTORE PUSH1 0xA0 DUP10 ADD MSTORE PUSH1 0xC0 DUP9 ADD MSTORE PUSH1 0xE0 DUP8 ADD MSTORE PUSH1 0x1 DUP1 PUSH1 0xA0 SHL SUB DUP2 AND PUSH2 0x100 DUP8 ADD MSTORE PUSH1 0xA0 SHR AND ISZERO ISZERO PUSH2 0x120 DUP6 ADD MSTORE DUP4 DUP3 SUB PUSH2 0x140 DUP6 ADD MSTORE PUSH2 0x2006 JUMP JUMPDEST CALLVALUE PUSH2 0x85B JUMPI PUSH1 0x20 CALLDATASIZE PUSH1 0x3 NOT ADD SLT PUSH2 0x85B JUMPI PUSH2 0x1E17 PUSH2 0x1EBD JUMP JUMPDEST PUSH2 0x1E1F PUSH2 0x217A JUMP JUMPDEST PUSH1 0x1 PUSH1 0x1 PUSH1 0xA0 SHL SUB SWAP1 DUP2 AND SWAP1 DUP2 ISZERO PUSH2 0x1E6E JUMPI PUSH1 0x6 SLOAD DUP3 PUSH1 0x1 PUSH1 0x1 PUSH1 0x60 SHL SUB PUSH1 0xA0 SHL DUP3 AND OR PUSH1 0x6 SSTORE AND PUSH32 0x136038487AABF3739B91ACB5EB89BF0DA13241B5F155CC8EDCCE2B5119E7B901 PUSH1 0x0 DUP1 LOG3 STOP JUMPDEST PUSH1 0x40 MLOAD PUSH3 0x461BCD PUSH1 0xE5 SHL DUP2 MSTORE PUSH1 0x20 PUSH1 0x4 DUP3 ADD MSTORE PUSH1 0x21 PUSH1 0x24 DUP3 ADD MSTORE PUSH32 0x496E76616C6964207061796D656E742070726F636573736F7220616464726573 PUSH1 0x44 DUP3 ADD MSTORE PUSH1 0x73 PUSH1 0xF8 SHL PUSH1 0x64 DUP3 ADD MSTORE PUSH1 0x84 SWAP1 REVERT JUMPDEST PUSH1 0x4 CALLDATALOAD SWAP1 PUSH1 0x1 PUSH1 0x1 PUSH1 0xA0 SHL SUB DUP3 AND DUP3 SUB PUSH2 0x85B JUMPI JUMP JUMPDEST PUSH1 0x24 CALLDATALOAD SWAP1 PUSH1 0x1 PUSH1 0x1 PUSH1 0xA0 SHL SUB DUP3 AND DUP3 SUB PUSH2 0x85B JUMPI JUMP JUMPDEST SWAP1 PUSH1 0x1 DUP3 DUP2 SHR SWAP3 AND DUP1 ISZERO PUSH2 0x1F19 JUMPI JUMPDEST PUSH1 0x20 DUP4 LT EQ PUSH2 0x1F03 JUMPI JUMP JUMPDEST PUSH4 0x4E487B71 PUSH1 0xE0 SHL PUSH1 0x0 MSTORE PUSH1 0x22 PUSH1 0x4 MSTORE PUSH1 0x24 PUSH1 0x0 REVERT JUMPDEST SWAP2 PUSH1 0x7F AND SWAP2 PUSH2 0x1EF8 JUMP JUMPDEST PUSH2 0x180 DUP2 ADD SWAP1 DUP2 LT PUSH1 0x1 PUSH1 0x1 PUSH1 0x40 SHL SUB DUP3 GT OR PUSH2 0x516 JUMPI PUSH1 0x40 MSTORE JUMP JUMPDEST SWAP1 PUSH1 0x1F DUP1 NOT SWAP2 ADD AND DUP2 ADD SWAP1 DUP2 LT PUSH1 0x1 PUSH1 0x1 PUSH1 0x40 SHL SUB DUP3 GT OR PUSH2 0x516 JUMPI PUSH1 0x40 MSTORE JUMP JUMPDEST SWAP1 PUSH1 0x40 MLOAD SWAP2 DUP3 PUSH1 0x0 DUP3 SLOAD SWAP3 PUSH2 0x1F74 DUP5 PUSH2 0x1EE9 JUMP JUMPDEST SWAP1 DUP2 DUP5 MSTORE PUSH1 0x1 SWAP5 DUP6 DUP2 AND SWAP1 DUP2 PUSH1 0x0 EQ PUSH2 0x1FE3 JUMPI POP PUSH1 0x1 EQ PUSH2 0x1FA0 JUMPI JUMPDEST POP POP PUSH2 0x1F9E SWAP3 POP SUB DUP4 PUSH2 0x1F3F JUMP JUMPDEST JUMP JUMPDEST SWAP1 SWAP4 SWAP2 POP PUSH1 0x0 MSTORE PUSH1 0x20 SWAP1 DUP2 PUSH1 0x0 KECCAK256 SWAP4 PUSH1 0x0 SWAP2 JUMPDEST DUP2 DUP4 LT PUSH2 0x1FCB JUMPI POP POP PUSH2 0x1F9E SWAP4 POP DUP3 ADD ADD CODESIZE DUP1 PUSH2 0x1F90 JUMP JUMPDEST DUP6 SLOAD DUP9 DUP5 ADD DUP6 ADD MSTORE SWAP5 DUP6 ADD SWAP5 DUP8 SWAP5 POP SWAP2 DUP4 ADD SWAP2 PUSH2 0x1FB3 JUMP JUMPDEST SWAP2 POP POP PUSH2 0x1F9E SWAP5 POP PUSH1 0x20 SWAP3 POP PUSH1 0xFF NOT AND DUP3 DUP5 ADD MSTORE ISZERO ISZERO PUSH1 0x5 SHL DUP3 ADD ADD CODESIZE DUP1 PUSH2 0x1F90 JUMP JUMPDEST SWAP2 SWAP1 DUP3 MLOAD SWAP3 DUP4 DUP3 MSTORE PUSH1 0x0 JUMPDEST DUP5 DUP2 LT PUSH2 0x2032 JUMPI POP POP DUP3 PUSH1 0x0 PUSH1 0x20 DUP1 SWAP5 SWAP6 DUP5 ADD ADD MSTORE PUSH1 0x1F DUP1 NOT SWAP2 ADD AND ADD ADD SWAP1 JUMP JUMPDEST PUSH1 0x20 DUP2 DUP4 ADD DUP2 ADD MLOAD DUP5 DUP4 ADD DUP3 ADD MSTORE ADD PUSH2 0x2011 JUMP JUMPDEST PUSH1 0x20 SWAP1 DUP2 PUSH1 0x40 DUP2 DUP4 ADD SWAP3 DUP3 DUP2 MSTORE DUP6 MLOAD DUP1 SWAP5 MSTORE ADD SWAP4 ADD SWAP2 PUSH1 0x0 JUMPDEST DUP3 DUP2 LT PUSH2 0x206D JUMPI POP POP POP POP SWAP1 JUMP JUMPDEST DUP4 MLOAD DUP6 MSTORE SWAP4 DUP2 ADD SWAP4 SWAP3 DUP2 ADD SWAP3 PUSH1 0x1 ADD PUSH2 0x205F JUMP JUMPDEST PUSH1 0x1 PUSH1 0x1 PUSH1 0x40 SHL SUB DUP2 GT PUSH2 0x516 JUMPI PUSH1 0x1F ADD PUSH1 0x1F NOT AND PUSH1 0x20 ADD SWAP1 JUMP JUMPDEST DUP2 PUSH1 0x1F DUP3 ADD SLT ISZERO PUSH2 0x85B JUMPI DUP1 CALLDATALOAD SWAP1 PUSH2 0x20B3 DUP3 PUSH2 0x2081 JUMP JUMPDEST SWAP3 PUSH2 0x20C1 PUSH1 0x40 MLOAD SWAP5 DUP6 PUSH2 0x1F3F JUMP JUMPDEST DUP3 DUP5 MSTORE PUSH1 0x20 DUP4 DUP4 ADD ADD GT PUSH2 0x85B JUMPI DUP2 PUSH1 0x0 SWAP3 PUSH1 0x20 DUP1 SWAP4 ADD DUP4 DUP7 ADD CALLDATACOPY DUP4 ADD ADD MSTORE SWAP1 JUMP JUMPDEST PUSH1 0x1 PUSH1 0x1 PUSH1 0x40 SHL SUB DUP2 GT PUSH2 0x516 JUMPI PUSH1 0x5 SHL PUSH1 0x20 ADD SWAP1 JUMP JUMPDEST SWAP1 DUP1 PUSH1 0x1F DUP4 ADD SLT ISZERO PUSH2 0x85B JUMPI DUP2 CALLDATALOAD SWAP1 PUSH2 0x2112 DUP3 PUSH2 0x20E3 JUMP JUMPDEST SWAP3 PUSH2 0x2120 PUSH1 0x40 MLOAD SWAP5 DUP6 PUSH2 0x1F3F JUMP JUMPDEST DUP3 DUP5 MSTORE PUSH1 0x20 SWAP3 DUP4 DUP1 DUP7 ADD SWAP2 PUSH1 0x5 SHL DUP4 ADD ADD SWAP3 DUP1 DUP5 GT PUSH2 0x85B JUMPI DUP5 DUP4 ADD SWAP2 JUMPDEST DUP5 DUP4 LT PUSH2 0x214E JUMPI POP POP POP POP POP POP SWAP1 JUMP JUMPDEST DUP3 CALLDATALOAD PUSH1 0x1 PUSH1 0x1 PUSH1 0x40 SHL SUB DUP2 GT PUSH2 0x85B JUMPI DUP7 SWAP2 PUSH2 0x216F DUP5 DUP5 DUP1 SWAP5 DUP10 ADD ADD PUSH2 0x209C JUMP JUMPDEST DUP2 MSTORE ADD SWAP3 ADD SWAP2 PUSH2 0x213E JUMP JUMPDEST PUSH1 0x0 SLOAD PUSH1 0x1 PUSH1 0x1 PUSH1 0xA0 SHL SUB AND CALLER SUB PUSH2 0x218E JUMPI JUMP JUMPDEST PUSH1 0x64 PUSH1 0x40 MLOAD PUSH3 0x461BCD PUSH1 0xE5 SHL DUP2 MSTORE PUSH1 0x20 PUSH1 0x4 DUP3 ADD MSTORE PUSH1 0x20 PUSH1 0x24 DUP3 ADD MSTORE PUSH32 0x4F776E61626C653A2063616C6C6572206973206E6F7420746865206F776E6572 PUSH1 0x44 DUP3 ADD MSTORE REVERT JUMPDEST ISZERO PUSH2 0x21D9 JUMPI JUMP JUMPDEST PUSH1 0x64 PUSH1 0x40 MLOAD PUSH3 0x461BCD PUSH1 0xE5 SHL DUP2 MSTORE PUSH1 0x20 PUSH1 0x4 DUP3 ADD MSTORE PUSH1 0x20 PUSH1 0x24 DUP3 ADD MSTORE PUSH32 0x53746172742064617465206D75737420626520696E2074686520667574757265 PUSH1 0x44 DUP3 ADD MSTORE REVERT JUMPDEST ISZERO PUSH2 0x2224 JUMPI JUMP JUMPDEST PUSH1 0x40 MLOAD PUSH3 0x461BCD PUSH1 0xE5 SHL DUP2 MSTORE PUSH1 0x20 PUSH1 0x4 DUP3 ADD MSTORE PUSH1 0x21 PUSH1 0x24 DUP3 ADD MSTORE PUSH32 0x456E642064617465206D75737420626520616674657220737461727420646174 PUSH1 0x44 DUP3 ADD MSTORE PUSH1 0x65 PUSH1 0xF8 SHL PUSH1 0x64 DUP3 ADD MSTORE PUSH1 0x84 SWAP1 REVERT JUMPDEST PUSH1 0x0 NOT DUP2 EQ PUSH2 0x172F JUMPI PUSH1 0x1 ADD SWAP1 JUMP JUMPDEST DUP2 DUP2 LT PUSH2 0x228D JUMPI POP POP JUMP JUMPDEST PUSH1 0x0 DUP2 SSTORE PUSH1 0x1 ADD PUSH2 0x2282 JUMP JUMPDEST ISZERO PUSH2 0x22A0 JUMPI JUMP JUMPDEST PUSH1 0x40 MLOAD PUSH3 0x461BCD PUSH1 0xE5 SHL DUP2 MSTORE PUSH1 0x20 PUSH1 0x4 DUP3 ADD MSTORE PUSH1 0x14 PUSH1 0x24 DUP3 ADD MSTORE PUSH20 0x115D995B9D08191BD95CC81B9BDD08195E1A5CDD PUSH1 0x62 SHL PUSH1 0x44 DUP3 ADD MSTORE PUSH1 0x64 SWAP1 REVERT JUMPDEST ISZERO PUSH2 0x22E3 JUMPI JUMP JUMPDEST PUSH1 0x40 MLOAD PUSH3 0x461BCD PUSH1 0xE5 SHL DUP2 MSTORE PUSH1 0x20 PUSH1 0x4 DUP3 ADD MSTORE PUSH1 0x2C PUSH1 0x24 DUP3 ADD MSTORE PUSH32 0x4F6E6C79206576656E74206F7267616E697A65722063616E20706572666F726D PUSH1 0x44 DUP3 ADD MSTORE PUSH12 0x103A3434B99030B1BA34B7B7 PUSH1 0xA1 SHL PUSH1 0x64 DUP3 ADD MSTORE PUSH1 0x84 SWAP1 REVERT JUMPDEST SWAP1 PUSH2 0x2347 DUP3 PUSH2 0x20E3 JUMP JUMPDEST PUSH2 0x2354 PUSH1 0x40 MLOAD SWAP2 DUP3 PUSH2 0x1F3F JUMP JUMPDEST DUP3 DUP2 MSTORE DUP1 SWAP3 PUSH2 0x2365 PUSH1 0x1F NOT SWAP2 PUSH2 0x20E3 JUMP JUMPDEST ADD SWAP1 PUSH1 0x20 CALLDATASIZE SWAP2 ADD CALLDATACOPY JUMP JUMPDEST DUP1 MLOAD DUP3 LT ISZERO PUSH2 0x2383 JUMPI PUSH1 0x20 SWAP2 PUSH1 0x5 SHL ADD ADD SWAP1 JUMP JUMPDEST PUSH4 0x4E487B71 PUSH1 0xE0 SHL PUSH1 0x0 MSTORE PUSH1 0x32 PUSH1 0x4 MSTORE PUSH1 0x24 PUSH1 0x0 REVERT INVALID LOG2 PUSH5 0x6970667358 0x22 SLT KECCAK256 0xCE 0x2D PUSH23 0x58D34F06ACD92D7552596772670D15AB16B65A469B827C SAR ADD 0xA8 0xA5 0xAB GAS PUSH5 0x736F6C6343 STOP ADDMOD SGT STOP CALLER "},"methodIdentifiers":{"cancelEvent(uint256)":"3f69babd","createEvent(string,string,uint256,uint256,uint256,uint256,string,string[])":"c2c02965","eventCount()":"71be2e4a","eventRegistrations(uint256,address)":"3e2c7014","events(uint256)":"0b791430","getActiveEvents()":"3612280f","getContractBalance()":"6f9fb98a","getEvent(uint256)":"6d1884e0","getEventsByOrganizer(address)":"9f6271c3","isUserRegistered(uint256,address)":"57f69799","owner()":"8da5cb5b","paymentProcessor()":"f1c6bdf8","platformFee()":"26232a2e","registerForEvent(uint256)":"406db843","renounceOwnership()":"715018a6","setPaymentProcessor(address)":"088b0d75","setTicketNFT(address)":"6ade389b","ticketNFT()":"b393391b","transferOwnership(address)":"f2fde38b","unregisterFromEvent(uint256)":"4df6dab9","updateEvent(uint256,string,string,uint256,uint256,uint256,uint256,string,string[])":"f4929006","updatePlatformFee(uint256)":"aa0b5988","withdrawPlatformFees()":"d0b7830b"}},"storageLayout":{"storage":[{"astId":7,"contract":"contracts/EventContract.sol:EventContract","label":"_owner","offset":0,"slot":"0","type":"t_address"},{"astId":123,"contract":"contracts/EventContract.sol:EventContract","label":"_status","offset":0,"slot":"1","type":"t_uint256"},{"astId":1461,"contract":"contracts/EventContract.sol:EventContract","label":"events","offset":0,"slot":"2","type":"t_mapping(t_uint256,t_struct(Event)1456_storage)"},{"astId":1467,"contract":"contracts/EventContract.sol:EventContract","label":"eventRegistrations","offset":0,"slot":"3","type":"t_mapping(t_uint256,t_mapping(t_address,t_bool))"},{"astId":1469,"contract":"contracts/EventContract.sol:EventContract","label":"eventCount","offset":0,"slot":"4","type":"t_uint256"},{"astId":1472,"contract":"contracts/EventContract.sol:EventContract","label":"platformFee","offset":0,"slot":"5","type":"t_uint256"},{"astId":1474,"contract":"contracts/EventContract.sol:EventContract","label":"paymentProcessor","offset":0,"slot":"6","type":"t_address"},{"astId":1476,"contract":"contracts/EventContract.sol:EventContract","label":"ticketNFT","offset":0,"slot":"7","type":"t_address"}],"types":{"t_address":{"encoding":"inplace","label":"address","numberOfBytes":"20"},"t_array(t_string_storage)dyn_storage":{"base":"t_string_storage","encoding":"dynamic_array","label":"string[]","numberOfBytes":"32"},"t_bool":{"encoding":"inplace","label":"bool","numberOfBytes":"1"},"t_mapping(t_address,t_bool)":{"encoding":"mapping","key":"t_address","label":"mapping(address => bool)","numberOfBytes":"32","value":"t_bool"},"t_mapping(t_uint256,t_mapping(t_address,t_bool))":{"encoding":"mapping","key":"t_uint256","label":"mapping(uint256 => mapping(address => bool))","numberOfBytes":"32","value":"t_mapping(t_address,t_bool)"},"t_mapping(t_uint256,t_struct(Event)1456_storage)":{"encoding":"mapping","key":"t_uint256","label":"mapping(uint256 => struct EventContract.Event)","numberOfBytes":"32","value":"t_struct(Event)1456_storage"},"t_string_storage":{"encoding":"bytes","label":"string","numberOfBytes":"32"},"t_struct(Event)1456_storage":{"encoding":"inplace","label":"struct EventContract.Event","members":[{"astId":1432,"contract":"contracts/EventContract.sol:EventContract","label":"id","offset":0,"slot":"0","type":"t_uint256"},{"astId":1434,"contract":"contracts/EventContract.sol:EventContract","label":"title","offset":0,"slot":"1","type":"t_string_storage"},{"astId":1436,"contract":"contracts/EventContract.sol:EventContract","label":"description","offset":0,"slot":"2","type":"t_string_storage"},{"astId":1438,"contract":"contracts/EventContract.sol:EventContract","label":"startDate","offset":0,"slot":"3","type":"t_uint256"},{"astId":1440,"contract":"contracts/EventContract.sol:EventContract","label":"endDate","offset":0,"slot":"4","type":"t_uint256"},{"astId":1442,"contract":"contracts/EventContract.sol:EventContract","label":"ticketPrice","offset":0,"slot":"5","type":"t_uint256"},{"astId":1444,"contract":"contracts/EventContract.sol:EventContract","label":"capacity","offset":0,"slot":"6","type":"t_uint256"},{"astId":1446,"contract":"contracts/EventContract.sol:EventContract","label":"registeredCount","offset":0,"slot":"7","type":"t_uint256"},{"astId":1448,"contract":"contracts/EventContract.sol:EventContract","label":"organizer","offset":0,"slot":"8","type":"t_address"},{"astId":1450,"contract":"contracts/EventContract.sol:EventContract","label":"isActive","offset":20,"slot":"8","type":"t_bool"},{"astId":1452,"contract":"contracts/EventContract.sol:EventContract","label":"location","offset":0,"slot":"9","type":"t_string_storage"},{"astId":1455,"contract":"contracts/EventContract.sol:EventContract","label":"categories","offset":0,"slot":"10","type":"t_array(t_string_storage)dyn_storage"}],"numberOfBytes":"352"},"t_uint256":{"encoding":"inplace","label":"uint256","numberOfBytes":"32"}}}}}}