{"contracts/PaymentProcessor.sol":{"PaymentProcessor":{"abi":[{"inputs":[{"internalType":"address","name":"_eventContract","type":"address"},{"internalType":"address","name":"_ticketContract","type":"address"}],"stateMutability":"nonpayable","type":"constructor"},{"anonymous":false,"inputs":[{"indexed":true,"internalType":"address","name":"to","type":"address"},{"indexed":false,"internalType":"uint256","name":"amount","type":"uint256"},{"indexed":false,"internalType":"uint256","name":"timestamp","type":"uint256"}],"name":"EmergencyWithdrawal","type":"event"},{"anonymous":false,"inputs":[{"indexed":true,"internalType":"address","name":"previousOwner","type":"address"},{"indexed":true,"internalType":"address","name":"newOwner","type":"address"}],"name":"OwnershipTransferred","type":"event"},{"anonymous":false,"inputs":[{"indexed":false,"internalType":"address","name":"account","type":"address"}],"name":"Paused","type":"event"},{"anonymous":false,"inputs":[{"indexed":true,"internalType":"uint256","name":"paymentId","type":"uint256"},{"indexed":true,"internalType":"uint256","name":"eventId","type":"uint256"},{"indexed":true,"internalType":"address","name":"payer","type":"address"},{"indexed":false,"internalType":"uint256","name":"amount","type":"uint256"},{"indexed":false,"internalType":"uint256","name":"platformFee","type":"uint256"},{"indexed":false,"internalType":"uint256","name":"organizerShare","type":"uint256"}],"name":"PaymentProcessed","type":"event"},{"anonymous":false,"inputs":[{"indexed":false,"internalType":"uint256","name":"oldFee","type":"uint256"},{"indexed":false,"internalType":"uint256","name":"newFee","type":"uint256"},{"indexed":false,"internalType":"uint256","name":"timestamp","type":"uint256"}],"name":"PlatformFeeUpdated","type":"event"},{"anonymous":false,"inputs":[{"indexed":false,"internalType":"address","name":"account","type":"address"}],"name":"Unpaused","type":"event"},{"anonymous":false,"inputs":[{"indexed":true,"internalType":"address","name":"organizer","type":"address"},{"indexed":false,"internalType":"uint256","name":"amount","type":"uint256"},{"indexed":false,"internalType":"uint256","name":"timestamp","type":"uint256"}],"name":"WithdrawalMade","type":"event"},{"stateMutability":"payable","type":"fallback"},{"inputs":[],"name":"MAX_PLATFORM_FEE","outputs":[{"internalType":"uint256","name":"","type":"uint256"}],"stateMutability":"view","type":"function"},{"inputs":[],"name":"emergencyPause","outputs":[],"stateMutability":"nonpayable","type":"function"},{"inputs":[],"name":"emergencyUnpause","outputs":[],"stateMutability":"nonpayable","type":"function"},{"inputs":[],"name":"eventContract","outputs":[{"internalType":"address","name":"","type":"address"}],"stateMutability":"view","type":"function"},{"inputs":[{"internalType":"uint256","name":"","type":"uint256"},{"internalType":"uint256","name":"","type":"uint256"}],"name":"eventPayments","outputs":[{"internalType":"uint256","name":"","type":"uint256"}],"stateMutability":"view","type":"function"},{"inputs":[],"name":"getContractStats","outputs":[{"internalType":"uint256","name":"totalPayments","type":"uint256"},{"internalType":"uint256","name":"totalVolume","type":"uint256"},{"internalType":"uint256","name":"totalPlatformFees","type":"uint256"},{"internalType":"uint256","name":"contractBalance","type":"uint256"}],"stateMutability":"view","type":"function"},{"inputs":[{"internalType":"uint256","name":"eventId","type":"uint256"}],"name":"getEventPayments","outputs":[{"internalType":"uint256[]","name":"","type":"uint256[]"}],"stateMutability":"view","type":"function"},{"inputs":[{"internalType":"address","name":"organizer","type":"address"}],"name":"getOrganizerBalance","outputs":[{"internalType":"uint256","name":"totalEarned","type":"uint256"},{"internalType":"uint256","name":"availableBalance","type":"uint256"},{"internalType":"uint256","name":"withdrawnAmount","type":"uint256"},{"internalType":"uint256","name":"lastWithdrawal","type":"uint256"}],"stateMutability":"view","type":"function"},{"inputs":[{"internalType":"uint256","name":"paymentId","type":"uint256"}],"name":"getPaymentRecord","outputs":[{"internalType":"uint256","name":"eventId","type":"uint256"},{"internalType":"address","name":"payer","type":"address"},{"internalType":"address","name":"organizer","type":"address"},{"internalType":"uint256","name":"amount","type":"uint256"},{"internalType":"uint256","name":"platformFee","type":"uint256"},{"internalType":"uint256","name":"organizerShare","type":"uint256"},{"internalType":"uint256","name":"timestamp","type":"uint256"},{"internalType":"bool","name":"processed","type":"bool"}],"stateMutability":"view","type":"function"},{"inputs":[{"internalType":"address","name":"organizer","type":"address"},{"internalType":"uint256","name":"limit","type":"uint256"}],"name":"getPaymentsByOrganizer","outputs":[{"internalType":"uint256[]","name":"","type":"uint256[]"}],"stateMutability":"view","type":"function"},{"inputs":[{"internalType":"address","name":"payer","type":"address"},{"internalType":"uint256","name":"limit","type":"uint256"}],"name":"getPaymentsByPayer","outputs":[{"internalType":"uint256[]","name":"","type":"uint256[]"}],"stateMutability":"view","type":"function"},{"inputs":[{"internalType":"address","name":"","type":"address"}],"name":"organizerBalances","outputs":[{"internalType":"uint256","name":"totalEarned","type":"uint256"},{"internalType":"uint256","name":"availableBalance","type":"uint256"},{"internalType":"uint256","name":"withdrawnAmount","type":"uint256"},{"internalType":"uint256","name":"lastWithdrawal","type":"uint256"}],"stateMutability":"view","type":"function"},{"inputs":[],"name":"owner","outputs":[{"internalType":"address","name":"","type":"address"}],"stateMutability":"view","type":"function"},{"inputs":[],"name":"paused","outputs":[{"internalType":"bool","name":"","type":"bool"}],"stateMutability":"view","type":"function"},{"inputs":[],"name":"paymentCount","outputs":[{"internalType":"uint256","name":"","type":"uint256"}],"stateMutability":"view","type":"function"},{"inputs":[{"internalType":"uint256","name":"","type":"uint256"}],"name":"paymentRecords","outputs":[{"internalType":"uint256","name":"eventId","type":"uint256"},{"internalType":"address","name":"payer","type":"address"},{"internalType":"address","name":"organizer","type":"address"},{"internalType":"uint256","name":"amount","type":"uint256"},{"internalType":"uint256","name":"platformFee","type":"uint256"},{"internalType":"uint256","name":"organizerShare","type":"uint256"},{"internalType":"uint256","name":"timestamp","type":"uint256"},{"internalType":"bool","name":"processed","type":"bool"}],"stateMutability":"view","type":"function"},{"inputs":[],"name":"platformFeePercentage","outputs":[{"internalType":"uint256","name":"","type":"uint256"}],"stateMutability":"view","type":"function"},{"inputs":[{"internalType":"uint256","name":"eventId","type":"uint256"},{"internalType":"address","name":"payer","type":"address"},{"internalType":"address","name":"organizer","type":"address"},{"internalType":"uint256","name":"amount","type":"uint256"}],"name":"processPayment","outputs":[],"stateMutability":"payable","type":"function"},{"inputs":[],"name":"renounceOwnership","outputs":[],"stateMutability":"nonpayable","type":"function"},{"inputs":[],"name":"ticketContract","outputs":[{"internalType":"address","name":"","type":"address"}],"stateMutability":"view","type":"function"},{"inputs":[{"internalType":"address","name":"newOwner","type":"address"}],"name":"transferOwnership","outputs":[],"stateMutability":"nonpayable","type":"function"},{"inputs":[{"internalType":"address","name":"_eventContract","type":"address"},{"internalType":"address","name":"_ticketContract","type":"address"}],"name":"updateContractAddresses","outputs":[],"stateMutability":"nonpayable","type":"function"},{"inputs":[{"internalType":"uint256","name":"newFeePercentage","type":"uint256"}],"name":"updatePlatformFee","outputs":[],"stateMutability":"nonpayable","type":"function"},{"inputs":[{"internalType":"uint256","name":"amount","type":"uint256"}],"name":"withdrawOrganizerFunds","outputs":[],"stateMutability":"nonpayable","type":"function"},{"inputs":[],"name":"withdrawPlatformFees","outputs":[],"stateMutability":"nonpayable","type":"function"},{"stateMutability":"payable","type":"receive"}],"evm":{"bytecode":{"linkReferences":{},"object":"60803461017057601f6200174a38819003918201601f19168301916001600160401b0383118484101761017557808492604094855283398101031261017057610053602061004c8361018b565b920161018b565b60008054336001600160a01b0319808316821784556040519590946001600160a01b03949093859391908416907f8be0079c531659141344cd1fd0a4f28419497f9722a3daafe3b4186f6b6457e09080a36001805560ff196002541660025560056007551693841561012e5750169182156100e95781600854161760085560095416176009556040516115aa9081620001a08239f35b60405162461bcd60e51b815260206004820152601f60248201527f496e76616c6964207469636b657420636f6e74726163742061646472657373006044820152606490fd5b62461bcd60e51b815260206004820152601e60248201527f496e76616c6964206576656e7420636f6e7472616374206164647265737300006044820152606490fd5b600080fd5b634e487b7160e01b600052604160045260246000fd5b51906001600160a01b03821682036101705756fe608080604052600436101561001a575b50361561001857005b005b60003560e01c9081630937e68a146112cc575080630b2bad5f146111e15780631ff6dc5b146110f15780633279c41114610cc05780633998a68114610ca45780634a4e3bd514610c1057806350f417b514610a5d57806351858e2714610a035780635691fe631461095e57806358a86e1d146109355780635c975abb146109125780636143653214610860578063715018a614610807578063798929e4146107c05780638da5cb5b146107975780639113e89b146106a5578063aa0b5988146105e0578063b038057814610583578063c1d446be1461045c578063cb5847d0146103e6578063cdd78cfc146103c8578063d0b7830b146102ba578063dfe6b5d61461022c578063e274fd24146102035763f2fde38b1461013a573861000f565b346101fe5760203660031901126101fe576101536112e7565b61015b61137c565b6001600160a01b039081169081156101aa57600054826001600160601b0360a01b821617600055167f8be0079c531659141344cd1fd0a4f28419497f9722a3daafe3b4186f6b6457e0600080a3005b60405162461bcd60e51b815260206004820152602660248201527f4f776e61626c653a206e6577206f776e657220697320746865207a65726f206160448201526564647265737360d01b6064820152608490fd5b600080fd5b346101fe5760003660031901126101fe576008546040516001600160a01b039091168152602090f35b346101fe5760003660031901126101fe576000806001600654915b82821115610275576040805193845260208401949094529282019290925247606082015260809150f35b0390f35b6102ae6102b49183600052600361029960209782895282604060002001549061142f565b9685600052526004604060002001549061142f565b916113e1565b90610247565b346101fe5760003660031901126101fe576102d361137c565b6102db611480565b4780156103835760018060a01b03600080808085858254165af16102fd6114d6565b501561033e5760407f56da9a5ae0bcf6e7c3fdd78a10550e7d0458de1c39bfb7f6e96a3e92dd344a689160005416928151908152426020820152a260018055005b60405162461bcd60e51b815260206004820152601e60248201527f506c6174666f726d20666565207769746864726177616c206661696c656400006044820152606490fd5b60405162461bcd60e51b815260206004820152601c60248201527f4e6f20706c6174666f726d206665657320746f207769746864726177000000006044820152606490fd5b346101fe5760003660031901126101fe576020600754604051908152f35b346101fe576020806003193601126101fe5760043560005260058152604060002090604051908181845491828152019360005281600020916000905b82821061044557610271856104398189038261140d565b60405191829182611313565b835486529485019460019384019390910190610422565b346101fe5760203660031901126101fe5760043580151580610577575b1561053d576000526003602052604060002060405190610498826113f0565b805480835260018201546001600160a01b039081166020808601829052600285015490921660408087018290526003860154606080890182905260048801546080808b0182905260058a015460a0808d0182905260068c015460c0808f018290526007909d015460ff16151560e09e8f0181905288519c8d529a8c0199909952958a019690965291880192909252860152840152928201929092529182015261010090f35b60405162461bcd60e51b8152602060048201526012602482015271125b9d985b1a59081c185e5b595b9d08125160721b6044820152606490fd5b50600654811115610479565b346101fe5760203660031901126101fe576001600160a01b036105a46112e7565b16600090815260046020908152604091829020805460018201546002830154600390930154855192835293820152928301526060820152608090f35b346101fe5760203660031901126101fe576004356105fc61137c565b60148111610655577f50f8ab96ec41b29e295dbc21aa964857bd7ba51c554c209db631610ce392d4569060075490806007556106506040519283924291846040919493926060820195825260208201520152565b0390a1005b60405162461bcd60e51b815260206004820152602260248201527f506c6174666f726d206665652063616e6e6f7420657863656564206d6178696d604482015261756d60f01b6064820152608490fd5b346101fe5760403660031901126101fe576106be6112e7565b600654906024356106ce8361152e565b926000926001600160a01b039081169260019283805b610735575b5050505050506106f88161152e565b9160005b82811061071157604051806102718682611313565b8061071f6107309284611560565b5161072a8287611560565b526113e1565b6106fc565b818111158061078e575b15610789578060005260036020528584600260406000200154161461076e575b610768906113e1565b846106e4565b95610781818861072a610768948c611560565b96905061075f565b6106e9565b5082871061073f565b346101fe5760003660031901126101fe576000546040516001600160a01b039091168152602090f35b346101fe5760403660031901126101fe576024356004356000526005602052604060002080548210156101fe576020916107f99161134e565b90546040519160031b1c8152f35b346101fe5760003660031901126101fe5761082061137c565b600080546001600160a01b0319811682556001600160a01b03167f8be0079c531659141344cd1fd0a4f28419497f9722a3daafe3b4186f6b6457e08280a3005b346101fe5760203660031901126101fe576001600160a01b036108816112e7565b1660005260046020526040600020604051906080820182811067ffffffffffffffff8211176108fc576040526102716060825492838552600181015494856020820152600360028301549283604084015201549283910152604051948594859094939260609260808301968352602083015260408201520152565b634e487b7160e01b600052604160045260246000fd5b346101fe5760003660031901126101fe57602060ff600254166040519015158152f35b346101fe5760003660031901126101fe576009546040516001600160a01b039091168152602090f35b346101fe5760203660031901126101fe5760043560005260036020526040600020805461027160018060a01b03928360018201541693600282015416906003810154600482015460058301549160ff600760068601549501541694604051988998899693909897949160e0969361010089019a895260018060a01b0380921660208a01521660408801526060870152608086015260a085015260c08401521515910152565b346101fe5760003660031901126101fe57610a1c61137c565b610a2461143c565b600160ff1960025416176002557f62e78cea01bee320cd4e420270b5ea74000d11b0c9f74754ebdbfc544b05a2586020604051338152a1005b346101fe576020806003193601126101fe5760043590610a7b611480565b610a8361143c565b33600052600481528160016040600020015410610bcc57662386f26fc100008210610b7a5733600052600481526001604060002001610ac38382546113d4565b905533600052600481526002604060002001610ae083825461142f565b9055336000526004815242600360406000200155600080808085335af1610b056114d6565b5015610b425760405191825242908201527f2d4d49c3e017b8235c908cbaa83a2431a08f3b950712696ece2088964fd399f060403392a260018055005b6064906040519062461bcd60e51b82526004820152601160248201527015da5d1a191c985dd85b0819985a5b1959607a1b6044820152fd5b6084906040519062461bcd60e51b82526004820152602560248201527f4d696e696d756d207769746864726177616c20616d6f756e7420697320302e30604482015264062408aa8960db1b6064820152fd5b6064906040519062461bcd60e51b82526004820152601e60248201527f496e73756666696369656e7420617661696c61626c652062616c616e636500006044820152fd5b346101fe5760003660031901126101fe57610c2961137c565b60025460ff811615610c685760ff19166002557f5db9ee0a495bf2e6ff9c91a7834c1ba4fdd244a5e8aa4e537bd38aeae4b073aa6020604051338152a1005b60405162461bcd60e51b815260206004820152601460248201527314185d5cd8589b194e881b9bdd081c185d5cd95960621b6044820152606490fd5b346101fe5760003660031901126101fe57602060405160148152f35b60803660031901126101fe57610cd46112fd565b60449081356001600160a01b03811681036101fe576008546001600160a01b0316330361109b576064928335156110585768056bc75e2d6310000084351161101557610d1e61143c565b610d26611480565b83353403610fd2576001600160a01b03831615610f97576001600160a01b03821615610f5457506007549182843502928435840403610f3e57610d6c84840485356113d4565b610d776006546113e1565b9283600655604051610d88816113f0565b600435815260018060a01b038416602082015260018060a01b03821660408201528635606082015286860460808201528260a08201524260c0820152600160e082015284600052600360205260e060076040600020835181556001810160018060a01b03602086015116906001600160601b0360a01b9182825416179055600282019060018060a01b0360408701511690825416179055606084015160038201556080840151600482015560a0840151600582015560c0840151600682015501910151151560ff8019835416911617905560018060a01b03811660005260046020526040600020610e7a83825461142f565b905560018060a01b031660005260046020526001604060002001610e9f82825461142f565b90556004356000526005602052604060002091825492680100000000000000008410156108fc5783610ef79160017f768c2afece4bba0e29315be57972444b2ec1ccf51a6e8f0617536baaddb4ff449601815561134e565b815460001960039290921b91821b19169086901b1790556040805187358152969095046020870152938501526001600160a01b03909216926004359290606090a460018055005b634e487b7160e01b600052601160045260246000fd5b83907f496e76616c6964206f7267616e697a65722061646472657373000000000000006040519162461bcd60e51b83526020600484015260196024840152820152fd5b839074496e76616c6964207061796572206164647265737360581b6040519162461bcd60e51b83526020600484015260156024840152820152fd5b83907f496e636f7272656374207061796d656e7420616d6f756e7400000000000000006040519162461bcd60e51b83526020600484015260186024840152820152fd5b83907f416d6f756e742063616e6e6f74206578636565642031303020455448000000006040519162461bcd60e51b835260206004840152601c6024840152820152fd5b83907f416d6f756e74206d7573742062652067726561746572207468616e20300000006040519162461bcd60e51b835260206004840152601d6024840152820152fd5b60405162461bcd60e51b815260206004820152602960248201527f4f6e6c79204576656e74436f6e74726163742063616e2063616c6c2074686973818501526810333ab731ba34b7b760b91b6064820152608490fd5b346101fe5760403660031901126101fe5761110a6112e7565b6111126112fd565b9061111b61137c565b6001600160a01b0390811691821561119c5716908115611157576001600160601b0360a01b908160085416176008556009541617600955600080f35b60405162461bcd60e51b815260206004820152601f60248201527f496e76616c6964207469636b657420636f6e74726163742061646472657373006044820152606490fd5b60405162461bcd60e51b815260206004820152601e60248201527f496e76616c6964206576656e7420636f6e7472616374206164647265737300006044820152606490fd5b346101fe5760403660031901126101fe576111fa6112e7565b6006549060243561120a8361152e565b926000926001600160a01b039081169260019283805b611260575b5050505050506112348161152e565b9160005b82811061124d57604051806102718682611313565b8061071f61125b9284611560565b611238565b81811115806112c3575b156112be5780600052600360205285848660406000200154161461129d575b906112958593926113e1565b909192611220565b95906112956112b3838961072a8997968d611560565b979192935050611289565b611225565b5082871061126a565b346101fe5760003660031901126101fe576020906006548152f35b600435906001600160a01b03821682036101fe57565b602435906001600160a01b03821682036101fe57565b6020908160408183019282815285518094520193019160005b82811061133a575050505090565b83518552938101939281019260010161132c565b80548210156113665760005260206000200190600090565b634e487b7160e01b600052603260045260246000fd5b6000546001600160a01b0316330361139057565b606460405162461bcd60e51b815260206004820152602060248201527f4f776e61626c653a2063616c6c6572206973206e6f7420746865206f776e65726044820152fd5b91908203918211610f3e57565b6000198114610f3e5760010190565b610100810190811067ffffffffffffffff8211176108fc57604052565b90601f8019910116810190811067ffffffffffffffff8211176108fc57604052565b91908201809211610f3e57565b60ff6002541661144857565b60405162461bcd60e51b815260206004820152601060248201526f14185d5cd8589b194e881c185d5cd95960821b6044820152606490fd5b600260015414611491576002600155565b60405162461bcd60e51b815260206004820152601f60248201527f5265656e7472616e637947756172643a207265656e7472616e742063616c6c006044820152606490fd5b3d15611511573d9067ffffffffffffffff82116108fc5760405191611505601f8201601f19166020018461140d565b82523d6000602084013e565b606090565b67ffffffffffffffff81116108fc5760051b60200190565b9061153882611516565b611545604051918261140d565b8281528092611556601f1991611516565b0190602036910137565b80518210156113665760209160051b01019056fea2646970667358221220c18196e452e28570854e358b06b2ace7062c89afab0585283c240b0620bc741864736f6c63430008130033","opcodes":"PUSH1 0x80 CALLVALUE PUSH2 0x170 JUMPI PUSH1 0x1F PUSH3 0x174A CODESIZE DUP2 SWAP1 SUB SWAP2 DUP3 ADD PUSH1 0x1F NOT AND DUP4 ADD SWAP2 PUSH1 0x1 PUSH1 0x1 PUSH1 0x40 SHL SUB DUP4 GT DUP5 DUP5 LT OR PUSH2 0x175 JUMPI DUP1 DUP5 SWAP3 PUSH1 0x40 SWAP5 DUP6 MSTORE DUP4 CODECOPY DUP2 ADD SUB SLT PUSH2 0x170 JUMPI PUSH2 0x53 PUSH1 0x20 PUSH2 0x4C DUP4 PUSH2 0x18B JUMP JUMPDEST SWAP3 ADD PUSH2 0x18B JUMP JUMPDEST PUSH1 0x0 DUP1 SLOAD CALLER PUSH1 0x1 PUSH1 0x1 PUSH1 0xA0 SHL SUB NOT DUP1 DUP4 AND DUP3 OR DUP5 SSTORE PUSH1 0x40 MLOAD SWAP6 SWAP1 SWAP5 PUSH1 0x1 PUSH1 0x1 PUSH1 0xA0 SHL SUB SWAP5 SWAP1 SWAP4 DUP6 SWAP4 SWAP2 SWAP1 DUP5 AND SWAP1 PUSH32 0x8BE0079C531659141344CD1FD0A4F28419497F9722A3DAAFE3B4186F6B6457E0 SWAP1 DUP1 LOG3 PUSH1 0x1 DUP1 SSTORE PUSH1 0xFF NOT PUSH1 0x2 SLOAD AND PUSH1 0x2 SSTORE PUSH1 0x5 PUSH1 0x7 SSTORE AND SWAP4 DUP5 ISZERO PUSH2 0x12E JUMPI POP AND SWAP2 DUP3 ISZERO PUSH2 0xE9 JUMPI DUP2 PUSH1 0x8 SLOAD AND OR PUSH1 0x8 SSTORE PUSH1 0x9 SLOAD AND OR PUSH1 0x9 SSTORE PUSH1 0x40 MLOAD PUSH2 0x15AA SWAP1 DUP2 PUSH3 0x1A0 DUP3 CODECOPY RETURN JUMPDEST PUSH1 0x40 MLOAD PUSH3 0x461BCD PUSH1 0xE5 SHL DUP2 MSTORE PUSH1 0x20 PUSH1 0x4 DUP3 ADD MSTORE PUSH1 0x1F PUSH1 0x24 DUP3 ADD MSTORE PUSH32 0x496E76616C6964207469636B657420636F6E7472616374206164647265737300 PUSH1 0x44 DUP3 ADD MSTORE PUSH1 0x64 SWAP1 REVERT JUMPDEST PUSH3 0x461BCD PUSH1 0xE5 SHL DUP2 MSTORE PUSH1 0x20 PUSH1 0x4 DUP3 ADD MSTORE PUSH1 0x1E PUSH1 0x24 DUP3 ADD MSTORE PUSH32 0x496E76616C6964206576656E7420636F6E747261637420616464726573730000 PUSH1 0x44 DUP3 ADD MSTORE PUSH1 0x64 SWAP1 REVERT JUMPDEST PUSH1 0x0 DUP1 REVERT JUMPDEST PUSH4 0x4E487B71 PUSH1 0xE0 SHL PUSH1 0x0 MSTORE PUSH1 0x41 PUSH1 0x4 MSTORE PUSH1 0x24 PUSH1 0x0 REVERT JUMPDEST MLOAD SWAP1 PUSH1 0x1 PUSH1 0x1 PUSH1 0xA0 SHL SUB DUP3 AND DUP3 SUB PUSH2 0x170 JUMPI JUMP INVALID PUSH1 0x80 DUP1 PUSH1 0x40 MSTORE PUSH1 0x4 CALLDATASIZE LT ISZERO PUSH2 0x1A JUMPI JUMPDEST POP CALLDATASIZE ISZERO PUSH2 0x18 JUMPI STOP JUMPDEST STOP JUMPDEST PUSH1 0x0 CALLDATALOAD PUSH1 0xE0 SHR SWAP1 DUP2 PUSH4 0x937E68A EQ PUSH2 0x12CC JUMPI POP DUP1 PUSH4 0xB2BAD5F EQ PUSH2 0x11E1 JUMPI DUP1 PUSH4 0x1FF6DC5B EQ PUSH2 0x10F1 JUMPI DUP1 PUSH4 0x3279C411 EQ PUSH2 0xCC0 JUMPI DUP1 PUSH4 0x3998A681 EQ PUSH2 0xCA4 JUMPI DUP1 PUSH4 0x4A4E3BD5 EQ PUSH2 0xC10 JUMPI DUP1 PUSH4 0x50F417B5 EQ PUSH2 0xA5D JUMPI DUP1 PUSH4 0x51858E27 EQ PUSH2 0xA03 JUMPI DUP1 PUSH4 0x5691FE63 EQ PUSH2 0x95E JUMPI DUP1 PUSH4 0x58A86E1D EQ PUSH2 0x935 JUMPI DUP1 PUSH4 0x5C975ABB EQ PUSH2 0x912 JUMPI DUP1 PUSH4 0x61436532 EQ PUSH2 0x860 JUMPI DUP1 PUSH4 0x715018A6 EQ PUSH2 0x807 JUMPI DUP1 PUSH4 0x798929E4 EQ PUSH2 0x7C0 JUMPI DUP1 PUSH4 0x8DA5CB5B EQ PUSH2 0x797 JUMPI DUP1 PUSH4 0x9113E89B EQ PUSH2 0x6A5 JUMPI DUP1 PUSH4 0xAA0B5988 EQ PUSH2 0x5E0 JUMPI DUP1 PUSH4 0xB0380578 EQ PUSH2 0x583 JUMPI DUP1 PUSH4 0xC1D446BE EQ PUSH2 0x45C JUMPI DUP1 PUSH4 0xCB5847D0 EQ PUSH2 0x3E6 JUMPI DUP1 PUSH4 0xCDD78CFC EQ PUSH2 0x3C8 JUMPI DUP1 PUSH4 0xD0B7830B EQ PUSH2 0x2BA JUMPI DUP1 PUSH4 0xDFE6B5D6 EQ PUSH2 0x22C JUMPI DUP1 PUSH4 0xE274FD24 EQ PUSH2 0x203 JUMPI PUSH4 0xF2FDE38B EQ PUSH2 0x13A JUMPI CODESIZE PUSH2 0xF JUMP JUMPDEST CALLVALUE PUSH2 0x1FE JUMPI PUSH1 0x20 CALLDATASIZE PUSH1 0x3 NOT ADD SLT PUSH2 0x1FE JUMPI PUSH2 0x153 PUSH2 0x12E7 JUMP JUMPDEST PUSH2 0x15B PUSH2 0x137C JUMP JUMPDEST PUSH1 0x1 PUSH1 0x1 PUSH1 0xA0 SHL SUB SWAP1 DUP2 AND SWAP1 DUP2 ISZERO PUSH2 0x1AA JUMPI PUSH1 0x0 SLOAD DUP3 PUSH1 0x1 PUSH1 0x1 PUSH1 0x60 SHL SUB PUSH1 0xA0 SHL DUP3 AND OR PUSH1 0x0 SSTORE AND PUSH32 0x8BE0079C531659141344CD1FD0A4F28419497F9722A3DAAFE3B4186F6B6457E0 PUSH1 0x0 DUP1 LOG3 STOP JUMPDEST PUSH1 0x40 MLOAD PUSH3 0x461BCD PUSH1 0xE5 SHL DUP2 MSTORE PUSH1 0x20 PUSH1 0x4 DUP3 ADD MSTORE PUSH1 0x26 PUSH1 0x24 DUP3 ADD MSTORE PUSH32 0x4F776E61626C653A206E6577206F776E657220697320746865207A65726F2061 PUSH1 0x44 DUP3 ADD MSTORE PUSH6 0x646472657373 PUSH1 0xD0 SHL PUSH1 0x64 DUP3 ADD MSTORE PUSH1 0x84 SWAP1 REVERT JUMPDEST PUSH1 0x0 DUP1 REVERT JUMPDEST CALLVALUE PUSH2 0x1FE JUMPI PUSH1 0x0 CALLDATASIZE PUSH1 0x3 NOT ADD SLT PUSH2 0x1FE JUMPI PUSH1 0x8 SLOAD PUSH1 0x40 MLOAD PUSH1 0x1 PUSH1 0x1 PUSH1 0xA0 SHL SUB SWAP1 SWAP2 AND DUP2 MSTORE PUSH1 0x20 SWAP1 RETURN JUMPDEST CALLVALUE PUSH2 0x1FE JUMPI PUSH1 0x0 CALLDATASIZE PUSH1 0x3 NOT ADD SLT PUSH2 0x1FE JUMPI PUSH1 0x0 DUP1 PUSH1 0x1 PUSH1 0x6 SLOAD SWAP2 JUMPDEST DUP3 DUP3 GT ISZERO PUSH2 0x275 JUMPI PUSH1 0x40 DUP1 MLOAD SWAP4 DUP5 MSTORE PUSH1 0x20 DUP5 ADD SWAP5 SWAP1 SWAP5 MSTORE SWAP3 DUP3 ADD SWAP3 SWAP1 SWAP3 MSTORE SELFBALANCE PUSH1 0x60 DUP3 ADD MSTORE PUSH1 0x80 SWAP2 POP RETURN JUMPDEST SUB SWAP1 RETURN JUMPDEST PUSH2 0x2AE PUSH2 0x2B4 SWAP2 DUP4 PUSH1 0x0 MSTORE PUSH1 0x3 PUSH2 0x299 PUSH1 0x20 SWAP8 DUP3 DUP10 MSTORE DUP3 PUSH1 0x40 PUSH1 0x0 KECCAK256 ADD SLOAD SWAP1 PUSH2 0x142F JUMP JUMPDEST SWAP7 DUP6 PUSH1 0x0 MSTORE MSTORE PUSH1 0x4 PUSH1 0x40 PUSH1 0x0 KECCAK256 ADD SLOAD SWAP1 PUSH2 0x142F JUMP JUMPDEST SWAP2 PUSH2 0x13E1 JUMP JUMPDEST SWAP1 PUSH2 0x247 JUMP JUMPDEST CALLVALUE PUSH2 0x1FE JUMPI PUSH1 0x0 CALLDATASIZE PUSH1 0x3 NOT ADD SLT PUSH2 0x1FE JUMPI PUSH2 0x2D3 PUSH2 0x137C JUMP JUMPDEST PUSH2 0x2DB PUSH2 0x1480 JUMP JUMPDEST SELFBALANCE DUP1 ISZERO PUSH2 0x383 JUMPI PUSH1 0x1 DUP1 PUSH1 0xA0 SHL SUB PUSH1 0x0 DUP1 DUP1 DUP1 DUP6 DUP6 DUP3 SLOAD AND GAS CALL PUSH2 0x2FD PUSH2 0x14D6 JUMP JUMPDEST POP ISZERO PUSH2 0x33E JUMPI PUSH1 0x40 PUSH32 0x56DA9A5AE0BCF6E7C3FDD78A10550E7D0458DE1C39BFB7F6E96A3E92DD344A68 SWAP2 PUSH1 0x0 SLOAD AND SWAP3 DUP2 MLOAD SWAP1 DUP2 MSTORE TIMESTAMP PUSH1 0x20 DUP3 ADD MSTORE LOG2 PUSH1 0x1 DUP1 SSTORE STOP JUMPDEST PUSH1 0x40 MLOAD PUSH3 0x461BCD PUSH1 0xE5 SHL DUP2 MSTORE PUSH1 0x20 PUSH1 0x4 DUP3 ADD MSTORE PUSH1 0x1E PUSH1 0x24 DUP3 ADD MSTORE PUSH32 0x506C6174666F726D20666565207769746864726177616C206661696C65640000 PUSH1 0x44 DUP3 ADD MSTORE PUSH1 0x64 SWAP1 REVERT JUMPDEST PUSH1 0x40 MLOAD PUSH3 0x461BCD PUSH1 0xE5 SHL DUP2 MSTORE PUSH1 0x20 PUSH1 0x4 DUP3 ADD MSTORE PUSH1 0x1C PUSH1 0x24 DUP3 ADD MSTORE PUSH32 0x4E6F20706C6174666F726D206665657320746F20776974686472617700000000 PUSH1 0x44 DUP3 ADD MSTORE PUSH1 0x64 SWAP1 REVERT JUMPDEST CALLVALUE PUSH2 0x1FE JUMPI PUSH1 0x0 CALLDATASIZE PUSH1 0x3 NOT ADD SLT PUSH2 0x1FE JUMPI PUSH1 0x20 PUSH1 0x7 SLOAD PUSH1 0x40 MLOAD SWAP1 DUP2 MSTORE RETURN JUMPDEST CALLVALUE PUSH2 0x1FE JUMPI PUSH1 0x20 DUP1 PUSH1 0x3 NOT CALLDATASIZE ADD SLT PUSH2 0x1FE JUMPI PUSH1 0x4 CALLDATALOAD PUSH1 0x0 MSTORE PUSH1 0x5 DUP2 MSTORE PUSH1 0x40 PUSH1 0x0 KECCAK256 SWAP1 PUSH1 0x40 MLOAD SWAP1 DUP2 DUP2 DUP5 SLOAD SWAP2 DUP3 DUP2 MSTORE ADD SWAP4 PUSH1 0x0 MSTORE DUP2 PUSH1 0x0 KECCAK256 SWAP2 PUSH1 0x0 SWAP1 JUMPDEST DUP3 DUP3 LT PUSH2 0x445 JUMPI PUSH2 0x271 DUP6 PUSH2 0x439 DUP2 DUP10 SUB DUP3 PUSH2 0x140D JUMP JUMPDEST PUSH1 0x40 MLOAD SWAP2 DUP3 SWAP2 DUP3 PUSH2 0x1313 JUMP JUMPDEST DUP4 SLOAD DUP7 MSTORE SWAP5 DUP6 ADD SWAP5 PUSH1 0x1 SWAP4 DUP5 ADD SWAP4 SWAP1 SWAP2 ADD SWAP1 PUSH2 0x422 JUMP JUMPDEST CALLVALUE PUSH2 0x1FE JUMPI PUSH1 0x20 CALLDATASIZE PUSH1 0x3 NOT ADD SLT PUSH2 0x1FE JUMPI PUSH1 0x4 CALLDATALOAD DUP1 ISZERO ISZERO DUP1 PUSH2 0x577 JUMPI JUMPDEST ISZERO PUSH2 0x53D JUMPI PUSH1 0x0 MSTORE PUSH1 0x3 PUSH1 0x20 MSTORE PUSH1 0x40 PUSH1 0x0 KECCAK256 PUSH1 0x40 MLOAD SWAP1 PUSH2 0x498 DUP3 PUSH2 0x13F0 JUMP JUMPDEST DUP1 SLOAD DUP1 DUP4 MSTORE PUSH1 0x1 DUP3 ADD SLOAD PUSH1 0x1 PUSH1 0x1 PUSH1 0xA0 SHL SUB SWAP1 DUP2 AND PUSH1 0x20 DUP1 DUP7 ADD DUP3 SWAP1 MSTORE PUSH1 0x2 DUP6 ADD SLOAD SWAP1 SWAP3 AND PUSH1 0x40 DUP1 DUP8 ADD DUP3 SWAP1 MSTORE PUSH1 0x3 DUP7 ADD SLOAD PUSH1 0x60 DUP1 DUP10 ADD DUP3 SWAP1 MSTORE PUSH1 0x4 DUP9 ADD SLOAD PUSH1 0x80 DUP1 DUP12 ADD DUP3 SWAP1 MSTORE PUSH1 0x5 DUP11 ADD SLOAD PUSH1 0xA0 DUP1 DUP14 ADD DUP3 SWAP1 MSTORE PUSH1 0x6 DUP13 ADD SLOAD PUSH1 0xC0 DUP1 DUP16 ADD DUP3 SWAP1 MSTORE PUSH1 0x7 SWAP1 SWAP14 ADD SLOAD PUSH1 0xFF AND ISZERO ISZERO PUSH1 0xE0 SWAP15 DUP16 ADD DUP2 SWAP1 MSTORE DUP9 MLOAD SWAP13 DUP14 MSTORE SWAP11 DUP13 ADD SWAP10 SWAP1 SWAP10 MSTORE SWAP6 DUP11 ADD SWAP7 SWAP1 SWAP7 MSTORE SWAP2 DUP9 ADD SWAP3 SWAP1 SWAP3 MSTORE DUP7 ADD MSTORE DUP5 ADD MSTORE SWAP3 DUP3 ADD SWAP3 SWAP1 SWAP3 MSTORE SWAP2 DUP3 ADD MSTORE PUSH2 0x100 SWAP1 RETURN JUMPDEST PUSH1 0x40 MLOAD PUSH3 0x461BCD PUSH1 0xE5 SHL DUP2 MSTORE PUSH1 0x20 PUSH1 0x4 DUP3 ADD MSTORE PUSH1 0x12 PUSH1 0x24 DUP3 ADD MSTORE PUSH18 0x125B9D985B1A59081C185E5B595B9D081251 PUSH1 0x72 SHL PUSH1 0x44 DUP3 ADD MSTORE PUSH1 0x64 SWAP1 REVERT JUMPDEST POP PUSH1 0x6 SLOAD DUP2 GT ISZERO PUSH2 0x479 JUMP JUMPDEST CALLVALUE PUSH2 0x1FE JUMPI PUSH1 0x20 CALLDATASIZE PUSH1 0x3 NOT ADD SLT PUSH2 0x1FE JUMPI PUSH1 0x1 PUSH1 0x1 PUSH1 0xA0 SHL SUB PUSH2 0x5A4 PUSH2 0x12E7 JUMP JUMPDEST AND PUSH1 0x0 SWAP1 DUP2 MSTORE PUSH1 0x4 PUSH1 0x20 SWAP1 DUP2 MSTORE PUSH1 0x40 SWAP2 DUP3 SWAP1 KECCAK256 DUP1 SLOAD PUSH1 0x1 DUP3 ADD SLOAD PUSH1 0x2 DUP4 ADD SLOAD PUSH1 0x3 SWAP1 SWAP4 ADD SLOAD DUP6 MLOAD SWAP3 DUP4 MSTORE SWAP4 DUP3 ADD MSTORE SWAP3 DUP4 ADD MSTORE PUSH1 0x60 DUP3 ADD MSTORE PUSH1 0x80 SWAP1 RETURN JUMPDEST CALLVALUE PUSH2 0x1FE JUMPI PUSH1 0x20 CALLDATASIZE PUSH1 0x3 NOT ADD SLT PUSH2 0x1FE JUMPI PUSH1 0x4 CALLDATALOAD PUSH2 0x5FC PUSH2 0x137C JUMP JUMPDEST PUSH1 0x14 DUP2 GT PUSH2 0x655 JUMPI PUSH32 0x50F8AB96EC41B29E295DBC21AA964857BD7BA51C554C209DB631610CE392D456 SWAP1 PUSH1 0x7 SLOAD SWAP1 DUP1 PUSH1 0x7 SSTORE PUSH2 0x650 PUSH1 0x40 MLOAD SWAP3 DUP4 SWAP3 TIMESTAMP SWAP2 DUP5 PUSH1 0x40 SWAP2 SWAP5 SWAP4 SWAP3 PUSH1 0x60 DUP3 ADD SWAP6 DUP3 MSTORE PUSH1 0x20 DUP3 ADD MSTORE ADD MSTORE JUMP JUMPDEST SUB SWAP1 LOG1 STOP JUMPDEST PUSH1 0x40 MLOAD PUSH3 0x461BCD PUSH1 0xE5 SHL DUP2 MSTORE PUSH1 0x20 PUSH1 0x4 DUP3 ADD MSTORE PUSH1 0x22 PUSH1 0x24 DUP3 ADD MSTORE PUSH32 0x506C6174666F726D206665652063616E6E6F7420657863656564206D6178696D PUSH1 0x44 DUP3 ADD MSTORE PUSH2 0x756D PUSH1 0xF0 SHL PUSH1 0x64 DUP3 ADD MSTORE PUSH1 0x84 SWAP1 REVERT JUMPDEST CALLVALUE PUSH2 0x1FE JUMPI PUSH1 0x40 CALLDATASIZE PUSH1 0x3 NOT ADD SLT PUSH2 0x1FE JUMPI PUSH2 0x6BE PUSH2 0x12E7 JUMP JUMPDEST PUSH1 0x6 SLOAD SWAP1 PUSH1 0x24 CALLDATALOAD PUSH2 0x6CE DUP4 PUSH2 0x152E JUMP JUMPDEST SWAP3 PUSH1 0x0 SWAP3 PUSH1 0x1 PUSH1 0x1 PUSH1 0xA0 SHL SUB SWAP1 DUP2 AND SWAP3 PUSH1 0x1 SWAP3 DUP4 DUP1 JUMPDEST PUSH2 0x735 JUMPI JUMPDEST POP POP POP POP POP POP PUSH2 0x6F8 DUP2 PUSH2 0x152E JUMP JUMPDEST SWAP2 PUSH1 0x0 JUMPDEST DUP3 DUP2 LT PUSH2 0x711 JUMPI PUSH1 0x40 MLOAD DUP1 PUSH2 0x271 DUP7 DUP3 PUSH2 0x1313 JUMP JUMPDEST DUP1 PUSH2 0x71F PUSH2 0x730 SWAP3 DUP5 PUSH2 0x1560 JUMP JUMPDEST MLOAD PUSH2 0x72A DUP3 DUP8 PUSH2 0x1560 JUMP JUMPDEST MSTORE PUSH2 0x13E1 JUMP JUMPDEST PUSH2 0x6FC JUMP JUMPDEST DUP2 DUP2 GT ISZERO DUP1 PUSH2 0x78E JUMPI JUMPDEST ISZERO PUSH2 0x789 JUMPI DUP1 PUSH1 0x0 MSTORE PUSH1 0x3 PUSH1 0x20 MSTORE DUP6 DUP5 PUSH1 0x2 PUSH1 0x40 PUSH1 0x0 KECCAK256 ADD SLOAD AND EQ PUSH2 0x76E JUMPI JUMPDEST PUSH2 0x768 SWAP1 PUSH2 0x13E1 JUMP JUMPDEST DUP5 PUSH2 0x6E4 JUMP JUMPDEST SWAP6 PUSH2 0x781 DUP2 DUP9 PUSH2 0x72A PUSH2 0x768 SWAP5 DUP13 PUSH2 0x1560 JUMP JUMPDEST SWAP7 SWAP1 POP PUSH2 0x75F JUMP JUMPDEST PUSH2 0x6E9 JUMP JUMPDEST POP DUP3 DUP8 LT PUSH2 0x73F JUMP JUMPDEST CALLVALUE PUSH2 0x1FE JUMPI PUSH1 0x0 CALLDATASIZE PUSH1 0x3 NOT ADD SLT PUSH2 0x1FE JUMPI PUSH1 0x0 SLOAD PUSH1 0x40 MLOAD PUSH1 0x1 PUSH1 0x1 PUSH1 0xA0 SHL SUB SWAP1 SWAP2 AND DUP2 MSTORE PUSH1 0x20 SWAP1 RETURN JUMPDEST CALLVALUE PUSH2 0x1FE JUMPI PUSH1 0x40 CALLDATASIZE PUSH1 0x3 NOT ADD SLT PUSH2 0x1FE JUMPI PUSH1 0x24 CALLDATALOAD PUSH1 0x4 CALLDATALOAD PUSH1 0x0 MSTORE PUSH1 0x5 PUSH1 0x20 MSTORE PUSH1 0x40 PUSH1 0x0 KECCAK256 DUP1 SLOAD DUP3 LT ISZERO PUSH2 0x1FE JUMPI PUSH1 0x20 SWAP2 PUSH2 0x7F9 SWAP2 PUSH2 0x134E JUMP JUMPDEST SWAP1 SLOAD PUSH1 0x40 MLOAD SWAP2 PUSH1 0x3 SHL SHR DUP2 MSTORE RETURN JUMPDEST CALLVALUE PUSH2 0x1FE JUMPI PUSH1 0x0 CALLDATASIZE PUSH1 0x3 NOT ADD SLT PUSH2 0x1FE JUMPI PUSH2 0x820 PUSH2 0x137C JUMP JUMPDEST PUSH1 0x0 DUP1 SLOAD PUSH1 0x1 PUSH1 0x1 PUSH1 0xA0 SHL SUB NOT DUP2 AND DUP3 SSTORE PUSH1 0x1 PUSH1 0x1 PUSH1 0xA0 SHL SUB AND PUSH32 0x8BE0079C531659141344CD1FD0A4F28419497F9722A3DAAFE3B4186F6B6457E0 DUP3 DUP1 LOG3 STOP JUMPDEST CALLVALUE PUSH2 0x1FE JUMPI PUSH1 0x20 CALLDATASIZE PUSH1 0x3 NOT ADD SLT PUSH2 0x1FE JUMPI PUSH1 0x1 PUSH1 0x1 PUSH1 0xA0 SHL SUB PUSH2 0x881 PUSH2 0x12E7 JUMP JUMPDEST AND PUSH1 0x0 MSTORE PUSH1 0x4 PUSH1 0x20 MSTORE PUSH1 0x40 PUSH1 0x0 KECCAK256 PUSH1 0x40 MLOAD SWAP1 PUSH1 0x80 DUP3 ADD DUP3 DUP2 LT PUSH8 0xFFFFFFFFFFFFFFFF DUP3 GT OR PUSH2 0x8FC JUMPI PUSH1 0x40 MSTORE PUSH2 0x271 PUSH1 0x60 DUP3 SLOAD SWAP3 DUP4 DUP6 MSTORE PUSH1 0x1 DUP2 ADD SLOAD SWAP5 DUP6 PUSH1 0x20 DUP3 ADD MSTORE PUSH1 0x3 PUSH1 0x2 DUP4 ADD SLOAD SWAP3 DUP4 PUSH1 0x40 DUP5 ADD MSTORE ADD SLOAD SWAP3 DUP4 SWAP2 ADD MSTORE PUSH1 0x40 MLOAD SWAP5 DUP6 SWAP5 DUP6 SWAP1 SWAP5 SWAP4 SWAP3 PUSH1 0x60 SWAP3 PUSH1 0x80 DUP4 ADD SWAP7 DUP4 MSTORE PUSH1 0x20 DUP4 ADD MSTORE PUSH1 0x40 DUP3 ADD MSTORE ADD MSTORE JUMP JUMPDEST PUSH4 0x4E487B71 PUSH1 0xE0 SHL PUSH1 0x0 MSTORE PUSH1 0x41 PUSH1 0x4 MSTORE PUSH1 0x24 PUSH1 0x0 REVERT JUMPDEST CALLVALUE PUSH2 0x1FE JUMPI PUSH1 0x0 CALLDATASIZE PUSH1 0x3 NOT ADD SLT PUSH2 0x1FE JUMPI PUSH1 0x20 PUSH1 0xFF PUSH1 0x2 SLOAD AND PUSH1 0x40 MLOAD SWAP1 ISZERO ISZERO DUP2 MSTORE RETURN JUMPDEST CALLVALUE PUSH2 0x1FE JUMPI PUSH1 0x0 CALLDATASIZE PUSH1 0x3 NOT ADD SLT PUSH2 0x1FE JUMPI PUSH1 0x9 SLOAD PUSH1 0x40 MLOAD PUSH1 0x1 PUSH1 0x1 PUSH1 0xA0 SHL SUB SWAP1 SWAP2 AND DUP2 MSTORE PUSH1 0x20 SWAP1 RETURN JUMPDEST CALLVALUE PUSH2 0x1FE JUMPI PUSH1 0x20 CALLDATASIZE PUSH1 0x3 NOT ADD SLT PUSH2 0x1FE JUMPI PUSH1 0x4 CALLDATALOAD PUSH1 0x0 MSTORE PUSH1 0x3 PUSH1 0x20 MSTORE PUSH1 0x40 PUSH1 0x0 KECCAK256 DUP1 SLOAD PUSH2 0x271 PUSH1 0x1 DUP1 PUSH1 0xA0 SHL SUB SWAP3 DUP4 PUSH1 0x1 DUP3 ADD SLOAD AND SWAP4 PUSH1 0x2 DUP3 ADD SLOAD AND SWAP1 PUSH1 0x3 DUP2 ADD SLOAD PUSH1 0x4 DUP3 ADD SLOAD PUSH1 0x5 DUP4 ADD SLOAD SWAP2 PUSH1 0xFF PUSH1 0x7 PUSH1 0x6 DUP7 ADD SLOAD SWAP6 ADD SLOAD AND SWAP5 PUSH1 0x40 MLOAD SWAP9 DUP10 SWAP9 DUP10 SWAP7 SWAP4 SWAP1 SWAP9 SWAP8 SWAP5 SWAP2 PUSH1 0xE0 SWAP7 SWAP4 PUSH2 0x100 DUP10 ADD SWAP11 DUP10 MSTORE PUSH1 0x1 DUP1 PUSH1 0xA0 SHL SUB DUP1 SWAP3 AND PUSH1 0x20 DUP11 ADD MSTORE AND PUSH1 0x40 DUP9 ADD MSTORE PUSH1 0x60 DUP8 ADD MSTORE PUSH1 0x80 DUP7 ADD MSTORE PUSH1 0xA0 DUP6 ADD MSTORE PUSH1 0xC0 DUP5 ADD MSTORE ISZERO ISZERO SWAP2 ADD MSTORE JUMP JUMPDEST CALLVALUE PUSH2 0x1FE JUMPI PUSH1 0x0 CALLDATASIZE PUSH1 0x3 NOT ADD SLT PUSH2 0x1FE JUMPI PUSH2 0xA1C PUSH2 0x137C JUMP JUMPDEST PUSH2 0xA24 PUSH2 0x143C JUMP JUMPDEST PUSH1 0x1 PUSH1 0xFF NOT PUSH1 0x2 SLOAD AND OR PUSH1 0x2 SSTORE PUSH32 0x62E78CEA01BEE320CD4E420270B5EA74000D11B0C9F74754EBDBFC544B05A258 PUSH1 0x20 PUSH1 0x40 MLOAD CALLER DUP2 MSTORE LOG1 STOP JUMPDEST CALLVALUE PUSH2 0x1FE JUMPI PUSH1 0x20 DUP1 PUSH1 0x3 NOT CALLDATASIZE ADD SLT PUSH2 0x1FE JUMPI PUSH1 0x4 CALLDATALOAD SWAP1 PUSH2 0xA7B PUSH2 0x1480 JUMP JUMPDEST PUSH2 0xA83 PUSH2 0x143C JUMP JUMPDEST CALLER PUSH1 0x0 MSTORE PUSH1 0x4 DUP2 MSTORE DUP2 PUSH1 0x1 PUSH1 0x40 PUSH1 0x0 KECCAK256 ADD SLOAD LT PUSH2 0xBCC JUMPI PUSH7 0x2386F26FC10000 DUP3 LT PUSH2 0xB7A JUMPI CALLER PUSH1 0x0 MSTORE PUSH1 0x4 DUP2 MSTORE PUSH1 0x1 PUSH1 0x40 PUSH1 0x0 KECCAK256 ADD PUSH2 0xAC3 DUP4 DUP3 SLOAD PUSH2 0x13D4 JUMP JUMPDEST SWAP1 SSTORE CALLER PUSH1 0x0 MSTORE PUSH1 0x4 DUP2 MSTORE PUSH1 0x2 PUSH1 0x40 PUSH1 0x0 KECCAK256 ADD PUSH2 0xAE0 DUP4 DUP3 SLOAD PUSH2 0x142F JUMP JUMPDEST SWAP1 SSTORE CALLER PUSH1 0x0 MSTORE PUSH1 0x4 DUP2 MSTORE TIMESTAMP PUSH1 0x3 PUSH1 0x40 PUSH1 0x0 KECCAK256 ADD SSTORE PUSH1 0x0 DUP1 DUP1 DUP1 DUP6 CALLER GAS CALL PUSH2 0xB05 PUSH2 0x14D6 JUMP JUMPDEST POP ISZERO PUSH2 0xB42 JUMPI PUSH1 0x40 MLOAD SWAP2 DUP3 MSTORE TIMESTAMP SWAP1 DUP3 ADD MSTORE PUSH32 0x2D4D49C3E017B8235C908CBAA83A2431A08F3B950712696ECE2088964FD399F0 PUSH1 0x40 CALLER SWAP3 LOG2 PUSH1 0x1 DUP1 SSTORE STOP JUMPDEST PUSH1 0x64 SWAP1 PUSH1 0x40 MLOAD SWAP1 PUSH3 0x461BCD PUSH1 0xE5 SHL DUP3 MSTORE PUSH1 0x4 DUP3 ADD MSTORE PUSH1 0x11 PUSH1 0x24 DUP3 ADD MSTORE PUSH17 0x15DA5D1A191C985DD85B0819985A5B1959 PUSH1 0x7A SHL PUSH1 0x44 DUP3 ADD MSTORE REVERT JUMPDEST PUSH1 0x84 SWAP1 PUSH1 0x40 MLOAD SWAP1 PUSH3 0x461BCD PUSH1 0xE5 SHL DUP3 MSTORE PUSH1 0x4 DUP3 ADD MSTORE PUSH1 0x25 PUSH1 0x24 DUP3 ADD MSTORE PUSH32 0x4D696E696D756D207769746864726177616C20616D6F756E7420697320302E30 PUSH1 0x44 DUP3 ADD MSTORE PUSH5 0x62408AA89 PUSH1 0xDB SHL PUSH1 0x64 DUP3 ADD MSTORE REVERT JUMPDEST PUSH1 0x64 SWAP1 PUSH1 0x40 MLOAD SWAP1 PUSH3 0x461BCD PUSH1 0xE5 SHL DUP3 MSTORE PUSH1 0x4 DUP3 ADD MSTORE PUSH1 0x1E PUSH1 0x24 DUP3 ADD MSTORE PUSH32 0x496E73756666696369656E7420617661696C61626C652062616C616E63650000 PUSH1 0x44 DUP3 ADD MSTORE REVERT JUMPDEST CALLVALUE PUSH2 0x1FE JUMPI PUSH1 0x0 CALLDATASIZE PUSH1 0x3 NOT ADD SLT PUSH2 0x1FE JUMPI PUSH2 0xC29 PUSH2 0x137C JUMP JUMPDEST PUSH1 0x2 SLOAD PUSH1 0xFF DUP2 AND ISZERO PUSH2 0xC68 JUMPI PUSH1 0xFF NOT AND PUSH1 0x2 SSTORE PUSH32 0x5DB9EE0A495BF2E6FF9C91A7834C1BA4FDD244A5E8AA4E537BD38AEAE4B073AA PUSH1 0x20 PUSH1 0x40 MLOAD CALLER DUP2 MSTORE LOG1 STOP JUMPDEST PUSH1 0x40 MLOAD PUSH3 0x461BCD PUSH1 0xE5 SHL DUP2 MSTORE PUSH1 0x20 PUSH1 0x4 DUP3 ADD MSTORE PUSH1 0x14 PUSH1 0x24 DUP3 ADD MSTORE PUSH20 0x14185D5CD8589B194E881B9BDD081C185D5CD959 PUSH1 0x62 SHL PUSH1 0x44 DUP3 ADD MSTORE PUSH1 0x64 SWAP1 REVERT JUMPDEST CALLVALUE PUSH2 0x1FE JUMPI PUSH1 0x0 CALLDATASIZE PUSH1 0x3 NOT ADD SLT PUSH2 0x1FE JUMPI PUSH1 0x20 PUSH1 0x40 MLOAD PUSH1 0x14 DUP2 MSTORE RETURN JUMPDEST PUSH1 0x80 CALLDATASIZE PUSH1 0x3 NOT ADD SLT PUSH2 0x1FE JUMPI PUSH2 0xCD4 PUSH2 0x12FD JUMP JUMPDEST PUSH1 0x44 SWAP1 DUP2 CALLDATALOAD PUSH1 0x1 PUSH1 0x1 PUSH1 0xA0 SHL SUB DUP2 AND DUP2 SUB PUSH2 0x1FE JUMPI PUSH1 0x8 SLOAD PUSH1 0x1 PUSH1 0x1 PUSH1 0xA0 SHL SUB AND CALLER SUB PUSH2 0x109B JUMPI PUSH1 0x64 SWAP3 DUP4 CALLDATALOAD ISZERO PUSH2 0x1058 JUMPI PUSH9 0x56BC75E2D63100000 DUP5 CALLDATALOAD GT PUSH2 0x1015 JUMPI PUSH2 0xD1E PUSH2 0x143C JUMP JUMPDEST PUSH2 0xD26 PUSH2 0x1480 JUMP JUMPDEST DUP4 CALLDATALOAD CALLVALUE SUB PUSH2 0xFD2 JUMPI PUSH1 0x1 PUSH1 0x1 PUSH1 0xA0 SHL SUB DUP4 AND ISZERO PUSH2 0xF97 JUMPI PUSH1 0x1 PUSH1 0x1 PUSH1 0xA0 SHL SUB DUP3 AND ISZERO PUSH2 0xF54 JUMPI POP PUSH1 0x7 SLOAD SWAP2 DUP3 DUP5 CALLDATALOAD MUL SWAP3 DUP5 CALLDATALOAD DUP5 DIV SUB PUSH2 0xF3E JUMPI PUSH2 0xD6C DUP5 DUP5 DIV DUP6 CALLDATALOAD PUSH2 0x13D4 JUMP JUMPDEST PUSH2 0xD77 PUSH1 0x6 SLOAD PUSH2 0x13E1 JUMP JUMPDEST SWAP3 DUP4 PUSH1 0x6 SSTORE PUSH1 0x40 MLOAD PUSH2 0xD88 DUP2 PUSH2 0x13F0 JUMP JUMPDEST PUSH1 0x4 CALLDATALOAD DUP2 MSTORE PUSH1 0x1 DUP1 PUSH1 0xA0 SHL SUB DUP5 AND PUSH1 0x20 DUP3 ADD MSTORE PUSH1 0x1 DUP1 PUSH1 0xA0 SHL SUB DUP3 AND PUSH1 0x40 DUP3 ADD MSTORE DUP7 CALLDATALOAD PUSH1 0x60 DUP3 ADD MSTORE DUP7 DUP7 DIV PUSH1 0x80 DUP3 ADD MSTORE DUP3 PUSH1 0xA0 DUP3 ADD MSTORE TIMESTAMP PUSH1 0xC0 DUP3 ADD MSTORE PUSH1 0x1 PUSH1 0xE0 DUP3 ADD MSTORE DUP5 PUSH1 0x0 MSTORE PUSH1 0x3 PUSH1 0x20 MSTORE PUSH1 0xE0 PUSH1 0x7 PUSH1 0x40 PUSH1 0x0 KECCAK256 DUP4 MLOAD DUP2 SSTORE PUSH1 0x1 DUP2 ADD PUSH1 0x1 DUP1 PUSH1 0xA0 SHL SUB PUSH1 0x20 DUP7 ADD MLOAD AND SWAP1 PUSH1 0x1 PUSH1 0x1 PUSH1 0x60 SHL SUB PUSH1 0xA0 SHL SWAP2 DUP3 DUP3 SLOAD AND OR SWAP1 SSTORE PUSH1 0x2 DUP3 ADD SWAP1 PUSH1 0x1 DUP1 PUSH1 0xA0 SHL SUB PUSH1 0x40 DUP8 ADD MLOAD AND SWAP1 DUP3 SLOAD AND OR SWAP1 SSTORE PUSH1 0x60 DUP5 ADD MLOAD PUSH1 0x3 DUP3 ADD SSTORE PUSH1 0x80 DUP5 ADD MLOAD PUSH1 0x4 DUP3 ADD SSTORE PUSH1 0xA0 DUP5 ADD MLOAD PUSH1 0x5 DUP3 ADD SSTORE PUSH1 0xC0 DUP5 ADD MLOAD PUSH1 0x6 DUP3 ADD SSTORE ADD SWAP2 ADD MLOAD ISZERO ISZERO PUSH1 0xFF DUP1 NOT DUP4 SLOAD AND SWAP2 AND OR SWAP1 SSTORE PUSH1 0x1 DUP1 PUSH1 0xA0 SHL SUB DUP2 AND PUSH1 0x0 MSTORE PUSH1 0x4 PUSH1 0x20 MSTORE PUSH1 0x40 PUSH1 0x0 KECCAK256 PUSH2 0xE7A DUP4 DUP3 SLOAD PUSH2 0x142F JUMP JUMPDEST SWAP1 SSTORE PUSH1 0x1 DUP1 PUSH1 0xA0 SHL SUB AND PUSH1 0x0 MSTORE PUSH1 0x4 PUSH1 0x20 MSTORE PUSH1 0x1 PUSH1 0x40 PUSH1 0x0 KECCAK256 ADD PUSH2 0xE9F DUP3 DUP3 SLOAD PUSH2 0x142F JUMP JUMPDEST SWAP1 SSTORE PUSH1 0x4 CALLDATALOAD PUSH1 0x0 MSTORE PUSH1 0x5 PUSH1 0x20 MSTORE PUSH1 0x40 PUSH1 0x0 KECCAK256 SWAP2 DUP3 SLOAD SWAP3 PUSH9 0x10000000000000000 DUP5 LT ISZERO PUSH2 0x8FC JUMPI DUP4 PUSH2 0xEF7 SWAP2 PUSH1 0x1 PUSH32 0x768C2AFECE4BBA0E29315BE57972444B2EC1CCF51A6E8F0617536BAADDB4FF44 SWAP7 ADD DUP2 SSTORE PUSH2 0x134E JUMP JUMPDEST DUP2 SLOAD PUSH1 0x0 NOT PUSH1 0x3 SWAP3 SWAP1 SWAP3 SHL SWAP2 DUP3 SHL NOT AND SWAP1 DUP7 SWAP1 SHL OR SWAP1 SSTORE PUSH1 0x40 DUP1 MLOAD DUP8 CALLDATALOAD DUP2 MSTORE SWAP7 SWAP1 SWAP6 DIV PUSH1 0x20 DUP8 ADD MSTORE SWAP4 DUP6 ADD MSTORE PUSH1 0x1 PUSH1 0x1 PUSH1 0xA0 SHL SUB SWAP1 SWAP3 AND SWAP3 PUSH1 0x4 CALLDATALOAD SWAP3 SWAP1 PUSH1 0x60 SWAP1 LOG4 PUSH1 0x1 DUP1 SSTORE STOP JUMPDEST PUSH4 0x4E487B71 PUSH1 0xE0 SHL PUSH1 0x0 MSTORE PUSH1 0x11 PUSH1 0x4 MSTORE PUSH1 0x24 PUSH1 0x0 REVERT JUMPDEST DUP4 SWAP1 PUSH32 0x496E76616C6964206F7267616E697A6572206164647265737300000000000000 PUSH1 0x40 MLOAD SWAP2 PUSH3 0x461BCD PUSH1 0xE5 SHL DUP4 MSTORE PUSH1 0x20 PUSH1 0x4 DUP5 ADD MSTORE PUSH1 0x19 PUSH1 0x24 DUP5 ADD MSTORE DUP3 ADD MSTORE REVERT JUMPDEST DUP4 SWAP1 PUSH21 0x496E76616C69642070617965722061646472657373 PUSH1 0x58 SHL PUSH1 0x40 MLOAD SWAP2 PUSH3 0x461BCD PUSH1 0xE5 SHL DUP4 MSTORE PUSH1 0x20 PUSH1 0x4 DUP5 ADD MSTORE PUSH1 0x15 PUSH1 0x24 DUP5 ADD MSTORE DUP3 ADD MSTORE REVERT JUMPDEST DUP4 SWAP1 PUSH32 0x496E636F7272656374207061796D656E7420616D6F756E740000000000000000 PUSH1 0x40 MLOAD SWAP2 PUSH3 0x461BCD PUSH1 0xE5 SHL DUP4 MSTORE PUSH1 0x20 PUSH1 0x4 DUP5 ADD MSTORE PUSH1 0x18 PUSH1 0x24 DUP5 ADD MSTORE DUP3 ADD MSTORE REVERT JUMPDEST DUP4 SWAP1 PUSH32 0x416D6F756E742063616E6E6F7420657863656564203130302045544800000000 PUSH1 0x40 MLOAD SWAP2 PUSH3 0x461BCD PUSH1 0xE5 SHL DUP4 MSTORE PUSH1 0x20 PUSH1 0x4 DUP5 ADD MSTORE PUSH1 0x1C PUSH1 0x24 DUP5 ADD MSTORE DUP3 ADD MSTORE REVERT JUMPDEST DUP4 SWAP1 PUSH32 0x416D6F756E74206D7573742062652067726561746572207468616E2030000000 PUSH1 0x40 MLOAD SWAP2 PUSH3 0x461BCD PUSH1 0xE5 SHL DUP4 MSTORE PUSH1 0x20 PUSH1 0x4 DUP5 ADD MSTORE PUSH1 0x1D PUSH1 0x24 DUP5 ADD MSTORE DUP3 ADD MSTORE REVERT JUMPDEST PUSH1 0x40 MLOAD PUSH3 0x461BCD PUSH1 0xE5 SHL DUP2 MSTORE PUSH1 0x20 PUSH1 0x4 DUP3 ADD MSTORE PUSH1 0x29 PUSH1 0x24 DUP3 ADD MSTORE PUSH32 0x4F6E6C79204576656E74436F6E74726163742063616E2063616C6C2074686973 DUP2 DUP6 ADD MSTORE PUSH9 0x10333AB731BA34B7B7 PUSH1 0xB9 SHL PUSH1 0x64 DUP3 ADD MSTORE PUSH1 0x84 SWAP1 REVERT JUMPDEST CALLVALUE PUSH2 0x1FE JUMPI PUSH1 0x40 CALLDATASIZE PUSH1 0x3 NOT ADD SLT PUSH2 0x1FE JUMPI PUSH2 0x110A PUSH2 0x12E7 JUMP JUMPDEST PUSH2 0x1112 PUSH2 0x12FD JUMP JUMPDEST SWAP1 PUSH2 0x111B PUSH2 0x137C JUMP JUMPDEST PUSH1 0x1 PUSH1 0x1 PUSH1 0xA0 SHL SUB SWAP1 DUP2 AND SWAP2 DUP3 ISZERO PUSH2 0x119C JUMPI AND SWAP1 DUP2 ISZERO PUSH2 0x1157 JUMPI PUSH1 0x1 PUSH1 0x1 PUSH1 0x60 SHL SUB PUSH1 0xA0 SHL SWAP1 DUP2 PUSH1 0x8 SLOAD AND OR PUSH1 0x8 SSTORE PUSH1 0x9 SLOAD AND OR PUSH1 0x9 SSTORE PUSH1 0x0 DUP1 RETURN JUMPDEST PUSH1 0x40 MLOAD PUSH3 0x461BCD PUSH1 0xE5 SHL DUP2 MSTORE PUSH1 0x20 PUSH1 0x4 DUP3 ADD MSTORE PUSH1 0x1F PUSH1 0x24 DUP3 ADD MSTORE PUSH32 0x496E76616C6964207469636B657420636F6E7472616374206164647265737300 PUSH1 0x44 DUP3 ADD MSTORE PUSH1 0x64 SWAP1 REVERT JUMPDEST PUSH1 0x40 MLOAD PUSH3 0x461BCD PUSH1 0xE5 SHL DUP2 MSTORE PUSH1 0x20 PUSH1 0x4 DUP3 ADD MSTORE PUSH1 0x1E PUSH1 0x24 DUP3 ADD MSTORE PUSH32 0x496E76616C6964206576656E7420636F6E747261637420616464726573730000 PUSH1 0x44 DUP3 ADD MSTORE PUSH1 0x64 SWAP1 REVERT JUMPDEST CALLVALUE PUSH2 0x1FE JUMPI PUSH1 0x40 CALLDATASIZE PUSH1 0x3 NOT ADD SLT PUSH2 0x1FE JUMPI PUSH2 0x11FA PUSH2 0x12E7 JUMP JUMPDEST PUSH1 0x6 SLOAD SWAP1 PUSH1 0x24 CALLDATALOAD PUSH2 0x120A DUP4 PUSH2 0x152E JUMP JUMPDEST SWAP3 PUSH1 0x0 SWAP3 PUSH1 0x1 PUSH1 0x1 PUSH1 0xA0 SHL SUB SWAP1 DUP2 AND SWAP3 PUSH1 0x1 SWAP3 DUP4 DUP1 JUMPDEST PUSH2 0x1260 JUMPI JUMPDEST POP POP POP POP POP POP PUSH2 0x1234 DUP2 PUSH2 0x152E JUMP JUMPDEST SWAP2 PUSH1 0x0 JUMPDEST DUP3 DUP2 LT PUSH2 0x124D JUMPI PUSH1 0x40 MLOAD DUP1 PUSH2 0x271 DUP7 DUP3 PUSH2 0x1313 JUMP JUMPDEST DUP1 PUSH2 0x71F PUSH2 0x125B SWAP3 DUP5 PUSH2 0x1560 JUMP JUMPDEST PUSH2 0x1238 JUMP JUMPDEST DUP2 DUP2 GT ISZERO DUP1 PUSH2 0x12C3 JUMPI JUMPDEST ISZERO PUSH2 0x12BE JUMPI DUP1 PUSH1 0x0 MSTORE PUSH1 0x3 PUSH1 0x20 MSTORE DUP6 DUP5 DUP7 PUSH1 0x40 PUSH1 0x0 KECCAK256 ADD SLOAD AND EQ PUSH2 0x129D JUMPI JUMPDEST SWAP1 PUSH2 0x1295 DUP6 SWAP4 SWAP3 PUSH2 0x13E1 JUMP JUMPDEST SWAP1 SWAP2 SWAP3 PUSH2 0x1220 JUMP JUMPDEST SWAP6 SWAP1 PUSH2 0x1295 PUSH2 0x12B3 DUP4 DUP10 PUSH2 0x72A DUP10 SWAP8 SWAP7 DUP14 PUSH2 0x1560 JUMP JUMPDEST SWAP8 SWAP2 SWAP3 SWAP4 POP POP PUSH2 0x1289 JUMP JUMPDEST PUSH2 0x1225 JUMP JUMPDEST POP DUP3 DUP8 LT PUSH2 0x126A JUMP JUMPDEST CALLVALUE PUSH2 0x1FE JUMPI PUSH1 0x0 CALLDATASIZE PUSH1 0x3 NOT ADD SLT PUSH2 0x1FE JUMPI PUSH1 0x20 SWAP1 PUSH1 0x6 SLOAD DUP2 MSTORE RETURN JUMPDEST PUSH1 0x4 CALLDATALOAD SWAP1 PUSH1 0x1 PUSH1 0x1 PUSH1 0xA0 SHL SUB DUP3 AND DUP3 SUB PUSH2 0x1FE JUMPI JUMP JUMPDEST PUSH1 0x24 CALLDATALOAD SWAP1 PUSH1 0x1 PUSH1 0x1 PUSH1 0xA0 SHL SUB DUP3 AND DUP3 SUB PUSH2 0x1FE JUMPI JUMP JUMPDEST PUSH1 0x20 SWAP1 DUP2 PUSH1 0x40 DUP2 DUP4 ADD SWAP3 DUP3 DUP2 MSTORE DUP6 MLOAD DUP1 SWAP5 MSTORE ADD SWAP4 ADD SWAP2 PUSH1 0x0 JUMPDEST DUP3 DUP2 LT PUSH2 0x133A JUMPI POP POP POP POP SWAP1 JUMP JUMPDEST DUP4 MLOAD DUP6 MSTORE SWAP4 DUP2 ADD SWAP4 SWAP3 DUP2 ADD SWAP3 PUSH1 0x1 ADD PUSH2 0x132C JUMP JUMPDEST DUP1 SLOAD DUP3 LT ISZERO PUSH2 0x1366 JUMPI PUSH1 0x0 MSTORE PUSH1 0x20 PUSH1 0x0 KECCAK256 ADD SWAP1 PUSH1 0x0 SWAP1 JUMP JUMPDEST PUSH4 0x4E487B71 PUSH1 0xE0 SHL PUSH1 0x0 MSTORE PUSH1 0x32 PUSH1 0x4 MSTORE PUSH1 0x24 PUSH1 0x0 REVERT JUMPDEST PUSH1 0x0 SLOAD PUSH1 0x1 PUSH1 0x1 PUSH1 0xA0 SHL SUB AND CALLER SUB PUSH2 0x1390 JUMPI JUMP JUMPDEST PUSH1 0x64 PUSH1 0x40 MLOAD PUSH3 0x461BCD PUSH1 0xE5 SHL DUP2 MSTORE PUSH1 0x20 PUSH1 0x4 DUP3 ADD MSTORE PUSH1 0x20 PUSH1 0x24 DUP3 ADD MSTORE PUSH32 0x4F776E61626C653A2063616C6C6572206973206E6F7420746865206F776E6572 PUSH1 0x44 DUP3 ADD MSTORE REVERT JUMPDEST SWAP2 SWAP1 DUP3 SUB SWAP2 DUP3 GT PUSH2 0xF3E JUMPI JUMP JUMPDEST PUSH1 0x0 NOT DUP2 EQ PUSH2 0xF3E JUMPI PUSH1 0x1 ADD SWAP1 JUMP JUMPDEST PUSH2 0x100 DUP2 ADD SWAP1 DUP2 LT PUSH8 0xFFFFFFFFFFFFFFFF DUP3 GT OR PUSH2 0x8FC JUMPI PUSH1 0x40 MSTORE JUMP JUMPDEST SWAP1 PUSH1 0x1F DUP1 NOT SWAP2 ADD AND DUP2 ADD SWAP1 DUP2 LT PUSH8 0xFFFFFFFFFFFFFFFF DUP3 GT OR PUSH2 0x8FC JUMPI PUSH1 0x40 MSTORE JUMP JUMPDEST SWAP2 SWAP1 DUP3 ADD DUP1 SWAP3 GT PUSH2 0xF3E JUMPI JUMP JUMPDEST PUSH1 0xFF PUSH1 0x2 SLOAD AND PUSH2 0x1448 JUMPI JUMP JUMPDEST PUSH1 0x40 MLOAD PUSH3 0x461BCD PUSH1 0xE5 SHL DUP2 MSTORE PUSH1 0x20 PUSH1 0x4 DUP3 ADD MSTORE PUSH1 0x10 PUSH1 0x24 DUP3 ADD MSTORE PUSH16 0x14185D5CD8589B194E881C185D5CD959 PUSH1 0x82 SHL PUSH1 0x44 DUP3 ADD MSTORE PUSH1 0x64 SWAP1 REVERT JUMPDEST PUSH1 0x2 PUSH1 0x1 SLOAD EQ PUSH2 0x1491 JUMPI PUSH1 0x2 PUSH1 0x1 SSTORE JUMP JUMPDEST PUSH1 0x40 MLOAD PUSH3 0x461BCD PUSH1 0xE5 SHL DUP2 MSTORE PUSH1 0x20 PUSH1 0x4 DUP3 ADD MSTORE PUSH1 0x1F PUSH1 0x24 DUP3 ADD MSTORE PUSH32 0x5265656E7472616E637947756172643A207265656E7472616E742063616C6C00 PUSH1 0x44 DUP3 ADD MSTORE PUSH1 0x64 SWAP1 REVERT JUMPDEST RETURNDATASIZE ISZERO PUSH2 0x1511 JUMPI RETURNDATASIZE SWAP1 PUSH8 0xFFFFFFFFFFFFFFFF DUP3 GT PUSH2 0x8FC JUMPI PUSH1 0x40 MLOAD SWAP2 PUSH2 0x1505 PUSH1 0x1F DUP3 ADD PUSH1 0x1F NOT AND PUSH1 0x20 ADD DUP5 PUSH2 0x140D JUMP JUMPDEST DUP3 MSTORE RETURNDATASIZE PUSH1 0x0 PUSH1 0x20 DUP5 ADD RETURNDATACOPY JUMP JUMPDEST PUSH1 0x60 SWAP1 JUMP JUMPDEST PUSH8 0xFFFFFFFFFFFFFFFF DUP2 GT PUSH2 0x8FC JUMPI PUSH1 0x5 SHL PUSH1 0x20 ADD SWAP1 JUMP JUMPDEST SWAP1 PUSH2 0x1538 DUP3 PUSH2 0x1516 JUMP JUMPDEST PUSH2 0x1545 PUSH1 0x40 MLOAD SWAP2 DUP3 PUSH2 0x140D JUMP JUMPDEST DUP3 DUP2 MSTORE DUP1 SWAP3 PUSH2 0x1556 PUSH1 0x1F NOT SWAP2 PUSH2 0x1516 JUMP JUMPDEST ADD SWAP1 PUSH1 0x20 CALLDATASIZE SWAP2 ADD CALLDATACOPY JUMP JUMPDEST DUP1 MLOAD DUP3 LT ISZERO PUSH2 0x1366 JUMPI PUSH1 0x20 SWAP2 PUSH1 0x5 SHL ADD ADD SWAP1 JUMP INVALID LOG2 PUSH5 0x6970667358 0x22 SLT KECCAK256 0xC1 DUP2 SWAP7 0xE4 MSTORE 0xE2 DUP6 PUSH17 0x854E358B06B2ACE7062C89AFAB0585283C 0x24 SIGNEXTEND MOD KECCAK256 0xBC PUSH21 0x1864736F6C63430008130033000000000000000000 "},"methodIdentifiers":{"MAX_PLATFORM_FEE()":"3998a681","emergencyPause()":"51858e27","emergencyUnpause()":"4a4e3bd5","eventContract()":"e274fd24","eventPayments(uint256,uint256)":"798929e4","getContractStats()":"dfe6b5d6","getEventPayments(uint256)":"cb5847d0","getOrganizerBalance(address)":"61436532","getPaymentRecord(uint256)":"c1d446be","getPaymentsByOrganizer(address,uint256)":"9113e89b","getPaymentsByPayer(address,uint256)":"0b2bad5f","organizerBalances(address)":"b0380578","owner()":"8da5cb5b","paused()":"5c975abb","paymentCount()":"0937e68a","paymentRecords(uint256)":"5691fe63","platformFeePercentage()":"cdd78cfc","processPayment(uint256,address,address,uint256)":"3279c411","renounceOwnership()":"715018a6","ticketContract()":"58a86e1d","transferOwnership(address)":"f2fde38b","updateContractAddresses(address,address)":"1ff6dc5b","updatePlatformFee(uint256)":"aa0b5988","withdrawOrganizerFunds(uint256)":"50f417b5","withdrawPlatformFees()":"d0b7830b"}},"storageLayout":{"storage":[{"astId":7,"contract":"contracts/PaymentProcessor.sol:PaymentProcessor","label":"_owner","offset":0,"slot":"0","type":"t_address"},{"astId":231,"contract":"contracts/PaymentProcessor.sol:PaymentProcessor","label":"_status","offset":0,"slot":"1","type":"t_uint256"},{"astId":130,"contract":"contracts/PaymentProcessor.sol:PaymentProcessor","label":"_paused","offset":0,"slot":"2","type":"t_bool"},{"astId":358,"contract":"contracts/PaymentProcessor.sol:PaymentProcessor","label":"paymentRecords","offset":0,"slot":"3","type":"t_mapping(t_uint256,t_struct(PaymentRecord)344_storage)"},{"astId":363,"contract":"contracts/PaymentProcessor.sol:PaymentProcessor","label":"organizerBalances","offset":0,"slot":"4","type":"t_mapping(t_address,t_struct(OrganizerBalance)353_storage)"},{"astId":368,"contract":"contracts/PaymentProcessor.sol:PaymentProcessor","label":"eventPayments","offset":0,"slot":"5","type":"t_mapping(t_uint256,t_array(t_uint256)dyn_storage)"},{"astId":370,"contract":"contracts/PaymentProcessor.sol:PaymentProcessor","label":"paymentCount","offset":0,"slot":"6","type":"t_uint256"},{"astId":373,"contract":"contracts/PaymentProcessor.sol:PaymentProcessor","label":"platformFeePercentage","offset":0,"slot":"7","type":"t_uint256"},{"astId":378,"contract":"contracts/PaymentProcessor.sol:PaymentProcessor","label":"eventContract","offset":0,"slot":"8","type":"t_address"},{"astId":380,"contract":"contracts/PaymentProcessor.sol:PaymentProcessor","label":"ticketContract","offset":0,"slot":"9","type":"t_address"}],"types":{"t_address":{"encoding":"inplace","label":"address","numberOfBytes":"20"},"t_array(t_uint256)dyn_storage":{"base":"t_uint256","encoding":"dynamic_array","label":"uint256[]","numberOfBytes":"32"},"t_bool":{"encoding":"inplace","label":"bool","numberOfBytes":"1"},"t_mapping(t_address,t_struct(OrganizerBalance)353_storage)":{"encoding":"mapping","key":"t_address","label":"mapping(address => struct PaymentProcessor.OrganizerBalance)","numberOfBytes":"32","value":"t_struct(OrganizerBalance)353_storage"},"t_mapping(t_uint256,t_array(t_uint256)dyn_storage)":{"encoding":"mapping","key":"t_uint256","label":"mapping(uint256 => uint256[])","numberOfBytes":"32","value":"t_array(t_uint256)dyn_storage"},"t_mapping(t_uint256,t_struct(PaymentRecord)344_storage)":{"encoding":"mapping","key":"t_uint256","label":"mapping(uint256 => struct PaymentProcessor.PaymentRecord)","numberOfBytes":"32","value":"t_struct(PaymentRecord)344_storage"},"t_struct(OrganizerBalance)353_storage":{"encoding":"inplace","label":"struct PaymentProcessor.OrganizerBalance","members":[{"astId":346,"contract":"contracts/PaymentProcessor.sol:PaymentProcessor","label":"totalEarned","offset":0,"slot":"0","type":"t_uint256"},{"astId":348,"contract":"contracts/PaymentProcessor.sol:PaymentProcessor","label":"availableBalance","offset":0,"slot":"1","type":"t_uint256"},{"astId":350,"contract":"contracts/PaymentProcessor.sol:PaymentProcessor","label":"withdrawnAmount","offset":0,"slot":"2","type":"t_uint256"},{"astId":352,"contract":"contracts/PaymentProcessor.sol:PaymentProcessor","label":"lastWithdrawal","offset":0,"slot":"3","type":"t_uint256"}],"numberOfBytes":"128"},"t_struct(PaymentRecord)344_storage":{"encoding":"inplace","label":"struct PaymentProcessor.PaymentRecord","members":[{"astId":329,"contract":"contracts/PaymentProcessor.sol:PaymentProcessor","label":"eventId","offset":0,"slot":"0","type":"t_uint256"},{"astId":331,"contract":"contracts/PaymentProcessor.sol:PaymentProcessor","label":"payer","offset":0,"slot":"1","type":"t_address"},{"astId":333,"contract":"contracts/PaymentProcessor.sol:PaymentProcessor","label":"organizer","offset":0,"slot":"2","type":"t_address"},{"astId":335,"contract":"contracts/PaymentProcessor.sol:PaymentProcessor","label":"amount","offset":0,"slot":"3","type":"t_uint256"},{"astId":337,"contract":"contracts/PaymentProcessor.sol:PaymentProcessor","label":"platformFee","offset":0,"slot":"4","type":"t_uint256"},{"astId":339,"contract":"contracts/PaymentProcessor.sol:PaymentProcessor","label":"organizerShare","offset":0,"slot":"5","type":"t_uint256"},{"astId":341,"contract":"contracts/PaymentProcessor.sol:PaymentProcessor","label":"timestamp","offset":0,"slot":"6","type":"t_uint256"},{"astId":343,"contract":"contracts/PaymentProcessor.sol:PaymentProcessor","label":"processed","offset":0,"slot":"7","type":"t_bool"}],"numberOfBytes":"256"},"t_uint256":{"encoding":"inplace","label":"uint256","numberOfBytes":"32"}}}}}}