{
  "_format": "hh-sol-artifact-1",
  "contractName": "EventContract",
  "sourceName": "contracts/EventContract.sol",
  "abi": [
    {
      "anonymous": false,
      "inputs": [
        {
          "indexed": true,
          "internalType": "uint256",
          "name": "eventId",
          "type": "uint256"
        }
      ],
      "name": "EventCancelled",
      "type": "event"
    },
    {
      "anonymous": false,
      "inputs": [
        {
          "indexed": true,
          "internalType": "uint256",
          "name": "eventId",
          "type": "uint256"
        },
        {
          "indexed": true,
          "internalType": "address",
          "name": "organizer",
          "type": "address"
        },
        {
          "indexed": false,
          "internalType": "string",
          "name": "title",
          "type": "string"
        }
      ],
      "name": "EventCreated",
      "type": "event"
    },
    {
      "anonymous": false,
      "inputs": [
        {
          "indexed": true,
          "internalType": "uint256",
          "name": "eventId",
          "type": "uint256"
        },
        {
          "indexed": false,
          "internalType": "string",
          "name": "title",
          "type": "string"
        }
      ],
      "name": "EventUpdated",
      "type": "event"
    },
    {
      "anonymous": false,
      "inputs": [
        {
          "indexed": true,
          "internalType": "address",
          "name": "previousOwner",
          "type": "address"
        },
        {
          "indexed": true,
          "internalType": "address",
          "name": "newOwner",
          "type": "address"
        }
      ],
      "name": "OwnershipTransferred",
      "type": "event"
    },
    {
      "anonymous": false,
      "inputs": [
        {
          "indexed": true,
          "internalType": "address",
          "name": "oldProcessor",
          "type": "address"
        },
        {
          "indexed": true,
          "internalType": "address",
          "name": "newProcessor",
          "type": "address"
        }
      ],
      "name": "PaymentProcessorUpdated",
      "type": "event"
    },
    {
      "anonymous": false,
      "inputs": [
        {
          "indexed": true,
          "internalType": "uint256",
          "name": "eventId",
          "type": "uint256"
        },
        {
          "indexed": true,
          "internalType": "address",
          "name": "user",
          "type": "address"
        }
      ],
      "name": "UserRegistered",
      "type": "event"
    },
    {
      "anonymous": false,
      "inputs": [
        {
          "indexed": true,
          "internalType": "uint256",
          "name": "eventId",
          "type": "uint256"
        },
        {
          "indexed": true,
          "internalType": "address",
          "name": "user",
          "type": "address"
        }
      ],
      "name": "UserUnregistered",
      "type": "event"
    },
    {
      "inputs": [
        {
          "internalType": "uint256",
          "name": "_eventId",
          "type": "uint256"
        }
      ],
      "name": "cancelEvent",
      "outputs": [],
      "stateMutability": "nonpayable",
      "type": "function"
    },
    {
      "inputs": [
        {
          "internalType": "string",
          "name": "_title",
          "type": "string"
        },
        {
          "internalType": "string",
          "name": "_description",
          "type": "string"
        },
        {
          "internalType": "uint256",
          "name": "_startDate",
          "type": "uint256"
        },
        {
          "internalType": "uint256",
          "name": "_endDate",
          "type": "uint256"
        },
        {
          "internalType": "uint256",
          "name": "_ticketPrice",
          "type": "uint256"
        },
        {
          "internalType": "uint256",
          "name": "_capacity",
          "type": "uint256"
        },
        {
          "internalType": "string",
          "name": "_location",
          "type": "string"
        },
        {
          "internalType": "string[]",
          "name": "_categories",
          "type": "string[]"
        }
      ],
      "name": "createEvent",
      "outputs": [
        {
          "internalType": "uint256",
          "name": "",
          "type": "uint256"
        }
      ],
      "stateMutability": "nonpayable",
      "type": "function"
    },
    {
      "inputs": [],
      "name": "eventCount",
      "outputs": [
        {
          "internalType": "uint256",
          "name": "",
          "type": "uint256"
        }
      ],
      "stateMutability": "view",
      "type": "function"
    },
    {
      "inputs": [
        {
          "internalType": "uint256",
          "name": "",
          "type": "uint256"
        },
        {
          "internalType": "address",
          "name": "",
          "type": "address"
        }
      ],
      "name": "eventRegistrations",
      "outputs": [
        {
          "internalType": "bool",
          "name": "",
          "type": "bool"
        }
      ],
      "stateMutability": "view",
      "type": "function"
    },
    {
      "inputs": [
        {
          "internalType": "uint256",
          "name": "",
          "type": "uint256"
        }
      ],
      "name": "events",
      "outputs": [
        {
          "internalType": "uint256",
          "name": "id",
          "type": "uint256"
        },
        {
          "internalType": "string",
          "name": "title",
          "type": "string"
        },
        {
          "internalType": "string",
          "name": "description",
          "type": "string"
        },
        {
          "internalType": "uint256",
          "name": "startDate",
          "type": "uint256"
        },
        {
          "internalType": "uint256",
          "name": "endDate",
          "type": "uint256"
        },
        {
          "internalType": "uint256",
          "name": "ticketPrice",
          "type": "uint256"
        },
        {
          "internalType": "uint256",
          "name": "capacity",
          "type": "uint256"
        },
        {
          "internalType": "uint256",
          "name": "registeredCount",
          "type": "uint256"
        },
        {
          "internalType": "address",
          "name": "organizer",
          "type": "address"
        },
        {
          "internalType": "bool",
          "name": "isActive",
          "type": "bool"
        },
        {
          "internalType": "string",
          "name": "location",
          "type": "string"
        }
      ],
      "stateMutability": "view",
      "type": "function"
    },
    {
      "inputs": [],
      "name": "getActiveEvents",
      "outputs": [
        {
          "internalType": "uint256[]",
          "name": "",
          "type": "uint256[]"
        }
      ],
      "stateMutability": "view",
      "type": "function"
    },
    {
      "inputs": [],
      "name": "getContractBalance",
      "outputs": [
        {
          "internalType": "uint256",
          "name": "",
          "type": "uint256"
        }
      ],
      "stateMutability": "view",
      "type": "function"
    },
    {
      "inputs": [
        {
          "internalType": "uint256",
          "name": "_eventId",
          "type": "uint256"
        }
      ],
      "name": "getEvent",
      "outputs": [
        {
          "internalType": "uint256",
          "name": "id",
          "type": "uint256"
        },
        {
          "internalType": "string",
          "name": "title",
          "type": "string"
        },
        {
          "internalType": "string",
          "name": "description",
          "type": "string"
        },
        {
          "internalType": "uint256",
          "name": "startDate",
          "type": "uint256"
        },
        {
          "internalType": "uint256",
          "name": "endDate",
          "type": "uint256"
        },
        {
          "internalType": "uint256",
          "name": "ticketPrice",
          "type": "uint256"
        },
        {
          "internalType": "uint256",
          "name": "capacity",
          "type": "uint256"
        },
        {
          "internalType": "uint256",
          "name": "registeredCount",
          "type": "uint256"
        },
        {
          "internalType": "address",
          "name": "organizer",
          "type": "address"
        },
        {
          "internalType": "bool",
          "name": "isActive",
          "type": "bool"
        },
        {
          "internalType": "string",
          "name": "location",
          "type": "string"
        },
        {
          "internalType": "string[]",
          "name": "categories",
          "type": "string[]"
        }
      ],
      "stateMutability": "view",
      "type": "function"
    },
    {
      "inputs": [
        {
          "internalType": "address",
          "name": "_organizer",
          "type": "address"
        }
      ],
      "name": "getEventsByOrganizer",
      "outputs": [
        {
          "internalType": "uint256[]",
          "name": "",
          "type": "uint256[]"
        }
      ],
      "stateMutability": "view",
      "type": "function"
    },
    {
      "inputs": [
        {
          "internalType": "uint256",
          "name": "_eventId",
          "type": "uint256"
        },
        {
          "internalType": "address",
          "name": "_user",
          "type": "address"
        }
      ],
      "name": "isUserRegistered",
      "outputs": [
        {
          "internalType": "bool",
          "name": "",
          "type": "bool"
        }
      ],
      "stateMutability": "view",
      "type": "function"
    },
    {
      "inputs": [],
      "name": "owner",
      "outputs": [
        {
          "internalType": "address",
          "name": "",
          "type": "address"
        }
      ],
      "stateMutability": "view",
      "type": "function"
    },
    {
      "inputs": [],
      "name": "paymentProcessor",
      "outputs": [
        {
          "internalType": "address",
          "name": "",
          "type": "address"
        }
      ],
      "stateMutability": "view",
      "type": "function"
    },
    {
      "inputs": [],
      "name": "platformFee",
      "outputs": [
        {
          "internalType": "uint256",
          "name": "",
          "type": "uint256"
        }
      ],
      "stateMutability": "view",
      "type": "function"
    },
    {
      "inputs": [
        {
          "internalType": "uint256",
          "name": "_eventId",
          "type": "uint256"
        }
      ],
      "name": "registerForEvent",
      "outputs": [],
      "stateMutability": "payable",
      "type": "function"
    },
    {
      "inputs": [],
      "name": "renounceOwnership",
      "outputs": [],
      "stateMutability": "nonpayable",
      "type": "function"
    },
    {
      "inputs": [
        {
          "internalType": "address",
          "name": "_paymentProcessor",
          "type": "address"
        }
      ],
      "name": "setPaymentProcessor",
      "outputs": [],
      "stateMutability": "nonpayable",
      "type": "function"
    },
    {
      "inputs": [
        {
          "internalType": "address",
          "name": "_ticketNFT",
          "type": "address"
        }
      ],
      "name": "setTicketNFT",
      "outputs": [],
      "stateMutability": "nonpayable",
      "type": "function"
    },
    {
      "inputs": [],
      "name": "ticketNFT",
      "outputs": [
        {
          "internalType": "address",
          "name": "",
          "type": "address"
        }
      ],
      "stateMutability": "view",
      "type": "function"
    },
    {
      "inputs": [
        {
          "internalType": "address",
          "name": "newOwner",
          "type": "address"
        }
      ],
      "name": "transferOwnership",
      "outputs": [],
      "stateMutability": "nonpayable",
      "type": "function"
    },
    {
      "inputs": [
        {
          "internalType": "uint256",
          "name": "_eventId",
          "type": "uint256"
        }
      ],
      "name": "unregisterFromEvent",
      "outputs": [],
      "stateMutability": "nonpayable",
      "type": "function"
    },
    {
      "inputs": [
        {
          "internalType": "uint256",
          "name": "_eventId",
          "type": "uint256"
        },
        {
          "internalType": "string",
          "name": "_title",
          "type": "string"
        },
        {
          "internalType": "string",
          "name": "_description",
          "type": "string"
        },
        {
          "internalType": "uint256",
          "name": "_startDate",
          "type": "uint256"
        },
        {
          "internalType": "uint256",
          "name": "_endDate",
          "type": "uint256"
        },
        {
          "internalType": "uint256",
          "name": "_ticketPrice",
          "type": "uint256"
        },
        {
          "internalType": "uint256",
          "name": "_capacity",
          "type": "uint256"
        },
        {
          "internalType": "string",
          "name": "_location",
          "type": "string"
        },
        {
          "internalType": "string[]",
          "name": "_categories",
          "type": "string[]"
        }
      ],
      "name": "updateEvent",
      "outputs": [],
      "stateMutability": "nonpayable",
      "type": "function"
    },
    {
      "inputs": [
        {
          "internalType": "uint256",
          "name": "_newFee",
          "type": "uint256"
        }
      ],
      "name": "updatePlatformFee",
      "outputs": [],
      "stateMutability": "nonpayable",
      "type": "function"
    },
    {
      "inputs": [],
      "name": "withdrawPlatformFees",
      "outputs": [],
      "stateMutability": "nonpayable",
      "type": "function"
    }
  ],
  "bytecode": "0x608080604052346100635760008054336001600160a01b0319821681178355916001600160a01b03909116907f8be0079c531659141344cd1fd0a4f28419497f9722a3daafe3b4186f6b6457e09080a360018055600580556123cf90816100698239f35b600080fdfe6080604052600436101561001257600080fd5b60003560e01c8063088b0d7514611dfe5780630b79143014611d1e57806326232a2e14611d005780633612280f14611c575780633e2c7014146116345780633f69babd14611b64578063406db843146117895780634df6dab91461168157806357f69799146116345780636ade389b146115a75780636d1884e0146113625780636f9fb98a14611346578063715018a6146112ed57806371be2e4a146112cf5780638da5cb5b146112a65780639f6271c3146111d6578063aa0b598814611168578063b393391b1461113f578063c2c02965146109cd578063d0b7830b1461094d578063f1c6bdf814610924578063f2fde38b146108605763f49290061461011957600080fd5b3461085b5761012036600319011261085b576024356001600160401b03811161085b5761014a90369060040161209c565b6044356001600160401b03811161085b5761016990369060040161209c565b9060e4356001600160401b03811161085b5761018990369060040161209c565b91610104356001600160401b03811161085b576101aa9036906004016120fa565b60043560005260026020526101c56040600020541515612299565b60043560005260026020526101eb60018060a01b036008604060002001541633146122dc565b600435600052600260205260ff60086040600020015460a01c16156108165761021742606435116121d2565b6102266064356084351161221d565b600435600052600260205260076040600020015460c435106107b257600435600052600260205260406000209183516001600160401b038111610516576102706001850154611ee9565b601f811161077d575b50806020601f821160011461071057600091610705575b508160011b916000199060031b1c19161760018401555b8051906001600160401b0382116105165781906102c76002860154611ee9565b601f81116106d0575b50602090601f831160011461065e57600092610653575b50508160011b916000199060031b1c19161760028301555b6064356003830155608435600483015560a435600583015560c435600683015583516001600160401b0381116105165761033c6009840154611ee9565b601f811161061e575b506020601f82116001146105af5781929394956000926105a4575b50508160011b916000199060031b1c19161760098301555b805190600160401b821161051657600a83015482600a85015580831061052c575b506020600a910192016000526020600020916000905b8282106103f657847f0c21d47f606573d65eedb6ee084e32d784cfcd5ce32240b22f19de37d6b4096960405160208152806103f1600435946020830190612006565b0390a2005b80518051906001600160401b038211610516576104138654611ee9565b601f81116104d9575b50602090601f831160011461046957928260019493602093869560009261045e575b5050600019600383901b1c191690841b1787555b019401910190926103af565b01519050388061043e565b908660005260206000209160005b601f19851681106104c1575083602093600196938796938794601f198116106104a8575b505050811b018755610452565b015160001960f88460031b161c1916905538808061049b565b91926020600181928685015181550194019201610477565b61050690876000526020600020601f850160051c8101916020861061050c575b601f0160051c0190612282565b3861041c565b90915081906104f9565b634e487b7160e01b600052604160045260246000fd5b600a84016000526020600020908382015b818301811061054d575050610399565b8061055a60019254611ee9565b80610567575b500161053d565b601f8111831461057d5750600081555b38610560565b60009082825261059b601f60208420920160051c8201858301612282565b81835555610577565b015190503880610360565b6009840160005260206000209060005b601f1984168110610606575060019394959683601f198116106105ed575b505050811b016009830155610378565b015160001960f88460031b161c191690553880806105dd565b9091602060018192858b0151815501930191016105bf565b61064d90600985016000526020600020601f840160051c8101916020851061050c57601f0160051c0190612282565b38610345565b0151905038806102e7565b9250600285016000526020600020906000935b601f19841685106106b5576001945083601f1981161061069c575b505050811b0160028301556102ff565b015160001960f88460031b161c1916905538808061068c565b81810151835560209485019460019093019290910190610671565b6106ff90600287016000526020600020601f850160051c8101916020861061050c57601f0160051c0190612282565b386102d0565b905085015138610290565b91506001850160005260206000206000925b601f1983168410610765576001935082601f1981161061074c575b5050811b0160018401556102a7565b87015160001960f88460031b161c19169055388061073d565b87810151825560209384019360019092019101610722565b6107ac90600186016000526020600020601f840160051c8101916020851061050c57601f0160051c0190612282565b38610279565b60405162461bcd60e51b815260206004820152603660248201527f4e65772063617061636974792063616e6e6f74206265206c657373207468616e6044820152752063757272656e7420726567697374726174696f6e7360501b6064820152608490fd5b60405162461bcd60e51b815260206004820152601d60248201527f43616e6e6f74207570646174652063616e63656c6c6564206576656e740000006044820152606490fd5b600080fd5b3461085b57602036600319011261085b57610879611ebd565b61088161217a565b6001600160a01b039081169081156108d057600054826001600160601b0360a01b821617600055167f8be0079c531659141344cd1fd0a4f28419497f9722a3daafe3b4186f6b6457e0600080a3005b60405162461bcd60e51b815260206004820152602660248201527f4f776e61626c653a206e6577206f776e657220697320746865207a65726f206160448201526564647265737360d01b6064820152608490fd5b3461085b57600036600319011261085b576006546040516001600160a01b039091168152602090f35b3461085b57600036600319011261085b5761096661217a565b4780156109925760008080809360018060a01b0382541682f11561098657005b6040513d6000823e3d90fd5b60405162461bcd60e51b81526020600482015260136024820152724e6f206665657320746f20776974686472617760681b6044820152606490fd5b3461085b5761010036600319011261085b576004356001600160401b03811161085b576109fe90369060040161209c565b6024356001600160401b03811161085b57610a1d90369060040161209c565b9060c4356001600160401b03811161085b57610a3d90369060040161209c565b9060e4356001600160401b03811161085b57610a5d9036906004016120fa565b81511561110257610a7142604435116121d2565b610a806044356064351161221d565b60a435156110bd57610a93600454612273565b928360045560405194610aa586611f23565b84865283602087015260408601526044356060860152606435608086015260843560a086015260a43560c0860152600060e08601523361010086015260016101208601526101408501526101608401528160005260026020526040600020928051845560208101518051906001600160401b038211610516578190610b2d6001880154611ee9565b601f8111611088575b50602090601f83116001146110165760009261100b575b50508160011b916000199060031b1c19161760018501555b60408101518051906001600160401b038211610516578190610b8a6002880154611ee9565b601f8111610fd6575b50602090601f8311600114610f6457600092610f59575b50508160011b916000199060031b1c19161760028501555b606081015160038501556080810151600485015560a0810151600585015560c0810151600685015560e081015160078501556008840160018060a01b036101008301511681549060ff60a01b610120850151151560a01b16916affffffffffffffffffffff60a81b16171790556101408101518051906001600160401b03821161051657610c536009870154611ee9565b601f8111610f24575b50602090601f8311600114610eb05761016093929160009183610ea5575b50508160011b916000199060031b1c19161760098601555b0151805190600160401b821161051657600a85015482600a870155808310610e2d575b506020600a910194016000526020600020936000905b828210610d185760208585817ffc695dea2478fb938a11068aeedddd7046a5fe655f136e30a325d353fe187a4560405185815280610d0d339588830190612006565b0390a3604051908152f35b80518051906001600160401b03821161051657610d358854611ee9565b601f8111610dfb575b50602090601f8311600114610d8b579282600194936020938695600092610d80575b5050600019600383901b1c191690841b1789555b01960191019094610ccb565b015190508b80610d60565b908860005260206000209160005b601f1985168110610de3575083602093600196938796938794601f19811610610dca575b505050811b018955610d74565b015160001960f88460031b161c191690558b8080610dbd565b91926020600181928685015181550194019201610d99565b610e2790896000526020600020601f850160051c8101916020861061050c57601f0160051c0190612282565b88610d3e565b600a86016000526020600020908382015b8183018110610e4e575050610cb5565b80610e5b60019254611ee9565b80610e68575b5001610e3e565b601f81118314610e7e5750600081555b89610e61565b600090828252610e9c601f60208420920160051c8201858301612282565b81835555610e78565b015190508780610c7a565b906009870160005260206000209160005b601f1985168110610f0c57509183916001936101609695601f19811610610ef3575b505050811b016009860155610c92565b015160001960f88460031b161c19169055878080610ee3565b91926020600181928685015181550194019201610ec1565b610f5390600988016000526020600020601f850160051c8101916020861061050c57601f0160051c0190612282565b86610c5c565b015190508680610baa565b9250600287016000526020600020906000935b601f1984168510610fbb576001945083601f19811610610fa2575b505050811b016002850155610bc2565b015160001960f88460031b161c19169055868080610f92565b81810151835560209485019460019093019290910190610f77565b61100590600289016000526020600020601f850160051c8101916020861061050c57601f0160051c0190612282565b87610b93565b015190508680610b4d565b9250600187016000526020600020906000935b601f198416851061106d576001945083601f19811610611054575b505050811b016001850155610b65565b015160001960f88460031b161c19169055868080611044565b81810151835560209485019460019093019290910190611029565b6110b790600189016000526020600020601f850160051c8101916020861061050c57601f0160051c0190612282565b87610b36565b60405162461bcd60e51b815260206004820152601f60248201527f4361706163697479206d7573742062652067726561746572207468616e2030006044820152606490fd5b60405162461bcd60e51b81526020600482015260156024820152745469746c652063616e6e6f7420626520656d70747960581b6044820152606490fd5b3461085b57600036600319011261085b576007546040516001600160a01b039091168152602090f35b3461085b57602036600319011261085b5760043561118461217a565b6014811161119157600555005b60405162461bcd60e51b815260206004820152601e60248201527f506c6174666f726d206665652063616e6e6f74206578636565642032302500006044820152606490fd5b3461085b5760208060031936011261085b576111f0611ebd565b6004546111fc8161233d565b926000926001600160a01b039081169160015b848111156112635786866112228161233d565b9160005b82811061123f576040518061123b8682612046565b0390f35b8061124d61125e928461236f565b51611258828761236f565b52612273565b611226565b80600052600282528383600860406000200154161461128b575b61128690612273565b61120f565b9461129e8187611258611286948b61236f565b95905061127d565b3461085b57600036600319011261085b576000546040516001600160a01b039091168152602090f35b3461085b57600036600319011261085b576020600454604051908152f35b3461085b57600036600319011261085b5761130661217a565b600080546001600160a01b0319811682556001600160a01b03167f8be0079c531659141344cd1fd0a4f28419497f9722a3daafe3b4186f6b6457e08280a3005b3461085b57600036600319011261085b57602047604051908152f35b3461085b57602036600319011261085b5760043580600052600260205261138f6040600020541515612299565b60005260026020526040600020604051906113a982611f23565b805482526113b960018201611f60565b60208301526113ca60028201611f60565b60408301526003810154606083015260048101546080830152600581015460a0830152600681015460c0830152600781015460e083015260ff600882015460018060a01b03811661010085015260a01c16151561012083015261142f60098201611f60565b610140830152600a810154611443816120e3565b906114516040519283611f3f565b80825260208201600a81940160005260206000206000915b83831061158a5786858781610160840152825191602084015193604081015190606081015190608081015160a082015160c083015160e084015191600160a01b6001900361010086015116936101208601511515956101400151976040519c8d9c8d528c6101806020819201528d016114e191612006565b8c810360408e01526114f291612006565b9660608c015260808b015260a08a015260c089015260e088015261010087015261012086015284810361014086015261152a91612006565b908382036101608501525180825260208201918160051b810160200193926000915b8383106115595786860387f35b919395509193602080611578600193601f198682030187528951612006565b9701930193019092869594929361154c565b60016020819261159985611f60565b815201920192019190611469565b3461085b57602036600319011261085b576115c0611ebd565b6115c861217a565b6001600160a01b031680156115ef576001600160601b0360a01b6007541617600755600080f35b60405162461bcd60e51b815260206004820152601a60248201527f496e76616c6964207469636b6574204e465420616464726573730000000000006044820152606490fd5b3461085b57604036600319011261085b5761164d611ed3565b600435600052600360205260406000209060018060a01b0316600052602052602060ff604060002054166040519015158152f35b3461085b5760208060031936011261085b576004359081600052600281526116af6040600020541515612299565b8160005260038152604060002033600052815260ff6040600020541615611745576000828152600282526040808220600384528183203384529093529020805460ff191690556007018054801561172f5760001901905533907fd7e5581f5accf2708572ba158aa9df7b822d6855be3657319e94b445a58f7703600080a3005b634e487b7160e01b600052601160045260246000fd5b6064906040519062461bcd60e51b82526004820152601d60248201527f4e6f74207265676973746572656420666f722074686973206576656e740000006044820152fd5b60208060031936011261085b576004359081600052600281526117b26040600020541515612299565b816000526002815260ff60086040600020015460a01c1615611b2a57600260015414611ae65760026001558160005260028152604060002060038252604060002033600052825260ff60406000205416611a97576007810190815460068201541115611a525760058101543410611a16576006546001600160a01b0392908316156119d157846000526003845260406000203360005284526040600020600160ff198254161790556118648154612273565b90558160088160065416920154166040519184830191633279c41160e01b835286602485015233604485015260648401523460848401526084835260c08301918383106001600160401b03841117610516576000938493604052519134905af13d156119cc573d6118d481612081565b906118e26040519283611f3f565b81526000843d92013e5b15611987576007541680611928575b33837fb442efe467d2ef30e62927a3cae0afcbc799a8a0944d8a143332e4e5e51cee5d600080a360018055005b816000916064604051809481936303c664c360e11b83523360048401528860248401523360448401525af1801561098657156118fb57813d8311611980575b6119718183611f3f565b8101031261085b5781806118fb565b503d611967565b60405162461bcd60e51b815260048101839052601960248201527f5061796d656e742070726f63657373696e67206661696c6564000000000000006044820152606490fd5b6118ec565b60405162461bcd60e51b815260048101859052601860248201527f5061796d656e7450726f636573736f72206e6f742073657400000000000000006044820152606490fd5b60405162461bcd60e51b8152600481018490526014602482015273125b9cdd59999a58da595b9d081c185e5b595b9d60621b6044820152606490fd5b60405162461bcd60e51b815260048101849052601960248201527f4576656e742069732061742066756c6c206361706163697479000000000000006044820152606490fd5b60405162461bcd60e51b815260048101839052602160248201527f416c7265616479207265676973746572656420666f722074686973206576656e6044820152601d60fa1b6064820152608490fd5b6064906040519062461bcd60e51b82526004820152601f60248201527f5265656e7472616e637947756172643a207265656e7472616e742063616c6c006044820152fd5b6064906040519062461bcd60e51b8252600482015260136024820152724576656e74206973206e6f742061637469766560681b6044820152fd5b3461085b5760208060031936011261085b57600435908160005260028152611b926040600020541515612299565b8160005260028152611bb560018060a01b036008604060002001541633146122dc565b816000526002815260ff60086040600020015460a01c1615611c13576000828152600290915260408120600801805460ff60a01b191690557fdc3cb569b066460f4a22dffa05317bdcce5d3826382ed49a21f13e5fa2063d399080a2005b6064906040519062461bcd60e51b82526004820152601a60248201527f4576656e7420697320616c72656164792063616e63656c6c65640000000000006044820152fd5b3461085b57600036600319011261085b57600454611c748161233d565b9060009060015b81811115611cba575050611c8e8161233d565b9160005b828110611ca7576040518061123b8682612046565b8061124d611cb5928461236f565b611c92565b80600052600260205260ff60086040600020015460a01c16611ce5575b611ce090612273565b611c7b565b91611cf88184611258611ce0948861236f565b929050611cd7565b3461085b57600036600319011261085b576020600554604051908152f35b3461085b57602036600319011261085b5760043560005260026020526040600020805461123b611d5060018401611f60565b92611d5d60028201611f60565b60ff60038301549260048101546005820154600683015490600784015492611dbb611d8f600960088801549701611f60565b97611dad6040519d8e9d8e528d610160908160208201520190612006565b8c810360408e015290612006565b9760608b015260808a015260a089015260c088015260e087015260018060a01b03811661010087015260a01c161515610120850152838203610140850152612006565b3461085b57602036600319011261085b57611e17611ebd565b611e1f61217a565b6001600160a01b03908116908115611e6e57600654826001600160601b0360a01b821617600655167f136038487aabf3739b91acb5eb89bf0da13241b5f155cc8edcce2b5119e7b901600080a3005b60405162461bcd60e51b815260206004820152602160248201527f496e76616c6964207061796d656e742070726f636573736f72206164647265736044820152607360f81b6064820152608490fd5b600435906001600160a01b038216820361085b57565b602435906001600160a01b038216820361085b57565b90600182811c92168015611f19575b6020831014611f0357565b634e487b7160e01b600052602260045260246000fd5b91607f1691611ef8565b61018081019081106001600160401b0382111761051657604052565b90601f801991011681019081106001600160401b0382111761051657604052565b9060405191826000825492611f7484611ee9565b908184526001948581169081600014611fe35750600114611fa0575b5050611f9e92500383611f3f565b565b9093915060005260209081600020936000915b818310611fcb575050611f9e93508201013880611f90565b85548884018501529485019487945091830191611fb3565b915050611f9e94506020925060ff191682840152151560051b8201013880611f90565b919082519283825260005b848110612032575050826000602080949584010152601f8019910116010190565b602081830181015184830182015201612011565b6020908160408183019282815285518094520193019160005b82811061206d575050505090565b83518552938101939281019260010161205f565b6001600160401b03811161051657601f01601f191660200190565b81601f8201121561085b578035906120b382612081565b926120c16040519485611f3f565b8284526020838301011161085b57816000926020809301838601378301015290565b6001600160401b0381116105165760051b60200190565b9080601f8301121561085b57813590612112826120e3565b926121206040519485611f3f565b828452602092838086019160051b8301019280841161085b57848301915b84831061214e5750505050505090565b82356001600160401b03811161085b57869161216f8484809489010161209c565b81520192019161213e565b6000546001600160a01b0316330361218e57565b606460405162461bcd60e51b815260206004820152602060248201527f4f776e61626c653a2063616c6c6572206973206e6f7420746865206f776e65726044820152fd5b156121d957565b606460405162461bcd60e51b815260206004820152602060248201527f53746172742064617465206d75737420626520696e20746865206675747572656044820152fd5b1561222457565b60405162461bcd60e51b815260206004820152602160248201527f456e642064617465206d757374206265206166746572207374617274206461746044820152606560f81b6064820152608490fd5b600019811461172f5760010190565b81811061228d575050565b60008155600101612282565b156122a057565b60405162461bcd60e51b8152602060048201526014602482015273115d995b9d08191bd95cc81b9bdd08195e1a5cdd60621b6044820152606490fd5b156122e357565b60405162461bcd60e51b815260206004820152602c60248201527f4f6e6c79206576656e74206f7267616e697a65722063616e20706572666f726d60448201526b103a3434b99030b1ba34b7b760a11b6064820152608490fd5b90612347826120e3565b6123546040519182611f3f565b8281528092612365601f19916120e3565b0190602036910137565b80518210156123835760209160051b010190565b634e487b7160e01b600052603260045260246000fdfea2646970667358221220ce2d7658d34f06acd92d7552596772670d15ab16b65a469b827c1d01a8a5ab5a64736f6c63430008130033",
  "linkReferences": {},
  "deployedLinkReferences": {}
}