{
  "_format": "hh-sol-artifact-1",
  "contractName": "PaymentProcessor",
  "sourceName": "contracts/PaymentProcessor.sol",
  "abi": [
    {
      "inputs": [
        {
          "internalType": "address",
          "name": "_eventContract",
          "type": "address"
        },
        {
          "internalType": "address",
          "name": "_ticketContract",
          "type": "address"
        }
      ],
      "stateMutability": "nonpayable",
      "type": "constructor"
    },
    {
      "anonymous": false,
      "inputs": [
        {
          "indexed": true,
          "internalType": "address",
          "name": "to",
          "type": "address"
        },
        {
          "indexed": false,
          "internalType": "uint256",
          "name": "amount",
          "type": "uint256"
        },
        {
          "indexed": false,
          "internalType": "uint256",
          "name": "timestamp",
          "type": "uint256"
        }
      ],
      "name": "EmergencyWithdrawal",
      "type": "event"
    },
    {
      "anonymous": false,
      "inputs": [
        {
          "indexed": true,
          "internalType": "address",
          "name": "previousOwner",
          "type": "address"
        },
        {
          "indexed": true,
          "internalType": "address",
          "name": "newOwner",
          "type": "address"
        }
      ],
      "name": "OwnershipTransferred",
      "type": "event"
    },
    {
      "anonymous": false,
      "inputs": [
        {
          "indexed": false,
          "internalType": "address",
          "name": "account",
          "type": "address"
        }
      ],
      "name": "Paused",
      "type": "event"
    },
    {
      "anonymous": false,
      "inputs": [
        {
          "indexed": true,
          "internalType": "uint256",
          "name": "paymentId",
          "type": "uint256"
        },
        {
          "indexed": true,
          "internalType": "uint256",
          "name": "eventId",
          "type": "uint256"
        },
        {
          "indexed": true,
          "internalType": "address",
          "name": "payer",
          "type": "address"
        },
        {
          "indexed": false,
          "internalType": "uint256",
          "name": "amount",
          "type": "uint256"
        },
        {
          "indexed": false,
          "internalType": "uint256",
          "name": "platformFee",
          "type": "uint256"
        },
        {
          "indexed": false,
          "internalType": "uint256",
          "name": "organizerShare",
          "type": "uint256"
        }
      ],
      "name": "PaymentProcessed",
      "type": "event"
    },
    {
      "anonymous": false,
      "inputs": [
        {
          "indexed": false,
          "internalType": "uint256",
          "name": "oldFee",
          "type": "uint256"
        },
        {
          "indexed": false,
          "internalType": "uint256",
          "name": "newFee",
          "type": "uint256"
        },
        {
          "indexed": false,
          "internalType": "uint256",
          "name": "timestamp",
          "type": "uint256"
        }
      ],
      "name": "PlatformFeeUpdated",
      "type": "event"
    },
    {
      "anonymous": false,
      "inputs": [
        {
          "indexed": false,
          "internalType": "address",
          "name": "account",
          "type": "address"
        }
      ],
      "name": "Unpaused",
      "type": "event"
    },
    {
      "anonymous": false,
      "inputs": [
        {
          "indexed": true,
          "internalType": "address",
          "name": "organizer",
          "type": "address"
        },
        {
          "indexed": false,
          "internalType": "uint256",
          "name": "amount",
          "type": "uint256"
        },
        {
          "indexed": false,
          "internalType": "uint256",
          "name": "timestamp",
          "type": "uint256"
        }
      ],
      "name": "WithdrawalMade",
      "type": "event"
    },
    {
      "stateMutability": "payable",
      "type": "fallback"
    },
    {
      "inputs": [],
      "name": "MAX_PLATFORM_FEE",
      "outputs": [
        {
          "internalType": "uint256",
          "name": "",
          "type": "uint256"
        }
      ],
      "stateMutability": "view",
      "type": "function"
    },
    {
      "inputs": [],
      "name": "emergencyPause",
      "outputs": [],
      "stateMutability": "nonpayable",
      "type": "function"
    },
    {
      "inputs": [],
      "name": "emergencyUnpause",
      "outputs": [],
      "stateMutability": "nonpayable",
      "type": "function"
    },
    {
      "inputs": [],
      "name": "eventContract",
      "outputs": [
        {
          "internalType": "address",
          "name": "",
          "type": "address"
        }
      ],
      "stateMutability": "view",
      "type": "function"
    },
    {
      "inputs": [
        {
          "internalType": "uint256",
          "name": "",
          "type": "uint256"
        },
        {
          "internalType": "uint256",
          "name": "",
          "type": "uint256"
        }
      ],
      "name": "eventPayments",
      "outputs": [
        {
          "internalType": "uint256",
          "name": "",
          "type": "uint256"
        }
      ],
      "stateMutability": "view",
      "type": "function"
    },
    {
      "inputs": [],
      "name": "getContractStats",
      "outputs": [
        {
          "internalType": "uint256",
          "name": "totalPayments",
          "type": "uint256"
        },
        {
          "internalType": "uint256",
          "name": "totalVolume",
          "type": "uint256"
        },
        {
          "internalType": "uint256",
          "name": "totalPlatformFees",
          "type": "uint256"
        },
        {
          "internalType": "uint256",
          "name": "contractBalance",
          "type": "uint256"
        }
      ],
      "stateMutability": "view",
      "type": "function"
    },
    {
      "inputs": [
        {
          "internalType": "uint256",
          "name": "eventId",
          "type": "uint256"
        }
      ],
      "name": "getEventPayments",
      "outputs": [
        {
          "internalType": "uint256[]",
          "name": "",
          "type": "uint256[]"
        }
      ],
      "stateMutability": "view",
      "type": "function"
    },
    {
      "inputs": [
        {
          "internalType": "address",
          "name": "organizer",
          "type": "address"
        }
      ],
      "name": "getOrganizerBalance",
      "outputs": [
        {
          "internalType": "uint256",
          "name": "totalEarned",
          "type": "uint256"
        },
        {
          "internalType": "uint256",
          "name": "availableBalance",
          "type": "uint256"
        },
        {
          "internalType": "uint256",
          "name": "withdrawnAmount",
          "type": "uint256"
        },
        {
          "internalType": "uint256",
          "name": "lastWithdrawal",
          "type": "uint256"
        }
      ],
      "stateMutability": "view",
      "type": "function"
    },
    {
      "inputs": [
        {
          "internalType": "uint256",
          "name": "paymentId",
          "type": "uint256"
        }
      ],
      "name": "getPaymentRecord",
      "outputs": [
        {
          "internalType": "uint256",
          "name": "eventId",
          "type": "uint256"
        },
        {
          "internalType": "address",
          "name": "payer",
          "type": "address"
        },
        {
          "internalType": "address",
          "name": "organizer",
          "type": "address"
        },
        {
          "internalType": "uint256",
          "name": "amount",
          "type": "uint256"
        },
        {
          "internalType": "uint256",
          "name": "platformFee",
          "type": "uint256"
        },
        {
          "internalType": "uint256",
          "name": "organizerShare",
          "type": "uint256"
        },
        {
          "internalType": "uint256",
          "name": "timestamp",
          "type": "uint256"
        },
        {
          "internalType": "bool",
          "name": "processed",
          "type": "bool"
        }
      ],
      "stateMutability": "view",
      "type": "function"
    },
    {
      "inputs": [
        {
          "internalType": "address",
          "name": "organizer",
          "type": "address"
        },
        {
          "internalType": "uint256",
          "name": "limit",
          "type": "uint256"
        }
      ],
      "name": "getPaymentsByOrganizer",
      "outputs": [
        {
          "internalType": "uint256[]",
          "name": "",
          "type": "uint256[]"
        }
      ],
      "stateMutability": "view",
      "type": "function"
    },
    {
      "inputs": [
        {
          "internalType": "address",
          "name": "payer",
          "type": "address"
        },
        {
          "internalType": "uint256",
          "name": "limit",
          "type": "uint256"
        }
      ],
      "name": "getPaymentsByPayer",
      "outputs": [
        {
          "internalType": "uint256[]",
          "name": "",
          "type": "uint256[]"
        }
      ],
      "stateMutability": "view",
      "type": "function"
    },
    {
      "inputs": [
        {
          "internalType": "address",
          "name": "",
          "type": "address"
        }
      ],
      "name": "organizerBalances",
      "outputs": [
        {
          "internalType": "uint256",
          "name": "totalEarned",
          "type": "uint256"
        },
        {
          "internalType": "uint256",
          "name": "availableBalance",
          "type": "uint256"
        },
        {
          "internalType": "uint256",
          "name": "withdrawnAmount",
          "type": "uint256"
        },
        {
          "internalType": "uint256",
          "name": "lastWithdrawal",
          "type": "uint256"
        }
      ],
      "stateMutability": "view",
      "type": "function"
    },
    {
      "inputs": [],
      "name": "owner",
      "outputs": [
        {
          "internalType": "address",
          "name": "",
          "type": "address"
        }
      ],
      "stateMutability": "view",
      "type": "function"
    },
    {
      "inputs": [],
      "name": "paused",
      "outputs": [
        {
          "internalType": "bool",
          "name": "",
          "type": "bool"
        }
      ],
      "stateMutability": "view",
      "type": "function"
    },
    {
      "inputs": [],
      "name": "paymentCount",
      "outputs": [
        {
          "internalType": "uint256",
          "name": "",
          "type": "uint256"
        }
      ],
      "stateMutability": "view",
      "type": "function"
    },
    {
      "inputs": [
        {
          "internalType": "uint256",
          "name": "",
          "type": "uint256"
        }
      ],
      "name": "paymentRecords",
      "outputs": [
        {
          "internalType": "uint256",
          "name": "eventId",
          "type": "uint256"
        },
        {
          "internalType": "address",
          "name": "payer",
          "type": "address"
        },
        {
          "internalType": "address",
          "name": "organizer",
          "type": "address"
        },
        {
          "internalType": "uint256",
          "name": "amount",
          "type": "uint256"
        },
        {
          "internalType": "uint256",
          "name": "platformFee",
          "type": "uint256"
        },
        {
          "internalType": "uint256",
          "name": "organizerShare",
          "type": "uint256"
        },
        {
          "internalType": "uint256",
          "name": "timestamp",
          "type": "uint256"
        },
        {
          "internalType": "bool",
          "name": "processed",
          "type": "bool"
        }
      ],
      "stateMutability": "view",
      "type": "function"
    },
    {
      "inputs": [],
      "name": "platformFeePercentage",
      "outputs": [
        {
          "internalType": "uint256",
          "name": "",
          "type": "uint256"
        }
      ],
      "stateMutability": "view",
      "type": "function"
    },
    {
      "inputs": [
        {
          "internalType": "uint256",
          "name": "eventId",
          "type": "uint256"
        },
        {
          "internalType": "address",
          "name": "payer",
          "type": "address"
        },
        {
          "internalType": "address",
          "name": "organizer",
          "type": "address"
        },
        {
          "internalType": "uint256",
          "name": "amount",
          "type": "uint256"
        }
      ],
      "name": "processPayment",
      "outputs": [],
      "stateMutability": "payable",
      "type": "function"
    },
    {
      "inputs": [],
      "name": "renounceOwnership",
      "outputs": [],
      "stateMutability": "nonpayable",
      "type": "function"
    },
    {
      "inputs": [
        {
          "internalType": "uint256",
          "name": "eventId",
          "type": "uint256"
        },
        {
          "internalType": "address",
          "name": "payer",
          "type": "address"
        },
        {
          "internalType": "address",
          "name": "organizer",
          "type": "address"
        },
        {
          "internalType": "uint256",
          "name": "amount",
          "type": "uint256"
        }
      ],
      "name": "testProcessPayment",
      "outputs": [],
      "stateMutability": "payable",
      "type": "function"
    },
    {
      "inputs": [],
      "name": "ticketContract",
      "outputs": [
        {
          "internalType": "address",
          "name": "",
          "type": "address"
        }
      ],
      "stateMutability": "view",
      "type": "function"
    },
    {
      "inputs": [
        {
          "internalType": "address",
          "name": "newOwner",
          "type": "address"
        }
      ],
      "name": "transferOwnership",
      "outputs": [],
      "stateMutability": "nonpayable",
      "type": "function"
    },
    {
      "inputs": [
        {
          "internalType": "address",
          "name": "_eventContract",
          "type": "address"
        },
        {
          "internalType": "address",
          "name": "_ticketContract",
          "type": "address"
        }
      ],
      "name": "updateContractAddresses",
      "outputs": [],
      "stateMutability": "nonpayable",
      "type": "function"
    },
    {
      "inputs": [
        {
          "internalType": "uint256",
          "name": "newFeePercentage",
          "type": "uint256"
        }
      ],
      "name": "updatePlatformFee",
      "outputs": [],
      "stateMutability": "nonpayable",
      "type": "function"
    },
    {
      "inputs": [
        {
          "internalType": "uint256",
          "name": "amount",
          "type": "uint256"
        }
      ],
      "name": "withdrawOrganizerFunds",
      "outputs": [],
      "stateMutability": "nonpayable",
      "type": "function"
    },
    {
      "inputs": [],
      "name": "withdrawPlatformFees",
      "outputs": [],
      "stateMutability": "nonpayable",
      "type": "function"
    },
    {
      "stateMutability": "payable",
      "type": "receive"
    }
  ],
  "bytecode": "0x60803461017057601f6200176038819003918201601f19168301916001600160401b0383118484101761017557808492604094855283398101031261017057610053602061004c8361018b565b920161018b565b60008054336001600160a01b0319808316821784556040519590946001600160a01b03949093859391908416907f8be0079c531659141344cd1fd0a4f28419497f9722a3daafe3b4186f6b6457e09080a36001805560ff196002541660025560056007551693841561012e5750169182156100e95781600854161760085560095416176009556040516115c09081620001a08239f35b60405162461bcd60e51b815260206004820152601f60248201527f496e76616c6964207469636b657420636f6e74726163742061646472657373006044820152606490fd5b62461bcd60e51b815260206004820152601e60248201527f496e76616c6964206576656e7420636f6e7472616374206164647265737300006044820152606490fd5b600080fd5b634e487b7160e01b600052604160045260246000fd5b51906001600160a01b03821682036101705756fe6080604081815260048036101561001e575b505050361561001c57005b005b600092833560e01c9081630937e68a14610f51575080630b2bad5f14610e68578063127369ea14610e445780631ff6dc5b14610d4b5780633279c41114610c8f5780633998a68114610c735780634a4e3bd514610bde57806350f417b514610a4357806351858e27146109e85780635691fe631461095757806358a86e1d1461092e5780635c975abb1461090a5780636143653214610867578063715018a61461080d578063798929e4146107c75780638da5cb5b1461079f5780639113e89b146106af578063aa0b5988146105fa578063b038057814610594578063c1d446be14610464578063cb5847d0146103f2578063cdd78cfc146103d3578063d0b7830b146102c8578063dfe6b5d614610237578063e274fd241461020a5763f2fde38b0361001157346102065760203660031901126102065761015e610f6d565b9061016761102a565b6001600160a01b039182169283156101b457505082546001600160a01b0319811683178455167f8be0079c531659141344cd1fd0a4f28419497f9722a3daafe3b4186f6b6457e08380a380f35b906020608492519162461bcd60e51b8352820152602660248201527f4f776e61626c653a206e6577206f776e657220697320746865207a65726f206160448201526564647265737360d01b6064820152fd5b8280fd5b50503461023357816003193601126102335760085490516001600160a01b039091168152602090f35b5080fd5b509190346102335781600319360112610233578192919280600190600654945b8583111561028657505091519283526020830193909352506040810191909152476060820152608090f35b0390f35b9091926102bb6102c19185855260036102aa60209a828c52828a89200154906111a1565b9987875252838786200154906111a1565b9361113d565b9190610257565b5090346102065782600319360112610206576102e261102a565b6102ea611496565b479182156103915760018060a01b03908480808087868254165af161030d6114ec565b501561034e5750907f56da9a5ae0bcf6e7c3fdd78a10550e7d0458de1c39bfb7f6e96a3e92dd344a6891845416928151908152426020820152a26001805580f35b606490602084519162461bcd60e51b8352820152601e60248201527f506c6174666f726d20666565207769746864726177616c206661696c656400006044820152fd5b6020606492519162461bcd60e51b8352820152601c60248201527f4e6f20706c6174666f726d206665657320746f207769746864726177000000006044820152fd5b5050346102335781600319360112610233576020906007549051908152f35b509034610206576020918260031936011261046057358352600582528083209281518093808654928381520195835280832092905b82821061044957610282868661043f828b038361117f565b5191829182610f88565b835487529586019560019384019390910190610427565b8380fd5b50913461059157602036600319011261059157823580151580610585575b1561054d57828260e092610282945260036020522083516104a28161114c565b81549485825260018060a01b039687600185015416978860208501526002850154168083850152600385015491826060860152850154928360808601526005860154948560a082015260ff60076006890154988960c08501520154161515978891015251988998899693909897949160e0969361010089019a895260018060a01b0380921660208a01521660408801526060870152608086015260a085015260c08401521515910152565b825162461bcd60e51b81526020818601526012602482015271125b9d985b1a59081c185e5b595b9d08125160721b6044820152606490fd5b50600654811115610482565b80fd5b503461020657602036600319011261020657909182916001600160a01b036105ba610f6d565b1682526020522090610282825491600184015493600360028201549101549151948594859094939260609260808301968352602083015260408201520152565b50346102065760203660031901126102065780359061061761102a565b6014821161066157506007805490829055915191825260208201524260408201527f50f8ab96ec41b29e295dbc21aa964857bd7ba51c554c209db631610ce392d45690606090a180f35b608490602084519162461bcd60e51b8352820152602260248201527f506c6174666f726d206665652063616e6e6f7420657863656564206d6178696d604482015261756d60f01b6064820152fd5b8284346105915781600319360112610591576106c9610f6d565b60065492906024356106da85611544565b9484926001600160a01b039081169260019283805b61073d575b50505050505061070381611544565b925b818110610719578251806102828682610f88565b806107276107389287611576565b516107328287611576565b5261113d565b610705565b8181111580610796575b1561079157808952600360205289868560028b8d2001541614610775575b5061076f9061113d565b846106ef565b878261073261076f949a61078894611576565b96905089610765565b6106f4565b50828710610747565b505034610233578160031936011261023357905490516001600160a01b039091168152602090f35b50913461059157816003193601126105915760243592358152600560205281812090815484101561059157506020926107ff91610ffc565b91905490519160031b1c8152f35b833461059157806003193601126105915761082661102a565b80546001600160a01b03198116825581906001600160a01b03167f8be0079c531659141344cd1fd0a4f28419497f9722a3daafe3b4186f6b6457e08280a380f35b5034610206576020366003190112610206576001600160a01b03610889610f6d565b1683528060205281832090825193608085019185831067ffffffffffffffff8411176108f75750508252805480845260018201546020808601829052600284015486860181905260039094015460609687018190529451928352820152604081019190915291820152608090f35b634e487b7160e01b825260419052602490fd5b50503461023357816003193601126102335760209060ff6002541690519015158152f35b50503461023357816003193601126102335760095490516001600160a01b039091168152602090f35b5091346105915760203660031901126105915782358152600360208181529183902080546001820154600283015493830154968301546005840154600685015460079095015497519384526001600160a01b0392831696840196909652931660408201526060810195909552608085019190915260a084019190915260c083015260ff16151560e082015261010090f35b50503461023357816003193601126102335760207f62e78cea01bee320cd4e420270b5ea74000d11b0c9f74754ebdbfc544b05a25891610a2661102a565b610a2e611452565b600160ff19600254161760025551338152a180f35b5090346102065760208060031936011261046057823592610a62611496565b610a6a611452565b338552808252836001848720015410610b9d57662386f26fc100008410610b4e57338552808252600183862001610aa285825461111a565b9055338552808252600283862001610abb8582546111a1565b905533855280825242600384872001558480808087335af1610adb6114ec565b5015610b195750907f2d4d49c3e017b8235c908cbaa83a2431a08f3b950712696ece2088964fd399f091815193845242908401523392a26001805580f35b915162461bcd60e51b815291820152601160248201527015da5d1a191c985dd85b0819985a5b1959607a1b6044820152606490fd5b915162461bcd60e51b815291820152602560248201527f4d696e696d756d207769746864726177616c20616d6f756e7420697320302e30604482015264062408aa8960db1b6064820152608490fd5b915162461bcd60e51b815291820152601e60248201527f496e73756666696369656e7420617661696c61626c652062616c616e636500006044820152606490fd5b5034610206578260031936011261020657610bf761102a565b6002549060ff821615610c39575060ff1916600255513381527f5db9ee0a495bf2e6ff9c91a7834c1ba4fdd244a5e8aa4e537bd38aeae4b073aa90602090a180f35b606490602084519162461bcd60e51b8352820152601460248201527314185d5cd8589b194e881b9bdd081c185d5cd95960621b6044820152fd5b5050346102335781600319360112610233576020905160148152f35b508290610c9b36610fc3565b6008549094919391906001600160a01b03163303610cf65750610cef949550610cc5841515611082565b610cda68056bc75e2d631000008511156110ce565b610ce2611452565b610cea611496565b6111ae565b6001805580f35b608490602088519162461bcd60e51b8352820152602960248201527f4f6e6c79204576656e74436f6e74726163742063616e2063616c6c207468697360448201526810333ab731ba34b7b760b91b6064820152fd5b509034610206578060031936011261020657610d65610f6d565b6001600160a01b03602435818116949290859003610e4057610d8561102a565b16918215610dfd578315610dba5750506bffffffffffffffffffffffff60a01b90816008541617600855600954161760095580f35b906020606492519162461bcd60e51b8352820152601f60248201527f496e76616c6964207469636b657420636f6e74726163742061646472657373006044820152fd5b906020606492519162461bcd60e51b8352820152601e60248201527f496e76616c6964206576656e7420636f6e7472616374206164647265737300006044820152fd5b8580fd5b83610cef610e5136610fc3565b92610e5d92919261102a565b610cc5841515611082565b828434610591578160031936011261059157610e82610f6d565b6006549290602435610e9385611544565b9484926001600160a01b039081169260019283805b610ee5575b505050505050610ebc81611544565b925b818110610ed2578251806102828682610f88565b80610727610ee09287611576565b610ebe565b8181111580610f48575b15610f43578089526003602052898685878b8d2001541614610f21575b5090610f1985939261113d565b909192610ea8565b610f378883610732899796959b610f1995611576565b97919293505089610f0c565b610ead565b50828710610eef565b8490346102335781600319360112610233576020906006548152f35b600435906001600160a01b0382168203610f8357565b600080fd5b6020908160408183019282815285518094520193019160005b828110610faf575050505090565b835185529381019392810192600101610fa1565b6080906003190112610f8357600435906001600160a01b03906024358281168103610f8357916044359081168103610f83579060643590565b80548210156110145760005260206000200190600090565b634e487b7160e01b600052603260045260246000fd5b6000546001600160a01b0316330361103e57565b606460405162461bcd60e51b815260206004820152602060248201527f4f776e61626c653a2063616c6c6572206973206e6f7420746865206f776e65726044820152fd5b1561108957565b60405162461bcd60e51b815260206004820152601d60248201527f416d6f756e74206d7573742062652067726561746572207468616e20300000006044820152606490fd5b156110d557565b60405162461bcd60e51b815260206004820152601c60248201527f416d6f756e742063616e6e6f74206578636565642031303020455448000000006044820152606490fd5b9190820391821161112757565b634e487b7160e01b600052601160045260246000fd5b60001981146111275760010190565b610100810190811067ffffffffffffffff82111761116957604052565b634e487b7160e01b600052604160045260246000fd5b90601f8019910116810190811067ffffffffffffffff82111761116957604052565b9190820180921161112757565b91929081340361140d576001600160a01b039081169384156113d057811691821561138b576007548082029082820414821517156111275760649004916111f5838361111a565b9061120160065461113d565b809581600655604092600784516112178161114c565b8a8152602081018c8152868201858152606083018a815260808401908c825260a08501928b845260c086019442865260e087019860018a5260009b8c5260036020528c8c20975188558060018901925116916bffffffffffffffffffffffff60a01b92838254161790556002880192511690825416179055516003850155516004840155516005830155516006820155019051151560ff8019835416911617905580825260046020528282206112ce8582546111a1565b9055815260046020526001828220016112e88482546111a1565b9055868152600560205281812080549168010000000000000000831015611377575091611342826113729460017f768c2afece4bba0e29315be57972444b2ec1ccf51a6e8f0617536baaddb4ff4499989795018155610ffc565b81549060031b9089821b91600019901b191617905551938493846040919493926060820195825260208201520152565b0390a4565b634e487b7160e01b81526041600452602490fd5b60405162461bcd60e51b815260206004820152601960248201527f496e76616c6964206f7267616e697a65722061646472657373000000000000006044820152606490fd5b60405162461bcd60e51b8152602060048201526015602482015274496e76616c6964207061796572206164647265737360581b6044820152606490fd5b60405162461bcd60e51b815260206004820152601860248201527f496e636f7272656374207061796d656e7420616d6f756e7400000000000000006044820152606490fd5b60ff6002541661145e57565b60405162461bcd60e51b815260206004820152601060248201526f14185d5cd8589b194e881c185d5cd95960821b6044820152606490fd5b6002600154146114a7576002600155565b60405162461bcd60e51b815260206004820152601f60248201527f5265656e7472616e637947756172643a207265656e7472616e742063616c6c006044820152606490fd5b3d15611527573d9067ffffffffffffffff8211611169576040519161151b601f8201601f19166020018461117f565b82523d6000602084013e565b606090565b67ffffffffffffffff81116111695760051b60200190565b9061154e8261152c565b61155b604051918261117f565b828152809261156c601f199161152c565b0190602036910137565b80518210156110145760209160051b01019056fea2646970667358221220e3a2c0a3cf0ce34629f0dc06664a9ffab76ad1c5e4a64130a7b2da3ce13aaa0764736f6c63430008130033",
  "linkReferences": {},
  "deployedLinkReferences": {}
}