{
  "_format": "hh-sol-artifact-1",
  "contractName": "TicketNFT",
  "sourceName": "contracts/TicketNFT.sol",
  "abi": [
    {
      "inputs": [],
      "stateMutability": "nonpayable",
      "type": "constructor"
    },
    {
      "anonymous": false,
      "inputs": [
        {
          "indexed": true,
          "internalType": "address",
          "name": "owner",
          "type": "address"
        },
        {
          "indexed": true,
          "internalType": "address",
          "name": "approved",
          "type": "address"
        },
        {
          "indexed": true,
          "internalType": "uint256",
          "name": "tokenId",
          "type": "uint256"
        }
      ],
      "name": "Approval",
      "type": "event"
    },
    {
      "anonymous": false,
      "inputs": [
        {
          "indexed": true,
          "internalType": "address",
          "name": "owner",
          "type": "address"
        },
        {
          "indexed": true,
          "internalType": "address",
          "name": "operator",
          "type": "address"
        },
        {
          "indexed": false,
          "internalType": "bool",
          "name": "approved",
          "type": "bool"
        }
      ],
      "name": "ApprovalForAll",
      "type": "event"
    },
    {
      "anonymous": false,
      "inputs": [
        {
          "indexed": false,
          "internalType": "uint256",
          "name": "_fromTokenId",
          "type": "uint256"
        },
        {
          "indexed": false,
          "internalType": "uint256",
          "name": "_toTokenId",
          "type": "uint256"
        }
      ],
      "name": "BatchMetadataUpdate",
      "type": "event"
    },
    {
      "anonymous": false,
      "inputs": [
        {
          "indexed": true,
          "internalType": "address",
          "name": "oldContract",
          "type": "address"
        },
        {
          "indexed": true,
          "internalType": "address",
          "name": "newContract",
          "type": "address"
        }
      ],
      "name": "EventContractUpdated",
      "type": "event"
    },
    {
      "anonymous": false,
      "inputs": [
        {
          "indexed": false,
          "internalType": "uint256",
          "name": "_tokenId",
          "type": "uint256"
        }
      ],
      "name": "MetadataUpdate",
      "type": "event"
    },
    {
      "anonymous": false,
      "inputs": [
        {
          "indexed": true,
          "internalType": "address",
          "name": "previousOwner",
          "type": "address"
        },
        {
          "indexed": true,
          "internalType": "address",
          "name": "newOwner",
          "type": "address"
        }
      ],
      "name": "OwnershipTransferred",
      "type": "event"
    },
    {
      "anonymous": false,
      "inputs": [
        {
          "indexed": true,
          "internalType": "address",
          "name": "oldProcessor",
          "type": "address"
        },
        {
          "indexed": true,
          "internalType": "address",
          "name": "newProcessor",
          "type": "address"
        }
      ],
      "name": "PaymentProcessorUpdated",
      "type": "event"
    },
    {
      "anonymous": false,
      "inputs": [
        {
          "indexed": true,
          "internalType": "uint256",
          "name": "tokenId",
          "type": "uint256"
        }
      ],
      "name": "TicketCancelled",
      "type": "event"
    },
    {
      "anonymous": false,
      "inputs": [
        {
          "indexed": true,
          "internalType": "uint256",
          "name": "tokenId",
          "type": "uint256"
        },
        {
          "indexed": true,
          "internalType": "uint256",
          "name": "eventId",
          "type": "uint256"
        },
        {
          "indexed": true,
          "internalType": "address",
          "name": "purchaser",
          "type": "address"
        }
      ],
      "name": "TicketMinted",
      "type": "event"
    },
    {
      "anonymous": false,
      "inputs": [
        {
          "indexed": true,
          "internalType": "uint256",
          "name": "tokenId",
          "type": "uint256"
        },
        {
          "indexed": true,
          "internalType": "address",
          "name": "from",
          "type": "address"
        },
        {
          "indexed": true,
          "internalType": "address",
          "name": "to",
          "type": "address"
        }
      ],
      "name": "TicketTransferred",
      "type": "event"
    },
    {
      "anonymous": false,
      "inputs": [
        {
          "indexed": true,
          "internalType": "uint256",
          "name": "tokenId",
          "type": "uint256"
        },
        {
          "indexed": true,
          "internalType": "address",
          "name": "user",
          "type": "address"
        }
      ],
      "name": "TicketUsed",
      "type": "event"
    },
    {
      "anonymous": false,
      "inputs": [
        {
          "indexed": true,
          "internalType": "address",
          "name": "from",
          "type": "address"
        },
        {
          "indexed": true,
          "internalType": "address",
          "name": "to",
          "type": "address"
        },
        {
          "indexed": true,
          "internalType": "uint256",
          "name": "tokenId",
          "type": "uint256"
        }
      ],
      "name": "Transfer",
      "type": "event"
    },
    {
      "inputs": [
        {
          "internalType": "address",
          "name": "to",
          "type": "address"
        },
        {
          "internalType": "uint256",
          "name": "tokenId",
          "type": "uint256"
        }
      ],
      "name": "approve",
      "outputs": [],
      "stateMutability": "nonpayable",
      "type": "function"
    },
    {
      "inputs": [
        {
          "internalType": "address",
          "name": "owner",
          "type": "address"
        }
      ],
      "name": "balanceOf",
      "outputs": [
        {
          "internalType": "uint256",
          "name": "",
          "type": "uint256"
        }
      ],
      "stateMutability": "view",
      "type": "function"
    },
    {
      "inputs": [
        {
          "internalType": "uint256",
          "name": "tokenId",
          "type": "uint256"
        }
      ],
      "name": "cancelTicket",
      "outputs": [],
      "stateMutability": "nonpayable",
      "type": "function"
    },
    {
      "inputs": [],
      "name": "emergencyPause",
      "outputs": [],
      "stateMutability": "nonpayable",
      "type": "function"
    },
    {
      "inputs": [],
      "name": "eventContract",
      "outputs": [
        {
          "internalType": "address",
          "name": "",
          "type": "address"
        }
      ],
      "stateMutability": "view",
      "type": "function"
    },
    {
      "inputs": [
        {
          "internalType": "uint256",
          "name": "",
          "type": "uint256"
        },
        {
          "internalType": "uint256",
          "name": "",
          "type": "uint256"
        }
      ],
      "name": "eventTickets",
      "outputs": [
        {
          "internalType": "uint256",
          "name": "",
          "type": "uint256"
        }
      ],
      "stateMutability": "view",
      "type": "function"
    },
    {
      "inputs": [
        {
          "internalType": "uint256",
          "name": "tokenId",
          "type": "uint256"
        }
      ],
      "name": "exists",
      "outputs": [
        {
          "internalType": "bool",
          "name": "",
          "type": "bool"
        }
      ],
      "stateMutability": "view",
      "type": "function"
    },
    {
      "inputs": [
        {
          "internalType": "uint256",
          "name": "tokenId",
          "type": "uint256"
        }
      ],
      "name": "getApproved",
      "outputs": [
        {
          "internalType": "address",
          "name": "",
          "type": "address"
        }
      ],
      "stateMutability": "view",
      "type": "function"
    },
    {
      "inputs": [],
      "name": "getContractStats",
      "outputs": [
        {
          "internalType": "uint256",
          "name": "totalTickets",
          "type": "uint256"
        },
        {
          "internalType": "uint256",
          "name": "activeTickets",
          "type": "uint256"
        },
        {
          "internalType": "uint256",
          "name": "totalUsedTickets",
          "type": "uint256"
        }
      ],
      "stateMutability": "view",
      "type": "function"
    },
    {
      "inputs": [
        {
          "internalType": "uint256",
          "name": "eventId",
          "type": "uint256"
        }
      ],
      "name": "getEventTickets",
      "outputs": [
        {
          "internalType": "uint256[]",
          "name": "",
          "type": "uint256[]"
        }
      ],
      "stateMutability": "view",
      "type": "function"
    },
    {
      "inputs": [
        {
          "internalType": "uint256",
          "name": "tokenId",
          "type": "uint256"
        }
      ],
      "name": "getTicketMetadata",
      "outputs": [
        {
          "internalType": "uint256",
          "name": "eventId",
          "type": "uint256"
        },
        {
          "internalType": "address",
          "name": "eventContractAddr",
          "type": "address"
        },
        {
          "internalType": "address",
          "name": "purchaser",
          "type": "address"
        },
        {
          "internalType": "uint256",
          "name": "purchaseDate",
          "type": "uint256"
        },
        {
          "internalType": "bool",
          "name": "isUsed",
          "type": "bool"
        },
        {
          "internalType": "bool",
          "name": "isActive",
          "type": "bool"
        },
        {
          "internalType": "string",
          "name": "seatInfo",
          "type": "string"
        },
        {
          "internalType": "string",
          "name": "ticketType",
          "type": "string"
        }
      ],
      "stateMutability": "view",
      "type": "function"
    },
    {
      "inputs": [
        {
          "internalType": "address",
          "name": "owner",
          "type": "address"
        }
      ],
      "name": "getTicketsByOwner",
      "outputs": [
        {
          "internalType": "uint256[]",
          "name": "",
          "type": "uint256[]"
        }
      ],
      "stateMutability": "view",
      "type": "function"
    },
    {
      "inputs": [
        {
          "internalType": "address",
          "name": "owner",
          "type": "address"
        },
        {
          "internalType": "address",
          "name": "operator",
          "type": "address"
        }
      ],
      "name": "isApprovedForAll",
      "outputs": [
        {
          "internalType": "bool",
          "name": "",
          "type": "bool"
        }
      ],
      "stateMutability": "view",
      "type": "function"
    },
    {
      "inputs": [
        {
          "internalType": "address[]",
          "name": "recipients",
          "type": "address[]"
        },
        {
          "internalType": "uint256",
          "name": "eventId",
          "type": "uint256"
        },
        {
          "internalType": "address",
          "name": "eventContractAddr",
          "type": "address"
        },
        {
          "internalType": "string[]",
          "name": "seatInfos",
          "type": "string[]"
        },
        {
          "internalType": "string",
          "name": "ticketType",
          "type": "string"
        },
        {
          "internalType": "string",
          "name": "baseMetadataURI",
          "type": "string"
        }
      ],
      "name": "mintBatchTickets",
      "outputs": [
        {
          "internalType": "uint256[]",
          "name": "",
          "type": "uint256[]"
        }
      ],
      "stateMutability": "nonpayable",
      "type": "function"
    },
    {
      "inputs": [
        {
          "internalType": "address",
          "name": "to",
          "type": "address"
        },
        {
          "internalType": "uint256",
          "name": "eventId",
          "type": "uint256"
        },
        {
          "internalType": "address",
          "name": "eventContractAddr",
          "type": "address"
        },
        {
          "internalType": "string",
          "name": "seatInfo",
          "type": "string"
        },
        {
          "internalType": "string",
          "name": "ticketType",
          "type": "string"
        },
        {
          "internalType": "string",
          "name": "metadataURI",
          "type": "string"
        }
      ],
      "name": "mintTicket",
      "outputs": [
        {
          "internalType": "uint256",
          "name": "",
          "type": "uint256"
        }
      ],
      "stateMutability": "nonpayable",
      "type": "function"
    },
    {
      "inputs": [
        {
          "internalType": "address",
          "name": "to",
          "type": "address"
        },
        {
          "internalType": "uint256",
          "name": "eventId",
          "type": "uint256"
        },
        {
          "internalType": "address",
          "name": "purchaser",
          "type": "address"
        }
      ],
      "name": "mintTicketForEvent",
      "outputs": [
        {
          "internalType": "uint256",
          "name": "",
          "type": "uint256"
        }
      ],
      "stateMutability": "nonpayable",
      "type": "function"
    },
    {
      "inputs": [],
      "name": "name",
      "outputs": [
        {
          "internalType": "string",
          "name": "",
          "type": "string"
        }
      ],
      "stateMutability": "view",
      "type": "function"
    },
    {
      "inputs": [],
      "name": "owner",
      "outputs": [
        {
          "internalType": "address",
          "name": "",
          "type": "address"
        }
      ],
      "stateMutability": "view",
      "type": "function"
    },
    {
      "inputs": [
        {
          "internalType": "uint256",
          "name": "tokenId",
          "type": "uint256"
        }
      ],
      "name": "ownerOf",
      "outputs": [
        {
          "internalType": "address",
          "name": "",
          "type": "address"
        }
      ],
      "stateMutability": "view",
      "type": "function"
    },
    {
      "inputs": [],
      "name": "paymentProcessor",
      "outputs": [
        {
          "internalType": "address",
          "name": "",
          "type": "address"
        }
      ],
      "stateMutability": "view",
      "type": "function"
    },
    {
      "inputs": [],
      "name": "renounceOwnership",
      "outputs": [],
      "stateMutability": "nonpayable",
      "type": "function"
    },
    {
      "inputs": [
        {
          "internalType": "address",
          "name": "from",
          "type": "address"
        },
        {
          "internalType": "address",
          "name": "to",
          "type": "address"
        },
        {
          "internalType": "uint256",
          "name": "tokenId",
          "type": "uint256"
        }
      ],
      "name": "safeTransferFrom",
      "outputs": [],
      "stateMutability": "nonpayable",
      "type": "function"
    },
    {
      "inputs": [
        {
          "internalType": "address",
          "name": "from",
          "type": "address"
        },
        {
          "internalType": "address",
          "name": "to",
          "type": "address"
        },
        {
          "internalType": "uint256",
          "name": "tokenId",
          "type": "uint256"
        },
        {
          "internalType": "bytes",
          "name": "data",
          "type": "bytes"
        }
      ],
      "name": "safeTransferFrom",
      "outputs": [],
      "stateMutability": "nonpayable",
      "type": "function"
    },
    {
      "inputs": [
        {
          "internalType": "address",
          "name": "operator",
          "type": "address"
        },
        {
          "internalType": "bool",
          "name": "approved",
          "type": "bool"
        }
      ],
      "name": "setApprovalForAll",
      "outputs": [],
      "stateMutability": "nonpayable",
      "type": "function"
    },
    {
      "inputs": [
        {
          "internalType": "address",
          "name": "_eventContract",
          "type": "address"
        }
      ],
      "name": "setEventContract",
      "outputs": [],
      "stateMutability": "nonpayable",
      "type": "function"
    },
    {
      "inputs": [
        {
          "internalType": "address",
          "name": "_paymentProcessor",
          "type": "address"
        }
      ],
      "name": "setPaymentProcessor",
      "outputs": [],
      "stateMutability": "nonpayable",
      "type": "function"
    },
    {
      "inputs": [
        {
          "internalType": "bytes4",
          "name": "interfaceId",
          "type": "bytes4"
        }
      ],
      "name": "supportsInterface",
      "outputs": [
        {
          "internalType": "bool",
          "name": "",
          "type": "bool"
        }
      ],
      "stateMutability": "view",
      "type": "function"
    },
    {
      "inputs": [],
      "name": "symbol",
      "outputs": [
        {
          "internalType": "string",
          "name": "",
          "type": "string"
        }
      ],
      "stateMutability": "view",
      "type": "function"
    },
    {
      "inputs": [
        {
          "internalType": "uint256",
          "name": "",
          "type": "uint256"
        }
      ],
      "name": "ticketMetadata",
      "outputs": [
        {
          "internalType": "uint256",
          "name": "eventId",
          "type": "uint256"
        },
        {
          "internalType": "address",
          "name": "eventContract",
          "type": "address"
        },
        {
          "internalType": "address",
          "name": "purchaser",
          "type": "address"
        },
        {
          "internalType": "uint256",
          "name": "purchaseDate",
          "type": "uint256"
        },
        {
          "internalType": "bool",
          "name": "isUsed",
          "type": "bool"
        },
        {
          "internalType": "bool",
          "name": "isActive",
          "type": "bool"
        },
        {
          "internalType": "string",
          "name": "seatInfo",
          "type": "string"
        },
        {
          "internalType": "string",
          "name": "ticketType",
          "type": "string"
        }
      ],
      "stateMutability": "view",
      "type": "function"
    },
    {
      "inputs": [
        {
          "internalType": "uint256",
          "name": "tokenId",
          "type": "uint256"
        }
      ],
      "name": "tokenURI",
      "outputs": [
        {
          "internalType": "string",
          "name": "",
          "type": "string"
        }
      ],
      "stateMutability": "view",
      "type": "function"
    },
    {
      "inputs": [],
      "name": "totalSupply",
      "outputs": [
        {
          "internalType": "uint256",
          "name": "",
          "type": "uint256"
        }
      ],
      "stateMutability": "view",
      "type": "function"
    },
    {
      "inputs": [
        {
          "internalType": "address",
          "name": "from",
          "type": "address"
        },
        {
          "internalType": "address",
          "name": "to",
          "type": "address"
        },
        {
          "internalType": "uint256",
          "name": "tokenId",
          "type": "uint256"
        }
      ],
      "name": "transferFrom",
      "outputs": [],
      "stateMutability": "nonpayable",
      "type": "function"
    },
    {
      "inputs": [
        {
          "internalType": "address",
          "name": "newOwner",
          "type": "address"
        }
      ],
      "name": "transferOwnership",
      "outputs": [],
      "stateMutability": "nonpayable",
      "type": "function"
    },
    {
      "inputs": [
        {
          "internalType": "uint256",
          "name": "tokenId",
          "type": "uint256"
        }
      ],
      "name": "useTicket",
      "outputs": [],
      "stateMutability": "nonpayable",
      "type": "function"
    },
    {
      "inputs": [
        {
          "internalType": "uint256",
          "name": "",
          "type": "uint256"
        }
      ],
      "name": "usedTickets",
      "outputs": [
        {
          "internalType": "bool",
          "name": "",
          "type": "bool"
        }
      ],
      "stateMutability": "view",
      "type": "function"
    },
    {
      "inputs": [
        {
          "internalType": "uint256",
          "name": "tokenId",
          "type": "uint256"
        },
        {
          "internalType": "uint256",
          "name": "eventId",
          "type": "uint256"
        }
      ],
      "name": "verifyTicket",
      "outputs": [
        {
          "internalType": "bool",
          "name": "",
          "type": "bool"
        }
      ],
      "stateMutability": "view",
      "type": "function"
    }
  ],
  "bytecode": "0x6080346200035f576001600160401b03906040908082018381118282101762000349578252600b81526020916a115d995b9d151a58dad95d60aa1b8383015280519381850185811082821117620003495782526004855263115512d560e21b84860152825181811162000349576000948554916001958684811c941680156200033e575b838510146200032a578190601f94858111620002d7575b5083908583116001146200027357899262000267575b5050600019600383901b1c191690861b1786555b8651928311620002535784548581811c9116801562000248575b828210146200023457828111620001ec575b50809183116001146200018357508495829394959262000177575b5050600019600383901b1c191690831b1782555b60078054336001600160a01b03198216811790925591519390916001600160a01b0316907f8be0079c531659141344cd1fd0a4f28419497f9722a3daafe3b4186f6b6457e09080a360085561367a9081620003658239f35b0151905038806200010b565b90601f198316968587528287209287905b898210620001d45750508386979896959610620001ba575b505050811b0182556200011f565b015160001960f88460031b161c19169055388080620001ac565b80888596829496860151815501950193019062000194565b8587528187208380860160051c8201928487106200022a575b0160051c019086905b8281106200021e575050620000f0565b8881550186906200020e565b9250819262000205565b634e487b7160e01b87526022600452602487fd5b90607f1690620000de565b634e487b7160e01b86526041600452602486fd5b015190503880620000b0565b898052848a208994509190601f1984168b5b87828210620002c05750508411620002a6575b505050811b018655620000c4565b015160001960f88460031b161c1916905538808062000298565b8385015186558c9790950194938401930162000285565b9091508880528389208580850160051c82019286861062000320575b918a91869594930160051c01915b828110620003115750506200009a565b8b81558594508a910162000301565b92508192620002f3565b634e487b7160e01b88526022600452602488fd5b93607f169362000083565b634e487b7160e01b600052604160045260246000fd5b600080fdfe608080604052600436101561001357600080fd5b60003560e01c90816301ffc9a71461224e5750806303446b181461223557806306fdde0314612192578063078cc98614611cdb578063081812fc14611cbd578063088b0d7514611bfe578063095ea7b314611a8457806318160ddd14611a6657806323b872dd146119d157806326606448146118d657806342842e0e146117b75780634f558e791461177b57806351858e27146117605780635a7b914c146110f25780636352211e146110c2578063656f0f0f1461104d57806367aa23e214610f7257806370a0823114610f47578063715018a614610eea57806371efdc2114610eb9578063779cea7714610e7a5780637f677bd014610a145780638da5cb5b146109eb57806395d89b411461090c578063a22cb46514610831578063b88d4fde14610718578063ba0ae43c14610625578063c87b56dd146105b3578063ca261ce11461053d578063dfe6b5d614610477578063e274fd241461044e578063e985e9c5146103f8578063ea05fc511461037b578063ee355b1f1461029d578063f1c6bdf8146102745763f2fde38b146101ab57600080fd5b3461026f57602036600319011261026f576101c4612331565b6101cc61262c565b6001600160a01b0390811690811561021b57600754826001600160601b0360a01b821617600755167f8be0079c531659141344cd1fd0a4f28419497f9722a3daafe3b4186f6b6457e0600080a3005b60405162461bcd60e51b815260206004820152602660248201527f4f776e61626c653a206e6577206f776e657220697320746865207a65726f206160448201526564647265737360d01b6064820152608490fd5b600080fd5b3461026f57600036600319011261026f57600e546040516001600160a01b039091168152602090f35b3461026f57602036600319011261026f576004356102b961262c565b6000818152600260205260409020546102dc906001600160a01b0316151561333d565b80600052600a60205260ff600460406000200154166103365780600052600a602052600460406000200161ff001981541690557f90a5808be5f77b4a2e0aa0389f433983252aabf738204c5c421fc59e5ecdaeea600080a2005b60405162461bcd60e51b815260206004820152601960248201527f43616e6e6f742063616e63656c2075736564207469636b6574000000000000006044820152606490fd5b3461026f57602036600319011261026f57600435600052600a602052604060002080546103f460018060a01b03918260018501541692600285015416936003810154916004820154906103dc60066103d560058601612586565b9401612586565b9360405197889760ff808660081c16951693896124f0565b0390f35b3461026f57604036600319011261026f57610411612331565b61041961235d565b9060018060a01b03809116600052600560205260406000209116600052602052602060ff604060002054166040519015158152f35b3461026f57600036600319011261026f57600d546040516001600160a01b039091168152602090f35b3461026f57600036600319011261026f576009546000908160015b828111156104b157509160609260405192835260208301526040820152f35b6000818152600260205260409020546001600160a01b03166104dc575b6104d790613045565b610492565b9283600052600a60205260046040600020015460ff9081811660001461051357505061050a6104d791613045565b935b90506104ce565b60089592951c16610528575b6104d79061050c565b906105356104d791613045565b91905061051f565b3461026f5760208060031936011261026f57600435600052600b8152604060002090604051908181845491828152019360005281600020916000905b82821061059c576103f485610590818903826123df565b60405191829182612487565b835486529485019460019384019390910190610579565b3461026f57602036600319011261026f576004356000818152600260205260409020546105ea906001600160a01b031615156126fb565b60005260066020526103f46106026040600020612586565b6000604051610610816123c4565b5260405191829160208352602083019061230c565b3461026f57602036600319011261026f5760043560008181526002602052604090205461065c906001600160a01b0316151561333d565b600052600a6020526040600020604051610675816123a8565b815481526103f460018060a01b039182600185015416926020820193845280600286015416946040830195865260038101549160608401928352600482015490608085019060ff83161515825260ff60a087019360081c1615158352806106f160066106e360058801612586565b9660c08a0197885201612586565b968760e08201525198511698511693519051151591511515925193604051988998896124f0565b3461026f57608036600319011261026f57610731612331565b61073961235d565b6044356064356001600160401b03811161026f573660238201121561026f5761080561077261080a923690602481600401359101612432565b83600052600a60205261079060ff60046040600020015416156131d0565b83600052600a6020526107b060ff60046040600020015460081c16613212565b6001600160a01b03948490866107c583612747565b16966107d5818a16988914613381565b8116976107e38915156133bd565b6107f56107f0843361346b565b613409565b610800838383613533565b612bb6565b612a26565b7fd15524263ae66f75c1e604c47db6085085110f23ef7322b355179ac5e3b0783a600080a4005b3461026f57604036600319011261026f5761084a612331565b602435908115159081830361026f576001600160a01b0316913383146108c7576108999033600052600560205260406000208460005260205260406000209060ff801983541691151516179055565b6040519081527f17307eab39ab6107e8899845ad3d59bd9653f200f220920489ca2b5937696c3160203392a3005b60405162461bcd60e51b815260206004820152601960248201527f4552433732313a20617070726f766520746f2063616c6c6572000000000000006044820152606490fd5b3461026f57600036600319011261026f57604051600060018054906109308261254c565b808552918181169081156109c4575060011461096b575b6103f484610957818603826123df565b60405191829160208352602083019061230c565b600081815292507fb10e2d527612073b26eecdfd717e6a320cf44b4afac2b0732d9fcbe2b7fa0cf65b8284106109ac57505050810160200161095782610947565b80546020858701810191909152909301928101610994565b60ff191660208087019190915292151560051b850190920192506109579150839050610947565b3461026f57600036600319011261026f576007546040516001600160a01b039091168152602090f35b3461026f5760c036600319011261026f57610a2d612331565b610a35612347565b906064356001600160401b03811161026f57610a55903690600401612469565b6084356001600160401b03811161026f57610a74903690600401612469565b60a4356001600160401b03811161026f57610a93903690600401612469565b91610a9c61262c565b600d54610ac7906001600160a01b0316610ab78115156127f4565b6001600160a01b038716146127a8565b610ada610ad5602435612e71565b612838565b610af86001600954019384600955610af285876128be565b84612c41565b60405194610b05866123a8565b602435865260018060a01b0316602086015260018060a01b038416604086015242606086015260006080860152600160a086015260c085015260e084015280600052600a6020526040600020835181556001810160018060a01b03602086015116906001600160601b0360a01b9182825416179055600282019060018060a01b036040870151169082541617905560608401516003820155610bdb60048201610bc060808701511515829060ff801983541691151516179055565b60a0860151815461ff00191690151560081b61ff0016179055565b60c08401518051906001600160401b038211610d9f57610bfe600584015461254c565b601f8111610e33575b50602090601f8311600114610dc057918060e09492600694600092610db5575b50508160011b916000199060031b1c19161760058201555b019301519283516001600160401b038111610d9f57610c5e825461254c565b601f8111610d57575b50806020958690601f8311600114610cf357600092610ce8575b50508160011b916000199060031b1c19161790555b602435600052600b8352610cae816040600020612884565b604051916001600160a01b0316602435827f085ec0eff4bf526b0dd054adffcd8bd8da42126a1133ce302042973f32029fb0600080a48152f35b015190508680610c81565b60008581528881209350601f198516905b818110610d405750908460019594939210610d27575b505050811b019055610c96565b015160001960f88460031b161c19169055868080610d1a565b929389600181928786015181550195019301610d04565b826000526020600020601f830160051c81019160208410610d95575b601f0160051c01905b818110610d895750610c67565b60008155600101610d7c565b9091508190610d73565b634e487b7160e01b600052604160045260246000fd5b015190508880610c27565b90601f198316916005850160005260206000209260005b818110610e1b575092600192859260069660e0989610610e02575b505050811b016005820155610c3f565b015160001960f88460031b161c19169055888080610df2565b92936020600181928786015181550195019301610dd7565b600584016000526020600020601f840160051c810160208510610e73575b601f830160051c82018110610e67575050610c07565b60008155600101610e51565b5080610e51565b3461026f57610e88366122d3565b90600052600b6020526040600020805482101561026f57602091610eab916124c2565b90546040519160031b1c8152f35b3461026f57602036600319011261026f57600435600052600c602052602060ff604060002054166040519015158152f35b3461026f57600036600319011261026f57610f0361262c565b600780546001600160a01b031981169091556000906001600160a01b03167f8be0079c531659141344cd1fd0a4f28419497f9722a3daafe3b4186f6b6457e08280a3005b3461026f57602036600319011261026f576020610f6a610f65612331565b612684565b604051908152f35b3461026f57602036600319011261026f57610f8b612331565b610f9481612684565b610f9d81613013565b906009549060009060019283805b610fbe575b604051806103f48882612487565b8181111580611044575b1561103f576000818152600260205260409020546001600160a01b0316151580611022575b611001575b610ffb90613045565b84610fab565b9261101a8185611014610ffb948a613054565b52613045565b939050610ff2565b5061102c81612747565b6001600160a01b03888116911614610fed565b610fb0565b50828410610fc8565b3461026f57602036600319011261026f57611066612331565b61106e61262c565b6001600160a01b03908116906110858215156127a8565b600d54826001600160601b0360a01b821617600d55167faabd72c2deac39cf65b5bc46edc0595d34778a4cb1641f4318d6937f4db7766f600080a3005b3461026f57602036600319011261026f5760206110e0600435612747565b6040516001600160a01b039091168152f35b3461026f5760c036600319011261026f576004356001600160401b03811161026f573660238201121561026f57806004013561112d81612400565b9161113b60405193846123df565b8183526024602084019260051b8201019036821161026f57602401915b8183106117405783611168612347565b90606435906001600160401b03821161026f573660238301121561026f57816004013561119481612400565b926111a260405194856123df565b8184526024602085019260051b8201019036821161026f5760248101925b82841061171157505050506084356001600160401b03811161026f576111ea903690600401612469565b60a4356001600160401b03811161026f57611209903690600401612469565b9161121261262c565b80518451036116ba57600d54611236906001600160a01b0316610ab78115156127f4565b611244610ad5602435612e71565b61124e8151613013565b9160005b82518110156116ac5760096001815401809155600182018211611696576112ed61127e60018401613068565b6112ca60405191828a51611299818d602080860191016122e9565b8101602f60f81b60208201528251906112bb82602195602087850191016122e9565b010360018101845201826123df565b6112e7836001600160a01b036112e0878a613054565b51166128be565b82612c41565b6001600160a01b036112ff8386613054565b511661130b8389613054565b5160405190611319826123a8565b60243582526113e5602083019360018060a01b038d16855260408401908152606084019042825260808501916000835260a08601916001835260c087019586528a60e088015288600052600a60205260406000209787518955600189019060018060a01b03905116906001600160601b0360a01b9182825416179055600289019160018060a01b03905116908254161790555160038701556113ce6004870192511515839060ff801983541691151516179055565b51815461ff00191690151560081b61ff0016179055565b518051906001600160401b038211610d9f57611404600585015461254c565b601f811161164f575b50602090601f83116001146115dc5760e0939291600091836115d1575b50508160011b916000199060031b1c19161760058401555b01518051906001600160401b038211610d9f57611462600684015461254c565b601f811161158a575b50602090601f831160011461151457918060069261150497969594600092611509575b50508160011b916000199060031b1c1916179101555b602435600052600b6020526114bd816040600020612884565b6001600160a01b036114cf8387613054565b5116602435827f085ec0eff4bf526b0dd054adffcd8bd8da42126a1133ce302042973f32029fb0600080a46110148287613054565b611252565b015190508d8061148e565b906006840160005260206000209160005b601f19851681106115725750926006926001926115049897969583601f19811610611559575b505050811b019101556114a4565b015160001960f88460031b161c191690558d808061154b565b91926020600181928685015181550194019201611525565b600684016000526020600020601f840160051c8101602085106115ca575b601f830160051c820181106115be57505061146b565b600081556001016115a8565b50806115a8565b015190508d8061142a565b906005850160005260206000209160005b601f1985168110611637575091839160019360e09695601f1981161061161e575b505050811b016005840155611442565b015160001960f88460031b161c191690558d808061160e565b919260206001819286850151815501940192016115ed565b600585016000526020600020601f840160051c81016020851061168f575b601f830160051c8201811061168357505061140d565b6000815560010161166d565b508061166d565b634e487b7160e01b600052601160045260246000fd5b604051806103f48682612487565b60405162461bcd60e51b815260206004820152602960248201527f526563697069656e747320616e64207365617420696e666f73206c656e677468604482015268040dad2e6dac2e8c6d60bb1b6064820152608490fd5b83356001600160401b03811161026f57602091611735839260243691870101612469565b8152019301926111c0565b82356001600160a01b038116810361026f57815260209283019201611158565b3461026f57600036600319011261026f5761177961262c565b005b3461026f57602036600319011261026f576004356000908152600260209081526040909120546001600160a01b031615155b6040519015158152f35b3461026f576117c536612373565b80600052600a6020526117e360ff60046040600020015416156131d0565b80600052600a60205261180360ff60046040600020015460081c16613212565b6118a76108056001600160a01b03838161181c82612747565b169561182c838916978814613381565b828116976107e389151561183f816133bd565b6118a26040519661184f886123c4565b6000885286600052600a60205261187160ff60046040600020015416156131d0565b86600052600a60205261189160ff60046040600020015460081c16613212565b61189a87612747565b168b14613381565b6133bd565b7fd15524263ae66f75c1e604c47db6085085110f23ef7322b355179ac5e3b0783a83838383600080a4600080a4005b3461026f5760208060031936011261026f57600435906118f582612747565b336001600160a01b039091160361199a5781600052600a815261192360ff60046040600020015416156131d0565b81600052600a815261194260ff60046040600020015460081c16613212565b81600052600a8152600c60046040600020019160ff199260018482541617905552600160406000209182541617905533907f07c2221c844690cb15e32907258d38446cd4a17bc9b84e2069cd955615d547fd600080a3005b6064906040519062461bcd60e51b82526004820152601060248201526f2737ba103a34b1b5b2ba1037bbb732b960811b6044820152fd5b3461026f576119df36612373565b80600052600a6020526119fd60ff60046040600020015416156131d0565b80600052600a602052611a1d60ff60046040600020015460081c16613212565b6001600160a01b039161080a90829084611a3683612747565b1694611a46818816968714613381565b811695611a548715156133bd565b611a616107f0843361346b565b613533565b3461026f57600036600319011261026f576020600954604051908152f35b3461026f57604036600319011261026f57611a9d612331565b602435906001600160a01b038080611ab485612747565b16921691808314611baf57803314908115611b8a575b5015611b1f57600083815260046020526040902080546001600160a01b03191683179055611af783612747565b167f8c5be1e5ebec7d5bd14f71427d1e84f3dd0314c0f7b2291e5b200ac8c7c3b925600080a4005b60405162461bcd60e51b815260206004820152603d60248201527f4552433732313a20617070726f76652063616c6c6572206973206e6f7420746f60448201527f6b656e206f776e6572206f7220617070726f76656420666f7220616c6c0000006064820152608490fd5b9050600052600560205260406000203360005260205260ff6040600020541684611aca565b60405162461bcd60e51b815260206004820152602160248201527f4552433732313a20617070726f76616c20746f2063757272656e74206f776e656044820152603960f91b6064820152608490fd5b3461026f57602036600319011261026f57611c17612331565b611c1f61262c565b6001600160a01b03908116908115611c6e57600e54826001600160601b0360a01b821617600e55167f136038487aabf3739b91acb5eb89bf0da13241b5f155cc8edcce2b5119e7b901600080a3005b60405162461bcd60e51b815260206004820152602160248201527f496e76616c6964207061796d656e742070726f636573736f72206164647265736044820152607360f81b6064820152608490fd5b3461026f57602036600319011261026f5760206110e060043561276a565b3461026f57606036600319011261026f57611cf4612331565b611cfc612347565b600d549091906001600160a01b0316330361213b57611d1f610ad5602435612e71565b60016009540180600955611d3381836128be565b611dca611d41602435613068565b6047611d4c84613068565b916040519283917f68747470733a2f2f6170692e6576656e747469636b6574732e636f6d2f6d657460208401526561646174612f60d01b6040840152611d9c8151809260206046870191016122e9565b8201602f60f81b6046820152611dbb82518093602087850191016122e9565b010360278101835201906123df565b611dd381613068565b611e0e6025604051809364536561742d60d81b6020830152611dfe81518092602086860191016122e9565b81010360058101845201826123df565b600d5460405194906001600160a01b0316611e28866123a8565b6024358652602086015260018060a01b0316604085015242606085015260006080850152600160a085015260c08401526040518060408101106001600160401b03604083011117610d9f5760408101604052600881526714dd185b99185c9960c21b602082015260e084015280600052600a6020526040600020835181556001810160018060a01b03602086015116906001600160601b0360a01b9182825416179055600282019060018060a01b036040870151169082541617905560608401516003820155611f1160048201610bc060808701511515829060ff801983541691151516179055565b60c08401518051906001600160401b038211610d9f57611f34600584015461254c565b601f81116120f4575b50602090601f831160011461207f57918060e09492600694600092612074575b50508160011b916000199060031b1c19161760058201555b019301519283516001600160401b038111610d9f57611f94825461254c565b601f811161202c575b50806020958690601f8311600114611fe257600092610ce85750508160011b916000199060031b1c1916179055602435600052600b8352610cae816040600020612884565b60008581528881209350601f198516905b8181106120155750908460019594939210610d2757505050811b019055610c96565b929389600181928786015181550195019301611ff3565b826000526020600020601f830160051c8101916020841061206a575b601f0160051c01905b81811061205e5750611f9d565b60008155600101612051565b9091508190612048565b015190508880611f5d565b906005840160005260206000209160005b601f19851681106120dc57509260e0949260019260069583601f198116106120c3575b505050811b016005820155611f75565b015160001960f88460031b161c191690558880806120b3565b91926020600181928685015181550194019201612090565b600584016000526020600020601f840160051c810160208510612134575b601f830160051c82018110612128575050611f3d565b60008155600101612112565b5080612112565b60405162461bcd60e51b815260206004820152602960248201527f4f6e6c79204576656e74436f6e74726163742063616e2063616c6c207468697360448201526810333ab731ba34b7b760b91b6064820152608490fd5b3461026f57600036600319011261026f57604051600080546121b38161254c565b808452906001908181169081156109c457506001146121dc576103f484610957818603826123df565b600080805292507f290decd9548b62a8d60345a988386fc84ba6bc95484008f6362f93160ef3e5635b82841061221d57505050810160200161095782610947565b80546020858701810191909152909301928101612205565b3461026f5760206117ad612248366122d3565b90613255565b3461026f57602036600319011261026f576004359063ffffffff60e01b821680920361026f57602091632483248360e11b8114908115612290575b5015158152f35b6380ac58cd60e01b8114915081156122c2575b81156122b1575b5083612289565b6301ffc9a760e01b149050836122aa565b635b5e139f60e01b811491506122a3565b604090600319011261026f576004359060243590565b60005b8381106122fc5750506000910152565b81810151838201526020016122ec565b90602091612325815180928185528580860191016122e9565b601f01601f1916010190565b600435906001600160a01b038216820361026f57565b604435906001600160a01b038216820361026f57565b602435906001600160a01b038216820361026f57565b606090600319011261026f576001600160a01b0390600435828116810361026f5791602435908116810361026f579060443590565b61010081019081106001600160401b03821117610d9f57604052565b602081019081106001600160401b03821117610d9f57604052565b90601f801991011681019081106001600160401b03821117610d9f57604052565b6001600160401b038111610d9f5760051b60200190565b6001600160401b038111610d9f57601f01601f191660200190565b92919261243e82612417565b9161244c60405193846123df565b82948184528183011161026f578281602093846000960137010152565b9080601f8301121561026f5781602061248493359101612432565b90565b6020908160408183019282815285518094520193019160005b8281106124ae575050505090565b8351855293810193928101926001016124a0565b80548210156124da5760005260206000200190600090565b634e487b7160e01b600052603260045260246000fd5b9081526001600160a01b039182166020820152911660408201526060810191909152901515608082015290151560a082015261010060c0820181905261248493919261253e9184019061230c565b9160e081840391015261230c565b90600182811c9216801561257c575b602083101461256657565b634e487b7160e01b600052602260045260246000fd5b91607f169161255b565b906040519182600082549261259a8461254c565b90818452600194858116908160001461260957506001146125c6575b50506125c4925003836123df565b565b9093915060005260209081600020936000915b8183106125f15750506125c4935082010138806125b6565b855488840185015294850194879450918301916125d9565b9150506125c494506020925060ff191682840152151560051b82010138806125b6565b6007546001600160a01b0316330361264057565b606460405162461bcd60e51b815260206004820152602060248201527f4f776e61626c653a2063616c6c6572206973206e6f7420746865206f776e65726044820152fd5b6001600160a01b031680156126a457600052600360205260406000205490565b60405162461bcd60e51b815260206004820152602960248201527f4552433732313a2061646472657373207a65726f206973206e6f7420612076616044820152683634b21037bbb732b960b91b6064820152608490fd5b1561270257565b60405162461bcd60e51b815260206004820152601860248201527f4552433732313a20696e76616c696420746f6b656e20494400000000000000006044820152606490fd5b6000908152600260205260409020546001600160a01b03166124848115156126fb565b60008181526002602052604090205461278d906001600160a01b031615156126fb565b6000908152600460205260409020546001600160a01b031690565b156127af57565b60405162461bcd60e51b815260206004820152601e60248201527f496e76616c6964206576656e7420636f6e7472616374206164647265737300006044820152606490fd5b156127fb57565b60405162461bcd60e51b8152602060048201526015602482015274115d995b9d10dbdb9d1c9858dd081b9bdd081cd95d605a1b6044820152606490fd5b1561283f57565b60405162461bcd60e51b815260206004820152601960248201527f496e76616c6964206f7220696e616374697665206576656e74000000000000006044820152606490fd5b805468010000000000000000811015610d9f576128a6916001820181556124c2565b819291549060031b91821b91600019901b1916179055565b6040516128ca816123c4565b6000808252926001600160a01b03831692831561298f5781610805946125c49661291261290c84600052600260205260018060a01b0360406000205416151590565b15612a4a565b600083815260026020526040902054612935906001600160a01b0316151561290c565b81815260036020526040812060018154019055828152600260205260408120826001600160601b0360a01b8254161790557fddf252ad1be2c89b69c2b068fc378daa952ba7f163c4a11628f55a4df523b3ef8180a4612a96565b606460405162461bcd60e51b815260206004820152602060248201527f4552433732313a206d696e7420746f20746865207a65726f20616464726573736044820152fd5b60809060208152603260208201527f4552433732313a207472616e7366657220746f206e6f6e20455243373231526560408201527131b2b4bb32b91034b6b83632b6b2b73a32b960711b60608201520190565b15612a2d57565b60405162461bcd60e51b815280612a46600482016129d3565b0390fd5b15612a5157565b60405162461bcd60e51b815260206004820152601c60248201527f4552433732313a20746f6b656e20616c7265616479206d696e746564000000006044820152606490fd5b9192600092909190803b15612bac57612ae4946040518092630a85bd0160e11b9485835233600484015287602484015260448301526080606483015281878160209a8b96608483019061230c565b03926001600160a01b03165af1849181612b68575b50612b57575050503d600014612b4f573d612b1381612417565b90612b2160405192836123df565b81528091833d92013e5b80519182612b4c5760405162461bcd60e51b815280612a46600482016129d3565b01fd5b506060612b2b565b6001600160e01b0319161492509050565b9091508581813d8311612ba5575b612b8081836123df565b81010312612ba157516001600160e01b031981168103612ba1579038612af9565b8480fd5b503d612b76565b5050915050600190565b9293600093909291803b15612c3657948491612c109660405180948193630a85bd0160e11b9788845233600485015260018060a01b0380921660248501526044840152608060648401528260209b8c97608483019061230c565b0393165af1849181612b685750612b57575050503d600014612b4f573d612b1381612417565b505050915050600190565b6000818152600260205260409020549192916001600160a01b031615612dd3576000908082526020916006835260408120908551906001600160401b038211612dbf57612c8e835461254c565b601f8111612d7c575b508490601f8311600114612cf857907ff8e1a15aba9398e019f0b49df1a4fde98ee17ae345cb5f6b5e2c27f5033e8ce7969783612ced575b50508160011b916000199060031b1c19161790555b604051908152a1565b015190503880612ccf565b9196601f198816848452868420935b818110612d6557509160019391897ff8e1a15aba9398e019f0b49df1a4fde98ee17ae345cb5f6b5e2c27f5033e8ce7999a9410612d4c575b505050811b019055612ce4565b015160001960f88460031b161c19169055388080612d3f565b929387600181928786015181550195019301612d07565b838252858220601f840160051c810191878510612db5575b601f0160051c01905b818110612daa5750612c97565b828155600101612d9d565b9091508190612d94565b634e487b7160e01b81526041600452602490fd5b60405162461bcd60e51b815260206004820152602e60248201527f45524337323155524953746f726167653a2055524920736574206f66206e6f6e60448201526d32bc34b9ba32b73a103a37b5b2b760911b6064820152608490fd5b81601f8201121561026f578051612e4581612417565b92612e5360405194856123df565b8184526020828401011161026f5761248491602080850191016122e9565b600d546001600160a01b039190821690811561300b57604051928392630368c42760e51b845282600485015283602460009687935afa8493849282612ece575b5050612ebd5750505090565b14915081612ec9575090565b905090565b91945091503d8086843e612ee281846123df565b820190610180838303126130075782519160209182850151906001600160401b0391828111612fff5783612f17918801612e2f565b506040860151828111612fff5783612f30918801612e2f565b506101008601519081160361300357610120850151948515158603612ffb57610140810151828111612fff5783612f68918301612e2f565b5061016081015190828211612fff57019180601f84011215612ffb578251918480612f9285612400565b612f9f60405191826123df565b858152019360051b85010193828511612ff757858101935b858510612fce575050505050505090923880612eb1565b8451838111612ff3578791612fe886848094870101612e2f565b815201940193612fb7565b8c80fd5b8a80fd5b8880fd5b8980fd5b8780fd5b8580fd5b505050600090565b9061301d82612400565b61302a60405191826123df565b828152809261303b601f1991612400565b0190602036910137565b60001981146116965760010190565b80518210156124da5760209160051b010190565b806000917a184f03e93ff9f4daa797ed6e38ed64bf6a1f010000000000000000808210156131c2575b506d04ee2d6d415b85acef8100000000808310156131b3575b50662386f26fc10000808310156131a4575b506305f5e10080831015613195575b5061271080831015613186575b506064821015613176575b600a8092101561316c575b6001908160218186019561310187612417565b9661310f60405198896123df565b80885261311e601f1991612417565b01366020890137860101905b613136575b5050505090565b600019019083906f181899199a1a9b1b9c1cb0b131b232b360811b8282061a8353049182156131675791908261312a565b61312f565b91600101916130ee565b91906064600291049101916130e3565b600491939204910191386130d8565b600891939204910191386130cb565b601091939204910191386130bc565b602091939204910191386130aa565b604093508104915038613091565b156131d757565b60405162461bcd60e51b8152602060048201526013602482015272151a58dad95d08185b1c9958591e481d5cd959606a1b6044820152606490fd5b1561321957565b60405162461bcd60e51b81526020600482015260146024820152735469636b6574206973206e6f742061637469766560601b6044820152606490fd5b6000818152600260205260409020546001600160a01b03161561333657600052600a6020526040600020906040519161328d836123a8565b8054835260018060a01b03806001830154166020850152600282015416604084015260038101546060840152816004820154936132f86006608083019460ff88161515865260ff60a085019860081c16151588526132ed60058201612586565b60c085015201612586565b60e08201525114928361332b575b5082613321575b5081613317575090565b6124849150612e71565b511591503861330d565b511515925038613306565b5050600090565b1561334457565b60405162461bcd60e51b8152602060048201526015602482015274151a58dad95d08191bd95cc81b9bdd08195e1a5cdd605a1b6044820152606490fd5b1561338857565b60405162461bcd60e51b815260206004820152600d60248201526c2737ba103a34329037bbb732b960991b6044820152606490fd5b156133c457565b60405162461bcd60e51b815260206004820152601f60248201527f43616e6e6f74207472616e7366657220746f207a65726f2061646472657373006044820152606490fd5b1561341057565b60405162461bcd60e51b815260206004820152602d60248201527f4552433732313a2063616c6c6572206973206e6f7420746f6b656e206f776e6560448201526c1c881bdc88185c1c1c9bdd9959609a1b6064820152608490fd5b906001600160a01b03808061347f84612747565b169316918383149384156134b2575b50831561349c575b50505090565b6134a89192935061276a565b1614388080613496565b909350600052600560205260406000208260005260205260ff60406000205416923861348e565b156134e057565b60405162461bcd60e51b815260206004820152602560248201527f4552433732313a207472616e736665722066726f6d20696e636f72726563742060448201526437bbb732b960d91b6064820152608490fd5b9061355b9161354184612747565b6001600160a01b03939184169284929091831684146134d9565b169182156135f357816135789161357186612747565b16146134d9565b7fddf252ad1be2c89b69c2b068fc378daa952ba7f163c4a11628f55a4df523b3ef60008481526004602052604081206001600160601b0360a01b9081815416905583825260036020526040822060001981540190558482526040822060018154019055858252600260205284604083209182541617905580a4565b60405162461bcd60e51b8152602060048201526024808201527f4552433732313a207472616e7366657220746f20746865207a65726f206164646044820152637265737360e01b6064820152608490fdfea26469706673582212203ef48252b15234ef8560446926dab1cca6a833f8dcccfd461cdc18a5d7784dc164736f6c63430008130033",
  "linkReferences": {},
  "deployedLinkReferences": {}
}